{
	"FLPCrowndsale.sol": {
		"FLPCrowdSale": {
			"abi": [
				{
					"inputs": [
						{
							"internalType": "address",
							"name": "initialOwner",
							"type": "address"
						},
						{
							"internalType": "uint256",
							"name": "eth_rate",
							"type": "uint256"
						},
						{
							"internalType": "uint256",
							"name": "usdt_rate",
							"type": "uint256"
						},
						{
							"internalType": "address payable",
							"name": "wallet",
							"type": "address"
						},
						{
							"internalType": "contract IERC20",
							"name": "icotoken",
							"type": "address"
						}
					],
					"stateMutability": "nonpayable",
					"type": "constructor"
				},
				{
					"inputs": [
						{
							"internalType": "address",
							"name": "target",
							"type": "address"
						}
					],
					"name": "AddressEmptyCode",
					"type": "error"
				},
				{
					"inputs": [
						{
							"internalType": "address",
							"name": "account",
							"type": "address"
						}
					],
					"name": "AddressInsufficientBalance",
					"type": "error"
				},
				{
					"inputs": [],
					"name": "FailedInnerCall",
					"type": "error"
				},
				{
					"inputs": [
						{
							"internalType": "address",
							"name": "owner",
							"type": "address"
						}
					],
					"name": "OwnableInvalidOwner",
					"type": "error"
				},
				{
					"inputs": [
						{
							"internalType": "address",
							"name": "account",
							"type": "address"
						}
					],
					"name": "OwnableUnauthorizedAccount",
					"type": "error"
				},
				{
					"inputs": [
						{
							"internalType": "address",
							"name": "token",
							"type": "address"
						}
					],
					"name": "SafeERC20FailedOperation",
					"type": "error"
				},
				{
					"anonymous": false,
					"inputs": [
						{
							"indexed": false,
							"internalType": "address",
							"name": "buyer",
							"type": "address"
						},
						{
							"indexed": false,
							"internalType": "uint256",
							"name": "amount",
							"type": "uint256"
						}
					],
					"name": "BuyTokenByETH",
					"type": "event"
				},
				{
					"anonymous": false,
					"inputs": [
						{
							"indexed": false,
							"internalType": "address",
							"name": "buyer",
							"type": "address"
						},
						{
							"indexed": false,
							"internalType": "uint256",
							"name": "amount",
							"type": "uint256"
						}
					],
					"name": "BuyTokenByUSDT",
					"type": "event"
				},
				{
					"anonymous": false,
					"inputs": [
						{
							"indexed": true,
							"internalType": "address",
							"name": "previousOwner",
							"type": "address"
						},
						{
							"indexed": true,
							"internalType": "address",
							"name": "newOwner",
							"type": "address"
						}
					],
					"name": "OwnershipTransferred",
					"type": "event"
				},
				{
					"anonymous": false,
					"inputs": [
						{
							"indexed": false,
							"internalType": "uint256",
							"name": "newRate",
							"type": "uint256"
						}
					],
					"name": "SetETHRate",
					"type": "event"
				},
				{
					"anonymous": false,
					"inputs": [
						{
							"indexed": false,
							"internalType": "uint256",
							"name": "newRate",
							"type": "uint256"
						}
					],
					"name": "SetUSDTRate",
					"type": "event"
				},
				{
					"anonymous": false,
					"inputs": [
						{
							"indexed": false,
							"internalType": "contract IERC20",
							"name": "tokenAddress",
							"type": "address"
						}
					],
					"name": "SetUSDTToken",
					"type": "event"
				},
				{
					"inputs": [],
					"name": "ETH_rate",
					"outputs": [
						{
							"internalType": "uint256",
							"name": "",
							"type": "uint256"
						}
					],
					"stateMutability": "view",
					"type": "function"
				},
				{
					"inputs": [],
					"name": "USDT_rate",
					"outputs": [
						{
							"internalType": "uint256",
							"name": "",
							"type": "uint256"
						}
					],
					"stateMutability": "view",
					"type": "function"
				},
				{
					"inputs": [],
					"name": "buyTokenByETH",
					"outputs": [],
					"stateMutability": "payable",
					"type": "function"
				},
				{
					"inputs": [
						{
							"internalType": "uint256",
							"name": "USDTAmount",
							"type": "uint256"
						}
					],
					"name": "buyTokenByUSDT",
					"outputs": [],
					"stateMutability": "nonpayable",
					"type": "function"
				},
				{
					"inputs": [
						{
							"internalType": "uint256",
							"name": "ETHAmount",
							"type": "uint256"
						}
					],
					"name": "getTokenAmountETH",
					"outputs": [
						{
							"internalType": "uint256",
							"name": "",
							"type": "uint256"
						}
					],
					"stateMutability": "view",
					"type": "function"
				},
				{
					"inputs": [
						{
							"internalType": "uint256",
							"name": "USDTAmount",
							"type": "uint256"
						}
					],
					"name": "getTokenAmountUSDT",
					"outputs": [
						{
							"internalType": "uint256",
							"name": "",
							"type": "uint256"
						}
					],
					"stateMutability": "view",
					"type": "function"
				},
				{
					"inputs": [],
					"name": "owner",
					"outputs": [
						{
							"internalType": "address",
							"name": "",
							"type": "address"
						}
					],
					"stateMutability": "view",
					"type": "function"
				},
				{
					"inputs": [],
					"name": "renounceOwnership",
					"outputs": [],
					"stateMutability": "nonpayable",
					"type": "function"
				},
				{
					"inputs": [
						{
							"internalType": "uint256",
							"name": "newRate",
							"type": "uint256"
						}
					],
					"name": "setETHRate",
					"outputs": [],
					"stateMutability": "nonpayable",
					"type": "function"
				},
				{
					"inputs": [
						{
							"internalType": "uint256",
							"name": "newRate",
							"type": "uint256"
						}
					],
					"name": "setUSDTRate",
					"outputs": [],
					"stateMutability": "nonpayable",
					"type": "function"
				},
				{
					"inputs": [
						{
							"internalType": "contract IERC20",
							"name": "token_address",
							"type": "address"
						}
					],
					"name": "setUSDTToken",
					"outputs": [],
					"stateMutability": "nonpayable",
					"type": "function"
				},
				{
					"inputs": [],
					"name": "token",
					"outputs": [
						{
							"internalType": "contract IERC20",
							"name": "",
							"type": "address"
						}
					],
					"stateMutability": "view",
					"type": "function"
				},
				{
					"inputs": [
						{
							"internalType": "address",
							"name": "newOwner",
							"type": "address"
						}
					],
					"name": "transferOwnership",
					"outputs": [],
					"stateMutability": "nonpayable",
					"type": "function"
				},
				{
					"inputs": [],
					"name": "usdtToken",
					"outputs": [
						{
							"internalType": "contract IERC20",
							"name": "",
							"type": "address"
						}
					],
					"stateMutability": "view",
					"type": "function"
				},
				{
					"inputs": [],
					"name": "withdraw",
					"outputs": [],
					"stateMutability": "nonpayable",
					"type": "function"
				},
				{
					"inputs": [],
					"name": "withdrawErc20",
					"outputs": [],
					"stateMutability": "nonpayable",
					"type": "function"
				}
			],
			"devdoc": {
				"errors": {
					"AddressEmptyCode(address)": [
						{
							"details": "There's no code at `target` (it is not a contract)."
						}
					],
					"AddressInsufficientBalance(address)": [
						{
							"details": "The ETH balance of the account is not enough to perform the operation."
						}
					],
					"FailedInnerCall()": [
						{
							"details": "A call to an address target failed. The target may have reverted."
						}
					],
					"OwnableInvalidOwner(address)": [
						{
							"details": "The owner is not a valid owner account. (eg. `address(0)`)"
						}
					],
					"OwnableUnauthorizedAccount(address)": [
						{
							"details": "The caller account is not authorized to perform an operation."
						}
					],
					"SafeERC20FailedOperation(address)": [
						{
							"details": "An operation with an ERC20 token failed."
						}
					]
				},
				"kind": "dev",
				"methods": {
					"owner()": {
						"details": "Returns the address of the current owner."
					},
					"renounceOwnership()": {
						"details": "Leaves the contract without owner. It will not be possible to call `onlyOwner` functions. Can only be called by the current owner. NOTE: Renouncing ownership will leave the contract without an owner, thereby disabling any functionality that is only available to the owner."
					},
					"transferOwnership(address)": {
						"details": "Transfers ownership of the contract to a new account (`newOwner`). Can only be called by the current owner."
					}
				},
				"version": 1
			},
			"evm": {
				"assembly": "    /* \"FLPCrowndsale.sol\":240:3171  contract FLPCrowdSale is Ownable {... */\n  mstore(0x40, 0x80)\n    /* \"FLPCrowndsale.sol\":700:999  constructor(... */\n  callvalue\n  dup1\n  iszero\n  tag_1\n  jumpi\n  0x00\n  dup1\n  revert\ntag_1:\n  pop\n  mload(0x40)\n  sub(codesize, bytecodeSize)\n  dup1\n  bytecodeSize\n  dup4\n  codecopy\n  dup2\n  dup2\n  add\n  0x40\n  mstore\n  dup2\n  add\n  swap1\n  tag_2\n  swap2\n  swap1\n  tag_3\n  jump\t// in\ntag_2:\n    /* \"FLPCrowndsale.sol\":866:878  initialOwner */\n  dup5\n    /* \"@openzeppelin/contracts/access/Ownable.sol\":1297:1298  0 */\n  0x00\n    /* \"@openzeppelin/contracts/access/Ownable.sol\":1273:1299  initialOwner == address(0) */\n  0xffffffffffffffffffffffffffffffffffffffff\n  and\n    /* \"@openzeppelin/contracts/access/Ownable.sol\":1273:1285  initialOwner */\n  dup2\n    /* \"@openzeppelin/contracts/access/Ownable.sol\":1273:1299  initialOwner == address(0) */\n  0xffffffffffffffffffffffffffffffffffffffff\n  and\n  sub\n    /* \"@openzeppelin/contracts/access/Ownable.sol\":1269:1364  if (initialOwner == address(0)) {... */\n  tag_7\n  jumpi\n    /* \"@openzeppelin/contracts/access/Ownable.sol\":1350:1351  0 */\n  0x00\n    /* \"@openzeppelin/contracts/access/Ownable.sol\":1322:1353  OwnableInvalidOwner(address(0)) */\n  mload(0x40)\n  0x1e4fbdf700000000000000000000000000000000000000000000000000000000\n  dup2\n  mstore\n  0x04\n  add\n  tag_8\n  swap2\n  swap1\n  tag_9\n  jump\t// in\ntag_8:\n  mload(0x40)\n  dup1\n  swap2\n  sub\n  swap1\n  revert\n    /* \"@openzeppelin/contracts/access/Ownable.sol\":1269:1364  if (initialOwner == address(0)) {... */\ntag_7:\n    /* \"@openzeppelin/contracts/access/Ownable.sol\":1373:1405  _transferOwnership(initialOwner) */\n  tag_10\n    /* \"@openzeppelin/contracts/access/Ownable.sol\":1392:1404  initialOwner */\n  dup2\n    /* \"@openzeppelin/contracts/access/Ownable.sol\":1373:1391  _transferOwnership */\n  shl(0x20, tag_11)\n    /* \"@openzeppelin/contracts/access/Ownable.sol\":1373:1405  _transferOwnership(initialOwner) */\n  0x20\n  shr\n  jump\t// in\ntag_10:\n    /* \"@openzeppelin/contracts/access/Ownable.sol\":1225:1412  constructor(address initialOwner) {... */\n  pop\n    /* \"FLPCrowndsale.sol\":900:906  wallet */\n  dup2\n    /* \"FLPCrowndsale.sol\":890:897  _wallet */\n  0x01\n  0x00\n    /* \"FLPCrowndsale.sol\":890:906  _wallet = wallet */\n  0x0100\n  exp\n  dup2\n  sload\n  dup2\n  0xffffffffffffffffffffffffffffffffffffffff\n  mul\n  not\n  and\n  swap1\n  dup4\n  0xffffffffffffffffffffffffffffffffffffffff\n  and\n  mul\n  or\n  swap1\n  sstore\n  pop\n    /* \"FLPCrowndsale.sol\":927:935  eth_rate */\n  dup4\n    /* \"FLPCrowndsale.sol\":916:924  ETH_rate */\n  0x02\n    /* \"FLPCrowndsale.sol\":916:935  ETH_rate = eth_rate */\n  dup2\n  swap1\n  sstore\n  pop\n    /* \"FLPCrowndsale.sol\":957:966  usdt_rate */\n  dup3\n    /* \"FLPCrowndsale.sol\":945:954  USDT_rate */\n  0x03\n    /* \"FLPCrowndsale.sol\":945:966  USDT_rate = usdt_rate */\n  dup2\n  swap1\n  sstore\n  pop\n    /* \"FLPCrowndsale.sol\":984:992  icotoken */\n  dup1\n    /* \"FLPCrowndsale.sol\":976:981  token */\n  0x04\n  0x00\n    /* \"FLPCrowndsale.sol\":976:992  token = icotoken */\n  0x0100\n  exp\n  dup2\n  sload\n  dup2\n  0xffffffffffffffffffffffffffffffffffffffff\n  mul\n  not\n  and\n  swap1\n  dup4\n  0xffffffffffffffffffffffffffffffffffffffff\n  and\n  mul\n  or\n  swap1\n  sstore\n  pop\n    /* \"FLPCrowndsale.sol\":700:999  constructor(... */\n  pop\n  pop\n  pop\n  pop\n  pop\n    /* \"FLPCrowndsale.sol\":240:3171  contract FLPCrowdSale is Ownable {... */\n  jump(tag_13)\n    /* \"@openzeppelin/contracts/access/Ownable.sol\":2912:3099  function _transferOwnership(address newOwner) internal virtual {... */\ntag_11:\n    /* \"@openzeppelin/contracts/access/Ownable.sol\":2985:3001  address oldOwner */\n  0x00\n    /* \"@openzeppelin/contracts/access/Ownable.sol\":3004:3010  _owner */\n  dup1\n  0x00\n  swap1\n  sload\n  swap1\n  0x0100\n  exp\n  swap1\n  div\n  0xffffffffffffffffffffffffffffffffffffffff\n  and\n    /* \"@openzeppelin/contracts/access/Ownable.sol\":2985:3010  address oldOwner = _owner */\n  swap1\n  pop\n    /* \"@openzeppelin/contracts/access/Ownable.sol\":3029:3037  newOwner */\n  dup2\n    /* \"@openzeppelin/contracts/access/Ownable.sol\":3020:3026  _owner */\n  0x00\n  dup1\n    /* \"@openzeppelin/contracts/access/Ownable.sol\":3020:3037  _owner = newOwner */\n  0x0100\n  exp\n  dup2\n  sload\n  dup2\n  0xffffffffffffffffffffffffffffffffffffffff\n  mul\n  not\n  and\n  swap1\n  dup4\n  0xffffffffffffffffffffffffffffffffffffffff\n  and\n  mul\n  or\n  swap1\n  sstore\n  pop\n    /* \"@openzeppelin/contracts/access/Ownable.sol\":3083:3091  newOwner */\n  dup2\n    /* \"@openzeppelin/contracts/access/Ownable.sol\":3052:3092  OwnershipTransferred(oldOwner, newOwner) */\n  0xffffffffffffffffffffffffffffffffffffffff\n  and\n    /* \"@openzeppelin/contracts/access/Ownable.sol\":3073:3081  oldOwner */\n  dup2\n    /* \"@openzeppelin/contracts/access/Ownable.sol\":3052:3092  OwnershipTransferred(oldOwner, newOwner) */\n  0xffffffffffffffffffffffffffffffffffffffff\n  and\n  0x8be0079c531659141344cd1fd0a4f28419497f9722a3daafe3b4186f6b6457e0\n  mload(0x40)\n  mload(0x40)\n  dup1\n  swap2\n  sub\n  swap1\n  log3\n    /* \"@openzeppelin/contracts/access/Ownable.sol\":2975:3099  {... */\n  pop\n    /* \"@openzeppelin/contracts/access/Ownable.sol\":2912:3099  function _transferOwnership(address newOwner) internal virtual {... */\n  pop\n  jump\t// out\n    /* \"#utility.yul\":88:205   */\ntag_16:\n    /* \"#utility.yul\":197:198   */\n  0x00\n    /* \"#utility.yul\":194:195   */\n  dup1\n    /* \"#utility.yul\":187:199   */\n  revert\n    /* \"#utility.yul\":334:460   */\ntag_18:\n    /* \"#utility.yul\":371:378   */\n  0x00\n    /* \"#utility.yul\":411:453   */\n  0xffffffffffffffffffffffffffffffffffffffff\n    /* \"#utility.yul\":404:409   */\n  dup3\n    /* \"#utility.yul\":400:454   */\n  and\n    /* \"#utility.yul\":389:454   */\n  swap1\n  pop\n    /* \"#utility.yul\":334:460   */\n  swap2\n  swap1\n  pop\n  jump\t// out\n    /* \"#utility.yul\":466:562   */\ntag_19:\n    /* \"#utility.yul\":503:510   */\n  0x00\n    /* \"#utility.yul\":532:556   */\n  tag_38\n    /* \"#utility.yul\":550:555   */\n  dup3\n    /* \"#utility.yul\":532:556   */\n  tag_18\n  jump\t// in\ntag_38:\n    /* \"#utility.yul\":521:556   */\n  swap1\n  pop\n    /* \"#utility.yul\":466:562   */\n  swap2\n  swap1\n  pop\n  jump\t// out\n    /* \"#utility.yul\":568:690   */\ntag_20:\n    /* \"#utility.yul\":641:665   */\n  tag_40\n    /* \"#utility.yul\":659:664   */\n  dup2\n    /* \"#utility.yul\":641:665   */\n  tag_19\n  jump\t// in\ntag_40:\n    /* \"#utility.yul\":634:639   */\n  dup2\n    /* \"#utility.yul\":631:666   */\n  eq\n    /* \"#utility.yul\":621:684   */\n  tag_41\n  jumpi\n    /* \"#utility.yul\":680:681   */\n  0x00\n    /* \"#utility.yul\":677:678   */\n  dup1\n    /* \"#utility.yul\":670:682   */\n  revert\n    /* \"#utility.yul\":621:684   */\ntag_41:\n    /* \"#utility.yul\":568:690   */\n  pop\n  jump\t// out\n    /* \"#utility.yul\":696:839   */\ntag_21:\n    /* \"#utility.yul\":753:758   */\n  0x00\n    /* \"#utility.yul\":784:790   */\n  dup2\n    /* \"#utility.yul\":778:791   */\n  mload\n    /* \"#utility.yul\":769:791   */\n  swap1\n  pop\n    /* \"#utility.yul\":800:833   */\n  tag_43\n    /* \"#utility.yul\":827:832   */\n  dup2\n    /* \"#utility.yul\":800:833   */\n  tag_20\n  jump\t// in\ntag_43:\n    /* \"#utility.yul\":696:839   */\n  swap3\n  swap2\n  pop\n  pop\n  jump\t// out\n    /* \"#utility.yul\":845:922   */\ntag_22:\n    /* \"#utility.yul\":882:889   */\n  0x00\n    /* \"#utility.yul\":911:916   */\n  dup2\n    /* \"#utility.yul\":900:916   */\n  swap1\n  pop\n    /* \"#utility.yul\":845:922   */\n  swap2\n  swap1\n  pop\n  jump\t// out\n    /* \"#utility.yul\":928:1050   */\ntag_23:\n    /* \"#utility.yul\":1001:1025   */\n  tag_46\n    /* \"#utility.yul\":1019:1024   */\n  dup2\n    /* \"#utility.yul\":1001:1025   */\n  tag_22\n  jump\t// in\ntag_46:\n    /* \"#utility.yul\":994:999   */\n  dup2\n    /* \"#utility.yul\":991:1026   */\n  eq\n    /* \"#utility.yul\":981:1044   */\n  tag_47\n  jumpi\n    /* \"#utility.yul\":1040:1041   */\n  0x00\n    /* \"#utility.yul\":1037:1038   */\n  dup1\n    /* \"#utility.yul\":1030:1042   */\n  revert\n    /* \"#utility.yul\":981:1044   */\ntag_47:\n    /* \"#utility.yul\":928:1050   */\n  pop\n  jump\t// out\n    /* \"#utility.yul\":1056:1199   */\ntag_24:\n    /* \"#utility.yul\":1113:1118   */\n  0x00\n    /* \"#utility.yul\":1144:1150   */\n  dup2\n    /* \"#utility.yul\":1138:1151   */\n  mload\n    /* \"#utility.yul\":1129:1151   */\n  swap1\n  pop\n    /* \"#utility.yul\":1160:1193   */\n  tag_49\n    /* \"#utility.yul\":1187:1192   */\n  dup2\n    /* \"#utility.yul\":1160:1193   */\n  tag_23\n  jump\t// in\ntag_49:\n    /* \"#utility.yul\":1056:1199   */\n  swap3\n  swap2\n  pop\n  pop\n  jump\t// out\n    /* \"#utility.yul\":1205:1309   */\ntag_25:\n    /* \"#utility.yul\":1250:1257   */\n  0x00\n    /* \"#utility.yul\":1279:1303   */\n  tag_51\n    /* \"#utility.yul\":1297:1302   */\n  dup3\n    /* \"#utility.yul\":1279:1303   */\n  tag_18\n  jump\t// in\ntag_51:\n    /* \"#utility.yul\":1268:1303   */\n  swap1\n  pop\n    /* \"#utility.yul\":1205:1309   */\n  swap2\n  swap1\n  pop\n  jump\t// out\n    /* \"#utility.yul\":1315:1453   */\ntag_26:\n    /* \"#utility.yul\":1396:1428   */\n  tag_53\n    /* \"#utility.yul\":1422:1427   */\n  dup2\n    /* \"#utility.yul\":1396:1428   */\n  tag_25\n  jump\t// in\ntag_53:\n    /* \"#utility.yul\":1389:1394   */\n  dup2\n    /* \"#utility.yul\":1386:1429   */\n  eq\n    /* \"#utility.yul\":1376:1447   */\n  tag_54\n  jumpi\n    /* \"#utility.yul\":1443:1444   */\n  0x00\n    /* \"#utility.yul\":1440:1441   */\n  dup1\n    /* \"#utility.yul\":1433:1445   */\n  revert\n    /* \"#utility.yul\":1376:1447   */\ntag_54:\n    /* \"#utility.yul\":1315:1453   */\n  pop\n  jump\t// out\n    /* \"#utility.yul\":1459:1618   */\ntag_27:\n    /* \"#utility.yul\":1524:1529   */\n  0x00\n    /* \"#utility.yul\":1555:1561   */\n  dup2\n    /* \"#utility.yul\":1549:1562   */\n  mload\n    /* \"#utility.yul\":1540:1562   */\n  swap1\n  pop\n    /* \"#utility.yul\":1571:1612   */\n  tag_56\n    /* \"#utility.yul\":1606:1611   */\n  dup2\n    /* \"#utility.yul\":1571:1612   */\n  tag_26\n  jump\t// in\ntag_56:\n    /* \"#utility.yul\":1459:1618   */\n  swap3\n  swap2\n  pop\n  pop\n  jump\t// out\n    /* \"#utility.yul\":1624:1734   */\ntag_28:\n    /* \"#utility.yul\":1675:1682   */\n  0x00\n    /* \"#utility.yul\":1704:1728   */\n  tag_58\n    /* \"#utility.yul\":1722:1727   */\n  dup3\n    /* \"#utility.yul\":1704:1728   */\n  tag_19\n  jump\t// in\ntag_58:\n    /* \"#utility.yul\":1693:1728   */\n  swap1\n  pop\n    /* \"#utility.yul\":1624:1734   */\n  swap2\n  swap1\n  pop\n  jump\t// out\n    /* \"#utility.yul\":1740:1890   */\ntag_29:\n    /* \"#utility.yul\":1827:1865   */\n  tag_60\n    /* \"#utility.yul\":1859:1864   */\n  dup2\n    /* \"#utility.yul\":1827:1865   */\n  tag_28\n  jump\t// in\ntag_60:\n    /* \"#utility.yul\":1820:1825   */\n  dup2\n    /* \"#utility.yul\":1817:1866   */\n  eq\n    /* \"#utility.yul\":1807:1884   */\n  tag_61\n  jumpi\n    /* \"#utility.yul\":1880:1881   */\n  0x00\n    /* \"#utility.yul\":1877:1878   */\n  dup1\n    /* \"#utility.yul\":1870:1882   */\n  revert\n    /* \"#utility.yul\":1807:1884   */\ntag_61:\n    /* \"#utility.yul\":1740:1890   */\n  pop\n  jump\t// out\n    /* \"#utility.yul\":1896:2067   */\ntag_30:\n    /* \"#utility.yul\":1967:1972   */\n  0x00\n    /* \"#utility.yul\":1998:2004   */\n  dup2\n    /* \"#utility.yul\":1992:2005   */\n  mload\n    /* \"#utility.yul\":1983:2005   */\n  swap1\n  pop\n    /* \"#utility.yul\":2014:2061   */\n  tag_63\n    /* \"#utility.yul\":2055:2060   */\n  dup2\n    /* \"#utility.yul\":2014:2061   */\n  tag_29\n  jump\t// in\ntag_63:\n    /* \"#utility.yul\":1896:2067   */\n  swap3\n  swap2\n  pop\n  pop\n  jump\t// out\n    /* \"#utility.yul\":2073:3094   */\ntag_3:\n    /* \"#utility.yul\":2201:2207   */\n  0x00\n    /* \"#utility.yul\":2209:2215   */\n  dup1\n    /* \"#utility.yul\":2217:2223   */\n  0x00\n    /* \"#utility.yul\":2225:2231   */\n  dup1\n    /* \"#utility.yul\":2233:2239   */\n  0x00\n    /* \"#utility.yul\":2282:2285   */\n  0xa0\n    /* \"#utility.yul\":2270:2279   */\n  dup7\n    /* \"#utility.yul\":2261:2268   */\n  dup9\n    /* \"#utility.yul\":2257:2280   */\n  sub\n    /* \"#utility.yul\":2253:2286   */\n  slt\n    /* \"#utility.yul\":2250:2370   */\n  iszero\n  tag_65\n  jumpi\n    /* \"#utility.yul\":2289:2368   */\n  tag_66\n  tag_16\n  jump\t// in\ntag_66:\n    /* \"#utility.yul\":2250:2370   */\ntag_65:\n    /* \"#utility.yul\":2409:2410   */\n  0x00\n    /* \"#utility.yul\":2434:2498   */\n  tag_67\n    /* \"#utility.yul\":2490:2497   */\n  dup9\n    /* \"#utility.yul\":2481:2487   */\n  dup3\n    /* \"#utility.yul\":2470:2479   */\n  dup10\n    /* \"#utility.yul\":2466:2488   */\n  add\n    /* \"#utility.yul\":2434:2498   */\n  tag_21\n  jump\t// in\ntag_67:\n    /* \"#utility.yul\":2424:2498   */\n  swap6\n  pop\n    /* \"#utility.yul\":2380:2508   */\n  pop\n    /* \"#utility.yul\":2547:2549   */\n  0x20\n    /* \"#utility.yul\":2573:2637   */\n  tag_68\n    /* \"#utility.yul\":2629:2636   */\n  dup9\n    /* \"#utility.yul\":2620:2626   */\n  dup3\n    /* \"#utility.yul\":2609:2618   */\n  dup10\n    /* \"#utility.yul\":2605:2627   */\n  add\n    /* \"#utility.yul\":2573:2637   */\n  tag_24\n  jump\t// in\ntag_68:\n    /* \"#utility.yul\":2563:2637   */\n  swap5\n  pop\n    /* \"#utility.yul\":2518:2647   */\n  pop\n    /* \"#utility.yul\":2686:2688   */\n  0x40\n    /* \"#utility.yul\":2712:2776   */\n  tag_69\n    /* \"#utility.yul\":2768:2775   */\n  dup9\n    /* \"#utility.yul\":2759:2765   */\n  dup3\n    /* \"#utility.yul\":2748:2757   */\n  dup10\n    /* \"#utility.yul\":2744:2766   */\n  add\n    /* \"#utility.yul\":2712:2776   */\n  tag_24\n  jump\t// in\ntag_69:\n    /* \"#utility.yul\":2702:2776   */\n  swap4\n  pop\n    /* \"#utility.yul\":2657:2786   */\n  pop\n    /* \"#utility.yul\":2825:2827   */\n  0x60\n    /* \"#utility.yul\":2851:2923   */\n  tag_70\n    /* \"#utility.yul\":2915:2922   */\n  dup9\n    /* \"#utility.yul\":2906:2912   */\n  dup3\n    /* \"#utility.yul\":2895:2904   */\n  dup10\n    /* \"#utility.yul\":2891:2913   */\n  add\n    /* \"#utility.yul\":2851:2923   */\n  tag_27\n  jump\t// in\ntag_70:\n    /* \"#utility.yul\":2841:2923   */\n  swap3\n  pop\n    /* \"#utility.yul\":2796:2933   */\n  pop\n    /* \"#utility.yul\":2972:2975   */\n  0x80\n    /* \"#utility.yul\":2999:3077   */\n  tag_71\n    /* \"#utility.yul\":3069:3076   */\n  dup9\n    /* \"#utility.yul\":3060:3066   */\n  dup3\n    /* \"#utility.yul\":3049:3058   */\n  dup10\n    /* \"#utility.yul\":3045:3067   */\n  add\n    /* \"#utility.yul\":2999:3077   */\n  tag_30\n  jump\t// in\ntag_71:\n    /* \"#utility.yul\":2989:3077   */\n  swap2\n  pop\n    /* \"#utility.yul\":2943:3087   */\n  pop\n    /* \"#utility.yul\":2073:3094   */\n  swap3\n  swap6\n  pop\n  swap3\n  swap6\n  swap1\n  swap4\n  pop\n  jump\t// out\n    /* \"#utility.yul\":3100:3218   */\ntag_31:\n    /* \"#utility.yul\":3187:3211   */\n  tag_73\n    /* \"#utility.yul\":3205:3210   */\n  dup2\n    /* \"#utility.yul\":3187:3211   */\n  tag_19\n  jump\t// in\ntag_73:\n    /* \"#utility.yul\":3182:3185   */\n  dup3\n    /* \"#utility.yul\":3175:3212   */\n  mstore\n    /* \"#utility.yul\":3100:3218   */\n  pop\n  pop\n  jump\t// out\n    /* \"#utility.yul\":3224:3446   */\ntag_9:\n    /* \"#utility.yul\":3317:3321   */\n  0x00\n    /* \"#utility.yul\":3355:3357   */\n  0x20\n    /* \"#utility.yul\":3344:3353   */\n  dup3\n    /* \"#utility.yul\":3340:3358   */\n  add\n    /* \"#utility.yul\":3332:3358   */\n  swap1\n  pop\n    /* \"#utility.yul\":3368:3439   */\n  tag_75\n    /* \"#utility.yul\":3436:3437   */\n  0x00\n    /* \"#utility.yul\":3425:3434   */\n  dup4\n    /* \"#utility.yul\":3421:3438   */\n  add\n    /* \"#utility.yul\":3412:3418   */\n  dup5\n    /* \"#utility.yul\":3368:3439   */\n  tag_31\n  jump\t// in\ntag_75:\n    /* \"#utility.yul\":3224:3446   */\n  swap3\n  swap2\n  pop\n  pop\n  jump\t// out\n    /* \"FLPCrowndsale.sol\":240:3171  contract FLPCrowdSale is Ownable {... */\ntag_13:\n  dataSize(sub_0)\n  dup1\n  dataOffset(sub_0)\n  0x00\n  codecopy\n  0x00\n  return\nstop\n\nsub_0: assembly {\n        /* \"FLPCrowndsale.sol\":240:3171  contract FLPCrowdSale is Ownable {... */\n      mstore(0x40, 0x80)\n      jumpi(tag_1, lt(calldatasize, 0x04))\n      shr(0xe0, calldataload(0x00))\n      dup1\n      0x8909a40f\n      gt\n      tag_18\n      jumpi\n      dup1\n      0xc5d15651\n      gt\n      tag_19\n      jumpi\n      dup1\n      0xc5d15651\n      eq\n      tag_14\n      jumpi\n      dup1\n      0xe1e85189\n      eq\n      tag_15\n      jumpi\n      dup1\n      0xf2fde38b\n      eq\n      tag_16\n      jumpi\n      dup1\n      0xfc0c546a\n      eq\n      tag_17\n      jumpi\n      jump(tag_1)\n    tag_19:\n      dup1\n      0x8909a40f\n      eq\n      tag_10\n      jumpi\n      dup1\n      0x8da5cb5b\n      eq\n      tag_11\n      jumpi\n      dup1\n      0x9cb7b9fc\n      eq\n      tag_12\n      jumpi\n      dup1\n      0xa98ad46c\n      eq\n      tag_13\n      jumpi\n      jump(tag_1)\n    tag_18:\n      dup1\n      0x4bfe2779\n      gt\n      tag_20\n      jumpi\n      dup1\n      0x4bfe2779\n      eq\n      tag_6\n      jumpi\n      dup1\n      0x592a00e4\n      eq\n      tag_7\n      jumpi\n      dup1\n      0x66e226bd\n      eq\n      tag_8\n      jumpi\n      dup1\n      0x715018a6\n      eq\n      tag_9\n      jumpi\n      jump(tag_1)\n    tag_20:\n      dup1\n      0x1832d8b6\n      eq\n      tag_2\n      jumpi\n      dup1\n      0x1b4622d6\n      eq\n      tag_3\n      jumpi\n      dup1\n      0x3ccfd60b\n      eq\n      tag_4\n      jumpi\n      dup1\n      0x3e3f2359\n      eq\n      tag_5\n      jumpi\n    tag_1:\n      0x00\n      dup1\n      revert\n        /* \"FLPCrowndsale.sol\":2775:2927  function getTokenAmountUSDT(uint256 USDTAmount)... */\n    tag_2:\n      callvalue\n      dup1\n      iszero\n      tag_21\n      jumpi\n      0x00\n      dup1\n      revert\n    tag_21:\n      pop\n      tag_22\n      0x04\n      dup1\n      calldatasize\n      sub\n      dup2\n      add\n      swap1\n      tag_23\n      swap2\n      swap1\n      tag_24\n      jump\t// in\n    tag_23:\n      tag_25\n      jump\t// in\n    tag_22:\n      mload(0x40)\n      tag_26\n      swap2\n      swap1\n      tag_27\n      jump\t// in\n    tag_26:\n      mload(0x40)\n      dup1\n      swap2\n      sub\n      swap1\n      return\n        /* \"FLPCrowndsale.sol\":1285:1411  function setUSDTRate(uint256 newRate) public onlyOwner {... */\n    tag_3:\n      callvalue\n      dup1\n      iszero\n      tag_28\n      jumpi\n      0x00\n      dup1\n      revert\n    tag_28:\n      pop\n      tag_29\n      0x04\n      dup1\n      calldatasize\n      sub\n      dup2\n      add\n      swap1\n      tag_30\n      swap2\n      swap1\n      tag_24\n      jump\t// in\n    tag_30:\n      tag_31\n      jump\t// in\n    tag_29:\n      stop\n        /* \"FLPCrowndsale.sol\":2933:3038  function withdraw() public onlyOwner {... */\n    tag_4:\n      callvalue\n      dup1\n      iszero\n      tag_32\n      jumpi\n      0x00\n      dup1\n      revert\n    tag_32:\n      pop\n      tag_33\n      tag_34\n      jump\t// in\n    tag_33:\n      stop\n        /* \"FLPCrowndsale.sol\":3044:3169  function withdrawErc20() public onlyOwner {... */\n    tag_5:\n      callvalue\n      dup1\n      iszero\n      tag_35\n      jumpi\n      0x00\n      dup1\n      revert\n    tag_35:\n      pop\n      tag_36\n      tag_37\n      jump\t// in\n    tag_36:\n      stop\n        /* \"FLPCrowndsale.sol\":1156:1279  function setETHRate(uint256 newRate) public onlyOwner {... */\n    tag_6:\n      callvalue\n      dup1\n      iszero\n      tag_38\n      jumpi\n      0x00\n      dup1\n      revert\n    tag_38:\n      pop\n      tag_39\n      0x04\n      dup1\n      calldatasize\n      sub\n      dup2\n      add\n      swap1\n      tag_40\n      swap2\n      swap1\n      tag_24\n      jump\t// in\n    tag_40:\n      tag_41\n      jump\t// in\n    tag_39:\n      stop\n        /* \"FLPCrowndsale.sol\":377:401  uint256 public USDT_rate */\n    tag_7:\n      callvalue\n      dup1\n      iszero\n      tag_42\n      jumpi\n      0x00\n      dup1\n      revert\n    tag_42:\n      pop\n      tag_43\n      tag_44\n      jump\t// in\n    tag_43:\n      mload(0x40)\n      tag_45\n      swap2\n      swap1\n      tag_27\n      jump\t// in\n    tag_45:\n      mload(0x40)\n      dup1\n      swap2\n      sub\n      swap1\n      return\n        /* \"FLPCrowndsale.sol\":1005:1150  function setUSDTToken(IERC20 token_address) public onlyOwner {... */\n    tag_8:\n      callvalue\n      dup1\n      iszero\n      tag_46\n      jumpi\n      0x00\n      dup1\n      revert\n    tag_46:\n      pop\n      tag_47\n      0x04\n      dup1\n      calldatasize\n      sub\n      dup2\n      add\n      swap1\n      tag_48\n      swap2\n      swap1\n      tag_49\n      jump\t// in\n    tag_48:\n      tag_50\n      jump\t// in\n    tag_47:\n      stop\n        /* \"@openzeppelin/contracts/access/Ownable.sol\":2293:2394  function renounceOwnership() public virtual onlyOwner {... */\n    tag_9:\n      callvalue\n      dup1\n      iszero\n      tag_51\n      jumpi\n      0x00\n      dup1\n      revert\n    tag_51:\n      pop\n      tag_52\n      tag_53\n      jump\t// in\n    tag_52:\n      stop\n        /* \"FLPCrowndsale.sol\":1418:2011  function buyTokenByETH() external payable {... */\n    tag_10:\n      tag_54\n      tag_55\n      jump\t// in\n    tag_54:\n      stop\n        /* \"@openzeppelin/contracts/access/Ownable.sol\":1638:1723  function owner() public view virtual returns (address) {... */\n    tag_11:\n      callvalue\n      dup1\n      iszero\n      tag_56\n      jumpi\n      0x00\n      dup1\n      revert\n    tag_56:\n      pop\n      tag_57\n      tag_58\n      jump\t// in\n    tag_57:\n      mload(0x40)\n      tag_59\n      swap2\n      swap1\n      tag_60\n      jump\t// in\n    tag_59:\n      mload(0x40)\n      dup1\n      swap2\n      sub\n      swap1\n      return\n        /* \"FLPCrowndsale.sol\":348:371  uint256 public ETH_rate */\n    tag_12:\n      callvalue\n      dup1\n      iszero\n      tag_61\n      jumpi\n      0x00\n      dup1\n      revert\n    tag_61:\n      pop\n      tag_62\n      tag_63\n      jump\t// in\n    tag_62:\n      mload(0x40)\n      tag_64\n      swap2\n      swap1\n      tag_27\n      jump\t// in\n    tag_64:\n      mload(0x40)\n      dup1\n      swap2\n      sub\n      swap1\n      return\n        /* \"FLPCrowndsale.sol\":432:455  IERC20 public usdtToken */\n    tag_13:\n      callvalue\n      dup1\n      iszero\n      tag_65\n      jumpi\n      0x00\n      dup1\n      revert\n    tag_65:\n      pop\n      tag_66\n      tag_67\n      jump\t// in\n    tag_66:\n      mload(0x40)\n      tag_68\n      swap2\n      swap1\n      tag_69\n      jump\t// in\n    tag_68:\n      mload(0x40)\n      dup1\n      swap2\n      sub\n      swap1\n      return\n        /* \"FLPCrowndsale.sol\":2021:2615  function buyTokenByUSDT(uint256 USDTAmount) external {... */\n    tag_14:\n      callvalue\n      dup1\n      iszero\n      tag_70\n      jumpi\n      0x00\n      dup1\n      revert\n    tag_70:\n      pop\n      tag_71\n      0x04\n      dup1\n      calldatasize\n      sub\n      dup2\n      add\n      swap1\n      tag_72\n      swap2\n      swap1\n      tag_24\n      jump\t// in\n    tag_72:\n      tag_73\n      jump\t// in\n    tag_71:\n      stop\n        /* \"FLPCrowndsale.sol\":2621:2769  function getTokenAmountETH(uint256 ETHAmount)... */\n    tag_15:\n      callvalue\n      dup1\n      iszero\n      tag_74\n      jumpi\n      0x00\n      dup1\n      revert\n    tag_74:\n      pop\n      tag_75\n      0x04\n      dup1\n      calldatasize\n      sub\n      dup2\n      add\n      swap1\n      tag_76\n      swap2\n      swap1\n      tag_24\n      jump\t// in\n    tag_76:\n      tag_77\n      jump\t// in\n    tag_75:\n      mload(0x40)\n      tag_78\n      swap2\n      swap1\n      tag_27\n      jump\t// in\n    tag_78:\n      mload(0x40)\n      dup1\n      swap2\n      sub\n      swap1\n      return\n        /* \"@openzeppelin/contracts/access/Ownable.sol\":2543:2758  function transferOwnership(address newOwner) public virtual onlyOwner {... */\n    tag_16:\n      callvalue\n      dup1\n      iszero\n      tag_79\n      jumpi\n      0x00\n      dup1\n      revert\n    tag_79:\n      pop\n      tag_80\n      0x04\n      dup1\n      calldatasize\n      sub\n      dup2\n      add\n      swap1\n      tag_81\n      swap2\n      swap1\n      tag_82\n      jump\t// in\n    tag_81:\n      tag_83\n      jump\t// in\n    tag_80:\n      stop\n        /* \"FLPCrowndsale.sol\":407:426  IERC20 public token */\n    tag_17:\n      callvalue\n      dup1\n      iszero\n      tag_84\n      jumpi\n      0x00\n      dup1\n      revert\n    tag_84:\n      pop\n      tag_85\n      tag_86\n      jump\t// in\n    tag_85:\n      mload(0x40)\n      tag_87\n      swap2\n      swap1\n      tag_69\n      jump\t// in\n    tag_87:\n      mload(0x40)\n      dup1\n      swap2\n      sub\n      swap1\n      return\n        /* \"FLPCrowndsale.sol\":2775:2927  function getTokenAmountUSDT(uint256 USDTAmount)... */\n    tag_25:\n        /* \"FLPCrowndsale.sol\":2868:2875  uint256 */\n      0x00\n        /* \"FLPCrowndsale.sol\":2911:2920  USDT_rate */\n      sload(0x03)\n        /* \"FLPCrowndsale.sol\":2898:2908  USDTAmount */\n      dup3\n        /* \"FLPCrowndsale.sol\":2898:2920  USDTAmount * USDT_rate */\n      tag_89\n      swap2\n      swap1\n      tag_90\n      jump\t// in\n    tag_89:\n        /* \"FLPCrowndsale.sol\":2891:2920  return USDTAmount * USDT_rate */\n      swap1\n      pop\n        /* \"FLPCrowndsale.sol\":2775:2927  function getTokenAmountUSDT(uint256 USDTAmount)... */\n      swap2\n      swap1\n      pop\n      jump\t// out\n        /* \"FLPCrowndsale.sol\":1285:1411  function setUSDTRate(uint256 newRate) public onlyOwner {... */\n    tag_31:\n        /* \"@openzeppelin/contracts/access/Ownable.sol\":1531:1544  _checkOwner() */\n      tag_92\n        /* \"@openzeppelin/contracts/access/Ownable.sol\":1531:1542  _checkOwner */\n      tag_93\n        /* \"@openzeppelin/contracts/access/Ownable.sol\":1531:1544  _checkOwner() */\n      jump\t// in\n    tag_92:\n        /* \"FLPCrowndsale.sol\":1362:1369  newRate */\n      dup1\n        /* \"FLPCrowndsale.sol\":1350:1359  USDT_rate */\n      0x03\n        /* \"FLPCrowndsale.sol\":1350:1369  USDT_rate = newRate */\n      dup2\n      swap1\n      sstore\n      pop\n        /* \"FLPCrowndsale.sol\":1384:1404  SetUSDTRate(newRate) */\n      0xbdaa37e3f6679857d8c3e80d172bd45af732a8658cf1d690c81ca96f5a443b5b\n        /* \"FLPCrowndsale.sol\":1396:1403  newRate */\n      dup2\n        /* \"FLPCrowndsale.sol\":1384:1404  SetUSDTRate(newRate) */\n      mload(0x40)\n      tag_95\n      swap2\n      swap1\n      tag_27\n      jump\t// in\n    tag_95:\n      mload(0x40)\n      dup1\n      swap2\n      sub\n      swap1\n      log1\n        /* \"FLPCrowndsale.sol\":1285:1411  function setUSDTRate(uint256 newRate) public onlyOwner {... */\n      pop\n      jump\t// out\n        /* \"FLPCrowndsale.sol\":2933:3038  function withdraw() public onlyOwner {... */\n    tag_34:\n        /* \"@openzeppelin/contracts/access/Ownable.sol\":1531:1544  _checkOwner() */\n      tag_97\n        /* \"@openzeppelin/contracts/access/Ownable.sol\":1531:1542  _checkOwner */\n      tag_93\n        /* \"@openzeppelin/contracts/access/Ownable.sol\":1531:1544  _checkOwner() */\n      jump\t// in\n    tag_97:\n        /* \"FLPCrowndsale.sol\":2988:2998  msg.sender */\n      caller\n        /* \"FLPCrowndsale.sol\":2980:3008  payable(msg.sender).transfer */\n      0xffffffffffffffffffffffffffffffffffffffff\n      and\n        /* \"FLPCrowndsale.sol\":2980:3031  payable(msg.sender).transfer(address(this).balance) */\n      0x08fc\n        /* \"FLPCrowndsale.sol\":3009:3030  address(this).balance */\n      selfbalance\n        /* \"FLPCrowndsale.sol\":2980:3031  payable(msg.sender).transfer(address(this).balance) */\n      swap1\n      dup2\n      iszero\n      mul\n      swap1\n      mload(0x40)\n      0x00\n      mload(0x40)\n      dup1\n      dup4\n      sub\n      dup2\n      dup6\n      dup9\n      dup9\n      call\n      swap4\n      pop\n      pop\n      pop\n      pop\n      iszero\n      dup1\n      iszero\n      tag_100\n      jumpi\n      returndatasize\n      0x00\n      dup1\n      returndatacopy\n      revert(0x00, returndatasize)\n    tag_100:\n      pop\n        /* \"FLPCrowndsale.sol\":2933:3038  function withdraw() public onlyOwner {... */\n      jump\t// out\n        /* \"FLPCrowndsale.sol\":3044:3169  function withdrawErc20() public onlyOwner {... */\n    tag_37:\n        /* \"@openzeppelin/contracts/access/Ownable.sol\":1531:1544  _checkOwner() */\n      tag_102\n        /* \"@openzeppelin/contracts/access/Ownable.sol\":1531:1542  _checkOwner */\n      tag_93\n        /* \"@openzeppelin/contracts/access/Ownable.sol\":1531:1544  _checkOwner() */\n      jump\t// in\n    tag_102:\n        /* \"FLPCrowndsale.sol\":3096:3105  usdtToken */\n      0x05\n      0x00\n      swap1\n      sload\n      swap1\n      0x0100\n      exp\n      swap1\n      div\n      0xffffffffffffffffffffffffffffffffffffffff\n      and\n        /* \"FLPCrowndsale.sol\":3096:3114  usdtToken.transfer */\n      0xffffffffffffffffffffffffffffffffffffffff\n      and\n      0xa9059cbb\n        /* \"FLPCrowndsale.sol\":3115:3125  msg.sender */\n      caller\n        /* \"FLPCrowndsale.sol\":3127:3136  usdtToken */\n      0x05\n      0x00\n      swap1\n      sload\n      swap1\n      0x0100\n      exp\n      swap1\n      div\n      0xffffffffffffffffffffffffffffffffffffffff\n      and\n        /* \"FLPCrowndsale.sol\":3127:3146  usdtToken.balanceOf */\n      0xffffffffffffffffffffffffffffffffffffffff\n      and\n      0x70a08231\n        /* \"FLPCrowndsale.sol\":3155:3159  this */\n      address\n        /* \"FLPCrowndsale.sol\":3127:3161  usdtToken.balanceOf(address(this)) */\n      mload(0x40)\n      dup3\n      0xffffffff\n      and\n      0xe0\n      shl\n      dup2\n      mstore\n      0x04\n      add\n      tag_104\n      swap2\n      swap1\n      tag_60\n      jump\t// in\n    tag_104:\n      0x20\n      mload(0x40)\n      dup1\n      dup4\n      sub\n      dup2\n      dup7\n      gas\n      staticcall\n      iszero\n      dup1\n      iszero\n      tag_106\n      jumpi\n      returndatasize\n      0x00\n      dup1\n      returndatacopy\n      revert(0x00, returndatasize)\n    tag_106:\n      pop\n      pop\n      pop\n      pop\n      mload(0x40)\n      returndatasize\n      not(0x1f)\n      0x1f\n      dup3\n      add\n      and\n      dup3\n      add\n      dup1\n      0x40\n      mstore\n      pop\n      dup2\n      add\n      swap1\n      tag_107\n      swap2\n      swap1\n      tag_108\n      jump\t// in\n    tag_107:\n        /* \"FLPCrowndsale.sol\":3096:3162  usdtToken.transfer(msg.sender, usdtToken.balanceOf(address(this))) */\n      mload(0x40)\n      dup4\n      0xffffffff\n      and\n      0xe0\n      shl\n      dup2\n      mstore\n      0x04\n      add\n      tag_109\n      swap3\n      swap2\n      swap1\n      tag_110\n      jump\t// in\n    tag_109:\n      0x20\n      mload(0x40)\n      dup1\n      dup4\n      sub\n      dup2\n      0x00\n      dup8\n      gas\n      call\n      iszero\n      dup1\n      iszero\n      tag_112\n      jumpi\n      returndatasize\n      0x00\n      dup1\n      returndatacopy\n      revert(0x00, returndatasize)\n    tag_112:\n      pop\n      pop\n      pop\n      pop\n      mload(0x40)\n      returndatasize\n      not(0x1f)\n      0x1f\n      dup3\n      add\n      and\n      dup3\n      add\n      dup1\n      0x40\n      mstore\n      pop\n      dup2\n      add\n      swap1\n      tag_113\n      swap2\n      swap1\n      tag_114\n      jump\t// in\n    tag_113:\n      pop\n        /* \"FLPCrowndsale.sol\":3044:3169  function withdrawErc20() public onlyOwner {... */\n      jump\t// out\n        /* \"FLPCrowndsale.sol\":1156:1279  function setETHRate(uint256 newRate) public onlyOwner {... */\n    tag_41:\n        /* \"@openzeppelin/contracts/access/Ownable.sol\":1531:1544  _checkOwner() */\n      tag_116\n        /* \"@openzeppelin/contracts/access/Ownable.sol\":1531:1542  _checkOwner */\n      tag_93\n        /* \"@openzeppelin/contracts/access/Ownable.sol\":1531:1544  _checkOwner() */\n      jump\t// in\n    tag_116:\n        /* \"FLPCrowndsale.sol\":1231:1238  newRate */\n      dup1\n        /* \"FLPCrowndsale.sol\":1220:1228  ETH_rate */\n      0x02\n        /* \"FLPCrowndsale.sol\":1220:1238  ETH_rate = newRate */\n      dup2\n      swap1\n      sstore\n      pop\n        /* \"FLPCrowndsale.sol\":1253:1272  SetETHRate(newRate) */\n      0xd6f234ccd3d6bc89db22f04e915efd024c0f4bddfaa8393e570fff7e3e3dec97\n        /* \"FLPCrowndsale.sol\":1264:1271  newRate */\n      dup2\n        /* \"FLPCrowndsale.sol\":1253:1272  SetETHRate(newRate) */\n      mload(0x40)\n      tag_118\n      swap2\n      swap1\n      tag_27\n      jump\t// in\n    tag_118:\n      mload(0x40)\n      dup1\n      swap2\n      sub\n      swap1\n      log1\n        /* \"FLPCrowndsale.sol\":1156:1279  function setETHRate(uint256 newRate) public onlyOwner {... */\n      pop\n      jump\t// out\n        /* \"FLPCrowndsale.sol\":377:401  uint256 public USDT_rate */\n    tag_44:\n      sload(0x03)\n      dup2\n      jump\t// out\n        /* \"FLPCrowndsale.sol\":1005:1150  function setUSDTToken(IERC20 token_address) public onlyOwner {... */\n    tag_50:\n        /* \"@openzeppelin/contracts/access/Ownable.sol\":1531:1544  _checkOwner() */\n      tag_120\n        /* \"@openzeppelin/contracts/access/Ownable.sol\":1531:1542  _checkOwner */\n      tag_93\n        /* \"@openzeppelin/contracts/access/Ownable.sol\":1531:1544  _checkOwner() */\n      jump\t// in\n    tag_120:\n        /* \"FLPCrowndsale.sol\":1088:1101  token_address */\n      dup1\n        /* \"FLPCrowndsale.sol\":1076:1085  usdtToken */\n      0x05\n      0x00\n        /* \"FLPCrowndsale.sol\":1076:1101  usdtToken = token_address */\n      0x0100\n      exp\n      dup2\n      sload\n      dup2\n      0xffffffffffffffffffffffffffffffffffffffff\n      mul\n      not\n      and\n      swap1\n      dup4\n      0xffffffffffffffffffffffffffffffffffffffff\n      and\n      mul\n      or\n      swap1\n      sstore\n      pop\n        /* \"FLPCrowndsale.sol\":1116:1143  SetUSDTToken(token_address) */\n      0x43036333e58a6f9255617b54ec9f5825590c8ee695a222dc35e5001927f07151\n        /* \"FLPCrowndsale.sol\":1129:1142  token_address */\n      dup2\n        /* \"FLPCrowndsale.sol\":1116:1143  SetUSDTToken(token_address) */\n      mload(0x40)\n      tag_122\n      swap2\n      swap1\n      tag_69\n      jump\t// in\n    tag_122:\n      mload(0x40)\n      dup1\n      swap2\n      sub\n      swap1\n      log1\n        /* \"FLPCrowndsale.sol\":1005:1150  function setUSDTToken(IERC20 token_address) public onlyOwner {... */\n      pop\n      jump\t// out\n        /* \"@openzeppelin/contracts/access/Ownable.sol\":2293:2394  function renounceOwnership() public virtual onlyOwner {... */\n    tag_53:\n        /* \"@openzeppelin/contracts/access/Ownable.sol\":1531:1544  _checkOwner() */\n      tag_124\n        /* \"@openzeppelin/contracts/access/Ownable.sol\":1531:1542  _checkOwner */\n      tag_93\n        /* \"@openzeppelin/contracts/access/Ownable.sol\":1531:1544  _checkOwner() */\n      jump\t// in\n    tag_124:\n        /* \"@openzeppelin/contracts/access/Ownable.sol\":2357:2387  _transferOwnership(address(0)) */\n      tag_126\n        /* \"@openzeppelin/contracts/access/Ownable.sol\":2384:2385  0 */\n      0x00\n        /* \"@openzeppelin/contracts/access/Ownable.sol\":2357:2375  _transferOwnership */\n      tag_127\n        /* \"@openzeppelin/contracts/access/Ownable.sol\":2357:2387  _transferOwnership(address(0)) */\n      jump\t// in\n    tag_126:\n        /* \"@openzeppelin/contracts/access/Ownable.sol\":2293:2394  function renounceOwnership() public virtual onlyOwner {... */\n      jump\t// out\n        /* \"FLPCrowndsale.sol\":1418:2011  function buyTokenByETH() external payable {... */\n    tag_55:\n        /* \"FLPCrowndsale.sol\":1470:1487  uint256 ethAmount */\n      0x00\n        /* \"FLPCrowndsale.sol\":1490:1499  msg.value */\n      callvalue\n        /* \"FLPCrowndsale.sol\":1470:1499  uint256 ethAmount = msg.value */\n      swap1\n      pop\n        /* \"FLPCrowndsale.sol\":1509:1523  uint256 amount */\n      0x00\n        /* \"FLPCrowndsale.sol\":1526:1554  getTokenAmountETH(ethAmount) */\n      tag_129\n        /* \"FLPCrowndsale.sol\":1544:1553  ethAmount */\n      dup3\n        /* \"FLPCrowndsale.sol\":1526:1543  getTokenAmountETH */\n      tag_77\n        /* \"FLPCrowndsale.sol\":1526:1554  getTokenAmountETH(ethAmount) */\n      jump\t// in\n    tag_129:\n        /* \"FLPCrowndsale.sol\":1509:1554  uint256 amount = getTokenAmountETH(ethAmount) */\n      swap1\n      pop\n        /* \"FLPCrowndsale.sol\":1590:1591  0 */\n      0x00\n        /* \"FLPCrowndsale.sol\":1581:1587  amount */\n      dup2\n        /* \"FLPCrowndsale.sol\":1581:1591  amount > 0 */\n      gt\n        /* \"FLPCrowndsale.sol\":1573:1610  require(amount > 0, \"Amount is zero\") */\n      tag_130\n      jumpi\n      mload(0x40)\n      0x08c379a000000000000000000000000000000000000000000000000000000000\n      dup2\n      mstore\n      0x04\n      add\n      tag_131\n      swap1\n      tag_132\n      jump\t// in\n    tag_131:\n      mload(0x40)\n      dup1\n      swap2\n      sub\n      swap1\n      revert\n    tag_130:\n        /* \"FLPCrowndsale.sol\":1675:1681  amount */\n      dup1\n        /* \"FLPCrowndsale.sol\":1641:1646  token */\n      0x04\n      0x00\n      swap1\n      sload\n      swap1\n      0x0100\n      exp\n      swap1\n      div\n      0xffffffffffffffffffffffffffffffffffffffff\n      and\n        /* \"FLPCrowndsale.sol\":1641:1656  token.balanceOf */\n      0xffffffffffffffffffffffffffffffffffffffff\n      and\n      0x70a08231\n        /* \"FLPCrowndsale.sol\":1665:1669  this */\n      address\n        /* \"FLPCrowndsale.sol\":1641:1671  token.balanceOf(address(this)) */\n      mload(0x40)\n      dup3\n      0xffffffff\n      and\n      0xe0\n      shl\n      dup2\n      mstore\n      0x04\n      add\n      tag_133\n      swap2\n      swap1\n      tag_60\n      jump\t// in\n    tag_133:\n      0x20\n      mload(0x40)\n      dup1\n      dup4\n      sub\n      dup2\n      dup7\n      gas\n      staticcall\n      iszero\n      dup1\n      iszero\n      tag_135\n      jumpi\n      returndatasize\n      0x00\n      dup1\n      returndatacopy\n      revert(0x00, returndatasize)\n    tag_135:\n      pop\n      pop\n      pop\n      pop\n      mload(0x40)\n      returndatasize\n      not(0x1f)\n      0x1f\n      dup3\n      add\n      and\n      dup3\n      add\n      dup1\n      0x40\n      mstore\n      pop\n      dup2\n      add\n      swap1\n      tag_136\n      swap2\n      swap1\n      tag_108\n      jump\t// in\n    tag_136:\n        /* \"FLPCrowndsale.sol\":1641:1681  token.balanceOf(address(this)) >= amount */\n      lt\n      iszero\n        /* \"FLPCrowndsale.sol\":1620:1735  require(... */\n      tag_137\n      jumpi\n      mload(0x40)\n      0x08c379a000000000000000000000000000000000000000000000000000000000\n      dup2\n      mstore\n      0x04\n      add\n      tag_138\n      swap1\n      tag_139\n      jump\t// in\n    tag_138:\n      mload(0x40)\n      dup1\n      swap2\n      sub\n      swap1\n      revert\n    tag_137:\n        /* \"FLPCrowndsale.sol\":1788:1797  ethAmount */\n      dup2\n        /* \"FLPCrowndsale.sol\":1766:1776  msg.sender */\n      caller\n        /* \"FLPCrowndsale.sol\":1766:1784  msg.sender.balance */\n      0xffffffffffffffffffffffffffffffffffffffff\n      and\n      balance\n        /* \"FLPCrowndsale.sol\":1766:1797  msg.sender.balance >= ethAmount */\n      lt\n      iszero\n        /* \"FLPCrowndsale.sol\":1745:1851  require(... */\n      tag_140\n      jumpi\n      mload(0x40)\n      0x08c379a000000000000000000000000000000000000000000000000000000000\n      dup2\n      mstore\n      0x04\n      add\n      tag_141\n      swap1\n      tag_139\n      jump\t// in\n    tag_141:\n      mload(0x40)\n      dup1\n      swap2\n      sub\n      swap1\n      revert\n    tag_140:\n        /* \"FLPCrowndsale.sol\":1869:1876  _wallet */\n      0x01\n      0x00\n      swap1\n      sload\n      swap1\n      0x0100\n      exp\n      swap1\n      div\n      0xffffffffffffffffffffffffffffffffffffffff\n      and\n        /* \"FLPCrowndsale.sol\":1861:1886  payable(_wallet).transfer */\n      0xffffffffffffffffffffffffffffffffffffffff\n      and\n        /* \"FLPCrowndsale.sol\":1861:1897  payable(_wallet).transfer(ethAmount) */\n      0x08fc\n        /* \"FLPCrowndsale.sol\":1887:1896  ethAmount */\n      dup4\n        /* \"FLPCrowndsale.sol\":1861:1897  payable(_wallet).transfer(ethAmount) */\n      swap1\n      dup2\n      iszero\n      mul\n      swap1\n      mload(0x40)\n      0x00\n      mload(0x40)\n      dup1\n      dup4\n      sub\n      dup2\n      dup6\n      dup9\n      dup9\n      call\n      swap4\n      pop\n      pop\n      pop\n      pop\n      iszero\n      dup1\n      iszero\n      tag_143\n      jumpi\n      returndatasize\n      0x00\n      dup1\n      returndatacopy\n      revert(0x00, returndatasize)\n    tag_143:\n      pop\n        /* \"FLPCrowndsale.sol\":1907:1956  SafeERC20.safeTransfer(token, msg.sender, amount) */\n      tag_144\n        /* \"FLPCrowndsale.sol\":1930:1935  token */\n      0x04\n      0x00\n      swap1\n      sload\n      swap1\n      0x0100\n      exp\n      swap1\n      div\n      0xffffffffffffffffffffffffffffffffffffffff\n      and\n        /* \"FLPCrowndsale.sol\":1937:1947  msg.sender */\n      caller\n        /* \"FLPCrowndsale.sol\":1949:1955  amount */\n      dup4\n        /* \"FLPCrowndsale.sol\":1907:1929  SafeERC20.safeTransfer */\n      tag_145\n        /* \"FLPCrowndsale.sol\":1907:1956  SafeERC20.safeTransfer(token, msg.sender, amount) */\n      jump\t// in\n    tag_144:\n        /* \"FLPCrowndsale.sol\":1971:2004  BuyTokenByETH(msg.sender, amount) */\n      0xbab06efe910ba7896db8b04299fef8209e3d94545ac7115a3d064449381337bc\n        /* \"FLPCrowndsale.sol\":1985:1995  msg.sender */\n      caller\n        /* \"FLPCrowndsale.sol\":1997:2003  amount */\n      dup3\n        /* \"FLPCrowndsale.sol\":1971:2004  BuyTokenByETH(msg.sender, amount) */\n      mload(0x40)\n      tag_146\n      swap3\n      swap2\n      swap1\n      tag_110\n      jump\t// in\n    tag_146:\n      mload(0x40)\n      dup1\n      swap2\n      sub\n      swap1\n      log1\n        /* \"FLPCrowndsale.sol\":1460:2011  {... */\n      pop\n      pop\n        /* \"FLPCrowndsale.sol\":1418:2011  function buyTokenByETH() external payable {... */\n      jump\t// out\n        /* \"@openzeppelin/contracts/access/Ownable.sol\":1638:1723  function owner() public view virtual returns (address) {... */\n    tag_58:\n        /* \"@openzeppelin/contracts/access/Ownable.sol\":1684:1691  address */\n      0x00\n        /* \"@openzeppelin/contracts/access/Ownable.sol\":1710:1716  _owner */\n      dup1\n      0x00\n      swap1\n      sload\n      swap1\n      0x0100\n      exp\n      swap1\n      div\n      0xffffffffffffffffffffffffffffffffffffffff\n      and\n        /* \"@openzeppelin/contracts/access/Ownable.sol\":1703:1716  return _owner */\n      swap1\n      pop\n        /* \"@openzeppelin/contracts/access/Ownable.sol\":1638:1723  function owner() public view virtual returns (address) {... */\n      swap1\n      jump\t// out\n        /* \"FLPCrowndsale.sol\":348:371  uint256 public ETH_rate */\n    tag_63:\n      sload(0x02)\n      dup2\n      jump\t// out\n        /* \"FLPCrowndsale.sol\":432:455  IERC20 public usdtToken */\n    tag_67:\n      0x05\n      0x00\n      swap1\n      sload\n      swap1\n      0x0100\n      exp\n      swap1\n      div\n      0xffffffffffffffffffffffffffffffffffffffff\n      and\n      dup2\n      jump\t// out\n        /* \"FLPCrowndsale.sol\":2021:2615  function buyTokenByUSDT(uint256 USDTAmount) external {... */\n    tag_73:\n        /* \"FLPCrowndsale.sol\":2084:2098  uint256 amount */\n      0x00\n        /* \"FLPCrowndsale.sol\":2101:2131  getTokenAmountUSDT(USDTAmount) */\n      tag_149\n        /* \"FLPCrowndsale.sol\":2120:2130  USDTAmount */\n      dup3\n        /* \"FLPCrowndsale.sol\":2101:2119  getTokenAmountUSDT */\n      tag_25\n        /* \"FLPCrowndsale.sol\":2101:2131  getTokenAmountUSDT(USDTAmount) */\n      jump\t// in\n    tag_149:\n        /* \"FLPCrowndsale.sol\":2084:2131  uint256 amount = getTokenAmountUSDT(USDTAmount) */\n      swap1\n      pop\n        /* \"FLPCrowndsale.sol\":2184:2194  USDTAmount */\n      dup2\n        /* \"FLPCrowndsale.sol\":2162:2172  msg.sender */\n      caller\n        /* \"FLPCrowndsale.sol\":2162:2180  msg.sender.balance */\n      0xffffffffffffffffffffffffffffffffffffffff\n      and\n      balance\n        /* \"FLPCrowndsale.sol\":2162:2194  msg.sender.balance >= USDTAmount */\n      lt\n      iszero\n        /* \"FLPCrowndsale.sol\":2141:2248  require(... */\n      tag_150\n      jumpi\n      mload(0x40)\n      0x08c379a000000000000000000000000000000000000000000000000000000000\n      dup2\n      mstore\n      0x04\n      add\n      tag_151\n      swap1\n      tag_139\n      jump\t// in\n    tag_151:\n      mload(0x40)\n      dup1\n      swap2\n      sub\n      swap1\n      revert\n    tag_150:\n        /* \"FLPCrowndsale.sol\":2275:2276  0 */\n      0x00\n        /* \"FLPCrowndsale.sol\":2266:2272  amount */\n      dup2\n        /* \"FLPCrowndsale.sol\":2266:2276  amount > 0 */\n      gt\n        /* \"FLPCrowndsale.sol\":2258:2295  require(amount > 0, \"Amount is zero\") */\n      tag_152\n      jumpi\n      mload(0x40)\n      0x08c379a000000000000000000000000000000000000000000000000000000000\n      dup2\n      mstore\n      0x04\n      add\n      tag_153\n      swap1\n      tag_132\n      jump\t// in\n    tag_153:\n      mload(0x40)\n      dup1\n      swap2\n      sub\n      swap1\n      revert\n    tag_152:\n        /* \"FLPCrowndsale.sol\":2360:2366  amount */\n      dup1\n        /* \"FLPCrowndsale.sol\":2326:2331  token */\n      0x04\n      0x00\n      swap1\n      sload\n      swap1\n      0x0100\n      exp\n      swap1\n      div\n      0xffffffffffffffffffffffffffffffffffffffff\n      and\n        /* \"FLPCrowndsale.sol\":2326:2341  token.balanceOf */\n      0xffffffffffffffffffffffffffffffffffffffff\n      and\n      0x70a08231\n        /* \"FLPCrowndsale.sol\":2350:2354  this */\n      address\n        /* \"FLPCrowndsale.sol\":2326:2356  token.balanceOf(address(this)) */\n      mload(0x40)\n      dup3\n      0xffffffff\n      and\n      0xe0\n      shl\n      dup2\n      mstore\n      0x04\n      add\n      tag_154\n      swap2\n      swap1\n      tag_60\n      jump\t// in\n    tag_154:\n      0x20\n      mload(0x40)\n      dup1\n      dup4\n      sub\n      dup2\n      dup7\n      gas\n      staticcall\n      iszero\n      dup1\n      iszero\n      tag_156\n      jumpi\n      returndatasize\n      0x00\n      dup1\n      returndatacopy\n      revert(0x00, returndatasize)\n    tag_156:\n      pop\n      pop\n      pop\n      pop\n      mload(0x40)\n      returndatasize\n      not(0x1f)\n      0x1f\n      dup3\n      add\n      and\n      dup3\n      add\n      dup1\n      0x40\n      mstore\n      pop\n      dup2\n      add\n      swap1\n      tag_157\n      swap2\n      swap1\n      tag_108\n      jump\t// in\n    tag_157:\n        /* \"FLPCrowndsale.sol\":2326:2366  token.balanceOf(address(this)) >= amount */\n      lt\n      iszero\n        /* \"FLPCrowndsale.sol\":2305:2420  require(... */\n      tag_158\n      jumpi\n      mload(0x40)\n      0x08c379a000000000000000000000000000000000000000000000000000000000\n      dup2\n      mstore\n      0x04\n      add\n      tag_159\n      swap1\n      tag_139\n      jump\t// in\n    tag_159:\n      mload(0x40)\n      dup1\n      swap2\n      sub\n      swap1\n      revert\n    tag_158:\n        /* \"FLPCrowndsale.sol\":2430:2500  SafeERC20.safeTransferFrom(usdtToken, msg.sender, _wallet, USDTAmount) */\n      tag_160\n        /* \"FLPCrowndsale.sol\":2457:2466  usdtToken */\n      0x05\n      0x00\n      swap1\n      sload\n      swap1\n      0x0100\n      exp\n      swap1\n      div\n      0xffffffffffffffffffffffffffffffffffffffff\n      and\n        /* \"FLPCrowndsale.sol\":2468:2478  msg.sender */\n      caller\n        /* \"FLPCrowndsale.sol\":2480:2487  _wallet */\n      0x01\n      0x00\n      swap1\n      sload\n      swap1\n      0x0100\n      exp\n      swap1\n      div\n      0xffffffffffffffffffffffffffffffffffffffff\n      and\n        /* \"FLPCrowndsale.sol\":2489:2499  USDTAmount */\n      dup6\n        /* \"FLPCrowndsale.sol\":2430:2456  SafeERC20.safeTransferFrom */\n      tag_161\n        /* \"FLPCrowndsale.sol\":2430:2500  SafeERC20.safeTransferFrom(usdtToken, msg.sender, _wallet, USDTAmount) */\n      jump\t// in\n    tag_160:\n        /* \"FLPCrowndsale.sol\":2510:2559  SafeERC20.safeTransfer(token, msg.sender, amount) */\n      tag_162\n        /* \"FLPCrowndsale.sol\":2533:2538  token */\n      0x04\n      0x00\n      swap1\n      sload\n      swap1\n      0x0100\n      exp\n      swap1\n      div\n      0xffffffffffffffffffffffffffffffffffffffff\n      and\n        /* \"FLPCrowndsale.sol\":2540:2550  msg.sender */\n      caller\n        /* \"FLPCrowndsale.sol\":2552:2558  amount */\n      dup4\n        /* \"FLPCrowndsale.sol\":2510:2532  SafeERC20.safeTransfer */\n      tag_145\n        /* \"FLPCrowndsale.sol\":2510:2559  SafeERC20.safeTransfer(token, msg.sender, amount) */\n      jump\t// in\n    tag_162:\n        /* \"FLPCrowndsale.sol\":2574:2608  BuyTokenByUSDT(msg.sender, amount) */\n      0x5c0161fad3fa89cfebd4a74115d9f81661cdd1b9008d05a238ea9d65088e2064\n        /* \"FLPCrowndsale.sol\":2589:2599  msg.sender */\n      caller\n        /* \"FLPCrowndsale.sol\":2601:2607  amount */\n      dup3\n        /* \"FLPCrowndsale.sol\":2574:2608  BuyTokenByUSDT(msg.sender, amount) */\n      mload(0x40)\n      tag_163\n      swap3\n      swap2\n      swap1\n      tag_110\n      jump\t// in\n    tag_163:\n      mload(0x40)\n      dup1\n      swap2\n      sub\n      swap1\n      log1\n        /* \"FLPCrowndsale.sol\":2074:2615  {... */\n      pop\n        /* \"FLPCrowndsale.sol\":2021:2615  function buyTokenByUSDT(uint256 USDTAmount) external {... */\n      pop\n      jump\t// out\n        /* \"FLPCrowndsale.sol\":2621:2769  function getTokenAmountETH(uint256 ETHAmount)... */\n    tag_77:\n        /* \"FLPCrowndsale.sol\":2712:2719  uint256 */\n      0x00\n        /* \"FLPCrowndsale.sol\":2754:2762  ETH_rate */\n      sload(0x02)\n        /* \"FLPCrowndsale.sol\":2742:2751  ETHAmount */\n      dup3\n        /* \"FLPCrowndsale.sol\":2742:2762  ETHAmount * ETH_rate */\n      tag_165\n      swap2\n      swap1\n      tag_90\n      jump\t// in\n    tag_165:\n        /* \"FLPCrowndsale.sol\":2735:2762  return ETHAmount * ETH_rate */\n      swap1\n      pop\n        /* \"FLPCrowndsale.sol\":2621:2769  function getTokenAmountETH(uint256 ETHAmount)... */\n      swap2\n      swap1\n      pop\n      jump\t// out\n        /* \"@openzeppelin/contracts/access/Ownable.sol\":2543:2758  function transferOwnership(address newOwner) public virtual onlyOwner {... */\n    tag_83:\n        /* \"@openzeppelin/contracts/access/Ownable.sol\":1531:1544  _checkOwner() */\n      tag_167\n        /* \"@openzeppelin/contracts/access/Ownable.sol\":1531:1542  _checkOwner */\n      tag_93\n        /* \"@openzeppelin/contracts/access/Ownable.sol\":1531:1544  _checkOwner() */\n      jump\t// in\n    tag_167:\n        /* \"@openzeppelin/contracts/access/Ownable.sol\":2647:2648  0 */\n      0x00\n        /* \"@openzeppelin/contracts/access/Ownable.sol\":2627:2649  newOwner == address(0) */\n      0xffffffffffffffffffffffffffffffffffffffff\n      and\n        /* \"@openzeppelin/contracts/access/Ownable.sol\":2627:2635  newOwner */\n      dup2\n        /* \"@openzeppelin/contracts/access/Ownable.sol\":2627:2649  newOwner == address(0) */\n      0xffffffffffffffffffffffffffffffffffffffff\n      and\n      sub\n        /* \"@openzeppelin/contracts/access/Ownable.sol\":2623:2714  if (newOwner == address(0)) {... */\n      tag_169\n      jumpi\n        /* \"@openzeppelin/contracts/access/Ownable.sol\":2700:2701  0 */\n      0x00\n        /* \"@openzeppelin/contracts/access/Ownable.sol\":2672:2703  OwnableInvalidOwner(address(0)) */\n      mload(0x40)\n      0x1e4fbdf700000000000000000000000000000000000000000000000000000000\n      dup2\n      mstore\n      0x04\n      add\n      tag_170\n      swap2\n      swap1\n      tag_60\n      jump\t// in\n    tag_170:\n      mload(0x40)\n      dup1\n      swap2\n      sub\n      swap1\n      revert\n        /* \"@openzeppelin/contracts/access/Ownable.sol\":2623:2714  if (newOwner == address(0)) {... */\n    tag_169:\n        /* \"@openzeppelin/contracts/access/Ownable.sol\":2723:2751  _transferOwnership(newOwner) */\n      tag_171\n        /* \"@openzeppelin/contracts/access/Ownable.sol\":2742:2750  newOwner */\n      dup2\n        /* \"@openzeppelin/contracts/access/Ownable.sol\":2723:2741  _transferOwnership */\n      tag_127\n        /* \"@openzeppelin/contracts/access/Ownable.sol\":2723:2751  _transferOwnership(newOwner) */\n      jump\t// in\n    tag_171:\n        /* \"@openzeppelin/contracts/access/Ownable.sol\":2543:2758  function transferOwnership(address newOwner) public virtual onlyOwner {... */\n      pop\n      jump\t// out\n        /* \"FLPCrowndsale.sol\":407:426  IERC20 public token */\n    tag_86:\n      0x04\n      0x00\n      swap1\n      sload\n      swap1\n      0x0100\n      exp\n      swap1\n      div\n      0xffffffffffffffffffffffffffffffffffffffff\n      and\n      dup2\n      jump\t// out\n        /* \"@openzeppelin/contracts/access/Ownable.sol\":1796:1958  function _checkOwner() internal view virtual {... */\n    tag_93:\n        /* \"@openzeppelin/contracts/access/Ownable.sol\":1866:1878  _msgSender() */\n      tag_173\n        /* \"@openzeppelin/contracts/access/Ownable.sol\":1866:1876  _msgSender */\n      tag_174\n        /* \"@openzeppelin/contracts/access/Ownable.sol\":1866:1878  _msgSender() */\n      jump\t// in\n    tag_173:\n        /* \"@openzeppelin/contracts/access/Ownable.sol\":1855:1878  owner() != _msgSender() */\n      0xffffffffffffffffffffffffffffffffffffffff\n      and\n        /* \"@openzeppelin/contracts/access/Ownable.sol\":1855:1862  owner() */\n      tag_175\n        /* \"@openzeppelin/contracts/access/Ownable.sol\":1855:1860  owner */\n      tag_58\n        /* \"@openzeppelin/contracts/access/Ownable.sol\":1855:1862  owner() */\n      jump\t// in\n    tag_175:\n        /* \"@openzeppelin/contracts/access/Ownable.sol\":1855:1878  owner() != _msgSender() */\n      0xffffffffffffffffffffffffffffffffffffffff\n      and\n      eq\n        /* \"@openzeppelin/contracts/access/Ownable.sol\":1851:1952  if (owner() != _msgSender()) {... */\n      tag_176\n      jumpi\n        /* \"@openzeppelin/contracts/access/Ownable.sol\":1928:1940  _msgSender() */\n      tag_177\n        /* \"@openzeppelin/contracts/access/Ownable.sol\":1928:1938  _msgSender */\n      tag_174\n        /* \"@openzeppelin/contracts/access/Ownable.sol\":1928:1940  _msgSender() */\n      jump\t// in\n    tag_177:\n        /* \"@openzeppelin/contracts/access/Ownable.sol\":1901:1941  OwnableUnauthorizedAccount(_msgSender()) */\n      mload(0x40)\n      0x118cdaa700000000000000000000000000000000000000000000000000000000\n      dup2\n      mstore\n      0x04\n      add\n      tag_178\n      swap2\n      swap1\n      tag_60\n      jump\t// in\n    tag_178:\n      mload(0x40)\n      dup1\n      swap2\n      sub\n      swap1\n      revert\n        /* \"@openzeppelin/contracts/access/Ownable.sol\":1851:1952  if (owner() != _msgSender()) {... */\n    tag_176:\n        /* \"@openzeppelin/contracts/access/Ownable.sol\":1796:1958  function _checkOwner() internal view virtual {... */\n      jump\t// out\n        /* \"@openzeppelin/contracts/access/Ownable.sol\":2912:3099  function _transferOwnership(address newOwner) internal virtual {... */\n    tag_127:\n        /* \"@openzeppelin/contracts/access/Ownable.sol\":2985:3001  address oldOwner */\n      0x00\n        /* \"@openzeppelin/contracts/access/Ownable.sol\":3004:3010  _owner */\n      dup1\n      0x00\n      swap1\n      sload\n      swap1\n      0x0100\n      exp\n      swap1\n      div\n      0xffffffffffffffffffffffffffffffffffffffff\n      and\n        /* \"@openzeppelin/contracts/access/Ownable.sol\":2985:3010  address oldOwner = _owner */\n      swap1\n      pop\n        /* \"@openzeppelin/contracts/access/Ownable.sol\":3029:3037  newOwner */\n      dup2\n        /* \"@openzeppelin/contracts/access/Ownable.sol\":3020:3026  _owner */\n      0x00\n      dup1\n        /* \"@openzeppelin/contracts/access/Ownable.sol\":3020:3037  _owner = newOwner */\n      0x0100\n      exp\n      dup2\n      sload\n      dup2\n      0xffffffffffffffffffffffffffffffffffffffff\n      mul\n      not\n      and\n      swap1\n      dup4\n      0xffffffffffffffffffffffffffffffffffffffff\n      and\n      mul\n      or\n      swap1\n      sstore\n      pop\n        /* \"@openzeppelin/contracts/access/Ownable.sol\":3083:3091  newOwner */\n      dup2\n        /* \"@openzeppelin/contracts/access/Ownable.sol\":3052:3092  OwnershipTransferred(oldOwner, newOwner) */\n      0xffffffffffffffffffffffffffffffffffffffff\n      and\n        /* \"@openzeppelin/contracts/access/Ownable.sol\":3073:3081  oldOwner */\n      dup2\n        /* \"@openzeppelin/contracts/access/Ownable.sol\":3052:3092  OwnershipTransferred(oldOwner, newOwner) */\n      0xffffffffffffffffffffffffffffffffffffffff\n      and\n      0x8be0079c531659141344cd1fd0a4f28419497f9722a3daafe3b4186f6b6457e0\n      mload(0x40)\n      mload(0x40)\n      dup1\n      swap2\n      sub\n      swap1\n      log3\n        /* \"@openzeppelin/contracts/access/Ownable.sol\":2975:3099  {... */\n      pop\n        /* \"@openzeppelin/contracts/access/Ownable.sol\":2912:3099  function _transferOwnership(address newOwner) internal virtual {... */\n      pop\n      jump\t// out\n        /* \"@openzeppelin/contracts/token/ERC20/utils/SafeERC20.sol\":1303:1463  function safeTransfer(IERC20 token, address to, uint256 value) internal {... */\n    tag_145:\n        /* \"@openzeppelin/contracts/token/ERC20/utils/SafeERC20.sol\":1385:1456  _callOptionalReturn(token, abi.encodeCall(token.transfer, (to, value))) */\n      tag_181\n        /* \"@openzeppelin/contracts/token/ERC20/utils/SafeERC20.sol\":1405:1410  token */\n      dup4\n        /* \"@openzeppelin/contracts/token/ERC20/utils/SafeERC20.sol\":1427:1432  token */\n      dup5\n        /* \"@openzeppelin/contracts/token/ERC20/utils/SafeERC20.sol\":1427:1441  token.transfer */\n      0xffffffffffffffffffffffffffffffffffffffff\n      and\n      0xa9059cbb\n        /* \"@openzeppelin/contracts/token/ERC20/utils/SafeERC20.sol\":1444:1446  to */\n      dup6\n        /* \"@openzeppelin/contracts/token/ERC20/utils/SafeERC20.sol\":1448:1453  value */\n      dup6\n        /* \"@openzeppelin/contracts/token/ERC20/utils/SafeERC20.sol\":1412:1455  abi.encodeCall(token.transfer, (to, value)) */\n      add(0x24, mload(0x40))\n      tag_182\n      swap3\n      swap2\n      swap1\n      tag_110\n      jump\t// in\n    tag_182:\n      mload(0x40)\n      0x20\n      dup2\n      dup4\n      sub\n      sub\n      dup2\n      mstore\n      swap1\n      0x40\n      mstore\n      swap2\n      pop\n      0xe0\n      shl\n      0x20\n      dup3\n      add\n      dup1\n      mload\n      0xffffffffffffffffffffffffffffffffffffffffffffffffffffffff\n      dup4\n      dup2\n      dup4\n      and\n      or\n      dup4\n      mstore\n      pop\n      pop\n      pop\n      pop\n        /* \"@openzeppelin/contracts/token/ERC20/utils/SafeERC20.sol\":1385:1404  _callOptionalReturn */\n      tag_183\n        /* \"@openzeppelin/contracts/token/ERC20/utils/SafeERC20.sol\":1385:1456  _callOptionalReturn(token, abi.encodeCall(token.transfer, (to, value))) */\n      jump\t// in\n    tag_181:\n        /* \"@openzeppelin/contracts/token/ERC20/utils/SafeERC20.sol\":1303:1463  function safeTransfer(IERC20 token, address to, uint256 value) internal {... */\n      pop\n      pop\n      pop\n      jump\t// out\n        /* \"@openzeppelin/contracts/token/ERC20/utils/SafeERC20.sol\":1702:1890  function safeTransferFrom(IERC20 token, address from, address to, uint256 value) internal {... */\n    tag_161:\n        /* \"@openzeppelin/contracts/token/ERC20/utils/SafeERC20.sol\":1802:1883  _callOptionalReturn(token, abi.encodeCall(token.transferFrom, (from, to, value))) */\n      tag_185\n        /* \"@openzeppelin/contracts/token/ERC20/utils/SafeERC20.sol\":1822:1827  token */\n      dup5\n        /* \"@openzeppelin/contracts/token/ERC20/utils/SafeERC20.sol\":1844:1849  token */\n      dup6\n        /* \"@openzeppelin/contracts/token/ERC20/utils/SafeERC20.sol\":1844:1862  token.transferFrom */\n      0xffffffffffffffffffffffffffffffffffffffff\n      and\n      0x23b872dd\n        /* \"@openzeppelin/contracts/token/ERC20/utils/SafeERC20.sol\":1865:1869  from */\n      dup7\n        /* \"@openzeppelin/contracts/token/ERC20/utils/SafeERC20.sol\":1871:1873  to */\n      dup7\n        /* \"@openzeppelin/contracts/token/ERC20/utils/SafeERC20.sol\":1875:1880  value */\n      dup7\n        /* \"@openzeppelin/contracts/token/ERC20/utils/SafeERC20.sol\":1829:1882  abi.encodeCall(token.transferFrom, (from, to, value)) */\n      add(0x24, mload(0x40))\n      tag_186\n      swap4\n      swap3\n      swap2\n      swap1\n      tag_187\n      jump\t// in\n    tag_186:\n      mload(0x40)\n      0x20\n      dup2\n      dup4\n      sub\n      sub\n      dup2\n      mstore\n      swap1\n      0x40\n      mstore\n      swap2\n      pop\n      0xe0\n      shl\n      0x20\n      dup3\n      add\n      dup1\n      mload\n      0xffffffffffffffffffffffffffffffffffffffffffffffffffffffff\n      dup4\n      dup2\n      dup4\n      and\n      or\n      dup4\n      mstore\n      pop\n      pop\n      pop\n      pop\n        /* \"@openzeppelin/contracts/token/ERC20/utils/SafeERC20.sol\":1802:1821  _callOptionalReturn */\n      tag_183\n        /* \"@openzeppelin/contracts/token/ERC20/utils/SafeERC20.sol\":1802:1883  _callOptionalReturn(token, abi.encodeCall(token.transferFrom, (from, to, value))) */\n      jump\t// in\n    tag_185:\n        /* \"@openzeppelin/contracts/token/ERC20/utils/SafeERC20.sol\":1702:1890  function safeTransferFrom(IERC20 token, address from, address to, uint256 value) internal {... */\n      pop\n      pop\n      pop\n      pop\n      jump\t// out\n        /* \"@openzeppelin/contracts/utils/Context.sol\":656:752  function _msgSender() internal view virtual returns (address) {... */\n    tag_174:\n        /* \"@openzeppelin/contracts/utils/Context.sol\":709:716  address */\n      0x00\n        /* \"@openzeppelin/contracts/utils/Context.sol\":735:745  msg.sender */\n      caller\n        /* \"@openzeppelin/contracts/utils/Context.sol\":728:745  return msg.sender */\n      swap1\n      pop\n        /* \"@openzeppelin/contracts/utils/Context.sol\":656:752  function _msgSender() internal view virtual returns (address) {... */\n      swap1\n      jump\t// out\n        /* \"@openzeppelin/contracts/token/ERC20/utils/SafeERC20.sol\":4059:4688  function _callOptionalReturn(IERC20 token, bytes memory data) private {... */\n    tag_183:\n        /* \"@openzeppelin/contracts/token/ERC20/utils/SafeERC20.sol\":4478:4501  bytes memory returndata */\n      0x00\n        /* \"@openzeppelin/contracts/token/ERC20/utils/SafeERC20.sol\":4504:4537  address(token).functionCall(data) */\n      tag_190\n        /* \"@openzeppelin/contracts/token/ERC20/utils/SafeERC20.sol\":4532:4536  data */\n      dup3\n        /* \"@openzeppelin/contracts/token/ERC20/utils/SafeERC20.sol\":4512:4517  token */\n      dup5\n        /* \"@openzeppelin/contracts/token/ERC20/utils/SafeERC20.sol\":4504:4531  address(token).functionCall */\n      0xffffffffffffffffffffffffffffffffffffffff\n      and\n      tag_191\n      swap1\n        /* \"@openzeppelin/contracts/token/ERC20/utils/SafeERC20.sol\":4504:4537  address(token).functionCall(data) */\n      swap2\n      swap1\n      0xffffffff\n      and\n      jump\t// in\n    tag_190:\n        /* \"@openzeppelin/contracts/token/ERC20/utils/SafeERC20.sol\":4478:4537  bytes memory returndata = address(token).functionCall(data) */\n      swap1\n      pop\n        /* \"@openzeppelin/contracts/token/ERC20/utils/SafeERC20.sol\":4572:4573  0 */\n      0x00\n        /* \"@openzeppelin/contracts/token/ERC20/utils/SafeERC20.sol\":4551:4561  returndata */\n      dup2\n        /* \"@openzeppelin/contracts/token/ERC20/utils/SafeERC20.sol\":4551:4568  returndata.length */\n      mload\n        /* \"@openzeppelin/contracts/token/ERC20/utils/SafeERC20.sol\":4551:4573  returndata.length != 0 */\n      eq\n      iszero\n        /* \"@openzeppelin/contracts/token/ERC20/utils/SafeERC20.sol\":4551:4608  returndata.length != 0 && !abi.decode(returndata, (bool)) */\n      dup1\n      iszero\n      tag_192\n      jumpi\n      pop\n        /* \"@openzeppelin/contracts/token/ERC20/utils/SafeERC20.sol\":4589:4599  returndata */\n      dup1\n        /* \"@openzeppelin/contracts/token/ERC20/utils/SafeERC20.sol\":4578:4608  abi.decode(returndata, (bool)) */\n      dup1\n      0x20\n      add\n      swap1\n      mload\n      dup2\n      add\n      swap1\n      tag_193\n      swap2\n      swap1\n      tag_114\n      jump\t// in\n    tag_193:\n        /* \"@openzeppelin/contracts/token/ERC20/utils/SafeERC20.sol\":4577:4608  !abi.decode(returndata, (bool)) */\n      iszero\n        /* \"@openzeppelin/contracts/token/ERC20/utils/SafeERC20.sol\":4551:4608  returndata.length != 0 && !abi.decode(returndata, (bool)) */\n    tag_192:\n        /* \"@openzeppelin/contracts/token/ERC20/utils/SafeERC20.sol\":4547:4682  if (returndata.length != 0 && !abi.decode(returndata, (bool))) {... */\n      iszero\n      tag_194\n      jumpi\n        /* \"@openzeppelin/contracts/token/ERC20/utils/SafeERC20.sol\":4664:4669  token */\n      dup3\n        /* \"@openzeppelin/contracts/token/ERC20/utils/SafeERC20.sol\":4631:4671  SafeERC20FailedOperation(address(token)) */\n      mload(0x40)\n      0x5274afe700000000000000000000000000000000000000000000000000000000\n      dup2\n      mstore\n      0x04\n      add\n      tag_195\n      swap2\n      swap1\n      tag_60\n      jump\t// in\n    tag_195:\n      mload(0x40)\n      dup1\n      swap2\n      sub\n      swap1\n      revert\n        /* \"@openzeppelin/contracts/token/ERC20/utils/SafeERC20.sol\":4547:4682  if (returndata.length != 0 && !abi.decode(returndata, (bool))) {... */\n    tag_194:\n        /* \"@openzeppelin/contracts/token/ERC20/utils/SafeERC20.sol\":4129:4688  {... */\n      pop\n        /* \"@openzeppelin/contracts/token/ERC20/utils/SafeERC20.sol\":4059:4688  function _callOptionalReturn(IERC20 token, bytes memory data) private {... */\n      pop\n      pop\n      jump\t// out\n        /* \"@openzeppelin/contracts/utils/Address.sol\":2705:2856  function functionCall(address target, bytes memory data) internal returns (bytes memory) {... */\n    tag_191:\n        /* \"@openzeppelin/contracts/utils/Address.sol\":2780:2792  bytes memory */\n      0x60\n        /* \"@openzeppelin/contracts/utils/Address.sol\":2811:2849  functionCallWithValue(target, data, 0) */\n      tag_197\n        /* \"@openzeppelin/contracts/utils/Address.sol\":2833:2839  target */\n      dup4\n        /* \"@openzeppelin/contracts/utils/Address.sol\":2841:2845  data */\n      dup4\n        /* \"@openzeppelin/contracts/utils/Address.sol\":2847:2848  0 */\n      0x00\n        /* \"@openzeppelin/contracts/utils/Address.sol\":2811:2832  functionCallWithValue */\n      tag_198\n        /* \"@openzeppelin/contracts/utils/Address.sol\":2811:2849  functionCallWithValue(target, data, 0) */\n      jump\t// in\n    tag_197:\n        /* \"@openzeppelin/contracts/utils/Address.sol\":2804:2849  return functionCallWithValue(target, data, 0) */\n      swap1\n      pop\n        /* \"@openzeppelin/contracts/utils/Address.sol\":2705:2856  function functionCall(address target, bytes memory data) internal returns (bytes memory) {... */\n      swap3\n      swap2\n      pop\n      pop\n      jump\t// out\n        /* \"@openzeppelin/contracts/utils/Address.sol\":3180:3572  function functionCallWithValue(address target, bytes memory data, uint256 value) internal returns (bytes memory) {... */\n    tag_198:\n        /* \"@openzeppelin/contracts/utils/Address.sol\":3279:3291  bytes memory */\n      0x60\n        /* \"@openzeppelin/contracts/utils/Address.sol\":3331:3336  value */\n      dup2\n        /* \"@openzeppelin/contracts/utils/Address.sol\":3307:3328  address(this).balance */\n      selfbalance\n        /* \"@openzeppelin/contracts/utils/Address.sol\":3307:3336  address(this).balance < value */\n      lt\n        /* \"@openzeppelin/contracts/utils/Address.sol\":3303:3411  if (address(this).balance < value) {... */\n      iszero\n      tag_200\n      jumpi\n        /* \"@openzeppelin/contracts/utils/Address.sol\":3394:3398  this */\n      address\n        /* \"@openzeppelin/contracts/utils/Address.sol\":3359:3400  AddressInsufficientBalance(address(this)) */\n      mload(0x40)\n      0xcd78605900000000000000000000000000000000000000000000000000000000\n      dup2\n      mstore\n      0x04\n      add\n      tag_201\n      swap2\n      swap1\n      tag_60\n      jump\t// in\n    tag_201:\n      mload(0x40)\n      dup1\n      swap2\n      sub\n      swap1\n      revert\n        /* \"@openzeppelin/contracts/utils/Address.sol\":3303:3411  if (address(this).balance < value) {... */\n    tag_200:\n        /* \"@openzeppelin/contracts/utils/Address.sol\":3421:3433  bool success */\n      0x00\n        /* \"@openzeppelin/contracts/utils/Address.sol\":3435:3458  bytes memory returndata */\n      dup1\n        /* \"@openzeppelin/contracts/utils/Address.sol\":3462:3468  target */\n      dup6\n        /* \"@openzeppelin/contracts/utils/Address.sol\":3462:3473  target.call */\n      0xffffffffffffffffffffffffffffffffffffffff\n      and\n        /* \"@openzeppelin/contracts/utils/Address.sol\":3481:3486  value */\n      dup5\n        /* \"@openzeppelin/contracts/utils/Address.sol\":3488:3492  data */\n      dup7\n        /* \"@openzeppelin/contracts/utils/Address.sol\":3462:3493  target.call{value: value}(data) */\n      mload(0x40)\n      tag_202\n      swap2\n      swap1\n      tag_203\n      jump\t// in\n    tag_202:\n      0x00\n      mload(0x40)\n      dup1\n      dup4\n      sub\n      dup2\n      dup6\n      dup8\n      gas\n      call\n      swap3\n      pop\n      pop\n      pop\n      returndatasize\n      dup1\n      0x00\n      dup2\n      eq\n      tag_206\n      jumpi\n      mload(0x40)\n      swap2\n      pop\n      and(add(returndatasize, 0x3f), not(0x1f))\n      dup3\n      add\n      0x40\n      mstore\n      returndatasize\n      dup3\n      mstore\n      returndatasize\n      0x00\n      0x20\n      dup5\n      add\n      returndatacopy\n      jump(tag_205)\n    tag_206:\n      0x60\n      swap2\n      pop\n    tag_205:\n      pop\n        /* \"@openzeppelin/contracts/utils/Address.sol\":3420:3493  (bool success, bytes memory returndata) = target.call{value: value}(data) */\n      swap2\n      pop\n      swap2\n      pop\n        /* \"@openzeppelin/contracts/utils/Address.sol\":3510:3565  verifyCallResultFromTarget(target, success, returndata) */\n      tag_207\n        /* \"@openzeppelin/contracts/utils/Address.sol\":3537:3543  target */\n      dup7\n        /* \"@openzeppelin/contracts/utils/Address.sol\":3545:3552  success */\n      dup4\n        /* \"@openzeppelin/contracts/utils/Address.sol\":3554:3564  returndata */\n      dup4\n        /* \"@openzeppelin/contracts/utils/Address.sol\":3510:3536  verifyCallResultFromTarget */\n      tag_208\n        /* \"@openzeppelin/contracts/utils/Address.sol\":3510:3565  verifyCallResultFromTarget(target, success, returndata) */\n      jump\t// in\n    tag_207:\n        /* \"@openzeppelin/contracts/utils/Address.sol\":3503:3565  return verifyCallResultFromTarget(target, success, returndata) */\n      swap3\n      pop\n      pop\n      pop\n        /* \"@openzeppelin/contracts/utils/Address.sol\":3180:3572  function functionCallWithValue(address target, bytes memory data, uint256 value) internal returns (bytes memory) {... */\n      swap4\n      swap3\n      pop\n      pop\n      pop\n      jump\t// out\n        /* \"@openzeppelin/contracts/utils/Address.sol\":4625:5207  function verifyCallResultFromTarget(... */\n    tag_208:\n        /* \"@openzeppelin/contracts/utils/Address.sol\":4769:4781  bytes memory */\n      0x60\n        /* \"@openzeppelin/contracts/utils/Address.sol\":4798:4805  success */\n      dup3\n        /* \"@openzeppelin/contracts/utils/Address.sol\":4793:5201  if (!success) {... */\n      tag_210\n      jumpi\n        /* \"@openzeppelin/contracts/utils/Address.sol\":4821:4840  _revert(returndata) */\n      tag_211\n        /* \"@openzeppelin/contracts/utils/Address.sol\":4829:4839  returndata */\n      dup3\n        /* \"@openzeppelin/contracts/utils/Address.sol\":4821:4828  _revert */\n      tag_212\n        /* \"@openzeppelin/contracts/utils/Address.sol\":4821:4840  _revert(returndata) */\n      jump\t// in\n    tag_211:\n        /* \"@openzeppelin/contracts/utils/Address.sol\":4793:5201  if (!success) {... */\n      jump(tag_213)\n    tag_210:\n        /* \"@openzeppelin/contracts/utils/Address.sol\":5066:5067  0 */\n      0x00\n        /* \"@openzeppelin/contracts/utils/Address.sol\":5045:5055  returndata */\n      dup3\n        /* \"@openzeppelin/contracts/utils/Address.sol\":5045:5062  returndata.length */\n      mload\n        /* \"@openzeppelin/contracts/utils/Address.sol\":5045:5067  returndata.length == 0 */\n      eq\n        /* \"@openzeppelin/contracts/utils/Address.sol\":5045:5094  returndata.length == 0 && target.code.length == 0 */\n      dup1\n      iszero\n      tag_214\n      jumpi\n      pop\n        /* \"@openzeppelin/contracts/utils/Address.sol\":5093:5094  0 */\n      0x00\n        /* \"@openzeppelin/contracts/utils/Address.sol\":5071:5077  target */\n      dup5\n        /* \"@openzeppelin/contracts/utils/Address.sol\":5071:5089  target.code.length */\n      0xffffffffffffffffffffffffffffffffffffffff\n      and\n      extcodesize\n        /* \"@openzeppelin/contracts/utils/Address.sol\":5071:5094  target.code.length == 0 */\n      eq\n        /* \"@openzeppelin/contracts/utils/Address.sol\":5045:5094  returndata.length == 0 && target.code.length == 0 */\n    tag_214:\n        /* \"@openzeppelin/contracts/utils/Address.sol\":5041:5160  if (returndata.length == 0 && target.code.length == 0) {... */\n      iszero\n      tag_215\n      jumpi\n        /* \"@openzeppelin/contracts/utils/Address.sol\":5138:5144  target */\n      dup4\n        /* \"@openzeppelin/contracts/utils/Address.sol\":5121:5145  AddressEmptyCode(target) */\n      mload(0x40)\n      0x9996b31500000000000000000000000000000000000000000000000000000000\n      dup2\n      mstore\n      0x04\n      add\n      tag_216\n      swap2\n      swap1\n      tag_60\n      jump\t// in\n    tag_216:\n      mload(0x40)\n      dup1\n      swap2\n      sub\n      swap1\n      revert\n        /* \"@openzeppelin/contracts/utils/Address.sol\":5041:5160  if (returndata.length == 0 && target.code.length == 0) {... */\n    tag_215:\n        /* \"@openzeppelin/contracts/utils/Address.sol\":5180:5190  returndata */\n      dup2\n        /* \"@openzeppelin/contracts/utils/Address.sol\":5173:5190  return returndata */\n      swap1\n      pop\n      jump(tag_209)\n        /* \"@openzeppelin/contracts/utils/Address.sol\":4793:5201  if (!success) {... */\n    tag_213:\n        /* \"@openzeppelin/contracts/utils/Address.sol\":4625:5207  function verifyCallResultFromTarget(... */\n    tag_209:\n      swap4\n      swap3\n      pop\n      pop\n      pop\n      jump\t// out\n        /* \"@openzeppelin/contracts/utils/Address.sol\":5743:6259  function _revert(bytes memory returndata) private pure {... */\n    tag_212:\n        /* \"@openzeppelin/contracts/utils/Address.sol\":5894:5895  0 */\n      0x00\n        /* \"@openzeppelin/contracts/utils/Address.sol\":5874:5884  returndata */\n      dup2\n        /* \"@openzeppelin/contracts/utils/Address.sol\":5874:5891  returndata.length */\n      mload\n        /* \"@openzeppelin/contracts/utils/Address.sol\":5874:5895  returndata.length > 0 */\n      gt\n        /* \"@openzeppelin/contracts/utils/Address.sol\":5870:6253  if (returndata.length > 0) {... */\n      iszero\n      tag_218\n      jumpi\n        /* \"@openzeppelin/contracts/utils/Address.sol\":6102:6112  returndata */\n      dup1\n        /* \"@openzeppelin/contracts/utils/Address.sol\":6096:6113  mload(returndata) */\n      mload\n        /* \"@openzeppelin/contracts/utils/Address.sol\":6158:6173  returndata_size */\n      dup1\n        /* \"@openzeppelin/contracts/utils/Address.sol\":6145:6155  returndata */\n      dup3\n        /* \"@openzeppelin/contracts/utils/Address.sol\":6141:6143  32 */\n      0x20\n        /* \"@openzeppelin/contracts/utils/Address.sol\":6137:6156  add(32, returndata) */\n      add\n        /* \"@openzeppelin/contracts/utils/Address.sol\":6130:6174  revert(add(32, returndata), returndata_size) */\n      revert\n        /* \"@openzeppelin/contracts/utils/Address.sol\":5870:6253  if (returndata.length > 0) {... */\n    tag_218:\n        /* \"@openzeppelin/contracts/utils/Address.sol\":6225:6242  FailedInnerCall() */\n      mload(0x40)\n      0x1425ea4200000000000000000000000000000000000000000000000000000000\n      dup2\n      mstore\n      0x04\n      add\n      mload(0x40)\n      dup1\n      swap2\n      sub\n      swap1\n      revert\n        /* \"#utility.yul\":88:205   */\n    tag_221:\n        /* \"#utility.yul\":197:198   */\n      0x00\n        /* \"#utility.yul\":194:195   */\n      dup1\n        /* \"#utility.yul\":187:199   */\n      revert\n        /* \"#utility.yul\":334:411   */\n    tag_223:\n        /* \"#utility.yul\":371:378   */\n      0x00\n        /* \"#utility.yul\":400:405   */\n      dup2\n        /* \"#utility.yul\":389:405   */\n      swap1\n      pop\n        /* \"#utility.yul\":334:411   */\n      swap2\n      swap1\n      pop\n      jump\t// out\n        /* \"#utility.yul\":417:539   */\n    tag_224:\n        /* \"#utility.yul\":490:514   */\n      tag_260\n        /* \"#utility.yul\":508:513   */\n      dup2\n        /* \"#utility.yul\":490:514   */\n      tag_223\n      jump\t// in\n    tag_260:\n        /* \"#utility.yul\":483:488   */\n      dup2\n        /* \"#utility.yul\":480:515   */\n      eq\n        /* \"#utility.yul\":470:533   */\n      tag_261\n      jumpi\n        /* \"#utility.yul\":529:530   */\n      0x00\n        /* \"#utility.yul\":526:527   */\n      dup1\n        /* \"#utility.yul\":519:531   */\n      revert\n        /* \"#utility.yul\":470:533   */\n    tag_261:\n        /* \"#utility.yul\":417:539   */\n      pop\n      jump\t// out\n        /* \"#utility.yul\":545:684   */\n    tag_225:\n        /* \"#utility.yul\":591:596   */\n      0x00\n        /* \"#utility.yul\":629:635   */\n      dup2\n        /* \"#utility.yul\":616:636   */\n      calldataload\n        /* \"#utility.yul\":607:636   */\n      swap1\n      pop\n        /* \"#utility.yul\":645:678   */\n      tag_263\n        /* \"#utility.yul\":672:677   */\n      dup2\n        /* \"#utility.yul\":645:678   */\n      tag_224\n      jump\t// in\n    tag_263:\n        /* \"#utility.yul\":545:684   */\n      swap3\n      swap2\n      pop\n      pop\n      jump\t// out\n        /* \"#utility.yul\":690:1019   */\n    tag_24:\n        /* \"#utility.yul\":749:755   */\n      0x00\n        /* \"#utility.yul\":798:800   */\n      0x20\n        /* \"#utility.yul\":786:795   */\n      dup3\n        /* \"#utility.yul\":777:784   */\n      dup5\n        /* \"#utility.yul\":773:796   */\n      sub\n        /* \"#utility.yul\":769:801   */\n      slt\n        /* \"#utility.yul\":766:885   */\n      iszero\n      tag_265\n      jumpi\n        /* \"#utility.yul\":804:883   */\n      tag_266\n      tag_221\n      jump\t// in\n    tag_266:\n        /* \"#utility.yul\":766:885   */\n    tag_265:\n        /* \"#utility.yul\":924:925   */\n      0x00\n        /* \"#utility.yul\":949:1002   */\n      tag_267\n        /* \"#utility.yul\":994:1001   */\n      dup5\n        /* \"#utility.yul\":985:991   */\n      dup3\n        /* \"#utility.yul\":974:983   */\n      dup6\n        /* \"#utility.yul\":970:992   */\n      add\n        /* \"#utility.yul\":949:1002   */\n      tag_225\n      jump\t// in\n    tag_267:\n        /* \"#utility.yul\":939:1002   */\n      swap2\n      pop\n        /* \"#utility.yul\":895:1012   */\n      pop\n        /* \"#utility.yul\":690:1019   */\n      swap3\n      swap2\n      pop\n      pop\n      jump\t// out\n        /* \"#utility.yul\":1025:1143   */\n    tag_226:\n        /* \"#utility.yul\":1112:1136   */\n      tag_269\n        /* \"#utility.yul\":1130:1135   */\n      dup2\n        /* \"#utility.yul\":1112:1136   */\n      tag_223\n      jump\t// in\n    tag_269:\n        /* \"#utility.yul\":1107:1110   */\n      dup3\n        /* \"#utility.yul\":1100:1137   */\n      mstore\n        /* \"#utility.yul\":1025:1143   */\n      pop\n      pop\n      jump\t// out\n        /* \"#utility.yul\":1149:1371   */\n    tag_27:\n        /* \"#utility.yul\":1242:1246   */\n      0x00\n        /* \"#utility.yul\":1280:1282   */\n      0x20\n        /* \"#utility.yul\":1269:1278   */\n      dup3\n        /* \"#utility.yul\":1265:1283   */\n      add\n        /* \"#utility.yul\":1257:1283   */\n      swap1\n      pop\n        /* \"#utility.yul\":1293:1364   */\n      tag_271\n        /* \"#utility.yul\":1361:1362   */\n      0x00\n        /* \"#utility.yul\":1350:1359   */\n      dup4\n        /* \"#utility.yul\":1346:1363   */\n      add\n        /* \"#utility.yul\":1337:1343   */\n      dup5\n        /* \"#utility.yul\":1293:1364   */\n      tag_226\n      jump\t// in\n    tag_271:\n        /* \"#utility.yul\":1149:1371   */\n      swap3\n      swap2\n      pop\n      pop\n      jump\t// out\n        /* \"#utility.yul\":1377:1503   */\n    tag_227:\n        /* \"#utility.yul\":1414:1421   */\n      0x00\n        /* \"#utility.yul\":1454:1496   */\n      0xffffffffffffffffffffffffffffffffffffffff\n        /* \"#utility.yul\":1447:1452   */\n      dup3\n        /* \"#utility.yul\":1443:1497   */\n      and\n        /* \"#utility.yul\":1432:1497   */\n      swap1\n      pop\n        /* \"#utility.yul\":1377:1503   */\n      swap2\n      swap1\n      pop\n      jump\t// out\n        /* \"#utility.yul\":1509:1605   */\n    tag_228:\n        /* \"#utility.yul\":1546:1553   */\n      0x00\n        /* \"#utility.yul\":1575:1599   */\n      tag_274\n        /* \"#utility.yul\":1593:1598   */\n      dup3\n        /* \"#utility.yul\":1575:1599   */\n      tag_227\n      jump\t// in\n    tag_274:\n        /* \"#utility.yul\":1564:1599   */\n      swap1\n      pop\n        /* \"#utility.yul\":1509:1605   */\n      swap2\n      swap1\n      pop\n      jump\t// out\n        /* \"#utility.yul\":1611:1721   */\n    tag_229:\n        /* \"#utility.yul\":1662:1669   */\n      0x00\n        /* \"#utility.yul\":1691:1715   */\n      tag_276\n        /* \"#utility.yul\":1709:1714   */\n      dup3\n        /* \"#utility.yul\":1691:1715   */\n      tag_228\n      jump\t// in\n    tag_276:\n        /* \"#utility.yul\":1680:1715   */\n      swap1\n      pop\n        /* \"#utility.yul\":1611:1721   */\n      swap2\n      swap1\n      pop\n      jump\t// out\n        /* \"#utility.yul\":1727:1877   */\n    tag_230:\n        /* \"#utility.yul\":1814:1852   */\n      tag_278\n        /* \"#utility.yul\":1846:1851   */\n      dup2\n        /* \"#utility.yul\":1814:1852   */\n      tag_229\n      jump\t// in\n    tag_278:\n        /* \"#utility.yul\":1807:1812   */\n      dup2\n        /* \"#utility.yul\":1804:1853   */\n      eq\n        /* \"#utility.yul\":1794:1871   */\n      tag_279\n      jumpi\n        /* \"#utility.yul\":1867:1868   */\n      0x00\n        /* \"#utility.yul\":1864:1865   */\n      dup1\n        /* \"#utility.yul\":1857:1869   */\n      revert\n        /* \"#utility.yul\":1794:1871   */\n    tag_279:\n        /* \"#utility.yul\":1727:1877   */\n      pop\n      jump\t// out\n        /* \"#utility.yul\":1883:2050   */\n    tag_231:\n        /* \"#utility.yul\":1943:1948   */\n      0x00\n        /* \"#utility.yul\":1981:1987   */\n      dup2\n        /* \"#utility.yul\":1968:1988   */\n      calldataload\n        /* \"#utility.yul\":1959:1988   */\n      swap1\n      pop\n        /* \"#utility.yul\":1997:2044   */\n      tag_281\n        /* \"#utility.yul\":2038:2043   */\n      dup2\n        /* \"#utility.yul\":1997:2044   */\n      tag_230\n      jump\t// in\n    tag_281:\n        /* \"#utility.yul\":1883:2050   */\n      swap3\n      swap2\n      pop\n      pop\n      jump\t// out\n        /* \"#utility.yul\":2056:2413   */\n    tag_49:\n        /* \"#utility.yul\":2129:2135   */\n      0x00\n        /* \"#utility.yul\":2178:2180   */\n      0x20\n        /* \"#utility.yul\":2166:2175   */\n      dup3\n        /* \"#utility.yul\":2157:2164   */\n      dup5\n        /* \"#utility.yul\":2153:2176   */\n      sub\n        /* \"#utility.yul\":2149:2181   */\n      slt\n        /* \"#utility.yul\":2146:2265   */\n      iszero\n      tag_283\n      jumpi\n        /* \"#utility.yul\":2184:2263   */\n      tag_284\n      tag_221\n      jump\t// in\n    tag_284:\n        /* \"#utility.yul\":2146:2265   */\n    tag_283:\n        /* \"#utility.yul\":2304:2305   */\n      0x00\n        /* \"#utility.yul\":2329:2396   */\n      tag_285\n        /* \"#utility.yul\":2388:2395   */\n      dup5\n        /* \"#utility.yul\":2379:2385   */\n      dup3\n        /* \"#utility.yul\":2368:2377   */\n      dup6\n        /* \"#utility.yul\":2364:2386   */\n      add\n        /* \"#utility.yul\":2329:2396   */\n      tag_231\n      jump\t// in\n    tag_285:\n        /* \"#utility.yul\":2319:2396   */\n      swap2\n      pop\n        /* \"#utility.yul\":2275:2406   */\n      pop\n        /* \"#utility.yul\":2056:2413   */\n      swap3\n      swap2\n      pop\n      pop\n      jump\t// out\n        /* \"#utility.yul\":2419:2537   */\n    tag_232:\n        /* \"#utility.yul\":2506:2530   */\n      tag_287\n        /* \"#utility.yul\":2524:2529   */\n      dup2\n        /* \"#utility.yul\":2506:2530   */\n      tag_228\n      jump\t// in\n    tag_287:\n        /* \"#utility.yul\":2501:2504   */\n      dup3\n        /* \"#utility.yul\":2494:2531   */\n      mstore\n        /* \"#utility.yul\":2419:2537   */\n      pop\n      pop\n      jump\t// out\n        /* \"#utility.yul\":2543:2765   */\n    tag_60:\n        /* \"#utility.yul\":2636:2640   */\n      0x00\n        /* \"#utility.yul\":2674:2676   */\n      0x20\n        /* \"#utility.yul\":2663:2672   */\n      dup3\n        /* \"#utility.yul\":2659:2677   */\n      add\n        /* \"#utility.yul\":2651:2677   */\n      swap1\n      pop\n        /* \"#utility.yul\":2687:2758   */\n      tag_289\n        /* \"#utility.yul\":2755:2756   */\n      0x00\n        /* \"#utility.yul\":2744:2753   */\n      dup4\n        /* \"#utility.yul\":2740:2757   */\n      add\n        /* \"#utility.yul\":2731:2737   */\n      dup5\n        /* \"#utility.yul\":2687:2758   */\n      tag_232\n      jump\t// in\n    tag_289:\n        /* \"#utility.yul\":2543:2765   */\n      swap3\n      swap2\n      pop\n      pop\n      jump\t// out\n        /* \"#utility.yul\":2771:2831   */\n    tag_233:\n        /* \"#utility.yul\":2799:2802   */\n      0x00\n        /* \"#utility.yul\":2820:2825   */\n      dup2\n        /* \"#utility.yul\":2813:2825   */\n      swap1\n      pop\n        /* \"#utility.yul\":2771:2831   */\n      swap2\n      swap1\n      pop\n      jump\t// out\n        /* \"#utility.yul\":2837:2979   */\n    tag_234:\n        /* \"#utility.yul\":2887:2896   */\n      0x00\n        /* \"#utility.yul\":2920:2973   */\n      tag_292\n        /* \"#utility.yul\":2938:2972   */\n      tag_293\n        /* \"#utility.yul\":2947:2971   */\n      tag_294\n        /* \"#utility.yul\":2965:2970   */\n      dup5\n        /* \"#utility.yul\":2947:2971   */\n      tag_227\n      jump\t// in\n    tag_294:\n        /* \"#utility.yul\":2938:2972   */\n      tag_233\n      jump\t// in\n    tag_293:\n        /* \"#utility.yul\":2920:2973   */\n      tag_227\n      jump\t// in\n    tag_292:\n        /* \"#utility.yul\":2907:2973   */\n      swap1\n      pop\n        /* \"#utility.yul\":2837:2979   */\n      swap2\n      swap1\n      pop\n      jump\t// out\n        /* \"#utility.yul\":2985:3111   */\n    tag_235:\n        /* \"#utility.yul\":3035:3044   */\n      0x00\n        /* \"#utility.yul\":3068:3105   */\n      tag_296\n        /* \"#utility.yul\":3099:3104   */\n      dup3\n        /* \"#utility.yul\":3068:3105   */\n      tag_234\n      jump\t// in\n    tag_296:\n        /* \"#utility.yul\":3055:3105   */\n      swap1\n      pop\n        /* \"#utility.yul\":2985:3111   */\n      swap2\n      swap1\n      pop\n      jump\t// out\n        /* \"#utility.yul\":3117:3257   */\n    tag_236:\n        /* \"#utility.yul\":3181:3190   */\n      0x00\n        /* \"#utility.yul\":3214:3251   */\n      tag_298\n        /* \"#utility.yul\":3245:3250   */\n      dup3\n        /* \"#utility.yul\":3214:3251   */\n      tag_235\n      jump\t// in\n    tag_298:\n        /* \"#utility.yul\":3201:3251   */\n      swap1\n      pop\n        /* \"#utility.yul\":3117:3257   */\n      swap2\n      swap1\n      pop\n      jump\t// out\n        /* \"#utility.yul\":3263:3422   */\n    tag_237:\n        /* \"#utility.yul\":3364:3415   */\n      tag_300\n        /* \"#utility.yul\":3409:3414   */\n      dup2\n        /* \"#utility.yul\":3364:3415   */\n      tag_236\n      jump\t// in\n    tag_300:\n        /* \"#utility.yul\":3359:3362   */\n      dup3\n        /* \"#utility.yul\":3352:3416   */\n      mstore\n        /* \"#utility.yul\":3263:3422   */\n      pop\n      pop\n      jump\t// out\n        /* \"#utility.yul\":3428:3678   */\n    tag_69:\n        /* \"#utility.yul\":3535:3539   */\n      0x00\n        /* \"#utility.yul\":3573:3575   */\n      0x20\n        /* \"#utility.yul\":3562:3571   */\n      dup3\n        /* \"#utility.yul\":3558:3576   */\n      add\n        /* \"#utility.yul\":3550:3576   */\n      swap1\n      pop\n        /* \"#utility.yul\":3586:3671   */\n      tag_302\n        /* \"#utility.yul\":3668:3669   */\n      0x00\n        /* \"#utility.yul\":3657:3666   */\n      dup4\n        /* \"#utility.yul\":3653:3670   */\n      add\n        /* \"#utility.yul\":3644:3650   */\n      dup5\n        /* \"#utility.yul\":3586:3671   */\n      tag_237\n      jump\t// in\n    tag_302:\n        /* \"#utility.yul\":3428:3678   */\n      swap3\n      swap2\n      pop\n      pop\n      jump\t// out\n        /* \"#utility.yul\":3684:3806   */\n    tag_238:\n        /* \"#utility.yul\":3757:3781   */\n      tag_304\n        /* \"#utility.yul\":3775:3780   */\n      dup2\n        /* \"#utility.yul\":3757:3781   */\n      tag_228\n      jump\t// in\n    tag_304:\n        /* \"#utility.yul\":3750:3755   */\n      dup2\n        /* \"#utility.yul\":3747:3782   */\n      eq\n        /* \"#utility.yul\":3737:3800   */\n      tag_305\n      jumpi\n        /* \"#utility.yul\":3796:3797   */\n      0x00\n        /* \"#utility.yul\":3793:3794   */\n      dup1\n        /* \"#utility.yul\":3786:3798   */\n      revert\n        /* \"#utility.yul\":3737:3800   */\n    tag_305:\n        /* \"#utility.yul\":3684:3806   */\n      pop\n      jump\t// out\n        /* \"#utility.yul\":3812:3951   */\n    tag_239:\n        /* \"#utility.yul\":3858:3863   */\n      0x00\n        /* \"#utility.yul\":3896:3902   */\n      dup2\n        /* \"#utility.yul\":3883:3903   */\n      calldataload\n        /* \"#utility.yul\":3874:3903   */\n      swap1\n      pop\n        /* \"#utility.yul\":3912:3945   */\n      tag_307\n        /* \"#utility.yul\":3939:3944   */\n      dup2\n        /* \"#utility.yul\":3912:3945   */\n      tag_238\n      jump\t// in\n    tag_307:\n        /* \"#utility.yul\":3812:3951   */\n      swap3\n      swap2\n      pop\n      pop\n      jump\t// out\n        /* \"#utility.yul\":3957:4286   */\n    tag_82:\n        /* \"#utility.yul\":4016:4022   */\n      0x00\n        /* \"#utility.yul\":4065:4067   */\n      0x20\n        /* \"#utility.yul\":4053:4062   */\n      dup3\n        /* \"#utility.yul\":4044:4051   */\n      dup5\n        /* \"#utility.yul\":4040:4063   */\n      sub\n        /* \"#utility.yul\":4036:4068   */\n      slt\n        /* \"#utility.yul\":4033:4152   */\n      iszero\n      tag_309\n      jumpi\n        /* \"#utility.yul\":4071:4150   */\n      tag_310\n      tag_221\n      jump\t// in\n    tag_310:\n        /* \"#utility.yul\":4033:4152   */\n    tag_309:\n        /* \"#utility.yul\":4191:4192   */\n      0x00\n        /* \"#utility.yul\":4216:4269   */\n      tag_311\n        /* \"#utility.yul\":4261:4268   */\n      dup5\n        /* \"#utility.yul\":4252:4258   */\n      dup3\n        /* \"#utility.yul\":4241:4250   */\n      dup6\n        /* \"#utility.yul\":4237:4259   */\n      add\n        /* \"#utility.yul\":4216:4269   */\n      tag_239\n      jump\t// in\n    tag_311:\n        /* \"#utility.yul\":4206:4269   */\n      swap2\n      pop\n        /* \"#utility.yul\":4162:4279   */\n      pop\n        /* \"#utility.yul\":3957:4286   */\n      swap3\n      swap2\n      pop\n      pop\n      jump\t// out\n        /* \"#utility.yul\":4292:4472   */\n    tag_240:\n        /* \"#utility.yul\":4340:4417   */\n      0x4e487b7100000000000000000000000000000000000000000000000000000000\n        /* \"#utility.yul\":4337:4338   */\n      0x00\n        /* \"#utility.yul\":4330:4418   */\n      mstore\n        /* \"#utility.yul\":4437:4441   */\n      0x11\n        /* \"#utility.yul\":4434:4435   */\n      0x04\n        /* \"#utility.yul\":4427:4442   */\n      mstore\n        /* \"#utility.yul\":4461:4465   */\n      0x24\n        /* \"#utility.yul\":4458:4459   */\n      0x00\n        /* \"#utility.yul\":4451:4466   */\n      revert\n        /* \"#utility.yul\":4478:4888   */\n    tag_90:\n        /* \"#utility.yul\":4518:4525   */\n      0x00\n        /* \"#utility.yul\":4541:4561   */\n      tag_314\n        /* \"#utility.yul\":4559:4560   */\n      dup3\n        /* \"#utility.yul\":4541:4561   */\n      tag_223\n      jump\t// in\n    tag_314:\n        /* \"#utility.yul\":4536:4561   */\n      swap2\n      pop\n        /* \"#utility.yul\":4575:4595   */\n      tag_315\n        /* \"#utility.yul\":4593:4594   */\n      dup4\n        /* \"#utility.yul\":4575:4595   */\n      tag_223\n      jump\t// in\n    tag_315:\n        /* \"#utility.yul\":4570:4595   */\n      swap3\n      pop\n        /* \"#utility.yul\":4630:4631   */\n      dup3\n        /* \"#utility.yul\":4627:4628   */\n      dup3\n        /* \"#utility.yul\":4623:4632   */\n      mul\n        /* \"#utility.yul\":4652:4682   */\n      tag_316\n        /* \"#utility.yul\":4670:4681   */\n      dup2\n        /* \"#utility.yul\":4652:4682   */\n      tag_223\n      jump\t// in\n    tag_316:\n        /* \"#utility.yul\":4641:4682   */\n      swap2\n      pop\n        /* \"#utility.yul\":4831:4832   */\n      dup3\n        /* \"#utility.yul\":4822:4829   */\n      dup3\n        /* \"#utility.yul\":4818:4833   */\n      div\n        /* \"#utility.yul\":4815:4816   */\n      dup5\n        /* \"#utility.yul\":4812:4834   */\n      eq\n        /* \"#utility.yul\":4792:4793   */\n      dup4\n        /* \"#utility.yul\":4785:4794   */\n      iszero\n        /* \"#utility.yul\":4765:4848   */\n      or\n        /* \"#utility.yul\":4742:4881   */\n      tag_317\n      jumpi\n        /* \"#utility.yul\":4861:4879   */\n      tag_318\n      tag_240\n      jump\t// in\n    tag_318:\n        /* \"#utility.yul\":4742:4881   */\n    tag_317:\n        /* \"#utility.yul\":4526:4888   */\n      pop\n        /* \"#utility.yul\":4478:4888   */\n      swap3\n      swap2\n      pop\n      pop\n      jump\t// out\n        /* \"#utility.yul\":4894:5037   */\n    tag_241:\n        /* \"#utility.yul\":4951:4956   */\n      0x00\n        /* \"#utility.yul\":4982:4988   */\n      dup2\n        /* \"#utility.yul\":4976:4989   */\n      mload\n        /* \"#utility.yul\":4967:4989   */\n      swap1\n      pop\n        /* \"#utility.yul\":4998:5031   */\n      tag_320\n        /* \"#utility.yul\":5025:5030   */\n      dup2\n        /* \"#utility.yul\":4998:5031   */\n      tag_224\n      jump\t// in\n    tag_320:\n        /* \"#utility.yul\":4894:5037   */\n      swap3\n      swap2\n      pop\n      pop\n      jump\t// out\n        /* \"#utility.yul\":5043:5394   */\n    tag_108:\n        /* \"#utility.yul\":5113:5119   */\n      0x00\n        /* \"#utility.yul\":5162:5164   */\n      0x20\n        /* \"#utility.yul\":5150:5159   */\n      dup3\n        /* \"#utility.yul\":5141:5148   */\n      dup5\n        /* \"#utility.yul\":5137:5160   */\n      sub\n        /* \"#utility.yul\":5133:5165   */\n      slt\n        /* \"#utility.yul\":5130:5249   */\n      iszero\n      tag_322\n      jumpi\n        /* \"#utility.yul\":5168:5247   */\n      tag_323\n      tag_221\n      jump\t// in\n    tag_323:\n        /* \"#utility.yul\":5130:5249   */\n    tag_322:\n        /* \"#utility.yul\":5288:5289   */\n      0x00\n        /* \"#utility.yul\":5313:5377   */\n      tag_324\n        /* \"#utility.yul\":5369:5376   */\n      dup5\n        /* \"#utility.yul\":5360:5366   */\n      dup3\n        /* \"#utility.yul\":5349:5358   */\n      dup6\n        /* \"#utility.yul\":5345:5367   */\n      add\n        /* \"#utility.yul\":5313:5377   */\n      tag_241\n      jump\t// in\n    tag_324:\n        /* \"#utility.yul\":5303:5377   */\n      swap2\n      pop\n        /* \"#utility.yul\":5259:5387   */\n      pop\n        /* \"#utility.yul\":5043:5394   */\n      swap3\n      swap2\n      pop\n      pop\n      jump\t// out\n        /* \"#utility.yul\":5400:5732   */\n    tag_110:\n        /* \"#utility.yul\":5521:5525   */\n      0x00\n        /* \"#utility.yul\":5559:5561   */\n      0x40\n        /* \"#utility.yul\":5548:5557   */\n      dup3\n        /* \"#utility.yul\":5544:5562   */\n      add\n        /* \"#utility.yul\":5536:5562   */\n      swap1\n      pop\n        /* \"#utility.yul\":5572:5643   */\n      tag_326\n        /* \"#utility.yul\":5640:5641   */\n      0x00\n        /* \"#utility.yul\":5629:5638   */\n      dup4\n        /* \"#utility.yul\":5625:5642   */\n      add\n        /* \"#utility.yul\":5616:5622   */\n      dup6\n        /* \"#utility.yul\":5572:5643   */\n      tag_232\n      jump\t// in\n    tag_326:\n        /* \"#utility.yul\":5653:5725   */\n      tag_327\n        /* \"#utility.yul\":5721:5723   */\n      0x20\n        /* \"#utility.yul\":5710:5719   */\n      dup4\n        /* \"#utility.yul\":5706:5724   */\n      add\n        /* \"#utility.yul\":5697:5703   */\n      dup5\n        /* \"#utility.yul\":5653:5725   */\n      tag_226\n      jump\t// in\n    tag_327:\n        /* \"#utility.yul\":5400:5732   */\n      swap4\n      swap3\n      pop\n      pop\n      pop\n      jump\t// out\n        /* \"#utility.yul\":5738:5828   */\n    tag_242:\n        /* \"#utility.yul\":5772:5779   */\n      0x00\n        /* \"#utility.yul\":5815:5820   */\n      dup2\n        /* \"#utility.yul\":5808:5821   */\n      iszero\n        /* \"#utility.yul\":5801:5822   */\n      iszero\n        /* \"#utility.yul\":5790:5822   */\n      swap1\n      pop\n        /* \"#utility.yul\":5738:5828   */\n      swap2\n      swap1\n      pop\n      jump\t// out\n        /* \"#utility.yul\":5834:5950   */\n    tag_243:\n        /* \"#utility.yul\":5904:5925   */\n      tag_330\n        /* \"#utility.yul\":5919:5924   */\n      dup2\n        /* \"#utility.yul\":5904:5925   */\n      tag_242\n      jump\t// in\n    tag_330:\n        /* \"#utility.yul\":5897:5902   */\n      dup2\n        /* \"#utility.yul\":5894:5926   */\n      eq\n        /* \"#utility.yul\":5884:5944   */\n      tag_331\n      jumpi\n        /* \"#utility.yul\":5940:5941   */\n      0x00\n        /* \"#utility.yul\":5937:5938   */\n      dup1\n        /* \"#utility.yul\":5930:5942   */\n      revert\n        /* \"#utility.yul\":5884:5944   */\n    tag_331:\n        /* \"#utility.yul\":5834:5950   */\n      pop\n      jump\t// out\n        /* \"#utility.yul\":5956:6093   */\n    tag_244:\n        /* \"#utility.yul\":6010:6015   */\n      0x00\n        /* \"#utility.yul\":6041:6047   */\n      dup2\n        /* \"#utility.yul\":6035:6048   */\n      mload\n        /* \"#utility.yul\":6026:6048   */\n      swap1\n      pop\n        /* \"#utility.yul\":6057:6087   */\n      tag_333\n        /* \"#utility.yul\":6081:6086   */\n      dup2\n        /* \"#utility.yul\":6057:6087   */\n      tag_243\n      jump\t// in\n    tag_333:\n        /* \"#utility.yul\":5956:6093   */\n      swap3\n      swap2\n      pop\n      pop\n      jump\t// out\n        /* \"#utility.yul\":6099:6444   */\n    tag_114:\n        /* \"#utility.yul\":6166:6172   */\n      0x00\n        /* \"#utility.yul\":6215:6217   */\n      0x20\n        /* \"#utility.yul\":6203:6212   */\n      dup3\n        /* \"#utility.yul\":6194:6201   */\n      dup5\n        /* \"#utility.yul\":6190:6213   */\n      sub\n        /* \"#utility.yul\":6186:6218   */\n      slt\n        /* \"#utility.yul\":6183:6302   */\n      iszero\n      tag_335\n      jumpi\n        /* \"#utility.yul\":6221:6300   */\n      tag_336\n      tag_221\n      jump\t// in\n    tag_336:\n        /* \"#utility.yul\":6183:6302   */\n    tag_335:\n        /* \"#utility.yul\":6341:6342   */\n      0x00\n        /* \"#utility.yul\":6366:6427   */\n      tag_337\n        /* \"#utility.yul\":6419:6426   */\n      dup5\n        /* \"#utility.yul\":6410:6416   */\n      dup3\n        /* \"#utility.yul\":6399:6408   */\n      dup6\n        /* \"#utility.yul\":6395:6417   */\n      add\n        /* \"#utility.yul\":6366:6427   */\n      tag_244\n      jump\t// in\n    tag_337:\n        /* \"#utility.yul\":6356:6427   */\n      swap2\n      pop\n        /* \"#utility.yul\":6312:6437   */\n      pop\n        /* \"#utility.yul\":6099:6444   */\n      swap3\n      swap2\n      pop\n      pop\n      jump\t// out\n        /* \"#utility.yul\":6450:6619   */\n    tag_245:\n        /* \"#utility.yul\":6534:6545   */\n      0x00\n        /* \"#utility.yul\":6568:6574   */\n      dup3\n        /* \"#utility.yul\":6563:6566   */\n      dup3\n        /* \"#utility.yul\":6556:6575   */\n      mstore\n        /* \"#utility.yul\":6608:6612   */\n      0x20\n        /* \"#utility.yul\":6603:6606   */\n      dup3\n        /* \"#utility.yul\":6599:6613   */\n      add\n        /* \"#utility.yul\":6584:6613   */\n      swap1\n      pop\n        /* \"#utility.yul\":6450:6619   */\n      swap3\n      swap2\n      pop\n      pop\n      jump\t// out\n        /* \"#utility.yul\":6625:6789   */\n    tag_246:\n        /* \"#utility.yul\":6765:6781   */\n      0x416d6f756e74206973207a65726f000000000000000000000000000000000000\n        /* \"#utility.yul\":6761:6762   */\n      0x00\n        /* \"#utility.yul\":6753:6759   */\n      dup3\n        /* \"#utility.yul\":6749:6763   */\n      add\n        /* \"#utility.yul\":6742:6782   */\n      mstore\n        /* \"#utility.yul\":6625:6789   */\n      pop\n      jump\t// out\n        /* \"#utility.yul\":6795:7161   */\n    tag_247:\n        /* \"#utility.yul\":6937:6940   */\n      0x00\n        /* \"#utility.yul\":6958:7025   */\n      tag_341\n        /* \"#utility.yul\":7022:7024   */\n      0x0e\n        /* \"#utility.yul\":7017:7020   */\n      dup4\n        /* \"#utility.yul\":6958:7025   */\n      tag_245\n      jump\t// in\n    tag_341:\n        /* \"#utility.yul\":6951:7025   */\n      swap2\n      pop\n        /* \"#utility.yul\":7034:7127   */\n      tag_342\n        /* \"#utility.yul\":7123:7126   */\n      dup3\n        /* \"#utility.yul\":7034:7127   */\n      tag_246\n      jump\t// in\n    tag_342:\n        /* \"#utility.yul\":7152:7154   */\n      0x20\n        /* \"#utility.yul\":7147:7150   */\n      dup3\n        /* \"#utility.yul\":7143:7155   */\n      add\n        /* \"#utility.yul\":7136:7155   */\n      swap1\n      pop\n        /* \"#utility.yul\":6795:7161   */\n      swap2\n      swap1\n      pop\n      jump\t// out\n        /* \"#utility.yul\":7167:7586   */\n    tag_132:\n        /* \"#utility.yul\":7333:7337   */\n      0x00\n        /* \"#utility.yul\":7371:7373   */\n      0x20\n        /* \"#utility.yul\":7360:7369   */\n      dup3\n        /* \"#utility.yul\":7356:7374   */\n      add\n        /* \"#utility.yul\":7348:7374   */\n      swap1\n      pop\n        /* \"#utility.yul\":7420:7429   */\n      dup2\n        /* \"#utility.yul\":7414:7418   */\n      dup2\n        /* \"#utility.yul\":7410:7430   */\n      sub\n        /* \"#utility.yul\":7406:7407   */\n      0x00\n        /* \"#utility.yul\":7395:7404   */\n      dup4\n        /* \"#utility.yul\":7391:7408   */\n      add\n        /* \"#utility.yul\":7384:7431   */\n      mstore\n        /* \"#utility.yul\":7448:7579   */\n      tag_344\n        /* \"#utility.yul\":7574:7578   */\n      dup2\n        /* \"#utility.yul\":7448:7579   */\n      tag_247\n      jump\t// in\n    tag_344:\n        /* \"#utility.yul\":7440:7579   */\n      swap1\n      pop\n        /* \"#utility.yul\":7167:7586   */\n      swap2\n      swap1\n      pop\n      jump\t// out\n        /* \"#utility.yul\":7592:7770   */\n    tag_248:\n        /* \"#utility.yul\":7732:7762   */\n      0x496e73756666696369656e74206163636f756e742062616c616e636500000000\n        /* \"#utility.yul\":7728:7729   */\n      0x00\n        /* \"#utility.yul\":7720:7726   */\n      dup3\n        /* \"#utility.yul\":7716:7730   */\n      add\n        /* \"#utility.yul\":7709:7763   */\n      mstore\n        /* \"#utility.yul\":7592:7770   */\n      pop\n      jump\t// out\n        /* \"#utility.yul\":7776:8142   */\n    tag_249:\n        /* \"#utility.yul\":7918:7921   */\n      0x00\n        /* \"#utility.yul\":7939:8006   */\n      tag_347\n        /* \"#utility.yul\":8003:8005   */\n      0x1c\n        /* \"#utility.yul\":7998:8001   */\n      dup4\n        /* \"#utility.yul\":7939:8006   */\n      tag_245\n      jump\t// in\n    tag_347:\n        /* \"#utility.yul\":7932:8006   */\n      swap2\n      pop\n        /* \"#utility.yul\":8015:8108   */\n      tag_348\n        /* \"#utility.yul\":8104:8107   */\n      dup3\n        /* \"#utility.yul\":8015:8108   */\n      tag_248\n      jump\t// in\n    tag_348:\n        /* \"#utility.yul\":8133:8135   */\n      0x20\n        /* \"#utility.yul\":8128:8131   */\n      dup3\n        /* \"#utility.yul\":8124:8136   */\n      add\n        /* \"#utility.yul\":8117:8136   */\n      swap1\n      pop\n        /* \"#utility.yul\":7776:8142   */\n      swap2\n      swap1\n      pop\n      jump\t// out\n        /* \"#utility.yul\":8148:8567   */\n    tag_139:\n        /* \"#utility.yul\":8314:8318   */\n      0x00\n        /* \"#utility.yul\":8352:8354   */\n      0x20\n        /* \"#utility.yul\":8341:8350   */\n      dup3\n        /* \"#utility.yul\":8337:8355   */\n      add\n        /* \"#utility.yul\":8329:8355   */\n      swap1\n      pop\n        /* \"#utility.yul\":8401:8410   */\n      dup2\n        /* \"#utility.yul\":8395:8399   */\n      dup2\n        /* \"#utility.yul\":8391:8411   */\n      sub\n        /* \"#utility.yul\":8387:8388   */\n      0x00\n        /* \"#utility.yul\":8376:8385   */\n      dup4\n        /* \"#utility.yul\":8372:8389   */\n      add\n        /* \"#utility.yul\":8365:8412   */\n      mstore\n        /* \"#utility.yul\":8429:8560   */\n      tag_350\n        /* \"#utility.yul\":8555:8559   */\n      dup2\n        /* \"#utility.yul\":8429:8560   */\n      tag_249\n      jump\t// in\n    tag_350:\n        /* \"#utility.yul\":8421:8560   */\n      swap1\n      pop\n        /* \"#utility.yul\":8148:8567   */\n      swap2\n      swap1\n      pop\n      jump\t// out\n        /* \"#utility.yul\":8573:9015   */\n    tag_187:\n        /* \"#utility.yul\":8722:8726   */\n      0x00\n        /* \"#utility.yul\":8760:8762   */\n      0x60\n        /* \"#utility.yul\":8749:8758   */\n      dup3\n        /* \"#utility.yul\":8745:8763   */\n      add\n        /* \"#utility.yul\":8737:8763   */\n      swap1\n      pop\n        /* \"#utility.yul\":8773:8844   */\n      tag_352\n        /* \"#utility.yul\":8841:8842   */\n      0x00\n        /* \"#utility.yul\":8830:8839   */\n      dup4\n        /* \"#utility.yul\":8826:8843   */\n      add\n        /* \"#utility.yul\":8817:8823   */\n      dup7\n        /* \"#utility.yul\":8773:8844   */\n      tag_232\n      jump\t// in\n    tag_352:\n        /* \"#utility.yul\":8854:8926   */\n      tag_353\n        /* \"#utility.yul\":8922:8924   */\n      0x20\n        /* \"#utility.yul\":8911:8920   */\n      dup4\n        /* \"#utility.yul\":8907:8925   */\n      add\n        /* \"#utility.yul\":8898:8904   */\n      dup6\n        /* \"#utility.yul\":8854:8926   */\n      tag_232\n      jump\t// in\n    tag_353:\n        /* \"#utility.yul\":8936:9008   */\n      tag_354\n        /* \"#utility.yul\":9004:9006   */\n      0x40\n        /* \"#utility.yul\":8993:9002   */\n      dup4\n        /* \"#utility.yul\":8989:9007   */\n      add\n        /* \"#utility.yul\":8980:8986   */\n      dup5\n        /* \"#utility.yul\":8936:9008   */\n      tag_226\n      jump\t// in\n    tag_354:\n        /* \"#utility.yul\":8573:9015   */\n      swap5\n      swap4\n      pop\n      pop\n      pop\n      pop\n      jump\t// out\n        /* \"#utility.yul\":9021:9119   */\n    tag_250:\n        /* \"#utility.yul\":9072:9078   */\n      0x00\n        /* \"#utility.yul\":9106:9111   */\n      dup2\n        /* \"#utility.yul\":9100:9112   */\n      mload\n        /* \"#utility.yul\":9090:9112   */\n      swap1\n      pop\n        /* \"#utility.yul\":9021:9119   */\n      swap2\n      swap1\n      pop\n      jump\t// out\n        /* \"#utility.yul\":9125:9272   */\n    tag_251:\n        /* \"#utility.yul\":9226:9237   */\n      0x00\n        /* \"#utility.yul\":9263:9266   */\n      dup2\n        /* \"#utility.yul\":9248:9266   */\n      swap1\n      pop\n        /* \"#utility.yul\":9125:9272   */\n      swap3\n      swap2\n      pop\n      pop\n      jump\t// out\n        /* \"#utility.yul\":9278:9524   */\n    tag_252:\n        /* \"#utility.yul\":9359:9360   */\n      0x00\n        /* \"#utility.yul\":9369:9482   */\n    tag_358:\n        /* \"#utility.yul\":9383:9389   */\n      dup4\n        /* \"#utility.yul\":9380:9381   */\n      dup2\n        /* \"#utility.yul\":9377:9390   */\n      lt\n        /* \"#utility.yul\":9369:9482   */\n      iszero\n      tag_360\n      jumpi\n        /* \"#utility.yul\":9468:9469   */\n      dup1\n        /* \"#utility.yul\":9463:9466   */\n      dup3\n        /* \"#utility.yul\":9459:9470   */\n      add\n        /* \"#utility.yul\":9453:9471   */\n      mload\n        /* \"#utility.yul\":9449:9450   */\n      dup2\n        /* \"#utility.yul\":9444:9447   */\n      dup5\n        /* \"#utility.yul\":9440:9451   */\n      add\n        /* \"#utility.yul\":9433:9472   */\n      mstore\n        /* \"#utility.yul\":9405:9407   */\n      0x20\n        /* \"#utility.yul\":9402:9403   */\n      dup2\n        /* \"#utility.yul\":9398:9408   */\n      add\n        /* \"#utility.yul\":9393:9408   */\n      swap1\n      pop\n        /* \"#utility.yul\":9369:9482   */\n      jump(tag_358)\n    tag_360:\n        /* \"#utility.yul\":9516:9517   */\n      0x00\n        /* \"#utility.yul\":9507:9513   */\n      dup5\n        /* \"#utility.yul\":9502:9505   */\n      dup5\n        /* \"#utility.yul\":9498:9514   */\n      add\n        /* \"#utility.yul\":9491:9518   */\n      mstore\n        /* \"#utility.yul\":9340:9524   */\n      pop\n        /* \"#utility.yul\":9278:9524   */\n      pop\n      pop\n      pop\n      jump\t// out\n        /* \"#utility.yul\":9530:9916   */\n    tag_253:\n        /* \"#utility.yul\":9634:9637   */\n      0x00\n        /* \"#utility.yul\":9662:9700   */\n      tag_362\n        /* \"#utility.yul\":9694:9699   */\n      dup3\n        /* \"#utility.yul\":9662:9700   */\n      tag_250\n      jump\t// in\n    tag_362:\n        /* \"#utility.yul\":9716:9804   */\n      tag_363\n        /* \"#utility.yul\":9797:9803   */\n      dup2\n        /* \"#utility.yul\":9792:9795   */\n      dup6\n        /* \"#utility.yul\":9716:9804   */\n      tag_251\n      jump\t// in\n    tag_363:\n        /* \"#utility.yul\":9709:9804   */\n      swap4\n      pop\n        /* \"#utility.yul\":9813:9878   */\n      tag_364\n        /* \"#utility.yul\":9871:9877   */\n      dup2\n        /* \"#utility.yul\":9866:9869   */\n      dup6\n        /* \"#utility.yul\":9859:9863   */\n      0x20\n        /* \"#utility.yul\":9852:9857   */\n      dup7\n        /* \"#utility.yul\":9848:9864   */\n      add\n        /* \"#utility.yul\":9813:9878   */\n      tag_252\n      jump\t// in\n    tag_364:\n        /* \"#utility.yul\":9903:9909   */\n      dup1\n        /* \"#utility.yul\":9898:9901   */\n      dup5\n        /* \"#utility.yul\":9894:9910   */\n      add\n        /* \"#utility.yul\":9887:9910   */\n      swap2\n      pop\n        /* \"#utility.yul\":9638:9916   */\n      pop\n        /* \"#utility.yul\":9530:9916   */\n      swap3\n      swap2\n      pop\n      pop\n      jump\t// out\n        /* \"#utility.yul\":9922:10193   */\n    tag_203:\n        /* \"#utility.yul\":10052:10055   */\n      0x00\n        /* \"#utility.yul\":10074:10167   */\n      tag_366\n        /* \"#utility.yul\":10163:10166   */\n      dup3\n        /* \"#utility.yul\":10154:10160   */\n      dup5\n        /* \"#utility.yul\":10074:10167   */\n      tag_253\n      jump\t// in\n    tag_366:\n        /* \"#utility.yul\":10067:10167   */\n      swap2\n      pop\n        /* \"#utility.yul\":10184:10187   */\n      dup2\n        /* \"#utility.yul\":10177:10187   */\n      swap1\n      pop\n        /* \"#utility.yul\":9922:10193   */\n      swap3\n      swap2\n      pop\n      pop\n      jump\t// out\n\n    auxdata: 0xa2646970667358221220b62fc09e0297696640d7de3d93976291dfb4f8b15395de217f0477735523572864736f6c63430008140033\n}\n",
				"bytecode": {
					"linkReferences": {},
					"object": "608060405234801562000010575f80fd5b506040516200195f3803806200195f833981810160405281019062000036919062000337565b845f73ffffffffffffffffffffffffffffffffffffffff168173ffffffffffffffffffffffffffffffffffffffff1603620000aa575f6040517f1e4fbdf7000000000000000000000000000000000000000000000000000000008152600401620000a19190620003cc565b60405180910390fd5b620000bb816200015560201b60201c565b508160015f6101000a81548173ffffffffffffffffffffffffffffffffffffffff021916908373ffffffffffffffffffffffffffffffffffffffff16021790555083600281905550826003819055508060045f6101000a81548173ffffffffffffffffffffffffffffffffffffffff021916908373ffffffffffffffffffffffffffffffffffffffff1602179055505050505050620003e7565b5f805f9054906101000a900473ffffffffffffffffffffffffffffffffffffffff169050815f806101000a81548173ffffffffffffffffffffffffffffffffffffffff021916908373ffffffffffffffffffffffffffffffffffffffff1602179055508173ffffffffffffffffffffffffffffffffffffffff168173ffffffffffffffffffffffffffffffffffffffff167f8be0079c531659141344cd1fd0a4f28419497f9722a3daafe3b4186f6b6457e060405160405180910390a35050565b5f80fd5b5f73ffffffffffffffffffffffffffffffffffffffff82169050919050565b5f62000245826200021a565b9050919050565b620002578162000239565b811462000262575f80fd5b50565b5f8151905062000275816200024c565b92915050565b5f819050919050565b6200028f816200027b565b81146200029a575f80fd5b50565b5f81519050620002ad8162000284565b92915050565b5f620002bf826200021a565b9050919050565b620002d181620002b3565b8114620002dc575f80fd5b50565b5f81519050620002ef81620002c6565b92915050565b5f620003018262000239565b9050919050565b6200031381620002f5565b81146200031e575f80fd5b50565b5f81519050620003318162000308565b92915050565b5f805f805f60a0868803121562000353576200035262000216565b5b5f620003628882890162000265565b955050602062000375888289016200029d565b945050604062000388888289016200029d565b93505060606200039b88828901620002df565b9250506080620003ae8882890162000321565b9150509295509295909350565b620003c68162000239565b82525050565b5f602082019050620003e15f830184620003bb565b92915050565b61156a80620003f55f395ff3fe6080604052600436106100f2575f3560e01c80638909a40f11610089578063c5d1565111610058578063c5d156511461029e578063e1e85189146102c6578063f2fde38b14610302578063fc0c546a1461032a576100f2565b80638909a40f146102165780638da5cb5b146102205780639cb7b9fc1461024a578063a98ad46c14610274576100f2565b80634bfe2779116100c55780634bfe277914610186578063592a00e4146101ae57806366e226bd146101d8578063715018a614610200576100f2565b80631832d8b6146100f65780631b4622d6146101325780633ccfd60b1461015a5780633e3f235914610170575b5f80fd5b348015610101575f80fd5b5061011c6004803603810190610117919061108f565b610354565b60405161012991906110c9565b60405180910390f35b34801561013d575f80fd5b506101586004803603810190610153919061108f565b61036a565b005b348015610165575f80fd5b5061016e6103b3565b005b34801561017b575f80fd5b50610184610401565b005b348015610191575f80fd5b506101ac60048036038101906101a7919061108f565b610540565b005b3480156101b9575f80fd5b506101c2610589565b6040516101cf91906110c9565b60405180910390f35b3480156101e3575f80fd5b506101fe60048036038101906101f9919061114d565b61058f565b005b34801561020b575f80fd5b50610214610611565b005b61021e610624565b005b34801561022b575f80fd5b50610234610879565b6040516102419190611187565b60405180910390f35b348015610255575f80fd5b5061025e6108a0565b60405161026b91906110c9565b60405180910390f35b34801561027f575f80fd5b506102886108a6565b60405161029591906111fb565b60405180910390f35b3480156102a9575f80fd5b506102c460048036038101906102bf919061108f565b6108cb565b005b3480156102d1575f80fd5b506102ec60048036038101906102e7919061108f565b610b05565b6040516102f991906110c9565b60405180910390f35b34801561030d575f80fd5b506103286004803603810190610323919061123e565b610b1b565b005b348015610335575f80fd5b5061033e610b9f565b60405161034b91906111fb565b60405180910390f35b5f600354826103639190611296565b9050919050565b610372610bc4565b806003819055507fbdaa37e3f6679857d8c3e80d172bd45af732a8658cf1d690c81ca96f5a443b5b816040516103a891906110c9565b60405180910390a150565b6103bb610bc4565b3373ffffffffffffffffffffffffffffffffffffffff166108fc4790811502906040515f60405180830381858888f193505050501580156103fe573d5f803e3d5ffd5b50565b610409610bc4565b60055f9054906101000a900473ffffffffffffffffffffffffffffffffffffffff1673ffffffffffffffffffffffffffffffffffffffff1663a9059cbb3360055f9054906101000a900473ffffffffffffffffffffffffffffffffffffffff1673ffffffffffffffffffffffffffffffffffffffff166370a08231306040518263ffffffff1660e01b81526004016104a19190611187565b602060405180830381865afa1580156104bc573d5f803e3d5ffd5b505050506040513d601f19601f820116820180604052508101906104e091906112eb565b6040518363ffffffff1660e01b81526004016104fd929190611316565b6020604051808303815f875af1158015610519573d5f803e3d5ffd5b505050506040513d601f19601f8201168201806040525081019061053d9190611372565b50565b610548610bc4565b806002819055507fd6f234ccd3d6bc89db22f04e915efd024c0f4bddfaa8393e570fff7e3e3dec978160405161057e91906110c9565b60405180910390a150565b60035481565b610597610bc4565b8060055f6101000a81548173ffffffffffffffffffffffffffffffffffffffff021916908373ffffffffffffffffffffffffffffffffffffffff1602179055507f43036333e58a6f9255617b54ec9f5825590c8ee695a222dc35e5001927f071518160405161060691906111fb565b60405180910390a150565b610619610bc4565b6106225f610c4b565b565b5f3490505f61063282610b05565b90505f8111610676576040517f08c379a000000000000000000000000000000000000000000000000000000000815260040161066d906113f7565b60405180910390fd5b8060045f9054906101000a900473ffffffffffffffffffffffffffffffffffffffff1673ffffffffffffffffffffffffffffffffffffffff166370a08231306040518263ffffffff1660e01b81526004016106d19190611187565b602060405180830381865afa1580156106ec573d5f803e3d5ffd5b505050506040513d601f19601f8201168201806040525081019061071091906112eb565b1015610751576040517f08c379a00000000000000000000000000000000000000000000000000000000081526004016107489061145f565b60405180910390fd5b813373ffffffffffffffffffffffffffffffffffffffff163110156107ab576040517f08c379a00000000000000000000000000000000000000000000000000000000081526004016107a29061145f565b60405180910390fd5b60015f9054906101000a900473ffffffffffffffffffffffffffffffffffffffff1673ffffffffffffffffffffffffffffffffffffffff166108fc8390811502906040515f60405180830381858888f1935050505015801561080f573d5f803e3d5ffd5b5061083c60045f9054906101000a900473ffffffffffffffffffffffffffffffffffffffff163383610d0c565b7fbab06efe910ba7896db8b04299fef8209e3d94545ac7115a3d064449381337bc338260405161086d929190611316565b60405180910390a15050565b5f805f9054906101000a900473ffffffffffffffffffffffffffffffffffffffff16905090565b60025481565b60055f9054906101000a900473ffffffffffffffffffffffffffffffffffffffff1681565b5f6108d582610354565b9050813373ffffffffffffffffffffffffffffffffffffffff16311015610931576040517f08c379a00000000000000000000000000000000000000000000000000000000081526004016109289061145f565b60405180910390fd5b5f8111610973576040517f08c379a000000000000000000000000000000000000000000000000000000000815260040161096a906113f7565b60405180910390fd5b8060045f9054906101000a900473ffffffffffffffffffffffffffffffffffffffff1673ffffffffffffffffffffffffffffffffffffffff166370a08231306040518263ffffffff1660e01b81526004016109ce9190611187565b602060405180830381865afa1580156109e9573d5f803e3d5ffd5b505050506040513d601f19601f82011682018060405250810190610a0d91906112eb565b1015610a4e576040517f08c379a0000000000000000000000000000000000000000000000000000000008152600401610a459061145f565b60405180910390fd5b610a9c60055f9054906101000a900473ffffffffffffffffffffffffffffffffffffffff163360015f9054906101000a900473ffffffffffffffffffffffffffffffffffffffff1685610d8b565b610ac860045f9054906101000a900473ffffffffffffffffffffffffffffffffffffffff163383610d0c565b7f5c0161fad3fa89cfebd4a74115d9f81661cdd1b9008d05a238ea9d65088e20643382604051610af9929190611316565b60405180910390a15050565b5f60025482610b149190611296565b9050919050565b610b23610bc4565b5f73ffffffffffffffffffffffffffffffffffffffff168173ffffffffffffffffffffffffffffffffffffffff1603610b93575f6040517f1e4fbdf7000000000000000000000000000000000000000000000000000000008152600401610b8a9190611187565b60405180910390fd5b610b9c81610c4b565b50565b60045f9054906101000a900473ffffffffffffffffffffffffffffffffffffffff1681565b610bcc610e0d565b73ffffffffffffffffffffffffffffffffffffffff16610bea610879565b73ffffffffffffffffffffffffffffffffffffffff1614610c4957610c0d610e0d565b6040517f118cdaa7000000000000000000000000000000000000000000000000000000008152600401610c409190611187565b60405180910390fd5b565b5f805f9054906101000a900473ffffffffffffffffffffffffffffffffffffffff169050815f806101000a81548173ffffffffffffffffffffffffffffffffffffffff021916908373ffffffffffffffffffffffffffffffffffffffff1602179055508173ffffffffffffffffffffffffffffffffffffffff168173ffffffffffffffffffffffffffffffffffffffff167f8be0079c531659141344cd1fd0a4f28419497f9722a3daafe3b4186f6b6457e060405160405180910390a35050565b610d86838473ffffffffffffffffffffffffffffffffffffffff1663a9059cbb8585604051602401610d3f929190611316565b604051602081830303815290604052915060e01b6020820180517bffffffffffffffffffffffffffffffffffffffffffffffffffffffff8381831617835250505050610e14565b505050565b610e07848573ffffffffffffffffffffffffffffffffffffffff166323b872dd868686604051602401610dc09392919061147d565b604051602081830303815290604052915060e01b6020820180517bffffffffffffffffffffffffffffffffffffffffffffffffffffffff8381831617835250505050610e14565b50505050565b5f33905090565b5f610e3e828473ffffffffffffffffffffffffffffffffffffffff16610ea990919063ffffffff16565b90505f815114158015610e62575080806020019051810190610e609190611372565b155b15610ea457826040517f5274afe7000000000000000000000000000000000000000000000000000000008152600401610e9b9190611187565b60405180910390fd5b505050565b6060610eb683835f610ebe565b905092915050565b606081471015610f0557306040517fcd786059000000000000000000000000000000000000000000000000000000008152600401610efc9190611187565b60405180910390fd5b5f808573ffffffffffffffffffffffffffffffffffffffff168486604051610f2d919061151e565b5f6040518083038185875af1925050503d805f8114610f67576040519150601f19603f3d011682016040523d82523d5f602084013e610f6c565b606091505b5091509150610f7c868383610f87565b925050509392505050565b606082610f9c57610f9782611014565b61100c565b5f8251148015610fc257505f8473ffffffffffffffffffffffffffffffffffffffff163b145b1561100457836040517f9996b315000000000000000000000000000000000000000000000000000000008152600401610ffb9190611187565b60405180910390fd5b81905061100d565b5b9392505050565b5f815111156110265780518082602001fd5b6040517f1425ea4200000000000000000000000000000000000000000000000000000000815260040160405180910390fd5b5f80fd5b5f819050919050565b61106e8161105c565b8114611078575f80fd5b50565b5f8135905061108981611065565b92915050565b5f602082840312156110a4576110a3611058565b5b5f6110b18482850161107b565b91505092915050565b6110c38161105c565b82525050565b5f6020820190506110dc5f8301846110ba565b92915050565b5f73ffffffffffffffffffffffffffffffffffffffff82169050919050565b5f61110b826110e2565b9050919050565b5f61111c82611101565b9050919050565b61112c81611112565b8114611136575f80fd5b50565b5f8135905061114781611123565b92915050565b5f6020828403121561116257611161611058565b5b5f61116f84828501611139565b91505092915050565b61118181611101565b82525050565b5f60208201905061119a5f830184611178565b92915050565b5f819050919050565b5f6111c36111be6111b9846110e2565b6111a0565b6110e2565b9050919050565b5f6111d4826111a9565b9050919050565b5f6111e5826111ca565b9050919050565b6111f5816111db565b82525050565b5f60208201905061120e5f8301846111ec565b92915050565b61121d81611101565b8114611227575f80fd5b50565b5f8135905061123881611214565b92915050565b5f6020828403121561125357611252611058565b5b5f6112608482850161122a565b91505092915050565b7f4e487b71000000000000000000000000000000000000000000000000000000005f52601160045260245ffd5b5f6112a08261105c565b91506112ab8361105c565b92508282026112b98161105c565b915082820484148315176112d0576112cf611269565b5b5092915050565b5f815190506112e581611065565b92915050565b5f60208284031215611300576112ff611058565b5b5f61130d848285016112d7565b91505092915050565b5f6040820190506113295f830185611178565b61133660208301846110ba565b9392505050565b5f8115159050919050565b6113518161133d565b811461135b575f80fd5b50565b5f8151905061136c81611348565b92915050565b5f6020828403121561138757611386611058565b5b5f6113948482850161135e565b91505092915050565b5f82825260208201905092915050565b7f416d6f756e74206973207a65726f0000000000000000000000000000000000005f82015250565b5f6113e1600e8361139d565b91506113ec826113ad565b602082019050919050565b5f6020820190508181035f83015261140e816113d5565b9050919050565b7f496e73756666696369656e74206163636f756e742062616c616e6365000000005f82015250565b5f611449601c8361139d565b915061145482611415565b602082019050919050565b5f6020820190508181035f8301526114768161143d565b9050919050565b5f6060820190506114905f830186611178565b61149d6020830185611178565b6114aa60408301846110ba565b949350505050565b5f81519050919050565b5f81905092915050565b5f5b838110156114e35780820151818401526020810190506114c8565b5f8484015250505050565b5f6114f8826114b2565b61150281856114bc565b93506115128185602086016114c6565b80840191505092915050565b5f61152982846114ee565b91508190509291505056fea2646970667358221220b62fc09e0297696640d7de3d93976291dfb4f8b15395de217f0477735523572864736f6c63430008140033",
					"opcodes": "PUSH1 0x80 PUSH1 0x40 MSTORE CALLVALUE DUP1 ISZERO PUSH3 0x10 JUMPI PUSH0 DUP1 REVERT JUMPDEST POP PUSH1 0x40 MLOAD PUSH3 0x195F CODESIZE SUB DUP1 PUSH3 0x195F DUP4 CODECOPY DUP2 DUP2 ADD PUSH1 0x40 MSTORE DUP2 ADD SWAP1 PUSH3 0x36 SWAP2 SWAP1 PUSH3 0x337 JUMP JUMPDEST DUP5 PUSH0 PUSH20 0xFFFFFFFFFFFFFFFFFFFFFFFFFFFFFFFFFFFFFFFF AND DUP2 PUSH20 0xFFFFFFFFFFFFFFFFFFFFFFFFFFFFFFFFFFFFFFFF AND SUB PUSH3 0xAA JUMPI PUSH0 PUSH1 0x40 MLOAD PUSH32 0x1E4FBDF700000000000000000000000000000000000000000000000000000000 DUP2 MSTORE PUSH1 0x4 ADD PUSH3 0xA1 SWAP2 SWAP1 PUSH3 0x3CC JUMP JUMPDEST PUSH1 0x40 MLOAD DUP1 SWAP2 SUB SWAP1 REVERT JUMPDEST PUSH3 0xBB DUP2 PUSH3 0x155 PUSH1 0x20 SHL PUSH1 0x20 SHR JUMP JUMPDEST POP DUP2 PUSH1 0x1 PUSH0 PUSH2 0x100 EXP DUP2 SLOAD DUP2 PUSH20 0xFFFFFFFFFFFFFFFFFFFFFFFFFFFFFFFFFFFFFFFF MUL NOT AND SWAP1 DUP4 PUSH20 0xFFFFFFFFFFFFFFFFFFFFFFFFFFFFFFFFFFFFFFFF AND MUL OR SWAP1 SSTORE POP DUP4 PUSH1 0x2 DUP2 SWAP1 SSTORE POP DUP3 PUSH1 0x3 DUP2 SWAP1 SSTORE POP DUP1 PUSH1 0x4 PUSH0 PUSH2 0x100 EXP DUP2 SLOAD DUP2 PUSH20 0xFFFFFFFFFFFFFFFFFFFFFFFFFFFFFFFFFFFFFFFF MUL NOT AND SWAP1 DUP4 PUSH20 0xFFFFFFFFFFFFFFFFFFFFFFFFFFFFFFFFFFFFFFFF AND MUL OR SWAP1 SSTORE POP POP POP POP POP POP PUSH3 0x3E7 JUMP JUMPDEST PUSH0 DUP1 PUSH0 SWAP1 SLOAD SWAP1 PUSH2 0x100 EXP SWAP1 DIV PUSH20 0xFFFFFFFFFFFFFFFFFFFFFFFFFFFFFFFFFFFFFFFF AND SWAP1 POP DUP2 PUSH0 DUP1 PUSH2 0x100 EXP DUP2 SLOAD DUP2 PUSH20 0xFFFFFFFFFFFFFFFFFFFFFFFFFFFFFFFFFFFFFFFF MUL NOT AND SWAP1 DUP4 PUSH20 0xFFFFFFFFFFFFFFFFFFFFFFFFFFFFFFFFFFFFFFFF AND MUL OR SWAP1 SSTORE POP DUP2 PUSH20 0xFFFFFFFFFFFFFFFFFFFFFFFFFFFFFFFFFFFFFFFF AND DUP2 PUSH20 0xFFFFFFFFFFFFFFFFFFFFFFFFFFFFFFFFFFFFFFFF AND PUSH32 0x8BE0079C531659141344CD1FD0A4F28419497F9722A3DAAFE3B4186F6B6457E0 PUSH1 0x40 MLOAD PUSH1 0x40 MLOAD DUP1 SWAP2 SUB SWAP1 LOG3 POP POP JUMP JUMPDEST PUSH0 DUP1 REVERT JUMPDEST PUSH0 PUSH20 0xFFFFFFFFFFFFFFFFFFFFFFFFFFFFFFFFFFFFFFFF DUP3 AND SWAP1 POP SWAP2 SWAP1 POP JUMP JUMPDEST PUSH0 PUSH3 0x245 DUP3 PUSH3 0x21A JUMP JUMPDEST SWAP1 POP SWAP2 SWAP1 POP JUMP JUMPDEST PUSH3 0x257 DUP2 PUSH3 0x239 JUMP JUMPDEST DUP2 EQ PUSH3 0x262 JUMPI PUSH0 DUP1 REVERT JUMPDEST POP JUMP JUMPDEST PUSH0 DUP2 MLOAD SWAP1 POP PUSH3 0x275 DUP2 PUSH3 0x24C JUMP JUMPDEST SWAP3 SWAP2 POP POP JUMP JUMPDEST PUSH0 DUP2 SWAP1 POP SWAP2 SWAP1 POP JUMP JUMPDEST PUSH3 0x28F DUP2 PUSH3 0x27B JUMP JUMPDEST DUP2 EQ PUSH3 0x29A JUMPI PUSH0 DUP1 REVERT JUMPDEST POP JUMP JUMPDEST PUSH0 DUP2 MLOAD SWAP1 POP PUSH3 0x2AD DUP2 PUSH3 0x284 JUMP JUMPDEST SWAP3 SWAP2 POP POP JUMP JUMPDEST PUSH0 PUSH3 0x2BF DUP3 PUSH3 0x21A JUMP JUMPDEST SWAP1 POP SWAP2 SWAP1 POP JUMP JUMPDEST PUSH3 0x2D1 DUP2 PUSH3 0x2B3 JUMP JUMPDEST DUP2 EQ PUSH3 0x2DC JUMPI PUSH0 DUP1 REVERT JUMPDEST POP JUMP JUMPDEST PUSH0 DUP2 MLOAD SWAP1 POP PUSH3 0x2EF DUP2 PUSH3 0x2C6 JUMP JUMPDEST SWAP3 SWAP2 POP POP JUMP JUMPDEST PUSH0 PUSH3 0x301 DUP3 PUSH3 0x239 JUMP JUMPDEST SWAP1 POP SWAP2 SWAP1 POP JUMP JUMPDEST PUSH3 0x313 DUP2 PUSH3 0x2F5 JUMP JUMPDEST DUP2 EQ PUSH3 0x31E JUMPI PUSH0 DUP1 REVERT JUMPDEST POP JUMP JUMPDEST PUSH0 DUP2 MLOAD SWAP1 POP PUSH3 0x331 DUP2 PUSH3 0x308 JUMP JUMPDEST SWAP3 SWAP2 POP POP JUMP JUMPDEST PUSH0 DUP1 PUSH0 DUP1 PUSH0 PUSH1 0xA0 DUP7 DUP9 SUB SLT ISZERO PUSH3 0x353 JUMPI PUSH3 0x352 PUSH3 0x216 JUMP JUMPDEST JUMPDEST PUSH0 PUSH3 0x362 DUP9 DUP3 DUP10 ADD PUSH3 0x265 JUMP JUMPDEST SWAP6 POP POP PUSH1 0x20 PUSH3 0x375 DUP9 DUP3 DUP10 ADD PUSH3 0x29D JUMP JUMPDEST SWAP5 POP POP PUSH1 0x40 PUSH3 0x388 DUP9 DUP3 DUP10 ADD PUSH3 0x29D JUMP JUMPDEST SWAP4 POP POP PUSH1 0x60 PUSH3 0x39B DUP9 DUP3 DUP10 ADD PUSH3 0x2DF JUMP JUMPDEST SWAP3 POP POP PUSH1 0x80 PUSH3 0x3AE DUP9 DUP3 DUP10 ADD PUSH3 0x321 JUMP JUMPDEST SWAP2 POP POP SWAP3 SWAP6 POP SWAP3 SWAP6 SWAP1 SWAP4 POP JUMP JUMPDEST PUSH3 0x3C6 DUP2 PUSH3 0x239 JUMP JUMPDEST DUP3 MSTORE POP POP JUMP JUMPDEST PUSH0 PUSH1 0x20 DUP3 ADD SWAP1 POP PUSH3 0x3E1 PUSH0 DUP4 ADD DUP5 PUSH3 0x3BB JUMP JUMPDEST SWAP3 SWAP2 POP POP JUMP JUMPDEST PUSH2 0x156A DUP1 PUSH3 0x3F5 PUSH0 CODECOPY PUSH0 RETURN INVALID PUSH1 0x80 PUSH1 0x40 MSTORE PUSH1 0x4 CALLDATASIZE LT PUSH2 0xF2 JUMPI PUSH0 CALLDATALOAD PUSH1 0xE0 SHR DUP1 PUSH4 0x8909A40F GT PUSH2 0x89 JUMPI DUP1 PUSH4 0xC5D15651 GT PUSH2 0x58 JUMPI DUP1 PUSH4 0xC5D15651 EQ PUSH2 0x29E JUMPI DUP1 PUSH4 0xE1E85189 EQ PUSH2 0x2C6 JUMPI DUP1 PUSH4 0xF2FDE38B EQ PUSH2 0x302 JUMPI DUP1 PUSH4 0xFC0C546A EQ PUSH2 0x32A JUMPI PUSH2 0xF2 JUMP JUMPDEST DUP1 PUSH4 0x8909A40F EQ PUSH2 0x216 JUMPI DUP1 PUSH4 0x8DA5CB5B EQ PUSH2 0x220 JUMPI DUP1 PUSH4 0x9CB7B9FC EQ PUSH2 0x24A JUMPI DUP1 PUSH4 0xA98AD46C EQ PUSH2 0x274 JUMPI PUSH2 0xF2 JUMP JUMPDEST DUP1 PUSH4 0x4BFE2779 GT PUSH2 0xC5 JUMPI DUP1 PUSH4 0x4BFE2779 EQ PUSH2 0x186 JUMPI DUP1 PUSH4 0x592A00E4 EQ PUSH2 0x1AE JUMPI DUP1 PUSH4 0x66E226BD EQ PUSH2 0x1D8 JUMPI DUP1 PUSH4 0x715018A6 EQ PUSH2 0x200 JUMPI PUSH2 0xF2 JUMP JUMPDEST DUP1 PUSH4 0x1832D8B6 EQ PUSH2 0xF6 JUMPI DUP1 PUSH4 0x1B4622D6 EQ PUSH2 0x132 JUMPI DUP1 PUSH4 0x3CCFD60B EQ PUSH2 0x15A JUMPI DUP1 PUSH4 0x3E3F2359 EQ PUSH2 0x170 JUMPI JUMPDEST PUSH0 DUP1 REVERT JUMPDEST CALLVALUE DUP1 ISZERO PUSH2 0x101 JUMPI PUSH0 DUP1 REVERT JUMPDEST POP PUSH2 0x11C PUSH1 0x4 DUP1 CALLDATASIZE SUB DUP2 ADD SWAP1 PUSH2 0x117 SWAP2 SWAP1 PUSH2 0x108F JUMP JUMPDEST PUSH2 0x354 JUMP JUMPDEST PUSH1 0x40 MLOAD PUSH2 0x129 SWAP2 SWAP1 PUSH2 0x10C9 JUMP JUMPDEST PUSH1 0x40 MLOAD DUP1 SWAP2 SUB SWAP1 RETURN JUMPDEST CALLVALUE DUP1 ISZERO PUSH2 0x13D JUMPI PUSH0 DUP1 REVERT JUMPDEST POP PUSH2 0x158 PUSH1 0x4 DUP1 CALLDATASIZE SUB DUP2 ADD SWAP1 PUSH2 0x153 SWAP2 SWAP1 PUSH2 0x108F JUMP JUMPDEST PUSH2 0x36A JUMP JUMPDEST STOP JUMPDEST CALLVALUE DUP1 ISZERO PUSH2 0x165 JUMPI PUSH0 DUP1 REVERT JUMPDEST POP PUSH2 0x16E PUSH2 0x3B3 JUMP JUMPDEST STOP JUMPDEST CALLVALUE DUP1 ISZERO PUSH2 0x17B JUMPI PUSH0 DUP1 REVERT JUMPDEST POP PUSH2 0x184 PUSH2 0x401 JUMP JUMPDEST STOP JUMPDEST CALLVALUE DUP1 ISZERO PUSH2 0x191 JUMPI PUSH0 DUP1 REVERT JUMPDEST POP PUSH2 0x1AC PUSH1 0x4 DUP1 CALLDATASIZE SUB DUP2 ADD SWAP1 PUSH2 0x1A7 SWAP2 SWAP1 PUSH2 0x108F JUMP JUMPDEST PUSH2 0x540 JUMP JUMPDEST STOP JUMPDEST CALLVALUE DUP1 ISZERO PUSH2 0x1B9 JUMPI PUSH0 DUP1 REVERT JUMPDEST POP PUSH2 0x1C2 PUSH2 0x589 JUMP JUMPDEST PUSH1 0x40 MLOAD PUSH2 0x1CF SWAP2 SWAP1 PUSH2 0x10C9 JUMP JUMPDEST PUSH1 0x40 MLOAD DUP1 SWAP2 SUB SWAP1 RETURN JUMPDEST CALLVALUE DUP1 ISZERO PUSH2 0x1E3 JUMPI PUSH0 DUP1 REVERT JUMPDEST POP PUSH2 0x1FE PUSH1 0x4 DUP1 CALLDATASIZE SUB DUP2 ADD SWAP1 PUSH2 0x1F9 SWAP2 SWAP1 PUSH2 0x114D JUMP JUMPDEST PUSH2 0x58F JUMP JUMPDEST STOP JUMPDEST CALLVALUE DUP1 ISZERO PUSH2 0x20B JUMPI PUSH0 DUP1 REVERT JUMPDEST POP PUSH2 0x214 PUSH2 0x611 JUMP JUMPDEST STOP JUMPDEST PUSH2 0x21E PUSH2 0x624 JUMP JUMPDEST STOP JUMPDEST CALLVALUE DUP1 ISZERO PUSH2 0x22B JUMPI PUSH0 DUP1 REVERT JUMPDEST POP PUSH2 0x234 PUSH2 0x879 JUMP JUMPDEST PUSH1 0x40 MLOAD PUSH2 0x241 SWAP2 SWAP1 PUSH2 0x1187 JUMP JUMPDEST PUSH1 0x40 MLOAD DUP1 SWAP2 SUB SWAP1 RETURN JUMPDEST CALLVALUE DUP1 ISZERO PUSH2 0x255 JUMPI PUSH0 DUP1 REVERT JUMPDEST POP PUSH2 0x25E PUSH2 0x8A0 JUMP JUMPDEST PUSH1 0x40 MLOAD PUSH2 0x26B SWAP2 SWAP1 PUSH2 0x10C9 JUMP JUMPDEST PUSH1 0x40 MLOAD DUP1 SWAP2 SUB SWAP1 RETURN JUMPDEST CALLVALUE DUP1 ISZERO PUSH2 0x27F JUMPI PUSH0 DUP1 REVERT JUMPDEST POP PUSH2 0x288 PUSH2 0x8A6 JUMP JUMPDEST PUSH1 0x40 MLOAD PUSH2 0x295 SWAP2 SWAP1 PUSH2 0x11FB JUMP JUMPDEST PUSH1 0x40 MLOAD DUP1 SWAP2 SUB SWAP1 RETURN JUMPDEST CALLVALUE DUP1 ISZERO PUSH2 0x2A9 JUMPI PUSH0 DUP1 REVERT JUMPDEST POP PUSH2 0x2C4 PUSH1 0x4 DUP1 CALLDATASIZE SUB DUP2 ADD SWAP1 PUSH2 0x2BF SWAP2 SWAP1 PUSH2 0x108F JUMP JUMPDEST PUSH2 0x8CB JUMP JUMPDEST STOP JUMPDEST CALLVALUE DUP1 ISZERO PUSH2 0x2D1 JUMPI PUSH0 DUP1 REVERT JUMPDEST POP PUSH2 0x2EC PUSH1 0x4 DUP1 CALLDATASIZE SUB DUP2 ADD SWAP1 PUSH2 0x2E7 SWAP2 SWAP1 PUSH2 0x108F JUMP JUMPDEST PUSH2 0xB05 JUMP JUMPDEST PUSH1 0x40 MLOAD PUSH2 0x2F9 SWAP2 SWAP1 PUSH2 0x10C9 JUMP JUMPDEST PUSH1 0x40 MLOAD DUP1 SWAP2 SUB SWAP1 RETURN JUMPDEST CALLVALUE DUP1 ISZERO PUSH2 0x30D JUMPI PUSH0 DUP1 REVERT JUMPDEST POP PUSH2 0x328 PUSH1 0x4 DUP1 CALLDATASIZE SUB DUP2 ADD SWAP1 PUSH2 0x323 SWAP2 SWAP1 PUSH2 0x123E JUMP JUMPDEST PUSH2 0xB1B JUMP JUMPDEST STOP JUMPDEST CALLVALUE DUP1 ISZERO PUSH2 0x335 JUMPI PUSH0 DUP1 REVERT JUMPDEST POP PUSH2 0x33E PUSH2 0xB9F JUMP JUMPDEST PUSH1 0x40 MLOAD PUSH2 0x34B SWAP2 SWAP1 PUSH2 0x11FB JUMP JUMPDEST PUSH1 0x40 MLOAD DUP1 SWAP2 SUB SWAP1 RETURN JUMPDEST PUSH0 PUSH1 0x3 SLOAD DUP3 PUSH2 0x363 SWAP2 SWAP1 PUSH2 0x1296 JUMP JUMPDEST SWAP1 POP SWAP2 SWAP1 POP JUMP JUMPDEST PUSH2 0x372 PUSH2 0xBC4 JUMP JUMPDEST DUP1 PUSH1 0x3 DUP2 SWAP1 SSTORE POP PUSH32 0xBDAA37E3F6679857D8C3E80D172BD45AF732A8658CF1D690C81CA96F5A443B5B DUP2 PUSH1 0x40 MLOAD PUSH2 0x3A8 SWAP2 SWAP1 PUSH2 0x10C9 JUMP JUMPDEST PUSH1 0x40 MLOAD DUP1 SWAP2 SUB SWAP1 LOG1 POP JUMP JUMPDEST PUSH2 0x3BB PUSH2 0xBC4 JUMP JUMPDEST CALLER PUSH20 0xFFFFFFFFFFFFFFFFFFFFFFFFFFFFFFFFFFFFFFFF AND PUSH2 0x8FC SELFBALANCE SWAP1 DUP2 ISZERO MUL SWAP1 PUSH1 0x40 MLOAD PUSH0 PUSH1 0x40 MLOAD DUP1 DUP4 SUB DUP2 DUP6 DUP9 DUP9 CALL SWAP4 POP POP POP POP ISZERO DUP1 ISZERO PUSH2 0x3FE JUMPI RETURNDATASIZE PUSH0 DUP1 RETURNDATACOPY RETURNDATASIZE PUSH0 REVERT JUMPDEST POP JUMP JUMPDEST PUSH2 0x409 PUSH2 0xBC4 JUMP JUMPDEST PUSH1 0x5 PUSH0 SWAP1 SLOAD SWAP1 PUSH2 0x100 EXP SWAP1 DIV PUSH20 0xFFFFFFFFFFFFFFFFFFFFFFFFFFFFFFFFFFFFFFFF AND PUSH20 0xFFFFFFFFFFFFFFFFFFFFFFFFFFFFFFFFFFFFFFFF AND PUSH4 0xA9059CBB CALLER PUSH1 0x5 PUSH0 SWAP1 SLOAD SWAP1 PUSH2 0x100 EXP SWAP1 DIV PUSH20 0xFFFFFFFFFFFFFFFFFFFFFFFFFFFFFFFFFFFFFFFF AND PUSH20 0xFFFFFFFFFFFFFFFFFFFFFFFFFFFFFFFFFFFFFFFF AND PUSH4 0x70A08231 ADDRESS PUSH1 0x40 MLOAD DUP3 PUSH4 0xFFFFFFFF AND PUSH1 0xE0 SHL DUP2 MSTORE PUSH1 0x4 ADD PUSH2 0x4A1 SWAP2 SWAP1 PUSH2 0x1187 JUMP JUMPDEST PUSH1 0x20 PUSH1 0x40 MLOAD DUP1 DUP4 SUB DUP2 DUP7 GAS STATICCALL ISZERO DUP1 ISZERO PUSH2 0x4BC JUMPI RETURNDATASIZE PUSH0 DUP1 RETURNDATACOPY RETURNDATASIZE PUSH0 REVERT JUMPDEST POP POP POP POP PUSH1 0x40 MLOAD RETURNDATASIZE PUSH1 0x1F NOT PUSH1 0x1F DUP3 ADD AND DUP3 ADD DUP1 PUSH1 0x40 MSTORE POP DUP2 ADD SWAP1 PUSH2 0x4E0 SWAP2 SWAP1 PUSH2 0x12EB JUMP JUMPDEST PUSH1 0x40 MLOAD DUP4 PUSH4 0xFFFFFFFF AND PUSH1 0xE0 SHL DUP2 MSTORE PUSH1 0x4 ADD PUSH2 0x4FD SWAP3 SWAP2 SWAP1 PUSH2 0x1316 JUMP JUMPDEST PUSH1 0x20 PUSH1 0x40 MLOAD DUP1 DUP4 SUB DUP2 PUSH0 DUP8 GAS CALL ISZERO DUP1 ISZERO PUSH2 0x519 JUMPI RETURNDATASIZE PUSH0 DUP1 RETURNDATACOPY RETURNDATASIZE PUSH0 REVERT JUMPDEST POP POP POP POP PUSH1 0x40 MLOAD RETURNDATASIZE PUSH1 0x1F NOT PUSH1 0x1F DUP3 ADD AND DUP3 ADD DUP1 PUSH1 0x40 MSTORE POP DUP2 ADD SWAP1 PUSH2 0x53D SWAP2 SWAP1 PUSH2 0x1372 JUMP JUMPDEST POP JUMP JUMPDEST PUSH2 0x548 PUSH2 0xBC4 JUMP JUMPDEST DUP1 PUSH1 0x2 DUP2 SWAP1 SSTORE POP PUSH32 0xD6F234CCD3D6BC89DB22F04E915EFD024C0F4BDDFAA8393E570FFF7E3E3DEC97 DUP2 PUSH1 0x40 MLOAD PUSH2 0x57E SWAP2 SWAP1 PUSH2 0x10C9 JUMP JUMPDEST PUSH1 0x40 MLOAD DUP1 SWAP2 SUB SWAP1 LOG1 POP JUMP JUMPDEST PUSH1 0x3 SLOAD DUP2 JUMP JUMPDEST PUSH2 0x597 PUSH2 0xBC4 JUMP JUMPDEST DUP1 PUSH1 0x5 PUSH0 PUSH2 0x100 EXP DUP2 SLOAD DUP2 PUSH20 0xFFFFFFFFFFFFFFFFFFFFFFFFFFFFFFFFFFFFFFFF MUL NOT AND SWAP1 DUP4 PUSH20 0xFFFFFFFFFFFFFFFFFFFFFFFFFFFFFFFFFFFFFFFF AND MUL OR SWAP1 SSTORE POP PUSH32 0x43036333E58A6F9255617B54EC9F5825590C8EE695A222DC35E5001927F07151 DUP2 PUSH1 0x40 MLOAD PUSH2 0x606 SWAP2 SWAP1 PUSH2 0x11FB JUMP JUMPDEST PUSH1 0x40 MLOAD DUP1 SWAP2 SUB SWAP1 LOG1 POP JUMP JUMPDEST PUSH2 0x619 PUSH2 0xBC4 JUMP JUMPDEST PUSH2 0x622 PUSH0 PUSH2 0xC4B JUMP JUMPDEST JUMP JUMPDEST PUSH0 CALLVALUE SWAP1 POP PUSH0 PUSH2 0x632 DUP3 PUSH2 0xB05 JUMP JUMPDEST SWAP1 POP PUSH0 DUP2 GT PUSH2 0x676 JUMPI PUSH1 0x40 MLOAD PUSH32 0x8C379A000000000000000000000000000000000000000000000000000000000 DUP2 MSTORE PUSH1 0x4 ADD PUSH2 0x66D SWAP1 PUSH2 0x13F7 JUMP JUMPDEST PUSH1 0x40 MLOAD DUP1 SWAP2 SUB SWAP1 REVERT JUMPDEST DUP1 PUSH1 0x4 PUSH0 SWAP1 SLOAD SWAP1 PUSH2 0x100 EXP SWAP1 DIV PUSH20 0xFFFFFFFFFFFFFFFFFFFFFFFFFFFFFFFFFFFFFFFF AND PUSH20 0xFFFFFFFFFFFFFFFFFFFFFFFFFFFFFFFFFFFFFFFF AND PUSH4 0x70A08231 ADDRESS PUSH1 0x40 MLOAD DUP3 PUSH4 0xFFFFFFFF AND PUSH1 0xE0 SHL DUP2 MSTORE PUSH1 0x4 ADD PUSH2 0x6D1 SWAP2 SWAP1 PUSH2 0x1187 JUMP JUMPDEST PUSH1 0x20 PUSH1 0x40 MLOAD DUP1 DUP4 SUB DUP2 DUP7 GAS STATICCALL ISZERO DUP1 ISZERO PUSH2 0x6EC JUMPI RETURNDATASIZE PUSH0 DUP1 RETURNDATACOPY RETURNDATASIZE PUSH0 REVERT JUMPDEST POP POP POP POP PUSH1 0x40 MLOAD RETURNDATASIZE PUSH1 0x1F NOT PUSH1 0x1F DUP3 ADD AND DUP3 ADD DUP1 PUSH1 0x40 MSTORE POP DUP2 ADD SWAP1 PUSH2 0x710 SWAP2 SWAP1 PUSH2 0x12EB JUMP JUMPDEST LT ISZERO PUSH2 0x751 JUMPI PUSH1 0x40 MLOAD PUSH32 0x8C379A000000000000000000000000000000000000000000000000000000000 DUP2 MSTORE PUSH1 0x4 ADD PUSH2 0x748 SWAP1 PUSH2 0x145F JUMP JUMPDEST PUSH1 0x40 MLOAD DUP1 SWAP2 SUB SWAP1 REVERT JUMPDEST DUP2 CALLER PUSH20 0xFFFFFFFFFFFFFFFFFFFFFFFFFFFFFFFFFFFFFFFF AND BALANCE LT ISZERO PUSH2 0x7AB JUMPI PUSH1 0x40 MLOAD PUSH32 0x8C379A000000000000000000000000000000000000000000000000000000000 DUP2 MSTORE PUSH1 0x4 ADD PUSH2 0x7A2 SWAP1 PUSH2 0x145F JUMP JUMPDEST PUSH1 0x40 MLOAD DUP1 SWAP2 SUB SWAP1 REVERT JUMPDEST PUSH1 0x1 PUSH0 SWAP1 SLOAD SWAP1 PUSH2 0x100 EXP SWAP1 DIV PUSH20 0xFFFFFFFFFFFFFFFFFFFFFFFFFFFFFFFFFFFFFFFF AND PUSH20 0xFFFFFFFFFFFFFFFFFFFFFFFFFFFFFFFFFFFFFFFF AND PUSH2 0x8FC DUP4 SWAP1 DUP2 ISZERO MUL SWAP1 PUSH1 0x40 MLOAD PUSH0 PUSH1 0x40 MLOAD DUP1 DUP4 SUB DUP2 DUP6 DUP9 DUP9 CALL SWAP4 POP POP POP POP ISZERO DUP1 ISZERO PUSH2 0x80F JUMPI RETURNDATASIZE PUSH0 DUP1 RETURNDATACOPY RETURNDATASIZE PUSH0 REVERT JUMPDEST POP PUSH2 0x83C PUSH1 0x4 PUSH0 SWAP1 SLOAD SWAP1 PUSH2 0x100 EXP SWAP1 DIV PUSH20 0xFFFFFFFFFFFFFFFFFFFFFFFFFFFFFFFFFFFFFFFF AND CALLER DUP4 PUSH2 0xD0C JUMP JUMPDEST PUSH32 0xBAB06EFE910BA7896DB8B04299FEF8209E3D94545AC7115A3D064449381337BC CALLER DUP3 PUSH1 0x40 MLOAD PUSH2 0x86D SWAP3 SWAP2 SWAP1 PUSH2 0x1316 JUMP JUMPDEST PUSH1 0x40 MLOAD DUP1 SWAP2 SUB SWAP1 LOG1 POP POP JUMP JUMPDEST PUSH0 DUP1 PUSH0 SWAP1 SLOAD SWAP1 PUSH2 0x100 EXP SWAP1 DIV PUSH20 0xFFFFFFFFFFFFFFFFFFFFFFFFFFFFFFFFFFFFFFFF AND SWAP1 POP SWAP1 JUMP JUMPDEST PUSH1 0x2 SLOAD DUP2 JUMP JUMPDEST PUSH1 0x5 PUSH0 SWAP1 SLOAD SWAP1 PUSH2 0x100 EXP SWAP1 DIV PUSH20 0xFFFFFFFFFFFFFFFFFFFFFFFFFFFFFFFFFFFFFFFF AND DUP2 JUMP JUMPDEST PUSH0 PUSH2 0x8D5 DUP3 PUSH2 0x354 JUMP JUMPDEST SWAP1 POP DUP2 CALLER PUSH20 0xFFFFFFFFFFFFFFFFFFFFFFFFFFFFFFFFFFFFFFFF AND BALANCE LT ISZERO PUSH2 0x931 JUMPI PUSH1 0x40 MLOAD PUSH32 0x8C379A000000000000000000000000000000000000000000000000000000000 DUP2 MSTORE PUSH1 0x4 ADD PUSH2 0x928 SWAP1 PUSH2 0x145F JUMP JUMPDEST PUSH1 0x40 MLOAD DUP1 SWAP2 SUB SWAP1 REVERT JUMPDEST PUSH0 DUP2 GT PUSH2 0x973 JUMPI PUSH1 0x40 MLOAD PUSH32 0x8C379A000000000000000000000000000000000000000000000000000000000 DUP2 MSTORE PUSH1 0x4 ADD PUSH2 0x96A SWAP1 PUSH2 0x13F7 JUMP JUMPDEST PUSH1 0x40 MLOAD DUP1 SWAP2 SUB SWAP1 REVERT JUMPDEST DUP1 PUSH1 0x4 PUSH0 SWAP1 SLOAD SWAP1 PUSH2 0x100 EXP SWAP1 DIV PUSH20 0xFFFFFFFFFFFFFFFFFFFFFFFFFFFFFFFFFFFFFFFF AND PUSH20 0xFFFFFFFFFFFFFFFFFFFFFFFFFFFFFFFFFFFFFFFF AND PUSH4 0x70A08231 ADDRESS PUSH1 0x40 MLOAD DUP3 PUSH4 0xFFFFFFFF AND PUSH1 0xE0 SHL DUP2 MSTORE PUSH1 0x4 ADD PUSH2 0x9CE SWAP2 SWAP1 PUSH2 0x1187 JUMP JUMPDEST PUSH1 0x20 PUSH1 0x40 MLOAD DUP1 DUP4 SUB DUP2 DUP7 GAS STATICCALL ISZERO DUP1 ISZERO PUSH2 0x9E9 JUMPI RETURNDATASIZE PUSH0 DUP1 RETURNDATACOPY RETURNDATASIZE PUSH0 REVERT JUMPDEST POP POP POP POP PUSH1 0x40 MLOAD RETURNDATASIZE PUSH1 0x1F NOT PUSH1 0x1F DUP3 ADD AND DUP3 ADD DUP1 PUSH1 0x40 MSTORE POP DUP2 ADD SWAP1 PUSH2 0xA0D SWAP2 SWAP1 PUSH2 0x12EB JUMP JUMPDEST LT ISZERO PUSH2 0xA4E JUMPI PUSH1 0x40 MLOAD PUSH32 0x8C379A000000000000000000000000000000000000000000000000000000000 DUP2 MSTORE PUSH1 0x4 ADD PUSH2 0xA45 SWAP1 PUSH2 0x145F JUMP JUMPDEST PUSH1 0x40 MLOAD DUP1 SWAP2 SUB SWAP1 REVERT JUMPDEST PUSH2 0xA9C PUSH1 0x5 PUSH0 SWAP1 SLOAD SWAP1 PUSH2 0x100 EXP SWAP1 DIV PUSH20 0xFFFFFFFFFFFFFFFFFFFFFFFFFFFFFFFFFFFFFFFF AND CALLER PUSH1 0x1 PUSH0 SWAP1 SLOAD SWAP1 PUSH2 0x100 EXP SWAP1 DIV PUSH20 0xFFFFFFFFFFFFFFFFFFFFFFFFFFFFFFFFFFFFFFFF AND DUP6 PUSH2 0xD8B JUMP JUMPDEST PUSH2 0xAC8 PUSH1 0x4 PUSH0 SWAP1 SLOAD SWAP1 PUSH2 0x100 EXP SWAP1 DIV PUSH20 0xFFFFFFFFFFFFFFFFFFFFFFFFFFFFFFFFFFFFFFFF AND CALLER DUP4 PUSH2 0xD0C JUMP JUMPDEST PUSH32 0x5C0161FAD3FA89CFEBD4A74115D9F81661CDD1B9008D05A238EA9D65088E2064 CALLER DUP3 PUSH1 0x40 MLOAD PUSH2 0xAF9 SWAP3 SWAP2 SWAP1 PUSH2 0x1316 JUMP JUMPDEST PUSH1 0x40 MLOAD DUP1 SWAP2 SUB SWAP1 LOG1 POP POP JUMP JUMPDEST PUSH0 PUSH1 0x2 SLOAD DUP3 PUSH2 0xB14 SWAP2 SWAP1 PUSH2 0x1296 JUMP JUMPDEST SWAP1 POP SWAP2 SWAP1 POP JUMP JUMPDEST PUSH2 0xB23 PUSH2 0xBC4 JUMP JUMPDEST PUSH0 PUSH20 0xFFFFFFFFFFFFFFFFFFFFFFFFFFFFFFFFFFFFFFFF AND DUP2 PUSH20 0xFFFFFFFFFFFFFFFFFFFFFFFFFFFFFFFFFFFFFFFF AND SUB PUSH2 0xB93 JUMPI PUSH0 PUSH1 0x40 MLOAD PUSH32 0x1E4FBDF700000000000000000000000000000000000000000000000000000000 DUP2 MSTORE PUSH1 0x4 ADD PUSH2 0xB8A SWAP2 SWAP1 PUSH2 0x1187 JUMP JUMPDEST PUSH1 0x40 MLOAD DUP1 SWAP2 SUB SWAP1 REVERT JUMPDEST PUSH2 0xB9C DUP2 PUSH2 0xC4B JUMP JUMPDEST POP JUMP JUMPDEST PUSH1 0x4 PUSH0 SWAP1 SLOAD SWAP1 PUSH2 0x100 EXP SWAP1 DIV PUSH20 0xFFFFFFFFFFFFFFFFFFFFFFFFFFFFFFFFFFFFFFFF AND DUP2 JUMP JUMPDEST PUSH2 0xBCC PUSH2 0xE0D JUMP JUMPDEST PUSH20 0xFFFFFFFFFFFFFFFFFFFFFFFFFFFFFFFFFFFFFFFF AND PUSH2 0xBEA PUSH2 0x879 JUMP JUMPDEST PUSH20 0xFFFFFFFFFFFFFFFFFFFFFFFFFFFFFFFFFFFFFFFF AND EQ PUSH2 0xC49 JUMPI PUSH2 0xC0D PUSH2 0xE0D JUMP JUMPDEST PUSH1 0x40 MLOAD PUSH32 0x118CDAA700000000000000000000000000000000000000000000000000000000 DUP2 MSTORE PUSH1 0x4 ADD PUSH2 0xC40 SWAP2 SWAP1 PUSH2 0x1187 JUMP JUMPDEST PUSH1 0x40 MLOAD DUP1 SWAP2 SUB SWAP1 REVERT JUMPDEST JUMP JUMPDEST PUSH0 DUP1 PUSH0 SWAP1 SLOAD SWAP1 PUSH2 0x100 EXP SWAP1 DIV PUSH20 0xFFFFFFFFFFFFFFFFFFFFFFFFFFFFFFFFFFFFFFFF AND SWAP1 POP DUP2 PUSH0 DUP1 PUSH2 0x100 EXP DUP2 SLOAD DUP2 PUSH20 0xFFFFFFFFFFFFFFFFFFFFFFFFFFFFFFFFFFFFFFFF MUL NOT AND SWAP1 DUP4 PUSH20 0xFFFFFFFFFFFFFFFFFFFFFFFFFFFFFFFFFFFFFFFF AND MUL OR SWAP1 SSTORE POP DUP2 PUSH20 0xFFFFFFFFFFFFFFFFFFFFFFFFFFFFFFFFFFFFFFFF AND DUP2 PUSH20 0xFFFFFFFFFFFFFFFFFFFFFFFFFFFFFFFFFFFFFFFF AND PUSH32 0x8BE0079C531659141344CD1FD0A4F28419497F9722A3DAAFE3B4186F6B6457E0 PUSH1 0x40 MLOAD PUSH1 0x40 MLOAD DUP1 SWAP2 SUB SWAP1 LOG3 POP POP JUMP JUMPDEST PUSH2 0xD86 DUP4 DUP5 PUSH20 0xFFFFFFFFFFFFFFFFFFFFFFFFFFFFFFFFFFFFFFFF AND PUSH4 0xA9059CBB DUP6 DUP6 PUSH1 0x40 MLOAD PUSH1 0x24 ADD PUSH2 0xD3F SWAP3 SWAP2 SWAP1 PUSH2 0x1316 JUMP JUMPDEST PUSH1 0x40 MLOAD PUSH1 0x20 DUP2 DUP4 SUB SUB DUP2 MSTORE SWAP1 PUSH1 0x40 MSTORE SWAP2 POP PUSH1 0xE0 SHL PUSH1 0x20 DUP3 ADD DUP1 MLOAD PUSH28 0xFFFFFFFFFFFFFFFFFFFFFFFFFFFFFFFFFFFFFFFFFFFFFFFFFFFFFFFF DUP4 DUP2 DUP4 AND OR DUP4 MSTORE POP POP POP POP PUSH2 0xE14 JUMP JUMPDEST POP POP POP JUMP JUMPDEST PUSH2 0xE07 DUP5 DUP6 PUSH20 0xFFFFFFFFFFFFFFFFFFFFFFFFFFFFFFFFFFFFFFFF AND PUSH4 0x23B872DD DUP7 DUP7 DUP7 PUSH1 0x40 MLOAD PUSH1 0x24 ADD PUSH2 0xDC0 SWAP4 SWAP3 SWAP2 SWAP1 PUSH2 0x147D JUMP JUMPDEST PUSH1 0x40 MLOAD PUSH1 0x20 DUP2 DUP4 SUB SUB DUP2 MSTORE SWAP1 PUSH1 0x40 MSTORE SWAP2 POP PUSH1 0xE0 SHL PUSH1 0x20 DUP3 ADD DUP1 MLOAD PUSH28 0xFFFFFFFFFFFFFFFFFFFFFFFFFFFFFFFFFFFFFFFFFFFFFFFFFFFFFFFF DUP4 DUP2 DUP4 AND OR DUP4 MSTORE POP POP POP POP PUSH2 0xE14 JUMP JUMPDEST POP POP POP POP JUMP JUMPDEST PUSH0 CALLER SWAP1 POP SWAP1 JUMP JUMPDEST PUSH0 PUSH2 0xE3E DUP3 DUP5 PUSH20 0xFFFFFFFFFFFFFFFFFFFFFFFFFFFFFFFFFFFFFFFF AND PUSH2 0xEA9 SWAP1 SWAP2 SWAP1 PUSH4 0xFFFFFFFF AND JUMP JUMPDEST SWAP1 POP PUSH0 DUP2 MLOAD EQ ISZERO DUP1 ISZERO PUSH2 0xE62 JUMPI POP DUP1 DUP1 PUSH1 0x20 ADD SWAP1 MLOAD DUP2 ADD SWAP1 PUSH2 0xE60 SWAP2 SWAP1 PUSH2 0x1372 JUMP JUMPDEST ISZERO JUMPDEST ISZERO PUSH2 0xEA4 JUMPI DUP3 PUSH1 0x40 MLOAD PUSH32 0x5274AFE700000000000000000000000000000000000000000000000000000000 DUP2 MSTORE PUSH1 0x4 ADD PUSH2 0xE9B SWAP2 SWAP1 PUSH2 0x1187 JUMP JUMPDEST PUSH1 0x40 MLOAD DUP1 SWAP2 SUB SWAP1 REVERT JUMPDEST POP POP POP JUMP JUMPDEST PUSH1 0x60 PUSH2 0xEB6 DUP4 DUP4 PUSH0 PUSH2 0xEBE JUMP JUMPDEST SWAP1 POP SWAP3 SWAP2 POP POP JUMP JUMPDEST PUSH1 0x60 DUP2 SELFBALANCE LT ISZERO PUSH2 0xF05 JUMPI ADDRESS PUSH1 0x40 MLOAD PUSH32 0xCD78605900000000000000000000000000000000000000000000000000000000 DUP2 MSTORE PUSH1 0x4 ADD PUSH2 0xEFC SWAP2 SWAP1 PUSH2 0x1187 JUMP JUMPDEST PUSH1 0x40 MLOAD DUP1 SWAP2 SUB SWAP1 REVERT JUMPDEST PUSH0 DUP1 DUP6 PUSH20 0xFFFFFFFFFFFFFFFFFFFFFFFFFFFFFFFFFFFFFFFF AND DUP5 DUP7 PUSH1 0x40 MLOAD PUSH2 0xF2D SWAP2 SWAP1 PUSH2 0x151E JUMP JUMPDEST PUSH0 PUSH1 0x40 MLOAD DUP1 DUP4 SUB DUP2 DUP6 DUP8 GAS CALL SWAP3 POP POP POP RETURNDATASIZE DUP1 PUSH0 DUP2 EQ PUSH2 0xF67 JUMPI PUSH1 0x40 MLOAD SWAP2 POP PUSH1 0x1F NOT PUSH1 0x3F RETURNDATASIZE ADD AND DUP3 ADD PUSH1 0x40 MSTORE RETURNDATASIZE DUP3 MSTORE RETURNDATASIZE PUSH0 PUSH1 0x20 DUP5 ADD RETURNDATACOPY PUSH2 0xF6C JUMP JUMPDEST PUSH1 0x60 SWAP2 POP JUMPDEST POP SWAP2 POP SWAP2 POP PUSH2 0xF7C DUP7 DUP4 DUP4 PUSH2 0xF87 JUMP JUMPDEST SWAP3 POP POP POP SWAP4 SWAP3 POP POP POP JUMP JUMPDEST PUSH1 0x60 DUP3 PUSH2 0xF9C JUMPI PUSH2 0xF97 DUP3 PUSH2 0x1014 JUMP JUMPDEST PUSH2 0x100C JUMP JUMPDEST PUSH0 DUP3 MLOAD EQ DUP1 ISZERO PUSH2 0xFC2 JUMPI POP PUSH0 DUP5 PUSH20 0xFFFFFFFFFFFFFFFFFFFFFFFFFFFFFFFFFFFFFFFF AND EXTCODESIZE EQ JUMPDEST ISZERO PUSH2 0x1004 JUMPI DUP4 PUSH1 0x40 MLOAD PUSH32 0x9996B31500000000000000000000000000000000000000000000000000000000 DUP2 MSTORE PUSH1 0x4 ADD PUSH2 0xFFB SWAP2 SWAP1 PUSH2 0x1187 JUMP JUMPDEST PUSH1 0x40 MLOAD DUP1 SWAP2 SUB SWAP1 REVERT JUMPDEST DUP2 SWAP1 POP PUSH2 0x100D JUMP JUMPDEST JUMPDEST SWAP4 SWAP3 POP POP POP JUMP JUMPDEST PUSH0 DUP2 MLOAD GT ISZERO PUSH2 0x1026 JUMPI DUP1 MLOAD DUP1 DUP3 PUSH1 0x20 ADD REVERT JUMPDEST PUSH1 0x40 MLOAD PUSH32 0x1425EA4200000000000000000000000000000000000000000000000000000000 DUP2 MSTORE PUSH1 0x4 ADD PUSH1 0x40 MLOAD DUP1 SWAP2 SUB SWAP1 REVERT JUMPDEST PUSH0 DUP1 REVERT JUMPDEST PUSH0 DUP2 SWAP1 POP SWAP2 SWAP1 POP JUMP JUMPDEST PUSH2 0x106E DUP2 PUSH2 0x105C JUMP JUMPDEST DUP2 EQ PUSH2 0x1078 JUMPI PUSH0 DUP1 REVERT JUMPDEST POP JUMP JUMPDEST PUSH0 DUP2 CALLDATALOAD SWAP1 POP PUSH2 0x1089 DUP2 PUSH2 0x1065 JUMP JUMPDEST SWAP3 SWAP2 POP POP JUMP JUMPDEST PUSH0 PUSH1 0x20 DUP3 DUP5 SUB SLT ISZERO PUSH2 0x10A4 JUMPI PUSH2 0x10A3 PUSH2 0x1058 JUMP JUMPDEST JUMPDEST PUSH0 PUSH2 0x10B1 DUP5 DUP3 DUP6 ADD PUSH2 0x107B JUMP JUMPDEST SWAP2 POP POP SWAP3 SWAP2 POP POP JUMP JUMPDEST PUSH2 0x10C3 DUP2 PUSH2 0x105C JUMP JUMPDEST DUP3 MSTORE POP POP JUMP JUMPDEST PUSH0 PUSH1 0x20 DUP3 ADD SWAP1 POP PUSH2 0x10DC PUSH0 DUP4 ADD DUP5 PUSH2 0x10BA JUMP JUMPDEST SWAP3 SWAP2 POP POP JUMP JUMPDEST PUSH0 PUSH20 0xFFFFFFFFFFFFFFFFFFFFFFFFFFFFFFFFFFFFFFFF DUP3 AND SWAP1 POP SWAP2 SWAP1 POP JUMP JUMPDEST PUSH0 PUSH2 0x110B DUP3 PUSH2 0x10E2 JUMP JUMPDEST SWAP1 POP SWAP2 SWAP1 POP JUMP JUMPDEST PUSH0 PUSH2 0x111C DUP3 PUSH2 0x1101 JUMP JUMPDEST SWAP1 POP SWAP2 SWAP1 POP JUMP JUMPDEST PUSH2 0x112C DUP2 PUSH2 0x1112 JUMP JUMPDEST DUP2 EQ PUSH2 0x1136 JUMPI PUSH0 DUP1 REVERT JUMPDEST POP JUMP JUMPDEST PUSH0 DUP2 CALLDATALOAD SWAP1 POP PUSH2 0x1147 DUP2 PUSH2 0x1123 JUMP JUMPDEST SWAP3 SWAP2 POP POP JUMP JUMPDEST PUSH0 PUSH1 0x20 DUP3 DUP5 SUB SLT ISZERO PUSH2 0x1162 JUMPI PUSH2 0x1161 PUSH2 0x1058 JUMP JUMPDEST JUMPDEST PUSH0 PUSH2 0x116F DUP5 DUP3 DUP6 ADD PUSH2 0x1139 JUMP JUMPDEST SWAP2 POP POP SWAP3 SWAP2 POP POP JUMP JUMPDEST PUSH2 0x1181 DUP2 PUSH2 0x1101 JUMP JUMPDEST DUP3 MSTORE POP POP JUMP JUMPDEST PUSH0 PUSH1 0x20 DUP3 ADD SWAP1 POP PUSH2 0x119A PUSH0 DUP4 ADD DUP5 PUSH2 0x1178 JUMP JUMPDEST SWAP3 SWAP2 POP POP JUMP JUMPDEST PUSH0 DUP2 SWAP1 POP SWAP2 SWAP1 POP JUMP JUMPDEST PUSH0 PUSH2 0x11C3 PUSH2 0x11BE PUSH2 0x11B9 DUP5 PUSH2 0x10E2 JUMP JUMPDEST PUSH2 0x11A0 JUMP JUMPDEST PUSH2 0x10E2 JUMP JUMPDEST SWAP1 POP SWAP2 SWAP1 POP JUMP JUMPDEST PUSH0 PUSH2 0x11D4 DUP3 PUSH2 0x11A9 JUMP JUMPDEST SWAP1 POP SWAP2 SWAP1 POP JUMP JUMPDEST PUSH0 PUSH2 0x11E5 DUP3 PUSH2 0x11CA JUMP JUMPDEST SWAP1 POP SWAP2 SWAP1 POP JUMP JUMPDEST PUSH2 0x11F5 DUP2 PUSH2 0x11DB JUMP JUMPDEST DUP3 MSTORE POP POP JUMP JUMPDEST PUSH0 PUSH1 0x20 DUP3 ADD SWAP1 POP PUSH2 0x120E PUSH0 DUP4 ADD DUP5 PUSH2 0x11EC JUMP JUMPDEST SWAP3 SWAP2 POP POP JUMP JUMPDEST PUSH2 0x121D DUP2 PUSH2 0x1101 JUMP JUMPDEST DUP2 EQ PUSH2 0x1227 JUMPI PUSH0 DUP1 REVERT JUMPDEST POP JUMP JUMPDEST PUSH0 DUP2 CALLDATALOAD SWAP1 POP PUSH2 0x1238 DUP2 PUSH2 0x1214 JUMP JUMPDEST SWAP3 SWAP2 POP POP JUMP JUMPDEST PUSH0 PUSH1 0x20 DUP3 DUP5 SUB SLT ISZERO PUSH2 0x1253 JUMPI PUSH2 0x1252 PUSH2 0x1058 JUMP JUMPDEST JUMPDEST PUSH0 PUSH2 0x1260 DUP5 DUP3 DUP6 ADD PUSH2 0x122A JUMP JUMPDEST SWAP2 POP POP SWAP3 SWAP2 POP POP JUMP JUMPDEST PUSH32 0x4E487B7100000000000000000000000000000000000000000000000000000000 PUSH0 MSTORE PUSH1 0x11 PUSH1 0x4 MSTORE PUSH1 0x24 PUSH0 REVERT JUMPDEST PUSH0 PUSH2 0x12A0 DUP3 PUSH2 0x105C JUMP JUMPDEST SWAP2 POP PUSH2 0x12AB DUP4 PUSH2 0x105C JUMP JUMPDEST SWAP3 POP DUP3 DUP3 MUL PUSH2 0x12B9 DUP2 PUSH2 0x105C JUMP JUMPDEST SWAP2 POP DUP3 DUP3 DIV DUP5 EQ DUP4 ISZERO OR PUSH2 0x12D0 JUMPI PUSH2 0x12CF PUSH2 0x1269 JUMP JUMPDEST JUMPDEST POP SWAP3 SWAP2 POP POP JUMP JUMPDEST PUSH0 DUP2 MLOAD SWAP1 POP PUSH2 0x12E5 DUP2 PUSH2 0x1065 JUMP JUMPDEST SWAP3 SWAP2 POP POP JUMP JUMPDEST PUSH0 PUSH1 0x20 DUP3 DUP5 SUB SLT ISZERO PUSH2 0x1300 JUMPI PUSH2 0x12FF PUSH2 0x1058 JUMP JUMPDEST JUMPDEST PUSH0 PUSH2 0x130D DUP5 DUP3 DUP6 ADD PUSH2 0x12D7 JUMP JUMPDEST SWAP2 POP POP SWAP3 SWAP2 POP POP JUMP JUMPDEST PUSH0 PUSH1 0x40 DUP3 ADD SWAP1 POP PUSH2 0x1329 PUSH0 DUP4 ADD DUP6 PUSH2 0x1178 JUMP JUMPDEST PUSH2 0x1336 PUSH1 0x20 DUP4 ADD DUP5 PUSH2 0x10BA JUMP JUMPDEST SWAP4 SWAP3 POP POP POP JUMP JUMPDEST PUSH0 DUP2 ISZERO ISZERO SWAP1 POP SWAP2 SWAP1 POP JUMP JUMPDEST PUSH2 0x1351 DUP2 PUSH2 0x133D JUMP JUMPDEST DUP2 EQ PUSH2 0x135B JUMPI PUSH0 DUP1 REVERT JUMPDEST POP JUMP JUMPDEST PUSH0 DUP2 MLOAD SWAP1 POP PUSH2 0x136C DUP2 PUSH2 0x1348 JUMP JUMPDEST SWAP3 SWAP2 POP POP JUMP JUMPDEST PUSH0 PUSH1 0x20 DUP3 DUP5 SUB SLT ISZERO PUSH2 0x1387 JUMPI PUSH2 0x1386 PUSH2 0x1058 JUMP JUMPDEST JUMPDEST PUSH0 PUSH2 0x1394 DUP5 DUP3 DUP6 ADD PUSH2 0x135E JUMP JUMPDEST SWAP2 POP POP SWAP3 SWAP2 POP POP JUMP JUMPDEST PUSH0 DUP3 DUP3 MSTORE PUSH1 0x20 DUP3 ADD SWAP1 POP SWAP3 SWAP2 POP POP JUMP JUMPDEST PUSH32 0x416D6F756E74206973207A65726F000000000000000000000000000000000000 PUSH0 DUP3 ADD MSTORE POP JUMP JUMPDEST PUSH0 PUSH2 0x13E1 PUSH1 0xE DUP4 PUSH2 0x139D JUMP JUMPDEST SWAP2 POP PUSH2 0x13EC DUP3 PUSH2 0x13AD JUMP JUMPDEST PUSH1 0x20 DUP3 ADD SWAP1 POP SWAP2 SWAP1 POP JUMP JUMPDEST PUSH0 PUSH1 0x20 DUP3 ADD SWAP1 POP DUP2 DUP2 SUB PUSH0 DUP4 ADD MSTORE PUSH2 0x140E DUP2 PUSH2 0x13D5 JUMP JUMPDEST SWAP1 POP SWAP2 SWAP1 POP JUMP JUMPDEST PUSH32 0x496E73756666696369656E74206163636F756E742062616C616E636500000000 PUSH0 DUP3 ADD MSTORE POP JUMP JUMPDEST PUSH0 PUSH2 0x1449 PUSH1 0x1C DUP4 PUSH2 0x139D JUMP JUMPDEST SWAP2 POP PUSH2 0x1454 DUP3 PUSH2 0x1415 JUMP JUMPDEST PUSH1 0x20 DUP3 ADD SWAP1 POP SWAP2 SWAP1 POP JUMP JUMPDEST PUSH0 PUSH1 0x20 DUP3 ADD SWAP1 POP DUP2 DUP2 SUB PUSH0 DUP4 ADD MSTORE PUSH2 0x1476 DUP2 PUSH2 0x143D JUMP JUMPDEST SWAP1 POP SWAP2 SWAP1 POP JUMP JUMPDEST PUSH0 PUSH1 0x60 DUP3 ADD SWAP1 POP PUSH2 0x1490 PUSH0 DUP4 ADD DUP7 PUSH2 0x1178 JUMP JUMPDEST PUSH2 0x149D PUSH1 0x20 DUP4 ADD DUP6 PUSH2 0x1178 JUMP JUMPDEST PUSH2 0x14AA PUSH1 0x40 DUP4 ADD DUP5 PUSH2 0x10BA JUMP JUMPDEST SWAP5 SWAP4 POP POP POP POP JUMP JUMPDEST PUSH0 DUP2 MLOAD SWAP1 POP SWAP2 SWAP1 POP JUMP JUMPDEST PUSH0 DUP2 SWAP1 POP SWAP3 SWAP2 POP POP JUMP JUMPDEST PUSH0 JUMPDEST DUP4 DUP2 LT ISZERO PUSH2 0x14E3 JUMPI DUP1 DUP3 ADD MLOAD DUP2 DUP5 ADD MSTORE PUSH1 0x20 DUP2 ADD SWAP1 POP PUSH2 0x14C8 JUMP JUMPDEST PUSH0 DUP5 DUP5 ADD MSTORE POP POP POP POP JUMP JUMPDEST PUSH0 PUSH2 0x14F8 DUP3 PUSH2 0x14B2 JUMP JUMPDEST PUSH2 0x1502 DUP2 DUP6 PUSH2 0x14BC JUMP JUMPDEST SWAP4 POP PUSH2 0x1512 DUP2 DUP6 PUSH1 0x20 DUP7 ADD PUSH2 0x14C6 JUMP JUMPDEST DUP1 DUP5 ADD SWAP2 POP POP SWAP3 SWAP2 POP POP JUMP JUMPDEST PUSH0 PUSH2 0x1529 DUP3 DUP5 PUSH2 0x14EE JUMP JUMPDEST SWAP2 POP DUP2 SWAP1 POP SWAP3 SWAP2 POP POP JUMP INVALID LOG2 PUSH5 0x6970667358 0x22 SLT KECCAK256 0xB6 0x2F 0xC0 SWAP15 MUL SWAP8 PUSH10 0x6640D7DE3D93976291DF 0xB4 0xF8 0xB1 MSTORE8 SWAP6 0xDE 0x21 PUSH32 0x477735523572864736F6C634300081400330000000000000000000000000000 "
				},
				"gasEstimates": {
					"creation": {
						"codeDepositCost": "1096400",
						"executionCost": "infinite",
						"totalCost": "infinite"
					},
					"external": {
						"ETH_rate()": "2492",
						"USDT_rate()": "2470",
						"buyTokenByETH()": "infinite",
						"buyTokenByUSDT(uint256)": "infinite",
						"getTokenAmountETH(uint256)": "infinite",
						"getTokenAmountUSDT(uint256)": "infinite",
						"owner()": "2560",
						"renounceOwnership()": "infinite",
						"setETHRate(uint256)": "infinite",
						"setUSDTRate(uint256)": "infinite",
						"setUSDTToken(address)": "infinite",
						"token()": "infinite",
						"transferOwnership(address)": "infinite",
						"usdtToken()": "infinite",
						"withdraw()": "infinite",
						"withdrawErc20()": "infinite"
					}
				},
				"methodIdentifiers": {
					"ETH_rate()": "9cb7b9fc",
					"USDT_rate()": "592a00e4",
					"buyTokenByETH()": "8909a40f",
					"buyTokenByUSDT(uint256)": "c5d15651",
					"getTokenAmountETH(uint256)": "e1e85189",
					"getTokenAmountUSDT(uint256)": "1832d8b6",
					"owner()": "8da5cb5b",
					"renounceOwnership()": "715018a6",
					"setETHRate(uint256)": "4bfe2779",
					"setUSDTRate(uint256)": "1b4622d6",
					"setUSDTToken(address)": "66e226bd",
					"token()": "fc0c546a",
					"transferOwnership(address)": "f2fde38b",
					"usdtToken()": "a98ad46c",
					"withdraw()": "3ccfd60b",
					"withdrawErc20()": "3e3f2359"
				}
			},
			"storageLayout": {
				"storage": [
					{
						"astId": 8,
						"contract": "FLPCrowndsale.sol:FLPCrowdSale",
						"label": "_owner",
						"offset": 0,
						"slot": "0",
						"type": "t_address"
					},
					{
						"astId": 1525,
						"contract": "FLPCrowndsale.sol:FLPCrowdSale",
						"label": "_wallet",
						"offset": 0,
						"slot": "1",
						"type": "t_address_payable"
					},
					{
						"astId": 1527,
						"contract": "FLPCrowndsale.sol:FLPCrowdSale",
						"label": "ETH_rate",
						"offset": 0,
						"slot": "2",
						"type": "t_uint256"
					},
					{
						"astId": 1529,
						"contract": "FLPCrowndsale.sol:FLPCrowdSale",
						"label": "USDT_rate",
						"offset": 0,
						"slot": "3",
						"type": "t_uint256"
					},
					{
						"astId": 1532,
						"contract": "FLPCrowndsale.sol:FLPCrowdSale",
						"label": "token",
						"offset": 0,
						"slot": "4",
						"type": "t_contract(IERC20)877"
					},
					{
						"astId": 1535,
						"contract": "FLPCrowndsale.sol:FLPCrowdSale",
						"label": "usdtToken",
						"offset": 0,
						"slot": "5",
						"type": "t_contract(IERC20)877"
					}
				],
				"types": {
					"t_address": {
						"encoding": "inplace",
						"label": "address",
						"numberOfBytes": "20"
					},
					"t_address_payable": {
						"encoding": "inplace",
						"label": "address payable",
						"numberOfBytes": "20"
					},
					"t_contract(IERC20)877": {
						"encoding": "inplace",
						"label": "contract IERC20",
						"numberOfBytes": "20"
					},
					"t_uint256": {
						"encoding": "inplace",
						"label": "uint256",
						"numberOfBytes": "32"
					}
				}
			},
			"userdoc": {
				"kind": "user",
				"methods": {},
				"version": 1
			}
		}
	}
}