{
	"Split.sol": {
		"PaymentSplitter": {
			"abi": [
				{
					"inputs": [
						{
							"internalType": "address payable",
							"name": "_recipient1",
							"type": "address"
						},
						{
							"internalType": "address payable",
							"name": "_recipient2",
							"type": "address"
						}
					],
					"stateMutability": "payable",
					"type": "constructor"
				},
				{
					"inputs": [],
					"name": "recipient1",
					"outputs": [
						{
							"internalType": "address payable",
							"name": "",
							"type": "address"
						}
					],
					"stateMutability": "view",
					"type": "function"
				},
				{
					"inputs": [],
					"name": "recipient2",
					"outputs": [
						{
							"internalType": "address payable",
							"name": "",
							"type": "address"
						}
					],
					"stateMutability": "view",
					"type": "function"
				},
				{
					"inputs": [],
					"name": "split",
					"outputs": [],
					"stateMutability": "payable",
					"type": "function"
				}
			],
			"devdoc": {
				"kind": "dev",
				"methods": {},
				"version": 1
			},
			"evm": {
				"assembly": "    /* \"Split.sol\":60:704  contract PaymentSplitter {... */\n  mstore(0x40, 0x80)\n    /* \"Split.sol\":212:369  constructor (address payable _recipient1, address payable _recipient2) payable {... */\n  mload(0x40)\n  sub(codesize, bytecodeSize)\n  dup1\n  bytecodeSize\n  dup4\n  codecopy\n  dup2\n  dup2\n  add\n  0x40\n  mstore\n  dup2\n  add\n  swap1\n  tag_1\n  swap2\n  swap1\n  tag_2\n  jump\t// in\ntag_1:\n    /* \"Split.sol\":315:326  _recipient1 */\n  dup2\n    /* \"Split.sol\":302:312  recipient1 */\n  0x00\n  dup1\n    /* \"Split.sol\":302:326  recipient1 = _recipient1 */\n  0x0100\n  exp\n  dup2\n  sload\n  dup2\n  0xffffffffffffffffffffffffffffffffffffffff\n  mul\n  not\n  and\n  swap1\n  dup4\n  0xffffffffffffffffffffffffffffffffffffffff\n  and\n  mul\n  or\n  swap1\n  sstore\n  pop\n    /* \"Split.sol\":350:361  _recipient2 */\n  dup1\n    /* \"Split.sol\":337:347  recipient2 */\n  0x01\n  0x00\n    /* \"Split.sol\":337:361  recipient2 = _recipient2 */\n  0x0100\n  exp\n  dup2\n  sload\n  dup2\n  0xffffffffffffffffffffffffffffffffffffffff\n  mul\n  not\n  and\n  swap1\n  dup4\n  0xffffffffffffffffffffffffffffffffffffffff\n  and\n  mul\n  or\n  swap1\n  sstore\n  pop\n    /* \"Split.sol\":212:369  constructor (address payable _recipient1, address payable _recipient2) payable {... */\n  pop\n  pop\n    /* \"Split.sol\":60:704  contract PaymentSplitter {... */\n  jump(tag_5)\n    /* \"#utility.yul\":88:205   */\ntag_7:\n    /* \"#utility.yul\":197:198   */\n  0x00\n    /* \"#utility.yul\":194:195   */\n  dup1\n    /* \"#utility.yul\":187:199   */\n  revert\n    /* \"#utility.yul\":334:460   */\ntag_9:\n    /* \"#utility.yul\":371:378   */\n  0x00\n    /* \"#utility.yul\":411:453   */\n  0xffffffffffffffffffffffffffffffffffffffff\n    /* \"#utility.yul\":404:409   */\n  dup3\n    /* \"#utility.yul\":400:454   */\n  and\n    /* \"#utility.yul\":389:454   */\n  swap1\n  pop\n    /* \"#utility.yul\":334:460   */\n  swap2\n  swap1\n  pop\n  jump\t// out\n    /* \"#utility.yul\":466:570   */\ntag_10:\n    /* \"#utility.yul\":511:518   */\n  0x00\n    /* \"#utility.yul\":540:564   */\n  tag_19\n    /* \"#utility.yul\":558:563   */\n  dup3\n    /* \"#utility.yul\":540:564   */\n  tag_9\n  jump\t// in\ntag_19:\n    /* \"#utility.yul\":529:564   */\n  swap1\n  pop\n    /* \"#utility.yul\":466:570   */\n  swap2\n  swap1\n  pop\n  jump\t// out\n    /* \"#utility.yul\":576:714   */\ntag_11:\n    /* \"#utility.yul\":657:689   */\n  tag_21\n    /* \"#utility.yul\":683:688   */\n  dup2\n    /* \"#utility.yul\":657:689   */\n  tag_10\n  jump\t// in\ntag_21:\n    /* \"#utility.yul\":650:655   */\n  dup2\n    /* \"#utility.yul\":647:690   */\n  eq\n    /* \"#utility.yul\":637:708   */\n  tag_22\n  jumpi\n    /* \"#utility.yul\":704:705   */\n  0x00\n    /* \"#utility.yul\":701:702   */\n  dup1\n    /* \"#utility.yul\":694:706   */\n  revert\n    /* \"#utility.yul\":637:708   */\ntag_22:\n    /* \"#utility.yul\":576:714   */\n  pop\n  jump\t// out\n    /* \"#utility.yul\":720:879   */\ntag_12:\n    /* \"#utility.yul\":785:790   */\n  0x00\n    /* \"#utility.yul\":816:822   */\n  dup2\n    /* \"#utility.yul\":810:823   */\n  mload\n    /* \"#utility.yul\":801:823   */\n  swap1\n  pop\n    /* \"#utility.yul\":832:873   */\n  tag_24\n    /* \"#utility.yul\":867:872   */\n  dup2\n    /* \"#utility.yul\":832:873   */\n  tag_11\n  jump\t// in\ntag_24:\n    /* \"#utility.yul\":720:879   */\n  swap3\n  swap2\n  pop\n  pop\n  jump\t// out\n    /* \"#utility.yul\":885:1424   */\ntag_2:\n    /* \"#utility.yul\":980:986   */\n  0x00\n    /* \"#utility.yul\":988:994   */\n  dup1\n    /* \"#utility.yul\":1037:1039   */\n  0x40\n    /* \"#utility.yul\":1025:1034   */\n  dup4\n    /* \"#utility.yul\":1016:1023   */\n  dup6\n    /* \"#utility.yul\":1012:1035   */\n  sub\n    /* \"#utility.yul\":1008:1040   */\n  slt\n    /* \"#utility.yul\":1005:1124   */\n  iszero\n  tag_26\n  jumpi\n    /* \"#utility.yul\":1043:1122   */\n  tag_27\n  tag_7\n  jump\t// in\ntag_27:\n    /* \"#utility.yul\":1005:1124   */\ntag_26:\n    /* \"#utility.yul\":1163:1164   */\n  0x00\n    /* \"#utility.yul\":1188:1260   */\n  tag_28\n    /* \"#utility.yul\":1252:1259   */\n  dup6\n    /* \"#utility.yul\":1243:1249   */\n  dup3\n    /* \"#utility.yul\":1232:1241   */\n  dup7\n    /* \"#utility.yul\":1228:1250   */\n  add\n    /* \"#utility.yul\":1188:1260   */\n  tag_12\n  jump\t// in\ntag_28:\n    /* \"#utility.yul\":1178:1260   */\n  swap3\n  pop\n    /* \"#utility.yul\":1134:1270   */\n  pop\n    /* \"#utility.yul\":1309:1311   */\n  0x20\n    /* \"#utility.yul\":1335:1407   */\n  tag_29\n    /* \"#utility.yul\":1399:1406   */\n  dup6\n    /* \"#utility.yul\":1390:1396   */\n  dup3\n    /* \"#utility.yul\":1379:1388   */\n  dup7\n    /* \"#utility.yul\":1375:1397   */\n  add\n    /* \"#utility.yul\":1335:1407   */\n  tag_12\n  jump\t// in\ntag_29:\n    /* \"#utility.yul\":1325:1407   */\n  swap2\n  pop\n    /* \"#utility.yul\":1280:1417   */\n  pop\n    /* \"#utility.yul\":885:1424   */\n  swap3\n  pop\n  swap3\n  swap1\n  pop\n  jump\t// out\n    /* \"Split.sol\":60:704  contract PaymentSplitter {... */\ntag_5:\n  dataSize(sub_0)\n  dup1\n  dataOffset(sub_0)\n  0x00\n  codecopy\n  0x00\n  return\nstop\n\nsub_0: assembly {\n        /* \"Split.sol\":60:704  contract PaymentSplitter {... */\n      mstore(0x40, 0x80)\n      jumpi(tag_1, lt(calldatasize, 0x04))\n      shr(0xe0, calldataload(0x00))\n      dup1\n      0x0688b135\n      eq\n      tag_2\n      jumpi\n      dup1\n      0xaa3744bd\n      eq\n      tag_3\n      jumpi\n      dup1\n      0xf7654176\n      eq\n      tag_4\n      jumpi\n    tag_1:\n      0x00\n      dup1\n      revert\n        /* \"Split.sol\":170:203  address payable public recipient2 */\n    tag_2:\n      callvalue\n      dup1\n      iszero\n      tag_5\n      jumpi\n      0x00\n      dup1\n      revert\n    tag_5:\n      pop\n      tag_6\n      tag_7\n      jump\t// in\n    tag_6:\n      mload(0x40)\n      tag_8\n      swap2\n      swap1\n      tag_9\n      jump\t// in\n    tag_8:\n      mload(0x40)\n      dup1\n      swap2\n      sub\n      swap1\n      return\n        /* \"Split.sol\":130:163  address payable public recipient1 */\n    tag_3:\n      callvalue\n      dup1\n      iszero\n      tag_10\n      jumpi\n      0x00\n      dup1\n      revert\n    tag_10:\n      pop\n      tag_11\n      tag_12\n      jump\t// in\n    tag_11:\n      mload(0x40)\n      tag_13\n      swap2\n      swap1\n      tag_9\n      jump\t// in\n    tag_13:\n      mload(0x40)\n      dup1\n      swap2\n      sub\n      swap1\n      return\n        /* \"Split.sol\":380:701  function split() external payable {... */\n    tag_4:\n      tag_14\n      tag_15\n      jump\t// in\n    tag_14:\n      stop\n        /* \"Split.sol\":170:203  address payable public recipient2 */\n    tag_7:\n      0x01\n      0x00\n      swap1\n      sload\n      swap1\n      0x0100\n      exp\n      swap1\n      div\n      0xffffffffffffffffffffffffffffffffffffffff\n      and\n      dup2\n      jump\t// out\n        /* \"Split.sol\":130:163  address payable public recipient1 */\n    tag_12:\n      0x00\n      dup1\n      sload\n      swap1\n      0x0100\n      exp\n      swap1\n      div\n      0xffffffffffffffffffffffffffffffffffffffff\n      and\n      dup2\n      jump\t// out\n        /* \"Split.sol\":380:701  function split() external payable {... */\n    tag_15:\n        /* \"Split.sol\":425:440  uint256 balance */\n      0x00\n        /* \"Split.sol\":443:464  address(this).balance */\n      selfbalance\n        /* \"Split.sol\":425:464  uint256 balance = address(this).balance */\n      swap1\n      pop\n        /* \"Split.sol\":493:494  0 */\n      0x00\n        /* \"Split.sol\":483:490  balance */\n      dup2\n        /* \"Split.sol\":483:494  balance > 0 */\n      gt\n        /* \"Split.sol\":475:520  require(balance > 0, \"No balance available.\") */\n      tag_17\n      jumpi\n      mload(0x40)\n      0x08c379a000000000000000000000000000000000000000000000000000000000\n      dup2\n      mstore\n      0x04\n      add\n      tag_18\n      swap1\n      tag_19\n      jump\t// in\n    tag_18:\n      mload(0x40)\n      dup1\n      swap2\n      sub\n      swap1\n      revert\n    tag_17:\n        /* \"Split.sol\":533:547  uint256 amount */\n      0x00\n        /* \"Split.sol\":560:561  2 */\n      0x02\n        /* \"Split.sol\":550:557  balance */\n      dup3\n        /* \"Split.sol\":550:561  balance / 2 */\n      tag_20\n      swap2\n      swap1\n      tag_21\n      jump\t// in\n    tag_20:\n        /* \"Split.sol\":533:561  uint256 amount = balance / 2 */\n      swap1\n      pop\n        /* \"Split.sol\":572:589  uint256 remainder */\n      0x00\n        /* \"Split.sol\":602:603  2 */\n      0x02\n        /* \"Split.sol\":592:599  balance */\n      dup4\n        /* \"Split.sol\":592:603  balance % 2 */\n      tag_22\n      swap2\n      swap1\n      tag_23\n      jump\t// in\n    tag_22:\n        /* \"Split.sol\":572:603  uint256 remainder = balance % 2 */\n      swap1\n      pop\n        /* \"Split.sol\":616:626  recipient1 */\n      0x00\n      dup1\n      sload\n      swap1\n      0x0100\n      exp\n      swap1\n      div\n      0xffffffffffffffffffffffffffffffffffffffff\n      and\n        /* \"Split.sol\":616:635  recipient1.transfer */\n      0xffffffffffffffffffffffffffffffffffffffff\n      and\n        /* \"Split.sol\":616:643  recipient1.transfer(amount) */\n      0x08fc\n        /* \"Split.sol\":636:642  amount */\n      dup4\n        /* \"Split.sol\":616:643  recipient1.transfer(amount) */\n      swap1\n      dup2\n      iszero\n      mul\n      swap1\n      mload(0x40)\n      0x00\n      mload(0x40)\n      dup1\n      dup4\n      sub\n      dup2\n      dup6\n      dup9\n      dup9\n      call\n      swap4\n      pop\n      pop\n      pop\n      pop\n      iszero\n      dup1\n      iszero\n      tag_25\n      jumpi\n      returndatasize\n      0x00\n      dup1\n      returndatacopy\n      revert(0x00, returndatasize)\n    tag_25:\n      pop\n        /* \"Split.sol\":654:664  recipient2 */\n      0x01\n      0x00\n      swap1\n      sload\n      swap1\n      0x0100\n      exp\n      swap1\n      div\n      0xffffffffffffffffffffffffffffffffffffffff\n      and\n        /* \"Split.sol\":654:673  recipient2.transfer */\n      0xffffffffffffffffffffffffffffffffffffffff\n      and\n        /* \"Split.sol\":654:693  recipient2.transfer(amount + remainder) */\n      0x08fc\n        /* \"Split.sol\":683:692  remainder */\n      dup3\n        /* \"Split.sol\":674:680  amount */\n      dup5\n        /* \"Split.sol\":674:692  amount + remainder */\n      tag_26\n      swap2\n      swap1\n      tag_27\n      jump\t// in\n    tag_26:\n        /* \"Split.sol\":654:693  recipient2.transfer(amount + remainder) */\n      swap1\n      dup2\n      iszero\n      mul\n      swap1\n      mload(0x40)\n      0x00\n      mload(0x40)\n      dup1\n      dup4\n      sub\n      dup2\n      dup6\n      dup9\n      dup9\n      call\n      swap4\n      pop\n      pop\n      pop\n      pop\n      iszero\n      dup1\n      iszero\n      tag_29\n      jumpi\n      returndatasize\n      0x00\n      dup1\n      returndatacopy\n      revert(0x00, returndatasize)\n    tag_29:\n      pop\n        /* \"Split.sol\":414:701  {... */\n      pop\n      pop\n      pop\n        /* \"Split.sol\":380:701  function split() external payable {... */\n      jump\t// out\n        /* \"#utility.yul\":7:133   */\n    tag_30:\n        /* \"#utility.yul\":44:51   */\n      0x00\n        /* \"#utility.yul\":84:126   */\n      0xffffffffffffffffffffffffffffffffffffffff\n        /* \"#utility.yul\":77:82   */\n      dup3\n        /* \"#utility.yul\":73:127   */\n      and\n        /* \"#utility.yul\":62:127   */\n      swap1\n      pop\n        /* \"#utility.yul\":7:133   */\n      swap2\n      swap1\n      pop\n      jump\t// out\n        /* \"#utility.yul\":139:243   */\n    tag_31:\n        /* \"#utility.yul\":184:191   */\n      0x00\n        /* \"#utility.yul\":213:237   */\n      tag_42\n        /* \"#utility.yul\":231:236   */\n      dup3\n        /* \"#utility.yul\":213:237   */\n      tag_30\n      jump\t// in\n    tag_42:\n        /* \"#utility.yul\":202:237   */\n      swap1\n      pop\n        /* \"#utility.yul\":139:243   */\n      swap2\n      swap1\n      pop\n      jump\t// out\n        /* \"#utility.yul\":249:391   */\n    tag_32:\n        /* \"#utility.yul\":352:384   */\n      tag_44\n        /* \"#utility.yul\":378:383   */\n      dup2\n        /* \"#utility.yul\":352:384   */\n      tag_31\n      jump\t// in\n    tag_44:\n        /* \"#utility.yul\":347:350   */\n      dup3\n        /* \"#utility.yul\":340:385   */\n      mstore\n        /* \"#utility.yul\":249:391   */\n      pop\n      pop\n      jump\t// out\n        /* \"#utility.yul\":397:651   */\n    tag_9:\n        /* \"#utility.yul\":506:510   */\n      0x00\n        /* \"#utility.yul\":544:546   */\n      0x20\n        /* \"#utility.yul\":533:542   */\n      dup3\n        /* \"#utility.yul\":529:547   */\n      add\n        /* \"#utility.yul\":521:547   */\n      swap1\n      pop\n        /* \"#utility.yul\":557:644   */\n      tag_46\n        /* \"#utility.yul\":641:642   */\n      0x00\n        /* \"#utility.yul\":630:639   */\n      dup4\n        /* \"#utility.yul\":626:643   */\n      add\n        /* \"#utility.yul\":617:623   */\n      dup5\n        /* \"#utility.yul\":557:644   */\n      tag_32\n      jump\t// in\n    tag_46:\n        /* \"#utility.yul\":397:651   */\n      swap3\n      swap2\n      pop\n      pop\n      jump\t// out\n        /* \"#utility.yul\":657:826   */\n    tag_33:\n        /* \"#utility.yul\":741:752   */\n      0x00\n        /* \"#utility.yul\":775:781   */\n      dup3\n        /* \"#utility.yul\":770:773   */\n      dup3\n        /* \"#utility.yul\":763:782   */\n      mstore\n        /* \"#utility.yul\":815:819   */\n      0x20\n        /* \"#utility.yul\":810:813   */\n      dup3\n        /* \"#utility.yul\":806:820   */\n      add\n        /* \"#utility.yul\":791:820   */\n      swap1\n      pop\n        /* \"#utility.yul\":657:826   */\n      swap3\n      swap2\n      pop\n      pop\n      jump\t// out\n        /* \"#utility.yul\":832:1003   */\n    tag_34:\n        /* \"#utility.yul\":972:995   */\n      0x4e6f2062616c616e636520617661696c61626c652e0000000000000000000000\n        /* \"#utility.yul\":968:969   */\n      0x00\n        /* \"#utility.yul\":960:966   */\n      dup3\n        /* \"#utility.yul\":956:970   */\n      add\n        /* \"#utility.yul\":949:996   */\n      mstore\n        /* \"#utility.yul\":832:1003   */\n      pop\n      jump\t// out\n        /* \"#utility.yul\":1009:1375   */\n    tag_35:\n        /* \"#utility.yul\":1151:1154   */\n      0x00\n        /* \"#utility.yul\":1172:1239   */\n      tag_50\n        /* \"#utility.yul\":1236:1238   */\n      0x15\n        /* \"#utility.yul\":1231:1234   */\n      dup4\n        /* \"#utility.yul\":1172:1239   */\n      tag_33\n      jump\t// in\n    tag_50:\n        /* \"#utility.yul\":1165:1239   */\n      swap2\n      pop\n        /* \"#utility.yul\":1248:1341   */\n      tag_51\n        /* \"#utility.yul\":1337:1340   */\n      dup3\n        /* \"#utility.yul\":1248:1341   */\n      tag_34\n      jump\t// in\n    tag_51:\n        /* \"#utility.yul\":1366:1368   */\n      0x20\n        /* \"#utility.yul\":1361:1364   */\n      dup3\n        /* \"#utility.yul\":1357:1369   */\n      add\n        /* \"#utility.yul\":1350:1369   */\n      swap1\n      pop\n        /* \"#utility.yul\":1009:1375   */\n      swap2\n      swap1\n      pop\n      jump\t// out\n        /* \"#utility.yul\":1381:1800   */\n    tag_19:\n        /* \"#utility.yul\":1547:1551   */\n      0x00\n        /* \"#utility.yul\":1585:1587   */\n      0x20\n        /* \"#utility.yul\":1574:1583   */\n      dup3\n        /* \"#utility.yul\":1570:1588   */\n      add\n        /* \"#utility.yul\":1562:1588   */\n      swap1\n      pop\n        /* \"#utility.yul\":1634:1643   */\n      dup2\n        /* \"#utility.yul\":1628:1632   */\n      dup2\n        /* \"#utility.yul\":1624:1644   */\n      sub\n        /* \"#utility.yul\":1620:1621   */\n      0x00\n        /* \"#utility.yul\":1609:1618   */\n      dup4\n        /* \"#utility.yul\":1605:1622   */\n      add\n        /* \"#utility.yul\":1598:1645   */\n      mstore\n        /* \"#utility.yul\":1662:1793   */\n      tag_53\n        /* \"#utility.yul\":1788:1792   */\n      dup2\n        /* \"#utility.yul\":1662:1793   */\n      tag_35\n      jump\t// in\n    tag_53:\n        /* \"#utility.yul\":1654:1793   */\n      swap1\n      pop\n        /* \"#utility.yul\":1381:1800   */\n      swap2\n      swap1\n      pop\n      jump\t// out\n        /* \"#utility.yul\":1806:1883   */\n    tag_36:\n        /* \"#utility.yul\":1843:1850   */\n      0x00\n        /* \"#utility.yul\":1872:1877   */\n      dup2\n        /* \"#utility.yul\":1861:1877   */\n      swap1\n      pop\n        /* \"#utility.yul\":1806:1883   */\n      swap2\n      swap1\n      pop\n      jump\t// out\n        /* \"#utility.yul\":1889:2069   */\n    tag_37:\n        /* \"#utility.yul\":1937:2014   */\n      0x4e487b7100000000000000000000000000000000000000000000000000000000\n        /* \"#utility.yul\":1934:1935   */\n      0x00\n        /* \"#utility.yul\":1927:2015   */\n      mstore\n        /* \"#utility.yul\":2034:2038   */\n      0x12\n        /* \"#utility.yul\":2031:2032   */\n      0x04\n        /* \"#utility.yul\":2024:2039   */\n      mstore\n        /* \"#utility.yul\":2058:2062   */\n      0x24\n        /* \"#utility.yul\":2055:2056   */\n      0x00\n        /* \"#utility.yul\":2048:2063   */\n      revert\n        /* \"#utility.yul\":2075:2255   */\n    tag_38:\n        /* \"#utility.yul\":2123:2200   */\n      0x4e487b7100000000000000000000000000000000000000000000000000000000\n        /* \"#utility.yul\":2120:2121   */\n      0x00\n        /* \"#utility.yul\":2113:2201   */\n      mstore\n        /* \"#utility.yul\":2220:2224   */\n      0x11\n        /* \"#utility.yul\":2217:2218   */\n      0x04\n        /* \"#utility.yul\":2210:2225   */\n      mstore\n        /* \"#utility.yul\":2244:2248   */\n      0x24\n        /* \"#utility.yul\":2241:2242   */\n      0x00\n        /* \"#utility.yul\":2234:2249   */\n      revert\n        /* \"#utility.yul\":2261:2446   */\n    tag_21:\n        /* \"#utility.yul\":2301:2302   */\n      0x00\n        /* \"#utility.yul\":2318:2338   */\n      tag_58\n        /* \"#utility.yul\":2336:2337   */\n      dup3\n        /* \"#utility.yul\":2318:2338   */\n      tag_36\n      jump\t// in\n    tag_58:\n        /* \"#utility.yul\":2313:2338   */\n      swap2\n      pop\n        /* \"#utility.yul\":2352:2372   */\n      tag_59\n        /* \"#utility.yul\":2370:2371   */\n      dup4\n        /* \"#utility.yul\":2352:2372   */\n      tag_36\n      jump\t// in\n    tag_59:\n        /* \"#utility.yul\":2347:2372   */\n      swap3\n      pop\n        /* \"#utility.yul\":2391:2392   */\n      dup3\n        /* \"#utility.yul\":2381:2416   */\n      tag_60\n      jumpi\n        /* \"#utility.yul\":2396:2414   */\n      tag_61\n      tag_37\n      jump\t// in\n    tag_61:\n        /* \"#utility.yul\":2381:2416   */\n    tag_60:\n        /* \"#utility.yul\":2438:2439   */\n      dup3\n        /* \"#utility.yul\":2435:2436   */\n      dup3\n        /* \"#utility.yul\":2431:2440   */\n      div\n        /* \"#utility.yul\":2426:2440   */\n      swap1\n      pop\n        /* \"#utility.yul\":2261:2446   */\n      swap3\n      swap2\n      pop\n      pop\n      jump\t// out\n        /* \"#utility.yul\":2452:2628   */\n    tag_23:\n        /* \"#utility.yul\":2484:2485   */\n      0x00\n        /* \"#utility.yul\":2501:2521   */\n      tag_63\n        /* \"#utility.yul\":2519:2520   */\n      dup3\n        /* \"#utility.yul\":2501:2521   */\n      tag_36\n      jump\t// in\n    tag_63:\n        /* \"#utility.yul\":2496:2521   */\n      swap2\n      pop\n        /* \"#utility.yul\":2535:2555   */\n      tag_64\n        /* \"#utility.yul\":2553:2554   */\n      dup4\n        /* \"#utility.yul\":2535:2555   */\n      tag_36\n      jump\t// in\n    tag_64:\n        /* \"#utility.yul\":2530:2555   */\n      swap3\n      pop\n        /* \"#utility.yul\":2574:2575   */\n      dup3\n        /* \"#utility.yul\":2564:2599   */\n      tag_65\n      jumpi\n        /* \"#utility.yul\":2579:2597   */\n      tag_66\n      tag_37\n      jump\t// in\n    tag_66:\n        /* \"#utility.yul\":2564:2599   */\n    tag_65:\n        /* \"#utility.yul\":2620:2621   */\n      dup3\n        /* \"#utility.yul\":2617:2618   */\n      dup3\n        /* \"#utility.yul\":2613:2622   */\n      mod\n        /* \"#utility.yul\":2608:2622   */\n      swap1\n      pop\n        /* \"#utility.yul\":2452:2628   */\n      swap3\n      swap2\n      pop\n      pop\n      jump\t// out\n        /* \"#utility.yul\":2634:2825   */\n    tag_27:\n        /* \"#utility.yul\":2674:2677   */\n      0x00\n        /* \"#utility.yul\":2693:2713   */\n      tag_68\n        /* \"#utility.yul\":2711:2712   */\n      dup3\n        /* \"#utility.yul\":2693:2713   */\n      tag_36\n      jump\t// in\n    tag_68:\n        /* \"#utility.yul\":2688:2713   */\n      swap2\n      pop\n        /* \"#utility.yul\":2727:2747   */\n      tag_69\n        /* \"#utility.yul\":2745:2746   */\n      dup4\n        /* \"#utility.yul\":2727:2747   */\n      tag_36\n      jump\t// in\n    tag_69:\n        /* \"#utility.yul\":2722:2747   */\n      swap3\n      pop\n        /* \"#utility.yul\":2770:2771   */\n      dup3\n        /* \"#utility.yul\":2767:2768   */\n      dup3\n        /* \"#utility.yul\":2763:2772   */\n      add\n        /* \"#utility.yul\":2756:2772   */\n      swap1\n      pop\n        /* \"#utility.yul\":2791:2794   */\n      dup1\n        /* \"#utility.yul\":2788:2789   */\n      dup3\n        /* \"#utility.yul\":2785:2795   */\n      gt\n        /* \"#utility.yul\":2782:2818   */\n      iszero\n      tag_70\n      jumpi\n        /* \"#utility.yul\":2798:2816   */\n      tag_71\n      tag_38\n      jump\t// in\n    tag_71:\n        /* \"#utility.yul\":2782:2818   */\n    tag_70:\n        /* \"#utility.yul\":2634:2825   */\n      swap3\n      swap2\n      pop\n      pop\n      jump\t// out\n\n    auxdata: 0xa26469706673582212203eb0e627d4ef9f49c258a86f524bc2d9eb53f1e11cf9cf276c3c4fb8ef3f0ea064736f6c63430008160033\n}\n",
				"bytecode": {
					"linkReferences": {},
					"object": "608060405260405161056b38038061056b83398181016040528101906100259190610109565b815f806101000a81548173ffffffffffffffffffffffffffffffffffffffff021916908373ffffffffffffffffffffffffffffffffffffffff1602179055508060015f6101000a81548173ffffffffffffffffffffffffffffffffffffffff021916908373ffffffffffffffffffffffffffffffffffffffff1602179055505050610147565b5f80fd5b5f73ffffffffffffffffffffffffffffffffffffffff82169050919050565b5f6100d8826100af565b9050919050565b6100e8816100ce565b81146100f2575f80fd5b50565b5f81519050610103816100df565b92915050565b5f806040838503121561011f5761011e6100ab565b5b5f61012c858286016100f5565b925050602061013d858286016100f5565b9150509250929050565b610417806101545f395ff3fe608060405260043610610033575f3560e01c80630688b13514610037578063aa3744bd14610061578063f76541761461008b575b5f80fd5b348015610042575f80fd5b5061004b610095565b604051610058919061025a565b60405180910390f35b34801561006c575f80fd5b506100756100ba565b604051610082919061025a565b60405180910390f35b6100936100dd565b005b60015f9054906101000a900473ffffffffffffffffffffffffffffffffffffffff1681565b5f8054906101000a900473ffffffffffffffffffffffffffffffffffffffff1681565b5f4790505f8111610123576040517f08c379a000000000000000000000000000000000000000000000000000000000815260040161011a906102cd565b60405180910390fd5b5f600282610131919061034e565b90505f600283610141919061037e565b90505f8054906101000a900473ffffffffffffffffffffffffffffffffffffffff1673ffffffffffffffffffffffffffffffffffffffff166108fc8390811502906040515f60405180830381858888f193505050501580156101a5573d5f803e3d5ffd5b5060015f9054906101000a900473ffffffffffffffffffffffffffffffffffffffff1673ffffffffffffffffffffffffffffffffffffffff166108fc82846101ed91906103ae565b90811502906040515f60405180830381858888f19350505050158015610215573d5f803e3d5ffd5b50505050565b5f73ffffffffffffffffffffffffffffffffffffffff82169050919050565b5f6102448261021b565b9050919050565b6102548161023a565b82525050565b5f60208201905061026d5f83018461024b565b92915050565b5f82825260208201905092915050565b7f4e6f2062616c616e636520617661696c61626c652e00000000000000000000005f82015250565b5f6102b7601583610273565b91506102c282610283565b602082019050919050565b5f6020820190508181035f8301526102e4816102ab565b9050919050565b5f819050919050565b7f4e487b71000000000000000000000000000000000000000000000000000000005f52601260045260245ffd5b7f4e487b71000000000000000000000000000000000000000000000000000000005f52601160045260245ffd5b5f610358826102eb565b9150610363836102eb565b925082610373576103726102f4565b5b828204905092915050565b5f610388826102eb565b9150610393836102eb565b9250826103a3576103a26102f4565b5b828206905092915050565b5f6103b8826102eb565b91506103c3836102eb565b92508282019050808211156103db576103da610321565b5b9291505056fea26469706673582212203eb0e627d4ef9f49c258a86f524bc2d9eb53f1e11cf9cf276c3c4fb8ef3f0ea064736f6c63430008160033",
					"opcodes": "PUSH1 0x80 PUSH1 0x40 MSTORE PUSH1 0x40 MLOAD PUSH2 0x56B CODESIZE SUB DUP1 PUSH2 0x56B DUP4 CODECOPY DUP2 DUP2 ADD PUSH1 0x40 MSTORE DUP2 ADD SWAP1 PUSH2 0x25 SWAP2 SWAP1 PUSH2 0x109 JUMP JUMPDEST DUP2 PUSH0 DUP1 PUSH2 0x100 EXP DUP2 SLOAD DUP2 PUSH20 0xFFFFFFFFFFFFFFFFFFFFFFFFFFFFFFFFFFFFFFFF MUL NOT AND SWAP1 DUP4 PUSH20 0xFFFFFFFFFFFFFFFFFFFFFFFFFFFFFFFFFFFFFFFF AND MUL OR SWAP1 SSTORE POP DUP1 PUSH1 0x1 PUSH0 PUSH2 0x100 EXP DUP2 SLOAD DUP2 PUSH20 0xFFFFFFFFFFFFFFFFFFFFFFFFFFFFFFFFFFFFFFFF MUL NOT AND SWAP1 DUP4 PUSH20 0xFFFFFFFFFFFFFFFFFFFFFFFFFFFFFFFFFFFFFFFF AND MUL OR SWAP1 SSTORE POP POP POP PUSH2 0x147 JUMP JUMPDEST PUSH0 DUP1 REVERT JUMPDEST PUSH0 PUSH20 0xFFFFFFFFFFFFFFFFFFFFFFFFFFFFFFFFFFFFFFFF DUP3 AND SWAP1 POP SWAP2 SWAP1 POP JUMP JUMPDEST PUSH0 PUSH2 0xD8 DUP3 PUSH2 0xAF JUMP JUMPDEST SWAP1 POP SWAP2 SWAP1 POP JUMP JUMPDEST PUSH2 0xE8 DUP2 PUSH2 0xCE JUMP JUMPDEST DUP2 EQ PUSH2 0xF2 JUMPI PUSH0 DUP1 REVERT JUMPDEST POP JUMP JUMPDEST PUSH0 DUP2 MLOAD SWAP1 POP PUSH2 0x103 DUP2 PUSH2 0xDF JUMP JUMPDEST SWAP3 SWAP2 POP POP JUMP JUMPDEST PUSH0 DUP1 PUSH1 0x40 DUP4 DUP6 SUB SLT ISZERO PUSH2 0x11F JUMPI PUSH2 0x11E PUSH2 0xAB JUMP JUMPDEST JUMPDEST PUSH0 PUSH2 0x12C DUP6 DUP3 DUP7 ADD PUSH2 0xF5 JUMP JUMPDEST SWAP3 POP POP PUSH1 0x20 PUSH2 0x13D DUP6 DUP3 DUP7 ADD PUSH2 0xF5 JUMP JUMPDEST SWAP2 POP POP SWAP3 POP SWAP3 SWAP1 POP JUMP JUMPDEST PUSH2 0x417 DUP1 PUSH2 0x154 PUSH0 CODECOPY PUSH0 RETURN INVALID PUSH1 0x80 PUSH1 0x40 MSTORE PUSH1 0x4 CALLDATASIZE LT PUSH2 0x33 JUMPI PUSH0 CALLDATALOAD PUSH1 0xE0 SHR DUP1 PUSH4 0x688B135 EQ PUSH2 0x37 JUMPI DUP1 PUSH4 0xAA3744BD EQ PUSH2 0x61 JUMPI DUP1 PUSH4 0xF7654176 EQ PUSH2 0x8B JUMPI JUMPDEST PUSH0 DUP1 REVERT JUMPDEST CALLVALUE DUP1 ISZERO PUSH2 0x42 JUMPI PUSH0 DUP1 REVERT JUMPDEST POP PUSH2 0x4B PUSH2 0x95 JUMP JUMPDEST PUSH1 0x40 MLOAD PUSH2 0x58 SWAP2 SWAP1 PUSH2 0x25A JUMP JUMPDEST PUSH1 0x40 MLOAD DUP1 SWAP2 SUB SWAP1 RETURN JUMPDEST CALLVALUE DUP1 ISZERO PUSH2 0x6C JUMPI PUSH0 DUP1 REVERT JUMPDEST POP PUSH2 0x75 PUSH2 0xBA JUMP JUMPDEST PUSH1 0x40 MLOAD PUSH2 0x82 SWAP2 SWAP1 PUSH2 0x25A JUMP JUMPDEST PUSH1 0x40 MLOAD DUP1 SWAP2 SUB SWAP1 RETURN JUMPDEST PUSH2 0x93 PUSH2 0xDD JUMP JUMPDEST STOP JUMPDEST PUSH1 0x1 PUSH0 SWAP1 SLOAD SWAP1 PUSH2 0x100 EXP SWAP1 DIV PUSH20 0xFFFFFFFFFFFFFFFFFFFFFFFFFFFFFFFFFFFFFFFF AND DUP2 JUMP JUMPDEST PUSH0 DUP1 SLOAD SWAP1 PUSH2 0x100 EXP SWAP1 DIV PUSH20 0xFFFFFFFFFFFFFFFFFFFFFFFFFFFFFFFFFFFFFFFF AND DUP2 JUMP JUMPDEST PUSH0 SELFBALANCE SWAP1 POP PUSH0 DUP2 GT PUSH2 0x123 JUMPI PUSH1 0x40 MLOAD PUSH32 0x8C379A000000000000000000000000000000000000000000000000000000000 DUP2 MSTORE PUSH1 0x4 ADD PUSH2 0x11A SWAP1 PUSH2 0x2CD JUMP JUMPDEST PUSH1 0x40 MLOAD DUP1 SWAP2 SUB SWAP1 REVERT JUMPDEST PUSH0 PUSH1 0x2 DUP3 PUSH2 0x131 SWAP2 SWAP1 PUSH2 0x34E JUMP JUMPDEST SWAP1 POP PUSH0 PUSH1 0x2 DUP4 PUSH2 0x141 SWAP2 SWAP1 PUSH2 0x37E JUMP JUMPDEST SWAP1 POP PUSH0 DUP1 SLOAD SWAP1 PUSH2 0x100 EXP SWAP1 DIV PUSH20 0xFFFFFFFFFFFFFFFFFFFFFFFFFFFFFFFFFFFFFFFF AND PUSH20 0xFFFFFFFFFFFFFFFFFFFFFFFFFFFFFFFFFFFFFFFF AND PUSH2 0x8FC DUP4 SWAP1 DUP2 ISZERO MUL SWAP1 PUSH1 0x40 MLOAD PUSH0 PUSH1 0x40 MLOAD DUP1 DUP4 SUB DUP2 DUP6 DUP9 DUP9 CALL SWAP4 POP POP POP POP ISZERO DUP1 ISZERO PUSH2 0x1A5 JUMPI RETURNDATASIZE PUSH0 DUP1 RETURNDATACOPY RETURNDATASIZE PUSH0 REVERT JUMPDEST POP PUSH1 0x1 PUSH0 SWAP1 SLOAD SWAP1 PUSH2 0x100 EXP SWAP1 DIV PUSH20 0xFFFFFFFFFFFFFFFFFFFFFFFFFFFFFFFFFFFFFFFF AND PUSH20 0xFFFFFFFFFFFFFFFFFFFFFFFFFFFFFFFFFFFFFFFF AND PUSH2 0x8FC DUP3 DUP5 PUSH2 0x1ED SWAP2 SWAP1 PUSH2 0x3AE JUMP JUMPDEST SWAP1 DUP2 ISZERO MUL SWAP1 PUSH1 0x40 MLOAD PUSH0 PUSH1 0x40 MLOAD DUP1 DUP4 SUB DUP2 DUP6 DUP9 DUP9 CALL SWAP4 POP POP POP POP ISZERO DUP1 ISZERO PUSH2 0x215 JUMPI RETURNDATASIZE PUSH0 DUP1 RETURNDATACOPY RETURNDATASIZE PUSH0 REVERT JUMPDEST POP POP POP POP JUMP JUMPDEST PUSH0 PUSH20 0xFFFFFFFFFFFFFFFFFFFFFFFFFFFFFFFFFFFFFFFF DUP3 AND SWAP1 POP SWAP2 SWAP1 POP JUMP JUMPDEST PUSH0 PUSH2 0x244 DUP3 PUSH2 0x21B JUMP JUMPDEST SWAP1 POP SWAP2 SWAP1 POP JUMP JUMPDEST PUSH2 0x254 DUP2 PUSH2 0x23A JUMP JUMPDEST DUP3 MSTORE POP POP JUMP JUMPDEST PUSH0 PUSH1 0x20 DUP3 ADD SWAP1 POP PUSH2 0x26D PUSH0 DUP4 ADD DUP5 PUSH2 0x24B JUMP JUMPDEST SWAP3 SWAP2 POP POP JUMP JUMPDEST PUSH0 DUP3 DUP3 MSTORE PUSH1 0x20 DUP3 ADD SWAP1 POP SWAP3 SWAP2 POP POP JUMP JUMPDEST PUSH32 0x4E6F2062616C616E636520617661696C61626C652E0000000000000000000000 PUSH0 DUP3 ADD MSTORE POP JUMP JUMPDEST PUSH0 PUSH2 0x2B7 PUSH1 0x15 DUP4 PUSH2 0x273 JUMP JUMPDEST SWAP2 POP PUSH2 0x2C2 DUP3 PUSH2 0x283 JUMP JUMPDEST PUSH1 0x20 DUP3 ADD SWAP1 POP SWAP2 SWAP1 POP JUMP JUMPDEST PUSH0 PUSH1 0x20 DUP3 ADD SWAP1 POP DUP2 DUP2 SUB PUSH0 DUP4 ADD MSTORE PUSH2 0x2E4 DUP2 PUSH2 0x2AB JUMP JUMPDEST SWAP1 POP SWAP2 SWAP1 POP JUMP JUMPDEST PUSH0 DUP2 SWAP1 POP SWAP2 SWAP1 POP JUMP JUMPDEST PUSH32 0x4E487B7100000000000000000000000000000000000000000000000000000000 PUSH0 MSTORE PUSH1 0x12 PUSH1 0x4 MSTORE PUSH1 0x24 PUSH0 REVERT JUMPDEST PUSH32 0x4E487B7100000000000000000000000000000000000000000000000000000000 PUSH0 MSTORE PUSH1 0x11 PUSH1 0x4 MSTORE PUSH1 0x24 PUSH0 REVERT JUMPDEST PUSH0 PUSH2 0x358 DUP3 PUSH2 0x2EB JUMP JUMPDEST SWAP2 POP PUSH2 0x363 DUP4 PUSH2 0x2EB JUMP JUMPDEST SWAP3 POP DUP3 PUSH2 0x373 JUMPI PUSH2 0x372 PUSH2 0x2F4 JUMP JUMPDEST JUMPDEST DUP3 DUP3 DIV SWAP1 POP SWAP3 SWAP2 POP POP JUMP JUMPDEST PUSH0 PUSH2 0x388 DUP3 PUSH2 0x2EB JUMP JUMPDEST SWAP2 POP PUSH2 0x393 DUP4 PUSH2 0x2EB JUMP JUMPDEST SWAP3 POP DUP3 PUSH2 0x3A3 JUMPI PUSH2 0x3A2 PUSH2 0x2F4 JUMP JUMPDEST JUMPDEST DUP3 DUP3 MOD SWAP1 POP SWAP3 SWAP2 POP POP JUMP JUMPDEST PUSH0 PUSH2 0x3B8 DUP3 PUSH2 0x2EB JUMP JUMPDEST SWAP2 POP PUSH2 0x3C3 DUP4 PUSH2 0x2EB JUMP JUMPDEST SWAP3 POP DUP3 DUP3 ADD SWAP1 POP DUP1 DUP3 GT ISZERO PUSH2 0x3DB JUMPI PUSH2 0x3DA PUSH2 0x321 JUMP JUMPDEST JUMPDEST SWAP3 SWAP2 POP POP JUMP INVALID LOG2 PUSH5 0x6970667358 0x22 SLT KECCAK256 RETURNDATACOPY 0xB0 0xE6 0x27 0xD4 0xEF SWAP16 0x49 0xC2 PC 0xA8 PUSH16 0x524BC2D9EB53F1E11CF9CF276C3C4FB8 0xEF EXTCODEHASH 0xE LOG0 PUSH5 0x736F6C6343 STOP ADDMOD AND STOP CALLER "
				},
				"gasEstimates": {
					"creation": {
						"codeDepositCost": "209400",
						"executionCost": "infinite",
						"totalCost": "infinite"
					},
					"external": {
						"recipient1()": "2505",
						"recipient2()": "2486",
						"split()": "infinite"
					}
				},
				"methodIdentifiers": {
					"recipient1()": "aa3744bd",
					"recipient2()": "0688b135",
					"split()": "f7654176"
				}
			},
			"storageLayout": {
				"storage": [
					{
						"astId": 3,
						"contract": "Split.sol:PaymentSplitter",
						"label": "recipient1",
						"offset": 0,
						"slot": "0",
						"type": "t_address_payable"
					},
					{
						"astId": 5,
						"contract": "Split.sol:PaymentSplitter",
						"label": "recipient2",
						"offset": 0,
						"slot": "1",
						"type": "t_address_payable"
					}
				],
				"types": {
					"t_address_payable": {
						"encoding": "inplace",
						"label": "address payable",
						"numberOfBytes": "20"
					}
				}
			},
			"userdoc": {
				"kind": "user",
				"methods": {},
				"version": 1
			}
		}
	}
}