{
	"BirdMarketPlace.sol": {
		"BirdMarketPlace": {
			"abi": [
				{
					"inputs": [
						{
							"internalType": "address",
							"name": "initialOwner",
							"type": "address"
						},
						{
							"internalType": "contract IERC20",
							"name": "token",
							"type": "address"
						},
						{
							"internalType": "contract IERC721Enumerable",
							"name": "nft",
							"type": "address"
						}
					],
					"stateMutability": "nonpayable",
					"type": "constructor"
				},
				{
					"inputs": [
						{
							"internalType": "address",
							"name": "target",
							"type": "address"
						}
					],
					"name": "AddressEmptyCode",
					"type": "error"
				},
				{
					"inputs": [
						{
							"internalType": "address",
							"name": "account",
							"type": "address"
						}
					],
					"name": "AddressInsufficientBalance",
					"type": "error"
				},
				{
					"inputs": [],
					"name": "FailedInnerCall",
					"type": "error"
				},
				{
					"inputs": [
						{
							"internalType": "address",
							"name": "owner",
							"type": "address"
						}
					],
					"name": "OwnableInvalidOwner",
					"type": "error"
				},
				{
					"inputs": [
						{
							"internalType": "address",
							"name": "account",
							"type": "address"
						}
					],
					"name": "OwnableUnauthorizedAccount",
					"type": "error"
				},
				{
					"inputs": [
						{
							"internalType": "address",
							"name": "token",
							"type": "address"
						}
					],
					"name": "SafeERC20FailedOperation",
					"type": "error"
				},
				{
					"anonymous": false,
					"inputs": [
						{
							"indexed": true,
							"internalType": "address",
							"name": "from",
							"type": "address"
						},
						{
							"indexed": false,
							"internalType": "uint256",
							"name": "tokenId",
							"type": "uint256"
						},
						{
							"indexed": false,
							"internalType": "uint256",
							"name": "price",
							"type": "uint256"
						}
					],
					"name": "BuyNFT",
					"type": "event"
				},
				{
					"anonymous": false,
					"inputs": [
						{
							"indexed": true,
							"internalType": "address",
							"name": "from",
							"type": "address"
						},
						{
							"indexed": false,
							"internalType": "uint256",
							"name": "tokenId",
							"type": "uint256"
						},
						{
							"indexed": false,
							"internalType": "uint256",
							"name": "price",
							"type": "uint256"
						}
					],
					"name": "ListNFT",
					"type": "event"
				},
				{
					"anonymous": false,
					"inputs": [
						{
							"indexed": true,
							"internalType": "address",
							"name": "previousOwner",
							"type": "address"
						},
						{
							"indexed": true,
							"internalType": "address",
							"name": "newOwner",
							"type": "address"
						}
					],
					"name": "OwnershipTransferred",
					"type": "event"
				},
				{
					"anonymous": false,
					"inputs": [
						{
							"indexed": false,
							"internalType": "contract IERC721Enumerable",
							"name": "nft",
							"type": "address"
						}
					],
					"name": "SetNFT",
					"type": "event"
				},
				{
					"anonymous": false,
					"inputs": [
						{
							"indexed": false,
							"internalType": "uint256",
							"name": "tax",
							"type": "uint256"
						}
					],
					"name": "SetTax",
					"type": "event"
				},
				{
					"anonymous": false,
					"inputs": [
						{
							"indexed": false,
							"internalType": "contract IERC20",
							"name": "token",
							"type": "address"
						}
					],
					"name": "SetToken",
					"type": "event"
				},
				{
					"anonymous": false,
					"inputs": [
						{
							"indexed": true,
							"internalType": "address",
							"name": "from",
							"type": "address"
						},
						{
							"indexed": false,
							"internalType": "uint256",
							"name": "tokenId",
							"type": "uint256"
						}
					],
					"name": "UnlistNFT",
					"type": "event"
				},
				{
					"anonymous": false,
					"inputs": [
						{
							"indexed": false,
							"internalType": "uint256",
							"name": "tokenId",
							"type": "uint256"
						},
						{
							"indexed": false,
							"internalType": "uint256",
							"name": "price",
							"type": "uint256"
						}
					],
					"name": "UpdateListingNFTPrice",
					"type": "event"
				},
				{
					"inputs": [
						{
							"internalType": "uint256",
							"name": "tokenId",
							"type": "uint256"
						},
						{
							"internalType": "uint256",
							"name": "price",
							"type": "uint256"
						}
					],
					"name": "buyNft",
					"outputs": [],
					"stateMutability": "nonpayable",
					"type": "function"
				},
				{
					"inputs": [],
					"name": "getListedNft",
					"outputs": [
						{
							"components": [
								{
									"internalType": "address payable",
									"name": "author",
									"type": "address"
								},
								{
									"internalType": "uint256",
									"name": "price",
									"type": "uint256"
								},
								{
									"internalType": "uint256",
									"name": "tokenId",
									"type": "uint256"
								}
							],
							"internalType": "struct BirdMarketPlace.ListDetail[]",
							"name": "",
							"type": "tuple[]"
						}
					],
					"stateMutability": "view",
					"type": "function"
				},
				{
					"inputs": [
						{
							"internalType": "uint256",
							"name": "tokenId",
							"type": "uint256"
						},
						{
							"internalType": "uint256",
							"name": "price",
							"type": "uint256"
						}
					],
					"name": "listNft",
					"outputs": [],
					"stateMutability": "nonpayable",
					"type": "function"
				},
				{
					"inputs": [
						{
							"internalType": "address",
							"name": "",
							"type": "address"
						},
						{
							"internalType": "address",
							"name": "",
							"type": "address"
						},
						{
							"internalType": "uint256",
							"name": "",
							"type": "uint256"
						},
						{
							"internalType": "bytes",
							"name": "",
							"type": "bytes"
						}
					],
					"name": "onERC721Received",
					"outputs": [
						{
							"internalType": "bytes4",
							"name": "",
							"type": "bytes4"
						}
					],
					"stateMutability": "pure",
					"type": "function"
				},
				{
					"inputs": [],
					"name": "owner",
					"outputs": [
						{
							"internalType": "address",
							"name": "",
							"type": "address"
						}
					],
					"stateMutability": "view",
					"type": "function"
				},
				{
					"inputs": [],
					"name": "renounceOwnership",
					"outputs": [],
					"stateMutability": "nonpayable",
					"type": "function"
				},
				{
					"inputs": [
						{
							"internalType": "contract IERC721Enumerable",
							"name": "nft",
							"type": "address"
						}
					],
					"name": "setNft",
					"outputs": [],
					"stateMutability": "nonpayable",
					"type": "function"
				},
				{
					"inputs": [
						{
							"internalType": "uint256",
							"name": "tax",
							"type": "uint256"
						}
					],
					"name": "setTax",
					"outputs": [],
					"stateMutability": "nonpayable",
					"type": "function"
				},
				{
					"inputs": [
						{
							"internalType": "contract IERC20",
							"name": "token",
							"type": "address"
						}
					],
					"name": "setToken",
					"outputs": [],
					"stateMutability": "nonpayable",
					"type": "function"
				},
				{
					"inputs": [
						{
							"internalType": "address",
							"name": "newOwner",
							"type": "address"
						}
					],
					"name": "transferOwnership",
					"outputs": [],
					"stateMutability": "nonpayable",
					"type": "function"
				},
				{
					"inputs": [
						{
							"internalType": "uint256",
							"name": "tokenId",
							"type": "uint256"
						}
					],
					"name": "unlistNft",
					"outputs": [],
					"stateMutability": "nonpayable",
					"type": "function"
				},
				{
					"inputs": [
						{
							"internalType": "uint256",
							"name": "tokenId",
							"type": "uint256"
						},
						{
							"internalType": "uint256",
							"name": "new_price",
							"type": "uint256"
						}
					],
					"name": "updateListingNftPrice",
					"outputs": [],
					"stateMutability": "nonpayable",
					"type": "function"
				},
				{
					"inputs": [],
					"name": "withdraw",
					"outputs": [],
					"stateMutability": "nonpayable",
					"type": "function"
				},
				{
					"inputs": [],
					"name": "withdrawErc20",
					"outputs": [],
					"stateMutability": "nonpayable",
					"type": "function"
				},
				{
					"inputs": [
						{
							"internalType": "uint256",
							"name": "amount",
							"type": "uint256"
						}
					],
					"name": "withdrawToken",
					"outputs": [],
					"stateMutability": "nonpayable",
					"type": "function"
				}
			],
			"devdoc": {
				"errors": {
					"AddressEmptyCode(address)": [
						{
							"details": "There's no code at `target` (it is not a contract)."
						}
					],
					"AddressInsufficientBalance(address)": [
						{
							"details": "The ETH balance of the account is not enough to perform the operation."
						}
					],
					"FailedInnerCall()": [
						{
							"details": "A call to an address target failed. The target may have reverted."
						}
					],
					"OwnableInvalidOwner(address)": [
						{
							"details": "The owner is not a valid owner account. (eg. `address(0)`)"
						}
					],
					"OwnableUnauthorizedAccount(address)": [
						{
							"details": "The caller account is not authorized to perform an operation."
						}
					],
					"SafeERC20FailedOperation(address)": [
						{
							"details": "An operation with an ERC20 token failed."
						}
					]
				},
				"kind": "dev",
				"methods": {
					"owner()": {
						"details": "Returns the address of the current owner."
					},
					"renounceOwnership()": {
						"details": "Leaves the contract without owner. It will not be possible to call `onlyOwner` functions. Can only be called by the current owner. NOTE: Renouncing ownership will leave the contract without an owner, thereby disabling any functionality that is only available to the owner."
					},
					"transferOwnership(address)": {
						"details": "Transfers ownership of the contract to a new account (`newOwner`). Can only be called by the current owner."
					}
				},
				"version": 1
			},
			"evm": {
				"assembly": "    /* \"BirdMarketPlace.sol\":389:4887  contract BirdMarketPlace is IERC721Receiver, Ownable {... */\n  mstore(0x40, 0x80)\n    /* \"BirdMarketPlace.sol\":566:568  10 */\n  0x0a\n    /* \"BirdMarketPlace.sol\":543:568  uint256 private _tax = 10 */\n  0x03\n  sstore\n    /* \"BirdMarketPlace.sol\":1125:1299  constructor(... */\n  callvalue\n  dup1\n  iszero\n  tag_1\n  jumpi\n  0x00\n  dup1\n  revert\ntag_1:\n  pop\n  mload(0x40)\n  sub(codesize, bytecodeSize)\n  dup1\n  bytecodeSize\n  dup4\n  codecopy\n  dup2\n  dup2\n  add\n  0x40\n  mstore\n  dup2\n  add\n  swap1\n  tag_2\n  swap2\n  swap1\n  tag_3\n  jump\t// in\ntag_2:\n    /* \"BirdMarketPlace.sol\":1234:1246  initialOwner */\n  dup3\n    /* \"@openzeppelin/contracts/access/Ownable.sol\":1297:1298  0 */\n  0x00\n    /* \"@openzeppelin/contracts/access/Ownable.sol\":1273:1299  initialOwner == address(0) */\n  0xffffffffffffffffffffffffffffffffffffffff\n  and\n    /* \"@openzeppelin/contracts/access/Ownable.sol\":1273:1285  initialOwner */\n  dup2\n    /* \"@openzeppelin/contracts/access/Ownable.sol\":1273:1299  initialOwner == address(0) */\n  0xffffffffffffffffffffffffffffffffffffffff\n  and\n  sub\n    /* \"@openzeppelin/contracts/access/Ownable.sol\":1269:1364  if (initialOwner == address(0)) {... */\n  tag_7\n  jumpi\n    /* \"@openzeppelin/contracts/access/Ownable.sol\":1350:1351  0 */\n  0x00\n    /* \"@openzeppelin/contracts/access/Ownable.sol\":1322:1353  OwnableInvalidOwner(address(0)) */\n  mload(0x40)\n  0x1e4fbdf700000000000000000000000000000000000000000000000000000000\n  dup2\n  mstore\n  0x04\n  add\n  tag_8\n  swap2\n  swap1\n  tag_9\n  jump\t// in\ntag_8:\n  mload(0x40)\n  dup1\n  swap2\n  sub\n  swap1\n  revert\n    /* \"@openzeppelin/contracts/access/Ownable.sol\":1269:1364  if (initialOwner == address(0)) {... */\ntag_7:\n    /* \"@openzeppelin/contracts/access/Ownable.sol\":1373:1405  _transferOwnership(initialOwner) */\n  tag_10\n    /* \"@openzeppelin/contracts/access/Ownable.sol\":1392:1404  initialOwner */\n  dup2\n    /* \"@openzeppelin/contracts/access/Ownable.sol\":1373:1391  _transferOwnership */\n  shl(0x20, tag_11)\n    /* \"@openzeppelin/contracts/access/Ownable.sol\":1373:1405  _transferOwnership(initialOwner) */\n  0x20\n  shr\n  jump\t// in\ntag_10:\n    /* \"@openzeppelin/contracts/access/Ownable.sol\":1225:1412  constructor(address initialOwner) {... */\n  pop\n    /* \"BirdMarketPlace.sol\":1267:1272  token */\n  dup2\n    /* \"BirdMarketPlace.sol\":1258:1264  _token */\n  0x02\n  0x00\n    /* \"BirdMarketPlace.sol\":1258:1272  _token = token */\n  0x0100\n  exp\n  dup2\n  sload\n  dup2\n  0xffffffffffffffffffffffffffffffffffffffff\n  mul\n  not\n  and\n  swap1\n  dup4\n  0xffffffffffffffffffffffffffffffffffffffff\n  and\n  mul\n  or\n  swap1\n  sstore\n  pop\n    /* \"BirdMarketPlace.sol\":1289:1292  nft */\n  dup1\n    /* \"BirdMarketPlace.sol\":1282:1286  _nft */\n  0x01\n  0x00\n    /* \"BirdMarketPlace.sol\":1282:1292  _nft = nft */\n  0x0100\n  exp\n  dup2\n  sload\n  dup2\n  0xffffffffffffffffffffffffffffffffffffffff\n  mul\n  not\n  and\n  swap1\n  dup4\n  0xffffffffffffffffffffffffffffffffffffffff\n  and\n  mul\n  or\n  swap1\n  sstore\n  pop\n    /* \"BirdMarketPlace.sol\":1125:1299  constructor(... */\n  pop\n  pop\n  pop\n    /* \"BirdMarketPlace.sol\":389:4887  contract BirdMarketPlace is IERC721Receiver, Ownable {... */\n  jump(tag_13)\n    /* \"@openzeppelin/contracts/access/Ownable.sol\":2912:3099  function _transferOwnership(address newOwner) internal virtual {... */\ntag_11:\n    /* \"@openzeppelin/contracts/access/Ownable.sol\":2985:3001  address oldOwner */\n  0x00\n    /* \"@openzeppelin/contracts/access/Ownable.sol\":3004:3010  _owner */\n  dup1\n  0x00\n  swap1\n  sload\n  swap1\n  0x0100\n  exp\n  swap1\n  div\n  0xffffffffffffffffffffffffffffffffffffffff\n  and\n    /* \"@openzeppelin/contracts/access/Ownable.sol\":2985:3010  address oldOwner = _owner */\n  swap1\n  pop\n    /* \"@openzeppelin/contracts/access/Ownable.sol\":3029:3037  newOwner */\n  dup2\n    /* \"@openzeppelin/contracts/access/Ownable.sol\":3020:3026  _owner */\n  0x00\n  dup1\n    /* \"@openzeppelin/contracts/access/Ownable.sol\":3020:3037  _owner = newOwner */\n  0x0100\n  exp\n  dup2\n  sload\n  dup2\n  0xffffffffffffffffffffffffffffffffffffffff\n  mul\n  not\n  and\n  swap1\n  dup4\n  0xffffffffffffffffffffffffffffffffffffffff\n  and\n  mul\n  or\n  swap1\n  sstore\n  pop\n    /* \"@openzeppelin/contracts/access/Ownable.sol\":3083:3091  newOwner */\n  dup2\n    /* \"@openzeppelin/contracts/access/Ownable.sol\":3052:3092  OwnershipTransferred(oldOwner, newOwner) */\n  0xffffffffffffffffffffffffffffffffffffffff\n  and\n    /* \"@openzeppelin/contracts/access/Ownable.sol\":3073:3081  oldOwner */\n  dup2\n    /* \"@openzeppelin/contracts/access/Ownable.sol\":3052:3092  OwnershipTransferred(oldOwner, newOwner) */\n  0xffffffffffffffffffffffffffffffffffffffff\n  and\n  0x8be0079c531659141344cd1fd0a4f28419497f9722a3daafe3b4186f6b6457e0\n  mload(0x40)\n  mload(0x40)\n  dup1\n  swap2\n  sub\n  swap1\n  log3\n    /* \"@openzeppelin/contracts/access/Ownable.sol\":2975:3099  {... */\n  pop\n    /* \"@openzeppelin/contracts/access/Ownable.sol\":2912:3099  function _transferOwnership(address newOwner) internal virtual {... */\n  pop\n  jump\t// out\n    /* \"#utility.yul\":88:205   */\ntag_16:\n    /* \"#utility.yul\":197:198   */\n  0x00\n    /* \"#utility.yul\":194:195   */\n  dup1\n    /* \"#utility.yul\":187:199   */\n  revert\n    /* \"#utility.yul\":334:460   */\ntag_18:\n    /* \"#utility.yul\":371:378   */\n  0x00\n    /* \"#utility.yul\":411:453   */\n  0xffffffffffffffffffffffffffffffffffffffff\n    /* \"#utility.yul\":404:409   */\n  dup3\n    /* \"#utility.yul\":400:454   */\n  and\n    /* \"#utility.yul\":389:454   */\n  swap1\n  pop\n    /* \"#utility.yul\":334:460   */\n  swap2\n  swap1\n  pop\n  jump\t// out\n    /* \"#utility.yul\":466:562   */\ntag_19:\n    /* \"#utility.yul\":503:510   */\n  0x00\n    /* \"#utility.yul\":532:556   */\n  tag_35\n    /* \"#utility.yul\":550:555   */\n  dup3\n    /* \"#utility.yul\":532:556   */\n  tag_18\n  jump\t// in\ntag_35:\n    /* \"#utility.yul\":521:556   */\n  swap1\n  pop\n    /* \"#utility.yul\":466:562   */\n  swap2\n  swap1\n  pop\n  jump\t// out\n    /* \"#utility.yul\":568:690   */\ntag_20:\n    /* \"#utility.yul\":641:665   */\n  tag_37\n    /* \"#utility.yul\":659:664   */\n  dup2\n    /* \"#utility.yul\":641:665   */\n  tag_19\n  jump\t// in\ntag_37:\n    /* \"#utility.yul\":634:639   */\n  dup2\n    /* \"#utility.yul\":631:666   */\n  eq\n    /* \"#utility.yul\":621:684   */\n  tag_38\n  jumpi\n    /* \"#utility.yul\":680:681   */\n  0x00\n    /* \"#utility.yul\":677:678   */\n  dup1\n    /* \"#utility.yul\":670:682   */\n  revert\n    /* \"#utility.yul\":621:684   */\ntag_38:\n    /* \"#utility.yul\":568:690   */\n  pop\n  jump\t// out\n    /* \"#utility.yul\":696:839   */\ntag_21:\n    /* \"#utility.yul\":753:758   */\n  0x00\n    /* \"#utility.yul\":784:790   */\n  dup2\n    /* \"#utility.yul\":778:791   */\n  mload\n    /* \"#utility.yul\":769:791   */\n  swap1\n  pop\n    /* \"#utility.yul\":800:833   */\n  tag_40\n    /* \"#utility.yul\":827:832   */\n  dup2\n    /* \"#utility.yul\":800:833   */\n  tag_20\n  jump\t// in\ntag_40:\n    /* \"#utility.yul\":696:839   */\n  swap3\n  swap2\n  pop\n  pop\n  jump\t// out\n    /* \"#utility.yul\":845:955   */\ntag_22:\n    /* \"#utility.yul\":896:903   */\n  0x00\n    /* \"#utility.yul\":925:949   */\n  tag_42\n    /* \"#utility.yul\":943:948   */\n  dup3\n    /* \"#utility.yul\":925:949   */\n  tag_19\n  jump\t// in\ntag_42:\n    /* \"#utility.yul\":914:949   */\n  swap1\n  pop\n    /* \"#utility.yul\":845:955   */\n  swap2\n  swap1\n  pop\n  jump\t// out\n    /* \"#utility.yul\":961:1111   */\ntag_23:\n    /* \"#utility.yul\":1048:1086   */\n  tag_44\n    /* \"#utility.yul\":1080:1085   */\n  dup2\n    /* \"#utility.yul\":1048:1086   */\n  tag_22\n  jump\t// in\ntag_44:\n    /* \"#utility.yul\":1041:1046   */\n  dup2\n    /* \"#utility.yul\":1038:1087   */\n  eq\n    /* \"#utility.yul\":1028:1105   */\n  tag_45\n  jumpi\n    /* \"#utility.yul\":1101:1102   */\n  0x00\n    /* \"#utility.yul\":1098:1099   */\n  dup1\n    /* \"#utility.yul\":1091:1103   */\n  revert\n    /* \"#utility.yul\":1028:1105   */\ntag_45:\n    /* \"#utility.yul\":961:1111   */\n  pop\n  jump\t// out\n    /* \"#utility.yul\":1117:1288   */\ntag_24:\n    /* \"#utility.yul\":1188:1193   */\n  0x00\n    /* \"#utility.yul\":1219:1225   */\n  dup2\n    /* \"#utility.yul\":1213:1226   */\n  mload\n    /* \"#utility.yul\":1204:1226   */\n  swap1\n  pop\n    /* \"#utility.yul\":1235:1282   */\n  tag_47\n    /* \"#utility.yul\":1276:1281   */\n  dup2\n    /* \"#utility.yul\":1235:1282   */\n  tag_23\n  jump\t// in\ntag_47:\n    /* \"#utility.yul\":1117:1288   */\n  swap3\n  swap2\n  pop\n  pop\n  jump\t// out\n    /* \"#utility.yul\":1294:1415   */\ntag_25:\n    /* \"#utility.yul\":1356:1363   */\n  0x00\n    /* \"#utility.yul\":1385:1409   */\n  tag_49\n    /* \"#utility.yul\":1403:1408   */\n  dup3\n    /* \"#utility.yul\":1385:1409   */\n  tag_19\n  jump\t// in\ntag_49:\n    /* \"#utility.yul\":1374:1409   */\n  swap1\n  pop\n    /* \"#utility.yul\":1294:1415   */\n  swap2\n  swap1\n  pop\n  jump\t// out\n    /* \"#utility.yul\":1421:1593   */\ntag_26:\n    /* \"#utility.yul\":1519:1568   */\n  tag_51\n    /* \"#utility.yul\":1562:1567   */\n  dup2\n    /* \"#utility.yul\":1519:1568   */\n  tag_25\n  jump\t// in\ntag_51:\n    /* \"#utility.yul\":1512:1517   */\n  dup2\n    /* \"#utility.yul\":1509:1569   */\n  eq\n    /* \"#utility.yul\":1499:1587   */\n  tag_52\n  jumpi\n    /* \"#utility.yul\":1583:1584   */\n  0x00\n    /* \"#utility.yul\":1580:1581   */\n  dup1\n    /* \"#utility.yul\":1573:1585   */\n  revert\n    /* \"#utility.yul\":1499:1587   */\ntag_52:\n    /* \"#utility.yul\":1421:1593   */\n  pop\n  jump\t// out\n    /* \"#utility.yul\":1599:1792   */\ntag_27:\n    /* \"#utility.yul\":1681:1686   */\n  0x00\n    /* \"#utility.yul\":1712:1718   */\n  dup2\n    /* \"#utility.yul\":1706:1719   */\n  mload\n    /* \"#utility.yul\":1697:1719   */\n  swap1\n  pop\n    /* \"#utility.yul\":1728:1786   */\n  tag_54\n    /* \"#utility.yul\":1780:1785   */\n  dup2\n    /* \"#utility.yul\":1728:1786   */\n  tag_26\n  jump\t// in\ntag_54:\n    /* \"#utility.yul\":1599:1792   */\n  swap3\n  swap2\n  pop\n  pop\n  jump\t// out\n    /* \"#utility.yul\":1798:2539   */\ntag_3:\n    /* \"#utility.yul\":1925:1931   */\n  0x00\n    /* \"#utility.yul\":1933:1939   */\n  dup1\n    /* \"#utility.yul\":1941:1947   */\n  0x00\n    /* \"#utility.yul\":1990:1992   */\n  0x60\n    /* \"#utility.yul\":1978:1987   */\n  dup5\n    /* \"#utility.yul\":1969:1976   */\n  dup7\n    /* \"#utility.yul\":1965:1988   */\n  sub\n    /* \"#utility.yul\":1961:1993   */\n  slt\n    /* \"#utility.yul\":1958:2077   */\n  iszero\n  tag_56\n  jumpi\n    /* \"#utility.yul\":1996:2075   */\n  tag_57\n  tag_16\n  jump\t// in\ntag_57:\n    /* \"#utility.yul\":1958:2077   */\ntag_56:\n    /* \"#utility.yul\":2116:2117   */\n  0x00\n    /* \"#utility.yul\":2141:2205   */\n  tag_58\n    /* \"#utility.yul\":2197:2204   */\n  dup7\n    /* \"#utility.yul\":2188:2194   */\n  dup3\n    /* \"#utility.yul\":2177:2186   */\n  dup8\n    /* \"#utility.yul\":2173:2195   */\n  add\n    /* \"#utility.yul\":2141:2205   */\n  tag_21\n  jump\t// in\ntag_58:\n    /* \"#utility.yul\":2131:2205   */\n  swap4\n  pop\n    /* \"#utility.yul\":2087:2215   */\n  pop\n    /* \"#utility.yul\":2254:2256   */\n  0x20\n    /* \"#utility.yul\":2280:2358   */\n  tag_59\n    /* \"#utility.yul\":2350:2357   */\n  dup7\n    /* \"#utility.yul\":2341:2347   */\n  dup3\n    /* \"#utility.yul\":2330:2339   */\n  dup8\n    /* \"#utility.yul\":2326:2348   */\n  add\n    /* \"#utility.yul\":2280:2358   */\n  tag_24\n  jump\t// in\ntag_59:\n    /* \"#utility.yul\":2270:2358   */\n  swap3\n  pop\n    /* \"#utility.yul\":2225:2368   */\n  pop\n    /* \"#utility.yul\":2407:2409   */\n  0x40\n    /* \"#utility.yul\":2433:2522   */\n  tag_60\n    /* \"#utility.yul\":2514:2521   */\n  dup7\n    /* \"#utility.yul\":2505:2511   */\n  dup3\n    /* \"#utility.yul\":2494:2503   */\n  dup8\n    /* \"#utility.yul\":2490:2512   */\n  add\n    /* \"#utility.yul\":2433:2522   */\n  tag_27\n  jump\t// in\ntag_60:\n    /* \"#utility.yul\":2423:2522   */\n  swap2\n  pop\n    /* \"#utility.yul\":2378:2532   */\n  pop\n    /* \"#utility.yul\":1798:2539   */\n  swap3\n  pop\n  swap3\n  pop\n  swap3\n  jump\t// out\n    /* \"#utility.yul\":2545:2663   */\ntag_28:\n    /* \"#utility.yul\":2632:2656   */\n  tag_62\n    /* \"#utility.yul\":2650:2655   */\n  dup2\n    /* \"#utility.yul\":2632:2656   */\n  tag_19\n  jump\t// in\ntag_62:\n    /* \"#utility.yul\":2627:2630   */\n  dup3\n    /* \"#utility.yul\":2620:2657   */\n  mstore\n    /* \"#utility.yul\":2545:2663   */\n  pop\n  pop\n  jump\t// out\n    /* \"#utility.yul\":2669:2891   */\ntag_9:\n    /* \"#utility.yul\":2762:2766   */\n  0x00\n    /* \"#utility.yul\":2800:2802   */\n  0x20\n    /* \"#utility.yul\":2789:2798   */\n  dup3\n    /* \"#utility.yul\":2785:2803   */\n  add\n    /* \"#utility.yul\":2777:2803   */\n  swap1\n  pop\n    /* \"#utility.yul\":2813:2884   */\n  tag_64\n    /* \"#utility.yul\":2881:2882   */\n  0x00\n    /* \"#utility.yul\":2870:2879   */\n  dup4\n    /* \"#utility.yul\":2866:2883   */\n  add\n    /* \"#utility.yul\":2857:2863   */\n  dup5\n    /* \"#utility.yul\":2813:2884   */\n  tag_28\n  jump\t// in\ntag_64:\n    /* \"#utility.yul\":2669:2891   */\n  swap3\n  swap2\n  pop\n  pop\n  jump\t// out\n    /* \"BirdMarketPlace.sol\":389:4887  contract BirdMarketPlace is IERC721Receiver, Ownable {... */\ntag_13:\n  dataSize(sub_0)\n  dup1\n  dataOffset(sub_0)\n  0x00\n  codecopy\n  0x00\n  return\nstop\n\nsub_0: assembly {\n        /* \"BirdMarketPlace.sol\":389:4887  contract BirdMarketPlace is IERC721Receiver, Ownable {... */\n      mstore(0x40, 0x80)\n      callvalue\n      dup1\n      iszero\n      tag_1\n      jumpi\n      0x00\n      dup1\n      revert\n    tag_1:\n      pop\n      jumpi(tag_2, lt(calldatasize, 0x04))\n      shr(0xe0, calldataload(0x00))\n      dup1\n      0x556f8084\n      gt\n      tag_18\n      jumpi\n      dup1\n      0x9e75689c\n      gt\n      tag_19\n      jumpi\n      dup1\n      0x9e75689c\n      eq\n      tag_14\n      jumpi\n      dup1\n      0xf2fde38b\n      eq\n      tag_15\n      jumpi\n      dup1\n      0xf3c13387\n      eq\n      tag_16\n      jumpi\n      dup1\n      0xfe8723e1\n      eq\n      tag_17\n      jumpi\n      jump(tag_2)\n    tag_19:\n      dup1\n      0x556f8084\n      eq\n      tag_10\n      jumpi\n      dup1\n      0x715018a6\n      eq\n      tag_11\n      jumpi\n      dup1\n      0x7a53fde6\n      eq\n      tag_12\n      jumpi\n      dup1\n      0x8da5cb5b\n      eq\n      tag_13\n      jumpi\n      jump(tag_2)\n    tag_18:\n      dup1\n      0x3ccfd60b\n      gt\n      tag_20\n      jumpi\n      dup1\n      0x3ccfd60b\n      eq\n      tag_6\n      jumpi\n      dup1\n      0x3e3f2359\n      eq\n      tag_7\n      jumpi\n      dup1\n      0x50baa622\n      eq\n      tag_8\n      jumpi\n      dup1\n      0x51646869\n      eq\n      tag_9\n      jumpi\n      jump(tag_2)\n    tag_20:\n      dup1\n      0x144fa6d7\n      eq\n      tag_3\n      jumpi\n      dup1\n      0x150b7a02\n      eq\n      tag_4\n      jumpi\n      dup1\n      0x2e5bb6ff\n      eq\n      tag_5\n      jumpi\n    tag_2:\n      0x00\n      dup1\n      revert\n        /* \"BirdMarketPlace.sol\":1410:1520  function setToken(IERC20 token) public onlyOwner {... */\n    tag_3:\n      tag_21\n      0x04\n      dup1\n      calldatasize\n      sub\n      dup2\n      add\n      swap1\n      tag_22\n      swap2\n      swap1\n      tag_23\n      jump\t// in\n    tag_22:\n      tag_24\n      jump\t// in\n    tag_21:\n      stop\n        /* \"BirdMarketPlace.sol\":4673:4885  function onERC721Received(... */\n    tag_4:\n      tag_25\n      0x04\n      dup1\n      calldatasize\n      sub\n      dup2\n      add\n      swap1\n      tag_26\n      swap2\n      swap1\n      tag_27\n      jump\t// in\n    tag_26:\n      tag_28\n      jump\t// in\n    tag_25:\n      mload(0x40)\n      tag_29\n      swap2\n      swap1\n      tag_30\n      jump\t// in\n    tag_29:\n      mload(0x40)\n      dup1\n      swap2\n      sub\n      swap1\n      return\n        /* \"BirdMarketPlace.sol\":1305:1404  function setTax(uint256 tax) public onlyOwner {... */\n    tag_5:\n      tag_31\n      0x04\n      dup1\n      calldatasize\n      sub\n      dup2\n      add\n      swap1\n      tag_32\n      swap2\n      swap1\n      tag_33\n      jump\t// in\n    tag_32:\n      tag_34\n      jump\t// in\n    tag_31:\n      stop\n        /* \"BirdMarketPlace.sol\":4232:4337  function withdraw() public onlyOwner {... */\n    tag_6:\n      tag_35\n      tag_36\n      jump\t// in\n    tag_35:\n      stop\n        /* \"BirdMarketPlace.sol\":4548:4667  function withdrawErc20() public onlyOwner {... */\n    tag_7:\n      tag_37\n      tag_38\n      jump\t// in\n    tag_37:\n      stop\n        /* \"BirdMarketPlace.sol\":4342:4542  function withdrawToken(uint256 amount) public onlyOwner {... */\n    tag_8:\n      tag_39\n      0x04\n      dup1\n      calldatasize\n      sub\n      dup2\n      add\n      swap1\n      tag_40\n      swap2\n      swap1\n      tag_33\n      jump\t// in\n    tag_40:\n      tag_41\n      jump\t// in\n    tag_39:\n      stop\n        /* \"BirdMarketPlace.sol\":2587:3045  function updateListingNftPrice(uint256 tokenId, uint256 new_price) public {... */\n    tag_9:\n      tag_42\n      0x04\n      dup1\n      calldatasize\n      sub\n      dup2\n      add\n      swap1\n      tag_43\n      swap2\n      swap1\n      tag_44\n      jump\t// in\n    tag_43:\n      tag_45\n      jump\t// in\n    tag_42:\n      stop\n        /* \"BirdMarketPlace.sol\":3497:4226  function buyNft(uint256 tokenId, uint256 price) public {... */\n    tag_10:\n      tag_46\n      0x04\n      dup1\n      calldatasize\n      sub\n      dup2\n      add\n      swap1\n      tag_47\n      swap2\n      swap1\n      tag_44\n      jump\t// in\n    tag_47:\n      tag_48\n      jump\t// in\n    tag_46:\n      stop\n        /* \"@openzeppelin/contracts/access/Ownable.sol\":2293:2394  function renounceOwnership() public virtual onlyOwner {... */\n    tag_11:\n      tag_49\n      tag_50\n      jump\t// in\n    tag_49:\n      stop\n        /* \"BirdMarketPlace.sol\":1641:1993  function getListedNft() public view returns (ListDetail[] memory) {... */\n    tag_12:\n      tag_51\n      tag_52\n      jump\t// in\n    tag_51:\n      mload(0x40)\n      tag_53\n      swap2\n      swap1\n      tag_54\n      jump\t// in\n    tag_53:\n      mload(0x40)\n      dup1\n      swap2\n      sub\n      swap1\n      return\n        /* \"@openzeppelin/contracts/access/Ownable.sol\":1638:1723  function owner() public view virtual returns (address) {... */\n    tag_13:\n      tag_55\n      tag_56\n      jump\t// in\n    tag_55:\n      mload(0x40)\n      tag_57\n      swap2\n      swap1\n      tag_58\n      jump\t// in\n    tag_57:\n      mload(0x40)\n      dup1\n      swap2\n      sub\n      swap1\n      return\n        /* \"BirdMarketPlace.sol\":3068:3491  function unlistNft(uint256 tokenId) public {... */\n    tag_14:\n      tag_59\n      0x04\n      dup1\n      calldatasize\n      sub\n      dup2\n      add\n      swap1\n      tag_60\n      swap2\n      swap1\n      tag_33\n      jump\t// in\n    tag_60:\n      tag_61\n      jump\t// in\n    tag_59:\n      stop\n        /* \"@openzeppelin/contracts/access/Ownable.sol\":2543:2758  function transferOwnership(address newOwner) public virtual onlyOwner {... */\n    tag_15:\n      tag_62\n      0x04\n      dup1\n      calldatasize\n      sub\n      dup2\n      add\n      swap1\n      tag_63\n      swap2\n      swap1\n      tag_64\n      jump\t// in\n    tag_63:\n      tag_65\n      jump\t// in\n    tag_62:\n      stop\n        /* \"BirdMarketPlace.sol\":1526:1635  function setNft(IERC721Enumerable nft) public onlyOwner {... */\n    tag_16:\n      tag_66\n      0x04\n      dup1\n      calldatasize\n      sub\n      dup2\n      add\n      swap1\n      tag_67\n      swap2\n      swap1\n      tag_68\n      jump\t// in\n    tag_67:\n      tag_69\n      jump\t// in\n    tag_66:\n      stop\n        /* \"BirdMarketPlace.sol\":2028:2556  function listNft(uint256 tokenId, uint256 price) public {... */\n    tag_17:\n      tag_70\n      0x04\n      dup1\n      calldatasize\n      sub\n      dup2\n      add\n      swap1\n      tag_71\n      swap2\n      swap1\n      tag_44\n      jump\t// in\n    tag_71:\n      tag_72\n      jump\t// in\n    tag_70:\n      stop\n        /* \"BirdMarketPlace.sol\":1410:1520  function setToken(IERC20 token) public onlyOwner {... */\n    tag_24:\n        /* \"@openzeppelin/contracts/access/Ownable.sol\":1531:1544  _checkOwner() */\n      tag_74\n        /* \"@openzeppelin/contracts/access/Ownable.sol\":1531:1542  _checkOwner */\n      tag_75\n        /* \"@openzeppelin/contracts/access/Ownable.sol\":1531:1544  _checkOwner() */\n      jump\t// in\n    tag_74:\n        /* \"BirdMarketPlace.sol\":1478:1483  token */\n      dup1\n        /* \"BirdMarketPlace.sol\":1469:1475  _token */\n      0x02\n      0x00\n        /* \"BirdMarketPlace.sol\":1469:1483  _token = token */\n      0x0100\n      exp\n      dup2\n      sload\n      dup2\n      0xffffffffffffffffffffffffffffffffffffffff\n      mul\n      not\n      and\n      swap1\n      dup4\n      0xffffffffffffffffffffffffffffffffffffffff\n      and\n      mul\n      or\n      swap1\n      sstore\n      pop\n        /* \"BirdMarketPlace.sol\":1498:1513  SetToken(token) */\n      0xefc1fd16ea80a922086ee4e995739d59b025c1bcea6d1f67855747480c83214b\n        /* \"BirdMarketPlace.sol\":1507:1512  token */\n      dup2\n        /* \"BirdMarketPlace.sol\":1498:1513  SetToken(token) */\n      mload(0x40)\n      tag_77\n      swap2\n      swap1\n      tag_78\n      jump\t// in\n    tag_77:\n      mload(0x40)\n      dup1\n      swap2\n      sub\n      swap1\n      log1\n        /* \"BirdMarketPlace.sol\":1410:1520  function setToken(IERC20 token) public onlyOwner {... */\n      pop\n      jump\t// out\n        /* \"BirdMarketPlace.sol\":4673:4885  function onERC721Received(... */\n    tag_28:\n        /* \"BirdMarketPlace.sol\":4812:4818  bytes4 */\n      0x00\n        /* \"BirdMarketPlace.sol\":4837:4878  IERC721Receiver.onERC721Received.selector */\n      shl(0xe0, 0x150b7a02)\n        /* \"BirdMarketPlace.sol\":4830:4878  return IERC721Receiver.onERC721Received.selector */\n      swap1\n      pop\n        /* \"BirdMarketPlace.sol\":4673:4885  function onERC721Received(... */\n      swap6\n      swap5\n      pop\n      pop\n      pop\n      pop\n      pop\n      jump\t// out\n        /* \"BirdMarketPlace.sol\":1305:1404  function setTax(uint256 tax) public onlyOwner {... */\n    tag_34:\n        /* \"@openzeppelin/contracts/access/Ownable.sol\":1531:1544  _checkOwner() */\n      tag_81\n        /* \"@openzeppelin/contracts/access/Ownable.sol\":1531:1542  _checkOwner */\n      tag_75\n        /* \"@openzeppelin/contracts/access/Ownable.sol\":1531:1544  _checkOwner() */\n      jump\t// in\n    tag_81:\n        /* \"BirdMarketPlace.sol\":1368:1371  tax */\n      dup1\n        /* \"BirdMarketPlace.sol\":1361:1365  _tax */\n      0x03\n        /* \"BirdMarketPlace.sol\":1361:1371  _tax = tax */\n      dup2\n      swap1\n      sstore\n      pop\n        /* \"BirdMarketPlace.sol\":1386:1397  SetTax(tax) */\n      0x9fa979502e438dac613eeda5e69bdaf59a326dc09969a480e1e19078b24e15d1\n        /* \"BirdMarketPlace.sol\":1393:1396  tax */\n      dup2\n        /* \"BirdMarketPlace.sol\":1386:1397  SetTax(tax) */\n      mload(0x40)\n      tag_83\n      swap2\n      swap1\n      tag_84\n      jump\t// in\n    tag_83:\n      mload(0x40)\n      dup1\n      swap2\n      sub\n      swap1\n      log1\n        /* \"BirdMarketPlace.sol\":1305:1404  function setTax(uint256 tax) public onlyOwner {... */\n      pop\n      jump\t// out\n        /* \"BirdMarketPlace.sol\":4232:4337  function withdraw() public onlyOwner {... */\n    tag_36:\n        /* \"@openzeppelin/contracts/access/Ownable.sol\":1531:1544  _checkOwner() */\n      tag_86\n        /* \"@openzeppelin/contracts/access/Ownable.sol\":1531:1542  _checkOwner */\n      tag_75\n        /* \"@openzeppelin/contracts/access/Ownable.sol\":1531:1544  _checkOwner() */\n      jump\t// in\n    tag_86:\n        /* \"BirdMarketPlace.sol\":4287:4297  msg.sender */\n      caller\n        /* \"BirdMarketPlace.sol\":4279:4307  payable(msg.sender).transfer */\n      0xffffffffffffffffffffffffffffffffffffffff\n      and\n        /* \"BirdMarketPlace.sol\":4279:4330  payable(msg.sender).transfer(address(this).balance) */\n      0x08fc\n        /* \"BirdMarketPlace.sol\":4308:4329  address(this).balance */\n      selfbalance\n        /* \"BirdMarketPlace.sol\":4279:4330  payable(msg.sender).transfer(address(this).balance) */\n      swap1\n      dup2\n      iszero\n      mul\n      swap1\n      mload(0x40)\n      0x00\n      mload(0x40)\n      dup1\n      dup4\n      sub\n      dup2\n      dup6\n      dup9\n      dup9\n      call\n      swap4\n      pop\n      pop\n      pop\n      pop\n      iszero\n      dup1\n      iszero\n      tag_89\n      jumpi\n      returndatasize\n      0x00\n      dup1\n      returndatacopy\n      revert(0x00, returndatasize)\n    tag_89:\n      pop\n        /* \"BirdMarketPlace.sol\":4232:4337  function withdraw() public onlyOwner {... */\n      jump\t// out\n        /* \"BirdMarketPlace.sol\":4548:4667  function withdrawErc20() public onlyOwner {... */\n    tag_38:\n        /* \"@openzeppelin/contracts/access/Ownable.sol\":1531:1544  _checkOwner() */\n      tag_91\n        /* \"@openzeppelin/contracts/access/Ownable.sol\":1531:1542  _checkOwner */\n      tag_75\n        /* \"@openzeppelin/contracts/access/Ownable.sol\":1531:1544  _checkOwner() */\n      jump\t// in\n    tag_91:\n        /* \"BirdMarketPlace.sol\":4600:4606  _token */\n      0x02\n      0x00\n      swap1\n      sload\n      swap1\n      0x0100\n      exp\n      swap1\n      div\n      0xffffffffffffffffffffffffffffffffffffffff\n      and\n        /* \"BirdMarketPlace.sol\":4600:4615  _token.transfer */\n      0xffffffffffffffffffffffffffffffffffffffff\n      and\n      0xa9059cbb\n        /* \"BirdMarketPlace.sol\":4616:4626  msg.sender */\n      caller\n        /* \"BirdMarketPlace.sol\":4628:4634  _token */\n      0x02\n      0x00\n      swap1\n      sload\n      swap1\n      0x0100\n      exp\n      swap1\n      div\n      0xffffffffffffffffffffffffffffffffffffffff\n      and\n        /* \"BirdMarketPlace.sol\":4628:4644  _token.balanceOf */\n      0xffffffffffffffffffffffffffffffffffffffff\n      and\n      0x70a08231\n        /* \"BirdMarketPlace.sol\":4653:4657  this */\n      address\n        /* \"BirdMarketPlace.sol\":4628:4659  _token.balanceOf(address(this)) */\n      mload(0x40)\n      dup3\n      0xffffffff\n      and\n      0xe0\n      shl\n      dup2\n      mstore\n      0x04\n      add\n      tag_93\n      swap2\n      swap1\n      tag_58\n      jump\t// in\n    tag_93:\n      0x20\n      mload(0x40)\n      dup1\n      dup4\n      sub\n      dup2\n      dup7\n      gas\n      staticcall\n      iszero\n      dup1\n      iszero\n      tag_95\n      jumpi\n      returndatasize\n      0x00\n      dup1\n      returndatacopy\n      revert(0x00, returndatasize)\n    tag_95:\n      pop\n      pop\n      pop\n      pop\n      mload(0x40)\n      returndatasize\n      not(0x1f)\n      0x1f\n      dup3\n      add\n      and\n      dup3\n      add\n      dup1\n      0x40\n      mstore\n      pop\n      dup2\n      add\n      swap1\n      tag_96\n      swap2\n      swap1\n      tag_97\n      jump\t// in\n    tag_96:\n        /* \"BirdMarketPlace.sol\":4600:4660  _token.transfer(msg.sender, _token.balanceOf(address(this))) */\n      mload(0x40)\n      dup4\n      0xffffffff\n      and\n      0xe0\n      shl\n      dup2\n      mstore\n      0x04\n      add\n      tag_98\n      swap3\n      swap2\n      swap1\n      tag_99\n      jump\t// in\n    tag_98:\n      0x20\n      mload(0x40)\n      dup1\n      dup4\n      sub\n      dup2\n      0x00\n      dup8\n      gas\n      call\n      iszero\n      dup1\n      iszero\n      tag_101\n      jumpi\n      returndatasize\n      0x00\n      dup1\n      returndatacopy\n      revert(0x00, returndatasize)\n    tag_101:\n      pop\n      pop\n      pop\n      pop\n      mload(0x40)\n      returndatasize\n      not(0x1f)\n      0x1f\n      dup3\n      add\n      and\n      dup3\n      add\n      dup1\n      0x40\n      mstore\n      pop\n      dup2\n      add\n      swap1\n      tag_102\n      swap2\n      swap1\n      tag_103\n      jump\t// in\n    tag_102:\n      pop\n        /* \"BirdMarketPlace.sol\":4548:4667  function withdrawErc20() public onlyOwner {... */\n      jump\t// out\n        /* \"BirdMarketPlace.sol\":4342:4542  function withdrawToken(uint256 amount) public onlyOwner {... */\n    tag_41:\n        /* \"@openzeppelin/contracts/access/Ownable.sol\":1531:1544  _checkOwner() */\n      tag_105\n        /* \"@openzeppelin/contracts/access/Ownable.sol\":1531:1542  _checkOwner */\n      tag_75\n        /* \"@openzeppelin/contracts/access/Ownable.sol\":1531:1544  _checkOwner() */\n      jump\t// in\n    tag_105:\n        /* \"BirdMarketPlace.sol\":4451:4457  amount */\n      dup1\n        /* \"BirdMarketPlace.sol\":4416:4422  _token */\n      0x02\n      0x00\n      swap1\n      sload\n      swap1\n      0x0100\n      exp\n      swap1\n      div\n      0xffffffffffffffffffffffffffffffffffffffff\n      and\n        /* \"BirdMarketPlace.sol\":4416:4432  _token.balanceOf */\n      0xffffffffffffffffffffffffffffffffffffffff\n      and\n      0x70a08231\n        /* \"BirdMarketPlace.sol\":4441:4445  this */\n      address\n        /* \"BirdMarketPlace.sol\":4416:4447  _token.balanceOf(address(this)) */\n      mload(0x40)\n      dup3\n      0xffffffff\n      and\n      0xe0\n      shl\n      dup2\n      mstore\n      0x04\n      add\n      tag_107\n      swap2\n      swap1\n      tag_58\n      jump\t// in\n    tag_107:\n      0x20\n      mload(0x40)\n      dup1\n      dup4\n      sub\n      dup2\n      dup7\n      gas\n      staticcall\n      iszero\n      dup1\n      iszero\n      tag_109\n      jumpi\n      returndatasize\n      0x00\n      dup1\n      returndatacopy\n      revert(0x00, returndatasize)\n    tag_109:\n      pop\n      pop\n      pop\n      pop\n      mload(0x40)\n      returndatasize\n      not(0x1f)\n      0x1f\n      dup3\n      add\n      and\n      dup3\n      add\n      dup1\n      0x40\n      mstore\n      pop\n      dup2\n      add\n      swap1\n      tag_110\n      swap2\n      swap1\n      tag_97\n      jump\t// in\n    tag_110:\n        /* \"BirdMarketPlace.sol\":4416:4457  _token.balanceOf(address(this)) >= amount */\n      lt\n      iszero\n        /* \"BirdMarketPlace.sol\":4408:4490  require(_token.balanceOf(address(this)) >= amount, \"Insufficient account balance\") */\n      tag_111\n      jumpi\n      mload(0x40)\n      0x08c379a000000000000000000000000000000000000000000000000000000000\n      dup2\n      mstore\n      0x04\n      add\n      tag_112\n      swap1\n      tag_113\n      jump\t// in\n    tag_112:\n      mload(0x40)\n      dup1\n      swap2\n      sub\n      swap1\n      revert\n    tag_111:\n        /* \"BirdMarketPlace.sol\":4500:4506  _token */\n      0x02\n      0x00\n      swap1\n      sload\n      swap1\n      0x0100\n      exp\n      swap1\n      div\n      0xffffffffffffffffffffffffffffffffffffffff\n      and\n        /* \"BirdMarketPlace.sol\":4500:4515  _token.transfer */\n      0xffffffffffffffffffffffffffffffffffffffff\n      and\n      0xa9059cbb\n        /* \"BirdMarketPlace.sol\":4516:4526  msg.sender */\n      caller\n        /* \"BirdMarketPlace.sol\":4528:4534  amount */\n      dup4\n        /* \"BirdMarketPlace.sol\":4500:4535  _token.transfer(msg.sender, amount) */\n      mload(0x40)\n      dup4\n      0xffffffff\n      and\n      0xe0\n      shl\n      dup2\n      mstore\n      0x04\n      add\n      tag_114\n      swap3\n      swap2\n      swap1\n      tag_99\n      jump\t// in\n    tag_114:\n      0x20\n      mload(0x40)\n      dup1\n      dup4\n      sub\n      dup2\n      0x00\n      dup8\n      gas\n      call\n      iszero\n      dup1\n      iszero\n      tag_116\n      jumpi\n      returndatasize\n      0x00\n      dup1\n      returndatacopy\n      revert(0x00, returndatasize)\n    tag_116:\n      pop\n      pop\n      pop\n      pop\n      mload(0x40)\n      returndatasize\n      not(0x1f)\n      0x1f\n      dup3\n      add\n      and\n      dup3\n      add\n      dup1\n      0x40\n      mstore\n      pop\n      dup2\n      add\n      swap1\n      tag_117\n      swap2\n      swap1\n      tag_103\n      jump\t// in\n    tag_117:\n      pop\n        /* \"BirdMarketPlace.sol\":4342:4542  function withdrawToken(uint256 amount) public onlyOwner {... */\n      pop\n      jump\t// out\n        /* \"BirdMarketPlace.sol\":2587:3045  function updateListingNftPrice(uint256 tokenId, uint256 new_price) public {... */\n    tag_45:\n        /* \"BirdMarketPlace.sol\":2725:2729  this */\n      address\n        /* \"BirdMarketPlace.sol\":2692:2730  _nft.ownerOf(tokenId) == address(this) */\n      0xffffffffffffffffffffffffffffffffffffffff\n      and\n        /* \"BirdMarketPlace.sol\":2692:2696  _nft */\n      0x01\n      0x00\n      swap1\n      sload\n      swap1\n      0x0100\n      exp\n      swap1\n      div\n      0xffffffffffffffffffffffffffffffffffffffff\n      and\n        /* \"BirdMarketPlace.sol\":2692:2704  _nft.ownerOf */\n      0xffffffffffffffffffffffffffffffffffffffff\n      and\n      0x6352211e\n        /* \"BirdMarketPlace.sol\":2705:2712  tokenId */\n      dup5\n        /* \"BirdMarketPlace.sol\":2692:2713  _nft.ownerOf(tokenId) */\n      mload(0x40)\n      dup3\n      0xffffffff\n      and\n      0xe0\n      shl\n      dup2\n      mstore\n      0x04\n      add\n      tag_119\n      swap2\n      swap1\n      tag_84\n      jump\t// in\n    tag_119:\n      0x20\n      mload(0x40)\n      dup1\n      dup4\n      sub\n      dup2\n      dup7\n      gas\n      staticcall\n      iszero\n      dup1\n      iszero\n      tag_121\n      jumpi\n      returndatasize\n      0x00\n      dup1\n      returndatacopy\n      revert(0x00, returndatasize)\n    tag_121:\n      pop\n      pop\n      pop\n      pop\n      mload(0x40)\n      returndatasize\n      not(0x1f)\n      0x1f\n      dup3\n      add\n      and\n      dup3\n      add\n      dup1\n      0x40\n      mstore\n      pop\n      dup2\n      add\n      swap1\n      tag_122\n      swap2\n      swap1\n      tag_123\n      jump\t// in\n    tag_122:\n        /* \"BirdMarketPlace.sol\":2692:2730  _nft.ownerOf(tokenId) == address(this) */\n      0xffffffffffffffffffffffffffffffffffffffff\n      and\n      eq\n        /* \"BirdMarketPlace.sol\":2671:2795  require(... */\n      tag_124\n      jumpi\n      mload(0x40)\n      0x08c379a000000000000000000000000000000000000000000000000000000000\n      dup2\n      mstore\n      0x04\n      add\n      tag_125\n      swap1\n      tag_126\n      jump\t// in\n    tag_125:\n      mload(0x40)\n      dup1\n      swap2\n      sub\n      swap1\n      revert\n    tag_124:\n        /* \"BirdMarketPlace.sol\":2856:2866  msg.sender */\n      caller\n        /* \"BirdMarketPlace.sol\":2826:2866  listDetail[tokenId].author == msg.sender */\n      0xffffffffffffffffffffffffffffffffffffffff\n      and\n        /* \"BirdMarketPlace.sol\":2826:2836  listDetail */\n      0x04\n        /* \"BirdMarketPlace.sol\":2826:2845  listDetail[tokenId] */\n      0x00\n        /* \"BirdMarketPlace.sol\":2837:2844  tokenId */\n      dup5\n        /* \"BirdMarketPlace.sol\":2826:2845  listDetail[tokenId] */\n      dup2\n      mstore\n      0x20\n      add\n      swap1\n      dup2\n      mstore\n      0x20\n      add\n      0x00\n      keccak256\n        /* \"BirdMarketPlace.sol\":2826:2852  listDetail[tokenId].author */\n      0x00\n      add\n      0x00\n      swap1\n      sload\n      swap1\n      0x0100\n      exp\n      swap1\n      div\n      0xffffffffffffffffffffffffffffffffffffffff\n      and\n        /* \"BirdMarketPlace.sol\":2826:2866  listDetail[tokenId].author == msg.sender */\n      0xffffffffffffffffffffffffffffffffffffffff\n      and\n      eq\n        /* \"BirdMarketPlace.sol\":2805:2935  require(... */\n      tag_127\n      jumpi\n      mload(0x40)\n      0x08c379a000000000000000000000000000000000000000000000000000000000\n      dup2\n      mstore\n      0x04\n      add\n      tag_128\n      swap1\n      tag_129\n      jump\t// in\n    tag_128:\n      mload(0x40)\n      dup1\n      swap2\n      sub\n      swap1\n      revert\n    tag_127:\n        /* \"BirdMarketPlace.sol\":2973:2982  new_price */\n      dup1\n        /* \"BirdMarketPlace.sol\":2945:2955  listDetail */\n      0x04\n        /* \"BirdMarketPlace.sol\":2945:2964  listDetail[tokenId] */\n      0x00\n        /* \"BirdMarketPlace.sol\":2956:2963  tokenId */\n      dup5\n        /* \"BirdMarketPlace.sol\":2945:2964  listDetail[tokenId] */\n      dup2\n      mstore\n      0x20\n      add\n      swap1\n      dup2\n      mstore\n      0x20\n      add\n      0x00\n      keccak256\n        /* \"BirdMarketPlace.sol\":2945:2970  listDetail[tokenId].price */\n      0x01\n      add\n        /* \"BirdMarketPlace.sol\":2945:2982  listDetail[tokenId].price = new_price */\n      dup2\n      swap1\n      sstore\n      pop\n        /* \"BirdMarketPlace.sol\":2997:3038  UpdateListingNFTPrice(tokenId, new_price) */\n      0xc7113691cf96332a4c71d0e3d8fc13f177dc22111131519552cd24a04fde1e5c\n        /* \"BirdMarketPlace.sol\":3019:3026  tokenId */\n      dup3\n        /* \"BirdMarketPlace.sol\":3028:3037  new_price */\n      dup3\n        /* \"BirdMarketPlace.sol\":2997:3038  UpdateListingNFTPrice(tokenId, new_price) */\n      mload(0x40)\n      tag_130\n      swap3\n      swap2\n      swap1\n      tag_131\n      jump\t// in\n    tag_130:\n      mload(0x40)\n      dup1\n      swap2\n      sub\n      swap1\n      log1\n        /* \"BirdMarketPlace.sol\":2587:3045  function updateListingNftPrice(uint256 tokenId, uint256 new_price) public {... */\n      pop\n      pop\n      jump\t// out\n        /* \"BirdMarketPlace.sol\":3497:4226  function buyNft(uint256 tokenId, uint256 price) public {... */\n    tag_48:\n        /* \"BirdMarketPlace.sol\":3615:3620  price */\n      dup1\n        /* \"BirdMarketPlace.sol\":3583:3589  _token */\n      0x02\n      0x00\n      swap1\n      sload\n      swap1\n      0x0100\n      exp\n      swap1\n      div\n      0xffffffffffffffffffffffffffffffffffffffff\n      and\n        /* \"BirdMarketPlace.sol\":3583:3599  _token.balanceOf */\n      0xffffffffffffffffffffffffffffffffffffffff\n      and\n      0x70a08231\n        /* \"BirdMarketPlace.sol\":3600:3610  msg.sender */\n      caller\n        /* \"BirdMarketPlace.sol\":3583:3611  _token.balanceOf(msg.sender) */\n      mload(0x40)\n      dup3\n      0xffffffff\n      and\n      0xe0\n      shl\n      dup2\n      mstore\n      0x04\n      add\n      tag_133\n      swap2\n      swap1\n      tag_58\n      jump\t// in\n    tag_133:\n      0x20\n      mload(0x40)\n      dup1\n      dup4\n      sub\n      dup2\n      dup7\n      gas\n      staticcall\n      iszero\n      dup1\n      iszero\n      tag_135\n      jumpi\n      returndatasize\n      0x00\n      dup1\n      returndatacopy\n      revert(0x00, returndatasize)\n    tag_135:\n      pop\n      pop\n      pop\n      pop\n      mload(0x40)\n      returndatasize\n      not(0x1f)\n      0x1f\n      dup3\n      add\n      and\n      dup3\n      add\n      dup1\n      0x40\n      mstore\n      pop\n      dup2\n      add\n      swap1\n      tag_136\n      swap2\n      swap1\n      tag_97\n      jump\t// in\n    tag_136:\n        /* \"BirdMarketPlace.sol\":3583:3620  _token.balanceOf(msg.sender) >= price */\n      lt\n      iszero\n        /* \"BirdMarketPlace.sol\":3562:3674  require(... */\n      tag_137\n      jumpi\n      mload(0x40)\n      0x08c379a000000000000000000000000000000000000000000000000000000000\n      dup2\n      mstore\n      0x04\n      add\n      tag_138\n      swap1\n      tag_113\n      jump\t// in\n    tag_138:\n      mload(0x40)\n      dup1\n      swap2\n      sub\n      swap1\n      revert\n    tag_137:\n        /* \"BirdMarketPlace.sol\":3738:3742  this */\n      address\n        /* \"BirdMarketPlace.sol\":3705:3743  _nft.ownerOf(tokenId) == address(this) */\n      0xffffffffffffffffffffffffffffffffffffffff\n      and\n        /* \"BirdMarketPlace.sol\":3705:3709  _nft */\n      0x01\n      0x00\n      swap1\n      sload\n      swap1\n      0x0100\n      exp\n      swap1\n      div\n      0xffffffffffffffffffffffffffffffffffffffff\n      and\n        /* \"BirdMarketPlace.sol\":3705:3717  _nft.ownerOf */\n      0xffffffffffffffffffffffffffffffffffffffff\n      and\n      0x6352211e\n        /* \"BirdMarketPlace.sol\":3718:3725  tokenId */\n      dup5\n        /* \"BirdMarketPlace.sol\":3705:3726  _nft.ownerOf(tokenId) */\n      mload(0x40)\n      dup3\n      0xffffffff\n      and\n      0xe0\n      shl\n      dup2\n      mstore\n      0x04\n      add\n      tag_139\n      swap2\n      swap1\n      tag_84\n      jump\t// in\n    tag_139:\n      0x20\n      mload(0x40)\n      dup1\n      dup4\n      sub\n      dup2\n      dup7\n      gas\n      staticcall\n      iszero\n      dup1\n      iszero\n      tag_141\n      jumpi\n      returndatasize\n      0x00\n      dup1\n      returndatacopy\n      revert(0x00, returndatasize)\n    tag_141:\n      pop\n      pop\n      pop\n      pop\n      mload(0x40)\n      returndatasize\n      not(0x1f)\n      0x1f\n      dup3\n      add\n      and\n      dup3\n      add\n      dup1\n      0x40\n      mstore\n      pop\n      dup2\n      add\n      swap1\n      tag_142\n      swap2\n      swap1\n      tag_123\n      jump\t// in\n    tag_142:\n        /* \"BirdMarketPlace.sol\":3705:3743  _nft.ownerOf(tokenId) == address(this) */\n      0xffffffffffffffffffffffffffffffffffffffff\n      and\n      eq\n        /* \"BirdMarketPlace.sol\":3684:3806  require(... */\n      tag_143\n      jumpi\n      mload(0x40)\n      0x08c379a000000000000000000000000000000000000000000000000000000000\n      dup2\n      mstore\n      0x04\n      add\n      tag_144\n      swap1\n      tag_145\n      jump\t// in\n    tag_144:\n      mload(0x40)\n      dup1\n      swap2\n      sub\n      swap1\n      revert\n    tag_143:\n        /* \"BirdMarketPlace.sol\":3866:3871  price */\n      dup1\n        /* \"BirdMarketPlace.sol\":3837:3847  listDetail */\n      0x04\n        /* \"BirdMarketPlace.sol\":3837:3856  listDetail[tokenId] */\n      0x00\n        /* \"BirdMarketPlace.sol\":3848:3855  tokenId */\n      dup5\n        /* \"BirdMarketPlace.sol\":3837:3856  listDetail[tokenId] */\n      dup2\n      mstore\n      0x20\n      add\n      swap1\n      dup2\n      mstore\n      0x20\n      add\n      0x00\n      keccak256\n        /* \"BirdMarketPlace.sol\":3837:3862  listDetail[tokenId].price */\n      0x01\n      add\n      sload\n        /* \"BirdMarketPlace.sol\":3837:3871  listDetail[tokenId].price <= price */\n      gt\n      iszero\n        /* \"BirdMarketPlace.sol\":3816:3931  require(... */\n      tag_146\n      jumpi\n      mload(0x40)\n      0x08c379a000000000000000000000000000000000000000000000000000000000\n      dup2\n      mstore\n      0x04\n      add\n      tag_147\n      swap1\n      tag_148\n      jump\t// in\n    tag_147:\n      mload(0x40)\n      dup1\n      swap2\n      sub\n      swap1\n      revert\n    tag_146:\n        /* \"BirdMarketPlace.sol\":3941:4009  SafeERC20.safeTransferFrom(_token, msg.sender, address(this), price) */\n      tag_149\n        /* \"BirdMarketPlace.sol\":3968:3974  _token */\n      0x02\n      0x00\n      swap1\n      sload\n      swap1\n      0x0100\n      exp\n      swap1\n      div\n      0xffffffffffffffffffffffffffffffffffffffff\n      and\n        /* \"BirdMarketPlace.sol\":3976:3986  msg.sender */\n      caller\n        /* \"BirdMarketPlace.sol\":3996:4000  this */\n      address\n        /* \"BirdMarketPlace.sol\":4003:4008  price */\n      dup5\n        /* \"BirdMarketPlace.sol\":3941:3967  SafeERC20.safeTransferFrom */\n      tag_150\n        /* \"BirdMarketPlace.sol\":3941:4009  SafeERC20.safeTransferFrom(_token, msg.sender, address(this), price) */\n      jump\t// in\n    tag_149:\n        /* \"BirdMarketPlace.sol\":4019:4025  _token */\n      0x02\n      0x00\n      swap1\n      sload\n      swap1\n      0x0100\n      exp\n      swap1\n      div\n      0xffffffffffffffffffffffffffffffffffffffff\n      and\n        /* \"BirdMarketPlace.sol\":4019:4034  _token.transfer */\n      0xffffffffffffffffffffffffffffffffffffffff\n      and\n      0xa9059cbb\n        /* \"BirdMarketPlace.sol\":4035:4045  listDetail */\n      0x04\n        /* \"BirdMarketPlace.sol\":4035:4054  listDetail[tokenId] */\n      0x00\n        /* \"BirdMarketPlace.sol\":4046:4053  tokenId */\n      dup6\n        /* \"BirdMarketPlace.sol\":4035:4054  listDetail[tokenId] */\n      dup2\n      mstore\n      0x20\n      add\n      swap1\n      dup2\n      mstore\n      0x20\n      add\n      0x00\n      keccak256\n        /* \"BirdMarketPlace.sol\":4035:4061  listDetail[tokenId].author */\n      0x00\n      add\n      0x00\n      swap1\n      sload\n      swap1\n      0x0100\n      exp\n      swap1\n      div\n      0xffffffffffffffffffffffffffffffffffffffff\n      and\n        /* \"BirdMarketPlace.sol\":4086:4089  100 */\n      0x64\n        /* \"BirdMarketPlace.sol\":4078:4082  _tax */\n      sload(0x03)\n        /* \"BirdMarketPlace.sol\":4072:4075  100 */\n      0x64\n        /* \"BirdMarketPlace.sol\":4072:4082  100 - _tax */\n      tag_151\n      swap2\n      swap1\n      tag_152\n      jump\t// in\n    tag_151:\n        /* \"BirdMarketPlace.sol\":4063:4068  price */\n      dup6\n        /* \"BirdMarketPlace.sol\":4063:4083  price * (100 - _tax) */\n      tag_153\n      swap2\n      swap1\n      tag_154\n      jump\t// in\n    tag_153:\n        /* \"BirdMarketPlace.sol\":4063:4089  price * (100 - _tax) / 100 */\n      tag_155\n      swap2\n      swap1\n      tag_156\n      jump\t// in\n    tag_155:\n        /* \"BirdMarketPlace.sol\":4019:4090  _token.transfer(listDetail[tokenId].author, price * (100 - _tax) / 100) */\n      mload(0x40)\n      dup4\n      0xffffffff\n      and\n      0xe0\n      shl\n      dup2\n      mstore\n      0x04\n      add\n      tag_157\n      swap3\n      swap2\n      swap1\n      tag_158\n      jump\t// in\n    tag_157:\n      0x20\n      mload(0x40)\n      dup1\n      dup4\n      sub\n      dup2\n      0x00\n      dup8\n      gas\n      call\n      iszero\n      dup1\n      iszero\n      tag_160\n      jumpi\n      returndatasize\n      0x00\n      dup1\n      returndatacopy\n      revert(0x00, returndatasize)\n    tag_160:\n      pop\n      pop\n      pop\n      pop\n      mload(0x40)\n      returndatasize\n      not(0x1f)\n      0x1f\n      dup3\n      add\n      and\n      dup3\n      add\n      dup1\n      0x40\n      mstore\n      pop\n      dup2\n      add\n      swap1\n      tag_161\n      swap2\n      swap1\n      tag_103\n      jump\t// in\n    tag_161:\n      pop\n        /* \"BirdMarketPlace.sol\":4111:4115  _nft */\n      0x01\n      0x00\n      swap1\n      sload\n      swap1\n      0x0100\n      exp\n      swap1\n      div\n      0xffffffffffffffffffffffffffffffffffffffff\n      and\n        /* \"BirdMarketPlace.sol\":4111:4132  _nft.safeTransferFrom */\n      0xffffffffffffffffffffffffffffffffffffffff\n      and\n      0x42842e0e\n        /* \"BirdMarketPlace.sol\":4141:4145  this */\n      address\n        /* \"BirdMarketPlace.sol\":4148:4158  msg.sender */\n      caller\n        /* \"BirdMarketPlace.sol\":4160:4167  tokenId */\n      dup6\n        /* \"BirdMarketPlace.sol\":4111:4168  _nft.safeTransferFrom(address(this), msg.sender, tokenId) */\n      mload(0x40)\n      dup5\n      0xffffffff\n      and\n      0xe0\n      shl\n      dup2\n      mstore\n      0x04\n      add\n      tag_162\n      swap4\n      swap3\n      swap2\n      swap1\n      tag_163\n      jump\t// in\n    tag_162:\n      0x00\n      mload(0x40)\n      dup1\n      dup4\n      sub\n      dup2\n      0x00\n      dup8\n      dup1\n      extcodesize\n      iszero\n      dup1\n      iszero\n      tag_164\n      jumpi\n      0x00\n      dup1\n      revert\n    tag_164:\n      pop\n      gas\n      call\n      iszero\n      dup1\n      iszero\n      tag_166\n      jumpi\n      returndatasize\n      0x00\n      dup1\n      returndatacopy\n      revert(0x00, returndatasize)\n    tag_166:\n      pop\n      pop\n      pop\n      pop\n        /* \"BirdMarketPlace.sol\":4190:4200  msg.sender */\n      caller\n        /* \"BirdMarketPlace.sol\":4183:4216  BuyNFT(msg.sender,tokenId, price) */\n      0xffffffffffffffffffffffffffffffffffffffff\n      and\n      0x5d963241241cfe9e161d13500d628058954b3febfde03e4b1f4071370e72fe2b\n        /* \"BirdMarketPlace.sol\":4201:4208  tokenId */\n      dup4\n        /* \"BirdMarketPlace.sol\":4210:4215  price */\n      dup4\n        /* \"BirdMarketPlace.sol\":4183:4216  BuyNFT(msg.sender,tokenId, price) */\n      mload(0x40)\n      tag_167\n      swap3\n      swap2\n      swap1\n      tag_131\n      jump\t// in\n    tag_167:\n      mload(0x40)\n      dup1\n      swap2\n      sub\n      swap1\n      log2\n        /* \"BirdMarketPlace.sol\":3497:4226  function buyNft(uint256 tokenId, uint256 price) public {... */\n      pop\n      pop\n      jump\t// out\n        /* \"@openzeppelin/contracts/access/Ownable.sol\":2293:2394  function renounceOwnership() public virtual onlyOwner {... */\n    tag_50:\n        /* \"@openzeppelin/contracts/access/Ownable.sol\":1531:1544  _checkOwner() */\n      tag_169\n        /* \"@openzeppelin/contracts/access/Ownable.sol\":1531:1542  _checkOwner */\n      tag_75\n        /* \"@openzeppelin/contracts/access/Ownable.sol\":1531:1544  _checkOwner() */\n      jump\t// in\n    tag_169:\n        /* \"@openzeppelin/contracts/access/Ownable.sol\":2357:2387  _transferOwnership(address(0)) */\n      tag_171\n        /* \"@openzeppelin/contracts/access/Ownable.sol\":2384:2385  0 */\n      0x00\n        /* \"@openzeppelin/contracts/access/Ownable.sol\":2357:2375  _transferOwnership */\n      tag_172\n        /* \"@openzeppelin/contracts/access/Ownable.sol\":2357:2387  _transferOwnership(address(0)) */\n      jump\t// in\n    tag_171:\n        /* \"@openzeppelin/contracts/access/Ownable.sol\":2293:2394  function renounceOwnership() public virtual onlyOwner {... */\n      jump\t// out\n        /* \"BirdMarketPlace.sol\":1641:1993  function getListedNft() public view returns (ListDetail[] memory) {... */\n    tag_52:\n        /* \"BirdMarketPlace.sol\":1686:1705  ListDetail[] memory */\n      0x60\n        /* \"BirdMarketPlace.sol\":1717:1732  uint256 balance */\n      0x00\n        /* \"BirdMarketPlace.sol\":1735:1739  _nft */\n      0x01\n      0x00\n      swap1\n      sload\n      swap1\n      0x0100\n      exp\n      swap1\n      div\n      0xffffffffffffffffffffffffffffffffffffffff\n      and\n        /* \"BirdMarketPlace.sol\":1735:1749  _nft.balanceOf */\n      0xffffffffffffffffffffffffffffffffffffffff\n      and\n      0x70a08231\n        /* \"BirdMarketPlace.sol\":1758:1762  this */\n      address\n        /* \"BirdMarketPlace.sol\":1735:1764  _nft.balanceOf(address(this)) */\n      mload(0x40)\n      dup3\n      0xffffffff\n      and\n      0xe0\n      shl\n      dup2\n      mstore\n      0x04\n      add\n      tag_174\n      swap2\n      swap1\n      tag_58\n      jump\t// in\n    tag_174:\n      0x20\n      mload(0x40)\n      dup1\n      dup4\n      sub\n      dup2\n      dup7\n      gas\n      staticcall\n      iszero\n      dup1\n      iszero\n      tag_176\n      jumpi\n      returndatasize\n      0x00\n      dup1\n      returndatacopy\n      revert(0x00, returndatasize)\n    tag_176:\n      pop\n      pop\n      pop\n      pop\n      mload(0x40)\n      returndatasize\n      not(0x1f)\n      0x1f\n      dup3\n      add\n      and\n      dup3\n      add\n      dup1\n      0x40\n      mstore\n      pop\n      dup2\n      add\n      swap1\n      tag_177\n      swap2\n      swap1\n      tag_97\n      jump\t// in\n    tag_177:\n        /* \"BirdMarketPlace.sol\":1717:1764  uint256 balance = _nft.balanceOf(address(this)) */\n      swap1\n      pop\n        /* \"BirdMarketPlace.sol\":1774:1799  ListDetail[] memory myNft */\n      0x00\n        /* \"BirdMarketPlace.sol\":1819:1826  balance */\n      dup2\n        /* \"BirdMarketPlace.sol\":1802:1827  new ListDetail[](balance) */\n      0xffffffffffffffff\n      dup2\n      gt\n      iszero\n      tag_178\n      jumpi\n      tag_179\n      tag_180\n      jump\t// in\n    tag_179:\n    tag_178:\n      mload(0x40)\n      swap1\n      dup1\n      dup3\n      mstore\n      dup1\n      0x20\n      mul\n      0x20\n      add\n      dup3\n      add\n      0x40\n      mstore\n      dup1\n      iszero\n      tag_181\n      jumpi\n      dup2\n      0x20\n      add\n    tag_182:\n      tag_183\n      tag_184\n      jump\t// in\n    tag_183:\n      dup2\n      mstore\n      0x20\n      add\n      swap1\n      0x01\n      swap1\n      sub\n      swap1\n      dup2\n      tag_182\n      jumpi\n      swap1\n      pop\n    tag_181:\n      pop\n        /* \"BirdMarketPlace.sol\":1774:1827  ListDetail[] memory myNft = new ListDetail[](balance) */\n      swap1\n      pop\n        /* \"BirdMarketPlace.sol\":1842:1851  uint256 i */\n      0x00\n        /* \"BirdMarketPlace.sol\":1837:1965  for (uint256 i = 0; i < balance; i++) {... */\n    tag_185:\n        /* \"BirdMarketPlace.sol\":1861:1868  balance */\n      dup3\n        /* \"BirdMarketPlace.sol\":1857:1858  i */\n      dup2\n        /* \"BirdMarketPlace.sol\":1857:1868  i < balance */\n      lt\n        /* \"BirdMarketPlace.sol\":1837:1965  for (uint256 i = 0; i < balance; i++) {... */\n      iszero\n      tag_186\n      jumpi\n        /* \"BirdMarketPlace.sol\":1900:1910  listDetail */\n      0x04\n        /* \"BirdMarketPlace.sol\":1900:1954  listDetail[_nft.tokenOfOwnerByIndex(address(this), i)] */\n      0x00\n        /* \"BirdMarketPlace.sol\":1911:1915  _nft */\n      0x01\n      0x00\n      swap1\n      sload\n      swap1\n      0x0100\n      exp\n      swap1\n      div\n      0xffffffffffffffffffffffffffffffffffffffff\n      and\n        /* \"BirdMarketPlace.sol\":1911:1935  _nft.tokenOfOwnerByIndex */\n      0xffffffffffffffffffffffffffffffffffffffff\n      and\n      0x2f745c59\n        /* \"BirdMarketPlace.sol\":1944:1948  this */\n      address\n        /* \"BirdMarketPlace.sol\":1951:1952  i */\n      dup6\n        /* \"BirdMarketPlace.sol\":1911:1953  _nft.tokenOfOwnerByIndex(address(this), i) */\n      mload(0x40)\n      dup4\n      0xffffffff\n      and\n      0xe0\n      shl\n      dup2\n      mstore\n      0x04\n      add\n      tag_188\n      swap3\n      swap2\n      swap1\n      tag_99\n      jump\t// in\n    tag_188:\n      0x20\n      mload(0x40)\n      dup1\n      dup4\n      sub\n      dup2\n      dup7\n      gas\n      staticcall\n      iszero\n      dup1\n      iszero\n      tag_190\n      jumpi\n      returndatasize\n      0x00\n      dup1\n      returndatacopy\n      revert(0x00, returndatasize)\n    tag_190:\n      pop\n      pop\n      pop\n      pop\n      mload(0x40)\n      returndatasize\n      not(0x1f)\n      0x1f\n      dup3\n      add\n      and\n      dup3\n      add\n      dup1\n      0x40\n      mstore\n      pop\n      dup2\n      add\n      swap1\n      tag_191\n      swap2\n      swap1\n      tag_97\n      jump\t// in\n    tag_191:\n        /* \"BirdMarketPlace.sol\":1900:1954  listDetail[_nft.tokenOfOwnerByIndex(address(this), i)] */\n      dup2\n      mstore\n      0x20\n      add\n      swap1\n      dup2\n      mstore\n      0x20\n      add\n      0x00\n      keccak256\n        /* \"BirdMarketPlace.sol\":1889:1954  myNft[i] = listDetail[_nft.tokenOfOwnerByIndex(address(this), i)] */\n      mload(0x40)\n      dup1\n      0x60\n      add\n      0x40\n      mstore\n      swap1\n      dup2\n      0x00\n      dup3\n      add\n      0x00\n      swap1\n      sload\n      swap1\n      0x0100\n      exp\n      swap1\n      div\n      0xffffffffffffffffffffffffffffffffffffffff\n      and\n      0xffffffffffffffffffffffffffffffffffffffff\n      and\n      0xffffffffffffffffffffffffffffffffffffffff\n      and\n      dup2\n      mstore\n      0x20\n      add\n      0x01\n      dup3\n      add\n      sload\n      dup2\n      mstore\n      0x20\n      add\n      0x02\n      dup3\n      add\n      sload\n      dup2\n      mstore\n      pop\n      pop\n        /* \"BirdMarketPlace.sol\":1889:1894  myNft */\n      dup3\n        /* \"BirdMarketPlace.sol\":1895:1896  i */\n      dup3\n        /* \"BirdMarketPlace.sol\":1889:1897  myNft[i] */\n      dup2\n      mload\n      dup2\n      lt\n      tag_192\n      jumpi\n      tag_193\n      tag_194\n      jump\t// in\n    tag_193:\n    tag_192:\n      0x20\n      mul\n      0x20\n      add\n      add\n        /* \"BirdMarketPlace.sol\":1889:1954  myNft[i] = listDetail[_nft.tokenOfOwnerByIndex(address(this), i)] */\n      dup2\n      swap1\n      mstore\n      pop\n        /* \"BirdMarketPlace.sol\":1870:1873  i++ */\n      dup1\n      dup1\n      tag_195\n      swap1\n      tag_196\n      jump\t// in\n    tag_195:\n      swap2\n      pop\n      pop\n        /* \"BirdMarketPlace.sol\":1837:1965  for (uint256 i = 0; i < balance; i++) {... */\n      jump(tag_185)\n    tag_186:\n      pop\n        /* \"BirdMarketPlace.sol\":1981:1986  myNft */\n      dup1\n        /* \"BirdMarketPlace.sol\":1974:1986  return myNft */\n      swap3\n      pop\n      pop\n      pop\n        /* \"BirdMarketPlace.sol\":1641:1993  function getListedNft() public view returns (ListDetail[] memory) {... */\n      swap1\n      jump\t// out\n        /* \"@openzeppelin/contracts/access/Ownable.sol\":1638:1723  function owner() public view virtual returns (address) {... */\n    tag_56:\n        /* \"@openzeppelin/contracts/access/Ownable.sol\":1684:1691  address */\n      0x00\n        /* \"@openzeppelin/contracts/access/Ownable.sol\":1710:1716  _owner */\n      dup1\n      0x00\n      swap1\n      sload\n      swap1\n      0x0100\n      exp\n      swap1\n      div\n      0xffffffffffffffffffffffffffffffffffffffff\n      and\n        /* \"@openzeppelin/contracts/access/Ownable.sol\":1703:1716  return _owner */\n      swap1\n      pop\n        /* \"@openzeppelin/contracts/access/Ownable.sol\":1638:1723  function owner() public view virtual returns (address) {... */\n      swap1\n      jump\t// out\n        /* \"BirdMarketPlace.sol\":3068:3491  function unlistNft(uint256 tokenId) public {... */\n    tag_61:\n        /* \"BirdMarketPlace.sol\":3175:3179  this */\n      address\n        /* \"BirdMarketPlace.sol\":3142:3180  _nft.ownerOf(tokenId) == address(this) */\n      0xffffffffffffffffffffffffffffffffffffffff\n      and\n        /* \"BirdMarketPlace.sol\":3142:3146  _nft */\n      0x01\n      0x00\n      swap1\n      sload\n      swap1\n      0x0100\n      exp\n      swap1\n      div\n      0xffffffffffffffffffffffffffffffffffffffff\n      and\n        /* \"BirdMarketPlace.sol\":3142:3154  _nft.ownerOf */\n      0xffffffffffffffffffffffffffffffffffffffff\n      and\n      0x6352211e\n        /* \"BirdMarketPlace.sol\":3155:3162  tokenId */\n      dup4\n        /* \"BirdMarketPlace.sol\":3142:3163  _nft.ownerOf(tokenId) */\n      mload(0x40)\n      dup3\n      0xffffffff\n      and\n      0xe0\n      shl\n      dup2\n      mstore\n      0x04\n      add\n      tag_199\n      swap2\n      swap1\n      tag_84\n      jump\t// in\n    tag_199:\n      0x20\n      mload(0x40)\n      dup1\n      dup4\n      sub\n      dup2\n      dup7\n      gas\n      staticcall\n      iszero\n      dup1\n      iszero\n      tag_201\n      jumpi\n      returndatasize\n      0x00\n      dup1\n      returndatacopy\n      revert(0x00, returndatasize)\n    tag_201:\n      pop\n      pop\n      pop\n      pop\n      mload(0x40)\n      returndatasize\n      not(0x1f)\n      0x1f\n      dup3\n      add\n      and\n      dup3\n      add\n      dup1\n      0x40\n      mstore\n      pop\n      dup2\n      add\n      swap1\n      tag_202\n      swap2\n      swap1\n      tag_123\n      jump\t// in\n    tag_202:\n        /* \"BirdMarketPlace.sol\":3142:3180  _nft.ownerOf(tokenId) == address(this) */\n      0xffffffffffffffffffffffffffffffffffffffff\n      and\n      eq\n        /* \"BirdMarketPlace.sol\":3121:3245  require(... */\n      tag_203\n      jumpi\n      mload(0x40)\n      0x08c379a000000000000000000000000000000000000000000000000000000000\n      dup2\n      mstore\n      0x04\n      add\n      tag_204\n      swap1\n      tag_126\n      jump\t// in\n    tag_204:\n      mload(0x40)\n      dup1\n      swap2\n      sub\n      swap1\n      revert\n    tag_203:\n        /* \"BirdMarketPlace.sol\":3306:3316  msg.sender */\n      caller\n        /* \"BirdMarketPlace.sol\":3276:3316  listDetail[tokenId].author == msg.sender */\n      0xffffffffffffffffffffffffffffffffffffffff\n      and\n        /* \"BirdMarketPlace.sol\":3276:3286  listDetail */\n      0x04\n        /* \"BirdMarketPlace.sol\":3276:3295  listDetail[tokenId] */\n      0x00\n        /* \"BirdMarketPlace.sol\":3287:3294  tokenId */\n      dup4\n        /* \"BirdMarketPlace.sol\":3276:3295  listDetail[tokenId] */\n      dup2\n      mstore\n      0x20\n      add\n      swap1\n      dup2\n      mstore\n      0x20\n      add\n      0x00\n      keccak256\n        /* \"BirdMarketPlace.sol\":3276:3302  listDetail[tokenId].author */\n      0x00\n      add\n      0x00\n      swap1\n      sload\n      swap1\n      0x0100\n      exp\n      swap1\n      div\n      0xffffffffffffffffffffffffffffffffffffffff\n      and\n        /* \"BirdMarketPlace.sol\":3276:3316  listDetail[tokenId].author == msg.sender */\n      0xffffffffffffffffffffffffffffffffffffffff\n      and\n      eq\n        /* \"BirdMarketPlace.sol\":3255:3372  require(... */\n      tag_205\n      jumpi\n      mload(0x40)\n      0x08c379a000000000000000000000000000000000000000000000000000000000\n      dup2\n      mstore\n      0x04\n      add\n      tag_206\n      swap1\n      tag_207\n      jump\t// in\n    tag_206:\n      mload(0x40)\n      dup1\n      swap2\n      sub\n      swap1\n      revert\n    tag_205:\n        /* \"BirdMarketPlace.sol\":3382:3386  _nft */\n      0x01\n      0x00\n      swap1\n      sload\n      swap1\n      0x0100\n      exp\n      swap1\n      div\n      0xffffffffffffffffffffffffffffffffffffffff\n      and\n        /* \"BirdMarketPlace.sol\":3382:3403  _nft.safeTransferFrom */\n      0xffffffffffffffffffffffffffffffffffffffff\n      and\n      0x42842e0e\n        /* \"BirdMarketPlace.sol\":3412:3416  this */\n      address\n        /* \"BirdMarketPlace.sol\":3419:3429  msg.sender */\n      caller\n        /* \"BirdMarketPlace.sol\":3431:3438  tokenId */\n      dup5\n        /* \"BirdMarketPlace.sol\":3382:3439  _nft.safeTransferFrom(address(this), msg.sender, tokenId) */\n      mload(0x40)\n      dup5\n      0xffffffff\n      and\n      0xe0\n      shl\n      dup2\n      mstore\n      0x04\n      add\n      tag_208\n      swap4\n      swap3\n      swap2\n      swap1\n      tag_163\n      jump\t// in\n    tag_208:\n      0x00\n      mload(0x40)\n      dup1\n      dup4\n      sub\n      dup2\n      0x00\n      dup8\n      dup1\n      extcodesize\n      iszero\n      dup1\n      iszero\n      tag_209\n      jumpi\n      0x00\n      dup1\n      revert\n    tag_209:\n      pop\n      gas\n      call\n      iszero\n      dup1\n      iszero\n      tag_211\n      jumpi\n      returndatasize\n      0x00\n      dup1\n      returndatacopy\n      revert(0x00, returndatasize)\n    tag_211:\n      pop\n      pop\n      pop\n      pop\n        /* \"BirdMarketPlace.sol\":3464:3474  msg.sender */\n      caller\n        /* \"BirdMarketPlace.sol\":3454:3484  UnlistNFT(msg.sender, tokenId) */\n      0xffffffffffffffffffffffffffffffffffffffff\n      and\n      0x995270fd4f93cea033cdf0da430f296d82414eb9a7d99b6b391bb3e8a1ee9fc2\n        /* \"BirdMarketPlace.sol\":3476:3483  tokenId */\n      dup3\n        /* \"BirdMarketPlace.sol\":3454:3484  UnlistNFT(msg.sender, tokenId) */\n      mload(0x40)\n      tag_212\n      swap2\n      swap1\n      tag_84\n      jump\t// in\n    tag_212:\n      mload(0x40)\n      dup1\n      swap2\n      sub\n      swap1\n      log2\n        /* \"BirdMarketPlace.sol\":3068:3491  function unlistNft(uint256 tokenId) public {... */\n      pop\n      jump\t// out\n        /* \"@openzeppelin/contracts/access/Ownable.sol\":2543:2758  function transferOwnership(address newOwner) public virtual onlyOwner {... */\n    tag_65:\n        /* \"@openzeppelin/contracts/access/Ownable.sol\":1531:1544  _checkOwner() */\n      tag_214\n        /* \"@openzeppelin/contracts/access/Ownable.sol\":1531:1542  _checkOwner */\n      tag_75\n        /* \"@openzeppelin/contracts/access/Ownable.sol\":1531:1544  _checkOwner() */\n      jump\t// in\n    tag_214:\n        /* \"@openzeppelin/contracts/access/Ownable.sol\":2647:2648  0 */\n      0x00\n        /* \"@openzeppelin/contracts/access/Ownable.sol\":2627:2649  newOwner == address(0) */\n      0xffffffffffffffffffffffffffffffffffffffff\n      and\n        /* \"@openzeppelin/contracts/access/Ownable.sol\":2627:2635  newOwner */\n      dup2\n        /* \"@openzeppelin/contracts/access/Ownable.sol\":2627:2649  newOwner == address(0) */\n      0xffffffffffffffffffffffffffffffffffffffff\n      and\n      sub\n        /* \"@openzeppelin/contracts/access/Ownable.sol\":2623:2714  if (newOwner == address(0)) {... */\n      tag_216\n      jumpi\n        /* \"@openzeppelin/contracts/access/Ownable.sol\":2700:2701  0 */\n      0x00\n        /* \"@openzeppelin/contracts/access/Ownable.sol\":2672:2703  OwnableInvalidOwner(address(0)) */\n      mload(0x40)\n      0x1e4fbdf700000000000000000000000000000000000000000000000000000000\n      dup2\n      mstore\n      0x04\n      add\n      tag_217\n      swap2\n      swap1\n      tag_58\n      jump\t// in\n    tag_217:\n      mload(0x40)\n      dup1\n      swap2\n      sub\n      swap1\n      revert\n        /* \"@openzeppelin/contracts/access/Ownable.sol\":2623:2714  if (newOwner == address(0)) {... */\n    tag_216:\n        /* \"@openzeppelin/contracts/access/Ownable.sol\":2723:2751  _transferOwnership(newOwner) */\n      tag_218\n        /* \"@openzeppelin/contracts/access/Ownable.sol\":2742:2750  newOwner */\n      dup2\n        /* \"@openzeppelin/contracts/access/Ownable.sol\":2723:2741  _transferOwnership */\n      tag_172\n        /* \"@openzeppelin/contracts/access/Ownable.sol\":2723:2751  _transferOwnership(newOwner) */\n      jump\t// in\n    tag_218:\n        /* \"@openzeppelin/contracts/access/Ownable.sol\":2543:2758  function transferOwnership(address newOwner) public virtual onlyOwner {... */\n      pop\n      jump\t// out\n        /* \"BirdMarketPlace.sol\":1526:1635  function setNft(IERC721Enumerable nft) public onlyOwner {... */\n    tag_69:\n        /* \"@openzeppelin/contracts/access/Ownable.sol\":1531:1544  _checkOwner() */\n      tag_220\n        /* \"@openzeppelin/contracts/access/Ownable.sol\":1531:1542  _checkOwner */\n      tag_75\n        /* \"@openzeppelin/contracts/access/Ownable.sol\":1531:1544  _checkOwner() */\n      jump\t// in\n    tag_220:\n        /* \"BirdMarketPlace.sol\":1598:1602  _nft */\n      0x01\n      0x00\n      swap1\n      sload\n      swap1\n      0x0100\n      exp\n      swap1\n      div\n      0xffffffffffffffffffffffffffffffffffffffff\n      and\n        /* \"BirdMarketPlace.sol\":1592:1602  nft = _nft */\n      swap1\n      pop\n        /* \"BirdMarketPlace.sol\":1617:1628  SetNFT(nft) */\n      0xf8525b9383ba5cc1b196c9a879bcbe7911913876aaff159ec424e1bb6136fff2\n        /* \"BirdMarketPlace.sol\":1624:1627  nft */\n      dup2\n        /* \"BirdMarketPlace.sol\":1617:1628  SetNFT(nft) */\n      mload(0x40)\n      tag_222\n      swap2\n      swap1\n      tag_223\n      jump\t// in\n    tag_222:\n      mload(0x40)\n      dup1\n      swap2\n      sub\n      swap1\n      log1\n        /* \"BirdMarketPlace.sol\":1526:1635  function setNft(IERC721Enumerable nft) public onlyOwner {... */\n      pop\n      jump\t// out\n        /* \"BirdMarketPlace.sol\":2028:2556  function listNft(uint256 tokenId, uint256 price) public {... */\n    tag_72:\n        /* \"BirdMarketPlace.sol\":2140:2150  msg.sender */\n      caller\n        /* \"BirdMarketPlace.sol\":2115:2150  _nft.ownerOf(tokenId) == msg.sender */\n      0xffffffffffffffffffffffffffffffffffffffff\n      and\n        /* \"BirdMarketPlace.sol\":2115:2119  _nft */\n      0x01\n      0x00\n      swap1\n      sload\n      swap1\n      0x0100\n      exp\n      swap1\n      div\n      0xffffffffffffffffffffffffffffffffffffffff\n      and\n        /* \"BirdMarketPlace.sol\":2115:2127  _nft.ownerOf */\n      0xffffffffffffffffffffffffffffffffffffffff\n      and\n      0x6352211e\n        /* \"BirdMarketPlace.sol\":2128:2135  tokenId */\n      dup5\n        /* \"BirdMarketPlace.sol\":2115:2136  _nft.ownerOf(tokenId) */\n      mload(0x40)\n      dup3\n      0xffffffff\n      and\n      0xe0\n      shl\n      dup2\n      mstore\n      0x04\n      add\n      tag_225\n      swap2\n      swap1\n      tag_84\n      jump\t// in\n    tag_225:\n      0x20\n      mload(0x40)\n      dup1\n      dup4\n      sub\n      dup2\n      dup7\n      gas\n      staticcall\n      iszero\n      dup1\n      iszero\n      tag_227\n      jumpi\n      returndatasize\n      0x00\n      dup1\n      returndatacopy\n      revert(0x00, returndatasize)\n    tag_227:\n      pop\n      pop\n      pop\n      pop\n      mload(0x40)\n      returndatasize\n      not(0x1f)\n      0x1f\n      dup3\n      add\n      and\n      dup3\n      add\n      dup1\n      0x40\n      mstore\n      pop\n      dup2\n      add\n      swap1\n      tag_228\n      swap2\n      swap1\n      tag_123\n      jump\t// in\n    tag_228:\n        /* \"BirdMarketPlace.sol\":2115:2150  _nft.ownerOf(tokenId) == msg.sender */\n      0xffffffffffffffffffffffffffffffffffffffff\n      and\n      eq\n        /* \"BirdMarketPlace.sol\":2094:2209  require(... */\n      tag_229\n      jumpi\n      mload(0x40)\n      0x08c379a000000000000000000000000000000000000000000000000000000000\n      dup2\n      mstore\n      0x04\n      add\n      tag_230\n      swap1\n      tag_231\n      jump\t// in\n    tag_230:\n      mload(0x40)\n      dup1\n      swap2\n      sub\n      swap1\n      revert\n    tag_229:\n        /* \"BirdMarketPlace.sol\":2277:2281  this */\n      address\n        /* \"BirdMarketPlace.sol\":2240:2282  _nft.getApproved(tokenId) == address(this) */\n      0xffffffffffffffffffffffffffffffffffffffff\n      and\n        /* \"BirdMarketPlace.sol\":2240:2244  _nft */\n      0x01\n      0x00\n      swap1\n      sload\n      swap1\n      0x0100\n      exp\n      swap1\n      div\n      0xffffffffffffffffffffffffffffffffffffffff\n      and\n        /* \"BirdMarketPlace.sol\":2240:2256  _nft.getApproved */\n      0xffffffffffffffffffffffffffffffffffffffff\n      and\n      0x081812fc\n        /* \"BirdMarketPlace.sol\":2257:2264  tokenId */\n      dup5\n        /* \"BirdMarketPlace.sol\":2240:2265  _nft.getApproved(tokenId) */\n      mload(0x40)\n      dup3\n      0xffffffff\n      and\n      0xe0\n      shl\n      dup2\n      mstore\n      0x04\n      add\n      tag_232\n      swap2\n      swap1\n      tag_84\n      jump\t// in\n    tag_232:\n      0x20\n      mload(0x40)\n      dup1\n      dup4\n      sub\n      dup2\n      dup7\n      gas\n      staticcall\n      iszero\n      dup1\n      iszero\n      tag_234\n      jumpi\n      returndatasize\n      0x00\n      dup1\n      returndatacopy\n      revert(0x00, returndatasize)\n    tag_234:\n      pop\n      pop\n      pop\n      pop\n      mload(0x40)\n      returndatasize\n      not(0x1f)\n      0x1f\n      dup3\n      add\n      and\n      dup3\n      add\n      dup1\n      0x40\n      mstore\n      pop\n      dup2\n      add\n      swap1\n      tag_235\n      swap2\n      swap1\n      tag_123\n      jump\t// in\n    tag_235:\n        /* \"BirdMarketPlace.sol\":2240:2282  _nft.getApproved(tokenId) == address(this) */\n      0xffffffffffffffffffffffffffffffffffffffff\n      and\n      eq\n        /* \"BirdMarketPlace.sol\":2219:2353  require(... */\n      tag_236\n      jumpi\n      mload(0x40)\n      0x08c379a000000000000000000000000000000000000000000000000000000000\n      dup2\n      mstore\n      0x04\n      add\n      tag_237\n      swap1\n      tag_238\n      jump\t// in\n    tag_237:\n      mload(0x40)\n      dup1\n      swap2\n      sub\n      swap1\n      revert\n    tag_236:\n        /* \"BirdMarketPlace.sol\":2385:2432  ListDetail(payable(msg.sender), price, tokenId) */\n      mload(0x40)\n      dup1\n      0x60\n      add\n      0x40\n      mstore\n      dup1\n        /* \"BirdMarketPlace.sol\":2404:2414  msg.sender */\n      caller\n        /* \"BirdMarketPlace.sol\":2385:2432  ListDetail(payable(msg.sender), price, tokenId) */\n      0xffffffffffffffffffffffffffffffffffffffff\n      and\n      dup2\n      mstore\n      0x20\n      add\n        /* \"BirdMarketPlace.sol\":2417:2422  price */\n      dup3\n        /* \"BirdMarketPlace.sol\":2385:2432  ListDetail(payable(msg.sender), price, tokenId) */\n      dup2\n      mstore\n      0x20\n      add\n        /* \"BirdMarketPlace.sol\":2424:2431  tokenId */\n      dup4\n        /* \"BirdMarketPlace.sol\":2385:2432  ListDetail(payable(msg.sender), price, tokenId) */\n      dup2\n      mstore\n      pop\n        /* \"BirdMarketPlace.sol\":2363:2373  listDetail */\n      0x04\n        /* \"BirdMarketPlace.sol\":2363:2382  listDetail[tokenId] */\n      0x00\n        /* \"BirdMarketPlace.sol\":2374:2381  tokenId */\n      dup5\n        /* \"BirdMarketPlace.sol\":2363:2382  listDetail[tokenId] */\n      dup2\n      mstore\n      0x20\n      add\n      swap1\n      dup2\n      mstore\n      0x20\n      add\n      0x00\n      keccak256\n        /* \"BirdMarketPlace.sol\":2363:2432  listDetail[tokenId] = ListDetail(payable(msg.sender), price, tokenId) */\n      0x00\n      dup3\n      add\n      mload\n      dup2\n      0x00\n      add\n      exp(0x0100, 0x00)\n      dup2\n      sload\n      dup2\n      0xffffffffffffffffffffffffffffffffffffffff\n      mul\n      not\n      and\n      swap1\n      dup4\n      0xffffffffffffffffffffffffffffffffffffffff\n      and\n      mul\n      or\n      swap1\n      sstore\n      pop\n      0x20\n      dup3\n      add\n      mload\n      dup2\n      0x01\n      add\n      sstore\n      0x40\n      dup3\n      add\n      mload\n      dup2\n      0x02\n      add\n      sstore\n      swap1\n      pop\n      pop\n        /* \"BirdMarketPlace.sol\":2442:2446  _nft */\n      0x01\n      0x00\n      swap1\n      sload\n      swap1\n      0x0100\n      exp\n      swap1\n      div\n      0xffffffffffffffffffffffffffffffffffffffff\n      and\n        /* \"BirdMarketPlace.sol\":2442:2463  _nft.safeTransferFrom */\n      0xffffffffffffffffffffffffffffffffffffffff\n      and\n      0x42842e0e\n        /* \"BirdMarketPlace.sol\":2464:2474  msg.sender */\n      caller\n        /* \"BirdMarketPlace.sol\":2484:2488  this */\n      address\n        /* \"BirdMarketPlace.sol\":2491:2498  tokenId */\n      dup6\n        /* \"BirdMarketPlace.sol\":2442:2499  _nft.safeTransferFrom(msg.sender, address(this), tokenId) */\n      mload(0x40)\n      dup5\n      0xffffffff\n      and\n      0xe0\n      shl\n      dup2\n      mstore\n      0x04\n      add\n      tag_239\n      swap4\n      swap3\n      swap2\n      swap1\n      tag_163\n      jump\t// in\n    tag_239:\n      0x00\n      mload(0x40)\n      dup1\n      dup4\n      sub\n      dup2\n      0x00\n      dup8\n      dup1\n      extcodesize\n      iszero\n      dup1\n      iszero\n      tag_240\n      jumpi\n      0x00\n      dup1\n      revert\n    tag_240:\n      pop\n      gas\n      call\n      iszero\n      dup1\n      iszero\n      tag_242\n      jumpi\n      returndatasize\n      0x00\n      dup1\n      returndatacopy\n      revert(0x00, returndatasize)\n    tag_242:\n      pop\n      pop\n      pop\n      pop\n        /* \"BirdMarketPlace.sol\":2522:2532  msg.sender */\n      caller\n        /* \"BirdMarketPlace.sol\":2514:2549  ListNFT(msg.sender, tokenId, price) */\n      0xffffffffffffffffffffffffffffffffffffffff\n      and\n      0x6cd52e2afd4c9fdb90f6226975fb688c697f05f2c4306f5bff7ea8cd941ed7ce\n        /* \"BirdMarketPlace.sol\":2534:2541  tokenId */\n      dup4\n        /* \"BirdMarketPlace.sol\":2543:2548  price */\n      dup4\n        /* \"BirdMarketPlace.sol\":2514:2549  ListNFT(msg.sender, tokenId, price) */\n      mload(0x40)\n      tag_243\n      swap3\n      swap2\n      swap1\n      tag_131\n      jump\t// in\n    tag_243:\n      mload(0x40)\n      dup1\n      swap2\n      sub\n      swap1\n      log2\n        /* \"BirdMarketPlace.sol\":2028:2556  function listNft(uint256 tokenId, uint256 price) public {... */\n      pop\n      pop\n      jump\t// out\n        /* \"@openzeppelin/contracts/access/Ownable.sol\":1796:1958  function _checkOwner() internal view virtual {... */\n    tag_75:\n        /* \"@openzeppelin/contracts/access/Ownable.sol\":1866:1878  _msgSender() */\n      tag_245\n        /* \"@openzeppelin/contracts/access/Ownable.sol\":1866:1876  _msgSender */\n      tag_246\n        /* \"@openzeppelin/contracts/access/Ownable.sol\":1866:1878  _msgSender() */\n      jump\t// in\n    tag_245:\n        /* \"@openzeppelin/contracts/access/Ownable.sol\":1855:1878  owner() != _msgSender() */\n      0xffffffffffffffffffffffffffffffffffffffff\n      and\n        /* \"@openzeppelin/contracts/access/Ownable.sol\":1855:1862  owner() */\n      tag_247\n        /* \"@openzeppelin/contracts/access/Ownable.sol\":1855:1860  owner */\n      tag_56\n        /* \"@openzeppelin/contracts/access/Ownable.sol\":1855:1862  owner() */\n      jump\t// in\n    tag_247:\n        /* \"@openzeppelin/contracts/access/Ownable.sol\":1855:1878  owner() != _msgSender() */\n      0xffffffffffffffffffffffffffffffffffffffff\n      and\n      eq\n        /* \"@openzeppelin/contracts/access/Ownable.sol\":1851:1952  if (owner() != _msgSender()) {... */\n      tag_248\n      jumpi\n        /* \"@openzeppelin/contracts/access/Ownable.sol\":1928:1940  _msgSender() */\n      tag_249\n        /* \"@openzeppelin/contracts/access/Ownable.sol\":1928:1938  _msgSender */\n      tag_246\n        /* \"@openzeppelin/contracts/access/Ownable.sol\":1928:1940  _msgSender() */\n      jump\t// in\n    tag_249:\n        /* \"@openzeppelin/contracts/access/Ownable.sol\":1901:1941  OwnableUnauthorizedAccount(_msgSender()) */\n      mload(0x40)\n      0x118cdaa700000000000000000000000000000000000000000000000000000000\n      dup2\n      mstore\n      0x04\n      add\n      tag_250\n      swap2\n      swap1\n      tag_58\n      jump\t// in\n    tag_250:\n      mload(0x40)\n      dup1\n      swap2\n      sub\n      swap1\n      revert\n        /* \"@openzeppelin/contracts/access/Ownable.sol\":1851:1952  if (owner() != _msgSender()) {... */\n    tag_248:\n        /* \"@openzeppelin/contracts/access/Ownable.sol\":1796:1958  function _checkOwner() internal view virtual {... */\n      jump\t// out\n        /* \"@openzeppelin/contracts/token/ERC20/utils/SafeERC20.sol\":1702:1890  function safeTransferFrom(IERC20 token, address from, address to, uint256 value) internal {... */\n    tag_150:\n        /* \"@openzeppelin/contracts/token/ERC20/utils/SafeERC20.sol\":1802:1883  _callOptionalReturn(token, abi.encodeCall(token.transferFrom, (from, to, value))) */\n      tag_252\n        /* \"@openzeppelin/contracts/token/ERC20/utils/SafeERC20.sol\":1822:1827  token */\n      dup5\n        /* \"@openzeppelin/contracts/token/ERC20/utils/SafeERC20.sol\":1844:1849  token */\n      dup6\n        /* \"@openzeppelin/contracts/token/ERC20/utils/SafeERC20.sol\":1844:1862  token.transferFrom */\n      0xffffffffffffffffffffffffffffffffffffffff\n      and\n      0x23b872dd\n        /* \"@openzeppelin/contracts/token/ERC20/utils/SafeERC20.sol\":1865:1869  from */\n      dup7\n        /* \"@openzeppelin/contracts/token/ERC20/utils/SafeERC20.sol\":1871:1873  to */\n      dup7\n        /* \"@openzeppelin/contracts/token/ERC20/utils/SafeERC20.sol\":1875:1880  value */\n      dup7\n        /* \"@openzeppelin/contracts/token/ERC20/utils/SafeERC20.sol\":1829:1882  abi.encodeCall(token.transferFrom, (from, to, value)) */\n      add(0x24, mload(0x40))\n      tag_253\n      swap4\n      swap3\n      swap2\n      swap1\n      tag_163\n      jump\t// in\n    tag_253:\n      mload(0x40)\n      0x20\n      dup2\n      dup4\n      sub\n      sub\n      dup2\n      mstore\n      swap1\n      0x40\n      mstore\n      swap2\n      pop\n      0xe0\n      shl\n      0x20\n      dup3\n      add\n      dup1\n      mload\n      0xffffffffffffffffffffffffffffffffffffffffffffffffffffffff\n      dup4\n      dup2\n      dup4\n      and\n      or\n      dup4\n      mstore\n      pop\n      pop\n      pop\n      pop\n        /* \"@openzeppelin/contracts/token/ERC20/utils/SafeERC20.sol\":1802:1821  _callOptionalReturn */\n      tag_254\n        /* \"@openzeppelin/contracts/token/ERC20/utils/SafeERC20.sol\":1802:1883  _callOptionalReturn(token, abi.encodeCall(token.transferFrom, (from, to, value))) */\n      jump\t// in\n    tag_252:\n        /* \"@openzeppelin/contracts/token/ERC20/utils/SafeERC20.sol\":1702:1890  function safeTransferFrom(IERC20 token, address from, address to, uint256 value) internal {... */\n      pop\n      pop\n      pop\n      pop\n      jump\t// out\n        /* \"@openzeppelin/contracts/access/Ownable.sol\":2912:3099  function _transferOwnership(address newOwner) internal virtual {... */\n    tag_172:\n        /* \"@openzeppelin/contracts/access/Ownable.sol\":2985:3001  address oldOwner */\n      0x00\n        /* \"@openzeppelin/contracts/access/Ownable.sol\":3004:3010  _owner */\n      dup1\n      0x00\n      swap1\n      sload\n      swap1\n      0x0100\n      exp\n      swap1\n      div\n      0xffffffffffffffffffffffffffffffffffffffff\n      and\n        /* \"@openzeppelin/contracts/access/Ownable.sol\":2985:3010  address oldOwner = _owner */\n      swap1\n      pop\n        /* \"@openzeppelin/contracts/access/Ownable.sol\":3029:3037  newOwner */\n      dup2\n        /* \"@openzeppelin/contracts/access/Ownable.sol\":3020:3026  _owner */\n      0x00\n      dup1\n        /* \"@openzeppelin/contracts/access/Ownable.sol\":3020:3037  _owner = newOwner */\n      0x0100\n      exp\n      dup2\n      sload\n      dup2\n      0xffffffffffffffffffffffffffffffffffffffff\n      mul\n      not\n      and\n      swap1\n      dup4\n      0xffffffffffffffffffffffffffffffffffffffff\n      and\n      mul\n      or\n      swap1\n      sstore\n      pop\n        /* \"@openzeppelin/contracts/access/Ownable.sol\":3083:3091  newOwner */\n      dup2\n        /* \"@openzeppelin/contracts/access/Ownable.sol\":3052:3092  OwnershipTransferred(oldOwner, newOwner) */\n      0xffffffffffffffffffffffffffffffffffffffff\n      and\n        /* \"@openzeppelin/contracts/access/Ownable.sol\":3073:3081  oldOwner */\n      dup2\n        /* \"@openzeppelin/contracts/access/Ownable.sol\":3052:3092  OwnershipTransferred(oldOwner, newOwner) */\n      0xffffffffffffffffffffffffffffffffffffffff\n      and\n      0x8be0079c531659141344cd1fd0a4f28419497f9722a3daafe3b4186f6b6457e0\n      mload(0x40)\n      mload(0x40)\n      dup1\n      swap2\n      sub\n      swap1\n      log3\n        /* \"@openzeppelin/contracts/access/Ownable.sol\":2975:3099  {... */\n      pop\n        /* \"@openzeppelin/contracts/access/Ownable.sol\":2912:3099  function _transferOwnership(address newOwner) internal virtual {... */\n      pop\n      jump\t// out\n        /* \"@openzeppelin/contracts/utils/Context.sol\":656:752  function _msgSender() internal view virtual returns (address) {... */\n    tag_246:\n        /* \"@openzeppelin/contracts/utils/Context.sol\":709:716  address */\n      0x00\n        /* \"@openzeppelin/contracts/utils/Context.sol\":735:745  msg.sender */\n      caller\n        /* \"@openzeppelin/contracts/utils/Context.sol\":728:745  return msg.sender */\n      swap1\n      pop\n        /* \"@openzeppelin/contracts/utils/Context.sol\":656:752  function _msgSender() internal view virtual returns (address) {... */\n      swap1\n      jump\t// out\n        /* \"@openzeppelin/contracts/token/ERC20/utils/SafeERC20.sol\":4059:4688  function _callOptionalReturn(IERC20 token, bytes memory data) private {... */\n    tag_254:\n        /* \"@openzeppelin/contracts/token/ERC20/utils/SafeERC20.sol\":4478:4501  bytes memory returndata */\n      0x00\n        /* \"@openzeppelin/contracts/token/ERC20/utils/SafeERC20.sol\":4504:4537  address(token).functionCall(data) */\n      tag_258\n        /* \"@openzeppelin/contracts/token/ERC20/utils/SafeERC20.sol\":4532:4536  data */\n      dup3\n        /* \"@openzeppelin/contracts/token/ERC20/utils/SafeERC20.sol\":4512:4517  token */\n      dup5\n        /* \"@openzeppelin/contracts/token/ERC20/utils/SafeERC20.sol\":4504:4531  address(token).functionCall */\n      0xffffffffffffffffffffffffffffffffffffffff\n      and\n      tag_259\n      swap1\n        /* \"@openzeppelin/contracts/token/ERC20/utils/SafeERC20.sol\":4504:4537  address(token).functionCall(data) */\n      swap2\n      swap1\n      0xffffffff\n      and\n      jump\t// in\n    tag_258:\n        /* \"@openzeppelin/contracts/token/ERC20/utils/SafeERC20.sol\":4478:4537  bytes memory returndata = address(token).functionCall(data) */\n      swap1\n      pop\n        /* \"@openzeppelin/contracts/token/ERC20/utils/SafeERC20.sol\":4572:4573  0 */\n      0x00\n        /* \"@openzeppelin/contracts/token/ERC20/utils/SafeERC20.sol\":4551:4561  returndata */\n      dup2\n        /* \"@openzeppelin/contracts/token/ERC20/utils/SafeERC20.sol\":4551:4568  returndata.length */\n      mload\n        /* \"@openzeppelin/contracts/token/ERC20/utils/SafeERC20.sol\":4551:4573  returndata.length != 0 */\n      eq\n      iszero\n        /* \"@openzeppelin/contracts/token/ERC20/utils/SafeERC20.sol\":4551:4608  returndata.length != 0 && !abi.decode(returndata, (bool)) */\n      dup1\n      iszero\n      tag_260\n      jumpi\n      pop\n        /* \"@openzeppelin/contracts/token/ERC20/utils/SafeERC20.sol\":4589:4599  returndata */\n      dup1\n        /* \"@openzeppelin/contracts/token/ERC20/utils/SafeERC20.sol\":4578:4608  abi.decode(returndata, (bool)) */\n      dup1\n      0x20\n      add\n      swap1\n      mload\n      dup2\n      add\n      swap1\n      tag_261\n      swap2\n      swap1\n      tag_103\n      jump\t// in\n    tag_261:\n        /* \"@openzeppelin/contracts/token/ERC20/utils/SafeERC20.sol\":4577:4608  !abi.decode(returndata, (bool)) */\n      iszero\n        /* \"@openzeppelin/contracts/token/ERC20/utils/SafeERC20.sol\":4551:4608  returndata.length != 0 && !abi.decode(returndata, (bool)) */\n    tag_260:\n        /* \"@openzeppelin/contracts/token/ERC20/utils/SafeERC20.sol\":4547:4682  if (returndata.length != 0 && !abi.decode(returndata, (bool))) {... */\n      iszero\n      tag_262\n      jumpi\n        /* \"@openzeppelin/contracts/token/ERC20/utils/SafeERC20.sol\":4664:4669  token */\n      dup3\n        /* \"@openzeppelin/contracts/token/ERC20/utils/SafeERC20.sol\":4631:4671  SafeERC20FailedOperation(address(token)) */\n      mload(0x40)\n      0x5274afe700000000000000000000000000000000000000000000000000000000\n      dup2\n      mstore\n      0x04\n      add\n      tag_263\n      swap2\n      swap1\n      tag_58\n      jump\t// in\n    tag_263:\n      mload(0x40)\n      dup1\n      swap2\n      sub\n      swap1\n      revert\n        /* \"@openzeppelin/contracts/token/ERC20/utils/SafeERC20.sol\":4547:4682  if (returndata.length != 0 && !abi.decode(returndata, (bool))) {... */\n    tag_262:\n        /* \"@openzeppelin/contracts/token/ERC20/utils/SafeERC20.sol\":4129:4688  {... */\n      pop\n        /* \"@openzeppelin/contracts/token/ERC20/utils/SafeERC20.sol\":4059:4688  function _callOptionalReturn(IERC20 token, bytes memory data) private {... */\n      pop\n      pop\n      jump\t// out\n        /* \"@openzeppelin/contracts/utils/Address.sol\":2705:2856  function functionCall(address target, bytes memory data) internal returns (bytes memory) {... */\n    tag_259:\n        /* \"@openzeppelin/contracts/utils/Address.sol\":2780:2792  bytes memory */\n      0x60\n        /* \"@openzeppelin/contracts/utils/Address.sol\":2811:2849  functionCallWithValue(target, data, 0) */\n      tag_265\n        /* \"@openzeppelin/contracts/utils/Address.sol\":2833:2839  target */\n      dup4\n        /* \"@openzeppelin/contracts/utils/Address.sol\":2841:2845  data */\n      dup4\n        /* \"@openzeppelin/contracts/utils/Address.sol\":2847:2848  0 */\n      0x00\n        /* \"@openzeppelin/contracts/utils/Address.sol\":2811:2832  functionCallWithValue */\n      tag_266\n        /* \"@openzeppelin/contracts/utils/Address.sol\":2811:2849  functionCallWithValue(target, data, 0) */\n      jump\t// in\n    tag_265:\n        /* \"@openzeppelin/contracts/utils/Address.sol\":2804:2849  return functionCallWithValue(target, data, 0) */\n      swap1\n      pop\n        /* \"@openzeppelin/contracts/utils/Address.sol\":2705:2856  function functionCall(address target, bytes memory data) internal returns (bytes memory) {... */\n      swap3\n      swap2\n      pop\n      pop\n      jump\t// out\n        /* \"@openzeppelin/contracts/utils/Address.sol\":3180:3572  function functionCallWithValue(address target, bytes memory data, uint256 value) internal returns (bytes memory) {... */\n    tag_266:\n        /* \"@openzeppelin/contracts/utils/Address.sol\":3279:3291  bytes memory */\n      0x60\n        /* \"@openzeppelin/contracts/utils/Address.sol\":3331:3336  value */\n      dup2\n        /* \"@openzeppelin/contracts/utils/Address.sol\":3307:3328  address(this).balance */\n      selfbalance\n        /* \"@openzeppelin/contracts/utils/Address.sol\":3307:3336  address(this).balance < value */\n      lt\n        /* \"@openzeppelin/contracts/utils/Address.sol\":3303:3411  if (address(this).balance < value) {... */\n      iszero\n      tag_268\n      jumpi\n        /* \"@openzeppelin/contracts/utils/Address.sol\":3394:3398  this */\n      address\n        /* \"@openzeppelin/contracts/utils/Address.sol\":3359:3400  AddressInsufficientBalance(address(this)) */\n      mload(0x40)\n      0xcd78605900000000000000000000000000000000000000000000000000000000\n      dup2\n      mstore\n      0x04\n      add\n      tag_269\n      swap2\n      swap1\n      tag_58\n      jump\t// in\n    tag_269:\n      mload(0x40)\n      dup1\n      swap2\n      sub\n      swap1\n      revert\n        /* \"@openzeppelin/contracts/utils/Address.sol\":3303:3411  if (address(this).balance < value) {... */\n    tag_268:\n        /* \"@openzeppelin/contracts/utils/Address.sol\":3421:3433  bool success */\n      0x00\n        /* \"@openzeppelin/contracts/utils/Address.sol\":3435:3458  bytes memory returndata */\n      dup1\n        /* \"@openzeppelin/contracts/utils/Address.sol\":3462:3468  target */\n      dup6\n        /* \"@openzeppelin/contracts/utils/Address.sol\":3462:3473  target.call */\n      0xffffffffffffffffffffffffffffffffffffffff\n      and\n        /* \"@openzeppelin/contracts/utils/Address.sol\":3481:3486  value */\n      dup5\n        /* \"@openzeppelin/contracts/utils/Address.sol\":3488:3492  data */\n      dup7\n        /* \"@openzeppelin/contracts/utils/Address.sol\":3462:3493  target.call{value: value}(data) */\n      mload(0x40)\n      tag_270\n      swap2\n      swap1\n      tag_271\n      jump\t// in\n    tag_270:\n      0x00\n      mload(0x40)\n      dup1\n      dup4\n      sub\n      dup2\n      dup6\n      dup8\n      gas\n      call\n      swap3\n      pop\n      pop\n      pop\n      returndatasize\n      dup1\n      0x00\n      dup2\n      eq\n      tag_274\n      jumpi\n      mload(0x40)\n      swap2\n      pop\n      and(add(returndatasize, 0x3f), not(0x1f))\n      dup3\n      add\n      0x40\n      mstore\n      returndatasize\n      dup3\n      mstore\n      returndatasize\n      0x00\n      0x20\n      dup5\n      add\n      returndatacopy\n      jump(tag_273)\n    tag_274:\n      0x60\n      swap2\n      pop\n    tag_273:\n      pop\n        /* \"@openzeppelin/contracts/utils/Address.sol\":3420:3493  (bool success, bytes memory returndata) = target.call{value: value}(data) */\n      swap2\n      pop\n      swap2\n      pop\n        /* \"@openzeppelin/contracts/utils/Address.sol\":3510:3565  verifyCallResultFromTarget(target, success, returndata) */\n      tag_275\n        /* \"@openzeppelin/contracts/utils/Address.sol\":3537:3543  target */\n      dup7\n        /* \"@openzeppelin/contracts/utils/Address.sol\":3545:3552  success */\n      dup4\n        /* \"@openzeppelin/contracts/utils/Address.sol\":3554:3564  returndata */\n      dup4\n        /* \"@openzeppelin/contracts/utils/Address.sol\":3510:3536  verifyCallResultFromTarget */\n      tag_276\n        /* \"@openzeppelin/contracts/utils/Address.sol\":3510:3565  verifyCallResultFromTarget(target, success, returndata) */\n      jump\t// in\n    tag_275:\n        /* \"@openzeppelin/contracts/utils/Address.sol\":3503:3565  return verifyCallResultFromTarget(target, success, returndata) */\n      swap3\n      pop\n      pop\n      pop\n        /* \"@openzeppelin/contracts/utils/Address.sol\":3180:3572  function functionCallWithValue(address target, bytes memory data, uint256 value) internal returns (bytes memory) {... */\n      swap4\n      swap3\n      pop\n      pop\n      pop\n      jump\t// out\n        /* \"@openzeppelin/contracts/utils/Address.sol\":4625:5207  function verifyCallResultFromTarget(... */\n    tag_276:\n        /* \"@openzeppelin/contracts/utils/Address.sol\":4769:4781  bytes memory */\n      0x60\n        /* \"@openzeppelin/contracts/utils/Address.sol\":4798:4805  success */\n      dup3\n        /* \"@openzeppelin/contracts/utils/Address.sol\":4793:5201  if (!success) {... */\n      tag_278\n      jumpi\n        /* \"@openzeppelin/contracts/utils/Address.sol\":4821:4840  _revert(returndata) */\n      tag_279\n        /* \"@openzeppelin/contracts/utils/Address.sol\":4829:4839  returndata */\n      dup3\n        /* \"@openzeppelin/contracts/utils/Address.sol\":4821:4828  _revert */\n      tag_280\n        /* \"@openzeppelin/contracts/utils/Address.sol\":4821:4840  _revert(returndata) */\n      jump\t// in\n    tag_279:\n        /* \"@openzeppelin/contracts/utils/Address.sol\":4793:5201  if (!success) {... */\n      jump(tag_281)\n    tag_278:\n        /* \"@openzeppelin/contracts/utils/Address.sol\":5066:5067  0 */\n      0x00\n        /* \"@openzeppelin/contracts/utils/Address.sol\":5045:5055  returndata */\n      dup3\n        /* \"@openzeppelin/contracts/utils/Address.sol\":5045:5062  returndata.length */\n      mload\n        /* \"@openzeppelin/contracts/utils/Address.sol\":5045:5067  returndata.length == 0 */\n      eq\n        /* \"@openzeppelin/contracts/utils/Address.sol\":5045:5094  returndata.length == 0 && target.code.length == 0 */\n      dup1\n      iszero\n      tag_282\n      jumpi\n      pop\n        /* \"@openzeppelin/contracts/utils/Address.sol\":5093:5094  0 */\n      0x00\n        /* \"@openzeppelin/contracts/utils/Address.sol\":5071:5077  target */\n      dup5\n        /* \"@openzeppelin/contracts/utils/Address.sol\":5071:5089  target.code.length */\n      0xffffffffffffffffffffffffffffffffffffffff\n      and\n      extcodesize\n        /* \"@openzeppelin/contracts/utils/Address.sol\":5071:5094  target.code.length == 0 */\n      eq\n        /* \"@openzeppelin/contracts/utils/Address.sol\":5045:5094  returndata.length == 0 && target.code.length == 0 */\n    tag_282:\n        /* \"@openzeppelin/contracts/utils/Address.sol\":5041:5160  if (returndata.length == 0 && target.code.length == 0) {... */\n      iszero\n      tag_283\n      jumpi\n        /* \"@openzeppelin/contracts/utils/Address.sol\":5138:5144  target */\n      dup4\n        /* \"@openzeppelin/contracts/utils/Address.sol\":5121:5145  AddressEmptyCode(target) */\n      mload(0x40)\n      0x9996b31500000000000000000000000000000000000000000000000000000000\n      dup2\n      mstore\n      0x04\n      add\n      tag_284\n      swap2\n      swap1\n      tag_58\n      jump\t// in\n    tag_284:\n      mload(0x40)\n      dup1\n      swap2\n      sub\n      swap1\n      revert\n        /* \"@openzeppelin/contracts/utils/Address.sol\":5041:5160  if (returndata.length == 0 && target.code.length == 0) {... */\n    tag_283:\n        /* \"@openzeppelin/contracts/utils/Address.sol\":5180:5190  returndata */\n      dup2\n        /* \"@openzeppelin/contracts/utils/Address.sol\":5173:5190  return returndata */\n      swap1\n      pop\n      jump(tag_277)\n        /* \"@openzeppelin/contracts/utils/Address.sol\":4793:5201  if (!success) {... */\n    tag_281:\n        /* \"@openzeppelin/contracts/utils/Address.sol\":4625:5207  function verifyCallResultFromTarget(... */\n    tag_277:\n      swap4\n      swap3\n      pop\n      pop\n      pop\n      jump\t// out\n        /* \"@openzeppelin/contracts/utils/Address.sol\":5743:6259  function _revert(bytes memory returndata) private pure {... */\n    tag_280:\n        /* \"@openzeppelin/contracts/utils/Address.sol\":5894:5895  0 */\n      0x00\n        /* \"@openzeppelin/contracts/utils/Address.sol\":5874:5884  returndata */\n      dup2\n        /* \"@openzeppelin/contracts/utils/Address.sol\":5874:5891  returndata.length */\n      mload\n        /* \"@openzeppelin/contracts/utils/Address.sol\":5874:5895  returndata.length > 0 */\n      gt\n        /* \"@openzeppelin/contracts/utils/Address.sol\":5870:6253  if (returndata.length > 0) {... */\n      iszero\n      tag_286\n      jumpi\n        /* \"@openzeppelin/contracts/utils/Address.sol\":6102:6112  returndata */\n      dup1\n        /* \"@openzeppelin/contracts/utils/Address.sol\":6096:6113  mload(returndata) */\n      mload\n        /* \"@openzeppelin/contracts/utils/Address.sol\":6158:6173  returndata_size */\n      dup1\n        /* \"@openzeppelin/contracts/utils/Address.sol\":6145:6155  returndata */\n      dup3\n        /* \"@openzeppelin/contracts/utils/Address.sol\":6141:6143  32 */\n      0x20\n        /* \"@openzeppelin/contracts/utils/Address.sol\":6137:6156  add(32, returndata) */\n      add\n        /* \"@openzeppelin/contracts/utils/Address.sol\":6130:6174  revert(add(32, returndata), returndata_size) */\n      revert\n        /* \"@openzeppelin/contracts/utils/Address.sol\":5870:6253  if (returndata.length > 0) {... */\n    tag_286:\n        /* \"@openzeppelin/contracts/utils/Address.sol\":6225:6242  FailedInnerCall() */\n      mload(0x40)\n      0x1425ea4200000000000000000000000000000000000000000000000000000000\n      dup2\n      mstore\n      0x04\n      add\n      mload(0x40)\n      dup1\n      swap2\n      sub\n      swap1\n      revert\n    tag_184:\n      mload(0x40)\n      dup1\n      0x60\n      add\n      0x40\n      mstore\n      dup1\n      and(0xffffffffffffffffffffffffffffffffffffffff, 0x00)\n      dup2\n      mstore\n      0x20\n      add\n      0x00\n      dup2\n      mstore\n      0x20\n      add\n      0x00\n      dup2\n      mstore\n      pop\n      swap1\n      jump\t// out\n        /* \"#utility.yul\":88:205   */\n    tag_289:\n        /* \"#utility.yul\":197:198   */\n      0x00\n        /* \"#utility.yul\":194:195   */\n      dup1\n        /* \"#utility.yul\":187:199   */\n      revert\n        /* \"#utility.yul\":211:328   */\n    tag_290:\n        /* \"#utility.yul\":320:321   */\n      0x00\n        /* \"#utility.yul\":317:318   */\n      dup1\n        /* \"#utility.yul\":310:322   */\n      revert\n        /* \"#utility.yul\":334:460   */\n    tag_291:\n        /* \"#utility.yul\":371:378   */\n      0x00\n        /* \"#utility.yul\":411:453   */\n      0xffffffffffffffffffffffffffffffffffffffff\n        /* \"#utility.yul\":404:409   */\n      dup3\n        /* \"#utility.yul\":400:454   */\n      and\n        /* \"#utility.yul\":389:454   */\n      swap1\n      pop\n        /* \"#utility.yul\":334:460   */\n      swap2\n      swap1\n      pop\n      jump\t// out\n        /* \"#utility.yul\":466:562   */\n    tag_292:\n        /* \"#utility.yul\":503:510   */\n      0x00\n        /* \"#utility.yul\":532:556   */\n      tag_365\n        /* \"#utility.yul\":550:555   */\n      dup3\n        /* \"#utility.yul\":532:556   */\n      tag_291\n      jump\t// in\n    tag_365:\n        /* \"#utility.yul\":521:556   */\n      swap1\n      pop\n        /* \"#utility.yul\":466:562   */\n      swap2\n      swap1\n      pop\n      jump\t// out\n        /* \"#utility.yul\":568:678   */\n    tag_293:\n        /* \"#utility.yul\":619:626   */\n      0x00\n        /* \"#utility.yul\":648:672   */\n      tag_367\n        /* \"#utility.yul\":666:671   */\n      dup3\n        /* \"#utility.yul\":648:672   */\n      tag_292\n      jump\t// in\n    tag_367:\n        /* \"#utility.yul\":637:672   */\n      swap1\n      pop\n        /* \"#utility.yul\":568:678   */\n      swap2\n      swap1\n      pop\n      jump\t// out\n        /* \"#utility.yul\":684:834   */\n    tag_294:\n        /* \"#utility.yul\":771:809   */\n      tag_369\n        /* \"#utility.yul\":803:808   */\n      dup2\n        /* \"#utility.yul\":771:809   */\n      tag_293\n      jump\t// in\n    tag_369:\n        /* \"#utility.yul\":764:769   */\n      dup2\n        /* \"#utility.yul\":761:810   */\n      eq\n        /* \"#utility.yul\":751:828   */\n      tag_370\n      jumpi\n        /* \"#utility.yul\":824:825   */\n      0x00\n        /* \"#utility.yul\":821:822   */\n      dup1\n        /* \"#utility.yul\":814:826   */\n      revert\n        /* \"#utility.yul\":751:828   */\n    tag_370:\n        /* \"#utility.yul\":684:834   */\n      pop\n      jump\t// out\n        /* \"#utility.yul\":840:1007   */\n    tag_295:\n        /* \"#utility.yul\":900:905   */\n      0x00\n        /* \"#utility.yul\":938:944   */\n      dup2\n        /* \"#utility.yul\":925:945   */\n      calldataload\n        /* \"#utility.yul\":916:945   */\n      swap1\n      pop\n        /* \"#utility.yul\":954:1001   */\n      tag_372\n        /* \"#utility.yul\":995:1000   */\n      dup2\n        /* \"#utility.yul\":954:1001   */\n      tag_294\n      jump\t// in\n    tag_372:\n        /* \"#utility.yul\":840:1007   */\n      swap3\n      swap2\n      pop\n      pop\n      jump\t// out\n        /* \"#utility.yul\":1013:1370   */\n    tag_23:\n        /* \"#utility.yul\":1086:1092   */\n      0x00\n        /* \"#utility.yul\":1135:1137   */\n      0x20\n        /* \"#utility.yul\":1123:1132   */\n      dup3\n        /* \"#utility.yul\":1114:1121   */\n      dup5\n        /* \"#utility.yul\":1110:1133   */\n      sub\n        /* \"#utility.yul\":1106:1138   */\n      slt\n        /* \"#utility.yul\":1103:1222   */\n      iszero\n      tag_374\n      jumpi\n        /* \"#utility.yul\":1141:1220   */\n      tag_375\n      tag_289\n      jump\t// in\n    tag_375:\n        /* \"#utility.yul\":1103:1222   */\n    tag_374:\n        /* \"#utility.yul\":1261:1262   */\n      0x00\n        /* \"#utility.yul\":1286:1353   */\n      tag_376\n        /* \"#utility.yul\":1345:1352   */\n      dup5\n        /* \"#utility.yul\":1336:1342   */\n      dup3\n        /* \"#utility.yul\":1325:1334   */\n      dup6\n        /* \"#utility.yul\":1321:1343   */\n      add\n        /* \"#utility.yul\":1286:1353   */\n      tag_295\n      jump\t// in\n    tag_376:\n        /* \"#utility.yul\":1276:1353   */\n      swap2\n      pop\n        /* \"#utility.yul\":1232:1363   */\n      pop\n        /* \"#utility.yul\":1013:1370   */\n      swap3\n      swap2\n      pop\n      pop\n      jump\t// out\n        /* \"#utility.yul\":1376:1498   */\n    tag_296:\n        /* \"#utility.yul\":1449:1473   */\n      tag_378\n        /* \"#utility.yul\":1467:1472   */\n      dup2\n        /* \"#utility.yul\":1449:1473   */\n      tag_292\n      jump\t// in\n    tag_378:\n        /* \"#utility.yul\":1442:1447   */\n      dup2\n        /* \"#utility.yul\":1439:1474   */\n      eq\n        /* \"#utility.yul\":1429:1492   */\n      tag_379\n      jumpi\n        /* \"#utility.yul\":1488:1489   */\n      0x00\n        /* \"#utility.yul\":1485:1486   */\n      dup1\n        /* \"#utility.yul\":1478:1490   */\n      revert\n        /* \"#utility.yul\":1429:1492   */\n    tag_379:\n        /* \"#utility.yul\":1376:1498   */\n      pop\n      jump\t// out\n        /* \"#utility.yul\":1504:1643   */\n    tag_297:\n        /* \"#utility.yul\":1550:1555   */\n      0x00\n        /* \"#utility.yul\":1588:1594   */\n      dup2\n        /* \"#utility.yul\":1575:1595   */\n      calldataload\n        /* \"#utility.yul\":1566:1595   */\n      swap1\n      pop\n        /* \"#utility.yul\":1604:1637   */\n      tag_381\n        /* \"#utility.yul\":1631:1636   */\n      dup2\n        /* \"#utility.yul\":1604:1637   */\n      tag_296\n      jump\t// in\n    tag_381:\n        /* \"#utility.yul\":1504:1643   */\n      swap3\n      swap2\n      pop\n      pop\n      jump\t// out\n        /* \"#utility.yul\":1649:1726   */\n    tag_298:\n        /* \"#utility.yul\":1686:1693   */\n      0x00\n        /* \"#utility.yul\":1715:1720   */\n      dup2\n        /* \"#utility.yul\":1704:1720   */\n      swap1\n      pop\n        /* \"#utility.yul\":1649:1726   */\n      swap2\n      swap1\n      pop\n      jump\t// out\n        /* \"#utility.yul\":1732:1854   */\n    tag_299:\n        /* \"#utility.yul\":1805:1829   */\n      tag_384\n        /* \"#utility.yul\":1823:1828   */\n      dup2\n        /* \"#utility.yul\":1805:1829   */\n      tag_298\n      jump\t// in\n    tag_384:\n        /* \"#utility.yul\":1798:1803   */\n      dup2\n        /* \"#utility.yul\":1795:1830   */\n      eq\n        /* \"#utility.yul\":1785:1848   */\n      tag_385\n      jumpi\n        /* \"#utility.yul\":1844:1845   */\n      0x00\n        /* \"#utility.yul\":1841:1842   */\n      dup1\n        /* \"#utility.yul\":1834:1846   */\n      revert\n        /* \"#utility.yul\":1785:1848   */\n    tag_385:\n        /* \"#utility.yul\":1732:1854   */\n      pop\n      jump\t// out\n        /* \"#utility.yul\":1860:1999   */\n    tag_300:\n        /* \"#utility.yul\":1906:1911   */\n      0x00\n        /* \"#utility.yul\":1944:1950   */\n      dup2\n        /* \"#utility.yul\":1931:1951   */\n      calldataload\n        /* \"#utility.yul\":1922:1951   */\n      swap1\n      pop\n        /* \"#utility.yul\":1960:1993   */\n      tag_387\n        /* \"#utility.yul\":1987:1992   */\n      dup2\n        /* \"#utility.yul\":1960:1993   */\n      tag_299\n      jump\t// in\n    tag_387:\n        /* \"#utility.yul\":1860:1999   */\n      swap3\n      swap2\n      pop\n      pop\n      jump\t// out\n        /* \"#utility.yul\":2005:2122   */\n    tag_301:\n        /* \"#utility.yul\":2114:2115   */\n      0x00\n        /* \"#utility.yul\":2111:2112   */\n      dup1\n        /* \"#utility.yul\":2104:2116   */\n      revert\n        /* \"#utility.yul\":2128:2245   */\n    tag_302:\n        /* \"#utility.yul\":2237:2238   */\n      0x00\n        /* \"#utility.yul\":2234:2235   */\n      dup1\n        /* \"#utility.yul\":2227:2239   */\n      revert\n        /* \"#utility.yul\":2251:2368   */\n    tag_303:\n        /* \"#utility.yul\":2360:2361   */\n      0x00\n        /* \"#utility.yul\":2357:2358   */\n      dup1\n        /* \"#utility.yul\":2350:2362   */\n      revert\n        /* \"#utility.yul\":2387:2939   */\n    tag_304:\n        /* \"#utility.yul\":2444:2452   */\n      0x00\n        /* \"#utility.yul\":2454:2460   */\n      dup1\n        /* \"#utility.yul\":2504:2507   */\n      dup4\n        /* \"#utility.yul\":2497:2501   */\n      0x1f\n        /* \"#utility.yul\":2489:2495   */\n      dup5\n        /* \"#utility.yul\":2485:2502   */\n      add\n        /* \"#utility.yul\":2481:2508   */\n      slt\n        /* \"#utility.yul\":2471:2593   */\n      tag_392\n      jumpi\n        /* \"#utility.yul\":2512:2591   */\n      tag_393\n      tag_301\n      jump\t// in\n    tag_393:\n        /* \"#utility.yul\":2471:2593   */\n    tag_392:\n        /* \"#utility.yul\":2625:2631   */\n      dup3\n        /* \"#utility.yul\":2612:2632   */\n      calldataload\n        /* \"#utility.yul\":2602:2632   */\n      swap1\n      pop\n        /* \"#utility.yul\":2655:2673   */\n      0xffffffffffffffff\n        /* \"#utility.yul\":2647:2653   */\n      dup2\n        /* \"#utility.yul\":2644:2674   */\n      gt\n        /* \"#utility.yul\":2641:2758   */\n      iszero\n      tag_394\n      jumpi\n        /* \"#utility.yul\":2677:2756   */\n      tag_395\n      tag_302\n      jump\t// in\n    tag_395:\n        /* \"#utility.yul\":2641:2758   */\n    tag_394:\n        /* \"#utility.yul\":2791:2795   */\n      0x20\n        /* \"#utility.yul\":2783:2789   */\n      dup4\n        /* \"#utility.yul\":2779:2796   */\n      add\n        /* \"#utility.yul\":2767:2796   */\n      swap2\n      pop\n        /* \"#utility.yul\":2845:2848   */\n      dup4\n        /* \"#utility.yul\":2837:2841   */\n      0x01\n        /* \"#utility.yul\":2829:2835   */\n      dup3\n        /* \"#utility.yul\":2825:2842   */\n      mul\n        /* \"#utility.yul\":2815:2823   */\n      dup4\n        /* \"#utility.yul\":2811:2843   */\n      add\n        /* \"#utility.yul\":2808:2849   */\n      gt\n        /* \"#utility.yul\":2805:2933   */\n      iszero\n      tag_396\n      jumpi\n        /* \"#utility.yul\":2852:2931   */\n      tag_397\n      tag_303\n      jump\t// in\n    tag_397:\n        /* \"#utility.yul\":2805:2933   */\n    tag_396:\n        /* \"#utility.yul\":2387:2939   */\n      swap3\n      pop\n      swap3\n      swap1\n      pop\n      jump\t// out\n        /* \"#utility.yul\":2945:3908   */\n    tag_27:\n        /* \"#utility.yul\":3042:3048   */\n      0x00\n        /* \"#utility.yul\":3050:3056   */\n      dup1\n        /* \"#utility.yul\":3058:3064   */\n      0x00\n        /* \"#utility.yul\":3066:3072   */\n      dup1\n        /* \"#utility.yul\":3074:3080   */\n      0x00\n        /* \"#utility.yul\":3123:3126   */\n      0x80\n        /* \"#utility.yul\":3111:3120   */\n      dup7\n        /* \"#utility.yul\":3102:3109   */\n      dup9\n        /* \"#utility.yul\":3098:3121   */\n      sub\n        /* \"#utility.yul\":3094:3127   */\n      slt\n        /* \"#utility.yul\":3091:3211   */\n      iszero\n      tag_399\n      jumpi\n        /* \"#utility.yul\":3130:3209   */\n      tag_400\n      tag_289\n      jump\t// in\n    tag_400:\n        /* \"#utility.yul\":3091:3211   */\n    tag_399:\n        /* \"#utility.yul\":3250:3251   */\n      0x00\n        /* \"#utility.yul\":3275:3328   */\n      tag_401\n        /* \"#utility.yul\":3320:3327   */\n      dup9\n        /* \"#utility.yul\":3311:3317   */\n      dup3\n        /* \"#utility.yul\":3300:3309   */\n      dup10\n        /* \"#utility.yul\":3296:3318   */\n      add\n        /* \"#utility.yul\":3275:3328   */\n      tag_297\n      jump\t// in\n    tag_401:\n        /* \"#utility.yul\":3265:3328   */\n      swap6\n      pop\n        /* \"#utility.yul\":3221:3338   */\n      pop\n        /* \"#utility.yul\":3377:3379   */\n      0x20\n        /* \"#utility.yul\":3403:3456   */\n      tag_402\n        /* \"#utility.yul\":3448:3455   */\n      dup9\n        /* \"#utility.yul\":3439:3445   */\n      dup3\n        /* \"#utility.yul\":3428:3437   */\n      dup10\n        /* \"#utility.yul\":3424:3446   */\n      add\n        /* \"#utility.yul\":3403:3456   */\n      tag_297\n      jump\t// in\n    tag_402:\n        /* \"#utility.yul\":3393:3456   */\n      swap5\n      pop\n        /* \"#utility.yul\":3348:3466   */\n      pop\n        /* \"#utility.yul\":3505:3507   */\n      0x40\n        /* \"#utility.yul\":3531:3584   */\n      tag_403\n        /* \"#utility.yul\":3576:3583   */\n      dup9\n        /* \"#utility.yul\":3567:3573   */\n      dup3\n        /* \"#utility.yul\":3556:3565   */\n      dup10\n        /* \"#utility.yul\":3552:3574   */\n      add\n        /* \"#utility.yul\":3531:3584   */\n      tag_300\n      jump\t// in\n    tag_403:\n        /* \"#utility.yul\":3521:3584   */\n      swap4\n      pop\n        /* \"#utility.yul\":3476:3594   */\n      pop\n        /* \"#utility.yul\":3661:3663   */\n      0x60\n        /* \"#utility.yul\":3650:3659   */\n      dup7\n        /* \"#utility.yul\":3646:3664   */\n      add\n        /* \"#utility.yul\":3633:3665   */\n      calldataload\n        /* \"#utility.yul\":3692:3710   */\n      0xffffffffffffffff\n        /* \"#utility.yul\":3684:3690   */\n      dup2\n        /* \"#utility.yul\":3681:3711   */\n      gt\n        /* \"#utility.yul\":3678:3795   */\n      iszero\n      tag_404\n      jumpi\n        /* \"#utility.yul\":3714:3793   */\n      tag_405\n      tag_290\n      jump\t// in\n    tag_405:\n        /* \"#utility.yul\":3678:3795   */\n    tag_404:\n        /* \"#utility.yul\":3827:3891   */\n      tag_406\n        /* \"#utility.yul\":3883:3890   */\n      dup9\n        /* \"#utility.yul\":3874:3880   */\n      dup3\n        /* \"#utility.yul\":3863:3872   */\n      dup10\n        /* \"#utility.yul\":3859:3881   */\n      add\n        /* \"#utility.yul\":3827:3891   */\n      tag_304\n      jump\t// in\n    tag_406:\n        /* \"#utility.yul\":3809:3891   */\n      swap3\n      pop\n      swap3\n      pop\n        /* \"#utility.yul\":3604:3901   */\n      pop\n        /* \"#utility.yul\":2945:3908   */\n      swap3\n      swap6\n      pop\n      swap3\n      swap6\n      swap1\n      swap4\n      pop\n      jump\t// out\n        /* \"#utility.yul\":3914:4063   */\n    tag_305:\n        /* \"#utility.yul\":3950:3957   */\n      0x00\n        /* \"#utility.yul\":3990:4056   */\n      0xffffffff00000000000000000000000000000000000000000000000000000000\n        /* \"#utility.yul\":3983:3988   */\n      dup3\n        /* \"#utility.yul\":3979:4057   */\n      and\n        /* \"#utility.yul\":3968:4057   */\n      swap1\n      pop\n        /* \"#utility.yul\":3914:4063   */\n      swap2\n      swap1\n      pop\n      jump\t// out\n        /* \"#utility.yul\":4069:4184   */\n    tag_306:\n        /* \"#utility.yul\":4154:4177   */\n      tag_409\n        /* \"#utility.yul\":4171:4176   */\n      dup2\n        /* \"#utility.yul\":4154:4177   */\n      tag_305\n      jump\t// in\n    tag_409:\n        /* \"#utility.yul\":4149:4152   */\n      dup3\n        /* \"#utility.yul\":4142:4178   */\n      mstore\n        /* \"#utility.yul\":4069:4184   */\n      pop\n      pop\n      jump\t// out\n        /* \"#utility.yul\":4190:4408   */\n    tag_30:\n        /* \"#utility.yul\":4281:4285   */\n      0x00\n        /* \"#utility.yul\":4319:4321   */\n      0x20\n        /* \"#utility.yul\":4308:4317   */\n      dup3\n        /* \"#utility.yul\":4304:4322   */\n      add\n        /* \"#utility.yul\":4296:4322   */\n      swap1\n      pop\n        /* \"#utility.yul\":4332:4401   */\n      tag_411\n        /* \"#utility.yul\":4398:4399   */\n      0x00\n        /* \"#utility.yul\":4387:4396   */\n      dup4\n        /* \"#utility.yul\":4383:4400   */\n      add\n        /* \"#utility.yul\":4374:4380   */\n      dup5\n        /* \"#utility.yul\":4332:4401   */\n      tag_306\n      jump\t// in\n    tag_411:\n        /* \"#utility.yul\":4190:4408   */\n      swap3\n      swap2\n      pop\n      pop\n      jump\t// out\n        /* \"#utility.yul\":4414:4743   */\n    tag_33:\n        /* \"#utility.yul\":4473:4479   */\n      0x00\n        /* \"#utility.yul\":4522:4524   */\n      0x20\n        /* \"#utility.yul\":4510:4519   */\n      dup3\n        /* \"#utility.yul\":4501:4508   */\n      dup5\n        /* \"#utility.yul\":4497:4520   */\n      sub\n        /* \"#utility.yul\":4493:4525   */\n      slt\n        /* \"#utility.yul\":4490:4609   */\n      iszero\n      tag_413\n      jumpi\n        /* \"#utility.yul\":4528:4607   */\n      tag_414\n      tag_289\n      jump\t// in\n    tag_414:\n        /* \"#utility.yul\":4490:4609   */\n    tag_413:\n        /* \"#utility.yul\":4648:4649   */\n      0x00\n        /* \"#utility.yul\":4673:4726   */\n      tag_415\n        /* \"#utility.yul\":4718:4725   */\n      dup5\n        /* \"#utility.yul\":4709:4715   */\n      dup3\n        /* \"#utility.yul\":4698:4707   */\n      dup6\n        /* \"#utility.yul\":4694:4716   */\n      add\n        /* \"#utility.yul\":4673:4726   */\n      tag_300\n      jump\t// in\n    tag_415:\n        /* \"#utility.yul\":4663:4726   */\n      swap2\n      pop\n        /* \"#utility.yul\":4619:4736   */\n      pop\n        /* \"#utility.yul\":4414:4743   */\n      swap3\n      swap2\n      pop\n      pop\n      jump\t// out\n        /* \"#utility.yul\":4749:5223   */\n    tag_44:\n        /* \"#utility.yul\":4817:4823   */\n      0x00\n        /* \"#utility.yul\":4825:4831   */\n      dup1\n        /* \"#utility.yul\":4874:4876   */\n      0x40\n        /* \"#utility.yul\":4862:4871   */\n      dup4\n        /* \"#utility.yul\":4853:4860   */\n      dup6\n        /* \"#utility.yul\":4849:4872   */\n      sub\n        /* \"#utility.yul\":4845:4877   */\n      slt\n        /* \"#utility.yul\":4842:4961   */\n      iszero\n      tag_417\n      jumpi\n        /* \"#utility.yul\":4880:4959   */\n      tag_418\n      tag_289\n      jump\t// in\n    tag_418:\n        /* \"#utility.yul\":4842:4961   */\n    tag_417:\n        /* \"#utility.yul\":5000:5001   */\n      0x00\n        /* \"#utility.yul\":5025:5078   */\n      tag_419\n        /* \"#utility.yul\":5070:5077   */\n      dup6\n        /* \"#utility.yul\":5061:5067   */\n      dup3\n        /* \"#utility.yul\":5050:5059   */\n      dup7\n        /* \"#utility.yul\":5046:5068   */\n      add\n        /* \"#utility.yul\":5025:5078   */\n      tag_300\n      jump\t// in\n    tag_419:\n        /* \"#utility.yul\":5015:5078   */\n      swap3\n      pop\n        /* \"#utility.yul\":4971:5088   */\n      pop\n        /* \"#utility.yul\":5127:5129   */\n      0x20\n        /* \"#utility.yul\":5153:5206   */\n      tag_420\n        /* \"#utility.yul\":5198:5205   */\n      dup6\n        /* \"#utility.yul\":5189:5195   */\n      dup3\n        /* \"#utility.yul\":5178:5187   */\n      dup7\n        /* \"#utility.yul\":5174:5196   */\n      add\n        /* \"#utility.yul\":5153:5206   */\n      tag_300\n      jump\t// in\n    tag_420:\n        /* \"#utility.yul\":5143:5206   */\n      swap2\n      pop\n        /* \"#utility.yul\":5098:5216   */\n      pop\n        /* \"#utility.yul\":4749:5223   */\n      swap3\n      pop\n      swap3\n      swap1\n      pop\n      jump\t// out\n        /* \"#utility.yul\":5229:5371   */\n    tag_307:\n        /* \"#utility.yul\":5324:5330   */\n      0x00\n        /* \"#utility.yul\":5358:5363   */\n      dup2\n        /* \"#utility.yul\":5352:5364   */\n      mload\n        /* \"#utility.yul\":5342:5364   */\n      swap1\n      pop\n        /* \"#utility.yul\":5229:5371   */\n      swap2\n      swap1\n      pop\n      jump\t// out\n        /* \"#utility.yul\":5377:5589   */\n    tag_308:\n        /* \"#utility.yul\":5504:5515   */\n      0x00\n        /* \"#utility.yul\":5538:5544   */\n      dup3\n        /* \"#utility.yul\":5533:5536   */\n      dup3\n        /* \"#utility.yul\":5526:5545   */\n      mstore\n        /* \"#utility.yul\":5578:5582   */\n      0x20\n        /* \"#utility.yul\":5573:5576   */\n      dup3\n        /* \"#utility.yul\":5569:5583   */\n      add\n        /* \"#utility.yul\":5554:5583   */\n      swap1\n      pop\n        /* \"#utility.yul\":5377:5589   */\n      swap3\n      swap2\n      pop\n      pop\n      jump\t// out\n        /* \"#utility.yul\":5595:5755   */\n    tag_309:\n        /* \"#utility.yul\":5690:5694   */\n      0x00\n        /* \"#utility.yul\":5713:5716   */\n      dup2\n        /* \"#utility.yul\":5705:5716   */\n      swap1\n      pop\n        /* \"#utility.yul\":5743:5747   */\n      0x20\n        /* \"#utility.yul\":5738:5741   */\n      dup3\n        /* \"#utility.yul\":5734:5748   */\n      add\n        /* \"#utility.yul\":5726:5748   */\n      swap1\n      pop\n        /* \"#utility.yul\":5595:5755   */\n      swap2\n      swap1\n      pop\n      jump\t// out\n        /* \"#utility.yul\":5761:5865   */\n    tag_310:\n        /* \"#utility.yul\":5806:5813   */\n      0x00\n        /* \"#utility.yul\":5835:5859   */\n      tag_425\n        /* \"#utility.yul\":5853:5858   */\n      dup3\n        /* \"#utility.yul\":5835:5859   */\n      tag_291\n      jump\t// in\n    tag_425:\n        /* \"#utility.yul\":5824:5859   */\n      swap1\n      pop\n        /* \"#utility.yul\":5761:5865   */\n      swap2\n      swap1\n      pop\n      jump\t// out\n        /* \"#utility.yul\":5871:6003   */\n    tag_311:\n        /* \"#utility.yul\":5964:5996   */\n      tag_427\n        /* \"#utility.yul\":5990:5995   */\n      dup2\n        /* \"#utility.yul\":5964:5996   */\n      tag_310\n      jump\t// in\n    tag_427:\n        /* \"#utility.yul\":5959:5962   */\n      dup3\n        /* \"#utility.yul\":5952:5997   */\n      mstore\n        /* \"#utility.yul\":5871:6003   */\n      pop\n      pop\n      jump\t// out\n        /* \"#utility.yul\":6009:6117   */\n    tag_312:\n        /* \"#utility.yul\":6086:6110   */\n      tag_429\n        /* \"#utility.yul\":6104:6109   */\n      dup2\n        /* \"#utility.yul\":6086:6110   */\n      tag_298\n      jump\t// in\n    tag_429:\n        /* \"#utility.yul\":6081:6084   */\n      dup3\n        /* \"#utility.yul\":6074:6111   */\n      mstore\n        /* \"#utility.yul\":6009:6117   */\n      pop\n      pop\n      jump\t// out\n        /* \"#utility.yul\":6201:6900   */\n    tag_313:\n        /* \"#utility.yul\":6344:6348   */\n      0x60\n        /* \"#utility.yul\":6339:6342   */\n      dup3\n        /* \"#utility.yul\":6335:6349   */\n      add\n        /* \"#utility.yul\":6433:6437   */\n      0x00\n        /* \"#utility.yul\":6426:6431   */\n      dup3\n        /* \"#utility.yul\":6422:6438   */\n      add\n        /* \"#utility.yul\":6416:6439   */\n      mload\n        /* \"#utility.yul\":6452:6531   */\n      tag_431\n        /* \"#utility.yul\":6525:6529   */\n      0x00\n        /* \"#utility.yul\":6520:6523   */\n      dup6\n        /* \"#utility.yul\":6516:6530   */\n      add\n        /* \"#utility.yul\":6502:6514   */\n      dup3\n        /* \"#utility.yul\":6452:6531   */\n      tag_311\n      jump\t// in\n    tag_431:\n        /* \"#utility.yul\":6359:6541   */\n      pop\n        /* \"#utility.yul\":6624:6628   */\n      0x20\n        /* \"#utility.yul\":6617:6622   */\n      dup3\n        /* \"#utility.yul\":6613:6629   */\n      add\n        /* \"#utility.yul\":6607:6630   */\n      mload\n        /* \"#utility.yul\":6643:6706   */\n      tag_432\n        /* \"#utility.yul\":6700:6704   */\n      0x20\n        /* \"#utility.yul\":6695:6698   */\n      dup6\n        /* \"#utility.yul\":6691:6705   */\n      add\n        /* \"#utility.yul\":6677:6689   */\n      dup3\n        /* \"#utility.yul\":6643:6706   */\n      tag_312\n      jump\t// in\n    tag_432:\n        /* \"#utility.yul\":6551:6716   */\n      pop\n        /* \"#utility.yul\":6801:6805   */\n      0x40\n        /* \"#utility.yul\":6794:6799   */\n      dup3\n        /* \"#utility.yul\":6790:6806   */\n      add\n        /* \"#utility.yul\":6784:6807   */\n      mload\n        /* \"#utility.yul\":6820:6883   */\n      tag_433\n        /* \"#utility.yul\":6877:6881   */\n      0x40\n        /* \"#utility.yul\":6872:6875   */\n      dup6\n        /* \"#utility.yul\":6868:6882   */\n      add\n        /* \"#utility.yul\":6854:6866   */\n      dup3\n        /* \"#utility.yul\":6820:6883   */\n      tag_312\n      jump\t// in\n    tag_433:\n        /* \"#utility.yul\":6726:6893   */\n      pop\n        /* \"#utility.yul\":6313:6900   */\n      pop\n        /* \"#utility.yul\":6201:6900   */\n      pop\n      pop\n      jump\t// out\n        /* \"#utility.yul\":6906:7197   */\n    tag_314:\n        /* \"#utility.yul\":7031:7041   */\n      0x00\n        /* \"#utility.yul\":7052:7154   */\n      tag_435\n        /* \"#utility.yul\":7150:7153   */\n      dup4\n        /* \"#utility.yul\":7142:7148   */\n      dup4\n        /* \"#utility.yul\":7052:7154   */\n      tag_313\n      jump\t// in\n    tag_435:\n        /* \"#utility.yul\":7186:7190   */\n      0x60\n        /* \"#utility.yul\":7181:7184   */\n      dup4\n        /* \"#utility.yul\":7177:7191   */\n      add\n        /* \"#utility.yul\":7163:7191   */\n      swap1\n      pop\n        /* \"#utility.yul\":6906:7197   */\n      swap3\n      swap2\n      pop\n      pop\n      jump\t// out\n        /* \"#utility.yul\":7203:7344   */\n    tag_315:\n        /* \"#utility.yul\":7301:7305   */\n      0x00\n        /* \"#utility.yul\":7333:7337   */\n      0x20\n        /* \"#utility.yul\":7328:7331   */\n      dup3\n        /* \"#utility.yul\":7324:7338   */\n      add\n        /* \"#utility.yul\":7316:7338   */\n      swap1\n      pop\n        /* \"#utility.yul\":7203:7344   */\n      swap2\n      swap1\n      pop\n      jump\t// out\n        /* \"#utility.yul\":7432:8388   */\n    tag_316:\n        /* \"#utility.yul\":7607:7610   */\n      0x00\n        /* \"#utility.yul\":7636:7718   */\n      tag_438\n        /* \"#utility.yul\":7712:7717   */\n      dup3\n        /* \"#utility.yul\":7636:7718   */\n      tag_307\n      jump\t// in\n    tag_438:\n        /* \"#utility.yul\":7734:7848   */\n      tag_439\n        /* \"#utility.yul\":7841:7847   */\n      dup2\n        /* \"#utility.yul\":7836:7839   */\n      dup6\n        /* \"#utility.yul\":7734:7848   */\n      tag_308\n      jump\t// in\n    tag_439:\n        /* \"#utility.yul\":7727:7848   */\n      swap4\n      pop\n        /* \"#utility.yul\":7872:7956   */\n      tag_440\n        /* \"#utility.yul\":7950:7955   */\n      dup4\n        /* \"#utility.yul\":7872:7956   */\n      tag_309\n      jump\t// in\n    tag_440:\n        /* \"#utility.yul\":7979:7986   */\n      dup1\n        /* \"#utility.yul\":8010:8011   */\n      0x00\n        /* \"#utility.yul\":7995:8363   */\n    tag_441:\n        /* \"#utility.yul\":8020:8026   */\n      dup4\n        /* \"#utility.yul\":8017:8018   */\n      dup2\n        /* \"#utility.yul\":8014:8027   */\n      lt\n        /* \"#utility.yul\":7995:8363   */\n      iszero\n      tag_443\n      jumpi\n        /* \"#utility.yul\":8096:8102   */\n      dup2\n        /* \"#utility.yul\":8090:8103   */\n      mload\n        /* \"#utility.yul\":8123:8242   */\n      tag_444\n        /* \"#utility.yul\":8238:8241   */\n      dup9\n        /* \"#utility.yul\":8223:8236   */\n      dup3\n        /* \"#utility.yul\":8123:8242   */\n      tag_314\n      jump\t// in\n    tag_444:\n        /* \"#utility.yul\":8116:8242   */\n      swap8\n      pop\n        /* \"#utility.yul\":8265:8353   */\n      tag_445\n        /* \"#utility.yul\":8346:8352   */\n      dup4\n        /* \"#utility.yul\":8265:8353   */\n      tag_315\n      jump\t// in\n    tag_445:\n        /* \"#utility.yul\":8255:8353   */\n      swap3\n      pop\n        /* \"#utility.yul\":8055:8363   */\n      pop\n        /* \"#utility.yul\":8042:8043   */\n      0x01\n        /* \"#utility.yul\":8039:8040   */\n      dup2\n        /* \"#utility.yul\":8035:8044   */\n      add\n        /* \"#utility.yul\":8030:8044   */\n      swap1\n      pop\n        /* \"#utility.yul\":7995:8363   */\n      jump(tag_441)\n    tag_443:\n        /* \"#utility.yul\":7999:8013   */\n      pop\n        /* \"#utility.yul\":8379:8382   */\n      dup6\n        /* \"#utility.yul\":8372:8382   */\n      swap4\n      pop\n        /* \"#utility.yul\":7612:8388   */\n      pop\n      pop\n      pop\n        /* \"#utility.yul\":7432:8388   */\n      swap3\n      swap2\n      pop\n      pop\n      jump\t// out\n        /* \"#utility.yul\":8394:8879   */\n    tag_54:\n        /* \"#utility.yul\":8593:8597   */\n      0x00\n        /* \"#utility.yul\":8631:8633   */\n      0x20\n        /* \"#utility.yul\":8620:8629   */\n      dup3\n        /* \"#utility.yul\":8616:8634   */\n      add\n        /* \"#utility.yul\":8608:8634   */\n      swap1\n      pop\n        /* \"#utility.yul\":8680:8689   */\n      dup2\n        /* \"#utility.yul\":8674:8678   */\n      dup2\n        /* \"#utility.yul\":8670:8690   */\n      sub\n        /* \"#utility.yul\":8666:8667   */\n      0x00\n        /* \"#utility.yul\":8655:8664   */\n      dup4\n        /* \"#utility.yul\":8651:8668   */\n      add\n        /* \"#utility.yul\":8644:8691   */\n      mstore\n        /* \"#utility.yul\":8708:8872   */\n      tag_447\n        /* \"#utility.yul\":8867:8871   */\n      dup2\n        /* \"#utility.yul\":8858:8864   */\n      dup5\n        /* \"#utility.yul\":8708:8872   */\n      tag_316\n      jump\t// in\n    tag_447:\n        /* \"#utility.yul\":8700:8872   */\n      swap1\n      pop\n        /* \"#utility.yul\":8394:8879   */\n      swap3\n      swap2\n      pop\n      pop\n      jump\t// out\n        /* \"#utility.yul\":8885:9003   */\n    tag_317:\n        /* \"#utility.yul\":8972:8996   */\n      tag_449\n        /* \"#utility.yul\":8990:8995   */\n      dup2\n        /* \"#utility.yul\":8972:8996   */\n      tag_292\n      jump\t// in\n    tag_449:\n        /* \"#utility.yul\":8967:8970   */\n      dup3\n        /* \"#utility.yul\":8960:8997   */\n      mstore\n        /* \"#utility.yul\":8885:9003   */\n      pop\n      pop\n      jump\t// out\n        /* \"#utility.yul\":9009:9231   */\n    tag_58:\n        /* \"#utility.yul\":9102:9106   */\n      0x00\n        /* \"#utility.yul\":9140:9142   */\n      0x20\n        /* \"#utility.yul\":9129:9138   */\n      dup3\n        /* \"#utility.yul\":9125:9143   */\n      add\n        /* \"#utility.yul\":9117:9143   */\n      swap1\n      pop\n        /* \"#utility.yul\":9153:9224   */\n      tag_451\n        /* \"#utility.yul\":9221:9222   */\n      0x00\n        /* \"#utility.yul\":9210:9219   */\n      dup4\n        /* \"#utility.yul\":9206:9223   */\n      add\n        /* \"#utility.yul\":9197:9203   */\n      dup5\n        /* \"#utility.yul\":9153:9224   */\n      tag_317\n      jump\t// in\n    tag_451:\n        /* \"#utility.yul\":9009:9231   */\n      swap3\n      swap2\n      pop\n      pop\n      jump\t// out\n        /* \"#utility.yul\":9237:9566   */\n    tag_64:\n        /* \"#utility.yul\":9296:9302   */\n      0x00\n        /* \"#utility.yul\":9345:9347   */\n      0x20\n        /* \"#utility.yul\":9333:9342   */\n      dup3\n        /* \"#utility.yul\":9324:9331   */\n      dup5\n        /* \"#utility.yul\":9320:9343   */\n      sub\n        /* \"#utility.yul\":9316:9348   */\n      slt\n        /* \"#utility.yul\":9313:9432   */\n      iszero\n      tag_453\n      jumpi\n        /* \"#utility.yul\":9351:9430   */\n      tag_454\n      tag_289\n      jump\t// in\n    tag_454:\n        /* \"#utility.yul\":9313:9432   */\n    tag_453:\n        /* \"#utility.yul\":9471:9472   */\n      0x00\n        /* \"#utility.yul\":9496:9549   */\n      tag_455\n        /* \"#utility.yul\":9541:9548   */\n      dup5\n        /* \"#utility.yul\":9532:9538   */\n      dup3\n        /* \"#utility.yul\":9521:9530   */\n      dup6\n        /* \"#utility.yul\":9517:9539   */\n      add\n        /* \"#utility.yul\":9496:9549   */\n      tag_297\n      jump\t// in\n    tag_455:\n        /* \"#utility.yul\":9486:9549   */\n      swap2\n      pop\n        /* \"#utility.yul\":9442:9559   */\n      pop\n        /* \"#utility.yul\":9237:9566   */\n      swap3\n      swap2\n      pop\n      pop\n      jump\t// out\n        /* \"#utility.yul\":9572:9693   */\n    tag_318:\n        /* \"#utility.yul\":9634:9641   */\n      0x00\n        /* \"#utility.yul\":9663:9687   */\n      tag_457\n        /* \"#utility.yul\":9681:9686   */\n      dup3\n        /* \"#utility.yul\":9663:9687   */\n      tag_292\n      jump\t// in\n    tag_457:\n        /* \"#utility.yul\":9652:9687   */\n      swap1\n      pop\n        /* \"#utility.yul\":9572:9693   */\n      swap2\n      swap1\n      pop\n      jump\t// out\n        /* \"#utility.yul\":9699:9871   */\n    tag_319:\n        /* \"#utility.yul\":9797:9846   */\n      tag_459\n        /* \"#utility.yul\":9840:9845   */\n      dup2\n        /* \"#utility.yul\":9797:9846   */\n      tag_318\n      jump\t// in\n    tag_459:\n        /* \"#utility.yul\":9790:9795   */\n      dup2\n        /* \"#utility.yul\":9787:9847   */\n      eq\n        /* \"#utility.yul\":9777:9865   */\n      tag_460\n      jumpi\n        /* \"#utility.yul\":9861:9862   */\n      0x00\n        /* \"#utility.yul\":9858:9859   */\n      dup1\n        /* \"#utility.yul\":9851:9863   */\n      revert\n        /* \"#utility.yul\":9777:9865   */\n    tag_460:\n        /* \"#utility.yul\":9699:9871   */\n      pop\n      jump\t// out\n        /* \"#utility.yul\":9877:10066   */\n    tag_320:\n        /* \"#utility.yul\":9948:9953   */\n      0x00\n        /* \"#utility.yul\":9986:9992   */\n      dup2\n        /* \"#utility.yul\":9973:9993   */\n      calldataload\n        /* \"#utility.yul\":9964:9993   */\n      swap1\n      pop\n        /* \"#utility.yul\":10002:10060   */\n      tag_462\n        /* \"#utility.yul\":10054:10059   */\n      dup2\n        /* \"#utility.yul\":10002:10060   */\n      tag_319\n      jump\t// in\n    tag_462:\n        /* \"#utility.yul\":9877:10066   */\n      swap3\n      swap2\n      pop\n      pop\n      jump\t// out\n        /* \"#utility.yul\":10072:10451   */\n    tag_68:\n        /* \"#utility.yul\":10156:10162   */\n      0x00\n        /* \"#utility.yul\":10205:10207   */\n      0x20\n        /* \"#utility.yul\":10193:10202   */\n      dup3\n        /* \"#utility.yul\":10184:10191   */\n      dup5\n        /* \"#utility.yul\":10180:10203   */\n      sub\n        /* \"#utility.yul\":10176:10208   */\n      slt\n        /* \"#utility.yul\":10173:10292   */\n      iszero\n      tag_464\n      jumpi\n        /* \"#utility.yul\":10211:10290   */\n      tag_465\n      tag_289\n      jump\t// in\n    tag_465:\n        /* \"#utility.yul\":10173:10292   */\n    tag_464:\n        /* \"#utility.yul\":10331:10332   */\n      0x00\n        /* \"#utility.yul\":10356:10434   */\n      tag_466\n        /* \"#utility.yul\":10426:10433   */\n      dup5\n        /* \"#utility.yul\":10417:10423   */\n      dup3\n        /* \"#utility.yul\":10406:10415   */\n      dup6\n        /* \"#utility.yul\":10402:10424   */\n      add\n        /* \"#utility.yul\":10356:10434   */\n      tag_320\n      jump\t// in\n    tag_466:\n        /* \"#utility.yul\":10346:10434   */\n      swap2\n      pop\n        /* \"#utility.yul\":10302:10444   */\n      pop\n        /* \"#utility.yul\":10072:10451   */\n      swap3\n      swap2\n      pop\n      pop\n      jump\t// out\n        /* \"#utility.yul\":10457:10517   */\n    tag_321:\n        /* \"#utility.yul\":10485:10488   */\n      0x00\n        /* \"#utility.yul\":10506:10511   */\n      dup2\n        /* \"#utility.yul\":10499:10511   */\n      swap1\n      pop\n        /* \"#utility.yul\":10457:10517   */\n      swap2\n      swap1\n      pop\n      jump\t// out\n        /* \"#utility.yul\":10523:10665   */\n    tag_322:\n        /* \"#utility.yul\":10573:10582   */\n      0x00\n        /* \"#utility.yul\":10606:10659   */\n      tag_469\n        /* \"#utility.yul\":10624:10658   */\n      tag_470\n        /* \"#utility.yul\":10633:10657   */\n      tag_471\n        /* \"#utility.yul\":10651:10656   */\n      dup5\n        /* \"#utility.yul\":10633:10657   */\n      tag_291\n      jump\t// in\n    tag_471:\n        /* \"#utility.yul\":10624:10658   */\n      tag_321\n      jump\t// in\n    tag_470:\n        /* \"#utility.yul\":10606:10659   */\n      tag_291\n      jump\t// in\n    tag_469:\n        /* \"#utility.yul\":10593:10659   */\n      swap1\n      pop\n        /* \"#utility.yul\":10523:10665   */\n      swap2\n      swap1\n      pop\n      jump\t// out\n        /* \"#utility.yul\":10671:10797   */\n    tag_323:\n        /* \"#utility.yul\":10721:10730   */\n      0x00\n        /* \"#utility.yul\":10754:10791   */\n      tag_473\n        /* \"#utility.yul\":10785:10790   */\n      dup3\n        /* \"#utility.yul\":10754:10791   */\n      tag_322\n      jump\t// in\n    tag_473:\n        /* \"#utility.yul\":10741:10791   */\n      swap1\n      pop\n        /* \"#utility.yul\":10671:10797   */\n      swap2\n      swap1\n      pop\n      jump\t// out\n        /* \"#utility.yul\":10803:10943   */\n    tag_324:\n        /* \"#utility.yul\":10867:10876   */\n      0x00\n        /* \"#utility.yul\":10900:10937   */\n      tag_475\n        /* \"#utility.yul\":10931:10936   */\n      dup3\n        /* \"#utility.yul\":10900:10937   */\n      tag_323\n      jump\t// in\n    tag_475:\n        /* \"#utility.yul\":10887:10937   */\n      swap1\n      pop\n        /* \"#utility.yul\":10803:10943   */\n      swap2\n      swap1\n      pop\n      jump\t// out\n        /* \"#utility.yul\":10949:11108   */\n    tag_325:\n        /* \"#utility.yul\":11050:11101   */\n      tag_477\n        /* \"#utility.yul\":11095:11100   */\n      dup2\n        /* \"#utility.yul\":11050:11101   */\n      tag_324\n      jump\t// in\n    tag_477:\n        /* \"#utility.yul\":11045:11048   */\n      dup3\n        /* \"#utility.yul\":11038:11102   */\n      mstore\n        /* \"#utility.yul\":10949:11108   */\n      pop\n      pop\n      jump\t// out\n        /* \"#utility.yul\":11114:11364   */\n    tag_78:\n        /* \"#utility.yul\":11221:11225   */\n      0x00\n        /* \"#utility.yul\":11259:11261   */\n      0x20\n        /* \"#utility.yul\":11248:11257   */\n      dup3\n        /* \"#utility.yul\":11244:11262   */\n      add\n        /* \"#utility.yul\":11236:11262   */\n      swap1\n      pop\n        /* \"#utility.yul\":11272:11357   */\n      tag_479\n        /* \"#utility.yul\":11354:11355   */\n      0x00\n        /* \"#utility.yul\":11343:11352   */\n      dup4\n        /* \"#utility.yul\":11339:11356   */\n      add\n        /* \"#utility.yul\":11330:11336   */\n      dup5\n        /* \"#utility.yul\":11272:11357   */\n      tag_325\n      jump\t// in\n    tag_479:\n        /* \"#utility.yul\":11114:11364   */\n      swap3\n      swap2\n      pop\n      pop\n      jump\t// out\n        /* \"#utility.yul\":11370:11488   */\n    tag_326:\n        /* \"#utility.yul\":11457:11481   */\n      tag_481\n        /* \"#utility.yul\":11475:11480   */\n      dup2\n        /* \"#utility.yul\":11457:11481   */\n      tag_298\n      jump\t// in\n    tag_481:\n        /* \"#utility.yul\":11452:11455   */\n      dup3\n        /* \"#utility.yul\":11445:11482   */\n      mstore\n        /* \"#utility.yul\":11370:11488   */\n      pop\n      pop\n      jump\t// out\n        /* \"#utility.yul\":11494:11716   */\n    tag_84:\n        /* \"#utility.yul\":11587:11591   */\n      0x00\n        /* \"#utility.yul\":11625:11627   */\n      0x20\n        /* \"#utility.yul\":11614:11623   */\n      dup3\n        /* \"#utility.yul\":11610:11628   */\n      add\n        /* \"#utility.yul\":11602:11628   */\n      swap1\n      pop\n        /* \"#utility.yul\":11638:11709   */\n      tag_483\n        /* \"#utility.yul\":11706:11707   */\n      0x00\n        /* \"#utility.yul\":11695:11704   */\n      dup4\n        /* \"#utility.yul\":11691:11708   */\n      add\n        /* \"#utility.yul\":11682:11688   */\n      dup5\n        /* \"#utility.yul\":11638:11709   */\n      tag_326\n      jump\t// in\n    tag_483:\n        /* \"#utility.yul\":11494:11716   */\n      swap3\n      swap2\n      pop\n      pop\n      jump\t// out\n        /* \"#utility.yul\":11722:11865   */\n    tag_327:\n        /* \"#utility.yul\":11779:11784   */\n      0x00\n        /* \"#utility.yul\":11810:11816   */\n      dup2\n        /* \"#utility.yul\":11804:11817   */\n      mload\n        /* \"#utility.yul\":11795:11817   */\n      swap1\n      pop\n        /* \"#utility.yul\":11826:11859   */\n      tag_485\n        /* \"#utility.yul\":11853:11858   */\n      dup2\n        /* \"#utility.yul\":11826:11859   */\n      tag_299\n      jump\t// in\n    tag_485:\n        /* \"#utility.yul\":11722:11865   */\n      swap3\n      swap2\n      pop\n      pop\n      jump\t// out\n        /* \"#utility.yul\":11871:12222   */\n    tag_97:\n        /* \"#utility.yul\":11941:11947   */\n      0x00\n        /* \"#utility.yul\":11990:11992   */\n      0x20\n        /* \"#utility.yul\":11978:11987   */\n      dup3\n        /* \"#utility.yul\":11969:11976   */\n      dup5\n        /* \"#utility.yul\":11965:11988   */\n      sub\n        /* \"#utility.yul\":11961:11993   */\n      slt\n        /* \"#utility.yul\":11958:12077   */\n      iszero\n      tag_487\n      jumpi\n        /* \"#utility.yul\":11996:12075   */\n      tag_488\n      tag_289\n      jump\t// in\n    tag_488:\n        /* \"#utility.yul\":11958:12077   */\n    tag_487:\n        /* \"#utility.yul\":12116:12117   */\n      0x00\n        /* \"#utility.yul\":12141:12205   */\n      tag_489\n        /* \"#utility.yul\":12197:12204   */\n      dup5\n        /* \"#utility.yul\":12188:12194   */\n      dup3\n        /* \"#utility.yul\":12177:12186   */\n      dup6\n        /* \"#utility.yul\":12173:12195   */\n      add\n        /* \"#utility.yul\":12141:12205   */\n      tag_327\n      jump\t// in\n    tag_489:\n        /* \"#utility.yul\":12131:12205   */\n      swap2\n      pop\n        /* \"#utility.yul\":12087:12215   */\n      pop\n        /* \"#utility.yul\":11871:12222   */\n      swap3\n      swap2\n      pop\n      pop\n      jump\t// out\n        /* \"#utility.yul\":12228:12560   */\n    tag_99:\n        /* \"#utility.yul\":12349:12353   */\n      0x00\n        /* \"#utility.yul\":12387:12389   */\n      0x40\n        /* \"#utility.yul\":12376:12385   */\n      dup3\n        /* \"#utility.yul\":12372:12390   */\n      add\n        /* \"#utility.yul\":12364:12390   */\n      swap1\n      pop\n        /* \"#utility.yul\":12400:12471   */\n      tag_491\n        /* \"#utility.yul\":12468:12469   */\n      0x00\n        /* \"#utility.yul\":12457:12466   */\n      dup4\n        /* \"#utility.yul\":12453:12470   */\n      add\n        /* \"#utility.yul\":12444:12450   */\n      dup6\n        /* \"#utility.yul\":12400:12471   */\n      tag_317\n      jump\t// in\n    tag_491:\n        /* \"#utility.yul\":12481:12553   */\n      tag_492\n        /* \"#utility.yul\":12549:12551   */\n      0x20\n        /* \"#utility.yul\":12538:12547   */\n      dup4\n        /* \"#utility.yul\":12534:12552   */\n      add\n        /* \"#utility.yul\":12525:12531   */\n      dup5\n        /* \"#utility.yul\":12481:12553   */\n      tag_326\n      jump\t// in\n    tag_492:\n        /* \"#utility.yul\":12228:12560   */\n      swap4\n      swap3\n      pop\n      pop\n      pop\n      jump\t// out\n        /* \"#utility.yul\":12566:12656   */\n    tag_328:\n        /* \"#utility.yul\":12600:12607   */\n      0x00\n        /* \"#utility.yul\":12643:12648   */\n      dup2\n        /* \"#utility.yul\":12636:12649   */\n      iszero\n        /* \"#utility.yul\":12629:12650   */\n      iszero\n        /* \"#utility.yul\":12618:12650   */\n      swap1\n      pop\n        /* \"#utility.yul\":12566:12656   */\n      swap2\n      swap1\n      pop\n      jump\t// out\n        /* \"#utility.yul\":12662:12778   */\n    tag_329:\n        /* \"#utility.yul\":12732:12753   */\n      tag_495\n        /* \"#utility.yul\":12747:12752   */\n      dup2\n        /* \"#utility.yul\":12732:12753   */\n      tag_328\n      jump\t// in\n    tag_495:\n        /* \"#utility.yul\":12725:12730   */\n      dup2\n        /* \"#utility.yul\":12722:12754   */\n      eq\n        /* \"#utility.yul\":12712:12772   */\n      tag_496\n      jumpi\n        /* \"#utility.yul\":12768:12769   */\n      0x00\n        /* \"#utility.yul\":12765:12766   */\n      dup1\n        /* \"#utility.yul\":12758:12770   */\n      revert\n        /* \"#utility.yul\":12712:12772   */\n    tag_496:\n        /* \"#utility.yul\":12662:12778   */\n      pop\n      jump\t// out\n        /* \"#utility.yul\":12784:12921   */\n    tag_330:\n        /* \"#utility.yul\":12838:12843   */\n      0x00\n        /* \"#utility.yul\":12869:12875   */\n      dup2\n        /* \"#utility.yul\":12863:12876   */\n      mload\n        /* \"#utility.yul\":12854:12876   */\n      swap1\n      pop\n        /* \"#utility.yul\":12885:12915   */\n      tag_498\n        /* \"#utility.yul\":12909:12914   */\n      dup2\n        /* \"#utility.yul\":12885:12915   */\n      tag_329\n      jump\t// in\n    tag_498:\n        /* \"#utility.yul\":12784:12921   */\n      swap3\n      swap2\n      pop\n      pop\n      jump\t// out\n        /* \"#utility.yul\":12927:13272   */\n    tag_103:\n        /* \"#utility.yul\":12994:13000   */\n      0x00\n        /* \"#utility.yul\":13043:13045   */\n      0x20\n        /* \"#utility.yul\":13031:13040   */\n      dup3\n        /* \"#utility.yul\":13022:13029   */\n      dup5\n        /* \"#utility.yul\":13018:13041   */\n      sub\n        /* \"#utility.yul\":13014:13046   */\n      slt\n        /* \"#utility.yul\":13011:13130   */\n      iszero\n      tag_500\n      jumpi\n        /* \"#utility.yul\":13049:13128   */\n      tag_501\n      tag_289\n      jump\t// in\n    tag_501:\n        /* \"#utility.yul\":13011:13130   */\n    tag_500:\n        /* \"#utility.yul\":13169:13170   */\n      0x00\n        /* \"#utility.yul\":13194:13255   */\n      tag_502\n        /* \"#utility.yul\":13247:13254   */\n      dup5\n        /* \"#utility.yul\":13238:13244   */\n      dup3\n        /* \"#utility.yul\":13227:13236   */\n      dup6\n        /* \"#utility.yul\":13223:13245   */\n      add\n        /* \"#utility.yul\":13194:13255   */\n      tag_330\n      jump\t// in\n    tag_502:\n        /* \"#utility.yul\":13184:13255   */\n      swap2\n      pop\n        /* \"#utility.yul\":13140:13265   */\n      pop\n        /* \"#utility.yul\":12927:13272   */\n      swap3\n      swap2\n      pop\n      pop\n      jump\t// out\n        /* \"#utility.yul\":13278:13447   */\n    tag_331:\n        /* \"#utility.yul\":13362:13373   */\n      0x00\n        /* \"#utility.yul\":13396:13402   */\n      dup3\n        /* \"#utility.yul\":13391:13394   */\n      dup3\n        /* \"#utility.yul\":13384:13403   */\n      mstore\n        /* \"#utility.yul\":13436:13440   */\n      0x20\n        /* \"#utility.yul\":13431:13434   */\n      dup3\n        /* \"#utility.yul\":13427:13441   */\n      add\n        /* \"#utility.yul\":13412:13441   */\n      swap1\n      pop\n        /* \"#utility.yul\":13278:13447   */\n      swap3\n      swap2\n      pop\n      pop\n      jump\t// out\n        /* \"#utility.yul\":13453:13631   */\n    tag_332:\n        /* \"#utility.yul\":13593:13623   */\n      0x496e73756666696369656e74206163636f756e742062616c616e636500000000\n        /* \"#utility.yul\":13589:13590   */\n      0x00\n        /* \"#utility.yul\":13581:13587   */\n      dup3\n        /* \"#utility.yul\":13577:13591   */\n      add\n        /* \"#utility.yul\":13570:13624   */\n      mstore\n        /* \"#utility.yul\":13453:13631   */\n      pop\n      jump\t// out\n        /* \"#utility.yul\":13637:14003   */\n    tag_333:\n        /* \"#utility.yul\":13779:13782   */\n      0x00\n        /* \"#utility.yul\":13800:13867   */\n      tag_506\n        /* \"#utility.yul\":13864:13866   */\n      0x1c\n        /* \"#utility.yul\":13859:13862   */\n      dup4\n        /* \"#utility.yul\":13800:13867   */\n      tag_331\n      jump\t// in\n    tag_506:\n        /* \"#utility.yul\":13793:13867   */\n      swap2\n      pop\n        /* \"#utility.yul\":13876:13969   */\n      tag_507\n        /* \"#utility.yul\":13965:13968   */\n      dup3\n        /* \"#utility.yul\":13876:13969   */\n      tag_332\n      jump\t// in\n    tag_507:\n        /* \"#utility.yul\":13994:13996   */\n      0x20\n        /* \"#utility.yul\":13989:13992   */\n      dup3\n        /* \"#utility.yul\":13985:13997   */\n      add\n        /* \"#utility.yul\":13978:13997   */\n      swap1\n      pop\n        /* \"#utility.yul\":13637:14003   */\n      swap2\n      swap1\n      pop\n      jump\t// out\n        /* \"#utility.yul\":14009:14428   */\n    tag_113:\n        /* \"#utility.yul\":14175:14179   */\n      0x00\n        /* \"#utility.yul\":14213:14215   */\n      0x20\n        /* \"#utility.yul\":14202:14211   */\n      dup3\n        /* \"#utility.yul\":14198:14216   */\n      add\n        /* \"#utility.yul\":14190:14216   */\n      swap1\n      pop\n        /* \"#utility.yul\":14262:14271   */\n      dup2\n        /* \"#utility.yul\":14256:14260   */\n      dup2\n        /* \"#utility.yul\":14252:14272   */\n      sub\n        /* \"#utility.yul\":14248:14249   */\n      0x00\n        /* \"#utility.yul\":14237:14246   */\n      dup4\n        /* \"#utility.yul\":14233:14250   */\n      add\n        /* \"#utility.yul\":14226:14273   */\n      mstore\n        /* \"#utility.yul\":14290:14421   */\n      tag_509\n        /* \"#utility.yul\":14416:14420   */\n      dup2\n        /* \"#utility.yul\":14290:14421   */\n      tag_333\n      jump\t// in\n    tag_509:\n        /* \"#utility.yul\":14282:14421   */\n      swap1\n      pop\n        /* \"#utility.yul\":14009:14428   */\n      swap2\n      swap1\n      pop\n      jump\t// out\n        /* \"#utility.yul\":14434:14577   */\n    tag_334:\n        /* \"#utility.yul\":14491:14496   */\n      0x00\n        /* \"#utility.yul\":14522:14528   */\n      dup2\n        /* \"#utility.yul\":14516:14529   */\n      mload\n        /* \"#utility.yul\":14507:14529   */\n      swap1\n      pop\n        /* \"#utility.yul\":14538:14571   */\n      tag_511\n        /* \"#utility.yul\":14565:14570   */\n      dup2\n        /* \"#utility.yul\":14538:14571   */\n      tag_296\n      jump\t// in\n    tag_511:\n        /* \"#utility.yul\":14434:14577   */\n      swap3\n      swap2\n      pop\n      pop\n      jump\t// out\n        /* \"#utility.yul\":14583:14934   */\n    tag_123:\n        /* \"#utility.yul\":14653:14659   */\n      0x00\n        /* \"#utility.yul\":14702:14704   */\n      0x20\n        /* \"#utility.yul\":14690:14699   */\n      dup3\n        /* \"#utility.yul\":14681:14688   */\n      dup5\n        /* \"#utility.yul\":14677:14700   */\n      sub\n        /* \"#utility.yul\":14673:14705   */\n      slt\n        /* \"#utility.yul\":14670:14789   */\n      iszero\n      tag_513\n      jumpi\n        /* \"#utility.yul\":14708:14787   */\n      tag_514\n      tag_289\n      jump\t// in\n    tag_514:\n        /* \"#utility.yul\":14670:14789   */\n    tag_513:\n        /* \"#utility.yul\":14828:14829   */\n      0x00\n        /* \"#utility.yul\":14853:14917   */\n      tag_515\n        /* \"#utility.yul\":14909:14916   */\n      dup5\n        /* \"#utility.yul\":14900:14906   */\n      dup3\n        /* \"#utility.yul\":14889:14898   */\n      dup6\n        /* \"#utility.yul\":14885:14907   */\n      add\n        /* \"#utility.yul\":14853:14917   */\n      tag_334\n      jump\t// in\n    tag_515:\n        /* \"#utility.yul\":14843:14917   */\n      swap2\n      pop\n        /* \"#utility.yul\":14799:14927   */\n      pop\n        /* \"#utility.yul\":14583:14934   */\n      swap3\n      swap2\n      pop\n      pop\n      jump\t// out\n        /* \"#utility.yul\":14940:15166   */\n    tag_335:\n        /* \"#utility.yul\":15080:15114   */\n      0x54686973204e465420646f6573206e6f74206578697374206f6e206d61726b65\n        /* \"#utility.yul\":15076:15077   */\n      0x00\n        /* \"#utility.yul\":15068:15074   */\n      dup3\n        /* \"#utility.yul\":15064:15078   */\n      add\n        /* \"#utility.yul\":15057:15115   */\n      mstore\n        /* \"#utility.yul\":15149:15158   */\n      0x7420706c61636500000000000000000000000000000000000000000000000000\n        /* \"#utility.yul\":15144:15146   */\n      0x20\n        /* \"#utility.yul\":15136:15142   */\n      dup3\n        /* \"#utility.yul\":15132:15147   */\n      add\n        /* \"#utility.yul\":15125:15159   */\n      mstore\n        /* \"#utility.yul\":14940:15166   */\n      pop\n      jump\t// out\n        /* \"#utility.yul\":15172:15538   */\n    tag_336:\n        /* \"#utility.yul\":15314:15317   */\n      0x00\n        /* \"#utility.yul\":15335:15402   */\n      tag_518\n        /* \"#utility.yul\":15399:15401   */\n      0x27\n        /* \"#utility.yul\":15394:15397   */\n      dup4\n        /* \"#utility.yul\":15335:15402   */\n      tag_331\n      jump\t// in\n    tag_518:\n        /* \"#utility.yul\":15328:15402   */\n      swap2\n      pop\n        /* \"#utility.yul\":15411:15504   */\n      tag_519\n        /* \"#utility.yul\":15500:15503   */\n      dup3\n        /* \"#utility.yul\":15411:15504   */\n      tag_335\n      jump\t// in\n    tag_519:\n        /* \"#utility.yul\":15529:15531   */\n      0x40\n        /* \"#utility.yul\":15524:15527   */\n      dup3\n        /* \"#utility.yul\":15520:15532   */\n      add\n        /* \"#utility.yul\":15513:15532   */\n      swap1\n      pop\n        /* \"#utility.yul\":15172:15538   */\n      swap2\n      swap1\n      pop\n      jump\t// out\n        /* \"#utility.yul\":15544:15963   */\n    tag_126:\n        /* \"#utility.yul\":15710:15714   */\n      0x00\n        /* \"#utility.yul\":15748:15750   */\n      0x20\n        /* \"#utility.yul\":15737:15746   */\n      dup3\n        /* \"#utility.yul\":15733:15751   */\n      add\n        /* \"#utility.yul\":15725:15751   */\n      swap1\n      pop\n        /* \"#utility.yul\":15797:15806   */\n      dup2\n        /* \"#utility.yul\":15791:15795   */\n      dup2\n        /* \"#utility.yul\":15787:15807   */\n      sub\n        /* \"#utility.yul\":15783:15784   */\n      0x00\n        /* \"#utility.yul\":15772:15781   */\n      dup4\n        /* \"#utility.yul\":15768:15785   */\n      add\n        /* \"#utility.yul\":15761:15808   */\n      mstore\n        /* \"#utility.yul\":15825:15956   */\n      tag_521\n        /* \"#utility.yul\":15951:15955   */\n      dup2\n        /* \"#utility.yul\":15825:15956   */\n      tag_336\n      jump\t// in\n    tag_521:\n        /* \"#utility.yul\":15817:15956   */\n      swap1\n      pop\n        /* \"#utility.yul\":15544:15963   */\n      swap2\n      swap1\n      pop\n      jump\t// out\n        /* \"#utility.yul\":15969:16199   */\n    tag_337:\n        /* \"#utility.yul\":16109:16143   */\n      0x4f6e6c79206f776e65722063616e207570646174652074686520707269636520\n        /* \"#utility.yul\":16105:16106   */\n      0x00\n        /* \"#utility.yul\":16097:16103   */\n      dup3\n        /* \"#utility.yul\":16093:16107   */\n      add\n        /* \"#utility.yul\":16086:16144   */\n      mstore\n        /* \"#utility.yul\":16178:16191   */\n      0x6f662074686973204e4654000000000000000000000000000000000000000000\n        /* \"#utility.yul\":16173:16175   */\n      0x20\n        /* \"#utility.yul\":16165:16171   */\n      dup3\n        /* \"#utility.yul\":16161:16176   */\n      add\n        /* \"#utility.yul\":16154:16192   */\n      mstore\n        /* \"#utility.yul\":15969:16199   */\n      pop\n      jump\t// out\n        /* \"#utility.yul\":16205:16571   */\n    tag_338:\n        /* \"#utility.yul\":16347:16350   */\n      0x00\n        /* \"#utility.yul\":16368:16435   */\n      tag_524\n        /* \"#utility.yul\":16432:16434   */\n      0x2b\n        /* \"#utility.yul\":16427:16430   */\n      dup4\n        /* \"#utility.yul\":16368:16435   */\n      tag_331\n      jump\t// in\n    tag_524:\n        /* \"#utility.yul\":16361:16435   */\n      swap2\n      pop\n        /* \"#utility.yul\":16444:16537   */\n      tag_525\n        /* \"#utility.yul\":16533:16536   */\n      dup3\n        /* \"#utility.yul\":16444:16537   */\n      tag_337\n      jump\t// in\n    tag_525:\n        /* \"#utility.yul\":16562:16564   */\n      0x40\n        /* \"#utility.yul\":16557:16560   */\n      dup3\n        /* \"#utility.yul\":16553:16565   */\n      add\n        /* \"#utility.yul\":16546:16565   */\n      swap1\n      pop\n        /* \"#utility.yul\":16205:16571   */\n      swap2\n      swap1\n      pop\n      jump\t// out\n        /* \"#utility.yul\":16577:16996   */\n    tag_129:\n        /* \"#utility.yul\":16743:16747   */\n      0x00\n        /* \"#utility.yul\":16781:16783   */\n      0x20\n        /* \"#utility.yul\":16770:16779   */\n      dup3\n        /* \"#utility.yul\":16766:16784   */\n      add\n        /* \"#utility.yul\":16758:16784   */\n      swap1\n      pop\n        /* \"#utility.yul\":16830:16839   */\n      dup2\n        /* \"#utility.yul\":16824:16828   */\n      dup2\n        /* \"#utility.yul\":16820:16840   */\n      sub\n        /* \"#utility.yul\":16816:16817   */\n      0x00\n        /* \"#utility.yul\":16805:16814   */\n      dup4\n        /* \"#utility.yul\":16801:16818   */\n      add\n        /* \"#utility.yul\":16794:16841   */\n      mstore\n        /* \"#utility.yul\":16858:16989   */\n      tag_527\n        /* \"#utility.yul\":16984:16988   */\n      dup2\n        /* \"#utility.yul\":16858:16989   */\n      tag_338\n      jump\t// in\n    tag_527:\n        /* \"#utility.yul\":16850:16989   */\n      swap1\n      pop\n        /* \"#utility.yul\":16577:16996   */\n      swap2\n      swap1\n      pop\n      jump\t// out\n        /* \"#utility.yul\":17002:17334   */\n    tag_131:\n        /* \"#utility.yul\":17123:17127   */\n      0x00\n        /* \"#utility.yul\":17161:17163   */\n      0x40\n        /* \"#utility.yul\":17150:17159   */\n      dup3\n        /* \"#utility.yul\":17146:17164   */\n      add\n        /* \"#utility.yul\":17138:17164   */\n      swap1\n      pop\n        /* \"#utility.yul\":17174:17245   */\n      tag_529\n        /* \"#utility.yul\":17242:17243   */\n      0x00\n        /* \"#utility.yul\":17231:17240   */\n      dup4\n        /* \"#utility.yul\":17227:17244   */\n      add\n        /* \"#utility.yul\":17218:17224   */\n      dup6\n        /* \"#utility.yul\":17174:17245   */\n      tag_326\n      jump\t// in\n    tag_529:\n        /* \"#utility.yul\":17255:17327   */\n      tag_530\n        /* \"#utility.yul\":17323:17325   */\n      0x20\n        /* \"#utility.yul\":17312:17321   */\n      dup4\n        /* \"#utility.yul\":17308:17326   */\n      add\n        /* \"#utility.yul\":17299:17305   */\n      dup5\n        /* \"#utility.yul\":17255:17327   */\n      tag_326\n      jump\t// in\n    tag_530:\n        /* \"#utility.yul\":17002:17334   */\n      swap4\n      swap3\n      pop\n      pop\n      pop\n      jump\t// out\n        /* \"#utility.yul\":17340:17564   */\n    tag_339:\n        /* \"#utility.yul\":17480:17514   */\n      0x54686973204e465420646f65736e2774206578697374206f6e206d61726b6574\n        /* \"#utility.yul\":17476:17477   */\n      0x00\n        /* \"#utility.yul\":17468:17474   */\n      dup3\n        /* \"#utility.yul\":17464:17478   */\n      add\n        /* \"#utility.yul\":17457:17515   */\n      mstore\n        /* \"#utility.yul\":17549:17556   */\n      0x706c616365000000000000000000000000000000000000000000000000000000\n        /* \"#utility.yul\":17544:17546   */\n      0x20\n        /* \"#utility.yul\":17536:17542   */\n      dup3\n        /* \"#utility.yul\":17532:17547   */\n      add\n        /* \"#utility.yul\":17525:17557   */\n      mstore\n        /* \"#utility.yul\":17340:17564   */\n      pop\n      jump\t// out\n        /* \"#utility.yul\":17570:17936   */\n    tag_340:\n        /* \"#utility.yul\":17712:17715   */\n      0x00\n        /* \"#utility.yul\":17733:17800   */\n      tag_533\n        /* \"#utility.yul\":17797:17799   */\n      0x25\n        /* \"#utility.yul\":17792:17795   */\n      dup4\n        /* \"#utility.yul\":17733:17800   */\n      tag_331\n      jump\t// in\n    tag_533:\n        /* \"#utility.yul\":17726:17800   */\n      swap2\n      pop\n        /* \"#utility.yul\":17809:17902   */\n      tag_534\n        /* \"#utility.yul\":17898:17901   */\n      dup3\n        /* \"#utility.yul\":17809:17902   */\n      tag_339\n      jump\t// in\n    tag_534:\n        /* \"#utility.yul\":17927:17929   */\n      0x40\n        /* \"#utility.yul\":17922:17925   */\n      dup3\n        /* \"#utility.yul\":17918:17930   */\n      add\n        /* \"#utility.yul\":17911:17930   */\n      swap1\n      pop\n        /* \"#utility.yul\":17570:17936   */\n      swap2\n      swap1\n      pop\n      jump\t// out\n        /* \"#utility.yul\":17942:18361   */\n    tag_145:\n        /* \"#utility.yul\":18108:18112   */\n      0x00\n        /* \"#utility.yul\":18146:18148   */\n      0x20\n        /* \"#utility.yul\":18135:18144   */\n      dup3\n        /* \"#utility.yul\":18131:18149   */\n      add\n        /* \"#utility.yul\":18123:18149   */\n      swap1\n      pop\n        /* \"#utility.yul\":18195:18204   */\n      dup2\n        /* \"#utility.yul\":18189:18193   */\n      dup2\n        /* \"#utility.yul\":18185:18205   */\n      sub\n        /* \"#utility.yul\":18181:18182   */\n      0x00\n        /* \"#utility.yul\":18170:18179   */\n      dup4\n        /* \"#utility.yul\":18166:18183   */\n      add\n        /* \"#utility.yul\":18159:18206   */\n      mstore\n        /* \"#utility.yul\":18223:18354   */\n      tag_536\n        /* \"#utility.yul\":18349:18353   */\n      dup2\n        /* \"#utility.yul\":18223:18354   */\n      tag_340\n      jump\t// in\n    tag_536:\n        /* \"#utility.yul\":18215:18354   */\n      swap1\n      pop\n        /* \"#utility.yul\":17942:18361   */\n      swap2\n      swap1\n      pop\n      jump\t// out\n        /* \"#utility.yul\":18367:18588   */\n    tag_341:\n        /* \"#utility.yul\":18507:18541   */\n      0x4d696e696d756d20707269636520686173206e6f74206265656e207265616368\n        /* \"#utility.yul\":18503:18504   */\n      0x00\n        /* \"#utility.yul\":18495:18501   */\n      dup3\n        /* \"#utility.yul\":18491:18505   */\n      add\n        /* \"#utility.yul\":18484:18542   */\n      mstore\n        /* \"#utility.yul\":18576:18580   */\n      0x6564000000000000000000000000000000000000000000000000000000000000\n        /* \"#utility.yul\":18571:18573   */\n      0x20\n        /* \"#utility.yul\":18563:18569   */\n      dup3\n        /* \"#utility.yul\":18559:18574   */\n      add\n        /* \"#utility.yul\":18552:18581   */\n      mstore\n        /* \"#utility.yul\":18367:18588   */\n      pop\n      jump\t// out\n        /* \"#utility.yul\":18594:18960   */\n    tag_342:\n        /* \"#utility.yul\":18736:18739   */\n      0x00\n        /* \"#utility.yul\":18757:18824   */\n      tag_539\n        /* \"#utility.yul\":18821:18823   */\n      0x22\n        /* \"#utility.yul\":18816:18819   */\n      dup4\n        /* \"#utility.yul\":18757:18824   */\n      tag_331\n      jump\t// in\n    tag_539:\n        /* \"#utility.yul\":18750:18824   */\n      swap2\n      pop\n        /* \"#utility.yul\":18833:18926   */\n      tag_540\n        /* \"#utility.yul\":18922:18925   */\n      dup3\n        /* \"#utility.yul\":18833:18926   */\n      tag_341\n      jump\t// in\n    tag_540:\n        /* \"#utility.yul\":18951:18953   */\n      0x40\n        /* \"#utility.yul\":18946:18949   */\n      dup3\n        /* \"#utility.yul\":18942:18954   */\n      add\n        /* \"#utility.yul\":18935:18954   */\n      swap1\n      pop\n        /* \"#utility.yul\":18594:18960   */\n      swap2\n      swap1\n      pop\n      jump\t// out\n        /* \"#utility.yul\":18966:19385   */\n    tag_148:\n        /* \"#utility.yul\":19132:19136   */\n      0x00\n        /* \"#utility.yul\":19170:19172   */\n      0x20\n        /* \"#utility.yul\":19159:19168   */\n      dup3\n        /* \"#utility.yul\":19155:19173   */\n      add\n        /* \"#utility.yul\":19147:19173   */\n      swap1\n      pop\n        /* \"#utility.yul\":19219:19228   */\n      dup2\n        /* \"#utility.yul\":19213:19217   */\n      dup2\n        /* \"#utility.yul\":19209:19229   */\n      sub\n        /* \"#utility.yul\":19205:19206   */\n      0x00\n        /* \"#utility.yul\":19194:19203   */\n      dup4\n        /* \"#utility.yul\":19190:19207   */\n      add\n        /* \"#utility.yul\":19183:19230   */\n      mstore\n        /* \"#utility.yul\":19247:19378   */\n      tag_542\n        /* \"#utility.yul\":19373:19377   */\n      dup2\n        /* \"#utility.yul\":19247:19378   */\n      tag_342\n      jump\t// in\n    tag_542:\n        /* \"#utility.yul\":19239:19378   */\n      swap1\n      pop\n        /* \"#utility.yul\":18966:19385   */\n      swap2\n      swap1\n      pop\n      jump\t// out\n        /* \"#utility.yul\":19391:19571   */\n    tag_343:\n        /* \"#utility.yul\":19439:19516   */\n      0x4e487b7100000000000000000000000000000000000000000000000000000000\n        /* \"#utility.yul\":19436:19437   */\n      0x00\n        /* \"#utility.yul\":19429:19517   */\n      mstore\n        /* \"#utility.yul\":19536:19540   */\n      0x11\n        /* \"#utility.yul\":19533:19534   */\n      0x04\n        /* \"#utility.yul\":19526:19541   */\n      mstore\n        /* \"#utility.yul\":19560:19564   */\n      0x24\n        /* \"#utility.yul\":19557:19558   */\n      0x00\n        /* \"#utility.yul\":19550:19565   */\n      revert\n        /* \"#utility.yul\":19577:19771   */\n    tag_152:\n        /* \"#utility.yul\":19617:19621   */\n      0x00\n        /* \"#utility.yul\":19637:19657   */\n      tag_545\n        /* \"#utility.yul\":19655:19656   */\n      dup3\n        /* \"#utility.yul\":19637:19657   */\n      tag_298\n      jump\t// in\n    tag_545:\n        /* \"#utility.yul\":19632:19657   */\n      swap2\n      pop\n        /* \"#utility.yul\":19671:19691   */\n      tag_546\n        /* \"#utility.yul\":19689:19690   */\n      dup4\n        /* \"#utility.yul\":19671:19691   */\n      tag_298\n      jump\t// in\n    tag_546:\n        /* \"#utility.yul\":19666:19691   */\n      swap3\n      pop\n        /* \"#utility.yul\":19715:19716   */\n      dup3\n        /* \"#utility.yul\":19712:19713   */\n      dup3\n        /* \"#utility.yul\":19708:19717   */\n      sub\n        /* \"#utility.yul\":19700:19717   */\n      swap1\n      pop\n        /* \"#utility.yul\":19739:19740   */\n      dup2\n        /* \"#utility.yul\":19733:19737   */\n      dup2\n        /* \"#utility.yul\":19730:19741   */\n      gt\n        /* \"#utility.yul\":19727:19764   */\n      iszero\n      tag_547\n      jumpi\n        /* \"#utility.yul\":19744:19762   */\n      tag_548\n      tag_343\n      jump\t// in\n    tag_548:\n        /* \"#utility.yul\":19727:19764   */\n    tag_547:\n        /* \"#utility.yul\":19577:19771   */\n      swap3\n      swap2\n      pop\n      pop\n      jump\t// out\n        /* \"#utility.yul\":19777:20187   */\n    tag_154:\n        /* \"#utility.yul\":19817:19824   */\n      0x00\n        /* \"#utility.yul\":19840:19860   */\n      tag_550\n        /* \"#utility.yul\":19858:19859   */\n      dup3\n        /* \"#utility.yul\":19840:19860   */\n      tag_298\n      jump\t// in\n    tag_550:\n        /* \"#utility.yul\":19835:19860   */\n      swap2\n      pop\n        /* \"#utility.yul\":19874:19894   */\n      tag_551\n        /* \"#utility.yul\":19892:19893   */\n      dup4\n        /* \"#utility.yul\":19874:19894   */\n      tag_298\n      jump\t// in\n    tag_551:\n        /* \"#utility.yul\":19869:19894   */\n      swap3\n      pop\n        /* \"#utility.yul\":19929:19930   */\n      dup3\n        /* \"#utility.yul\":19926:19927   */\n      dup3\n        /* \"#utility.yul\":19922:19931   */\n      mul\n        /* \"#utility.yul\":19951:19981   */\n      tag_552\n        /* \"#utility.yul\":19969:19980   */\n      dup2\n        /* \"#utility.yul\":19951:19981   */\n      tag_298\n      jump\t// in\n    tag_552:\n        /* \"#utility.yul\":19940:19981   */\n      swap2\n      pop\n        /* \"#utility.yul\":20130:20131   */\n      dup3\n        /* \"#utility.yul\":20121:20128   */\n      dup3\n        /* \"#utility.yul\":20117:20132   */\n      div\n        /* \"#utility.yul\":20114:20115   */\n      dup5\n        /* \"#utility.yul\":20111:20133   */\n      eq\n        /* \"#utility.yul\":20091:20092   */\n      dup4\n        /* \"#utility.yul\":20084:20093   */\n      iszero\n        /* \"#utility.yul\":20064:20147   */\n      or\n        /* \"#utility.yul\":20041:20180   */\n      tag_553\n      jumpi\n        /* \"#utility.yul\":20160:20178   */\n      tag_554\n      tag_343\n      jump\t// in\n    tag_554:\n        /* \"#utility.yul\":20041:20180   */\n    tag_553:\n        /* \"#utility.yul\":19825:20187   */\n      pop\n        /* \"#utility.yul\":19777:20187   */\n      swap3\n      swap2\n      pop\n      pop\n      jump\t// out\n        /* \"#utility.yul\":20193:20373   */\n    tag_344:\n        /* \"#utility.yul\":20241:20318   */\n      0x4e487b7100000000000000000000000000000000000000000000000000000000\n        /* \"#utility.yul\":20238:20239   */\n      0x00\n        /* \"#utility.yul\":20231:20319   */\n      mstore\n        /* \"#utility.yul\":20338:20342   */\n      0x12\n        /* \"#utility.yul\":20335:20336   */\n      0x04\n        /* \"#utility.yul\":20328:20343   */\n      mstore\n        /* \"#utility.yul\":20362:20366   */\n      0x24\n        /* \"#utility.yul\":20359:20360   */\n      0x00\n        /* \"#utility.yul\":20352:20367   */\n      revert\n        /* \"#utility.yul\":20379:20564   */\n    tag_156:\n        /* \"#utility.yul\":20419:20420   */\n      0x00\n        /* \"#utility.yul\":20436:20456   */\n      tag_557\n        /* \"#utility.yul\":20454:20455   */\n      dup3\n        /* \"#utility.yul\":20436:20456   */\n      tag_298\n      jump\t// in\n    tag_557:\n        /* \"#utility.yul\":20431:20456   */\n      swap2\n      pop\n        /* \"#utility.yul\":20470:20490   */\n      tag_558\n        /* \"#utility.yul\":20488:20489   */\n      dup4\n        /* \"#utility.yul\":20470:20490   */\n      tag_298\n      jump\t// in\n    tag_558:\n        /* \"#utility.yul\":20465:20490   */\n      swap3\n      pop\n        /* \"#utility.yul\":20509:20510   */\n      dup3\n        /* \"#utility.yul\":20499:20534   */\n      tag_559\n      jumpi\n        /* \"#utility.yul\":20514:20532   */\n      tag_560\n      tag_344\n      jump\t// in\n    tag_560:\n        /* \"#utility.yul\":20499:20534   */\n    tag_559:\n        /* \"#utility.yul\":20556:20557   */\n      dup3\n        /* \"#utility.yul\":20553:20554   */\n      dup3\n        /* \"#utility.yul\":20549:20558   */\n      div\n        /* \"#utility.yul\":20544:20558   */\n      swap1\n      pop\n        /* \"#utility.yul\":20379:20564   */\n      swap3\n      swap2\n      pop\n      pop\n      jump\t// out\n        /* \"#utility.yul\":20570:20704   */\n    tag_345:\n        /* \"#utility.yul\":20628:20637   */\n      0x00\n        /* \"#utility.yul\":20661:20698   */\n      tag_562\n        /* \"#utility.yul\":20692:20697   */\n      dup3\n        /* \"#utility.yul\":20661:20698   */\n      tag_323\n      jump\t// in\n    tag_562:\n        /* \"#utility.yul\":20648:20698   */\n      swap1\n      pop\n        /* \"#utility.yul\":20570:20704   */\n      swap2\n      swap1\n      pop\n      jump\t// out\n        /* \"#utility.yul\":20710:20857   */\n    tag_346:\n        /* \"#utility.yul\":20805:20850   */\n      tag_564\n        /* \"#utility.yul\":20844:20849   */\n      dup2\n        /* \"#utility.yul\":20805:20850   */\n      tag_345\n      jump\t// in\n    tag_564:\n        /* \"#utility.yul\":20800:20803   */\n      dup3\n        /* \"#utility.yul\":20793:20851   */\n      mstore\n        /* \"#utility.yul\":20710:20857   */\n      pop\n      pop\n      jump\t// out\n        /* \"#utility.yul\":20863:21211   */\n    tag_158:\n        /* \"#utility.yul\":20992:20996   */\n      0x00\n        /* \"#utility.yul\":21030:21032   */\n      0x40\n        /* \"#utility.yul\":21019:21028   */\n      dup3\n        /* \"#utility.yul\":21015:21033   */\n      add\n        /* \"#utility.yul\":21007:21033   */\n      swap1\n      pop\n        /* \"#utility.yul\":21043:21122   */\n      tag_566\n        /* \"#utility.yul\":21119:21120   */\n      0x00\n        /* \"#utility.yul\":21108:21117   */\n      dup4\n        /* \"#utility.yul\":21104:21121   */\n      add\n        /* \"#utility.yul\":21095:21101   */\n      dup6\n        /* \"#utility.yul\":21043:21122   */\n      tag_346\n      jump\t// in\n    tag_566:\n        /* \"#utility.yul\":21132:21204   */\n      tag_567\n        /* \"#utility.yul\":21200:21202   */\n      0x20\n        /* \"#utility.yul\":21189:21198   */\n      dup4\n        /* \"#utility.yul\":21185:21203   */\n      add\n        /* \"#utility.yul\":21176:21182   */\n      dup5\n        /* \"#utility.yul\":21132:21204   */\n      tag_326\n      jump\t// in\n    tag_567:\n        /* \"#utility.yul\":20863:21211   */\n      swap4\n      swap3\n      pop\n      pop\n      pop\n      jump\t// out\n        /* \"#utility.yul\":21217:21659   */\n    tag_163:\n        /* \"#utility.yul\":21366:21370   */\n      0x00\n        /* \"#utility.yul\":21404:21406   */\n      0x60\n        /* \"#utility.yul\":21393:21402   */\n      dup3\n        /* \"#utility.yul\":21389:21407   */\n      add\n        /* \"#utility.yul\":21381:21407   */\n      swap1\n      pop\n        /* \"#utility.yul\":21417:21488   */\n      tag_569\n        /* \"#utility.yul\":21485:21486   */\n      0x00\n        /* \"#utility.yul\":21474:21483   */\n      dup4\n        /* \"#utility.yul\":21470:21487   */\n      add\n        /* \"#utility.yul\":21461:21467   */\n      dup7\n        /* \"#utility.yul\":21417:21488   */\n      tag_317\n      jump\t// in\n    tag_569:\n        /* \"#utility.yul\":21498:21570   */\n      tag_570\n        /* \"#utility.yul\":21566:21568   */\n      0x20\n        /* \"#utility.yul\":21555:21564   */\n      dup4\n        /* \"#utility.yul\":21551:21569   */\n      add\n        /* \"#utility.yul\":21542:21548   */\n      dup6\n        /* \"#utility.yul\":21498:21570   */\n      tag_317\n      jump\t// in\n    tag_570:\n        /* \"#utility.yul\":21580:21652   */\n      tag_571\n        /* \"#utility.yul\":21648:21650   */\n      0x40\n        /* \"#utility.yul\":21637:21646   */\n      dup4\n        /* \"#utility.yul\":21633:21651   */\n      add\n        /* \"#utility.yul\":21624:21630   */\n      dup5\n        /* \"#utility.yul\":21580:21652   */\n      tag_326\n      jump\t// in\n    tag_571:\n        /* \"#utility.yul\":21217:21659   */\n      swap5\n      swap4\n      pop\n      pop\n      pop\n      pop\n      jump\t// out\n        /* \"#utility.yul\":21665:21845   */\n    tag_180:\n        /* \"#utility.yul\":21713:21790   */\n      0x4e487b7100000000000000000000000000000000000000000000000000000000\n        /* \"#utility.yul\":21710:21711   */\n      0x00\n        /* \"#utility.yul\":21703:21791   */\n      mstore\n        /* \"#utility.yul\":21810:21814   */\n      0x41\n        /* \"#utility.yul\":21807:21808   */\n      0x04\n        /* \"#utility.yul\":21800:21815   */\n      mstore\n        /* \"#utility.yul\":21834:21838   */\n      0x24\n        /* \"#utility.yul\":21831:21832   */\n      0x00\n        /* \"#utility.yul\":21824:21839   */\n      revert\n        /* \"#utility.yul\":21851:22031   */\n    tag_194:\n        /* \"#utility.yul\":21899:21976   */\n      0x4e487b7100000000000000000000000000000000000000000000000000000000\n        /* \"#utility.yul\":21896:21897   */\n      0x00\n        /* \"#utility.yul\":21889:21977   */\n      mstore\n        /* \"#utility.yul\":21996:22000   */\n      0x32\n        /* \"#utility.yul\":21993:21994   */\n      0x04\n        /* \"#utility.yul\":21986:22001   */\n      mstore\n        /* \"#utility.yul\":22020:22024   */\n      0x24\n        /* \"#utility.yul\":22017:22018   */\n      0x00\n        /* \"#utility.yul\":22010:22025   */\n      revert\n        /* \"#utility.yul\":22037:22270   */\n    tag_196:\n        /* \"#utility.yul\":22076:22079   */\n      0x00\n        /* \"#utility.yul\":22099:22123   */\n      tag_575\n        /* \"#utility.yul\":22117:22122   */\n      dup3\n        /* \"#utility.yul\":22099:22123   */\n      tag_298\n      jump\t// in\n    tag_575:\n        /* \"#utility.yul\":22090:22123   */\n      swap2\n      pop\n        /* \"#utility.yul\":22145:22211   */\n      0xffffffffffffffffffffffffffffffffffffffffffffffffffffffffffffffff\n        /* \"#utility.yul\":22138:22143   */\n      dup3\n        /* \"#utility.yul\":22135:22212   */\n      sub\n        /* \"#utility.yul\":22132:22235   */\n      tag_576\n      jumpi\n        /* \"#utility.yul\":22215:22233   */\n      tag_577\n      tag_343\n      jump\t// in\n    tag_577:\n        /* \"#utility.yul\":22132:22235   */\n    tag_576:\n        /* \"#utility.yul\":22262:22263   */\n      0x01\n        /* \"#utility.yul\":22255:22260   */\n      dup3\n        /* \"#utility.yul\":22251:22264   */\n      add\n        /* \"#utility.yul\":22244:22264   */\n      swap1\n      pop\n        /* \"#utility.yul\":22037:22270   */\n      swap2\n      swap1\n      pop\n      jump\t// out\n        /* \"#utility.yul\":22276:22456   */\n    tag_347:\n        /* \"#utility.yul\":22416:22448   */\n      0x4f6e6c79206f776e65722063616e20756e6c6973742074686973204e46540000\n        /* \"#utility.yul\":22412:22413   */\n      0x00\n        /* \"#utility.yul\":22404:22410   */\n      dup3\n        /* \"#utility.yul\":22400:22414   */\n      add\n        /* \"#utility.yul\":22393:22449   */\n      mstore\n        /* \"#utility.yul\":22276:22456   */\n      pop\n      jump\t// out\n        /* \"#utility.yul\":22462:22828   */\n    tag_348:\n        /* \"#utility.yul\":22604:22607   */\n      0x00\n        /* \"#utility.yul\":22625:22692   */\n      tag_580\n        /* \"#utility.yul\":22689:22691   */\n      0x1e\n        /* \"#utility.yul\":22684:22687   */\n      dup4\n        /* \"#utility.yul\":22625:22692   */\n      tag_331\n      jump\t// in\n    tag_580:\n        /* \"#utility.yul\":22618:22692   */\n      swap2\n      pop\n        /* \"#utility.yul\":22701:22794   */\n      tag_581\n        /* \"#utility.yul\":22790:22793   */\n      dup3\n        /* \"#utility.yul\":22701:22794   */\n      tag_347\n      jump\t// in\n    tag_581:\n        /* \"#utility.yul\":22819:22821   */\n      0x20\n        /* \"#utility.yul\":22814:22817   */\n      dup3\n        /* \"#utility.yul\":22810:22822   */\n      add\n        /* \"#utility.yul\":22803:22822   */\n      swap1\n      pop\n        /* \"#utility.yul\":22462:22828   */\n      swap2\n      swap1\n      pop\n      jump\t// out\n        /* \"#utility.yul\":22834:23253   */\n    tag_207:\n        /* \"#utility.yul\":23000:23004   */\n      0x00\n        /* \"#utility.yul\":23038:23040   */\n      0x20\n        /* \"#utility.yul\":23027:23036   */\n      dup3\n        /* \"#utility.yul\":23023:23041   */\n      add\n        /* \"#utility.yul\":23015:23041   */\n      swap1\n      pop\n        /* \"#utility.yul\":23087:23096   */\n      dup2\n        /* \"#utility.yul\":23081:23085   */\n      dup2\n        /* \"#utility.yul\":23077:23097   */\n      sub\n        /* \"#utility.yul\":23073:23074   */\n      0x00\n        /* \"#utility.yul\":23062:23071   */\n      dup4\n        /* \"#utility.yul\":23058:23075   */\n      add\n        /* \"#utility.yul\":23051:23098   */\n      mstore\n        /* \"#utility.yul\":23115:23246   */\n      tag_583\n        /* \"#utility.yul\":23241:23245   */\n      dup2\n        /* \"#utility.yul\":23115:23246   */\n      tag_348\n      jump\t// in\n    tag_583:\n        /* \"#utility.yul\":23107:23246   */\n      swap1\n      pop\n        /* \"#utility.yul\":22834:23253   */\n      swap2\n      swap1\n      pop\n      jump\t// out\n        /* \"#utility.yul\":23259:23410   */\n    tag_349:\n        /* \"#utility.yul\":23334:23343   */\n      0x00\n        /* \"#utility.yul\":23367:23404   */\n      tag_585\n        /* \"#utility.yul\":23398:23403   */\n      dup3\n        /* \"#utility.yul\":23367:23404   */\n      tag_323\n      jump\t// in\n    tag_585:\n        /* \"#utility.yul\":23354:23404   */\n      swap1\n      pop\n        /* \"#utility.yul\":23259:23410   */\n      swap2\n      swap1\n      pop\n      jump\t// out\n        /* \"#utility.yul\":23416:23597   */\n    tag_350:\n        /* \"#utility.yul\":23528:23590   */\n      tag_587\n        /* \"#utility.yul\":23584:23589   */\n      dup2\n        /* \"#utility.yul\":23528:23590   */\n      tag_349\n      jump\t// in\n    tag_587:\n        /* \"#utility.yul\":23523:23526   */\n      dup3\n        /* \"#utility.yul\":23516:23591   */\n      mstore\n        /* \"#utility.yul\":23416:23597   */\n      pop\n      pop\n      jump\t// out\n        /* \"#utility.yul\":23603:23875   */\n    tag_223:\n        /* \"#utility.yul\":23721:23725   */\n      0x00\n        /* \"#utility.yul\":23759:23761   */\n      0x20\n        /* \"#utility.yul\":23748:23757   */\n      dup3\n        /* \"#utility.yul\":23744:23762   */\n      add\n        /* \"#utility.yul\":23736:23762   */\n      swap1\n      pop\n        /* \"#utility.yul\":23772:23868   */\n      tag_589\n        /* \"#utility.yul\":23865:23866   */\n      0x00\n        /* \"#utility.yul\":23854:23863   */\n      dup4\n        /* \"#utility.yul\":23850:23867   */\n      add\n        /* \"#utility.yul\":23841:23847   */\n      dup5\n        /* \"#utility.yul\":23772:23868   */\n      tag_350\n      jump\t// in\n    tag_589:\n        /* \"#utility.yul\":23603:23875   */\n      swap3\n      swap2\n      pop\n      pop\n      jump\t// out\n        /* \"#utility.yul\":23881:24101   */\n    tag_351:\n        /* \"#utility.yul\":24021:24055   */\n      0x596f7520617265206e6f7420746865206f776e6572206f662074686973204e46\n        /* \"#utility.yul\":24017:24018   */\n      0x00\n        /* \"#utility.yul\":24009:24015   */\n      dup3\n        /* \"#utility.yul\":24005:24019   */\n      add\n        /* \"#utility.yul\":23998:24056   */\n      mstore\n        /* \"#utility.yul\":24090:24093   */\n      0x5400000000000000000000000000000000000000000000000000000000000000\n        /* \"#utility.yul\":24085:24087   */\n      0x20\n        /* \"#utility.yul\":24077:24083   */\n      dup3\n        /* \"#utility.yul\":24073:24088   */\n      add\n        /* \"#utility.yul\":24066:24094   */\n      mstore\n        /* \"#utility.yul\":23881:24101   */\n      pop\n      jump\t// out\n        /* \"#utility.yul\":24107:24473   */\n    tag_352:\n        /* \"#utility.yul\":24249:24252   */\n      0x00\n        /* \"#utility.yul\":24270:24337   */\n      tag_592\n        /* \"#utility.yul\":24334:24336   */\n      0x21\n        /* \"#utility.yul\":24329:24332   */\n      dup4\n        /* \"#utility.yul\":24270:24337   */\n      tag_331\n      jump\t// in\n    tag_592:\n        /* \"#utility.yul\":24263:24337   */\n      swap2\n      pop\n        /* \"#utility.yul\":24346:24439   */\n      tag_593\n        /* \"#utility.yul\":24435:24438   */\n      dup3\n        /* \"#utility.yul\":24346:24439   */\n      tag_351\n      jump\t// in\n    tag_593:\n        /* \"#utility.yul\":24464:24466   */\n      0x40\n        /* \"#utility.yul\":24459:24462   */\n      dup3\n        /* \"#utility.yul\":24455:24467   */\n      add\n        /* \"#utility.yul\":24448:24467   */\n      swap1\n      pop\n        /* \"#utility.yul\":24107:24473   */\n      swap2\n      swap1\n      pop\n      jump\t// out\n        /* \"#utility.yul\":24479:24898   */\n    tag_231:\n        /* \"#utility.yul\":24645:24649   */\n      0x00\n        /* \"#utility.yul\":24683:24685   */\n      0x20\n        /* \"#utility.yul\":24672:24681   */\n      dup3\n        /* \"#utility.yul\":24668:24686   */\n      add\n        /* \"#utility.yul\":24660:24686   */\n      swap1\n      pop\n        /* \"#utility.yul\":24732:24741   */\n      dup2\n        /* \"#utility.yul\":24726:24730   */\n      dup2\n        /* \"#utility.yul\":24722:24742   */\n      sub\n        /* \"#utility.yul\":24718:24719   */\n      0x00\n        /* \"#utility.yul\":24707:24716   */\n      dup4\n        /* \"#utility.yul\":24703:24720   */\n      add\n        /* \"#utility.yul\":24696:24743   */\n      mstore\n        /* \"#utility.yul\":24760:24891   */\n      tag_595\n        /* \"#utility.yul\":24886:24890   */\n      dup2\n        /* \"#utility.yul\":24760:24891   */\n      tag_352\n      jump\t// in\n    tag_595:\n        /* \"#utility.yul\":24752:24891   */\n      swap1\n      pop\n        /* \"#utility.yul\":24479:24898   */\n      swap2\n      swap1\n      pop\n      jump\t// out\n        /* \"#utility.yul\":24904:25136   */\n    tag_353:\n        /* \"#utility.yul\":25044:25078   */\n      0x4d61726b657420646f6573206e6f7420617070726f76656420746f207472616e\n        /* \"#utility.yul\":25040:25041   */\n      0x00\n        /* \"#utility.yul\":25032:25038   */\n      dup3\n        /* \"#utility.yul\":25028:25042   */\n      add\n        /* \"#utility.yul\":25021:25079   */\n      mstore\n        /* \"#utility.yul\":25113:25128   */\n      0x736665722074686973204e465400000000000000000000000000000000000000\n        /* \"#utility.yul\":25108:25110   */\n      0x20\n        /* \"#utility.yul\":25100:25106   */\n      dup3\n        /* \"#utility.yul\":25096:25111   */\n      add\n        /* \"#utility.yul\":25089:25129   */\n      mstore\n        /* \"#utility.yul\":24904:25136   */\n      pop\n      jump\t// out\n        /* \"#utility.yul\":25142:25508   */\n    tag_354:\n        /* \"#utility.yul\":25284:25287   */\n      0x00\n        /* \"#utility.yul\":25305:25372   */\n      tag_598\n        /* \"#utility.yul\":25369:25371   */\n      0x2d\n        /* \"#utility.yul\":25364:25367   */\n      dup4\n        /* \"#utility.yul\":25305:25372   */\n      tag_331\n      jump\t// in\n    tag_598:\n        /* \"#utility.yul\":25298:25372   */\n      swap2\n      pop\n        /* \"#utility.yul\":25381:25474   */\n      tag_599\n        /* \"#utility.yul\":25470:25473   */\n      dup3\n        /* \"#utility.yul\":25381:25474   */\n      tag_353\n      jump\t// in\n    tag_599:\n        /* \"#utility.yul\":25499:25501   */\n      0x40\n        /* \"#utility.yul\":25494:25497   */\n      dup3\n        /* \"#utility.yul\":25490:25502   */\n      add\n        /* \"#utility.yul\":25483:25502   */\n      swap1\n      pop\n        /* \"#utility.yul\":25142:25508   */\n      swap2\n      swap1\n      pop\n      jump\t// out\n        /* \"#utility.yul\":25514:25933   */\n    tag_238:\n        /* \"#utility.yul\":25680:25684   */\n      0x00\n        /* \"#utility.yul\":25718:25720   */\n      0x20\n        /* \"#utility.yul\":25707:25716   */\n      dup3\n        /* \"#utility.yul\":25703:25721   */\n      add\n        /* \"#utility.yul\":25695:25721   */\n      swap1\n      pop\n        /* \"#utility.yul\":25767:25776   */\n      dup2\n        /* \"#utility.yul\":25761:25765   */\n      dup2\n        /* \"#utility.yul\":25757:25777   */\n      sub\n        /* \"#utility.yul\":25753:25754   */\n      0x00\n        /* \"#utility.yul\":25742:25751   */\n      dup4\n        /* \"#utility.yul\":25738:25755   */\n      add\n        /* \"#utility.yul\":25731:25778   */\n      mstore\n        /* \"#utility.yul\":25795:25926   */\n      tag_601\n        /* \"#utility.yul\":25921:25925   */\n      dup2\n        /* \"#utility.yul\":25795:25926   */\n      tag_354\n      jump\t// in\n    tag_601:\n        /* \"#utility.yul\":25787:25926   */\n      swap1\n      pop\n        /* \"#utility.yul\":25514:25933   */\n      swap2\n      swap1\n      pop\n      jump\t// out\n        /* \"#utility.yul\":25939:26037   */\n    tag_355:\n        /* \"#utility.yul\":25990:25996   */\n      0x00\n        /* \"#utility.yul\":26024:26029   */\n      dup2\n        /* \"#utility.yul\":26018:26030   */\n      mload\n        /* \"#utility.yul\":26008:26030   */\n      swap1\n      pop\n        /* \"#utility.yul\":25939:26037   */\n      swap2\n      swap1\n      pop\n      jump\t// out\n        /* \"#utility.yul\":26043:26190   */\n    tag_356:\n        /* \"#utility.yul\":26144:26155   */\n      0x00\n        /* \"#utility.yul\":26181:26184   */\n      dup2\n        /* \"#utility.yul\":26166:26184   */\n      swap1\n      pop\n        /* \"#utility.yul\":26043:26190   */\n      swap3\n      swap2\n      pop\n      pop\n      jump\t// out\n        /* \"#utility.yul\":26196:26442   */\n    tag_357:\n        /* \"#utility.yul\":26277:26278   */\n      0x00\n        /* \"#utility.yul\":26287:26400   */\n    tag_605:\n        /* \"#utility.yul\":26301:26307   */\n      dup4\n        /* \"#utility.yul\":26298:26299   */\n      dup2\n        /* \"#utility.yul\":26295:26308   */\n      lt\n        /* \"#utility.yul\":26287:26400   */\n      iszero\n      tag_607\n      jumpi\n        /* \"#utility.yul\":26386:26387   */\n      dup1\n        /* \"#utility.yul\":26381:26384   */\n      dup3\n        /* \"#utility.yul\":26377:26388   */\n      add\n        /* \"#utility.yul\":26371:26389   */\n      mload\n        /* \"#utility.yul\":26367:26368   */\n      dup2\n        /* \"#utility.yul\":26362:26365   */\n      dup5\n        /* \"#utility.yul\":26358:26369   */\n      add\n        /* \"#utility.yul\":26351:26390   */\n      mstore\n        /* \"#utility.yul\":26323:26325   */\n      0x20\n        /* \"#utility.yul\":26320:26321   */\n      dup2\n        /* \"#utility.yul\":26316:26326   */\n      add\n        /* \"#utility.yul\":26311:26326   */\n      swap1\n      pop\n        /* \"#utility.yul\":26287:26400   */\n      jump(tag_605)\n    tag_607:\n        /* \"#utility.yul\":26434:26435   */\n      0x00\n        /* \"#utility.yul\":26425:26431   */\n      dup5\n        /* \"#utility.yul\":26420:26423   */\n      dup5\n        /* \"#utility.yul\":26416:26432   */\n      add\n        /* \"#utility.yul\":26409:26436   */\n      mstore\n        /* \"#utility.yul\":26258:26442   */\n      pop\n        /* \"#utility.yul\":26196:26442   */\n      pop\n      pop\n      pop\n      jump\t// out\n        /* \"#utility.yul\":26448:26834   */\n    tag_358:\n        /* \"#utility.yul\":26552:26555   */\n      0x00\n        /* \"#utility.yul\":26580:26618   */\n      tag_609\n        /* \"#utility.yul\":26612:26617   */\n      dup3\n        /* \"#utility.yul\":26580:26618   */\n      tag_355\n      jump\t// in\n    tag_609:\n        /* \"#utility.yul\":26634:26722   */\n      tag_610\n        /* \"#utility.yul\":26715:26721   */\n      dup2\n        /* \"#utility.yul\":26710:26713   */\n      dup6\n        /* \"#utility.yul\":26634:26722   */\n      tag_356\n      jump\t// in\n    tag_610:\n        /* \"#utility.yul\":26627:26722   */\n      swap4\n      pop\n        /* \"#utility.yul\":26731:26796   */\n      tag_611\n        /* \"#utility.yul\":26789:26795   */\n      dup2\n        /* \"#utility.yul\":26784:26787   */\n      dup6\n        /* \"#utility.yul\":26777:26781   */\n      0x20\n        /* \"#utility.yul\":26770:26775   */\n      dup7\n        /* \"#utility.yul\":26766:26782   */\n      add\n        /* \"#utility.yul\":26731:26796   */\n      tag_357\n      jump\t// in\n    tag_611:\n        /* \"#utility.yul\":26821:26827   */\n      dup1\n        /* \"#utility.yul\":26816:26819   */\n      dup5\n        /* \"#utility.yul\":26812:26828   */\n      add\n        /* \"#utility.yul\":26805:26828   */\n      swap2\n      pop\n        /* \"#utility.yul\":26556:26834   */\n      pop\n        /* \"#utility.yul\":26448:26834   */\n      swap3\n      swap2\n      pop\n      pop\n      jump\t// out\n        /* \"#utility.yul\":26840:27111   */\n    tag_271:\n        /* \"#utility.yul\":26970:26973   */\n      0x00\n        /* \"#utility.yul\":26992:27085   */\n      tag_613\n        /* \"#utility.yul\":27081:27084   */\n      dup3\n        /* \"#utility.yul\":27072:27078   */\n      dup5\n        /* \"#utility.yul\":26992:27085   */\n      tag_358\n      jump\t// in\n    tag_613:\n        /* \"#utility.yul\":26985:27085   */\n      swap2\n      pop\n        /* \"#utility.yul\":27102:27105   */\n      dup2\n        /* \"#utility.yul\":27095:27105   */\n      swap1\n      pop\n        /* \"#utility.yul\":26840:27111   */\n      swap3\n      swap2\n      pop\n      pop\n      jump\t// out\n\n    auxdata: 0xa2646970667358221220875aa0d64af446ba24d311205e4f9e2bdb8b485e66fad5e0211b1ddad930e31b64736f6c63430008140033\n}\n",
				"bytecode": {
					"linkReferences": {},
					"object": "6080604052600a60035534801562000015575f80fd5b5060405162002b8938038062002b8983398181016040528101906200003b9190620002f4565b825f73ffffffffffffffffffffffffffffffffffffffff168173ffffffffffffffffffffffffffffffffffffffff1603620000af575f6040517f1e4fbdf7000000000000000000000000000000000000000000000000000000008152600401620000a691906200035e565b60405180910390fd5b620000c0816200014a60201b60201c565b508160025f6101000a81548173ffffffffffffffffffffffffffffffffffffffff021916908373ffffffffffffffffffffffffffffffffffffffff1602179055508060015f6101000a81548173ffffffffffffffffffffffffffffffffffffffff021916908373ffffffffffffffffffffffffffffffffffffffff16021790555050505062000379565b5f805f9054906101000a900473ffffffffffffffffffffffffffffffffffffffff169050815f806101000a81548173ffffffffffffffffffffffffffffffffffffffff021916908373ffffffffffffffffffffffffffffffffffffffff1602179055508173ffffffffffffffffffffffffffffffffffffffff168173ffffffffffffffffffffffffffffffffffffffff167f8be0079c531659141344cd1fd0a4f28419497f9722a3daafe3b4186f6b6457e060405160405180910390a35050565b5f80fd5b5f73ffffffffffffffffffffffffffffffffffffffff82169050919050565b5f6200023a826200020f565b9050919050565b6200024c816200022e565b811462000257575f80fd5b50565b5f815190506200026a8162000241565b92915050565b5f6200027c826200022e565b9050919050565b6200028e8162000270565b811462000299575f80fd5b50565b5f81519050620002ac8162000283565b92915050565b5f620002be826200022e565b9050919050565b620002d081620002b2565b8114620002db575f80fd5b50565b5f81519050620002ee81620002c5565b92915050565b5f805f606084860312156200030e576200030d6200020b565b5b5f6200031d868287016200025a565b935050602062000330868287016200029c565b92505060406200034386828701620002de565b9150509250925092565b62000358816200022e565b82525050565b5f602082019050620003735f8301846200034d565b92915050565b61280280620003875f395ff3fe608060405234801561000f575f80fd5b50600436106100f3575f3560e01c8063556f8084116100955780639e75689c116100645780639e75689c1461020d578063f2fde38b14610229578063f3c1338714610245578063fe8723e114610261576100f3565b8063556f8084146101ab578063715018a6146101c75780637a53fde6146101d15780638da5cb5b146101ef576100f3565b80633ccfd60b116100d15780633ccfd60b1461015f5780633e3f23591461016957806350baa62214610173578063516468691461018f576100f3565b8063144fa6d7146100f7578063150b7a02146101135780632e5bb6ff14610143575b5f80fd5b610111600480360381019061010c9190611ae1565b61027d565b005b61012d60048036038101906101289190611bca565b6102ff565b60405161013a9190611c88565b60405180910390f35b61015d60048036038101906101589190611ca1565b610313565b005b61016761035c565b005b6101716103aa565b005b61018d60048036038101906101889190611ca1565b6104e9565b005b6101a960048036038101906101a49190611ccc565b61066c565b005b6101c560048036038101906101c09190611ccc565b610868565b005b6101cf610ca0565b005b6101d9610cb3565b6040516101e69190611e21565b60405180910390f35b6101f7610f0a565b6040516102049190611e50565b60405180910390f35b61022760048036038101906102229190611ca1565b610f31565b005b610243600480360381019061023e9190611e69565b6111b3565b005b61025f600480360381019061025a9190611ecf565b611237565b005b61027b60048036038101906102769190611ccc565b61129d565b005b610285611625565b8060025f6101000a81548173ffffffffffffffffffffffffffffffffffffffff021916908373ffffffffffffffffffffffffffffffffffffffff1602179055507fefc1fd16ea80a922086ee4e995739d59b025c1bcea6d1f67855747480c83214b816040516102f49190611f55565b60405180910390a150565b5f63150b7a0260e01b905095945050505050565b61031b611625565b806003819055507f9fa979502e438dac613eeda5e69bdaf59a326dc09969a480e1e19078b24e15d1816040516103519190611f7d565b60405180910390a150565b610364611625565b3373ffffffffffffffffffffffffffffffffffffffff166108fc4790811502906040515f60405180830381858888f193505050501580156103a7573d5f803e3d5ffd5b50565b6103b2611625565b60025f9054906101000a900473ffffffffffffffffffffffffffffffffffffffff1673ffffffffffffffffffffffffffffffffffffffff1663a9059cbb3360025f9054906101000a900473ffffffffffffffffffffffffffffffffffffffff1673ffffffffffffffffffffffffffffffffffffffff166370a08231306040518263ffffffff1660e01b815260040161044a9190611e50565b602060405180830381865afa158015610465573d5f803e3d5ffd5b505050506040513d601f19601f820116820180604052508101906104899190611faa565b6040518363ffffffff1660e01b81526004016104a6929190611fd5565b6020604051808303815f875af11580156104c2573d5f803e3d5ffd5b505050506040513d601f19601f820116820180604052508101906104e69190612031565b50565b6104f1611625565b8060025f9054906101000a900473ffffffffffffffffffffffffffffffffffffffff1673ffffffffffffffffffffffffffffffffffffffff166370a08231306040518263ffffffff1660e01b815260040161054c9190611e50565b602060405180830381865afa158015610567573d5f803e3d5ffd5b505050506040513d601f19601f8201168201806040525081019061058b9190611faa565b10156105cc576040517f08c379a00000000000000000000000000000000000000000000000000000000081526004016105c3906120b6565b60405180910390fd5b60025f9054906101000a900473ffffffffffffffffffffffffffffffffffffffff1673ffffffffffffffffffffffffffffffffffffffff1663a9059cbb33836040518363ffffffff1660e01b8152600401610628929190611fd5565b6020604051808303815f875af1158015610644573d5f803e3d5ffd5b505050506040513d601f19601f820116820180604052508101906106689190612031565b5050565b3073ffffffffffffffffffffffffffffffffffffffff1660015f9054906101000a900473ffffffffffffffffffffffffffffffffffffffff1673ffffffffffffffffffffffffffffffffffffffff16636352211e846040518263ffffffff1660e01b81526004016106dd9190611f7d565b602060405180830381865afa1580156106f8573d5f803e3d5ffd5b505050506040513d601f19601f8201168201806040525081019061071c91906120e8565b73ffffffffffffffffffffffffffffffffffffffff1614610772576040517f08c379a000000000000000000000000000000000000000000000000000000000815260040161076990612183565b60405180910390fd5b3373ffffffffffffffffffffffffffffffffffffffff1660045f8481526020019081526020015f205f015f9054906101000a900473ffffffffffffffffffffffffffffffffffffffff1673ffffffffffffffffffffffffffffffffffffffff1614610812576040517f08c379a000000000000000000000000000000000000000000000000000000000815260040161080990612211565b60405180910390fd5b8060045f8481526020019081526020015f20600101819055507fc7113691cf96332a4c71d0e3d8fc13f177dc22111131519552cd24a04fde1e5c828260405161085c92919061222f565b60405180910390a15050565b8060025f9054906101000a900473ffffffffffffffffffffffffffffffffffffffff1673ffffffffffffffffffffffffffffffffffffffff166370a08231336040518263ffffffff1660e01b81526004016108c39190611e50565b602060405180830381865afa1580156108de573d5f803e3d5ffd5b505050506040513d601f19601f820116820180604052508101906109029190611faa565b1015610943576040517f08c379a000000000000000000000000000000000000000000000000000000000815260040161093a906120b6565b60405180910390fd5b3073ffffffffffffffffffffffffffffffffffffffff1660015f9054906101000a900473ffffffffffffffffffffffffffffffffffffffff1673ffffffffffffffffffffffffffffffffffffffff16636352211e846040518263ffffffff1660e01b81526004016109b49190611f7d565b602060405180830381865afa1580156109cf573d5f803e3d5ffd5b505050506040513d601f19601f820116820180604052508101906109f391906120e8565b73ffffffffffffffffffffffffffffffffffffffff1614610a49576040517f08c379a0000000000000000000000000000000000000000000000000000000008152600401610a40906122c6565b60405180910390fd5b8060045f8481526020019081526020015f20600101541115610aa0576040517f08c379a0000000000000000000000000000000000000000000000000000000008152600401610a9790612354565b60405180910390fd5b610acd60025f9054906101000a900473ffffffffffffffffffffffffffffffffffffffff163330846116ac565b60025f9054906101000a900473ffffffffffffffffffffffffffffffffffffffff1673ffffffffffffffffffffffffffffffffffffffff1663a9059cbb60045f8581526020019081526020015f205f015f9054906101000a900473ffffffffffffffffffffffffffffffffffffffff1660646003546064610b4e919061239f565b85610b5991906123d2565b610b639190612440565b6040518363ffffffff1660e01b8152600401610b80929190612490565b6020604051808303815f875af1158015610b9c573d5f803e3d5ffd5b505050506040513d601f19601f82011682018060405250810190610bc09190612031565b5060015f9054906101000a900473ffffffffffffffffffffffffffffffffffffffff1673ffffffffffffffffffffffffffffffffffffffff166342842e0e3033856040518463ffffffff1660e01b8152600401610c1f939291906124b7565b5f604051808303815f87803b158015610c36575f80fd5b505af1158015610c48573d5f803e3d5ffd5b505050503373ffffffffffffffffffffffffffffffffffffffff167f5d963241241cfe9e161d13500d628058954b3febfde03e4b1f4071370e72fe2b8383604051610c9492919061222f565b60405180910390a25050565b610ca8611625565b610cb15f61172e565b565b60605f60015f9054906101000a900473ffffffffffffffffffffffffffffffffffffffff1673ffffffffffffffffffffffffffffffffffffffff166370a08231306040518263ffffffff1660e01b8152600401610d109190611e50565b602060405180830381865afa158015610d2b573d5f803e3d5ffd5b505050506040513d601f19601f82011682018060405250810190610d4f9190611faa565b90505f8167ffffffffffffffff811115610d6c57610d6b6124ec565b5b604051908082528060200260200182016040528015610da557816020015b610d92611a3a565b815260200190600190039081610d8a5790505b5090505f5b82811015610f015760045f60015f9054906101000a900473ffffffffffffffffffffffffffffffffffffffff1673ffffffffffffffffffffffffffffffffffffffff16632f745c5930856040518363ffffffff1660e01b8152600401610e11929190611fd5565b602060405180830381865afa158015610e2c573d5f803e3d5ffd5b505050506040513d601f19601f82011682018060405250810190610e509190611faa565b81526020019081526020015f206040518060600160405290815f82015f9054906101000a900473ffffffffffffffffffffffffffffffffffffffff1673ffffffffffffffffffffffffffffffffffffffff1673ffffffffffffffffffffffffffffffffffffffff16815260200160018201548152602001600282015481525050828281518110610ee357610ee2612519565b5b60200260200101819052508080610ef990612546565b915050610daa565b50809250505090565b5f805f9054906101000a900473ffffffffffffffffffffffffffffffffffffffff16905090565b3073ffffffffffffffffffffffffffffffffffffffff1660015f9054906101000a900473ffffffffffffffffffffffffffffffffffffffff1673ffffffffffffffffffffffffffffffffffffffff16636352211e836040518263ffffffff1660e01b8152600401610fa29190611f7d565b602060405180830381865afa158015610fbd573d5f803e3d5ffd5b505050506040513d601f19601f82011682018060405250810190610fe191906120e8565b73ffffffffffffffffffffffffffffffffffffffff1614611037576040517f08c379a000000000000000000000000000000000000000000000000000000000815260040161102e90612183565b60405180910390fd5b3373ffffffffffffffffffffffffffffffffffffffff1660045f8381526020019081526020015f205f015f9054906101000a900473ffffffffffffffffffffffffffffffffffffffff1673ffffffffffffffffffffffffffffffffffffffff16146110d7576040517f08c379a00000000000000000000000000000000000000000000000000000000081526004016110ce906125d7565b60405180910390fd5b60015f9054906101000a900473ffffffffffffffffffffffffffffffffffffffff1673ffffffffffffffffffffffffffffffffffffffff166342842e0e3033846040518463ffffffff1660e01b8152600401611135939291906124b7565b5f604051808303815f87803b15801561114c575f80fd5b505af115801561115e573d5f803e3d5ffd5b505050503373ffffffffffffffffffffffffffffffffffffffff167f995270fd4f93cea033cdf0da430f296d82414eb9a7d99b6b391bb3e8a1ee9fc2826040516111a89190611f7d565b60405180910390a250565b6111bb611625565b5f73ffffffffffffffffffffffffffffffffffffffff168173ffffffffffffffffffffffffffffffffffffffff160361122b575f6040517f1e4fbdf70000000000000000000000000000000000000000000000000000000081526004016112229190611e50565b60405180910390fd5b6112348161172e565b50565b61123f611625565b60015f9054906101000a900473ffffffffffffffffffffffffffffffffffffffff1690507ff8525b9383ba5cc1b196c9a879bcbe7911913876aaff159ec424e1bb6136fff2816040516112929190612615565b60405180910390a150565b3373ffffffffffffffffffffffffffffffffffffffff1660015f9054906101000a900473ffffffffffffffffffffffffffffffffffffffff1673ffffffffffffffffffffffffffffffffffffffff16636352211e846040518263ffffffff1660e01b815260040161130e9190611f7d565b602060405180830381865afa158015611329573d5f803e3d5ffd5b505050506040513d601f19601f8201168201806040525081019061134d91906120e8565b73ffffffffffffffffffffffffffffffffffffffff16146113a3576040517f08c379a000000000000000000000000000000000000000000000000000000000815260040161139a9061269e565b60405180910390fd5b3073ffffffffffffffffffffffffffffffffffffffff1660015f9054906101000a900473ffffffffffffffffffffffffffffffffffffffff1673ffffffffffffffffffffffffffffffffffffffff1663081812fc846040518263ffffffff1660e01b81526004016114149190611f7d565b602060405180830381865afa15801561142f573d5f803e3d5ffd5b505050506040513d601f19601f8201168201806040525081019061145391906120e8565b73ffffffffffffffffffffffffffffffffffffffff16146114a9576040517f08c379a00000000000000000000000000000000000000000000000000000000081526004016114a09061272c565b60405180910390fd5b60405180606001604052803373ffffffffffffffffffffffffffffffffffffffff1681526020018281526020018381525060045f8481526020019081526020015f205f820151815f015f6101000a81548173ffffffffffffffffffffffffffffffffffffffff021916908373ffffffffffffffffffffffffffffffffffffffff160217905550602082015181600101556040820151816002015590505060015f9054906101000a900473ffffffffffffffffffffffffffffffffffffffff1673ffffffffffffffffffffffffffffffffffffffff166342842e0e3330856040518463ffffffff1660e01b81526004016115a4939291906124b7565b5f604051808303815f87803b1580156115bb575f80fd5b505af11580156115cd573d5f803e3d5ffd5b505050503373ffffffffffffffffffffffffffffffffffffffff167f6cd52e2afd4c9fdb90f6226975fb688c697f05f2c4306f5bff7ea8cd941ed7ce838360405161161992919061222f565b60405180910390a25050565b61162d6117ef565b73ffffffffffffffffffffffffffffffffffffffff1661164b610f0a565b73ffffffffffffffffffffffffffffffffffffffff16146116aa5761166e6117ef565b6040517f118cdaa70000000000000000000000000000000000000000000000000000000081526004016116a19190611e50565b60405180910390fd5b565b611728848573ffffffffffffffffffffffffffffffffffffffff166323b872dd8686866040516024016116e1939291906124b7565b604051602081830303815290604052915060e01b6020820180517bffffffffffffffffffffffffffffffffffffffffffffffffffffffff83818316178352505050506117f6565b50505050565b5f805f9054906101000a900473ffffffffffffffffffffffffffffffffffffffff169050815f806101000a81548173ffffffffffffffffffffffffffffffffffffffff021916908373ffffffffffffffffffffffffffffffffffffffff1602179055508173ffffffffffffffffffffffffffffffffffffffff168173ffffffffffffffffffffffffffffffffffffffff167f8be0079c531659141344cd1fd0a4f28419497f9722a3daafe3b4186f6b6457e060405160405180910390a35050565b5f33905090565b5f611820828473ffffffffffffffffffffffffffffffffffffffff1661188b90919063ffffffff16565b90505f8151141580156118445750808060200190518101906118429190612031565b155b1561188657826040517f5274afe700000000000000000000000000000000000000000000000000000000815260040161187d9190611e50565b60405180910390fd5b505050565b606061189883835f6118a0565b905092915050565b6060814710156118e757306040517fcd7860590000000000000000000000000000000000000000000000000000000081526004016118de9190611e50565b60405180910390fd5b5f808573ffffffffffffffffffffffffffffffffffffffff16848660405161190f91906127b6565b5f6040518083038185875af1925050503d805f8114611949576040519150601f19603f3d011682016040523d82523d5f602084013e61194e565b606091505b509150915061195e868383611969565b925050509392505050565b60608261197e57611979826119f6565b6119ee565b5f82511480156119a457505f8473ffffffffffffffffffffffffffffffffffffffff163b145b156119e657836040517f9996b3150000000000000000000000000000000000000000000000000000000081526004016119dd9190611e50565b60405180910390fd5b8190506119ef565b5b9392505050565b5f81511115611a085780518082602001fd5b6040517f1425ea4200000000000000000000000000000000000000000000000000000000815260040160405180910390fd5b60405180606001604052805f73ffffffffffffffffffffffffffffffffffffffff1681526020015f81526020015f81525090565b5f80fd5b5f80fd5b5f73ffffffffffffffffffffffffffffffffffffffff82169050919050565b5f611a9f82611a76565b9050919050565b5f611ab082611a95565b9050919050565b611ac081611aa6565b8114611aca575f80fd5b50565b5f81359050611adb81611ab7565b92915050565b5f60208284031215611af657611af5611a6e565b5b5f611b0384828501611acd565b91505092915050565b611b1581611a95565b8114611b1f575f80fd5b50565b5f81359050611b3081611b0c565b92915050565b5f819050919050565b611b4881611b36565b8114611b52575f80fd5b50565b5f81359050611b6381611b3f565b92915050565b5f80fd5b5f80fd5b5f80fd5b5f8083601f840112611b8a57611b89611b69565b5b8235905067ffffffffffffffff811115611ba757611ba6611b6d565b5b602083019150836001820283011115611bc357611bc2611b71565b5b9250929050565b5f805f805f60808688031215611be357611be2611a6e565b5b5f611bf088828901611b22565b9550506020611c0188828901611b22565b9450506040611c1288828901611b55565b935050606086013567ffffffffffffffff811115611c3357611c32611a72565b5b611c3f88828901611b75565b92509250509295509295909350565b5f7fffffffff0000000000000000000000000000000000000000000000000000000082169050919050565b611c8281611c4e565b82525050565b5f602082019050611c9b5f830184611c79565b92915050565b5f60208284031215611cb657611cb5611a6e565b5b5f611cc384828501611b55565b91505092915050565b5f8060408385031215611ce257611ce1611a6e565b5b5f611cef85828601611b55565b9250506020611d0085828601611b55565b9150509250929050565b5f81519050919050565b5f82825260208201905092915050565b5f819050602082019050919050565b5f611d3d82611a76565b9050919050565b611d4d81611d33565b82525050565b611d5c81611b36565b82525050565b606082015f820151611d765f850182611d44565b506020820151611d896020850182611d53565b506040820151611d9c6040850182611d53565b50505050565b5f611dad8383611d62565b60608301905092915050565b5f602082019050919050565b5f611dcf82611d0a565b611dd98185611d14565b9350611de483611d24565b805f5b83811015611e14578151611dfb8882611da2565b9750611e0683611db9565b925050600181019050611de7565b5085935050505092915050565b5f6020820190508181035f830152611e398184611dc5565b905092915050565b611e4a81611a95565b82525050565b5f602082019050611e635f830184611e41565b92915050565b5f60208284031215611e7e57611e7d611a6e565b5b5f611e8b84828501611b22565b91505092915050565b5f611e9e82611a95565b9050919050565b611eae81611e94565b8114611eb8575f80fd5b50565b5f81359050611ec981611ea5565b92915050565b5f60208284031215611ee457611ee3611a6e565b5b5f611ef184828501611ebb565b91505092915050565b5f819050919050565b5f611f1d611f18611f1384611a76565b611efa565b611a76565b9050919050565b5f611f2e82611f03565b9050919050565b5f611f3f82611f24565b9050919050565b611f4f81611f35565b82525050565b5f602082019050611f685f830184611f46565b92915050565b611f7781611b36565b82525050565b5f602082019050611f905f830184611f6e565b92915050565b5f81519050611fa481611b3f565b92915050565b5f60208284031215611fbf57611fbe611a6e565b5b5f611fcc84828501611f96565b91505092915050565b5f604082019050611fe85f830185611e41565b611ff56020830184611f6e565b9392505050565b5f8115159050919050565b61201081611ffc565b811461201a575f80fd5b50565b5f8151905061202b81612007565b92915050565b5f6020828403121561204657612045611a6e565b5b5f6120538482850161201d565b91505092915050565b5f82825260208201905092915050565b7f496e73756666696369656e74206163636f756e742062616c616e6365000000005f82015250565b5f6120a0601c8361205c565b91506120ab8261206c565b602082019050919050565b5f6020820190508181035f8301526120cd81612094565b9050919050565b5f815190506120e281611b0c565b92915050565b5f602082840312156120fd576120fc611a6e565b5b5f61210a848285016120d4565b91505092915050565b7f54686973204e465420646f6573206e6f74206578697374206f6e206d61726b655f8201527f7420706c61636500000000000000000000000000000000000000000000000000602082015250565b5f61216d60278361205c565b915061217882612113565b604082019050919050565b5f6020820190508181035f83015261219a81612161565b9050919050565b7f4f6e6c79206f776e65722063616e2075706461746520746865207072696365205f8201527f6f662074686973204e4654000000000000000000000000000000000000000000602082015250565b5f6121fb602b8361205c565b9150612206826121a1565b604082019050919050565b5f6020820190508181035f830152612228816121ef565b9050919050565b5f6040820190506122425f830185611f6e565b61224f6020830184611f6e565b9392505050565b7f54686973204e465420646f65736e2774206578697374206f6e206d61726b65745f8201527f706c616365000000000000000000000000000000000000000000000000000000602082015250565b5f6122b060258361205c565b91506122bb82612256565b604082019050919050565b5f6020820190508181035f8301526122dd816122a4565b9050919050565b7f4d696e696d756d20707269636520686173206e6f74206265656e2072656163685f8201527f6564000000000000000000000000000000000000000000000000000000000000602082015250565b5f61233e60228361205c565b9150612349826122e4565b604082019050919050565b5f6020820190508181035f83015261236b81612332565b9050919050565b7f4e487b71000000000000000000000000000000000000000000000000000000005f52601160045260245ffd5b5f6123a982611b36565b91506123b483611b36565b92508282039050818111156123cc576123cb612372565b5b92915050565b5f6123dc82611b36565b91506123e783611b36565b92508282026123f581611b36565b9150828204841483151761240c5761240b612372565b5b5092915050565b7f4e487b71000000000000000000000000000000000000000000000000000000005f52601260045260245ffd5b5f61244a82611b36565b915061245583611b36565b92508261246557612464612413565b5b828204905092915050565b5f61247a82611f24565b9050919050565b61248a81612470565b82525050565b5f6040820190506124a35f830185612481565b6124b06020830184611f6e565b9392505050565b5f6060820190506124ca5f830186611e41565b6124d76020830185611e41565b6124e46040830184611f6e565b949350505050565b7f4e487b71000000000000000000000000000000000000000000000000000000005f52604160045260245ffd5b7f4e487b71000000000000000000000000000000000000000000000000000000005f52603260045260245ffd5b5f61255082611b36565b91507fffffffffffffffffffffffffffffffffffffffffffffffffffffffffffffffff820361258257612581612372565b5b600182019050919050565b7f4f6e6c79206f776e65722063616e20756e6c6973742074686973204e465400005f82015250565b5f6125c1601e8361205c565b91506125cc8261258d565b602082019050919050565b5f6020820190508181035f8301526125ee816125b5565b9050919050565b5f6125ff82611f24565b9050919050565b61260f816125f5565b82525050565b5f6020820190506126285f830184612606565b92915050565b7f596f7520617265206e6f7420746865206f776e6572206f662074686973204e465f8201527f5400000000000000000000000000000000000000000000000000000000000000602082015250565b5f61268860218361205c565b91506126938261262e565b604082019050919050565b5f6020820190508181035f8301526126b58161267c565b9050919050565b7f4d61726b657420646f6573206e6f7420617070726f76656420746f207472616e5f8201527f736665722074686973204e465400000000000000000000000000000000000000602082015250565b5f612716602d8361205c565b9150612721826126bc565b604082019050919050565b5f6020820190508181035f8301526127438161270a565b9050919050565b5f81519050919050565b5f81905092915050565b5f5b8381101561277b578082015181840152602081019050612760565b5f8484015250505050565b5f6127908261274a565b61279a8185612754565b93506127aa81856020860161275e565b80840191505092915050565b5f6127c18284612786565b91508190509291505056fea2646970667358221220875aa0d64af446ba24d311205e4f9e2bdb8b485e66fad5e0211b1ddad930e31b64736f6c63430008140033",
					"opcodes": "PUSH1 0x80 PUSH1 0x40 MSTORE PUSH1 0xA PUSH1 0x3 SSTORE CALLVALUE DUP1 ISZERO PUSH3 0x15 JUMPI PUSH0 DUP1 REVERT JUMPDEST POP PUSH1 0x40 MLOAD PUSH3 0x2B89 CODESIZE SUB DUP1 PUSH3 0x2B89 DUP4 CODECOPY DUP2 DUP2 ADD PUSH1 0x40 MSTORE DUP2 ADD SWAP1 PUSH3 0x3B SWAP2 SWAP1 PUSH3 0x2F4 JUMP JUMPDEST DUP3 PUSH0 PUSH20 0xFFFFFFFFFFFFFFFFFFFFFFFFFFFFFFFFFFFFFFFF AND DUP2 PUSH20 0xFFFFFFFFFFFFFFFFFFFFFFFFFFFFFFFFFFFFFFFF AND SUB PUSH3 0xAF JUMPI PUSH0 PUSH1 0x40 MLOAD PUSH32 0x1E4FBDF700000000000000000000000000000000000000000000000000000000 DUP2 MSTORE PUSH1 0x4 ADD PUSH3 0xA6 SWAP2 SWAP1 PUSH3 0x35E JUMP JUMPDEST PUSH1 0x40 MLOAD DUP1 SWAP2 SUB SWAP1 REVERT JUMPDEST PUSH3 0xC0 DUP2 PUSH3 0x14A PUSH1 0x20 SHL PUSH1 0x20 SHR JUMP JUMPDEST POP DUP2 PUSH1 0x2 PUSH0 PUSH2 0x100 EXP DUP2 SLOAD DUP2 PUSH20 0xFFFFFFFFFFFFFFFFFFFFFFFFFFFFFFFFFFFFFFFF MUL NOT AND SWAP1 DUP4 PUSH20 0xFFFFFFFFFFFFFFFFFFFFFFFFFFFFFFFFFFFFFFFF AND MUL OR SWAP1 SSTORE POP DUP1 PUSH1 0x1 PUSH0 PUSH2 0x100 EXP DUP2 SLOAD DUP2 PUSH20 0xFFFFFFFFFFFFFFFFFFFFFFFFFFFFFFFFFFFFFFFF MUL NOT AND SWAP1 DUP4 PUSH20 0xFFFFFFFFFFFFFFFFFFFFFFFFFFFFFFFFFFFFFFFF AND MUL OR SWAP1 SSTORE POP POP POP POP PUSH3 0x379 JUMP JUMPDEST PUSH0 DUP1 PUSH0 SWAP1 SLOAD SWAP1 PUSH2 0x100 EXP SWAP1 DIV PUSH20 0xFFFFFFFFFFFFFFFFFFFFFFFFFFFFFFFFFFFFFFFF AND SWAP1 POP DUP2 PUSH0 DUP1 PUSH2 0x100 EXP DUP2 SLOAD DUP2 PUSH20 0xFFFFFFFFFFFFFFFFFFFFFFFFFFFFFFFFFFFFFFFF MUL NOT AND SWAP1 DUP4 PUSH20 0xFFFFFFFFFFFFFFFFFFFFFFFFFFFFFFFFFFFFFFFF AND MUL OR SWAP1 SSTORE POP DUP2 PUSH20 0xFFFFFFFFFFFFFFFFFFFFFFFFFFFFFFFFFFFFFFFF AND DUP2 PUSH20 0xFFFFFFFFFFFFFFFFFFFFFFFFFFFFFFFFFFFFFFFF AND PUSH32 0x8BE0079C531659141344CD1FD0A4F28419497F9722A3DAAFE3B4186F6B6457E0 PUSH1 0x40 MLOAD PUSH1 0x40 MLOAD DUP1 SWAP2 SUB SWAP1 LOG3 POP POP JUMP JUMPDEST PUSH0 DUP1 REVERT JUMPDEST PUSH0 PUSH20 0xFFFFFFFFFFFFFFFFFFFFFFFFFFFFFFFFFFFFFFFF DUP3 AND SWAP1 POP SWAP2 SWAP1 POP JUMP JUMPDEST PUSH0 PUSH3 0x23A DUP3 PUSH3 0x20F JUMP JUMPDEST SWAP1 POP SWAP2 SWAP1 POP JUMP JUMPDEST PUSH3 0x24C DUP2 PUSH3 0x22E JUMP JUMPDEST DUP2 EQ PUSH3 0x257 JUMPI PUSH0 DUP1 REVERT JUMPDEST POP JUMP JUMPDEST PUSH0 DUP2 MLOAD SWAP1 POP PUSH3 0x26A DUP2 PUSH3 0x241 JUMP JUMPDEST SWAP3 SWAP2 POP POP JUMP JUMPDEST PUSH0 PUSH3 0x27C DUP3 PUSH3 0x22E JUMP JUMPDEST SWAP1 POP SWAP2 SWAP1 POP JUMP JUMPDEST PUSH3 0x28E DUP2 PUSH3 0x270 JUMP JUMPDEST DUP2 EQ PUSH3 0x299 JUMPI PUSH0 DUP1 REVERT JUMPDEST POP JUMP JUMPDEST PUSH0 DUP2 MLOAD SWAP1 POP PUSH3 0x2AC DUP2 PUSH3 0x283 JUMP JUMPDEST SWAP3 SWAP2 POP POP JUMP JUMPDEST PUSH0 PUSH3 0x2BE DUP3 PUSH3 0x22E JUMP JUMPDEST SWAP1 POP SWAP2 SWAP1 POP JUMP JUMPDEST PUSH3 0x2D0 DUP2 PUSH3 0x2B2 JUMP JUMPDEST DUP2 EQ PUSH3 0x2DB JUMPI PUSH0 DUP1 REVERT JUMPDEST POP JUMP JUMPDEST PUSH0 DUP2 MLOAD SWAP1 POP PUSH3 0x2EE DUP2 PUSH3 0x2C5 JUMP JUMPDEST SWAP3 SWAP2 POP POP JUMP JUMPDEST PUSH0 DUP1 PUSH0 PUSH1 0x60 DUP5 DUP7 SUB SLT ISZERO PUSH3 0x30E JUMPI PUSH3 0x30D PUSH3 0x20B JUMP JUMPDEST JUMPDEST PUSH0 PUSH3 0x31D DUP7 DUP3 DUP8 ADD PUSH3 0x25A JUMP JUMPDEST SWAP4 POP POP PUSH1 0x20 PUSH3 0x330 DUP7 DUP3 DUP8 ADD PUSH3 0x29C JUMP JUMPDEST SWAP3 POP POP PUSH1 0x40 PUSH3 0x343 DUP7 DUP3 DUP8 ADD PUSH3 0x2DE JUMP JUMPDEST SWAP2 POP POP SWAP3 POP SWAP3 POP SWAP3 JUMP JUMPDEST PUSH3 0x358 DUP2 PUSH3 0x22E JUMP JUMPDEST DUP3 MSTORE POP POP JUMP JUMPDEST PUSH0 PUSH1 0x20 DUP3 ADD SWAP1 POP PUSH3 0x373 PUSH0 DUP4 ADD DUP5 PUSH3 0x34D JUMP JUMPDEST SWAP3 SWAP2 POP POP JUMP JUMPDEST PUSH2 0x2802 DUP1 PUSH3 0x387 PUSH0 CODECOPY PUSH0 RETURN INVALID PUSH1 0x80 PUSH1 0x40 MSTORE CALLVALUE DUP1 ISZERO PUSH2 0xF JUMPI PUSH0 DUP1 REVERT JUMPDEST POP PUSH1 0x4 CALLDATASIZE LT PUSH2 0xF3 JUMPI PUSH0 CALLDATALOAD PUSH1 0xE0 SHR DUP1 PUSH4 0x556F8084 GT PUSH2 0x95 JUMPI DUP1 PUSH4 0x9E75689C GT PUSH2 0x64 JUMPI DUP1 PUSH4 0x9E75689C EQ PUSH2 0x20D JUMPI DUP1 PUSH4 0xF2FDE38B EQ PUSH2 0x229 JUMPI DUP1 PUSH4 0xF3C13387 EQ PUSH2 0x245 JUMPI DUP1 PUSH4 0xFE8723E1 EQ PUSH2 0x261 JUMPI PUSH2 0xF3 JUMP JUMPDEST DUP1 PUSH4 0x556F8084 EQ PUSH2 0x1AB JUMPI DUP1 PUSH4 0x715018A6 EQ PUSH2 0x1C7 JUMPI DUP1 PUSH4 0x7A53FDE6 EQ PUSH2 0x1D1 JUMPI DUP1 PUSH4 0x8DA5CB5B EQ PUSH2 0x1EF JUMPI PUSH2 0xF3 JUMP JUMPDEST DUP1 PUSH4 0x3CCFD60B GT PUSH2 0xD1 JUMPI DUP1 PUSH4 0x3CCFD60B EQ PUSH2 0x15F JUMPI DUP1 PUSH4 0x3E3F2359 EQ PUSH2 0x169 JUMPI DUP1 PUSH4 0x50BAA622 EQ PUSH2 0x173 JUMPI DUP1 PUSH4 0x51646869 EQ PUSH2 0x18F JUMPI PUSH2 0xF3 JUMP JUMPDEST DUP1 PUSH4 0x144FA6D7 EQ PUSH2 0xF7 JUMPI DUP1 PUSH4 0x150B7A02 EQ PUSH2 0x113 JUMPI DUP1 PUSH4 0x2E5BB6FF EQ PUSH2 0x143 JUMPI JUMPDEST PUSH0 DUP1 REVERT JUMPDEST PUSH2 0x111 PUSH1 0x4 DUP1 CALLDATASIZE SUB DUP2 ADD SWAP1 PUSH2 0x10C SWAP2 SWAP1 PUSH2 0x1AE1 JUMP JUMPDEST PUSH2 0x27D JUMP JUMPDEST STOP JUMPDEST PUSH2 0x12D PUSH1 0x4 DUP1 CALLDATASIZE SUB DUP2 ADD SWAP1 PUSH2 0x128 SWAP2 SWAP1 PUSH2 0x1BCA JUMP JUMPDEST PUSH2 0x2FF JUMP JUMPDEST PUSH1 0x40 MLOAD PUSH2 0x13A SWAP2 SWAP1 PUSH2 0x1C88 JUMP JUMPDEST PUSH1 0x40 MLOAD DUP1 SWAP2 SUB SWAP1 RETURN JUMPDEST PUSH2 0x15D PUSH1 0x4 DUP1 CALLDATASIZE SUB DUP2 ADD SWAP1 PUSH2 0x158 SWAP2 SWAP1 PUSH2 0x1CA1 JUMP JUMPDEST PUSH2 0x313 JUMP JUMPDEST STOP JUMPDEST PUSH2 0x167 PUSH2 0x35C JUMP JUMPDEST STOP JUMPDEST PUSH2 0x171 PUSH2 0x3AA JUMP JUMPDEST STOP JUMPDEST PUSH2 0x18D PUSH1 0x4 DUP1 CALLDATASIZE SUB DUP2 ADD SWAP1 PUSH2 0x188 SWAP2 SWAP1 PUSH2 0x1CA1 JUMP JUMPDEST PUSH2 0x4E9 JUMP JUMPDEST STOP JUMPDEST PUSH2 0x1A9 PUSH1 0x4 DUP1 CALLDATASIZE SUB DUP2 ADD SWAP1 PUSH2 0x1A4 SWAP2 SWAP1 PUSH2 0x1CCC JUMP JUMPDEST PUSH2 0x66C JUMP JUMPDEST STOP JUMPDEST PUSH2 0x1C5 PUSH1 0x4 DUP1 CALLDATASIZE SUB DUP2 ADD SWAP1 PUSH2 0x1C0 SWAP2 SWAP1 PUSH2 0x1CCC JUMP JUMPDEST PUSH2 0x868 JUMP JUMPDEST STOP JUMPDEST PUSH2 0x1CF PUSH2 0xCA0 JUMP JUMPDEST STOP JUMPDEST PUSH2 0x1D9 PUSH2 0xCB3 JUMP JUMPDEST PUSH1 0x40 MLOAD PUSH2 0x1E6 SWAP2 SWAP1 PUSH2 0x1E21 JUMP JUMPDEST PUSH1 0x40 MLOAD DUP1 SWAP2 SUB SWAP1 RETURN JUMPDEST PUSH2 0x1F7 PUSH2 0xF0A JUMP JUMPDEST PUSH1 0x40 MLOAD PUSH2 0x204 SWAP2 SWAP1 PUSH2 0x1E50 JUMP JUMPDEST PUSH1 0x40 MLOAD DUP1 SWAP2 SUB SWAP1 RETURN JUMPDEST PUSH2 0x227 PUSH1 0x4 DUP1 CALLDATASIZE SUB DUP2 ADD SWAP1 PUSH2 0x222 SWAP2 SWAP1 PUSH2 0x1CA1 JUMP JUMPDEST PUSH2 0xF31 JUMP JUMPDEST STOP JUMPDEST PUSH2 0x243 PUSH1 0x4 DUP1 CALLDATASIZE SUB DUP2 ADD SWAP1 PUSH2 0x23E SWAP2 SWAP1 PUSH2 0x1E69 JUMP JUMPDEST PUSH2 0x11B3 JUMP JUMPDEST STOP JUMPDEST PUSH2 0x25F PUSH1 0x4 DUP1 CALLDATASIZE SUB DUP2 ADD SWAP1 PUSH2 0x25A SWAP2 SWAP1 PUSH2 0x1ECF JUMP JUMPDEST PUSH2 0x1237 JUMP JUMPDEST STOP JUMPDEST PUSH2 0x27B PUSH1 0x4 DUP1 CALLDATASIZE SUB DUP2 ADD SWAP1 PUSH2 0x276 SWAP2 SWAP1 PUSH2 0x1CCC JUMP JUMPDEST PUSH2 0x129D JUMP JUMPDEST STOP JUMPDEST PUSH2 0x285 PUSH2 0x1625 JUMP JUMPDEST DUP1 PUSH1 0x2 PUSH0 PUSH2 0x100 EXP DUP2 SLOAD DUP2 PUSH20 0xFFFFFFFFFFFFFFFFFFFFFFFFFFFFFFFFFFFFFFFF MUL NOT AND SWAP1 DUP4 PUSH20 0xFFFFFFFFFFFFFFFFFFFFFFFFFFFFFFFFFFFFFFFF AND MUL OR SWAP1 SSTORE POP PUSH32 0xEFC1FD16EA80A922086EE4E995739D59B025C1BCEA6D1F67855747480C83214B DUP2 PUSH1 0x40 MLOAD PUSH2 0x2F4 SWAP2 SWAP1 PUSH2 0x1F55 JUMP JUMPDEST PUSH1 0x40 MLOAD DUP1 SWAP2 SUB SWAP1 LOG1 POP JUMP JUMPDEST PUSH0 PUSH4 0x150B7A02 PUSH1 0xE0 SHL SWAP1 POP SWAP6 SWAP5 POP POP POP POP POP JUMP JUMPDEST PUSH2 0x31B PUSH2 0x1625 JUMP JUMPDEST DUP1 PUSH1 0x3 DUP2 SWAP1 SSTORE POP PUSH32 0x9FA979502E438DAC613EEDA5E69BDAF59A326DC09969A480E1E19078B24E15D1 DUP2 PUSH1 0x40 MLOAD PUSH2 0x351 SWAP2 SWAP1 PUSH2 0x1F7D JUMP JUMPDEST PUSH1 0x40 MLOAD DUP1 SWAP2 SUB SWAP1 LOG1 POP JUMP JUMPDEST PUSH2 0x364 PUSH2 0x1625 JUMP JUMPDEST CALLER PUSH20 0xFFFFFFFFFFFFFFFFFFFFFFFFFFFFFFFFFFFFFFFF AND PUSH2 0x8FC SELFBALANCE SWAP1 DUP2 ISZERO MUL SWAP1 PUSH1 0x40 MLOAD PUSH0 PUSH1 0x40 MLOAD DUP1 DUP4 SUB DUP2 DUP6 DUP9 DUP9 CALL SWAP4 POP POP POP POP ISZERO DUP1 ISZERO PUSH2 0x3A7 JUMPI RETURNDATASIZE PUSH0 DUP1 RETURNDATACOPY RETURNDATASIZE PUSH0 REVERT JUMPDEST POP JUMP JUMPDEST PUSH2 0x3B2 PUSH2 0x1625 JUMP JUMPDEST PUSH1 0x2 PUSH0 SWAP1 SLOAD SWAP1 PUSH2 0x100 EXP SWAP1 DIV PUSH20 0xFFFFFFFFFFFFFFFFFFFFFFFFFFFFFFFFFFFFFFFF AND PUSH20 0xFFFFFFFFFFFFFFFFFFFFFFFFFFFFFFFFFFFFFFFF AND PUSH4 0xA9059CBB CALLER PUSH1 0x2 PUSH0 SWAP1 SLOAD SWAP1 PUSH2 0x100 EXP SWAP1 DIV PUSH20 0xFFFFFFFFFFFFFFFFFFFFFFFFFFFFFFFFFFFFFFFF AND PUSH20 0xFFFFFFFFFFFFFFFFFFFFFFFFFFFFFFFFFFFFFFFF AND PUSH4 0x70A08231 ADDRESS PUSH1 0x40 MLOAD DUP3 PUSH4 0xFFFFFFFF AND PUSH1 0xE0 SHL DUP2 MSTORE PUSH1 0x4 ADD PUSH2 0x44A SWAP2 SWAP1 PUSH2 0x1E50 JUMP JUMPDEST PUSH1 0x20 PUSH1 0x40 MLOAD DUP1 DUP4 SUB DUP2 DUP7 GAS STATICCALL ISZERO DUP1 ISZERO PUSH2 0x465 JUMPI RETURNDATASIZE PUSH0 DUP1 RETURNDATACOPY RETURNDATASIZE PUSH0 REVERT JUMPDEST POP POP POP POP PUSH1 0x40 MLOAD RETURNDATASIZE PUSH1 0x1F NOT PUSH1 0x1F DUP3 ADD AND DUP3 ADD DUP1 PUSH1 0x40 MSTORE POP DUP2 ADD SWAP1 PUSH2 0x489 SWAP2 SWAP1 PUSH2 0x1FAA JUMP JUMPDEST PUSH1 0x40 MLOAD DUP4 PUSH4 0xFFFFFFFF AND PUSH1 0xE0 SHL DUP2 MSTORE PUSH1 0x4 ADD PUSH2 0x4A6 SWAP3 SWAP2 SWAP1 PUSH2 0x1FD5 JUMP JUMPDEST PUSH1 0x20 PUSH1 0x40 MLOAD DUP1 DUP4 SUB DUP2 PUSH0 DUP8 GAS CALL ISZERO DUP1 ISZERO PUSH2 0x4C2 JUMPI RETURNDATASIZE PUSH0 DUP1 RETURNDATACOPY RETURNDATASIZE PUSH0 REVERT JUMPDEST POP POP POP POP PUSH1 0x40 MLOAD RETURNDATASIZE PUSH1 0x1F NOT PUSH1 0x1F DUP3 ADD AND DUP3 ADD DUP1 PUSH1 0x40 MSTORE POP DUP2 ADD SWAP1 PUSH2 0x4E6 SWAP2 SWAP1 PUSH2 0x2031 JUMP JUMPDEST POP JUMP JUMPDEST PUSH2 0x4F1 PUSH2 0x1625 JUMP JUMPDEST DUP1 PUSH1 0x2 PUSH0 SWAP1 SLOAD SWAP1 PUSH2 0x100 EXP SWAP1 DIV PUSH20 0xFFFFFFFFFFFFFFFFFFFFFFFFFFFFFFFFFFFFFFFF AND PUSH20 0xFFFFFFFFFFFFFFFFFFFFFFFFFFFFFFFFFFFFFFFF AND PUSH4 0x70A08231 ADDRESS PUSH1 0x40 MLOAD DUP3 PUSH4 0xFFFFFFFF AND PUSH1 0xE0 SHL DUP2 MSTORE PUSH1 0x4 ADD PUSH2 0x54C SWAP2 SWAP1 PUSH2 0x1E50 JUMP JUMPDEST PUSH1 0x20 PUSH1 0x40 MLOAD DUP1 DUP4 SUB DUP2 DUP7 GAS STATICCALL ISZERO DUP1 ISZERO PUSH2 0x567 JUMPI RETURNDATASIZE PUSH0 DUP1 RETURNDATACOPY RETURNDATASIZE PUSH0 REVERT JUMPDEST POP POP POP POP PUSH1 0x40 MLOAD RETURNDATASIZE PUSH1 0x1F NOT PUSH1 0x1F DUP3 ADD AND DUP3 ADD DUP1 PUSH1 0x40 MSTORE POP DUP2 ADD SWAP1 PUSH2 0x58B SWAP2 SWAP1 PUSH2 0x1FAA JUMP JUMPDEST LT ISZERO PUSH2 0x5CC JUMPI PUSH1 0x40 MLOAD PUSH32 0x8C379A000000000000000000000000000000000000000000000000000000000 DUP2 MSTORE PUSH1 0x4 ADD PUSH2 0x5C3 SWAP1 PUSH2 0x20B6 JUMP JUMPDEST PUSH1 0x40 MLOAD DUP1 SWAP2 SUB SWAP1 REVERT JUMPDEST PUSH1 0x2 PUSH0 SWAP1 SLOAD SWAP1 PUSH2 0x100 EXP SWAP1 DIV PUSH20 0xFFFFFFFFFFFFFFFFFFFFFFFFFFFFFFFFFFFFFFFF AND PUSH20 0xFFFFFFFFFFFFFFFFFFFFFFFFFFFFFFFFFFFFFFFF AND PUSH4 0xA9059CBB CALLER DUP4 PUSH1 0x40 MLOAD DUP4 PUSH4 0xFFFFFFFF AND PUSH1 0xE0 SHL DUP2 MSTORE PUSH1 0x4 ADD PUSH2 0x628 SWAP3 SWAP2 SWAP1 PUSH2 0x1FD5 JUMP JUMPDEST PUSH1 0x20 PUSH1 0x40 MLOAD DUP1 DUP4 SUB DUP2 PUSH0 DUP8 GAS CALL ISZERO DUP1 ISZERO PUSH2 0x644 JUMPI RETURNDATASIZE PUSH0 DUP1 RETURNDATACOPY RETURNDATASIZE PUSH0 REVERT JUMPDEST POP POP POP POP PUSH1 0x40 MLOAD RETURNDATASIZE PUSH1 0x1F NOT PUSH1 0x1F DUP3 ADD AND DUP3 ADD DUP1 PUSH1 0x40 MSTORE POP DUP2 ADD SWAP1 PUSH2 0x668 SWAP2 SWAP1 PUSH2 0x2031 JUMP JUMPDEST POP POP JUMP JUMPDEST ADDRESS PUSH20 0xFFFFFFFFFFFFFFFFFFFFFFFFFFFFFFFFFFFFFFFF AND PUSH1 0x1 PUSH0 SWAP1 SLOAD SWAP1 PUSH2 0x100 EXP SWAP1 DIV PUSH20 0xFFFFFFFFFFFFFFFFFFFFFFFFFFFFFFFFFFFFFFFF AND PUSH20 0xFFFFFFFFFFFFFFFFFFFFFFFFFFFFFFFFFFFFFFFF AND PUSH4 0x6352211E DUP5 PUSH1 0x40 MLOAD DUP3 PUSH4 0xFFFFFFFF AND PUSH1 0xE0 SHL DUP2 MSTORE PUSH1 0x4 ADD PUSH2 0x6DD SWAP2 SWAP1 PUSH2 0x1F7D JUMP JUMPDEST PUSH1 0x20 PUSH1 0x40 MLOAD DUP1 DUP4 SUB DUP2 DUP7 GAS STATICCALL ISZERO DUP1 ISZERO PUSH2 0x6F8 JUMPI RETURNDATASIZE PUSH0 DUP1 RETURNDATACOPY RETURNDATASIZE PUSH0 REVERT JUMPDEST POP POP POP POP PUSH1 0x40 MLOAD RETURNDATASIZE PUSH1 0x1F NOT PUSH1 0x1F DUP3 ADD AND DUP3 ADD DUP1 PUSH1 0x40 MSTORE POP DUP2 ADD SWAP1 PUSH2 0x71C SWAP2 SWAP1 PUSH2 0x20E8 JUMP JUMPDEST PUSH20 0xFFFFFFFFFFFFFFFFFFFFFFFFFFFFFFFFFFFFFFFF AND EQ PUSH2 0x772 JUMPI PUSH1 0x40 MLOAD PUSH32 0x8C379A000000000000000000000000000000000000000000000000000000000 DUP2 MSTORE PUSH1 0x4 ADD PUSH2 0x769 SWAP1 PUSH2 0x2183 JUMP JUMPDEST PUSH1 0x40 MLOAD DUP1 SWAP2 SUB SWAP1 REVERT JUMPDEST CALLER PUSH20 0xFFFFFFFFFFFFFFFFFFFFFFFFFFFFFFFFFFFFFFFF AND PUSH1 0x4 PUSH0 DUP5 DUP2 MSTORE PUSH1 0x20 ADD SWAP1 DUP2 MSTORE PUSH1 0x20 ADD PUSH0 KECCAK256 PUSH0 ADD PUSH0 SWAP1 SLOAD SWAP1 PUSH2 0x100 EXP SWAP1 DIV PUSH20 0xFFFFFFFFFFFFFFFFFFFFFFFFFFFFFFFFFFFFFFFF AND PUSH20 0xFFFFFFFFFFFFFFFFFFFFFFFFFFFFFFFFFFFFFFFF AND EQ PUSH2 0x812 JUMPI PUSH1 0x40 MLOAD PUSH32 0x8C379A000000000000000000000000000000000000000000000000000000000 DUP2 MSTORE PUSH1 0x4 ADD PUSH2 0x809 SWAP1 PUSH2 0x2211 JUMP JUMPDEST PUSH1 0x40 MLOAD DUP1 SWAP2 SUB SWAP1 REVERT JUMPDEST DUP1 PUSH1 0x4 PUSH0 DUP5 DUP2 MSTORE PUSH1 0x20 ADD SWAP1 DUP2 MSTORE PUSH1 0x20 ADD PUSH0 KECCAK256 PUSH1 0x1 ADD DUP2 SWAP1 SSTORE POP PUSH32 0xC7113691CF96332A4C71D0E3D8FC13F177DC22111131519552CD24A04FDE1E5C DUP3 DUP3 PUSH1 0x40 MLOAD PUSH2 0x85C SWAP3 SWAP2 SWAP1 PUSH2 0x222F JUMP JUMPDEST PUSH1 0x40 MLOAD DUP1 SWAP2 SUB SWAP1 LOG1 POP POP JUMP JUMPDEST DUP1 PUSH1 0x2 PUSH0 SWAP1 SLOAD SWAP1 PUSH2 0x100 EXP SWAP1 DIV PUSH20 0xFFFFFFFFFFFFFFFFFFFFFFFFFFFFFFFFFFFFFFFF AND PUSH20 0xFFFFFFFFFFFFFFFFFFFFFFFFFFFFFFFFFFFFFFFF AND PUSH4 0x70A08231 CALLER PUSH1 0x40 MLOAD DUP3 PUSH4 0xFFFFFFFF AND PUSH1 0xE0 SHL DUP2 MSTORE PUSH1 0x4 ADD PUSH2 0x8C3 SWAP2 SWAP1 PUSH2 0x1E50 JUMP JUMPDEST PUSH1 0x20 PUSH1 0x40 MLOAD DUP1 DUP4 SUB DUP2 DUP7 GAS STATICCALL ISZERO DUP1 ISZERO PUSH2 0x8DE JUMPI RETURNDATASIZE PUSH0 DUP1 RETURNDATACOPY RETURNDATASIZE PUSH0 REVERT JUMPDEST POP POP POP POP PUSH1 0x40 MLOAD RETURNDATASIZE PUSH1 0x1F NOT PUSH1 0x1F DUP3 ADD AND DUP3 ADD DUP1 PUSH1 0x40 MSTORE POP DUP2 ADD SWAP1 PUSH2 0x902 SWAP2 SWAP1 PUSH2 0x1FAA JUMP JUMPDEST LT ISZERO PUSH2 0x943 JUMPI PUSH1 0x40 MLOAD PUSH32 0x8C379A000000000000000000000000000000000000000000000000000000000 DUP2 MSTORE PUSH1 0x4 ADD PUSH2 0x93A SWAP1 PUSH2 0x20B6 JUMP JUMPDEST PUSH1 0x40 MLOAD DUP1 SWAP2 SUB SWAP1 REVERT JUMPDEST ADDRESS PUSH20 0xFFFFFFFFFFFFFFFFFFFFFFFFFFFFFFFFFFFFFFFF AND PUSH1 0x1 PUSH0 SWAP1 SLOAD SWAP1 PUSH2 0x100 EXP SWAP1 DIV PUSH20 0xFFFFFFFFFFFFFFFFFFFFFFFFFFFFFFFFFFFFFFFF AND PUSH20 0xFFFFFFFFFFFFFFFFFFFFFFFFFFFFFFFFFFFFFFFF AND PUSH4 0x6352211E DUP5 PUSH1 0x40 MLOAD DUP3 PUSH4 0xFFFFFFFF AND PUSH1 0xE0 SHL DUP2 MSTORE PUSH1 0x4 ADD PUSH2 0x9B4 SWAP2 SWAP1 PUSH2 0x1F7D JUMP JUMPDEST PUSH1 0x20 PUSH1 0x40 MLOAD DUP1 DUP4 SUB DUP2 DUP7 GAS STATICCALL ISZERO DUP1 ISZERO PUSH2 0x9CF JUMPI RETURNDATASIZE PUSH0 DUP1 RETURNDATACOPY RETURNDATASIZE PUSH0 REVERT JUMPDEST POP POP POP POP PUSH1 0x40 MLOAD RETURNDATASIZE PUSH1 0x1F NOT PUSH1 0x1F DUP3 ADD AND DUP3 ADD DUP1 PUSH1 0x40 MSTORE POP DUP2 ADD SWAP1 PUSH2 0x9F3 SWAP2 SWAP1 PUSH2 0x20E8 JUMP JUMPDEST PUSH20 0xFFFFFFFFFFFFFFFFFFFFFFFFFFFFFFFFFFFFFFFF AND EQ PUSH2 0xA49 JUMPI PUSH1 0x40 MLOAD PUSH32 0x8C379A000000000000000000000000000000000000000000000000000000000 DUP2 MSTORE PUSH1 0x4 ADD PUSH2 0xA40 SWAP1 PUSH2 0x22C6 JUMP JUMPDEST PUSH1 0x40 MLOAD DUP1 SWAP2 SUB SWAP1 REVERT JUMPDEST DUP1 PUSH1 0x4 PUSH0 DUP5 DUP2 MSTORE PUSH1 0x20 ADD SWAP1 DUP2 MSTORE PUSH1 0x20 ADD PUSH0 KECCAK256 PUSH1 0x1 ADD SLOAD GT ISZERO PUSH2 0xAA0 JUMPI PUSH1 0x40 MLOAD PUSH32 0x8C379A000000000000000000000000000000000000000000000000000000000 DUP2 MSTORE PUSH1 0x4 ADD PUSH2 0xA97 SWAP1 PUSH2 0x2354 JUMP JUMPDEST PUSH1 0x40 MLOAD DUP1 SWAP2 SUB SWAP1 REVERT JUMPDEST PUSH2 0xACD PUSH1 0x2 PUSH0 SWAP1 SLOAD SWAP1 PUSH2 0x100 EXP SWAP1 DIV PUSH20 0xFFFFFFFFFFFFFFFFFFFFFFFFFFFFFFFFFFFFFFFF AND CALLER ADDRESS DUP5 PUSH2 0x16AC JUMP JUMPDEST PUSH1 0x2 PUSH0 SWAP1 SLOAD SWAP1 PUSH2 0x100 EXP SWAP1 DIV PUSH20 0xFFFFFFFFFFFFFFFFFFFFFFFFFFFFFFFFFFFFFFFF AND PUSH20 0xFFFFFFFFFFFFFFFFFFFFFFFFFFFFFFFFFFFFFFFF AND PUSH4 0xA9059CBB PUSH1 0x4 PUSH0 DUP6 DUP2 MSTORE PUSH1 0x20 ADD SWAP1 DUP2 MSTORE PUSH1 0x20 ADD PUSH0 KECCAK256 PUSH0 ADD PUSH0 SWAP1 SLOAD SWAP1 PUSH2 0x100 EXP SWAP1 DIV PUSH20 0xFFFFFFFFFFFFFFFFFFFFFFFFFFFFFFFFFFFFFFFF AND PUSH1 0x64 PUSH1 0x3 SLOAD PUSH1 0x64 PUSH2 0xB4E SWAP2 SWAP1 PUSH2 0x239F JUMP JUMPDEST DUP6 PUSH2 0xB59 SWAP2 SWAP1 PUSH2 0x23D2 JUMP JUMPDEST PUSH2 0xB63 SWAP2 SWAP1 PUSH2 0x2440 JUMP JUMPDEST PUSH1 0x40 MLOAD DUP4 PUSH4 0xFFFFFFFF AND PUSH1 0xE0 SHL DUP2 MSTORE PUSH1 0x4 ADD PUSH2 0xB80 SWAP3 SWAP2 SWAP1 PUSH2 0x2490 JUMP JUMPDEST PUSH1 0x20 PUSH1 0x40 MLOAD DUP1 DUP4 SUB DUP2 PUSH0 DUP8 GAS CALL ISZERO DUP1 ISZERO PUSH2 0xB9C JUMPI RETURNDATASIZE PUSH0 DUP1 RETURNDATACOPY RETURNDATASIZE PUSH0 REVERT JUMPDEST POP POP POP POP PUSH1 0x40 MLOAD RETURNDATASIZE PUSH1 0x1F NOT PUSH1 0x1F DUP3 ADD AND DUP3 ADD DUP1 PUSH1 0x40 MSTORE POP DUP2 ADD SWAP1 PUSH2 0xBC0 SWAP2 SWAP1 PUSH2 0x2031 JUMP JUMPDEST POP PUSH1 0x1 PUSH0 SWAP1 SLOAD SWAP1 PUSH2 0x100 EXP SWAP1 DIV PUSH20 0xFFFFFFFFFFFFFFFFFFFFFFFFFFFFFFFFFFFFFFFF AND PUSH20 0xFFFFFFFFFFFFFFFFFFFFFFFFFFFFFFFFFFFFFFFF AND PUSH4 0x42842E0E ADDRESS CALLER DUP6 PUSH1 0x40 MLOAD DUP5 PUSH4 0xFFFFFFFF AND PUSH1 0xE0 SHL DUP2 MSTORE PUSH1 0x4 ADD PUSH2 0xC1F SWAP4 SWAP3 SWAP2 SWAP1 PUSH2 0x24B7 JUMP JUMPDEST PUSH0 PUSH1 0x40 MLOAD DUP1 DUP4 SUB DUP2 PUSH0 DUP8 DUP1 EXTCODESIZE ISZERO DUP1 ISZERO PUSH2 0xC36 JUMPI PUSH0 DUP1 REVERT JUMPDEST POP GAS CALL ISZERO DUP1 ISZERO PUSH2 0xC48 JUMPI RETURNDATASIZE PUSH0 DUP1 RETURNDATACOPY RETURNDATASIZE PUSH0 REVERT JUMPDEST POP POP POP POP CALLER PUSH20 0xFFFFFFFFFFFFFFFFFFFFFFFFFFFFFFFFFFFFFFFF AND PUSH32 0x5D963241241CFE9E161D13500D628058954B3FEBFDE03E4B1F4071370E72FE2B DUP4 DUP4 PUSH1 0x40 MLOAD PUSH2 0xC94 SWAP3 SWAP2 SWAP1 PUSH2 0x222F JUMP JUMPDEST PUSH1 0x40 MLOAD DUP1 SWAP2 SUB SWAP1 LOG2 POP POP JUMP JUMPDEST PUSH2 0xCA8 PUSH2 0x1625 JUMP JUMPDEST PUSH2 0xCB1 PUSH0 PUSH2 0x172E JUMP JUMPDEST JUMP JUMPDEST PUSH1 0x60 PUSH0 PUSH1 0x1 PUSH0 SWAP1 SLOAD SWAP1 PUSH2 0x100 EXP SWAP1 DIV PUSH20 0xFFFFFFFFFFFFFFFFFFFFFFFFFFFFFFFFFFFFFFFF AND PUSH20 0xFFFFFFFFFFFFFFFFFFFFFFFFFFFFFFFFFFFFFFFF AND PUSH4 0x70A08231 ADDRESS PUSH1 0x40 MLOAD DUP3 PUSH4 0xFFFFFFFF AND PUSH1 0xE0 SHL DUP2 MSTORE PUSH1 0x4 ADD PUSH2 0xD10 SWAP2 SWAP1 PUSH2 0x1E50 JUMP JUMPDEST PUSH1 0x20 PUSH1 0x40 MLOAD DUP1 DUP4 SUB DUP2 DUP7 GAS STATICCALL ISZERO DUP1 ISZERO PUSH2 0xD2B JUMPI RETURNDATASIZE PUSH0 DUP1 RETURNDATACOPY RETURNDATASIZE PUSH0 REVERT JUMPDEST POP POP POP POP PUSH1 0x40 MLOAD RETURNDATASIZE PUSH1 0x1F NOT PUSH1 0x1F DUP3 ADD AND DUP3 ADD DUP1 PUSH1 0x40 MSTORE POP DUP2 ADD SWAP1 PUSH2 0xD4F SWAP2 SWAP1 PUSH2 0x1FAA JUMP JUMPDEST SWAP1 POP PUSH0 DUP2 PUSH8 0xFFFFFFFFFFFFFFFF DUP2 GT ISZERO PUSH2 0xD6C JUMPI PUSH2 0xD6B PUSH2 0x24EC JUMP JUMPDEST JUMPDEST PUSH1 0x40 MLOAD SWAP1 DUP1 DUP3 MSTORE DUP1 PUSH1 0x20 MUL PUSH1 0x20 ADD DUP3 ADD PUSH1 0x40 MSTORE DUP1 ISZERO PUSH2 0xDA5 JUMPI DUP2 PUSH1 0x20 ADD JUMPDEST PUSH2 0xD92 PUSH2 0x1A3A JUMP JUMPDEST DUP2 MSTORE PUSH1 0x20 ADD SWAP1 PUSH1 0x1 SWAP1 SUB SWAP1 DUP2 PUSH2 0xD8A JUMPI SWAP1 POP JUMPDEST POP SWAP1 POP PUSH0 JUMPDEST DUP3 DUP2 LT ISZERO PUSH2 0xF01 JUMPI PUSH1 0x4 PUSH0 PUSH1 0x1 PUSH0 SWAP1 SLOAD SWAP1 PUSH2 0x100 EXP SWAP1 DIV PUSH20 0xFFFFFFFFFFFFFFFFFFFFFFFFFFFFFFFFFFFFFFFF AND PUSH20 0xFFFFFFFFFFFFFFFFFFFFFFFFFFFFFFFFFFFFFFFF AND PUSH4 0x2F745C59 ADDRESS DUP6 PUSH1 0x40 MLOAD DUP4 PUSH4 0xFFFFFFFF AND PUSH1 0xE0 SHL DUP2 MSTORE PUSH1 0x4 ADD PUSH2 0xE11 SWAP3 SWAP2 SWAP1 PUSH2 0x1FD5 JUMP JUMPDEST PUSH1 0x20 PUSH1 0x40 MLOAD DUP1 DUP4 SUB DUP2 DUP7 GAS STATICCALL ISZERO DUP1 ISZERO PUSH2 0xE2C JUMPI RETURNDATASIZE PUSH0 DUP1 RETURNDATACOPY RETURNDATASIZE PUSH0 REVERT JUMPDEST POP POP POP POP PUSH1 0x40 MLOAD RETURNDATASIZE PUSH1 0x1F NOT PUSH1 0x1F DUP3 ADD AND DUP3 ADD DUP1 PUSH1 0x40 MSTORE POP DUP2 ADD SWAP1 PUSH2 0xE50 SWAP2 SWAP1 PUSH2 0x1FAA JUMP JUMPDEST DUP2 MSTORE PUSH1 0x20 ADD SWAP1 DUP2 MSTORE PUSH1 0x20 ADD PUSH0 KECCAK256 PUSH1 0x40 MLOAD DUP1 PUSH1 0x60 ADD PUSH1 0x40 MSTORE SWAP1 DUP2 PUSH0 DUP3 ADD PUSH0 SWAP1 SLOAD SWAP1 PUSH2 0x100 EXP SWAP1 DIV PUSH20 0xFFFFFFFFFFFFFFFFFFFFFFFFFFFFFFFFFFFFFFFF AND PUSH20 0xFFFFFFFFFFFFFFFFFFFFFFFFFFFFFFFFFFFFFFFF AND PUSH20 0xFFFFFFFFFFFFFFFFFFFFFFFFFFFFFFFFFFFFFFFF AND DUP2 MSTORE PUSH1 0x20 ADD PUSH1 0x1 DUP3 ADD SLOAD DUP2 MSTORE PUSH1 0x20 ADD PUSH1 0x2 DUP3 ADD SLOAD DUP2 MSTORE POP POP DUP3 DUP3 DUP2 MLOAD DUP2 LT PUSH2 0xEE3 JUMPI PUSH2 0xEE2 PUSH2 0x2519 JUMP JUMPDEST JUMPDEST PUSH1 0x20 MUL PUSH1 0x20 ADD ADD DUP2 SWAP1 MSTORE POP DUP1 DUP1 PUSH2 0xEF9 SWAP1 PUSH2 0x2546 JUMP JUMPDEST SWAP2 POP POP PUSH2 0xDAA JUMP JUMPDEST POP DUP1 SWAP3 POP POP POP SWAP1 JUMP JUMPDEST PUSH0 DUP1 PUSH0 SWAP1 SLOAD SWAP1 PUSH2 0x100 EXP SWAP1 DIV PUSH20 0xFFFFFFFFFFFFFFFFFFFFFFFFFFFFFFFFFFFFFFFF AND SWAP1 POP SWAP1 JUMP JUMPDEST ADDRESS PUSH20 0xFFFFFFFFFFFFFFFFFFFFFFFFFFFFFFFFFFFFFFFF AND PUSH1 0x1 PUSH0 SWAP1 SLOAD SWAP1 PUSH2 0x100 EXP SWAP1 DIV PUSH20 0xFFFFFFFFFFFFFFFFFFFFFFFFFFFFFFFFFFFFFFFF AND PUSH20 0xFFFFFFFFFFFFFFFFFFFFFFFFFFFFFFFFFFFFFFFF AND PUSH4 0x6352211E DUP4 PUSH1 0x40 MLOAD DUP3 PUSH4 0xFFFFFFFF AND PUSH1 0xE0 SHL DUP2 MSTORE PUSH1 0x4 ADD PUSH2 0xFA2 SWAP2 SWAP1 PUSH2 0x1F7D JUMP JUMPDEST PUSH1 0x20 PUSH1 0x40 MLOAD DUP1 DUP4 SUB DUP2 DUP7 GAS STATICCALL ISZERO DUP1 ISZERO PUSH2 0xFBD JUMPI RETURNDATASIZE PUSH0 DUP1 RETURNDATACOPY RETURNDATASIZE PUSH0 REVERT JUMPDEST POP POP POP POP PUSH1 0x40 MLOAD RETURNDATASIZE PUSH1 0x1F NOT PUSH1 0x1F DUP3 ADD AND DUP3 ADD DUP1 PUSH1 0x40 MSTORE POP DUP2 ADD SWAP1 PUSH2 0xFE1 SWAP2 SWAP1 PUSH2 0x20E8 JUMP JUMPDEST PUSH20 0xFFFFFFFFFFFFFFFFFFFFFFFFFFFFFFFFFFFFFFFF AND EQ PUSH2 0x1037 JUMPI PUSH1 0x40 MLOAD PUSH32 0x8C379A000000000000000000000000000000000000000000000000000000000 DUP2 MSTORE PUSH1 0x4 ADD PUSH2 0x102E SWAP1 PUSH2 0x2183 JUMP JUMPDEST PUSH1 0x40 MLOAD DUP1 SWAP2 SUB SWAP1 REVERT JUMPDEST CALLER PUSH20 0xFFFFFFFFFFFFFFFFFFFFFFFFFFFFFFFFFFFFFFFF AND PUSH1 0x4 PUSH0 DUP4 DUP2 MSTORE PUSH1 0x20 ADD SWAP1 DUP2 MSTORE PUSH1 0x20 ADD PUSH0 KECCAK256 PUSH0 ADD PUSH0 SWAP1 SLOAD SWAP1 PUSH2 0x100 EXP SWAP1 DIV PUSH20 0xFFFFFFFFFFFFFFFFFFFFFFFFFFFFFFFFFFFFFFFF AND PUSH20 0xFFFFFFFFFFFFFFFFFFFFFFFFFFFFFFFFFFFFFFFF AND EQ PUSH2 0x10D7 JUMPI PUSH1 0x40 MLOAD PUSH32 0x8C379A000000000000000000000000000000000000000000000000000000000 DUP2 MSTORE PUSH1 0x4 ADD PUSH2 0x10CE SWAP1 PUSH2 0x25D7 JUMP JUMPDEST PUSH1 0x40 MLOAD DUP1 SWAP2 SUB SWAP1 REVERT JUMPDEST PUSH1 0x1 PUSH0 SWAP1 SLOAD SWAP1 PUSH2 0x100 EXP SWAP1 DIV PUSH20 0xFFFFFFFFFFFFFFFFFFFFFFFFFFFFFFFFFFFFFFFF AND PUSH20 0xFFFFFFFFFFFFFFFFFFFFFFFFFFFFFFFFFFFFFFFF AND PUSH4 0x42842E0E ADDRESS CALLER DUP5 PUSH1 0x40 MLOAD DUP5 PUSH4 0xFFFFFFFF AND PUSH1 0xE0 SHL DUP2 MSTORE PUSH1 0x4 ADD PUSH2 0x1135 SWAP4 SWAP3 SWAP2 SWAP1 PUSH2 0x24B7 JUMP JUMPDEST PUSH0 PUSH1 0x40 MLOAD DUP1 DUP4 SUB DUP2 PUSH0 DUP8 DUP1 EXTCODESIZE ISZERO DUP1 ISZERO PUSH2 0x114C JUMPI PUSH0 DUP1 REVERT JUMPDEST POP GAS CALL ISZERO DUP1 ISZERO PUSH2 0x115E JUMPI RETURNDATASIZE PUSH0 DUP1 RETURNDATACOPY RETURNDATASIZE PUSH0 REVERT JUMPDEST POP POP POP POP CALLER PUSH20 0xFFFFFFFFFFFFFFFFFFFFFFFFFFFFFFFFFFFFFFFF AND PUSH32 0x995270FD4F93CEA033CDF0DA430F296D82414EB9A7D99B6B391BB3E8A1EE9FC2 DUP3 PUSH1 0x40 MLOAD PUSH2 0x11A8 SWAP2 SWAP1 PUSH2 0x1F7D JUMP JUMPDEST PUSH1 0x40 MLOAD DUP1 SWAP2 SUB SWAP1 LOG2 POP JUMP JUMPDEST PUSH2 0x11BB PUSH2 0x1625 JUMP JUMPDEST PUSH0 PUSH20 0xFFFFFFFFFFFFFFFFFFFFFFFFFFFFFFFFFFFFFFFF AND DUP2 PUSH20 0xFFFFFFFFFFFFFFFFFFFFFFFFFFFFFFFFFFFFFFFF AND SUB PUSH2 0x122B JUMPI PUSH0 PUSH1 0x40 MLOAD PUSH32 0x1E4FBDF700000000000000000000000000000000000000000000000000000000 DUP2 MSTORE PUSH1 0x4 ADD PUSH2 0x1222 SWAP2 SWAP1 PUSH2 0x1E50 JUMP JUMPDEST PUSH1 0x40 MLOAD DUP1 SWAP2 SUB SWAP1 REVERT JUMPDEST PUSH2 0x1234 DUP2 PUSH2 0x172E JUMP JUMPDEST POP JUMP JUMPDEST PUSH2 0x123F PUSH2 0x1625 JUMP JUMPDEST PUSH1 0x1 PUSH0 SWAP1 SLOAD SWAP1 PUSH2 0x100 EXP SWAP1 DIV PUSH20 0xFFFFFFFFFFFFFFFFFFFFFFFFFFFFFFFFFFFFFFFF AND SWAP1 POP PUSH32 0xF8525B9383BA5CC1B196C9A879BCBE7911913876AAFF159EC424E1BB6136FFF2 DUP2 PUSH1 0x40 MLOAD PUSH2 0x1292 SWAP2 SWAP1 PUSH2 0x2615 JUMP JUMPDEST PUSH1 0x40 MLOAD DUP1 SWAP2 SUB SWAP1 LOG1 POP JUMP JUMPDEST CALLER PUSH20 0xFFFFFFFFFFFFFFFFFFFFFFFFFFFFFFFFFFFFFFFF AND PUSH1 0x1 PUSH0 SWAP1 SLOAD SWAP1 PUSH2 0x100 EXP SWAP1 DIV PUSH20 0xFFFFFFFFFFFFFFFFFFFFFFFFFFFFFFFFFFFFFFFF AND PUSH20 0xFFFFFFFFFFFFFFFFFFFFFFFFFFFFFFFFFFFFFFFF AND PUSH4 0x6352211E DUP5 PUSH1 0x40 MLOAD DUP3 PUSH4 0xFFFFFFFF AND PUSH1 0xE0 SHL DUP2 MSTORE PUSH1 0x4 ADD PUSH2 0x130E SWAP2 SWAP1 PUSH2 0x1F7D JUMP JUMPDEST PUSH1 0x20 PUSH1 0x40 MLOAD DUP1 DUP4 SUB DUP2 DUP7 GAS STATICCALL ISZERO DUP1 ISZERO PUSH2 0x1329 JUMPI RETURNDATASIZE PUSH0 DUP1 RETURNDATACOPY RETURNDATASIZE PUSH0 REVERT JUMPDEST POP POP POP POP PUSH1 0x40 MLOAD RETURNDATASIZE PUSH1 0x1F NOT PUSH1 0x1F DUP3 ADD AND DUP3 ADD DUP1 PUSH1 0x40 MSTORE POP DUP2 ADD SWAP1 PUSH2 0x134D SWAP2 SWAP1 PUSH2 0x20E8 JUMP JUMPDEST PUSH20 0xFFFFFFFFFFFFFFFFFFFFFFFFFFFFFFFFFFFFFFFF AND EQ PUSH2 0x13A3 JUMPI PUSH1 0x40 MLOAD PUSH32 0x8C379A000000000000000000000000000000000000000000000000000000000 DUP2 MSTORE PUSH1 0x4 ADD PUSH2 0x139A SWAP1 PUSH2 0x269E JUMP JUMPDEST PUSH1 0x40 MLOAD DUP1 SWAP2 SUB SWAP1 REVERT JUMPDEST ADDRESS PUSH20 0xFFFFFFFFFFFFFFFFFFFFFFFFFFFFFFFFFFFFFFFF AND PUSH1 0x1 PUSH0 SWAP1 SLOAD SWAP1 PUSH2 0x100 EXP SWAP1 DIV PUSH20 0xFFFFFFFFFFFFFFFFFFFFFFFFFFFFFFFFFFFFFFFF AND PUSH20 0xFFFFFFFFFFFFFFFFFFFFFFFFFFFFFFFFFFFFFFFF AND PUSH4 0x81812FC DUP5 PUSH1 0x40 MLOAD DUP3 PUSH4 0xFFFFFFFF AND PUSH1 0xE0 SHL DUP2 MSTORE PUSH1 0x4 ADD PUSH2 0x1414 SWAP2 SWAP1 PUSH2 0x1F7D JUMP JUMPDEST PUSH1 0x20 PUSH1 0x40 MLOAD DUP1 DUP4 SUB DUP2 DUP7 GAS STATICCALL ISZERO DUP1 ISZERO PUSH2 0x142F JUMPI RETURNDATASIZE PUSH0 DUP1 RETURNDATACOPY RETURNDATASIZE PUSH0 REVERT JUMPDEST POP POP POP POP PUSH1 0x40 MLOAD RETURNDATASIZE PUSH1 0x1F NOT PUSH1 0x1F DUP3 ADD AND DUP3 ADD DUP1 PUSH1 0x40 MSTORE POP DUP2 ADD SWAP1 PUSH2 0x1453 SWAP2 SWAP1 PUSH2 0x20E8 JUMP JUMPDEST PUSH20 0xFFFFFFFFFFFFFFFFFFFFFFFFFFFFFFFFFFFFFFFF AND EQ PUSH2 0x14A9 JUMPI PUSH1 0x40 MLOAD PUSH32 0x8C379A000000000000000000000000000000000000000000000000000000000 DUP2 MSTORE PUSH1 0x4 ADD PUSH2 0x14A0 SWAP1 PUSH2 0x272C JUMP JUMPDEST PUSH1 0x40 MLOAD DUP1 SWAP2 SUB SWAP1 REVERT JUMPDEST PUSH1 0x40 MLOAD DUP1 PUSH1 0x60 ADD PUSH1 0x40 MSTORE DUP1 CALLER PUSH20 0xFFFFFFFFFFFFFFFFFFFFFFFFFFFFFFFFFFFFFFFF AND DUP2 MSTORE PUSH1 0x20 ADD DUP3 DUP2 MSTORE PUSH1 0x20 ADD DUP4 DUP2 MSTORE POP PUSH1 0x4 PUSH0 DUP5 DUP2 MSTORE PUSH1 0x20 ADD SWAP1 DUP2 MSTORE PUSH1 0x20 ADD PUSH0 KECCAK256 PUSH0 DUP3 ADD MLOAD DUP2 PUSH0 ADD PUSH0 PUSH2 0x100 EXP DUP2 SLOAD DUP2 PUSH20 0xFFFFFFFFFFFFFFFFFFFFFFFFFFFFFFFFFFFFFFFF MUL NOT AND SWAP1 DUP4 PUSH20 0xFFFFFFFFFFFFFFFFFFFFFFFFFFFFFFFFFFFFFFFF AND MUL OR SWAP1 SSTORE POP PUSH1 0x20 DUP3 ADD MLOAD DUP2 PUSH1 0x1 ADD SSTORE PUSH1 0x40 DUP3 ADD MLOAD DUP2 PUSH1 0x2 ADD SSTORE SWAP1 POP POP PUSH1 0x1 PUSH0 SWAP1 SLOAD SWAP1 PUSH2 0x100 EXP SWAP1 DIV PUSH20 0xFFFFFFFFFFFFFFFFFFFFFFFFFFFFFFFFFFFFFFFF AND PUSH20 0xFFFFFFFFFFFFFFFFFFFFFFFFFFFFFFFFFFFFFFFF AND PUSH4 0x42842E0E CALLER ADDRESS DUP6 PUSH1 0x40 MLOAD DUP5 PUSH4 0xFFFFFFFF AND PUSH1 0xE0 SHL DUP2 MSTORE PUSH1 0x4 ADD PUSH2 0x15A4 SWAP4 SWAP3 SWAP2 SWAP1 PUSH2 0x24B7 JUMP JUMPDEST PUSH0 PUSH1 0x40 MLOAD DUP1 DUP4 SUB DUP2 PUSH0 DUP8 DUP1 EXTCODESIZE ISZERO DUP1 ISZERO PUSH2 0x15BB JUMPI PUSH0 DUP1 REVERT JUMPDEST POP GAS CALL ISZERO DUP1 ISZERO PUSH2 0x15CD JUMPI RETURNDATASIZE PUSH0 DUP1 RETURNDATACOPY RETURNDATASIZE PUSH0 REVERT JUMPDEST POP POP POP POP CALLER PUSH20 0xFFFFFFFFFFFFFFFFFFFFFFFFFFFFFFFFFFFFFFFF AND PUSH32 0x6CD52E2AFD4C9FDB90F6226975FB688C697F05F2C4306F5BFF7EA8CD941ED7CE DUP4 DUP4 PUSH1 0x40 MLOAD PUSH2 0x1619 SWAP3 SWAP2 SWAP1 PUSH2 0x222F JUMP JUMPDEST PUSH1 0x40 MLOAD DUP1 SWAP2 SUB SWAP1 LOG2 POP POP JUMP JUMPDEST PUSH2 0x162D PUSH2 0x17EF JUMP JUMPDEST PUSH20 0xFFFFFFFFFFFFFFFFFFFFFFFFFFFFFFFFFFFFFFFF AND PUSH2 0x164B PUSH2 0xF0A JUMP JUMPDEST PUSH20 0xFFFFFFFFFFFFFFFFFFFFFFFFFFFFFFFFFFFFFFFF AND EQ PUSH2 0x16AA JUMPI PUSH2 0x166E PUSH2 0x17EF JUMP JUMPDEST PUSH1 0x40 MLOAD PUSH32 0x118CDAA700000000000000000000000000000000000000000000000000000000 DUP2 MSTORE PUSH1 0x4 ADD PUSH2 0x16A1 SWAP2 SWAP1 PUSH2 0x1E50 JUMP JUMPDEST PUSH1 0x40 MLOAD DUP1 SWAP2 SUB SWAP1 REVERT JUMPDEST JUMP JUMPDEST PUSH2 0x1728 DUP5 DUP6 PUSH20 0xFFFFFFFFFFFFFFFFFFFFFFFFFFFFFFFFFFFFFFFF AND PUSH4 0x23B872DD DUP7 DUP7 DUP7 PUSH1 0x40 MLOAD PUSH1 0x24 ADD PUSH2 0x16E1 SWAP4 SWAP3 SWAP2 SWAP1 PUSH2 0x24B7 JUMP JUMPDEST PUSH1 0x40 MLOAD PUSH1 0x20 DUP2 DUP4 SUB SUB DUP2 MSTORE SWAP1 PUSH1 0x40 MSTORE SWAP2 POP PUSH1 0xE0 SHL PUSH1 0x20 DUP3 ADD DUP1 MLOAD PUSH28 0xFFFFFFFFFFFFFFFFFFFFFFFFFFFFFFFFFFFFFFFFFFFFFFFFFFFFFFFF DUP4 DUP2 DUP4 AND OR DUP4 MSTORE POP POP POP POP PUSH2 0x17F6 JUMP JUMPDEST POP POP POP POP JUMP JUMPDEST PUSH0 DUP1 PUSH0 SWAP1 SLOAD SWAP1 PUSH2 0x100 EXP SWAP1 DIV PUSH20 0xFFFFFFFFFFFFFFFFFFFFFFFFFFFFFFFFFFFFFFFF AND SWAP1 POP DUP2 PUSH0 DUP1 PUSH2 0x100 EXP DUP2 SLOAD DUP2 PUSH20 0xFFFFFFFFFFFFFFFFFFFFFFFFFFFFFFFFFFFFFFFF MUL NOT AND SWAP1 DUP4 PUSH20 0xFFFFFFFFFFFFFFFFFFFFFFFFFFFFFFFFFFFFFFFF AND MUL OR SWAP1 SSTORE POP DUP2 PUSH20 0xFFFFFFFFFFFFFFFFFFFFFFFFFFFFFFFFFFFFFFFF AND DUP2 PUSH20 0xFFFFFFFFFFFFFFFFFFFFFFFFFFFFFFFFFFFFFFFF AND PUSH32 0x8BE0079C531659141344CD1FD0A4F28419497F9722A3DAAFE3B4186F6B6457E0 PUSH1 0x40 MLOAD PUSH1 0x40 MLOAD DUP1 SWAP2 SUB SWAP1 LOG3 POP POP JUMP JUMPDEST PUSH0 CALLER SWAP1 POP SWAP1 JUMP JUMPDEST PUSH0 PUSH2 0x1820 DUP3 DUP5 PUSH20 0xFFFFFFFFFFFFFFFFFFFFFFFFFFFFFFFFFFFFFFFF AND PUSH2 0x188B SWAP1 SWAP2 SWAP1 PUSH4 0xFFFFFFFF AND JUMP JUMPDEST SWAP1 POP PUSH0 DUP2 MLOAD EQ ISZERO DUP1 ISZERO PUSH2 0x1844 JUMPI POP DUP1 DUP1 PUSH1 0x20 ADD SWAP1 MLOAD DUP2 ADD SWAP1 PUSH2 0x1842 SWAP2 SWAP1 PUSH2 0x2031 JUMP JUMPDEST ISZERO JUMPDEST ISZERO PUSH2 0x1886 JUMPI DUP3 PUSH1 0x40 MLOAD PUSH32 0x5274AFE700000000000000000000000000000000000000000000000000000000 DUP2 MSTORE PUSH1 0x4 ADD PUSH2 0x187D SWAP2 SWAP1 PUSH2 0x1E50 JUMP JUMPDEST PUSH1 0x40 MLOAD DUP1 SWAP2 SUB SWAP1 REVERT JUMPDEST POP POP POP JUMP JUMPDEST PUSH1 0x60 PUSH2 0x1898 DUP4 DUP4 PUSH0 PUSH2 0x18A0 JUMP JUMPDEST SWAP1 POP SWAP3 SWAP2 POP POP JUMP JUMPDEST PUSH1 0x60 DUP2 SELFBALANCE LT ISZERO PUSH2 0x18E7 JUMPI ADDRESS PUSH1 0x40 MLOAD PUSH32 0xCD78605900000000000000000000000000000000000000000000000000000000 DUP2 MSTORE PUSH1 0x4 ADD PUSH2 0x18DE SWAP2 SWAP1 PUSH2 0x1E50 JUMP JUMPDEST PUSH1 0x40 MLOAD DUP1 SWAP2 SUB SWAP1 REVERT JUMPDEST PUSH0 DUP1 DUP6 PUSH20 0xFFFFFFFFFFFFFFFFFFFFFFFFFFFFFFFFFFFFFFFF AND DUP5 DUP7 PUSH1 0x40 MLOAD PUSH2 0x190F SWAP2 SWAP1 PUSH2 0x27B6 JUMP JUMPDEST PUSH0 PUSH1 0x40 MLOAD DUP1 DUP4 SUB DUP2 DUP6 DUP8 GAS CALL SWAP3 POP POP POP RETURNDATASIZE DUP1 PUSH0 DUP2 EQ PUSH2 0x1949 JUMPI PUSH1 0x40 MLOAD SWAP2 POP PUSH1 0x1F NOT PUSH1 0x3F RETURNDATASIZE ADD AND DUP3 ADD PUSH1 0x40 MSTORE RETURNDATASIZE DUP3 MSTORE RETURNDATASIZE PUSH0 PUSH1 0x20 DUP5 ADD RETURNDATACOPY PUSH2 0x194E JUMP JUMPDEST PUSH1 0x60 SWAP2 POP JUMPDEST POP SWAP2 POP SWAP2 POP PUSH2 0x195E DUP7 DUP4 DUP4 PUSH2 0x1969 JUMP JUMPDEST SWAP3 POP POP POP SWAP4 SWAP3 POP POP POP JUMP JUMPDEST PUSH1 0x60 DUP3 PUSH2 0x197E JUMPI PUSH2 0x1979 DUP3 PUSH2 0x19F6 JUMP JUMPDEST PUSH2 0x19EE JUMP JUMPDEST PUSH0 DUP3 MLOAD EQ DUP1 ISZERO PUSH2 0x19A4 JUMPI POP PUSH0 DUP5 PUSH20 0xFFFFFFFFFFFFFFFFFFFFFFFFFFFFFFFFFFFFFFFF AND EXTCODESIZE EQ JUMPDEST ISZERO PUSH2 0x19E6 JUMPI DUP4 PUSH1 0x40 MLOAD PUSH32 0x9996B31500000000000000000000000000000000000000000000000000000000 DUP2 MSTORE PUSH1 0x4 ADD PUSH2 0x19DD SWAP2 SWAP1 PUSH2 0x1E50 JUMP JUMPDEST PUSH1 0x40 MLOAD DUP1 SWAP2 SUB SWAP1 REVERT JUMPDEST DUP2 SWAP1 POP PUSH2 0x19EF JUMP JUMPDEST JUMPDEST SWAP4 SWAP3 POP POP POP JUMP JUMPDEST PUSH0 DUP2 MLOAD GT ISZERO PUSH2 0x1A08 JUMPI DUP1 MLOAD DUP1 DUP3 PUSH1 0x20 ADD REVERT JUMPDEST PUSH1 0x40 MLOAD PUSH32 0x1425EA4200000000000000000000000000000000000000000000000000000000 DUP2 MSTORE PUSH1 0x4 ADD PUSH1 0x40 MLOAD DUP1 SWAP2 SUB SWAP1 REVERT JUMPDEST PUSH1 0x40 MLOAD DUP1 PUSH1 0x60 ADD PUSH1 0x40 MSTORE DUP1 PUSH0 PUSH20 0xFFFFFFFFFFFFFFFFFFFFFFFFFFFFFFFFFFFFFFFF AND DUP2 MSTORE PUSH1 0x20 ADD PUSH0 DUP2 MSTORE PUSH1 0x20 ADD PUSH0 DUP2 MSTORE POP SWAP1 JUMP JUMPDEST PUSH0 DUP1 REVERT JUMPDEST PUSH0 DUP1 REVERT JUMPDEST PUSH0 PUSH20 0xFFFFFFFFFFFFFFFFFFFFFFFFFFFFFFFFFFFFFFFF DUP3 AND SWAP1 POP SWAP2 SWAP1 POP JUMP JUMPDEST PUSH0 PUSH2 0x1A9F DUP3 PUSH2 0x1A76 JUMP JUMPDEST SWAP1 POP SWAP2 SWAP1 POP JUMP JUMPDEST PUSH0 PUSH2 0x1AB0 DUP3 PUSH2 0x1A95 JUMP JUMPDEST SWAP1 POP SWAP2 SWAP1 POP JUMP JUMPDEST PUSH2 0x1AC0 DUP2 PUSH2 0x1AA6 JUMP JUMPDEST DUP2 EQ PUSH2 0x1ACA JUMPI PUSH0 DUP1 REVERT JUMPDEST POP JUMP JUMPDEST PUSH0 DUP2 CALLDATALOAD SWAP1 POP PUSH2 0x1ADB DUP2 PUSH2 0x1AB7 JUMP JUMPDEST SWAP3 SWAP2 POP POP JUMP JUMPDEST PUSH0 PUSH1 0x20 DUP3 DUP5 SUB SLT ISZERO PUSH2 0x1AF6 JUMPI PUSH2 0x1AF5 PUSH2 0x1A6E JUMP JUMPDEST JUMPDEST PUSH0 PUSH2 0x1B03 DUP5 DUP3 DUP6 ADD PUSH2 0x1ACD JUMP JUMPDEST SWAP2 POP POP SWAP3 SWAP2 POP POP JUMP JUMPDEST PUSH2 0x1B15 DUP2 PUSH2 0x1A95 JUMP JUMPDEST DUP2 EQ PUSH2 0x1B1F JUMPI PUSH0 DUP1 REVERT JUMPDEST POP JUMP JUMPDEST PUSH0 DUP2 CALLDATALOAD SWAP1 POP PUSH2 0x1B30 DUP2 PUSH2 0x1B0C JUMP JUMPDEST SWAP3 SWAP2 POP POP JUMP JUMPDEST PUSH0 DUP2 SWAP1 POP SWAP2 SWAP1 POP JUMP JUMPDEST PUSH2 0x1B48 DUP2 PUSH2 0x1B36 JUMP JUMPDEST DUP2 EQ PUSH2 0x1B52 JUMPI PUSH0 DUP1 REVERT JUMPDEST POP JUMP JUMPDEST PUSH0 DUP2 CALLDATALOAD SWAP1 POP PUSH2 0x1B63 DUP2 PUSH2 0x1B3F JUMP JUMPDEST SWAP3 SWAP2 POP POP JUMP JUMPDEST PUSH0 DUP1 REVERT JUMPDEST PUSH0 DUP1 REVERT JUMPDEST PUSH0 DUP1 REVERT JUMPDEST PUSH0 DUP1 DUP4 PUSH1 0x1F DUP5 ADD SLT PUSH2 0x1B8A JUMPI PUSH2 0x1B89 PUSH2 0x1B69 JUMP JUMPDEST JUMPDEST DUP3 CALLDATALOAD SWAP1 POP PUSH8 0xFFFFFFFFFFFFFFFF DUP2 GT ISZERO PUSH2 0x1BA7 JUMPI PUSH2 0x1BA6 PUSH2 0x1B6D JUMP JUMPDEST JUMPDEST PUSH1 0x20 DUP4 ADD SWAP2 POP DUP4 PUSH1 0x1 DUP3 MUL DUP4 ADD GT ISZERO PUSH2 0x1BC3 JUMPI PUSH2 0x1BC2 PUSH2 0x1B71 JUMP JUMPDEST JUMPDEST SWAP3 POP SWAP3 SWAP1 POP JUMP JUMPDEST PUSH0 DUP1 PUSH0 DUP1 PUSH0 PUSH1 0x80 DUP7 DUP9 SUB SLT ISZERO PUSH2 0x1BE3 JUMPI PUSH2 0x1BE2 PUSH2 0x1A6E JUMP JUMPDEST JUMPDEST PUSH0 PUSH2 0x1BF0 DUP9 DUP3 DUP10 ADD PUSH2 0x1B22 JUMP JUMPDEST SWAP6 POP POP PUSH1 0x20 PUSH2 0x1C01 DUP9 DUP3 DUP10 ADD PUSH2 0x1B22 JUMP JUMPDEST SWAP5 POP POP PUSH1 0x40 PUSH2 0x1C12 DUP9 DUP3 DUP10 ADD PUSH2 0x1B55 JUMP JUMPDEST SWAP4 POP POP PUSH1 0x60 DUP7 ADD CALLDATALOAD PUSH8 0xFFFFFFFFFFFFFFFF DUP2 GT ISZERO PUSH2 0x1C33 JUMPI PUSH2 0x1C32 PUSH2 0x1A72 JUMP JUMPDEST JUMPDEST PUSH2 0x1C3F DUP9 DUP3 DUP10 ADD PUSH2 0x1B75 JUMP JUMPDEST SWAP3 POP SWAP3 POP POP SWAP3 SWAP6 POP SWAP3 SWAP6 SWAP1 SWAP4 POP JUMP JUMPDEST PUSH0 PUSH32 0xFFFFFFFF00000000000000000000000000000000000000000000000000000000 DUP3 AND SWAP1 POP SWAP2 SWAP1 POP JUMP JUMPDEST PUSH2 0x1C82 DUP2 PUSH2 0x1C4E JUMP JUMPDEST DUP3 MSTORE POP POP JUMP JUMPDEST PUSH0 PUSH1 0x20 DUP3 ADD SWAP1 POP PUSH2 0x1C9B PUSH0 DUP4 ADD DUP5 PUSH2 0x1C79 JUMP JUMPDEST SWAP3 SWAP2 POP POP JUMP JUMPDEST PUSH0 PUSH1 0x20 DUP3 DUP5 SUB SLT ISZERO PUSH2 0x1CB6 JUMPI PUSH2 0x1CB5 PUSH2 0x1A6E JUMP JUMPDEST JUMPDEST PUSH0 PUSH2 0x1CC3 DUP5 DUP3 DUP6 ADD PUSH2 0x1B55 JUMP JUMPDEST SWAP2 POP POP SWAP3 SWAP2 POP POP JUMP JUMPDEST PUSH0 DUP1 PUSH1 0x40 DUP4 DUP6 SUB SLT ISZERO PUSH2 0x1CE2 JUMPI PUSH2 0x1CE1 PUSH2 0x1A6E JUMP JUMPDEST JUMPDEST PUSH0 PUSH2 0x1CEF DUP6 DUP3 DUP7 ADD PUSH2 0x1B55 JUMP JUMPDEST SWAP3 POP POP PUSH1 0x20 PUSH2 0x1D00 DUP6 DUP3 DUP7 ADD PUSH2 0x1B55 JUMP JUMPDEST SWAP2 POP POP SWAP3 POP SWAP3 SWAP1 POP JUMP JUMPDEST PUSH0 DUP2 MLOAD SWAP1 POP SWAP2 SWAP1 POP JUMP JUMPDEST PUSH0 DUP3 DUP3 MSTORE PUSH1 0x20 DUP3 ADD SWAP1 POP SWAP3 SWAP2 POP POP JUMP JUMPDEST PUSH0 DUP2 SWAP1 POP PUSH1 0x20 DUP3 ADD SWAP1 POP SWAP2 SWAP1 POP JUMP JUMPDEST PUSH0 PUSH2 0x1D3D DUP3 PUSH2 0x1A76 JUMP JUMPDEST SWAP1 POP SWAP2 SWAP1 POP JUMP JUMPDEST PUSH2 0x1D4D DUP2 PUSH2 0x1D33 JUMP JUMPDEST DUP3 MSTORE POP POP JUMP JUMPDEST PUSH2 0x1D5C DUP2 PUSH2 0x1B36 JUMP JUMPDEST DUP3 MSTORE POP POP JUMP JUMPDEST PUSH1 0x60 DUP3 ADD PUSH0 DUP3 ADD MLOAD PUSH2 0x1D76 PUSH0 DUP6 ADD DUP3 PUSH2 0x1D44 JUMP JUMPDEST POP PUSH1 0x20 DUP3 ADD MLOAD PUSH2 0x1D89 PUSH1 0x20 DUP6 ADD DUP3 PUSH2 0x1D53 JUMP JUMPDEST POP PUSH1 0x40 DUP3 ADD MLOAD PUSH2 0x1D9C PUSH1 0x40 DUP6 ADD DUP3 PUSH2 0x1D53 JUMP JUMPDEST POP POP POP POP JUMP JUMPDEST PUSH0 PUSH2 0x1DAD DUP4 DUP4 PUSH2 0x1D62 JUMP JUMPDEST PUSH1 0x60 DUP4 ADD SWAP1 POP SWAP3 SWAP2 POP POP JUMP JUMPDEST PUSH0 PUSH1 0x20 DUP3 ADD SWAP1 POP SWAP2 SWAP1 POP JUMP JUMPDEST PUSH0 PUSH2 0x1DCF DUP3 PUSH2 0x1D0A JUMP JUMPDEST PUSH2 0x1DD9 DUP2 DUP6 PUSH2 0x1D14 JUMP JUMPDEST SWAP4 POP PUSH2 0x1DE4 DUP4 PUSH2 0x1D24 JUMP JUMPDEST DUP1 PUSH0 JUMPDEST DUP4 DUP2 LT ISZERO PUSH2 0x1E14 JUMPI DUP2 MLOAD PUSH2 0x1DFB DUP9 DUP3 PUSH2 0x1DA2 JUMP JUMPDEST SWAP8 POP PUSH2 0x1E06 DUP4 PUSH2 0x1DB9 JUMP JUMPDEST SWAP3 POP POP PUSH1 0x1 DUP2 ADD SWAP1 POP PUSH2 0x1DE7 JUMP JUMPDEST POP DUP6 SWAP4 POP POP POP POP SWAP3 SWAP2 POP POP JUMP JUMPDEST PUSH0 PUSH1 0x20 DUP3 ADD SWAP1 POP DUP2 DUP2 SUB PUSH0 DUP4 ADD MSTORE PUSH2 0x1E39 DUP2 DUP5 PUSH2 0x1DC5 JUMP JUMPDEST SWAP1 POP SWAP3 SWAP2 POP POP JUMP JUMPDEST PUSH2 0x1E4A DUP2 PUSH2 0x1A95 JUMP JUMPDEST DUP3 MSTORE POP POP JUMP JUMPDEST PUSH0 PUSH1 0x20 DUP3 ADD SWAP1 POP PUSH2 0x1E63 PUSH0 DUP4 ADD DUP5 PUSH2 0x1E41 JUMP JUMPDEST SWAP3 SWAP2 POP POP JUMP JUMPDEST PUSH0 PUSH1 0x20 DUP3 DUP5 SUB SLT ISZERO PUSH2 0x1E7E JUMPI PUSH2 0x1E7D PUSH2 0x1A6E JUMP JUMPDEST JUMPDEST PUSH0 PUSH2 0x1E8B DUP5 DUP3 DUP6 ADD PUSH2 0x1B22 JUMP JUMPDEST SWAP2 POP POP SWAP3 SWAP2 POP POP JUMP JUMPDEST PUSH0 PUSH2 0x1E9E DUP3 PUSH2 0x1A95 JUMP JUMPDEST SWAP1 POP SWAP2 SWAP1 POP JUMP JUMPDEST PUSH2 0x1EAE DUP2 PUSH2 0x1E94 JUMP JUMPDEST DUP2 EQ PUSH2 0x1EB8 JUMPI PUSH0 DUP1 REVERT JUMPDEST POP JUMP JUMPDEST PUSH0 DUP2 CALLDATALOAD SWAP1 POP PUSH2 0x1EC9 DUP2 PUSH2 0x1EA5 JUMP JUMPDEST SWAP3 SWAP2 POP POP JUMP JUMPDEST PUSH0 PUSH1 0x20 DUP3 DUP5 SUB SLT ISZERO PUSH2 0x1EE4 JUMPI PUSH2 0x1EE3 PUSH2 0x1A6E JUMP JUMPDEST JUMPDEST PUSH0 PUSH2 0x1EF1 DUP5 DUP3 DUP6 ADD PUSH2 0x1EBB JUMP JUMPDEST SWAP2 POP POP SWAP3 SWAP2 POP POP JUMP JUMPDEST PUSH0 DUP2 SWAP1 POP SWAP2 SWAP1 POP JUMP JUMPDEST PUSH0 PUSH2 0x1F1D PUSH2 0x1F18 PUSH2 0x1F13 DUP5 PUSH2 0x1A76 JUMP JUMPDEST PUSH2 0x1EFA JUMP JUMPDEST PUSH2 0x1A76 JUMP JUMPDEST SWAP1 POP SWAP2 SWAP1 POP JUMP JUMPDEST PUSH0 PUSH2 0x1F2E DUP3 PUSH2 0x1F03 JUMP JUMPDEST SWAP1 POP SWAP2 SWAP1 POP JUMP JUMPDEST PUSH0 PUSH2 0x1F3F DUP3 PUSH2 0x1F24 JUMP JUMPDEST SWAP1 POP SWAP2 SWAP1 POP JUMP JUMPDEST PUSH2 0x1F4F DUP2 PUSH2 0x1F35 JUMP JUMPDEST DUP3 MSTORE POP POP JUMP JUMPDEST PUSH0 PUSH1 0x20 DUP3 ADD SWAP1 POP PUSH2 0x1F68 PUSH0 DUP4 ADD DUP5 PUSH2 0x1F46 JUMP JUMPDEST SWAP3 SWAP2 POP POP JUMP JUMPDEST PUSH2 0x1F77 DUP2 PUSH2 0x1B36 JUMP JUMPDEST DUP3 MSTORE POP POP JUMP JUMPDEST PUSH0 PUSH1 0x20 DUP3 ADD SWAP1 POP PUSH2 0x1F90 PUSH0 DUP4 ADD DUP5 PUSH2 0x1F6E JUMP JUMPDEST SWAP3 SWAP2 POP POP JUMP JUMPDEST PUSH0 DUP2 MLOAD SWAP1 POP PUSH2 0x1FA4 DUP2 PUSH2 0x1B3F JUMP JUMPDEST SWAP3 SWAP2 POP POP JUMP JUMPDEST PUSH0 PUSH1 0x20 DUP3 DUP5 SUB SLT ISZERO PUSH2 0x1FBF JUMPI PUSH2 0x1FBE PUSH2 0x1A6E JUMP JUMPDEST JUMPDEST PUSH0 PUSH2 0x1FCC DUP5 DUP3 DUP6 ADD PUSH2 0x1F96 JUMP JUMPDEST SWAP2 POP POP SWAP3 SWAP2 POP POP JUMP JUMPDEST PUSH0 PUSH1 0x40 DUP3 ADD SWAP1 POP PUSH2 0x1FE8 PUSH0 DUP4 ADD DUP6 PUSH2 0x1E41 JUMP JUMPDEST PUSH2 0x1FF5 PUSH1 0x20 DUP4 ADD DUP5 PUSH2 0x1F6E JUMP JUMPDEST SWAP4 SWAP3 POP POP POP JUMP JUMPDEST PUSH0 DUP2 ISZERO ISZERO SWAP1 POP SWAP2 SWAP1 POP JUMP JUMPDEST PUSH2 0x2010 DUP2 PUSH2 0x1FFC JUMP JUMPDEST DUP2 EQ PUSH2 0x201A JUMPI PUSH0 DUP1 REVERT JUMPDEST POP JUMP JUMPDEST PUSH0 DUP2 MLOAD SWAP1 POP PUSH2 0x202B DUP2 PUSH2 0x2007 JUMP JUMPDEST SWAP3 SWAP2 POP POP JUMP JUMPDEST PUSH0 PUSH1 0x20 DUP3 DUP5 SUB SLT ISZERO PUSH2 0x2046 JUMPI PUSH2 0x2045 PUSH2 0x1A6E JUMP JUMPDEST JUMPDEST PUSH0 PUSH2 0x2053 DUP5 DUP3 DUP6 ADD PUSH2 0x201D JUMP JUMPDEST SWAP2 POP POP SWAP3 SWAP2 POP POP JUMP JUMPDEST PUSH0 DUP3 DUP3 MSTORE PUSH1 0x20 DUP3 ADD SWAP1 POP SWAP3 SWAP2 POP POP JUMP JUMPDEST PUSH32 0x496E73756666696369656E74206163636F756E742062616C616E636500000000 PUSH0 DUP3 ADD MSTORE POP JUMP JUMPDEST PUSH0 PUSH2 0x20A0 PUSH1 0x1C DUP4 PUSH2 0x205C JUMP JUMPDEST SWAP2 POP PUSH2 0x20AB DUP3 PUSH2 0x206C JUMP JUMPDEST PUSH1 0x20 DUP3 ADD SWAP1 POP SWAP2 SWAP1 POP JUMP JUMPDEST PUSH0 PUSH1 0x20 DUP3 ADD SWAP1 POP DUP2 DUP2 SUB PUSH0 DUP4 ADD MSTORE PUSH2 0x20CD DUP2 PUSH2 0x2094 JUMP JUMPDEST SWAP1 POP SWAP2 SWAP1 POP JUMP JUMPDEST PUSH0 DUP2 MLOAD SWAP1 POP PUSH2 0x20E2 DUP2 PUSH2 0x1B0C JUMP JUMPDEST SWAP3 SWAP2 POP POP JUMP JUMPDEST PUSH0 PUSH1 0x20 DUP3 DUP5 SUB SLT ISZERO PUSH2 0x20FD JUMPI PUSH2 0x20FC PUSH2 0x1A6E JUMP JUMPDEST JUMPDEST PUSH0 PUSH2 0x210A DUP5 DUP3 DUP6 ADD PUSH2 0x20D4 JUMP JUMPDEST SWAP2 POP POP SWAP3 SWAP2 POP POP JUMP JUMPDEST PUSH32 0x54686973204E465420646F6573206E6F74206578697374206F6E206D61726B65 PUSH0 DUP3 ADD MSTORE PUSH32 0x7420706C61636500000000000000000000000000000000000000000000000000 PUSH1 0x20 DUP3 ADD MSTORE POP JUMP JUMPDEST PUSH0 PUSH2 0x216D PUSH1 0x27 DUP4 PUSH2 0x205C JUMP JUMPDEST SWAP2 POP PUSH2 0x2178 DUP3 PUSH2 0x2113 JUMP JUMPDEST PUSH1 0x40 DUP3 ADD SWAP1 POP SWAP2 SWAP1 POP JUMP JUMPDEST PUSH0 PUSH1 0x20 DUP3 ADD SWAP1 POP DUP2 DUP2 SUB PUSH0 DUP4 ADD MSTORE PUSH2 0x219A DUP2 PUSH2 0x2161 JUMP JUMPDEST SWAP1 POP SWAP2 SWAP1 POP JUMP JUMPDEST PUSH32 0x4F6E6C79206F776E65722063616E207570646174652074686520707269636520 PUSH0 DUP3 ADD MSTORE PUSH32 0x6F662074686973204E4654000000000000000000000000000000000000000000 PUSH1 0x20 DUP3 ADD MSTORE POP JUMP JUMPDEST PUSH0 PUSH2 0x21FB PUSH1 0x2B DUP4 PUSH2 0x205C JUMP JUMPDEST SWAP2 POP PUSH2 0x2206 DUP3 PUSH2 0x21A1 JUMP JUMPDEST PUSH1 0x40 DUP3 ADD SWAP1 POP SWAP2 SWAP1 POP JUMP JUMPDEST PUSH0 PUSH1 0x20 DUP3 ADD SWAP1 POP DUP2 DUP2 SUB PUSH0 DUP4 ADD MSTORE PUSH2 0x2228 DUP2 PUSH2 0x21EF JUMP JUMPDEST SWAP1 POP SWAP2 SWAP1 POP JUMP JUMPDEST PUSH0 PUSH1 0x40 DUP3 ADD SWAP1 POP PUSH2 0x2242 PUSH0 DUP4 ADD DUP6 PUSH2 0x1F6E JUMP JUMPDEST PUSH2 0x224F PUSH1 0x20 DUP4 ADD DUP5 PUSH2 0x1F6E JUMP JUMPDEST SWAP4 SWAP3 POP POP POP JUMP JUMPDEST PUSH32 0x54686973204E465420646F65736E2774206578697374206F6E206D61726B6574 PUSH0 DUP3 ADD MSTORE PUSH32 0x706C616365000000000000000000000000000000000000000000000000000000 PUSH1 0x20 DUP3 ADD MSTORE POP JUMP JUMPDEST PUSH0 PUSH2 0x22B0 PUSH1 0x25 DUP4 PUSH2 0x205C JUMP JUMPDEST SWAP2 POP PUSH2 0x22BB DUP3 PUSH2 0x2256 JUMP JUMPDEST PUSH1 0x40 DUP3 ADD SWAP1 POP SWAP2 SWAP1 POP JUMP JUMPDEST PUSH0 PUSH1 0x20 DUP3 ADD SWAP1 POP DUP2 DUP2 SUB PUSH0 DUP4 ADD MSTORE PUSH2 0x22DD DUP2 PUSH2 0x22A4 JUMP JUMPDEST SWAP1 POP SWAP2 SWAP1 POP JUMP JUMPDEST PUSH32 0x4D696E696D756D20707269636520686173206E6F74206265656E207265616368 PUSH0 DUP3 ADD MSTORE PUSH32 0x6564000000000000000000000000000000000000000000000000000000000000 PUSH1 0x20 DUP3 ADD MSTORE POP JUMP JUMPDEST PUSH0 PUSH2 0x233E PUSH1 0x22 DUP4 PUSH2 0x205C JUMP JUMPDEST SWAP2 POP PUSH2 0x2349 DUP3 PUSH2 0x22E4 JUMP JUMPDEST PUSH1 0x40 DUP3 ADD SWAP1 POP SWAP2 SWAP1 POP JUMP JUMPDEST PUSH0 PUSH1 0x20 DUP3 ADD SWAP1 POP DUP2 DUP2 SUB PUSH0 DUP4 ADD MSTORE PUSH2 0x236B DUP2 PUSH2 0x2332 JUMP JUMPDEST SWAP1 POP SWAP2 SWAP1 POP JUMP JUMPDEST PUSH32 0x4E487B7100000000000000000000000000000000000000000000000000000000 PUSH0 MSTORE PUSH1 0x11 PUSH1 0x4 MSTORE PUSH1 0x24 PUSH0 REVERT JUMPDEST PUSH0 PUSH2 0x23A9 DUP3 PUSH2 0x1B36 JUMP JUMPDEST SWAP2 POP PUSH2 0x23B4 DUP4 PUSH2 0x1B36 JUMP JUMPDEST SWAP3 POP DUP3 DUP3 SUB SWAP1 POP DUP2 DUP2 GT ISZERO PUSH2 0x23CC JUMPI PUSH2 0x23CB PUSH2 0x2372 JUMP JUMPDEST JUMPDEST SWAP3 SWAP2 POP POP JUMP JUMPDEST PUSH0 PUSH2 0x23DC DUP3 PUSH2 0x1B36 JUMP JUMPDEST SWAP2 POP PUSH2 0x23E7 DUP4 PUSH2 0x1B36 JUMP JUMPDEST SWAP3 POP DUP3 DUP3 MUL PUSH2 0x23F5 DUP2 PUSH2 0x1B36 JUMP JUMPDEST SWAP2 POP DUP3 DUP3 DIV DUP5 EQ DUP4 ISZERO OR PUSH2 0x240C JUMPI PUSH2 0x240B PUSH2 0x2372 JUMP JUMPDEST JUMPDEST POP SWAP3 SWAP2 POP POP JUMP JUMPDEST PUSH32 0x4E487B7100000000000000000000000000000000000000000000000000000000 PUSH0 MSTORE PUSH1 0x12 PUSH1 0x4 MSTORE PUSH1 0x24 PUSH0 REVERT JUMPDEST PUSH0 PUSH2 0x244A DUP3 PUSH2 0x1B36 JUMP JUMPDEST SWAP2 POP PUSH2 0x2455 DUP4 PUSH2 0x1B36 JUMP JUMPDEST SWAP3 POP DUP3 PUSH2 0x2465 JUMPI PUSH2 0x2464 PUSH2 0x2413 JUMP JUMPDEST JUMPDEST DUP3 DUP3 DIV SWAP1 POP SWAP3 SWAP2 POP POP JUMP JUMPDEST PUSH0 PUSH2 0x247A DUP3 PUSH2 0x1F24 JUMP JUMPDEST SWAP1 POP SWAP2 SWAP1 POP JUMP JUMPDEST PUSH2 0x248A DUP2 PUSH2 0x2470 JUMP JUMPDEST DUP3 MSTORE POP POP JUMP JUMPDEST PUSH0 PUSH1 0x40 DUP3 ADD SWAP1 POP PUSH2 0x24A3 PUSH0 DUP4 ADD DUP6 PUSH2 0x2481 JUMP JUMPDEST PUSH2 0x24B0 PUSH1 0x20 DUP4 ADD DUP5 PUSH2 0x1F6E JUMP JUMPDEST SWAP4 SWAP3 POP POP POP JUMP JUMPDEST PUSH0 PUSH1 0x60 DUP3 ADD SWAP1 POP PUSH2 0x24CA PUSH0 DUP4 ADD DUP7 PUSH2 0x1E41 JUMP JUMPDEST PUSH2 0x24D7 PUSH1 0x20 DUP4 ADD DUP6 PUSH2 0x1E41 JUMP JUMPDEST PUSH2 0x24E4 PUSH1 0x40 DUP4 ADD DUP5 PUSH2 0x1F6E JUMP JUMPDEST SWAP5 SWAP4 POP POP POP POP JUMP JUMPDEST PUSH32 0x4E487B7100000000000000000000000000000000000000000000000000000000 PUSH0 MSTORE PUSH1 0x41 PUSH1 0x4 MSTORE PUSH1 0x24 PUSH0 REVERT JUMPDEST PUSH32 0x4E487B7100000000000000000000000000000000000000000000000000000000 PUSH0 MSTORE PUSH1 0x32 PUSH1 0x4 MSTORE PUSH1 0x24 PUSH0 REVERT JUMPDEST PUSH0 PUSH2 0x2550 DUP3 PUSH2 0x1B36 JUMP JUMPDEST SWAP2 POP PUSH32 0xFFFFFFFFFFFFFFFFFFFFFFFFFFFFFFFFFFFFFFFFFFFFFFFFFFFFFFFFFFFFFFFF DUP3 SUB PUSH2 0x2582 JUMPI PUSH2 0x2581 PUSH2 0x2372 JUMP JUMPDEST JUMPDEST PUSH1 0x1 DUP3 ADD SWAP1 POP SWAP2 SWAP1 POP JUMP JUMPDEST PUSH32 0x4F6E6C79206F776E65722063616E20756E6C6973742074686973204E46540000 PUSH0 DUP3 ADD MSTORE POP JUMP JUMPDEST PUSH0 PUSH2 0x25C1 PUSH1 0x1E DUP4 PUSH2 0x205C JUMP JUMPDEST SWAP2 POP PUSH2 0x25CC DUP3 PUSH2 0x258D JUMP JUMPDEST PUSH1 0x20 DUP3 ADD SWAP1 POP SWAP2 SWAP1 POP JUMP JUMPDEST PUSH0 PUSH1 0x20 DUP3 ADD SWAP1 POP DUP2 DUP2 SUB PUSH0 DUP4 ADD MSTORE PUSH2 0x25EE DUP2 PUSH2 0x25B5 JUMP JUMPDEST SWAP1 POP SWAP2 SWAP1 POP JUMP JUMPDEST PUSH0 PUSH2 0x25FF DUP3 PUSH2 0x1F24 JUMP JUMPDEST SWAP1 POP SWAP2 SWAP1 POP JUMP JUMPDEST PUSH2 0x260F DUP2 PUSH2 0x25F5 JUMP JUMPDEST DUP3 MSTORE POP POP JUMP JUMPDEST PUSH0 PUSH1 0x20 DUP3 ADD SWAP1 POP PUSH2 0x2628 PUSH0 DUP4 ADD DUP5 PUSH2 0x2606 JUMP JUMPDEST SWAP3 SWAP2 POP POP JUMP JUMPDEST PUSH32 0x596F7520617265206E6F7420746865206F776E6572206F662074686973204E46 PUSH0 DUP3 ADD MSTORE PUSH32 0x5400000000000000000000000000000000000000000000000000000000000000 PUSH1 0x20 DUP3 ADD MSTORE POP JUMP JUMPDEST PUSH0 PUSH2 0x2688 PUSH1 0x21 DUP4 PUSH2 0x205C JUMP JUMPDEST SWAP2 POP PUSH2 0x2693 DUP3 PUSH2 0x262E JUMP JUMPDEST PUSH1 0x40 DUP3 ADD SWAP1 POP SWAP2 SWAP1 POP JUMP JUMPDEST PUSH0 PUSH1 0x20 DUP3 ADD SWAP1 POP DUP2 DUP2 SUB PUSH0 DUP4 ADD MSTORE PUSH2 0x26B5 DUP2 PUSH2 0x267C JUMP JUMPDEST SWAP1 POP SWAP2 SWAP1 POP JUMP JUMPDEST PUSH32 0x4D61726B657420646F6573206E6F7420617070726F76656420746F207472616E PUSH0 DUP3 ADD MSTORE PUSH32 0x736665722074686973204E465400000000000000000000000000000000000000 PUSH1 0x20 DUP3 ADD MSTORE POP JUMP JUMPDEST PUSH0 PUSH2 0x2716 PUSH1 0x2D DUP4 PUSH2 0x205C JUMP JUMPDEST SWAP2 POP PUSH2 0x2721 DUP3 PUSH2 0x26BC JUMP JUMPDEST PUSH1 0x40 DUP3 ADD SWAP1 POP SWAP2 SWAP1 POP JUMP JUMPDEST PUSH0 PUSH1 0x20 DUP3 ADD SWAP1 POP DUP2 DUP2 SUB PUSH0 DUP4 ADD MSTORE PUSH2 0x2743 DUP2 PUSH2 0x270A JUMP JUMPDEST SWAP1 POP SWAP2 SWAP1 POP JUMP JUMPDEST PUSH0 DUP2 MLOAD SWAP1 POP SWAP2 SWAP1 POP JUMP JUMPDEST PUSH0 DUP2 SWAP1 POP SWAP3 SWAP2 POP POP JUMP JUMPDEST PUSH0 JUMPDEST DUP4 DUP2 LT ISZERO PUSH2 0x277B JUMPI DUP1 DUP3 ADD MLOAD DUP2 DUP5 ADD MSTORE PUSH1 0x20 DUP2 ADD SWAP1 POP PUSH2 0x2760 JUMP JUMPDEST PUSH0 DUP5 DUP5 ADD MSTORE POP POP POP POP JUMP JUMPDEST PUSH0 PUSH2 0x2790 DUP3 PUSH2 0x274A JUMP JUMPDEST PUSH2 0x279A DUP2 DUP6 PUSH2 0x2754 JUMP JUMPDEST SWAP4 POP PUSH2 0x27AA DUP2 DUP6 PUSH1 0x20 DUP7 ADD PUSH2 0x275E JUMP JUMPDEST DUP1 DUP5 ADD SWAP2 POP POP SWAP3 SWAP2 POP POP JUMP JUMPDEST PUSH0 PUSH2 0x27C1 DUP3 DUP5 PUSH2 0x2786 JUMP JUMPDEST SWAP2 POP DUP2 SWAP1 POP SWAP3 SWAP2 POP POP JUMP INVALID LOG2 PUSH5 0x6970667358 0x22 SLT KECCAK256 DUP8 GAS LOG0 0xD6 0x4A DELEGATECALL CHAINID 0xBA 0x24 0xD3 GT KECCAK256 0x5E 0x4F SWAP15 0x2B 0xDB DUP12 BASEFEE 0x5E PUSH7 0xFAD5E0211B1DDA 0xD9 ADDRESS 0xE3 SHL PUSH5 0x736F6C6343 STOP ADDMOD EQ STOP CALLER "
				},
				"gasEstimates": {
					"creation": {
						"codeDepositCost": "2048400",
						"executionCost": "infinite",
						"totalCost": "infinite"
					},
					"external": {
						"buyNft(uint256,uint256)": "infinite",
						"getListedNft()": "infinite",
						"listNft(uint256,uint256)": "infinite",
						"onERC721Received(address,address,uint256,bytes)": "infinite",
						"owner()": "2604",
						"renounceOwnership()": "infinite",
						"setNft(address)": "infinite",
						"setTax(uint256)": "infinite",
						"setToken(address)": "infinite",
						"transferOwnership(address)": "infinite",
						"unlistNft(uint256)": "infinite",
						"updateListingNftPrice(uint256,uint256)": "infinite",
						"withdraw()": "infinite",
						"withdrawErc20()": "infinite",
						"withdrawToken(uint256)": "infinite"
					}
				},
				"methodIdentifiers": {
					"buyNft(uint256,uint256)": "556f8084",
					"getListedNft()": "7a53fde6",
					"listNft(uint256,uint256)": "fe8723e1",
					"onERC721Received(address,address,uint256,bytes)": "150b7a02",
					"owner()": "8da5cb5b",
					"renounceOwnership()": "715018a6",
					"setNft(address)": "f3c13387",
					"setTax(uint256)": "2e5bb6ff",
					"setToken(address)": "144fa6d7",
					"transferOwnership(address)": "f2fde38b",
					"unlistNft(uint256)": "9e75689c",
					"updateListingNftPrice(uint256,uint256)": "51646869",
					"withdraw()": "3ccfd60b",
					"withdrawErc20()": "3e3f2359",
					"withdrawToken(uint256)": "50baa622"
				}
			},
			"storageLayout": {
				"storage": [
					{
						"astId": 8,
						"contract": "BirdMarketPlace.sol:BirdMarketPlace",
						"label": "_owner",
						"offset": 0,
						"slot": "0",
						"type": "t_address"
					},
					{
						"astId": 1031,
						"contract": "BirdMarketPlace.sol:BirdMarketPlace",
						"label": "_nft",
						"offset": 0,
						"slot": "1",
						"type": "t_contract(IERC721Enumerable)718"
					},
					{
						"astId": 1034,
						"contract": "BirdMarketPlace.sol:BirdMarketPlace",
						"label": "_token",
						"offset": 0,
						"slot": "2",
						"type": "t_contract(IERC20)225"
					},
					{
						"astId": 1037,
						"contract": "BirdMarketPlace.sol:BirdMarketPlace",
						"label": "_tax",
						"offset": 0,
						"slot": "3",
						"type": "t_uint256"
					},
					{
						"astId": 1091,
						"contract": "BirdMarketPlace.sol:BirdMarketPlace",
						"label": "listDetail",
						"offset": 0,
						"slot": "4",
						"type": "t_mapping(t_uint256,t_struct(ListDetail)1044_storage)"
					}
				],
				"types": {
					"t_address": {
						"encoding": "inplace",
						"label": "address",
						"numberOfBytes": "20"
					},
					"t_address_payable": {
						"encoding": "inplace",
						"label": "address payable",
						"numberOfBytes": "20"
					},
					"t_contract(IERC20)225": {
						"encoding": "inplace",
						"label": "contract IERC20",
						"numberOfBytes": "20"
					},
					"t_contract(IERC721Enumerable)718": {
						"encoding": "inplace",
						"label": "contract IERC721Enumerable",
						"numberOfBytes": "20"
					},
					"t_mapping(t_uint256,t_struct(ListDetail)1044_storage)": {
						"encoding": "mapping",
						"key": "t_uint256",
						"label": "mapping(uint256 => struct BirdMarketPlace.ListDetail)",
						"numberOfBytes": "32",
						"value": "t_struct(ListDetail)1044_storage"
					},
					"t_struct(ListDetail)1044_storage": {
						"encoding": "inplace",
						"label": "struct BirdMarketPlace.ListDetail",
						"members": [
							{
								"astId": 1039,
								"contract": "BirdMarketPlace.sol:BirdMarketPlace",
								"label": "author",
								"offset": 0,
								"slot": "0",
								"type": "t_address_payable"
							},
							{
								"astId": 1041,
								"contract": "BirdMarketPlace.sol:BirdMarketPlace",
								"label": "price",
								"offset": 0,
								"slot": "1",
								"type": "t_uint256"
							},
							{
								"astId": 1043,
								"contract": "BirdMarketPlace.sol:BirdMarketPlace",
								"label": "tokenId",
								"offset": 0,
								"slot": "2",
								"type": "t_uint256"
							}
						],
						"numberOfBytes": "96"
					},
					"t_uint256": {
						"encoding": "inplace",
						"label": "uint256",
						"numberOfBytes": "32"
					}
				}
			},
			"userdoc": {
				"kind": "user",
				"methods": {},
				"version": 1
			}
		}
	}
}