{
	"D0n4t3.sol": {
		"D0n4t3": {
			"abi": [
				{
					"constant": false,
					"inputs": [],
					"name": "gift",
					"outputs": [],
					"payable": true,
					"stateMutability": "payable",
					"type": "function"
				},
				{
					"constant": true,
					"inputs": [
						{
							"name": "",
							"type": "address"
						}
					],
					"name": "contributions",
					"outputs": [
						{
							"name": "",
							"type": "int256"
						}
					],
					"payable": false,
					"stateMutability": "view",
					"type": "function"
				},
				{
					"constant": true,
					"inputs": [],
					"name": "money",
					"outputs": [
						{
							"name": "",
							"type": "uint256"
						}
					],
					"payable": false,
					"stateMutability": "view",
					"type": "function"
				},
				{
					"constant": false,
					"inputs": [],
					"name": "claimContract",
					"outputs": [],
					"payable": false,
					"stateMutability": "nonpayable",
					"type": "function"
				},
				{
					"constant": false,
					"inputs": [
						{
							"name": "_factor",
							"type": "int256"
						}
					],
					"name": "contribute",
					"outputs": [],
					"payable": false,
					"stateMutability": "nonpayable",
					"type": "function"
				},
				{
					"constant": false,
					"inputs": [],
					"name": "takeSomeMoney",
					"outputs": [],
					"payable": false,
					"stateMutability": "nonpayable",
					"type": "function"
				},
				{
					"constant": true,
					"inputs": [],
					"name": "owner",
					"outputs": [
						{
							"name": "",
							"type": "address"
						}
					],
					"payable": false,
					"stateMutability": "view",
					"type": "function"
				},
				{
					"constant": true,
					"inputs": [],
					"name": "withdrawn",
					"outputs": [
						{
							"name": "",
							"type": "bool"
						}
					],
					"payable": false,
					"stateMutability": "view",
					"type": "function"
				},
				{
					"inputs": [],
					"payable": true,
					"stateMutability": "payable",
					"type": "constructor"
				},
				{
					"anonymous": false,
					"inputs": [
						{
							"indexed": false,
							"name": "message",
							"type": "address"
						},
						{
							"indexed": false,
							"name": "amount",
							"type": "uint256"
						}
					],
					"name": "Logs",
					"type": "event"
				}
			],
			"devdoc": {
				"methods": {}
			},
			"evm": {
				"assembly": "    /* \"D0n4t3.sol\":29:1390  contract D0n4t3 {\r... */\n  mstore(0x40, 0x80)\n    /* \"D0n4t3.sol\":363:401  79000000000000000000000000000000000000 */\n  0x3b6ed8b833092fb2545615f000000000\n    /* \"D0n4t3.sol\":282:295  contributions */\n  0x2\n    /* \"D0n4t3.sol\":282:339  contributions[0x617F2E2fD72FD9D5503197092aC168c91465E7f2] */\n  0x0\n    /* \"D0n4t3.sol\":296:338  0x617F2E2fD72FD9D5503197092aC168c91465E7f2 */\n  0x617f2e2fd72fd9d5503197092ac168c91465e7f2\n    /* \"D0n4t3.sol\":282:339  contributions[0x617F2E2fD72FD9D5503197092aC168c91465E7f2] */\n  0xffffffffffffffffffffffffffffffffffffffff\n  and\n  0xffffffffffffffffffffffffffffffffffffffff\n  and\n  dup2\n  mstore\n  0x20\n  add\n  swap1\n  dup2\n  mstore\n  0x20\n  add\n  0x0\n  keccak256\n    /* \"D0n4t3.sol\":282:412  contributions[0x617F2E2fD72FD9D5503197092aC168c91465E7f2] = int256(\r... */\n  dup2\n  swap1\n  sstore\n  pop\n    /* \"D0n4t3.sol\":431:473  0x617F2E2fD72FD9D5503197092aC168c91465E7f2 */\n  0x617f2e2fd72fd9d5503197092ac168c91465e7f2\n    /* \"D0n4t3.sol\":423:428  owner */\n  0x0\n  dup1\n    /* \"D0n4t3.sol\":423:473  owner = 0x617F2E2fD72FD9D5503197092aC168c91465E7f2 */\n  0x100\n  exp\n  dup2\n  sload\n  dup2\n  0xffffffffffffffffffffffffffffffffffffffff\n  mul\n  not\n  and\n  swap1\n  dup4\n  0xffffffffffffffffffffffffffffffffffffffff\n  and\n  mul\n  or\n  swap1\n  sstore\n  pop\n    /* \"D0n4t3.sol\":492:501  msg.value */\n  callvalue\n    /* \"D0n4t3.sol\":484:489  money */\n  0x1\n    /* \"D0n4t3.sol\":484:501  money = msg.value */\n  dup2\n  swap1\n  sstore\n  pop\n    /* \"D0n4t3.sol\":524:529  false */\n  0x0\n    /* \"D0n4t3.sol\":512:521  withdrawn */\n  0x3\n  0x0\n    /* \"D0n4t3.sol\":512:529  withdrawn = false */\n  0x100\n  exp\n  dup2\n  sload\n  dup2\n  0xff\n  mul\n  not\n  and\n  swap1\n  dup4\n  iszero\n  iszero\n  mul\n  or\n  swap1\n  sstore\n  pop\n    /* \"D0n4t3.sol\":29:1390  contract D0n4t3 {\r... */\n  dataSize(sub_0)\n  dup1\n  dataOffset(sub_0)\n  0x0\n  codecopy\n  0x0\n  return\nstop\n\nsub_0: assembly {\n        /* \"D0n4t3.sol\":29:1390  contract D0n4t3 {\r... */\n      mstore(0x40, 0x80)\n      jumpi(tag_1, lt(calldatasize, 0x4))\n      calldataload(0x0)\n      0x100000000000000000000000000000000000000000000000000000000\n      swap1\n      div\n      0xffffffff\n      and\n      dup1\n      0x24b04905\n      eq\n      tag_2\n      jumpi\n      dup1\n      0x42e94c90\n      eq\n      tag_3\n      jumpi\n      dup1\n      0x4ddd108a\n      eq\n      tag_4\n      jumpi\n      dup1\n      0x66345da4\n      eq\n      tag_5\n      jumpi\n      dup1\n      0x6d73fa74\n      eq\n      tag_6\n      jumpi\n      dup1\n      0x80d4a64e\n      eq\n      tag_7\n      jumpi\n      dup1\n      0x8da5cb5b\n      eq\n      tag_8\n      jumpi\n      dup1\n      0xc80ec522\n      eq\n      tag_9\n      jumpi\n    tag_1:\n      0x0\n      dup1\n      revert\n        /* \"D0n4t3.sol\":545:798  function gift() public payable {\r... */\n    tag_2:\n      tag_10\n      jump(tag_11)\n    tag_10:\n      stop\n        /* \"D0n4t3.sol\":156:203  mapping(address => int256) public contributions */\n    tag_3:\n      callvalue\n        /* \"--CODEGEN--\":8:17   */\n      dup1\n        /* \"--CODEGEN--\":5:7   */\n      iszero\n      tag_12\n      jumpi\n        /* \"--CODEGEN--\":30:31   */\n      0x0\n        /* \"--CODEGEN--\":27:28   */\n      dup1\n        /* \"--CODEGEN--\":20:32   */\n      revert\n        /* \"--CODEGEN--\":5:7   */\n    tag_12:\n        /* \"D0n4t3.sol\":156:203  mapping(address => int256) public contributions */\n      pop\n      tag_13\n      0x4\n      dup1\n      calldatasize\n      sub\n      dup2\n      add\n      swap1\n      dup1\n      dup1\n      calldataload\n      0xffffffffffffffffffffffffffffffffffffffff\n      and\n      swap1\n      0x20\n      add\n      swap1\n      swap3\n      swap2\n      swap1\n      pop\n      pop\n      pop\n      jump(tag_14)\n    tag_13:\n      mload(0x40)\n      dup1\n      dup3\n      dup2\n      mstore\n      0x20\n      add\n      swap2\n      pop\n      pop\n      mload(0x40)\n      dup1\n      swap2\n      sub\n      swap1\n      return\n        /* \"D0n4t3.sol\":79:99  uint256 public money */\n    tag_4:\n      callvalue\n        /* \"--CODEGEN--\":8:17   */\n      dup1\n        /* \"--CODEGEN--\":5:7   */\n      iszero\n      tag_15\n      jumpi\n        /* \"--CODEGEN--\":30:31   */\n      0x0\n        /* \"--CODEGEN--\":27:28   */\n      dup1\n        /* \"--CODEGEN--\":20:32   */\n      revert\n        /* \"--CODEGEN--\":5:7   */\n    tag_15:\n        /* \"D0n4t3.sol\":79:99  uint256 public money */\n      pop\n      tag_16\n      jump(tag_17)\n    tag_16:\n      mload(0x40)\n      dup1\n      dup3\n      dup2\n      mstore\n      0x20\n      add\n      swap2\n      pop\n      pop\n      mload(0x40)\n      dup1\n      swap2\n      sub\n      swap1\n      return\n        /* \"D0n4t3.sol\":1250:1387  function claimContract() public {\r... */\n    tag_5:\n      callvalue\n        /* \"--CODEGEN--\":8:17   */\n      dup1\n        /* \"--CODEGEN--\":5:7   */\n      iszero\n      tag_18\n      jumpi\n        /* \"--CODEGEN--\":30:31   */\n      0x0\n        /* \"--CODEGEN--\":27:28   */\n      dup1\n        /* \"--CODEGEN--\":20:32   */\n      revert\n        /* \"--CODEGEN--\":5:7   */\n    tag_18:\n        /* \"D0n4t3.sol\":1250:1387  function claimContract() public {\r... */\n      pop\n      tag_19\n      jump(tag_20)\n    tag_19:\n      stop\n        /* \"D0n4t3.sol\":1078:1242  function contribute(int256 _factor) public {\r... */\n    tag_6:\n      callvalue\n        /* \"--CODEGEN--\":8:17   */\n      dup1\n        /* \"--CODEGEN--\":5:7   */\n      iszero\n      tag_21\n      jumpi\n        /* \"--CODEGEN--\":30:31   */\n      0x0\n        /* \"--CODEGEN--\":27:28   */\n      dup1\n        /* \"--CODEGEN--\":20:32   */\n      revert\n        /* \"--CODEGEN--\":5:7   */\n    tag_21:\n        /* \"D0n4t3.sol\":1078:1242  function contribute(int256 _factor) public {\r... */\n      pop\n      tag_22\n      0x4\n      dup1\n      calldatasize\n      sub\n      dup2\n      add\n      swap1\n      dup1\n      dup1\n      calldataload\n      swap1\n      0x20\n      add\n      swap1\n      swap3\n      swap2\n      swap1\n      pop\n      pop\n      pop\n      jump(tag_23)\n    tag_22:\n      stop\n        /* \"D0n4t3.sol\":806:1070  function takeSomeMoney() public {\r... */\n    tag_7:\n      callvalue\n        /* \"--CODEGEN--\":8:17   */\n      dup1\n        /* \"--CODEGEN--\":5:7   */\n      iszero\n      tag_24\n      jumpi\n        /* \"--CODEGEN--\":30:31   */\n      0x0\n        /* \"--CODEGEN--\":27:28   */\n      dup1\n        /* \"--CODEGEN--\":20:32   */\n      revert\n        /* \"--CODEGEN--\":5:7   */\n    tag_24:\n        /* \"D0n4t3.sol\":806:1070  function takeSomeMoney() public {\r... */\n      pop\n      tag_25\n      jump(tag_26)\n    tag_25:\n      stop\n        /* \"D0n4t3.sol\":52:72  address public owner */\n    tag_8:\n      callvalue\n        /* \"--CODEGEN--\":8:17   */\n      dup1\n        /* \"--CODEGEN--\":5:7   */\n      iszero\n      tag_27\n      jumpi\n        /* \"--CODEGEN--\":30:31   */\n      0x0\n        /* \"--CODEGEN--\":27:28   */\n      dup1\n        /* \"--CODEGEN--\":20:32   */\n      revert\n        /* \"--CODEGEN--\":5:7   */\n    tag_27:\n        /* \"D0n4t3.sol\":52:72  address public owner */\n      pop\n      tag_28\n      jump(tag_29)\n    tag_28:\n      mload(0x40)\n      dup1\n      dup3\n      0xffffffffffffffffffffffffffffffffffffffff\n      and\n      0xffffffffffffffffffffffffffffffffffffffff\n      and\n      dup2\n      mstore\n      0x20\n      add\n      swap2\n      pop\n      pop\n      mload(0x40)\n      dup1\n      swap2\n      sub\n      swap1\n      return\n        /* \"D0n4t3.sol\":212:233  bool public withdrawn */\n    tag_9:\n      callvalue\n        /* \"--CODEGEN--\":8:17   */\n      dup1\n        /* \"--CODEGEN--\":5:7   */\n      iszero\n      tag_30\n      jumpi\n        /* \"--CODEGEN--\":30:31   */\n      0x0\n        /* \"--CODEGEN--\":27:28   */\n      dup1\n        /* \"--CODEGEN--\":20:32   */\n      revert\n        /* \"--CODEGEN--\":5:7   */\n    tag_30:\n        /* \"D0n4t3.sol\":212:233  bool public withdrawn */\n      pop\n      tag_31\n      jump(tag_32)\n    tag_31:\n      mload(0x40)\n      dup1\n      dup3\n      iszero\n      iszero\n      iszero\n      iszero\n      dup2\n      mstore\n      0x20\n      add\n      swap2\n      pop\n      pop\n      mload(0x40)\n      dup1\n      swap2\n      sub\n      swap1\n      return\n        /* \"D0n4t3.sol\":545:798  function gift() public payable {\r... */\n    tag_11:\n        /* \"D0n4t3.sol\":587:614  Logs(msg.sender, msg.value) */\n      0x332693c34852f941df971bdf97d6c3d2e27e992d4fdaf93fafba93f76eef3b70\n        /* \"D0n4t3.sol\":592:602  msg.sender */\n      caller\n        /* \"D0n4t3.sol\":604:613  msg.value */\n      callvalue\n        /* \"D0n4t3.sol\":587:614  Logs(msg.sender, msg.value) */\n      mload(0x40)\n      dup1\n      dup4\n      0xffffffffffffffffffffffffffffffffffffffff\n      and\n      0xffffffffffffffffffffffffffffffffffffffff\n      and\n      dup2\n      mstore\n      0x20\n      add\n      dup3\n      dup2\n      mstore\n      0x20\n      add\n      swap3\n      pop\n      pop\n      pop\n      mload(0x40)\n      dup1\n      swap2\n      sub\n      swap1\n      log1\n        /* \"D0n4t3.sol\":545:798  function gift() public payable {\r... */\n      jump\t// out\n        /* \"D0n4t3.sol\":156:203  mapping(address => int256) public contributions */\n    tag_14:\n      mstore(0x20, 0x2)\n      dup1\n      0x0\n      mstore\n      keccak256(0x0, 0x40)\n      0x0\n      swap2\n      pop\n      swap1\n      pop\n      sload\n      dup2\n      jump\t// out\n        /* \"D0n4t3.sol\":79:99  uint256 public money */\n    tag_17:\n      sload(0x1)\n      dup2\n      jump\t// out\n        /* \"D0n4t3.sol\":1250:1387  function claimContract() public {\r... */\n    tag_20:\n        /* \"D0n4t3.sol\":1329:1342  contributions */\n      0x2\n        /* \"D0n4t3.sol\":1329:1349  contributions[owner] */\n      0x0\n        /* \"D0n4t3.sol\":1343:1348  owner */\n      dup1\n      0x0\n      swap1\n      sload\n      swap1\n      0x100\n      exp\n      swap1\n      div\n      0xffffffffffffffffffffffffffffffffffffffff\n      and\n        /* \"D0n4t3.sol\":1329:1349  contributions[owner] */\n      0xffffffffffffffffffffffffffffffffffffffff\n      and\n      0xffffffffffffffffffffffffffffffffffffffff\n      and\n      dup2\n      mstore\n      0x20\n      add\n      swap1\n      dup2\n      mstore\n      0x20\n      add\n      0x0\n      keccak256\n      sload\n        /* \"D0n4t3.sol\":1301:1314  contributions */\n      0x2\n        /* \"D0n4t3.sol\":1301:1326  contributions[msg.sender] */\n      0x0\n        /* \"D0n4t3.sol\":1315:1325  msg.sender */\n      caller\n        /* \"D0n4t3.sol\":1301:1326  contributions[msg.sender] */\n      0xffffffffffffffffffffffffffffffffffffffff\n      and\n      0xffffffffffffffffffffffffffffffffffffffff\n      and\n      dup2\n      mstore\n      0x20\n      add\n      swap1\n      dup2\n      mstore\n      0x20\n      add\n      0x0\n      keccak256\n      sload\n        /* \"D0n4t3.sol\":1301:1349  contributions[msg.sender] > contributions[owner] */\n      sgt\n        /* \"D0n4t3.sol\":1293:1350  require(contributions[msg.sender] > contributions[owner]) */\n      iszero\n      iszero\n      tag_35\n      jumpi\n      0x0\n      dup1\n      revert\n    tag_35:\n        /* \"D0n4t3.sol\":1369:1379  msg.sender */\n      caller\n        /* \"D0n4t3.sol\":1361:1366  owner */\n      0x0\n      dup1\n        /* \"D0n4t3.sol\":1361:1379  owner = msg.sender */\n      0x100\n      exp\n      dup2\n      sload\n      dup2\n      0xffffffffffffffffffffffffffffffffffffffff\n      mul\n      not\n      and\n      swap1\n      dup4\n      0xffffffffffffffffffffffffffffffffffffffff\n      and\n      mul\n      or\n      swap1\n      sstore\n      pop\n        /* \"D0n4t3.sol\":1250:1387  function claimContract() public {\r... */\n      jump\t// out\n        /* \"D0n4t3.sol\":1078:1242  function contribute(int256 _factor) public {\r... */\n    tag_23:\n        /* \"D0n4t3.sol\":1169:1170  0 */\n      0x0\n        /* \"D0n4t3.sol\":1140:1153  contributions */\n      0x2\n        /* \"D0n4t3.sol\":1140:1165  contributions[msg.sender] */\n      0x0\n        /* \"D0n4t3.sol\":1154:1164  msg.sender */\n      caller\n        /* \"D0n4t3.sol\":1140:1165  contributions[msg.sender] */\n      0xffffffffffffffffffffffffffffffffffffffff\n      and\n      0xffffffffffffffffffffffffffffffffffffffff\n      and\n      dup2\n      mstore\n      0x20\n      add\n      swap1\n      dup2\n      mstore\n      0x20\n      add\n      0x0\n      keccak256\n      sload\n        /* \"D0n4t3.sol\":1140:1170  contributions[msg.sender] != 0 */\n      eq\n      iszero\n        /* \"D0n4t3.sol\":1140:1186  contributions[msg.sender] != 0 && _factor < 10 */\n      dup1\n      iszero\n      tag_37\n      jumpi\n      pop\n        /* \"D0n4t3.sol\":1184:1186  10 */\n      0xa\n        /* \"D0n4t3.sol\":1174:1181  _factor */\n      dup2\n        /* \"D0n4t3.sol\":1174:1186  _factor < 10 */\n      slt\n        /* \"D0n4t3.sol\":1140:1186  contributions[msg.sender] != 0 && _factor < 10 */\n    tag_37:\n        /* \"D0n4t3.sol\":1132:1187  require(contributions[msg.sender] != 0 && _factor < 10) */\n      iszero\n      iszero\n      tag_38\n      jumpi\n      0x0\n      dup1\n      revert\n    tag_38:\n        /* \"D0n4t3.sol\":1227:1234  _factor */\n      dup1\n        /* \"D0n4t3.sol\":1198:1211  contributions */\n      0x2\n        /* \"D0n4t3.sol\":1198:1223  contributions[msg.sender] */\n      0x0\n        /* \"D0n4t3.sol\":1212:1222  msg.sender */\n      caller\n        /* \"D0n4t3.sol\":1198:1223  contributions[msg.sender] */\n      0xffffffffffffffffffffffffffffffffffffffff\n      and\n      0xffffffffffffffffffffffffffffffffffffffff\n      and\n      dup2\n      mstore\n      0x20\n      add\n      swap1\n      dup2\n      mstore\n      0x20\n      add\n      0x0\n      keccak256\n      0x0\n        /* \"D0n4t3.sol\":1198:1234  contributions[msg.sender] *= _factor */\n      dup3\n      dup3\n      sload\n      mul\n      swap3\n      pop\n      pop\n      dup2\n      swap1\n      sstore\n      pop\n        /* \"D0n4t3.sol\":1078:1242  function contribute(int256 _factor) public {\r... */\n      pop\n      jump\t// out\n        /* \"D0n4t3.sol\":806:1070  function takeSomeMoney() public {\r... */\n    tag_26:\n        /* \"D0n4t3.sol\":910:927  uint256 someMoney */\n      0x0\n        /* \"D0n4t3.sol\":871:876  owner */\n      dup1\n      0x0\n      swap1\n      sload\n      swap1\n      0x100\n      exp\n      swap1\n      div\n      0xffffffffffffffffffffffffffffffffffffffff\n      and\n        /* \"D0n4t3.sol\":857:876  msg.sender == owner */\n      0xffffffffffffffffffffffffffffffffffffffff\n      and\n        /* \"D0n4t3.sol\":857:867  msg.sender */\n      caller\n        /* \"D0n4t3.sol\":857:876  msg.sender == owner */\n      0xffffffffffffffffffffffffffffffffffffffff\n      and\n      eq\n        /* \"D0n4t3.sol\":857:898  msg.sender == owner && withdrawn == false */\n      dup1\n      iszero\n      tag_40\n      jumpi\n      pop\n        /* \"D0n4t3.sol\":893:898  false */\n      0x0\n        /* \"D0n4t3.sol\":880:898  withdrawn == false */\n      iszero\n      iszero\n        /* \"D0n4t3.sol\":880:889  withdrawn */\n      0x3\n      0x0\n      swap1\n      sload\n      swap1\n      0x100\n      exp\n      swap1\n      div\n      0xff\n      and\n        /* \"D0n4t3.sol\":880:898  withdrawn == false */\n      iszero\n      iszero\n      eq\n        /* \"D0n4t3.sol\":857:898  msg.sender == owner && withdrawn == false */\n    tag_40:\n        /* \"D0n4t3.sol\":849:899  require(msg.sender == owner && withdrawn == false) */\n      iszero\n      iszero\n      tag_41\n      jumpi\n      0x0\n      dup1\n      revert\n    tag_41:\n        /* \"D0n4t3.sol\":938:940  20 */\n      0x14\n        /* \"D0n4t3.sol\":930:935  money */\n      sload(0x1)\n        /* \"D0n4t3.sol\":930:940  money / 20 */\n      dup2\n      iszero\n      iszero\n      tag_42\n      jumpi\n      invalid\n    tag_42:\n      div\n        /* \"D0n4t3.sol\":910:940  uint256 someMoney = money / 20 */\n      swap1\n      pop\n        /* \"D0n4t3.sol\":955:965  msg.sender */\n      caller\n        /* \"D0n4t3.sol\":955:970  msg.sender.call */\n      0xffffffffffffffffffffffffffffffffffffffff\n      and\n        /* \"D0n4t3.sol\":977:986  someMoney */\n      dup2\n        /* \"D0n4t3.sol\":955:989  msg.sender.call.value(someMoney)() */\n      mload(0x40)\n      0x0\n      mload(0x40)\n      dup1\n      dup4\n      sub\n      dup2\n      dup6\n      dup8\n      gas\n      call\n      swap3\n      pop\n      pop\n      pop\n        /* \"D0n4t3.sol\":951:1036  if (msg.sender.call.value(someMoney)()) {\r... */\n      iszero\n      tag_43\n      jumpi\n        /* \"D0n4t3.sol\":1015:1024  someMoney */\n      dup1\n        /* \"D0n4t3.sol\":1006:1011  money */\n      0x1\n      0x0\n        /* \"D0n4t3.sol\":1006:1024  money -= someMoney */\n      dup3\n      dup3\n      sload\n      sub\n      swap3\n      pop\n      pop\n      dup2\n      swap1\n      sstore\n      pop\n        /* \"D0n4t3.sol\":951:1036  if (msg.sender.call.value(someMoney)()) {\r... */\n    tag_43:\n        /* \"D0n4t3.sol\":1058:1062  true */\n      0x1\n        /* \"D0n4t3.sol\":1046:1055  withdrawn */\n      0x3\n      0x0\n        /* \"D0n4t3.sol\":1046:1062  withdrawn = true */\n      0x100\n      exp\n      dup2\n      sload\n      dup2\n      0xff\n      mul\n      not\n      and\n      swap1\n      dup4\n      iszero\n      iszero\n      mul\n      or\n      swap1\n      sstore\n      pop\n        /* \"D0n4t3.sol\":806:1070  function takeSomeMoney() public {\r... */\n      pop\n      jump\t// out\n        /* \"D0n4t3.sol\":52:72  address public owner */\n    tag_29:\n      0x0\n      dup1\n      swap1\n      sload\n      swap1\n      0x100\n      exp\n      swap1\n      div\n      0xffffffffffffffffffffffffffffffffffffffff\n      and\n      dup2\n      jump\t// out\n        /* \"D0n4t3.sol\":212:233  bool public withdrawn */\n    tag_32:\n      0x3\n      0x0\n      swap1\n      sload\n      swap1\n      0x100\n      exp\n      swap1\n      div\n      0xff\n      and\n      dup2\n      jump\t// out\n\n    auxdata: 0xa165627a7a723058204f416e19e8b6c7e2676893d97b834c7e0f4f3a193595614a99d4764331b03d940029\n}\n",
				"bytecode": {
					"linkReferences": {},
					"object": "60806040526f3b6ed8b833092fb2545615f0000000006002600073617f2e2fd72fd9d5503197092ac168c91465e7f273ffffffffffffffffffffffffffffffffffffffff1673ffffffffffffffffffffffffffffffffffffffff1681526020019081526020016000208190555073617f2e2fd72fd9d5503197092ac168c91465e7f26000806101000a81548173ffffffffffffffffffffffffffffffffffffffff021916908373ffffffffffffffffffffffffffffffffffffffff160217905550346001819055506000600360006101000a81548160ff021916908315150217905550610576806100f16000396000f30060806040526004361061008e576000357c0100000000000000000000000000000000000000000000000000000000900463ffffffff16806324b049051461009357806342e94c901461009d5780634ddd108a146100f457806366345da41461011f5780636d73fa741461013657806380d4a64e146101635780638da5cb5b1461017a578063c80ec522146101d1575b600080fd5b61009b610200565b005b3480156100a957600080fd5b506100de600480360381019080803573ffffffffffffffffffffffffffffffffffffffff16906020019092919050505061026d565b6040518082815260200191505060405180910390f35b34801561010057600080fd5b50610109610285565b6040518082815260200191505060405180910390f35b34801561012b57600080fd5b5061013461028b565b005b34801561014257600080fd5b506101616004803603810190808035906020019092919050505061037a565b005b34801561016f57600080fd5b50610178610425565b005b34801561018657600080fd5b5061018f610512565b604051808273ffffffffffffffffffffffffffffffffffffffff1673ffffffffffffffffffffffffffffffffffffffff16815260200191505060405180910390f35b3480156101dd57600080fd5b506101e6610537565b604051808215151515815260200191505060405180910390f35b7f332693c34852f941df971bdf97d6c3d2e27e992d4fdaf93fafba93f76eef3b703334604051808373ffffffffffffffffffffffffffffffffffffffff1673ffffffffffffffffffffffffffffffffffffffff1681526020018281526020019250505060405180910390a1565b60026020528060005260406000206000915090505481565b60015481565b600260008060009054906101000a900473ffffffffffffffffffffffffffffffffffffffff1673ffffffffffffffffffffffffffffffffffffffff1673ffffffffffffffffffffffffffffffffffffffff16815260200190815260200160002054600260003373ffffffffffffffffffffffffffffffffffffffff1673ffffffffffffffffffffffffffffffffffffffff1681526020019081526020016000205413151561033857600080fd5b336000806101000a81548173ffffffffffffffffffffffffffffffffffffffff021916908373ffffffffffffffffffffffffffffffffffffffff160217905550565b6000600260003373ffffffffffffffffffffffffffffffffffffffff1673ffffffffffffffffffffffffffffffffffffffff16815260200190815260200160002054141580156103ca5750600a81125b15156103d557600080fd5b80600260003373ffffffffffffffffffffffffffffffffffffffff1673ffffffffffffffffffffffffffffffffffffffff1681526020019081526020016000206000828254029250508190555050565b60008060009054906101000a900473ffffffffffffffffffffffffffffffffffffffff1673ffffffffffffffffffffffffffffffffffffffff163373ffffffffffffffffffffffffffffffffffffffff16148015610496575060001515600360009054906101000a900460ff161515145b15156104a157600080fd5b60146001548115156104af57fe5b0490503373ffffffffffffffffffffffffffffffffffffffff168160405160006040518083038185875af192505050156104f457806001600082825403925050819055505b6001600360006101000a81548160ff02191690831515021790555050565b6000809054906101000a900473ffffffffffffffffffffffffffffffffffffffff1681565b600360009054906101000a900460ff16815600a165627a7a723058204f416e19e8b6c7e2676893d97b834c7e0f4f3a193595614a99d4764331b03d940029",
					"opcodes": "PUSH1 0x80 PUSH1 0x40 MSTORE PUSH16 0x3B6ED8B833092FB2545615F000000000 PUSH1 0x2 PUSH1 0x0 PUSH20 0x617F2E2FD72FD9D5503197092AC168C91465E7F2 PUSH20 0xFFFFFFFFFFFFFFFFFFFFFFFFFFFFFFFFFFFFFFFF AND PUSH20 0xFFFFFFFFFFFFFFFFFFFFFFFFFFFFFFFFFFFFFFFF AND DUP2 MSTORE PUSH1 0x20 ADD SWAP1 DUP2 MSTORE PUSH1 0x20 ADD PUSH1 0x0 KECCAK256 DUP2 SWAP1 SSTORE POP PUSH20 0x617F2E2FD72FD9D5503197092AC168C91465E7F2 PUSH1 0x0 DUP1 PUSH2 0x100 EXP DUP2 SLOAD DUP2 PUSH20 0xFFFFFFFFFFFFFFFFFFFFFFFFFFFFFFFFFFFFFFFF MUL NOT AND SWAP1 DUP4 PUSH20 0xFFFFFFFFFFFFFFFFFFFFFFFFFFFFFFFFFFFFFFFF AND MUL OR SWAP1 SSTORE POP CALLVALUE PUSH1 0x1 DUP2 SWAP1 SSTORE POP PUSH1 0x0 PUSH1 0x3 PUSH1 0x0 PUSH2 0x100 EXP DUP2 SLOAD DUP2 PUSH1 0xFF MUL NOT AND SWAP1 DUP4 ISZERO ISZERO MUL OR SWAP1 SSTORE POP PUSH2 0x576 DUP1 PUSH2 0xF1 PUSH1 0x0 CODECOPY PUSH1 0x0 RETURN STOP PUSH1 0x80 PUSH1 0x40 MSTORE PUSH1 0x4 CALLDATASIZE LT PUSH2 0x8E JUMPI PUSH1 0x0 CALLDATALOAD PUSH29 0x100000000000000000000000000000000000000000000000000000000 SWAP1 DIV PUSH4 0xFFFFFFFF AND DUP1 PUSH4 0x24B04905 EQ PUSH2 0x93 JUMPI DUP1 PUSH4 0x42E94C90 EQ PUSH2 0x9D JUMPI DUP1 PUSH4 0x4DDD108A EQ PUSH2 0xF4 JUMPI DUP1 PUSH4 0x66345DA4 EQ PUSH2 0x11F JUMPI DUP1 PUSH4 0x6D73FA74 EQ PUSH2 0x136 JUMPI DUP1 PUSH4 0x80D4A64E EQ PUSH2 0x163 JUMPI DUP1 PUSH4 0x8DA5CB5B EQ PUSH2 0x17A JUMPI DUP1 PUSH4 0xC80EC522 EQ PUSH2 0x1D1 JUMPI JUMPDEST PUSH1 0x0 DUP1 REVERT JUMPDEST PUSH2 0x9B PUSH2 0x200 JUMP JUMPDEST STOP JUMPDEST CALLVALUE DUP1 ISZERO PUSH2 0xA9 JUMPI PUSH1 0x0 DUP1 REVERT JUMPDEST POP PUSH2 0xDE PUSH1 0x4 DUP1 CALLDATASIZE SUB DUP2 ADD SWAP1 DUP1 DUP1 CALLDATALOAD PUSH20 0xFFFFFFFFFFFFFFFFFFFFFFFFFFFFFFFFFFFFFFFF AND SWAP1 PUSH1 0x20 ADD SWAP1 SWAP3 SWAP2 SWAP1 POP POP POP PUSH2 0x26D JUMP JUMPDEST PUSH1 0x40 MLOAD DUP1 DUP3 DUP2 MSTORE PUSH1 0x20 ADD SWAP2 POP POP PUSH1 0x40 MLOAD DUP1 SWAP2 SUB SWAP1 RETURN JUMPDEST CALLVALUE DUP1 ISZERO PUSH2 0x100 JUMPI PUSH1 0x0 DUP1 REVERT JUMPDEST POP PUSH2 0x109 PUSH2 0x285 JUMP JUMPDEST PUSH1 0x40 MLOAD DUP1 DUP3 DUP2 MSTORE PUSH1 0x20 ADD SWAP2 POP POP PUSH1 0x40 MLOAD DUP1 SWAP2 SUB SWAP1 RETURN JUMPDEST CALLVALUE DUP1 ISZERO PUSH2 0x12B JUMPI PUSH1 0x0 DUP1 REVERT JUMPDEST POP PUSH2 0x134 PUSH2 0x28B JUMP JUMPDEST STOP JUMPDEST CALLVALUE DUP1 ISZERO PUSH2 0x142 JUMPI PUSH1 0x0 DUP1 REVERT JUMPDEST POP PUSH2 0x161 PUSH1 0x4 DUP1 CALLDATASIZE SUB DUP2 ADD SWAP1 DUP1 DUP1 CALLDATALOAD SWAP1 PUSH1 0x20 ADD SWAP1 SWAP3 SWAP2 SWAP1 POP POP POP PUSH2 0x37A JUMP JUMPDEST STOP JUMPDEST CALLVALUE DUP1 ISZERO PUSH2 0x16F JUMPI PUSH1 0x0 DUP1 REVERT JUMPDEST POP PUSH2 0x178 PUSH2 0x425 JUMP JUMPDEST STOP JUMPDEST CALLVALUE DUP1 ISZERO PUSH2 0x186 JUMPI PUSH1 0x0 DUP1 REVERT JUMPDEST POP PUSH2 0x18F PUSH2 0x512 JUMP JUMPDEST PUSH1 0x40 MLOAD DUP1 DUP3 PUSH20 0xFFFFFFFFFFFFFFFFFFFFFFFFFFFFFFFFFFFFFFFF AND PUSH20 0xFFFFFFFFFFFFFFFFFFFFFFFFFFFFFFFFFFFFFFFF AND DUP2 MSTORE PUSH1 0x20 ADD SWAP2 POP POP PUSH1 0x40 MLOAD DUP1 SWAP2 SUB SWAP1 RETURN JUMPDEST CALLVALUE DUP1 ISZERO PUSH2 0x1DD JUMPI PUSH1 0x0 DUP1 REVERT JUMPDEST POP PUSH2 0x1E6 PUSH2 0x537 JUMP JUMPDEST PUSH1 0x40 MLOAD DUP1 DUP3 ISZERO ISZERO ISZERO ISZERO DUP2 MSTORE PUSH1 0x20 ADD SWAP2 POP POP PUSH1 0x40 MLOAD DUP1 SWAP2 SUB SWAP1 RETURN JUMPDEST PUSH32 0x332693C34852F941DF971BDF97D6C3D2E27E992D4FDAF93FAFBA93F76EEF3B70 CALLER CALLVALUE PUSH1 0x40 MLOAD DUP1 DUP4 PUSH20 0xFFFFFFFFFFFFFFFFFFFFFFFFFFFFFFFFFFFFFFFF AND PUSH20 0xFFFFFFFFFFFFFFFFFFFFFFFFFFFFFFFFFFFFFFFF AND DUP2 MSTORE PUSH1 0x20 ADD DUP3 DUP2 MSTORE PUSH1 0x20 ADD SWAP3 POP POP POP PUSH1 0x40 MLOAD DUP1 SWAP2 SUB SWAP1 LOG1 JUMP JUMPDEST PUSH1 0x2 PUSH1 0x20 MSTORE DUP1 PUSH1 0x0 MSTORE PUSH1 0x40 PUSH1 0x0 KECCAK256 PUSH1 0x0 SWAP2 POP SWAP1 POP SLOAD DUP2 JUMP JUMPDEST PUSH1 0x1 SLOAD DUP2 JUMP JUMPDEST PUSH1 0x2 PUSH1 0x0 DUP1 PUSH1 0x0 SWAP1 SLOAD SWAP1 PUSH2 0x100 EXP SWAP1 DIV PUSH20 0xFFFFFFFFFFFFFFFFFFFFFFFFFFFFFFFFFFFFFFFF AND PUSH20 0xFFFFFFFFFFFFFFFFFFFFFFFFFFFFFFFFFFFFFFFF AND PUSH20 0xFFFFFFFFFFFFFFFFFFFFFFFFFFFFFFFFFFFFFFFF AND DUP2 MSTORE PUSH1 0x20 ADD SWAP1 DUP2 MSTORE PUSH1 0x20 ADD PUSH1 0x0 KECCAK256 SLOAD PUSH1 0x2 PUSH1 0x0 CALLER PUSH20 0xFFFFFFFFFFFFFFFFFFFFFFFFFFFFFFFFFFFFFFFF AND PUSH20 0xFFFFFFFFFFFFFFFFFFFFFFFFFFFFFFFFFFFFFFFF AND DUP2 MSTORE PUSH1 0x20 ADD SWAP1 DUP2 MSTORE PUSH1 0x20 ADD PUSH1 0x0 KECCAK256 SLOAD SGT ISZERO ISZERO PUSH2 0x338 JUMPI PUSH1 0x0 DUP1 REVERT JUMPDEST CALLER PUSH1 0x0 DUP1 PUSH2 0x100 EXP DUP2 SLOAD DUP2 PUSH20 0xFFFFFFFFFFFFFFFFFFFFFFFFFFFFFFFFFFFFFFFF MUL NOT AND SWAP1 DUP4 PUSH20 0xFFFFFFFFFFFFFFFFFFFFFFFFFFFFFFFFFFFFFFFF AND MUL OR SWAP1 SSTORE POP JUMP JUMPDEST PUSH1 0x0 PUSH1 0x2 PUSH1 0x0 CALLER PUSH20 0xFFFFFFFFFFFFFFFFFFFFFFFFFFFFFFFFFFFFFFFF AND PUSH20 0xFFFFFFFFFFFFFFFFFFFFFFFFFFFFFFFFFFFFFFFF AND DUP2 MSTORE PUSH1 0x20 ADD SWAP1 DUP2 MSTORE PUSH1 0x20 ADD PUSH1 0x0 KECCAK256 SLOAD EQ ISZERO DUP1 ISZERO PUSH2 0x3CA JUMPI POP PUSH1 0xA DUP2 SLT JUMPDEST ISZERO ISZERO PUSH2 0x3D5 JUMPI PUSH1 0x0 DUP1 REVERT JUMPDEST DUP1 PUSH1 0x2 PUSH1 0x0 CALLER PUSH20 0xFFFFFFFFFFFFFFFFFFFFFFFFFFFFFFFFFFFFFFFF AND PUSH20 0xFFFFFFFFFFFFFFFFFFFFFFFFFFFFFFFFFFFFFFFF AND DUP2 MSTORE PUSH1 0x20 ADD SWAP1 DUP2 MSTORE PUSH1 0x20 ADD PUSH1 0x0 KECCAK256 PUSH1 0x0 DUP3 DUP3 SLOAD MUL SWAP3 POP POP DUP2 SWAP1 SSTORE POP POP JUMP JUMPDEST PUSH1 0x0 DUP1 PUSH1 0x0 SWAP1 SLOAD SWAP1 PUSH2 0x100 EXP SWAP1 DIV PUSH20 0xFFFFFFFFFFFFFFFFFFFFFFFFFFFFFFFFFFFFFFFF AND PUSH20 0xFFFFFFFFFFFFFFFFFFFFFFFFFFFFFFFFFFFFFFFF AND CALLER PUSH20 0xFFFFFFFFFFFFFFFFFFFFFFFFFFFFFFFFFFFFFFFF AND EQ DUP1 ISZERO PUSH2 0x496 JUMPI POP PUSH1 0x0 ISZERO ISZERO PUSH1 0x3 PUSH1 0x0 SWAP1 SLOAD SWAP1 PUSH2 0x100 EXP SWAP1 DIV PUSH1 0xFF AND ISZERO ISZERO EQ JUMPDEST ISZERO ISZERO PUSH2 0x4A1 JUMPI PUSH1 0x0 DUP1 REVERT JUMPDEST PUSH1 0x14 PUSH1 0x1 SLOAD DUP2 ISZERO ISZERO PUSH2 0x4AF JUMPI INVALID JUMPDEST DIV SWAP1 POP CALLER PUSH20 0xFFFFFFFFFFFFFFFFFFFFFFFFFFFFFFFFFFFFFFFF AND DUP2 PUSH1 0x40 MLOAD PUSH1 0x0 PUSH1 0x40 MLOAD DUP1 DUP4 SUB DUP2 DUP6 DUP8 GAS CALL SWAP3 POP POP POP ISZERO PUSH2 0x4F4 JUMPI DUP1 PUSH1 0x1 PUSH1 0x0 DUP3 DUP3 SLOAD SUB SWAP3 POP POP DUP2 SWAP1 SSTORE POP JUMPDEST PUSH1 0x1 PUSH1 0x3 PUSH1 0x0 PUSH2 0x100 EXP DUP2 SLOAD DUP2 PUSH1 0xFF MUL NOT AND SWAP1 DUP4 ISZERO ISZERO MUL OR SWAP1 SSTORE POP POP JUMP JUMPDEST PUSH1 0x0 DUP1 SWAP1 SLOAD SWAP1 PUSH2 0x100 EXP SWAP1 DIV PUSH20 0xFFFFFFFFFFFFFFFFFFFFFFFFFFFFFFFFFFFFFFFF AND DUP2 JUMP JUMPDEST PUSH1 0x3 PUSH1 0x0 SWAP1 SLOAD SWAP1 PUSH2 0x100 EXP SWAP1 DIV PUSH1 0xFF AND DUP2 JUMP STOP LOG1 PUSH6 0x627A7A723058 KECCAK256 0x4f COINBASE PUSH15 0x19E8B6C7E2676893D97B834C7E0F4F GASPRICE NOT CALLDATALOAD SWAP6 PUSH2 0x4A99 0xd4 PUSH23 0x4331B03D94002900000000000000000000000000000000 "
				},
				"gasEstimates": {
					"creation": {
						"codeDepositCost": "279600",
						"executionCost": "80945",
						"totalCost": "360545"
					},
					"external": {
						"claimContract()": "21309",
						"contribute(int256)": "20955",
						"contributions(address)": "554",
						"gift()": "1465",
						"money()": "438",
						"owner()": "574",
						"takeSomeMoney()": "infinite",
						"withdrawn()": "596"
					}
				},
				"methodIdentifiers": {
					"claimContract()": "66345da4",
					"contribute(int256)": "6d73fa74",
					"contributions(address)": "42e94c90",
					"gift()": "24b04905",
					"money()": "4ddd108a",
					"owner()": "8da5cb5b",
					"takeSomeMoney()": "80d4a64e",
					"withdrawn()": "c80ec522"
				}
			},
			"userdoc": {
				"methods": {}
			}
		}
	}
}