{
	"Vault.sol": {
		"Vault": {
			"abi": [
				{
					"inputs": [
						{
							"internalType": "address",
							"name": "initialOwner",
							"type": "address"
						}
					],
					"stateMutability": "nonpayable",
					"type": "constructor"
				},
				{
					"inputs": [],
					"name": "AccessControlBadConfirmation",
					"type": "error"
				},
				{
					"inputs": [
						{
							"internalType": "address",
							"name": "account",
							"type": "address"
						},
						{
							"internalType": "bytes32",
							"name": "neededRole",
							"type": "bytes32"
						}
					],
					"name": "AccessControlUnauthorizedAccount",
					"type": "error"
				},
				{
					"inputs": [
						{
							"internalType": "address",
							"name": "target",
							"type": "address"
						}
					],
					"name": "AddressEmptyCode",
					"type": "error"
				},
				{
					"inputs": [
						{
							"internalType": "address",
							"name": "account",
							"type": "address"
						}
					],
					"name": "AddressInsufficientBalance",
					"type": "error"
				},
				{
					"inputs": [],
					"name": "FailedInnerCall",
					"type": "error"
				},
				{
					"inputs": [
						{
							"internalType": "address",
							"name": "owner",
							"type": "address"
						}
					],
					"name": "OwnableInvalidOwner",
					"type": "error"
				},
				{
					"inputs": [
						{
							"internalType": "address",
							"name": "account",
							"type": "address"
						}
					],
					"name": "OwnableUnauthorizedAccount",
					"type": "error"
				},
				{
					"inputs": [
						{
							"internalType": "address",
							"name": "token",
							"type": "address"
						}
					],
					"name": "SafeERC20FailedOperation",
					"type": "error"
				},
				{
					"anonymous": false,
					"inputs": [
						{
							"indexed": true,
							"internalType": "address",
							"name": "previousOwner",
							"type": "address"
						},
						{
							"indexed": true,
							"internalType": "address",
							"name": "newOwner",
							"type": "address"
						}
					],
					"name": "OwnershipTransferred",
					"type": "event"
				},
				{
					"anonymous": false,
					"inputs": [
						{
							"indexed": true,
							"internalType": "bytes32",
							"name": "role",
							"type": "bytes32"
						},
						{
							"indexed": true,
							"internalType": "bytes32",
							"name": "previousAdminRole",
							"type": "bytes32"
						},
						{
							"indexed": true,
							"internalType": "bytes32",
							"name": "newAdminRole",
							"type": "bytes32"
						}
					],
					"name": "RoleAdminChanged",
					"type": "event"
				},
				{
					"anonymous": false,
					"inputs": [
						{
							"indexed": true,
							"internalType": "bytes32",
							"name": "role",
							"type": "bytes32"
						},
						{
							"indexed": true,
							"internalType": "address",
							"name": "account",
							"type": "address"
						},
						{
							"indexed": true,
							"internalType": "address",
							"name": "sender",
							"type": "address"
						}
					],
					"name": "RoleGranted",
					"type": "event"
				},
				{
					"anonymous": false,
					"inputs": [
						{
							"indexed": true,
							"internalType": "bytes32",
							"name": "role",
							"type": "bytes32"
						},
						{
							"indexed": true,
							"internalType": "address",
							"name": "account",
							"type": "address"
						},
						{
							"indexed": true,
							"internalType": "address",
							"name": "sender",
							"type": "address"
						}
					],
					"name": "RoleRevoked",
					"type": "event"
				},
				{
					"inputs": [],
					"name": "DEFAULT_ADMIN_ROLE",
					"outputs": [
						{
							"internalType": "bytes32",
							"name": "",
							"type": "bytes32"
						}
					],
					"stateMutability": "view",
					"type": "function"
				},
				{
					"inputs": [],
					"name": "WITHDRAWER_ROLE",
					"outputs": [
						{
							"internalType": "bytes32",
							"name": "",
							"type": "bytes32"
						}
					],
					"stateMutability": "view",
					"type": "function"
				},
				{
					"inputs": [
						{
							"internalType": "uint256",
							"name": "_amount",
							"type": "uint256"
						}
					],
					"name": "deposit",
					"outputs": [],
					"stateMutability": "nonpayable",
					"type": "function"
				},
				{
					"inputs": [
						{
							"internalType": "bytes32",
							"name": "role",
							"type": "bytes32"
						}
					],
					"name": "getRoleAdmin",
					"outputs": [
						{
							"internalType": "bytes32",
							"name": "",
							"type": "bytes32"
						}
					],
					"stateMutability": "view",
					"type": "function"
				},
				{
					"inputs": [
						{
							"internalType": "bytes32",
							"name": "role",
							"type": "bytes32"
						},
						{
							"internalType": "uint256",
							"name": "index",
							"type": "uint256"
						}
					],
					"name": "getRoleMember",
					"outputs": [
						{
							"internalType": "address",
							"name": "",
							"type": "address"
						}
					],
					"stateMutability": "view",
					"type": "function"
				},
				{
					"inputs": [
						{
							"internalType": "bytes32",
							"name": "role",
							"type": "bytes32"
						}
					],
					"name": "getRoleMemberCount",
					"outputs": [
						{
							"internalType": "uint256",
							"name": "",
							"type": "uint256"
						}
					],
					"stateMutability": "view",
					"type": "function"
				},
				{
					"inputs": [
						{
							"internalType": "bytes32",
							"name": "role",
							"type": "bytes32"
						},
						{
							"internalType": "address",
							"name": "account",
							"type": "address"
						}
					],
					"name": "grantRole",
					"outputs": [],
					"stateMutability": "nonpayable",
					"type": "function"
				},
				{
					"inputs": [
						{
							"internalType": "bytes32",
							"name": "role",
							"type": "bytes32"
						},
						{
							"internalType": "address",
							"name": "account",
							"type": "address"
						}
					],
					"name": "hasRole",
					"outputs": [
						{
							"internalType": "bool",
							"name": "",
							"type": "bool"
						}
					],
					"stateMutability": "view",
					"type": "function"
				},
				{
					"inputs": [],
					"name": "maxWithdrawAmount",
					"outputs": [
						{
							"internalType": "uint256",
							"name": "",
							"type": "uint256"
						}
					],
					"stateMutability": "view",
					"type": "function"
				},
				{
					"inputs": [],
					"name": "owner",
					"outputs": [
						{
							"internalType": "address",
							"name": "",
							"type": "address"
						}
					],
					"stateMutability": "view",
					"type": "function"
				},
				{
					"inputs": [],
					"name": "renounceOwnership",
					"outputs": [],
					"stateMutability": "nonpayable",
					"type": "function"
				},
				{
					"inputs": [
						{
							"internalType": "bytes32",
							"name": "role",
							"type": "bytes32"
						},
						{
							"internalType": "address",
							"name": "callerConfirmation",
							"type": "address"
						}
					],
					"name": "renounceRole",
					"outputs": [],
					"stateMutability": "nonpayable",
					"type": "function"
				},
				{
					"inputs": [
						{
							"internalType": "bytes32",
							"name": "role",
							"type": "bytes32"
						},
						{
							"internalType": "address",
							"name": "account",
							"type": "address"
						}
					],
					"name": "revokeRole",
					"outputs": [],
					"stateMutability": "nonpayable",
					"type": "function"
				},
				{
					"inputs": [
						{
							"internalType": "uint256",
							"name": "_maxAmount",
							"type": "uint256"
						}
					],
					"name": "setMaxWithdrawAmount",
					"outputs": [],
					"stateMutability": "nonpayable",
					"type": "function"
				},
				{
					"inputs": [
						{
							"internalType": "contract IERC20",
							"name": "_token",
							"type": "address"
						}
					],
					"name": "setToken",
					"outputs": [],
					"stateMutability": "nonpayable",
					"type": "function"
				},
				{
					"inputs": [
						{
							"internalType": "bool",
							"name": "_isEnable",
							"type": "bool"
						}
					],
					"name": "setWithdrawEnable",
					"outputs": [],
					"stateMutability": "nonpayable",
					"type": "function"
				},
				{
					"inputs": [
						{
							"internalType": "bytes4",
							"name": "interfaceId",
							"type": "bytes4"
						}
					],
					"name": "supportsInterface",
					"outputs": [
						{
							"internalType": "bool",
							"name": "",
							"type": "bool"
						}
					],
					"stateMutability": "view",
					"type": "function"
				},
				{
					"inputs": [
						{
							"internalType": "address",
							"name": "newOwner",
							"type": "address"
						}
					],
					"name": "transferOwnership",
					"outputs": [],
					"stateMutability": "nonpayable",
					"type": "function"
				},
				{
					"inputs": [
						{
							"internalType": "uint256",
							"name": "_amount",
							"type": "uint256"
						},
						{
							"internalType": "address",
							"name": "_to",
							"type": "address"
						}
					],
					"name": "withdraw",
					"outputs": [],
					"stateMutability": "nonpayable",
					"type": "function"
				},
				{
					"inputs": [],
					"name": "withdrawEnable",
					"outputs": [
						{
							"internalType": "bool",
							"name": "",
							"type": "bool"
						}
					],
					"stateMutability": "view",
					"type": "function"
				}
			],
			"devdoc": {
				"errors": {
					"AccessControlBadConfirmation()": [
						{
							"details": "The caller of a function is not the expected one. NOTE: Don't confuse with {AccessControlUnauthorizedAccount}."
						}
					],
					"AccessControlUnauthorizedAccount(address,bytes32)": [
						{
							"details": "The `account` is missing a role."
						}
					],
					"AddressEmptyCode(address)": [
						{
							"details": "There's no code at `target` (it is not a contract)."
						}
					],
					"AddressInsufficientBalance(address)": [
						{
							"details": "The ETH balance of the account is not enough to perform the operation."
						}
					],
					"FailedInnerCall()": [
						{
							"details": "A call to an address target failed. The target may have reverted."
						}
					],
					"OwnableInvalidOwner(address)": [
						{
							"details": "The owner is not a valid owner account. (eg. `address(0)`)"
						}
					],
					"OwnableUnauthorizedAccount(address)": [
						{
							"details": "The caller account is not authorized to perform an operation."
						}
					],
					"SafeERC20FailedOperation(address)": [
						{
							"details": "An operation with an ERC20 token failed."
						}
					]
				},
				"events": {
					"RoleAdminChanged(bytes32,bytes32,bytes32)": {
						"details": "Emitted when `newAdminRole` is set as ``role``'s admin role, replacing `previousAdminRole` `DEFAULT_ADMIN_ROLE` is the starting admin for all roles, despite {RoleAdminChanged} not being emitted signaling this."
					},
					"RoleGranted(bytes32,address,address)": {
						"details": "Emitted when `account` is granted `role`. `sender` is the account that originated the contract call, an admin role bearer except when using {AccessControl-_setupRole}."
					},
					"RoleRevoked(bytes32,address,address)": {
						"details": "Emitted when `account` is revoked `role`. `sender` is the account that originated the contract call:   - if using `revokeRole`, it is the admin role bearer   - if using `renounceRole`, it is the role bearer (i.e. `account`)"
					}
				},
				"kind": "dev",
				"methods": {
					"getRoleAdmin(bytes32)": {
						"details": "Returns the admin role that controls `role`. See {grantRole} and {revokeRole}. To change a role's admin, use {_setRoleAdmin}."
					},
					"getRoleMember(bytes32,uint256)": {
						"details": "Returns one of the accounts that have `role`. `index` must be a value between 0 and {getRoleMemberCount}, non-inclusive. Role bearers are not sorted in any particular way, and their ordering may change at any point. WARNING: When using {getRoleMember} and {getRoleMemberCount}, make sure you perform all queries on the same block. See the following https://forum.openzeppelin.com/t/iterating-over-elements-on-enumerableset-in-openzeppelin-contracts/2296[forum post] for more information."
					},
					"getRoleMemberCount(bytes32)": {
						"details": "Returns the number of accounts that have `role`. Can be used together with {getRoleMember} to enumerate all bearers of a role."
					},
					"grantRole(bytes32,address)": {
						"details": "Grants `role` to `account`. If `account` had not been already granted `role`, emits a {RoleGranted} event. Requirements: - the caller must have ``role``'s admin role. May emit a {RoleGranted} event."
					},
					"hasRole(bytes32,address)": {
						"details": "Returns `true` if `account` has been granted `role`."
					},
					"owner()": {
						"details": "Returns the address of the current owner."
					},
					"renounceOwnership()": {
						"details": "Leaves the contract without owner. It will not be possible to call `onlyOwner` functions. Can only be called by the current owner. NOTE: Renouncing ownership will leave the contract without an owner, thereby disabling any functionality that is only available to the owner."
					},
					"renounceRole(bytes32,address)": {
						"details": "Revokes `role` from the calling account. Roles are often managed via {grantRole} and {revokeRole}: this function's purpose is to provide a mechanism for accounts to lose their privileges if they are compromised (such as when a trusted device is misplaced). If the calling account had been revoked `role`, emits a {RoleRevoked} event. Requirements: - the caller must be `callerConfirmation`. May emit a {RoleRevoked} event."
					},
					"revokeRole(bytes32,address)": {
						"details": "Revokes `role` from `account`. If `account` had been granted `role`, emits a {RoleRevoked} event. Requirements: - the caller must have ``role``'s admin role. May emit a {RoleRevoked} event."
					},
					"supportsInterface(bytes4)": {
						"details": "See {IERC165-supportsInterface}."
					},
					"transferOwnership(address)": {
						"details": "Transfers ownership of the contract to a new account (`newOwner`). Can only be called by the current owner."
					}
				},
				"version": 1
			},
			"evm": {
				"assembly": "    /* \"Vault.sol\":327:1748  contract Vault is Ownable, AccessControlEnumerable {... */\n  mstore(0x40, 0x80)\n    /* \"Vault.sol\":563:682  constructor(address initialOwner) Ownable(initialOwner) {... */\n  callvalue\n  dup1\n  iszero\n  tag_1\n  jumpi\n  0x00\n  dup1\n  revert\ntag_1:\n  pop\n  mload(0x40)\n  sub(codesize, bytecodeSize)\n  dup1\n  bytecodeSize\n  dup4\n  codecopy\n  dup2\n  dup2\n  add\n  0x40\n  mstore\n  dup2\n  add\n  swap1\n  tag_2\n  swap2\n  swap1\n  tag_3\n  jump\t// in\ntag_2:\n    /* \"Vault.sol\":605:617  initialOwner */\n  dup1\n    /* \"@openzeppelin/contracts/access/Ownable.sol\":1297:1298  0 */\n  0x00\n    /* \"@openzeppelin/contracts/access/Ownable.sol\":1273:1299  initialOwner == address(0) */\n  0xffffffffffffffffffffffffffffffffffffffff\n  and\n    /* \"@openzeppelin/contracts/access/Ownable.sol\":1273:1285  initialOwner */\n  dup2\n    /* \"@openzeppelin/contracts/access/Ownable.sol\":1273:1299  initialOwner == address(0) */\n  0xffffffffffffffffffffffffffffffffffffffff\n  and\n  sub\n    /* \"@openzeppelin/contracts/access/Ownable.sol\":1269:1364  if (initialOwner == address(0)) {... */\n  tag_7\n  jumpi\n    /* \"@openzeppelin/contracts/access/Ownable.sol\":1350:1351  0 */\n  0x00\n    /* \"@openzeppelin/contracts/access/Ownable.sol\":1322:1353  OwnableInvalidOwner(address(0)) */\n  mload(0x40)\n  0x1e4fbdf700000000000000000000000000000000000000000000000000000000\n  dup2\n  mstore\n  0x04\n  add\n  tag_8\n  swap2\n  swap1\n  tag_9\n  jump\t// in\ntag_8:\n  mload(0x40)\n  dup1\n  swap2\n  sub\n  swap1\n  revert\n    /* \"@openzeppelin/contracts/access/Ownable.sol\":1269:1364  if (initialOwner == address(0)) {... */\ntag_7:\n    /* \"@openzeppelin/contracts/access/Ownable.sol\":1373:1405  _transferOwnership(initialOwner) */\n  tag_10\n    /* \"@openzeppelin/contracts/access/Ownable.sol\":1392:1404  initialOwner */\n  dup2\n    /* \"@openzeppelin/contracts/access/Ownable.sol\":1373:1391  _transferOwnership */\n  shl(0x20, tag_11)\n    /* \"@openzeppelin/contracts/access/Ownable.sol\":1373:1405  _transferOwnership(initialOwner) */\n  0x20\n  shr\n  jump\t// in\ntag_10:\n    /* \"@openzeppelin/contracts/access/Ownable.sol\":1225:1412  constructor(address initialOwner) {... */\n  pop\n    /* \"Vault.sol\":630:674  _grantRole(DEFAULT_ADMIN_ROLE, initialOwner) */\n  tag_13\n    /* \"@openzeppelin/contracts/access/AccessControl.sol\":2232:2236  0x00 */\n  0x00\n    /* \"Vault.sol\":641:659  DEFAULT_ADMIN_ROLE */\n  dup1\n  shl\n    /* \"Vault.sol\":661:673  initialOwner */\n  dup3\n    /* \"Vault.sol\":630:640  _grantRole */\n  shl(0x20, tag_14)\n    /* \"Vault.sol\":630:674  _grantRole(DEFAULT_ADMIN_ROLE, initialOwner) */\n  0x20\n  shr\n  jump\t// in\ntag_13:\n  pop\n    /* \"Vault.sol\":563:682  constructor(address initialOwner) Ownable(initialOwner) {... */\n  pop\n    /* \"Vault.sol\":327:1748  contract Vault is Ownable, AccessControlEnumerable {... */\n  jump(tag_15)\n    /* \"@openzeppelin/contracts/access/Ownable.sol\":2912:3099  function _transferOwnership(address newOwner) internal virtual {... */\ntag_11:\n    /* \"@openzeppelin/contracts/access/Ownable.sol\":2985:3001  address oldOwner */\n  0x00\n    /* \"@openzeppelin/contracts/access/Ownable.sol\":3004:3010  _owner */\n  dup1\n  0x00\n  swap1\n  sload\n  swap1\n  0x0100\n  exp\n  swap1\n  div\n  0xffffffffffffffffffffffffffffffffffffffff\n  and\n    /* \"@openzeppelin/contracts/access/Ownable.sol\":2985:3010  address oldOwner = _owner */\n  swap1\n  pop\n    /* \"@openzeppelin/contracts/access/Ownable.sol\":3029:3037  newOwner */\n  dup2\n    /* \"@openzeppelin/contracts/access/Ownable.sol\":3020:3026  _owner */\n  0x00\n  dup1\n    /* \"@openzeppelin/contracts/access/Ownable.sol\":3020:3037  _owner = newOwner */\n  0x0100\n  exp\n  dup2\n  sload\n  dup2\n  0xffffffffffffffffffffffffffffffffffffffff\n  mul\n  not\n  and\n  swap1\n  dup4\n  0xffffffffffffffffffffffffffffffffffffffff\n  and\n  mul\n  or\n  swap1\n  sstore\n  pop\n    /* \"@openzeppelin/contracts/access/Ownable.sol\":3083:3091  newOwner */\n  dup2\n    /* \"@openzeppelin/contracts/access/Ownable.sol\":3052:3092  OwnershipTransferred(oldOwner, newOwner) */\n  0xffffffffffffffffffffffffffffffffffffffff\n  and\n    /* \"@openzeppelin/contracts/access/Ownable.sol\":3073:3081  oldOwner */\n  dup2\n    /* \"@openzeppelin/contracts/access/Ownable.sol\":3052:3092  OwnershipTransferred(oldOwner, newOwner) */\n  0xffffffffffffffffffffffffffffffffffffffff\n  and\n  0x8be0079c531659141344cd1fd0a4f28419497f9722a3daafe3b4186f6b6457e0\n  mload(0x40)\n  mload(0x40)\n  dup1\n  swap2\n  sub\n  swap1\n  log3\n    /* \"@openzeppelin/contracts/access/Ownable.sol\":2975:3099  {... */\n  pop\n    /* \"@openzeppelin/contracts/access/Ownable.sol\":2912:3099  function _transferOwnership(address newOwner) internal virtual {... */\n  pop\n  jump\t// out\n    /* \"@openzeppelin/contracts/access/extensions/AccessControlEnumerable.sol\":2069:2326  function _grantRole(bytes32 role, address account) internal virtual override returns (bool) {... */\ntag_14:\n    /* \"@openzeppelin/contracts/access/extensions/AccessControlEnumerable.sol\":2155:2159  bool */\n  0x00\n    /* \"@openzeppelin/contracts/access/extensions/AccessControlEnumerable.sol\":2171:2183  bool granted */\n  dup1\n    /* \"@openzeppelin/contracts/access/extensions/AccessControlEnumerable.sol\":2186:2217  super._grantRole(role, account) */\n  tag_18\n    /* \"@openzeppelin/contracts/access/extensions/AccessControlEnumerable.sol\":2203:2207  role */\n  dup5\n    /* \"@openzeppelin/contracts/access/extensions/AccessControlEnumerable.sol\":2209:2216  account */\n  dup5\n    /* \"@openzeppelin/contracts/access/extensions/AccessControlEnumerable.sol\":2186:2202  super._grantRole */\n  shl(0x20, tag_19)\n    /* \"@openzeppelin/contracts/access/extensions/AccessControlEnumerable.sol\":2186:2217  super._grantRole(role, account) */\n  0x20\n  shr\n  jump\t// in\ntag_18:\n    /* \"@openzeppelin/contracts/access/extensions/AccessControlEnumerable.sol\":2171:2217  bool granted = super._grantRole(role, account) */\n  swap1\n  pop\n    /* \"@openzeppelin/contracts/access/extensions/AccessControlEnumerable.sol\":2231:2238  granted */\n  dup1\n    /* \"@openzeppelin/contracts/access/extensions/AccessControlEnumerable.sol\":2227:2296  if (granted) {... */\n  iszero\n  tag_20\n  jumpi\n    /* \"@openzeppelin/contracts/access/extensions/AccessControlEnumerable.sol\":2254:2285  _roleMembers[role].add(account) */\n  tag_21\n    /* \"@openzeppelin/contracts/access/extensions/AccessControlEnumerable.sol\":2277:2284  account */\n  dup4\n    /* \"@openzeppelin/contracts/access/extensions/AccessControlEnumerable.sol\":2254:2266  _roleMembers */\n  0x02\n    /* \"@openzeppelin/contracts/access/extensions/AccessControlEnumerable.sol\":2254:2272  _roleMembers[role] */\n  0x00\n    /* \"@openzeppelin/contracts/access/extensions/AccessControlEnumerable.sol\":2267:2271  role */\n  dup8\n    /* \"@openzeppelin/contracts/access/extensions/AccessControlEnumerable.sol\":2254:2272  _roleMembers[role] */\n  dup2\n  mstore\n  0x20\n  add\n  swap1\n  dup2\n  mstore\n  0x20\n  add\n  0x00\n  keccak256\n    /* \"@openzeppelin/contracts/access/extensions/AccessControlEnumerable.sol\":2254:2276  _roleMembers[role].add */\n  shl(0x20, tag_22)\n  swap1\n    /* \"@openzeppelin/contracts/access/extensions/AccessControlEnumerable.sol\":2254:2285  _roleMembers[role].add(account) */\n  swap2\n  swap1\n  0x20\n  shr\n  jump\t// in\ntag_21:\n  pop\n    /* \"@openzeppelin/contracts/access/extensions/AccessControlEnumerable.sol\":2227:2296  if (granted) {... */\ntag_20:\n    /* \"@openzeppelin/contracts/access/extensions/AccessControlEnumerable.sol\":2312:2319  granted */\n  dup1\n    /* \"@openzeppelin/contracts/access/extensions/AccessControlEnumerable.sol\":2305:2319  return granted */\n  swap2\n  pop\n  pop\n    /* \"@openzeppelin/contracts/access/extensions/AccessControlEnumerable.sol\":2069:2326  function _grantRole(bytes32 role, address account) internal virtual override returns (bool) {... */\n  swap3\n  swap2\n  pop\n  pop\n  jump\t// out\n    /* \"@openzeppelin/contracts/access/AccessControl.sol\":6179:6495  function _grantRole(bytes32 role, address account) internal virtual returns (bool) {... */\ntag_19:\n    /* \"@openzeppelin/contracts/access/AccessControl.sol\":6256:6260  bool */\n  0x00\n    /* \"@openzeppelin/contracts/access/AccessControl.sol\":6277:6299  hasRole(role, account) */\n  tag_24\n    /* \"@openzeppelin/contracts/access/AccessControl.sol\":6285:6289  role */\n  dup4\n    /* \"@openzeppelin/contracts/access/AccessControl.sol\":6291:6298  account */\n  dup4\n    /* \"@openzeppelin/contracts/access/AccessControl.sol\":6277:6284  hasRole */\n  shl(0x20, tag_25)\n    /* \"@openzeppelin/contracts/access/AccessControl.sol\":6277:6299  hasRole(role, account) */\n  0x20\n  shr\n  jump\t// in\ntag_24:\n    /* \"@openzeppelin/contracts/access/AccessControl.sol\":6272:6489  if (!hasRole(role, account)) {... */\n  tag_26\n  jumpi\n    /* \"@openzeppelin/contracts/access/AccessControl.sol\":6347:6351  true */\n  0x01\n    /* \"@openzeppelin/contracts/access/AccessControl.sol\":6315:6321  _roles */\n  dup1\n    /* \"@openzeppelin/contracts/access/AccessControl.sol\":6315:6327  _roles[role] */\n  0x00\n    /* \"@openzeppelin/contracts/access/AccessControl.sol\":6322:6326  role */\n  dup6\n    /* \"@openzeppelin/contracts/access/AccessControl.sol\":6315:6327  _roles[role] */\n  dup2\n  mstore\n  0x20\n  add\n  swap1\n  dup2\n  mstore\n  0x20\n  add\n  0x00\n  keccak256\n    /* \"@openzeppelin/contracts/access/AccessControl.sol\":6315:6335  _roles[role].hasRole */\n  0x00\n  add\n    /* \"@openzeppelin/contracts/access/AccessControl.sol\":6315:6344  _roles[role].hasRole[account] */\n  0x00\n    /* \"@openzeppelin/contracts/access/AccessControl.sol\":6336:6343  account */\n  dup5\n    /* \"@openzeppelin/contracts/access/AccessControl.sol\":6315:6344  _roles[role].hasRole[account] */\n  0xffffffffffffffffffffffffffffffffffffffff\n  and\n  0xffffffffffffffffffffffffffffffffffffffff\n  and\n  dup2\n  mstore\n  0x20\n  add\n  swap1\n  dup2\n  mstore\n  0x20\n  add\n  0x00\n  keccak256\n  0x00\n    /* \"@openzeppelin/contracts/access/AccessControl.sol\":6315:6351  _roles[role].hasRole[account] = true */\n  0x0100\n  exp\n  dup2\n  sload\n  dup2\n  0xff\n  mul\n  not\n  and\n  swap1\n  dup4\n  iszero\n  iszero\n  mul\n  or\n  swap1\n  sstore\n  pop\n    /* \"@openzeppelin/contracts/access/AccessControl.sol\":6397:6409  _msgSender() */\n  tag_27\n    /* \"@openzeppelin/contracts/access/AccessControl.sol\":6397:6407  _msgSender */\n  shl(0x20, tag_28)\n    /* \"@openzeppelin/contracts/access/AccessControl.sol\":6397:6409  _msgSender() */\n  0x20\n  shr\n  jump\t// in\ntag_27:\n    /* \"@openzeppelin/contracts/access/AccessControl.sol\":6370:6410  RoleGranted(role, account, _msgSender()) */\n  0xffffffffffffffffffffffffffffffffffffffff\n  and\n    /* \"@openzeppelin/contracts/access/AccessControl.sol\":6388:6395  account */\n  dup3\n    /* \"@openzeppelin/contracts/access/AccessControl.sol\":6370:6410  RoleGranted(role, account, _msgSender()) */\n  0xffffffffffffffffffffffffffffffffffffffff\n  and\n    /* \"@openzeppelin/contracts/access/AccessControl.sol\":6382:6386  role */\n  dup5\n    /* \"@openzeppelin/contracts/access/AccessControl.sol\":6370:6410  RoleGranted(role, account, _msgSender()) */\n  0x2f8788117e7eff1d82e926ec794901d17c78024a50270940304540a733656f0d\n  mload(0x40)\n  mload(0x40)\n  dup1\n  swap2\n  sub\n  swap1\n  log4\n    /* \"@openzeppelin/contracts/access/AccessControl.sol\":6431:6435  true */\n  0x01\n    /* \"@openzeppelin/contracts/access/AccessControl.sol\":6424:6435  return true */\n  swap1\n  pop\n  jump(tag_23)\n    /* \"@openzeppelin/contracts/access/AccessControl.sol\":6272:6489  if (!hasRole(role, account)) {... */\ntag_26:\n    /* \"@openzeppelin/contracts/access/AccessControl.sol\":6473:6478  false */\n  0x00\n    /* \"@openzeppelin/contracts/access/AccessControl.sol\":6466:6478  return false */\n  swap1\n  pop\n    /* \"@openzeppelin/contracts/access/AccessControl.sol\":6179:6495  function _grantRole(bytes32 role, address account) internal virtual returns (bool) {... */\ntag_23:\n  swap3\n  swap2\n  pop\n  pop\n  jump\t// out\n    /* \"@openzeppelin/contracts/utils/structs/EnumerableSet.sol\":8316:8466  function add(AddressSet storage set, address value) internal returns (bool) {... */\ntag_22:\n    /* \"@openzeppelin/contracts/utils/structs/EnumerableSet.sol\":8386:8390  bool */\n  0x00\n    /* \"@openzeppelin/contracts/utils/structs/EnumerableSet.sol\":8409:8459  _add(set._inner, bytes32(uint256(uint160(value)))) */\n  tag_31\n    /* \"@openzeppelin/contracts/utils/structs/EnumerableSet.sol\":8414:8417  set */\n  dup4\n    /* \"@openzeppelin/contracts/utils/structs/EnumerableSet.sol\":8414:8424  set._inner */\n  0x00\n  add\n    /* \"@openzeppelin/contracts/utils/structs/EnumerableSet.sol\":8450:8455  value */\n  dup4\n    /* \"@openzeppelin/contracts/utils/structs/EnumerableSet.sol\":8434:8457  uint256(uint160(value)) */\n  0xffffffffffffffffffffffffffffffffffffffff\n  and\n    /* \"@openzeppelin/contracts/utils/structs/EnumerableSet.sol\":8426:8458  bytes32(uint256(uint160(value))) */\n  0x00\n  shl\n    /* \"@openzeppelin/contracts/utils/structs/EnumerableSet.sol\":8409:8413  _add */\n  shl(0x20, tag_32)\n    /* \"@openzeppelin/contracts/utils/structs/EnumerableSet.sol\":8409:8459  _add(set._inner, bytes32(uint256(uint160(value)))) */\n  0x20\n  shr\n  jump\t// in\ntag_31:\n    /* \"@openzeppelin/contracts/utils/structs/EnumerableSet.sol\":8402:8459  return _add(set._inner, bytes32(uint256(uint160(value)))) */\n  swap1\n  pop\n    /* \"@openzeppelin/contracts/utils/structs/EnumerableSet.sol\":8316:8466  function add(AddressSet storage set, address value) internal returns (bool) {... */\n  swap3\n  swap2\n  pop\n  pop\n  jump\t// out\n    /* \"@openzeppelin/contracts/access/AccessControl.sol\":2854:2990  function hasRole(bytes32 role, address account) public view virtual returns (bool) {... */\ntag_25:\n    /* \"@openzeppelin/contracts/access/AccessControl.sol\":2931:2935  bool */\n  0x00\n    /* \"@openzeppelin/contracts/access/AccessControl.sol\":2954:2960  _roles */\n  0x01\n    /* \"@openzeppelin/contracts/access/AccessControl.sol\":2954:2966  _roles[role] */\n  0x00\n    /* \"@openzeppelin/contracts/access/AccessControl.sol\":2961:2965  role */\n  dup5\n    /* \"@openzeppelin/contracts/access/AccessControl.sol\":2954:2966  _roles[role] */\n  dup2\n  mstore\n  0x20\n  add\n  swap1\n  dup2\n  mstore\n  0x20\n  add\n  0x00\n  keccak256\n    /* \"@openzeppelin/contracts/access/AccessControl.sol\":2954:2974  _roles[role].hasRole */\n  0x00\n  add\n    /* \"@openzeppelin/contracts/access/AccessControl.sol\":2954:2983  _roles[role].hasRole[account] */\n  0x00\n    /* \"@openzeppelin/contracts/access/AccessControl.sol\":2975:2982  account */\n  dup4\n    /* \"@openzeppelin/contracts/access/AccessControl.sol\":2954:2983  _roles[role].hasRole[account] */\n  0xffffffffffffffffffffffffffffffffffffffff\n  and\n  0xffffffffffffffffffffffffffffffffffffffff\n  and\n  dup2\n  mstore\n  0x20\n  add\n  swap1\n  dup2\n  mstore\n  0x20\n  add\n  0x00\n  keccak256\n  0x00\n  swap1\n  sload\n  swap1\n  0x0100\n  exp\n  swap1\n  div\n  0xff\n  and\n    /* \"@openzeppelin/contracts/access/AccessControl.sol\":2947:2983  return _roles[role].hasRole[account] */\n  swap1\n  pop\n    /* \"@openzeppelin/contracts/access/AccessControl.sol\":2854:2990  function hasRole(bytes32 role, address account) public view virtual returns (bool) {... */\n  swap3\n  swap2\n  pop\n  pop\n  jump\t// out\n    /* \"@openzeppelin/contracts/utils/Context.sol\":656:752  function _msgSender() internal view virtual returns (address) {... */\ntag_28:\n    /* \"@openzeppelin/contracts/utils/Context.sol\":709:716  address */\n  0x00\n    /* \"@openzeppelin/contracts/utils/Context.sol\":735:745  msg.sender */\n  caller\n    /* \"@openzeppelin/contracts/utils/Context.sol\":728:745  return msg.sender */\n  swap1\n  pop\n    /* \"@openzeppelin/contracts/utils/Context.sol\":656:752  function _msgSender() internal view virtual returns (address) {... */\n  swap1\n  jump\t// out\n    /* \"@openzeppelin/contracts/utils/structs/EnumerableSet.sol\":2241:2647  function _add(Set storage set, bytes32 value) private returns (bool) {... */\ntag_32:\n    /* \"@openzeppelin/contracts/utils/structs/EnumerableSet.sol\":2304:2308  bool */\n  0x00\n    /* \"@openzeppelin/contracts/utils/structs/EnumerableSet.sol\":2325:2346  _contains(set, value) */\n  tag_36\n    /* \"@openzeppelin/contracts/utils/structs/EnumerableSet.sol\":2335:2338  set */\n  dup4\n    /* \"@openzeppelin/contracts/utils/structs/EnumerableSet.sol\":2340:2345  value */\n  dup4\n    /* \"@openzeppelin/contracts/utils/structs/EnumerableSet.sol\":2325:2334  _contains */\n  shl(0x20, tag_37)\n    /* \"@openzeppelin/contracts/utils/structs/EnumerableSet.sol\":2325:2346  _contains(set, value) */\n  0x20\n  shr\n  jump\t// in\ntag_36:\n    /* \"@openzeppelin/contracts/utils/structs/EnumerableSet.sol\":2320:2641  if (!_contains(set, value)) {... */\n  tag_38\n  jumpi\n    /* \"@openzeppelin/contracts/utils/structs/EnumerableSet.sol\":2362:2365  set */\n  dup3\n    /* \"@openzeppelin/contracts/utils/structs/EnumerableSet.sol\":2362:2373  set._values */\n  0x00\n  add\n    /* \"@openzeppelin/contracts/utils/structs/EnumerableSet.sol\":2379:2384  value */\n  dup3\n    /* \"@openzeppelin/contracts/utils/structs/EnumerableSet.sol\":2362:2385  set._values.push(value) */\n  swap1\n  dup1\n  0x01\n  dup2\n  sload\n  add\n  dup1\n  dup3\n  sstore\n  dup1\n  swap2\n  pop\n  pop\n  0x01\n  swap1\n  sub\n  swap1\n  0x00\n  mstore\n  keccak256(0x00, 0x20)\n  add\n  0x00\n  swap1\n  swap2\n  swap1\n  swap2\n  swap1\n  swap2\n  pop\n  sstore\n    /* \"@openzeppelin/contracts/utils/structs/EnumerableSet.sol\":2544:2547  set */\n  dup3\n    /* \"@openzeppelin/contracts/utils/structs/EnumerableSet.sol\":2544:2555  set._values */\n  0x00\n  add\n    /* \"@openzeppelin/contracts/utils/structs/EnumerableSet.sol\":2544:2562  set._values.length */\n  dup1\n  sload\n  swap1\n  pop\n    /* \"@openzeppelin/contracts/utils/structs/EnumerableSet.sol\":2520:2523  set */\n  dup4\n    /* \"@openzeppelin/contracts/utils/structs/EnumerableSet.sol\":2520:2534  set._positions */\n  0x01\n  add\n    /* \"@openzeppelin/contracts/utils/structs/EnumerableSet.sol\":2520:2541  set._positions[value] */\n  0x00\n    /* \"@openzeppelin/contracts/utils/structs/EnumerableSet.sol\":2535:2540  value */\n  dup5\n    /* \"@openzeppelin/contracts/utils/structs/EnumerableSet.sol\":2520:2541  set._positions[value] */\n  dup2\n  mstore\n  0x20\n  add\n  swap1\n  dup2\n  mstore\n  0x20\n  add\n  0x00\n  keccak256\n    /* \"@openzeppelin/contracts/utils/structs/EnumerableSet.sol\":2520:2562  set._positions[value] = set._values.length */\n  dup2\n  swap1\n  sstore\n  pop\n    /* \"@openzeppelin/contracts/utils/structs/EnumerableSet.sol\":2583:2587  true */\n  0x01\n    /* \"@openzeppelin/contracts/utils/structs/EnumerableSet.sol\":2576:2587  return true */\n  swap1\n  pop\n  jump(tag_35)\n    /* \"@openzeppelin/contracts/utils/structs/EnumerableSet.sol\":2320:2641  if (!_contains(set, value)) {... */\ntag_38:\n    /* \"@openzeppelin/contracts/utils/structs/EnumerableSet.sol\":2625:2630  false */\n  0x00\n    /* \"@openzeppelin/contracts/utils/structs/EnumerableSet.sol\":2618:2630  return false */\n  swap1\n  pop\n    /* \"@openzeppelin/contracts/utils/structs/EnumerableSet.sol\":2241:2647  function _add(Set storage set, bytes32 value) private returns (bool) {... */\ntag_35:\n  swap3\n  swap2\n  pop\n  pop\n  jump\t// out\n    /* \"@openzeppelin/contracts/utils/structs/EnumerableSet.sol\":4264:4393  function _contains(Set storage set, bytes32 value) private view returns (bool) {... */\ntag_37:\n    /* \"@openzeppelin/contracts/utils/structs/EnumerableSet.sol\":4337:4341  bool */\n  0x00\n    /* \"@openzeppelin/contracts/utils/structs/EnumerableSet.sol\":4385:4386  0 */\n  dup1\n    /* \"@openzeppelin/contracts/utils/structs/EnumerableSet.sol\":4360:4363  set */\n  dup4\n    /* \"@openzeppelin/contracts/utils/structs/EnumerableSet.sol\":4360:4374  set._positions */\n  0x01\n  add\n    /* \"@openzeppelin/contracts/utils/structs/EnumerableSet.sol\":4360:4381  set._positions[value] */\n  0x00\n    /* \"@openzeppelin/contracts/utils/structs/EnumerableSet.sol\":4375:4380  value */\n  dup5\n    /* \"@openzeppelin/contracts/utils/structs/EnumerableSet.sol\":4360:4381  set._positions[value] */\n  dup2\n  mstore\n  0x20\n  add\n  swap1\n  dup2\n  mstore\n  0x20\n  add\n  0x00\n  keccak256\n  sload\n    /* \"@openzeppelin/contracts/utils/structs/EnumerableSet.sol\":4360:4386  set._positions[value] != 0 */\n  eq\n  iszero\n    /* \"@openzeppelin/contracts/utils/structs/EnumerableSet.sol\":4353:4386  return set._positions[value] != 0 */\n  swap1\n  pop\n    /* \"@openzeppelin/contracts/utils/structs/EnumerableSet.sol\":4264:4393  function _contains(Set storage set, bytes32 value) private view returns (bool) {... */\n  swap3\n  swap2\n  pop\n  pop\n  jump\t// out\n    /* \"#utility.yul\":88:205   */\ntag_43:\n    /* \"#utility.yul\":197:198   */\n  0x00\n    /* \"#utility.yul\":194:195   */\n  dup1\n    /* \"#utility.yul\":187:199   */\n  revert\n    /* \"#utility.yul\":334:460   */\ntag_45:\n    /* \"#utility.yul\":371:378   */\n  0x00\n    /* \"#utility.yul\":411:453   */\n  0xffffffffffffffffffffffffffffffffffffffff\n    /* \"#utility.yul\":404:409   */\n  dup3\n    /* \"#utility.yul\":400:454   */\n  and\n    /* \"#utility.yul\":389:454   */\n  swap1\n  pop\n    /* \"#utility.yul\":334:460   */\n  swap2\n  swap1\n  pop\n  jump\t// out\n    /* \"#utility.yul\":466:562   */\ntag_46:\n    /* \"#utility.yul\":503:510   */\n  0x00\n    /* \"#utility.yul\":532:556   */\n  tag_56\n    /* \"#utility.yul\":550:555   */\n  dup3\n    /* \"#utility.yul\":532:556   */\n  tag_45\n  jump\t// in\ntag_56:\n    /* \"#utility.yul\":521:556   */\n  swap1\n  pop\n    /* \"#utility.yul\":466:562   */\n  swap2\n  swap1\n  pop\n  jump\t// out\n    /* \"#utility.yul\":568:690   */\ntag_47:\n    /* \"#utility.yul\":641:665   */\n  tag_58\n    /* \"#utility.yul\":659:664   */\n  dup2\n    /* \"#utility.yul\":641:665   */\n  tag_46\n  jump\t// in\ntag_58:\n    /* \"#utility.yul\":634:639   */\n  dup2\n    /* \"#utility.yul\":631:666   */\n  eq\n    /* \"#utility.yul\":621:684   */\n  tag_59\n  jumpi\n    /* \"#utility.yul\":680:681   */\n  0x00\n    /* \"#utility.yul\":677:678   */\n  dup1\n    /* \"#utility.yul\":670:682   */\n  revert\n    /* \"#utility.yul\":621:684   */\ntag_59:\n    /* \"#utility.yul\":568:690   */\n  pop\n  jump\t// out\n    /* \"#utility.yul\":696:839   */\ntag_48:\n    /* \"#utility.yul\":753:758   */\n  0x00\n    /* \"#utility.yul\":784:790   */\n  dup2\n    /* \"#utility.yul\":778:791   */\n  mload\n    /* \"#utility.yul\":769:791   */\n  swap1\n  pop\n    /* \"#utility.yul\":800:833   */\n  tag_61\n    /* \"#utility.yul\":827:832   */\n  dup2\n    /* \"#utility.yul\":800:833   */\n  tag_47\n  jump\t// in\ntag_61:\n    /* \"#utility.yul\":696:839   */\n  swap3\n  swap2\n  pop\n  pop\n  jump\t// out\n    /* \"#utility.yul\":845:1196   */\ntag_3:\n    /* \"#utility.yul\":915:921   */\n  0x00\n    /* \"#utility.yul\":964:966   */\n  0x20\n    /* \"#utility.yul\":952:961   */\n  dup3\n    /* \"#utility.yul\":943:950   */\n  dup5\n    /* \"#utility.yul\":939:962   */\n  sub\n    /* \"#utility.yul\":935:967   */\n  slt\n    /* \"#utility.yul\":932:1051   */\n  iszero\n  tag_63\n  jumpi\n    /* \"#utility.yul\":970:1049   */\n  tag_64\n  tag_43\n  jump\t// in\ntag_64:\n    /* \"#utility.yul\":932:1051   */\ntag_63:\n    /* \"#utility.yul\":1090:1091   */\n  0x00\n    /* \"#utility.yul\":1115:1179   */\n  tag_65\n    /* \"#utility.yul\":1171:1178   */\n  dup5\n    /* \"#utility.yul\":1162:1168   */\n  dup3\n    /* \"#utility.yul\":1151:1160   */\n  dup6\n    /* \"#utility.yul\":1147:1169   */\n  add\n    /* \"#utility.yul\":1115:1179   */\n  tag_48\n  jump\t// in\ntag_65:\n    /* \"#utility.yul\":1105:1179   */\n  swap2\n  pop\n    /* \"#utility.yul\":1061:1189   */\n  pop\n    /* \"#utility.yul\":845:1196   */\n  swap3\n  swap2\n  pop\n  pop\n  jump\t// out\n    /* \"#utility.yul\":1202:1320   */\ntag_49:\n    /* \"#utility.yul\":1289:1313   */\n  tag_67\n    /* \"#utility.yul\":1307:1312   */\n  dup2\n    /* \"#utility.yul\":1289:1313   */\n  tag_46\n  jump\t// in\ntag_67:\n    /* \"#utility.yul\":1284:1287   */\n  dup3\n    /* \"#utility.yul\":1277:1314   */\n  mstore\n    /* \"#utility.yul\":1202:1320   */\n  pop\n  pop\n  jump\t// out\n    /* \"#utility.yul\":1326:1548   */\ntag_9:\n    /* \"#utility.yul\":1419:1423   */\n  0x00\n    /* \"#utility.yul\":1457:1459   */\n  0x20\n    /* \"#utility.yul\":1446:1455   */\n  dup3\n    /* \"#utility.yul\":1442:1460   */\n  add\n    /* \"#utility.yul\":1434:1460   */\n  swap1\n  pop\n    /* \"#utility.yul\":1470:1541   */\n  tag_69\n    /* \"#utility.yul\":1538:1539   */\n  0x00\n    /* \"#utility.yul\":1527:1536   */\n  dup4\n    /* \"#utility.yul\":1523:1540   */\n  add\n    /* \"#utility.yul\":1514:1520   */\n  dup5\n    /* \"#utility.yul\":1470:1541   */\n  tag_49\n  jump\t// in\ntag_69:\n    /* \"#utility.yul\":1326:1548   */\n  swap3\n  swap2\n  pop\n  pop\n  jump\t// out\n    /* \"Vault.sol\":327:1748  contract Vault is Ownable, AccessControlEnumerable {... */\ntag_15:\n  dataSize(sub_0)\n  dup1\n  dataOffset(sub_0)\n  0x00\n  codecopy\n  0x00\n  return\nstop\n\nsub_0: assembly {\n        /* \"Vault.sol\":327:1748  contract Vault is Ownable, AccessControlEnumerable {... */\n      mstore(0x40, 0x80)\n      callvalue\n      dup1\n      iszero\n      tag_1\n      jumpi\n      0x00\n      dup1\n      revert\n    tag_1:\n      pop\n      jumpi(tag_2, lt(calldatasize, 0x04))\n      shr(0xe0, calldataload(0x00))\n      dup1\n      0x9010d07c\n      gt\n      tag_23\n      jumpi\n      dup1\n      0xca15c873\n      gt\n      tag_24\n      jumpi\n      dup1\n      0xca15c873\n      eq\n      tag_18\n      jumpi\n      dup1\n      0xd547741f\n      eq\n      tag_19\n      jumpi\n      dup1\n      0xdf74e028\n      eq\n      tag_20\n      jumpi\n      dup1\n      0xf2fde38b\n      eq\n      tag_21\n      jumpi\n      dup1\n      0xf516440c\n      eq\n      tag_22\n      jumpi\n      jump(tag_2)\n    tag_24:\n      dup1\n      0x9010d07c\n      eq\n      tag_13\n      jumpi\n      dup1\n      0x91d14854\n      eq\n      tag_14\n      jumpi\n      dup1\n      0xa217fddf\n      eq\n      tag_15\n      jumpi\n      dup1\n      0xb5b68afe\n      eq\n      tag_16\n      jumpi\n      dup1\n      0xb6b55f25\n      eq\n      tag_17\n      jumpi\n      jump(tag_2)\n    tag_23:\n      dup1\n      0x36568abe\n      gt\n      tag_25\n      jumpi\n      dup1\n      0x36568abe\n      eq\n      tag_8\n      jumpi\n      dup1\n      0x715018a6\n      eq\n      tag_9\n      jumpi\n      dup1\n      0x827a560b\n      eq\n      tag_10\n      jumpi\n      dup1\n      0x85f438c1\n      eq\n      tag_11\n      jumpi\n      dup1\n      0x8da5cb5b\n      eq\n      tag_12\n      jumpi\n      jump(tag_2)\n    tag_25:\n      dup1\n      0xf714ce\n      eq\n      tag_3\n      jumpi\n      dup1\n      0x01ffc9a7\n      eq\n      tag_4\n      jumpi\n      dup1\n      0x144fa6d7\n      eq\n      tag_5\n      jumpi\n      dup1\n      0x248a9ca3\n      eq\n      tag_6\n      jumpi\n      dup1\n      0x2f2ff15d\n      eq\n      tag_7\n      jumpi\n    tag_2:\n      0x00\n      dup1\n      revert\n        /* \"Vault.sol\":1018:1273  function withdraw(uint256 _amount, address _to) external onlyWithdrawer {... */\n    tag_3:\n      tag_26\n      0x04\n      dup1\n      calldatasize\n      sub\n      dup2\n      add\n      swap1\n      tag_27\n      swap2\n      swap1\n      tag_28\n      jump\t// in\n    tag_27:\n      tag_29\n      jump\t// in\n    tag_26:\n      stop\n        /* \"@openzeppelin/contracts/access/extensions/AccessControlEnumerable.sol\":729:941  function supportsInterface(bytes4 interfaceId) public view virtual override returns (bool) {... */\n    tag_4:\n      tag_30\n      0x04\n      dup1\n      calldatasize\n      sub\n      dup2\n      add\n      swap1\n      tag_31\n      swap2\n      swap1\n      tag_32\n      jump\t// in\n    tag_31:\n      tag_33\n      jump\t// in\n    tag_30:\n      mload(0x40)\n      tag_34\n      swap2\n      swap1\n      tag_35\n      jump\t// in\n    tag_34:\n      mload(0x40)\n      dup1\n      swap2\n      sub\n      swap1\n      return\n        /* \"Vault.sol\":927:1010  function setToken(IERC20 _token) public onlyOwner {... */\n    tag_5:\n      tag_36\n      0x04\n      dup1\n      calldatasize\n      sub\n      dup2\n      add\n      swap1\n      tag_37\n      swap2\n      swap1\n      tag_38\n      jump\t// in\n    tag_37:\n      tag_39\n      jump\t// in\n    tag_36:\n      stop\n        /* \"@openzeppelin/contracts/access/AccessControl.sol\":3810:3930  function getRoleAdmin(bytes32 role) public view virtual returns (bytes32) {... */\n    tag_6:\n      tag_40\n      0x04\n      dup1\n      calldatasize\n      sub\n      dup2\n      add\n      swap1\n      tag_41\n      swap2\n      swap1\n      tag_42\n      jump\t// in\n    tag_41:\n      tag_43\n      jump\t// in\n    tag_40:\n      mload(0x40)\n      tag_44\n      swap2\n      swap1\n      tag_45\n      jump\t// in\n    tag_44:\n      mload(0x40)\n      dup1\n      swap2\n      sub\n      swap1\n      return\n        /* \"@openzeppelin/contracts/access/AccessControl.sol\":4226:4362  function grantRole(bytes32 role, address account) public virtual onlyRole(getRoleAdmin(role)) {... */\n    tag_7:\n      tag_46\n      0x04\n      dup1\n      calldatasize\n      sub\n      dup2\n      add\n      swap1\n      tag_47\n      swap2\n      swap1\n      tag_48\n      jump\t// in\n    tag_47:\n      tag_49\n      jump\t// in\n    tag_46:\n      stop\n        /* \"@openzeppelin/contracts/access/AccessControl.sol\":5328:5573  function renounceRole(bytes32 role, address callerConfirmation) public virtual {... */\n    tag_8:\n      tag_50\n      0x04\n      dup1\n      calldatasize\n      sub\n      dup2\n      add\n      swap1\n      tag_51\n      swap2\n      swap1\n      tag_48\n      jump\t// in\n    tag_51:\n      tag_52\n      jump\t// in\n    tag_50:\n      stop\n        /* \"@openzeppelin/contracts/access/Ownable.sol\":2293:2394  function renounceOwnership() public virtual onlyOwner {... */\n    tag_9:\n      tag_53\n      tag_54\n      jump\t// in\n    tag_53:\n      stop\n        /* \"Vault.sol\":690:795  function setWithdrawEnable(bool _isEnable) public onlyOwner {... */\n    tag_10:\n      tag_55\n      0x04\n      dup1\n      calldatasize\n      sub\n      dup2\n      add\n      swap1\n      tag_56\n      swap2\n      swap1\n      tag_57\n      jump\t// in\n    tag_56:\n      tag_58\n      jump\t// in\n    tag_55:\n      stop\n        /* \"Vault.sol\":484:554  bytes32 public constant WITHDRAWER_ROLE = keccak256(\"WITHDRAWER_ROLE\") */\n    tag_11:\n      tag_59\n      tag_60\n      jump\t// in\n    tag_59:\n      mload(0x40)\n      tag_61\n      swap2\n      swap1\n      tag_45\n      jump\t// in\n    tag_61:\n      mload(0x40)\n      dup1\n      swap2\n      sub\n      swap1\n      return\n        /* \"@openzeppelin/contracts/access/Ownable.sol\":1638:1723  function owner() public view virtual returns (address) {... */\n    tag_12:\n      tag_62\n      tag_63\n      jump\t// in\n    tag_62:\n      mload(0x40)\n      tag_64\n      swap2\n      swap1\n      tag_65\n      jump\t// in\n    tag_64:\n      mload(0x40)\n      dup1\n      swap2\n      sub\n      swap1\n      return\n        /* \"@openzeppelin/contracts/access/extensions/AccessControlEnumerable.sol\":1526:1668  function getRoleMember(bytes32 role, uint256 index) public view virtual returns (address) {... */\n    tag_13:\n      tag_66\n      0x04\n      dup1\n      calldatasize\n      sub\n      dup2\n      add\n      swap1\n      tag_67\n      swap2\n      swap1\n      tag_68\n      jump\t// in\n    tag_67:\n      tag_69\n      jump\t// in\n    tag_66:\n      mload(0x40)\n      tag_70\n      swap2\n      swap1\n      tag_65\n      jump\t// in\n    tag_70:\n      mload(0x40)\n      dup1\n      swap2\n      sub\n      swap1\n      return\n        /* \"@openzeppelin/contracts/access/AccessControl.sol\":2854:2990  function hasRole(bytes32 role, address account) public view virtual returns (bool) {... */\n    tag_14:\n      tag_71\n      0x04\n      dup1\n      calldatasize\n      sub\n      dup2\n      add\n      swap1\n      tag_72\n      swap2\n      swap1\n      tag_48\n      jump\t// in\n    tag_72:\n      tag_73\n      jump\t// in\n    tag_71:\n      mload(0x40)\n      tag_74\n      swap2\n      swap1\n      tag_35\n      jump\t// in\n    tag_74:\n      mload(0x40)\n      dup1\n      swap2\n      sub\n      swap1\n      return\n        /* \"@openzeppelin/contracts/access/AccessControl.sol\":2187:2236  bytes32 public constant DEFAULT_ADMIN_ROLE = 0x00 */\n    tag_15:\n      tag_75\n      tag_76\n      jump\t// in\n    tag_75:\n      mload(0x40)\n      tag_77\n      swap2\n      swap1\n      tag_45\n      jump\t// in\n    tag_77:\n      mload(0x40)\n      dup1\n      swap2\n      sub\n      swap1\n      return\n        /* \"Vault.sol\":451:477  bool public withdrawEnable */\n    tag_16:\n      tag_78\n      tag_79\n      jump\t// in\n    tag_78:\n      mload(0x40)\n      tag_80\n      swap2\n      swap1\n      tag_35\n      jump\t// in\n    tag_80:\n      mload(0x40)\n      dup1\n      swap2\n      sub\n      swap1\n      return\n        /* \"Vault.sol\":1281:1539  function deposit(uint256 _amount) external {... */\n    tag_17:\n      tag_81\n      0x04\n      dup1\n      calldatasize\n      sub\n      dup2\n      add\n      swap1\n      tag_82\n      swap2\n      swap1\n      tag_83\n      jump\t// in\n    tag_82:\n      tag_84\n      jump\t// in\n    tag_81:\n      stop\n        /* \"@openzeppelin/contracts/access/extensions/AccessControlEnumerable.sol\":1836:1967  function getRoleMemberCount(bytes32 role) public view virtual returns (uint256) {... */\n    tag_18:\n      tag_85\n      0x04\n      dup1\n      calldatasize\n      sub\n      dup2\n      add\n      swap1\n      tag_86\n      swap2\n      swap1\n      tag_42\n      jump\t// in\n    tag_86:\n      tag_87\n      jump\t// in\n    tag_85:\n      mload(0x40)\n      tag_88\n      swap2\n      swap1\n      tag_89\n      jump\t// in\n    tag_88:\n      mload(0x40)\n      dup1\n      swap2\n      sub\n      swap1\n      return\n        /* \"@openzeppelin/contracts/access/AccessControl.sol\":4642:4780  function revokeRole(bytes32 role, address account) public virtual onlyRole(getRoleAdmin(role)) {... */\n    tag_19:\n      tag_90\n      0x04\n      dup1\n      calldatasize\n      sub\n      dup2\n      add\n      swap1\n      tag_91\n      swap2\n      swap1\n      tag_48\n      jump\t// in\n    tag_91:\n      tag_92\n      jump\t// in\n    tag_90:\n      stop\n        /* \"Vault.sol\":803:919  function setMaxWithdrawAmount(uint256 _maxAmount) public onlyOwner {... */\n    tag_20:\n      tag_93\n      0x04\n      dup1\n      calldatasize\n      sub\n      dup2\n      add\n      swap1\n      tag_94\n      swap2\n      swap1\n      tag_83\n      jump\t// in\n    tag_94:\n      tag_95\n      jump\t// in\n    tag_93:\n      stop\n        /* \"@openzeppelin/contracts/access/Ownable.sol\":2543:2758  function transferOwnership(address newOwner) public virtual onlyOwner {... */\n    tag_21:\n      tag_96\n      0x04\n      dup1\n      calldatasize\n      sub\n      dup2\n      add\n      swap1\n      tag_97\n      swap2\n      swap1\n      tag_98\n      jump\t// in\n    tag_97:\n      tag_99\n      jump\t// in\n    tag_96:\n      stop\n        /* \"Vault.sol\":412:444  uint256 public maxWithdrawAmount */\n    tag_22:\n      tag_100\n      tag_101\n      jump\t// in\n    tag_100:\n      mload(0x40)\n      tag_102\n      swap2\n      swap1\n      tag_89\n      jump\t// in\n    tag_102:\n      mload(0x40)\n      dup1\n      swap2\n      sub\n      swap1\n      return\n        /* \"Vault.sol\":1018:1273  function withdraw(uint256 _amount, address _to) external onlyWithdrawer {... */\n    tag_29:\n        /* \"Vault.sol\":1617:1629  _msgSender() */\n      tag_104\n        /* \"Vault.sol\":1617:1627  _msgSender */\n      tag_105\n        /* \"Vault.sol\":1617:1629  _msgSender() */\n      jump\t// in\n    tag_104:\n        /* \"Vault.sol\":1606:1629  owner() == _msgSender() */\n      0xffffffffffffffffffffffffffffffffffffffff\n      and\n        /* \"Vault.sol\":1606:1613  owner() */\n      tag_106\n        /* \"Vault.sol\":1606:1611  owner */\n      tag_63\n        /* \"Vault.sol\":1606:1613  owner() */\n      jump\t// in\n    tag_106:\n        /* \"Vault.sol\":1606:1629  owner() == _msgSender() */\n      0xffffffffffffffffffffffffffffffffffffffff\n      and\n      eq\n        /* \"Vault.sol\":1606:1671  owner() == _msgSender() || hasRole(WITHDRAWER_ROLE, _msgSender()) */\n      dup1\n      tag_107\n      jumpi\n      pop\n        /* \"Vault.sol\":1633:1671  hasRole(WITHDRAWER_ROLE, _msgSender()) */\n      tag_108\n        /* \"Vault.sol\":526:554  keccak256(\"WITHDRAWER_ROLE\") */\n      0x10dac8c06a04bec0b551627dad28bc00d6516b0caacd1c7b345fcdb5211334e4\n        /* \"Vault.sol\":1658:1670  _msgSender() */\n      tag_109\n        /* \"Vault.sol\":1658:1668  _msgSender */\n      tag_105\n        /* \"Vault.sol\":1658:1670  _msgSender() */\n      jump\t// in\n    tag_109:\n        /* \"Vault.sol\":1633:1640  hasRole */\n      tag_73\n        /* \"Vault.sol\":1633:1671  hasRole(WITHDRAWER_ROLE, _msgSender()) */\n      jump\t// in\n    tag_108:\n        /* \"Vault.sol\":1606:1671  owner() == _msgSender() || hasRole(WITHDRAWER_ROLE, _msgSender()) */\n    tag_107:\n        /* \"Vault.sol\":1584:1725  require(... */\n      tag_110\n      jumpi\n      mload(0x40)\n      0x08c379a000000000000000000000000000000000000000000000000000000000\n      dup2\n      mstore\n      0x04\n      add\n      tag_111\n      swap1\n      tag_112\n      jump\t// in\n    tag_111:\n      mload(0x40)\n      dup1\n      swap2\n      sub\n      swap1\n      revert\n    tag_110:\n        /* \"Vault.sol\":1109:1123  withdrawEnable */\n      0x05\n      0x00\n      swap1\n      sload\n      swap1\n      0x0100\n      exp\n      swap1\n      div\n      0xff\n      and\n        /* \"Vault.sol\":1101:1153  require(withdrawEnable, \"Withdraw is not available\") */\n      tag_114\n      jumpi\n      mload(0x40)\n      0x08c379a000000000000000000000000000000000000000000000000000000000\n      dup2\n      mstore\n      0x04\n      add\n      tag_115\n      swap1\n      tag_116\n      jump\t// in\n    tag_115:\n      mload(0x40)\n      dup1\n      swap2\n      sub\n      swap1\n      revert\n    tag_114:\n        /* \"Vault.sol\":1183:1200  maxWithdrawAmount */\n      sload(0x04)\n        /* \"Vault.sol\":1172:1179  _amount */\n      dup3\n        /* \"Vault.sol\":1172:1200  _amount <= maxWithdrawAmount */\n      gt\n      iszero\n        /* \"Vault.sol\":1164:1226  require(_amount <= maxWithdrawAmount, \"Exceed maximum amount\") */\n      tag_117\n      jumpi\n      mload(0x40)\n      0x08c379a000000000000000000000000000000000000000000000000000000000\n      dup2\n      mstore\n      0x04\n      add\n      tag_118\n      swap1\n      tag_119\n      jump\t// in\n    tag_118:\n      mload(0x40)\n      dup1\n      swap2\n      sub\n      swap1\n      revert\n    tag_117:\n        /* \"Vault.sol\":1237:1242  token */\n      0x03\n      0x00\n      swap1\n      sload\n      swap1\n      0x0100\n      exp\n      swap1\n      div\n      0xffffffffffffffffffffffffffffffffffffffff\n      and\n        /* \"Vault.sol\":1237:1251  token.transfer */\n      0xffffffffffffffffffffffffffffffffffffffff\n      and\n      0xa9059cbb\n        /* \"Vault.sol\":1252:1255  _to */\n      dup3\n        /* \"Vault.sol\":1257:1264  _amount */\n      dup5\n        /* \"Vault.sol\":1237:1265  token.transfer(_to, _amount) */\n      mload(0x40)\n      dup4\n      0xffffffff\n      and\n      0xe0\n      shl\n      dup2\n      mstore\n      0x04\n      add\n      tag_120\n      swap3\n      swap2\n      swap1\n      tag_121\n      jump\t// in\n    tag_120:\n      0x20\n      mload(0x40)\n      dup1\n      dup4\n      sub\n      dup2\n      0x00\n      dup8\n      gas\n      call\n      iszero\n      dup1\n      iszero\n      tag_123\n      jumpi\n      returndatasize\n      0x00\n      dup1\n      returndatacopy\n      revert(0x00, returndatasize)\n    tag_123:\n      pop\n      pop\n      pop\n      pop\n      mload(0x40)\n      returndatasize\n      not(0x1f)\n      0x1f\n      dup3\n      add\n      and\n      dup3\n      add\n      dup1\n      0x40\n      mstore\n      pop\n      dup2\n      add\n      swap1\n      tag_124\n      swap2\n      swap1\n      tag_125\n      jump\t// in\n    tag_124:\n      pop\n        /* \"Vault.sol\":1018:1273  function withdraw(uint256 _amount, address _to) external onlyWithdrawer {... */\n      pop\n      pop\n      jump\t// out\n        /* \"@openzeppelin/contracts/access/extensions/AccessControlEnumerable.sol\":729:941  function supportsInterface(bytes4 interfaceId) public view virtual override returns (bool) {... */\n    tag_33:\n        /* \"@openzeppelin/contracts/access/extensions/AccessControlEnumerable.sol\":814:818  bool */\n      0x00\n        /* \"@openzeppelin/contracts/access/extensions/AccessControlEnumerable.sol\":852:894  type(IAccessControlEnumerable).interfaceId */\n      0x5a05180f00000000000000000000000000000000000000000000000000000000\n        /* \"@openzeppelin/contracts/access/extensions/AccessControlEnumerable.sol\":837:894  interfaceId == type(IAccessControlEnumerable).interfaceId */\n      not(0xffffffffffffffffffffffffffffffffffffffffffffffffffffffff)\n      and\n        /* \"@openzeppelin/contracts/access/extensions/AccessControlEnumerable.sol\":837:848  interfaceId */\n      dup3\n        /* \"@openzeppelin/contracts/access/extensions/AccessControlEnumerable.sol\":837:894  interfaceId == type(IAccessControlEnumerable).interfaceId */\n      not(0xffffffffffffffffffffffffffffffffffffffffffffffffffffffff)\n      and\n      eq\n        /* \"@openzeppelin/contracts/access/extensions/AccessControlEnumerable.sol\":837:934  interfaceId == type(IAccessControlEnumerable).interfaceId || super.supportsInterface(interfaceId) */\n      dup1\n      tag_127\n      jumpi\n      pop\n        /* \"@openzeppelin/contracts/access/extensions/AccessControlEnumerable.sol\":898:934  super.supportsInterface(interfaceId) */\n      tag_128\n        /* \"@openzeppelin/contracts/access/extensions/AccessControlEnumerable.sol\":922:933  interfaceId */\n      dup3\n        /* \"@openzeppelin/contracts/access/extensions/AccessControlEnumerable.sol\":898:921  super.supportsInterface */\n      tag_129\n        /* \"@openzeppelin/contracts/access/extensions/AccessControlEnumerable.sol\":898:934  super.supportsInterface(interfaceId) */\n      jump\t// in\n    tag_128:\n        /* \"@openzeppelin/contracts/access/extensions/AccessControlEnumerable.sol\":837:934  interfaceId == type(IAccessControlEnumerable).interfaceId || super.supportsInterface(interfaceId) */\n    tag_127:\n        /* \"@openzeppelin/contracts/access/extensions/AccessControlEnumerable.sol\":830:934  return interfaceId == type(IAccessControlEnumerable).interfaceId || super.supportsInterface(interfaceId) */\n      swap1\n      pop\n        /* \"@openzeppelin/contracts/access/extensions/AccessControlEnumerable.sol\":729:941  function supportsInterface(bytes4 interfaceId) public view virtual override returns (bool) {... */\n      swap2\n      swap1\n      pop\n      jump\t// out\n        /* \"Vault.sol\":927:1010  function setToken(IERC20 _token) public onlyOwner {... */\n    tag_39:\n        /* \"@openzeppelin/contracts/access/Ownable.sol\":1531:1544  _checkOwner() */\n      tag_131\n        /* \"@openzeppelin/contracts/access/Ownable.sol\":1531:1542  _checkOwner */\n      tag_132\n        /* \"@openzeppelin/contracts/access/Ownable.sol\":1531:1544  _checkOwner() */\n      jump\t// in\n    tag_131:\n        /* \"Vault.sol\":996:1002  _token */\n      dup1\n        /* \"Vault.sol\":988:993  token */\n      0x03\n      0x00\n        /* \"Vault.sol\":988:1002  token = _token */\n      0x0100\n      exp\n      dup2\n      sload\n      dup2\n      0xffffffffffffffffffffffffffffffffffffffff\n      mul\n      not\n      and\n      swap1\n      dup4\n      0xffffffffffffffffffffffffffffffffffffffff\n      and\n      mul\n      or\n      swap1\n      sstore\n      pop\n        /* \"Vault.sol\":927:1010  function setToken(IERC20 _token) public onlyOwner {... */\n      pop\n      jump\t// out\n        /* \"@openzeppelin/contracts/access/AccessControl.sol\":3810:3930  function getRoleAdmin(bytes32 role) public view virtual returns (bytes32) {... */\n    tag_43:\n        /* \"@openzeppelin/contracts/access/AccessControl.sol\":3875:3882  bytes32 */\n      0x00\n        /* \"@openzeppelin/contracts/access/AccessControl.sol\":3901:3907  _roles */\n      0x01\n        /* \"@openzeppelin/contracts/access/AccessControl.sol\":3901:3913  _roles[role] */\n      0x00\n        /* \"@openzeppelin/contracts/access/AccessControl.sol\":3908:3912  role */\n      dup4\n        /* \"@openzeppelin/contracts/access/AccessControl.sol\":3901:3913  _roles[role] */\n      dup2\n      mstore\n      0x20\n      add\n      swap1\n      dup2\n      mstore\n      0x20\n      add\n      0x00\n      keccak256\n        /* \"@openzeppelin/contracts/access/AccessControl.sol\":3901:3923  _roles[role].adminRole */\n      0x01\n      add\n      sload\n        /* \"@openzeppelin/contracts/access/AccessControl.sol\":3894:3923  return _roles[role].adminRole */\n      swap1\n      pop\n        /* \"@openzeppelin/contracts/access/AccessControl.sol\":3810:3930  function getRoleAdmin(bytes32 role) public view virtual returns (bytes32) {... */\n      swap2\n      swap1\n      pop\n      jump\t// out\n        /* \"@openzeppelin/contracts/access/AccessControl.sol\":4226:4362  function grantRole(bytes32 role, address account) public virtual onlyRole(getRoleAdmin(role)) {... */\n    tag_49:\n        /* \"@openzeppelin/contracts/access/AccessControl.sol\":4300:4318  getRoleAdmin(role) */\n      tag_135\n        /* \"@openzeppelin/contracts/access/AccessControl.sol\":4313:4317  role */\n      dup3\n        /* \"@openzeppelin/contracts/access/AccessControl.sol\":4300:4312  getRoleAdmin */\n      tag_43\n        /* \"@openzeppelin/contracts/access/AccessControl.sol\":4300:4318  getRoleAdmin(role) */\n      jump\t// in\n    tag_135:\n        /* \"@openzeppelin/contracts/access/AccessControl.sol\":2464:2480  _checkRole(role) */\n      tag_137\n        /* \"@openzeppelin/contracts/access/AccessControl.sol\":2475:2479  role */\n      dup2\n        /* \"@openzeppelin/contracts/access/AccessControl.sol\":2464:2474  _checkRole */\n      tag_138\n        /* \"@openzeppelin/contracts/access/AccessControl.sol\":2464:2480  _checkRole(role) */\n      jump\t// in\n    tag_137:\n        /* \"@openzeppelin/contracts/access/AccessControl.sol\":4330:4355  _grantRole(role, account) */\n      tag_140\n        /* \"@openzeppelin/contracts/access/AccessControl.sol\":4341:4345  role */\n      dup4\n        /* \"@openzeppelin/contracts/access/AccessControl.sol\":4347:4354  account */\n      dup4\n        /* \"@openzeppelin/contracts/access/AccessControl.sol\":4330:4340  _grantRole */\n      tag_141\n        /* \"@openzeppelin/contracts/access/AccessControl.sol\":4330:4355  _grantRole(role, account) */\n      jump\t// in\n    tag_140:\n      pop\n        /* \"@openzeppelin/contracts/access/AccessControl.sol\":4226:4362  function grantRole(bytes32 role, address account) public virtual onlyRole(getRoleAdmin(role)) {... */\n      pop\n      pop\n      pop\n      jump\t// out\n        /* \"@openzeppelin/contracts/access/AccessControl.sol\":5328:5573  function renounceRole(bytes32 role, address callerConfirmation) public virtual {... */\n    tag_52:\n        /* \"@openzeppelin/contracts/access/AccessControl.sol\":5443:5455  _msgSender() */\n      tag_143\n        /* \"@openzeppelin/contracts/access/AccessControl.sol\":5443:5453  _msgSender */\n      tag_105\n        /* \"@openzeppelin/contracts/access/AccessControl.sol\":5443:5455  _msgSender() */\n      jump\t// in\n    tag_143:\n        /* \"@openzeppelin/contracts/access/AccessControl.sol\":5421:5455  callerConfirmation != _msgSender() */\n      0xffffffffffffffffffffffffffffffffffffffff\n      and\n        /* \"@openzeppelin/contracts/access/AccessControl.sol\":5421:5439  callerConfirmation */\n      dup2\n        /* \"@openzeppelin/contracts/access/AccessControl.sol\":5421:5455  callerConfirmation != _msgSender() */\n      0xffffffffffffffffffffffffffffffffffffffff\n      and\n      eq\n        /* \"@openzeppelin/contracts/access/AccessControl.sol\":5417:5519  if (callerConfirmation != _msgSender()) {... */\n      tag_144\n      jumpi\n        /* \"@openzeppelin/contracts/access/AccessControl.sol\":5478:5508  AccessControlBadConfirmation() */\n      mload(0x40)\n      0x6697b23200000000000000000000000000000000000000000000000000000000\n      dup2\n      mstore\n      0x04\n      add\n      mload(0x40)\n      dup1\n      swap2\n      sub\n      swap1\n      revert\n        /* \"@openzeppelin/contracts/access/AccessControl.sol\":5417:5519  if (callerConfirmation != _msgSender()) {... */\n    tag_144:\n        /* \"@openzeppelin/contracts/access/AccessControl.sol\":5529:5566  _revokeRole(role, callerConfirmation) */\n      tag_145\n        /* \"@openzeppelin/contracts/access/AccessControl.sol\":5541:5545  role */\n      dup3\n        /* \"@openzeppelin/contracts/access/AccessControl.sol\":5547:5565  callerConfirmation */\n      dup3\n        /* \"@openzeppelin/contracts/access/AccessControl.sol\":5529:5540  _revokeRole */\n      tag_146\n        /* \"@openzeppelin/contracts/access/AccessControl.sol\":5529:5566  _revokeRole(role, callerConfirmation) */\n      jump\t// in\n    tag_145:\n      pop\n        /* \"@openzeppelin/contracts/access/AccessControl.sol\":5328:5573  function renounceRole(bytes32 role, address callerConfirmation) public virtual {... */\n      pop\n      pop\n      jump\t// out\n        /* \"@openzeppelin/contracts/access/Ownable.sol\":2293:2394  function renounceOwnership() public virtual onlyOwner {... */\n    tag_54:\n        /* \"@openzeppelin/contracts/access/Ownable.sol\":1531:1544  _checkOwner() */\n      tag_148\n        /* \"@openzeppelin/contracts/access/Ownable.sol\":1531:1542  _checkOwner */\n      tag_132\n        /* \"@openzeppelin/contracts/access/Ownable.sol\":1531:1544  _checkOwner() */\n      jump\t// in\n    tag_148:\n        /* \"@openzeppelin/contracts/access/Ownable.sol\":2357:2387  _transferOwnership(address(0)) */\n      tag_150\n        /* \"@openzeppelin/contracts/access/Ownable.sol\":2384:2385  0 */\n      0x00\n        /* \"@openzeppelin/contracts/access/Ownable.sol\":2357:2375  _transferOwnership */\n      tag_151\n        /* \"@openzeppelin/contracts/access/Ownable.sol\":2357:2387  _transferOwnership(address(0)) */\n      jump\t// in\n    tag_150:\n        /* \"@openzeppelin/contracts/access/Ownable.sol\":2293:2394  function renounceOwnership() public virtual onlyOwner {... */\n      jump\t// out\n        /* \"Vault.sol\":690:795  function setWithdrawEnable(bool _isEnable) public onlyOwner {... */\n    tag_58:\n        /* \"@openzeppelin/contracts/access/Ownable.sol\":1531:1544  _checkOwner() */\n      tag_153\n        /* \"@openzeppelin/contracts/access/Ownable.sol\":1531:1542  _checkOwner */\n      tag_132\n        /* \"@openzeppelin/contracts/access/Ownable.sol\":1531:1544  _checkOwner() */\n      jump\t// in\n    tag_153:\n        /* \"Vault.sol\":778:787  _isEnable */\n      dup1\n        /* \"Vault.sol\":761:775  withdrawEnable */\n      0x05\n      0x00\n        /* \"Vault.sol\":761:787  withdrawEnable = _isEnable */\n      0x0100\n      exp\n      dup2\n      sload\n      dup2\n      0xff\n      mul\n      not\n      and\n      swap1\n      dup4\n      iszero\n      iszero\n      mul\n      or\n      swap1\n      sstore\n      pop\n        /* \"Vault.sol\":690:795  function setWithdrawEnable(bool _isEnable) public onlyOwner {... */\n      pop\n      jump\t// out\n        /* \"Vault.sol\":484:554  bytes32 public constant WITHDRAWER_ROLE = keccak256(\"WITHDRAWER_ROLE\") */\n    tag_60:\n        /* \"Vault.sol\":526:554  keccak256(\"WITHDRAWER_ROLE\") */\n      0x10dac8c06a04bec0b551627dad28bc00d6516b0caacd1c7b345fcdb5211334e4\n        /* \"Vault.sol\":484:554  bytes32 public constant WITHDRAWER_ROLE = keccak256(\"WITHDRAWER_ROLE\") */\n      dup2\n      jump\t// out\n        /* \"@openzeppelin/contracts/access/Ownable.sol\":1638:1723  function owner() public view virtual returns (address) {... */\n    tag_63:\n        /* \"@openzeppelin/contracts/access/Ownable.sol\":1684:1691  address */\n      0x00\n        /* \"@openzeppelin/contracts/access/Ownable.sol\":1710:1716  _owner */\n      dup1\n      0x00\n      swap1\n      sload\n      swap1\n      0x0100\n      exp\n      swap1\n      div\n      0xffffffffffffffffffffffffffffffffffffffff\n      and\n        /* \"@openzeppelin/contracts/access/Ownable.sol\":1703:1716  return _owner */\n      swap1\n      pop\n        /* \"@openzeppelin/contracts/access/Ownable.sol\":1638:1723  function owner() public view virtual returns (address) {... */\n      swap1\n      jump\t// out\n        /* \"@openzeppelin/contracts/access/extensions/AccessControlEnumerable.sol\":1526:1668  function getRoleMember(bytes32 role, uint256 index) public view virtual returns (address) {... */\n    tag_69:\n        /* \"@openzeppelin/contracts/access/extensions/AccessControlEnumerable.sol\":1607:1614  address */\n      0x00\n        /* \"@openzeppelin/contracts/access/extensions/AccessControlEnumerable.sol\":1633:1661  _roleMembers[role].at(index) */\n      tag_157\n        /* \"@openzeppelin/contracts/access/extensions/AccessControlEnumerable.sol\":1655:1660  index */\n      dup3\n        /* \"@openzeppelin/contracts/access/extensions/AccessControlEnumerable.sol\":1633:1645  _roleMembers */\n      0x02\n        /* \"@openzeppelin/contracts/access/extensions/AccessControlEnumerable.sol\":1633:1651  _roleMembers[role] */\n      0x00\n        /* \"@openzeppelin/contracts/access/extensions/AccessControlEnumerable.sol\":1646:1650  role */\n      dup7\n        /* \"@openzeppelin/contracts/access/extensions/AccessControlEnumerable.sol\":1633:1651  _roleMembers[role] */\n      dup2\n      mstore\n      0x20\n      add\n      swap1\n      dup2\n      mstore\n      0x20\n      add\n      0x00\n      keccak256\n        /* \"@openzeppelin/contracts/access/extensions/AccessControlEnumerable.sol\":1633:1654  _roleMembers[role].at */\n      tag_158\n      swap1\n        /* \"@openzeppelin/contracts/access/extensions/AccessControlEnumerable.sol\":1633:1661  _roleMembers[role].at(index) */\n      swap2\n      swap1\n      0xffffffff\n      and\n      jump\t// in\n    tag_157:\n        /* \"@openzeppelin/contracts/access/extensions/AccessControlEnumerable.sol\":1626:1661  return _roleMembers[role].at(index) */\n      swap1\n      pop\n        /* \"@openzeppelin/contracts/access/extensions/AccessControlEnumerable.sol\":1526:1668  function getRoleMember(bytes32 role, uint256 index) public view virtual returns (address) {... */\n      swap3\n      swap2\n      pop\n      pop\n      jump\t// out\n        /* \"@openzeppelin/contracts/access/AccessControl.sol\":2854:2990  function hasRole(bytes32 role, address account) public view virtual returns (bool) {... */\n    tag_73:\n        /* \"@openzeppelin/contracts/access/AccessControl.sol\":2931:2935  bool */\n      0x00\n        /* \"@openzeppelin/contracts/access/AccessControl.sol\":2954:2960  _roles */\n      0x01\n        /* \"@openzeppelin/contracts/access/AccessControl.sol\":2954:2966  _roles[role] */\n      0x00\n        /* \"@openzeppelin/contracts/access/AccessControl.sol\":2961:2965  role */\n      dup5\n        /* \"@openzeppelin/contracts/access/AccessControl.sol\":2954:2966  _roles[role] */\n      dup2\n      mstore\n      0x20\n      add\n      swap1\n      dup2\n      mstore\n      0x20\n      add\n      0x00\n      keccak256\n        /* \"@openzeppelin/contracts/access/AccessControl.sol\":2954:2974  _roles[role].hasRole */\n      0x00\n      add\n        /* \"@openzeppelin/contracts/access/AccessControl.sol\":2954:2983  _roles[role].hasRole[account] */\n      0x00\n        /* \"@openzeppelin/contracts/access/AccessControl.sol\":2975:2982  account */\n      dup4\n        /* \"@openzeppelin/contracts/access/AccessControl.sol\":2954:2983  _roles[role].hasRole[account] */\n      0xffffffffffffffffffffffffffffffffffffffff\n      and\n      0xffffffffffffffffffffffffffffffffffffffff\n      and\n      dup2\n      mstore\n      0x20\n      add\n      swap1\n      dup2\n      mstore\n      0x20\n      add\n      0x00\n      keccak256\n      0x00\n      swap1\n      sload\n      swap1\n      0x0100\n      exp\n      swap1\n      div\n      0xff\n      and\n        /* \"@openzeppelin/contracts/access/AccessControl.sol\":2947:2983  return _roles[role].hasRole[account] */\n      swap1\n      pop\n        /* \"@openzeppelin/contracts/access/AccessControl.sol\":2854:2990  function hasRole(bytes32 role, address account) public view virtual returns (bool) {... */\n      swap3\n      swap2\n      pop\n      pop\n      jump\t// out\n        /* \"@openzeppelin/contracts/access/AccessControl.sol\":2187:2236  bytes32 public constant DEFAULT_ADMIN_ROLE = 0x00 */\n    tag_76:\n        /* \"@openzeppelin/contracts/access/AccessControl.sol\":2232:2236  0x00 */\n      0x00\n        /* \"@openzeppelin/contracts/access/AccessControl.sol\":2187:2236  bytes32 public constant DEFAULT_ADMIN_ROLE = 0x00 */\n      dup1\n      shl\n      dup2\n      jump\t// out\n        /* \"Vault.sol\":451:477  bool public withdrawEnable */\n    tag_79:\n      0x05\n      0x00\n      swap1\n      sload\n      swap1\n      0x0100\n      exp\n      swap1\n      div\n      0xff\n      and\n      dup2\n      jump\t// out\n        /* \"Vault.sol\":1281:1539  function deposit(uint256 _amount) external {... */\n    tag_84:\n        /* \"Vault.sol\":1388:1395  _amount */\n      dup1\n        /* \"Vault.sol\":1357:1362  token */\n      0x03\n      0x00\n      swap1\n      sload\n      swap1\n      0x0100\n      exp\n      swap1\n      div\n      0xffffffffffffffffffffffffffffffffffffffff\n      and\n        /* \"Vault.sol\":1357:1372  token.balanceOf */\n      0xffffffffffffffffffffffffffffffffffffffff\n      and\n      0x70a08231\n        /* \"Vault.sol\":1373:1383  msg.sender */\n      caller\n        /* \"Vault.sol\":1357:1384  token.balanceOf(msg.sender) */\n      mload(0x40)\n      dup3\n      0xffffffff\n      and\n      0xe0\n      shl\n      dup2\n      mstore\n      0x04\n      add\n      tag_161\n      swap2\n      swap1\n      tag_65\n      jump\t// in\n    tag_161:\n      0x20\n      mload(0x40)\n      dup1\n      dup4\n      sub\n      dup2\n      dup7\n      gas\n      staticcall\n      iszero\n      dup1\n      iszero\n      tag_163\n      jumpi\n      returndatasize\n      0x00\n      dup1\n      returndatacopy\n      revert(0x00, returndatasize)\n    tag_163:\n      pop\n      pop\n      pop\n      pop\n      mload(0x40)\n      returndatasize\n      not(0x1f)\n      0x1f\n      dup3\n      add\n      and\n      dup3\n      add\n      dup1\n      0x40\n      mstore\n      pop\n      dup2\n      add\n      swap1\n      tag_164\n      swap2\n      swap1\n      tag_165\n      jump\t// in\n    tag_164:\n        /* \"Vault.sol\":1357:1395  token.balanceOf(msg.sender) >= _amount */\n      lt\n      iszero\n        /* \"Vault.sol\":1335:1451  require(... */\n      tag_166\n      jumpi\n      mload(0x40)\n      0x08c379a000000000000000000000000000000000000000000000000000000000\n      dup2\n      mstore\n      0x04\n      add\n      tag_167\n      swap1\n      tag_168\n      jump\t// in\n    tag_167:\n      mload(0x40)\n      dup1\n      swap2\n      sub\n      swap1\n      revert\n    tag_166:\n        /* \"Vault.sol\":1462:1531  SafeERC20.safeTransferFrom(token, msg.sender, address(this), _amount) */\n      tag_169\n        /* \"Vault.sol\":1489:1494  token */\n      0x03\n      0x00\n      swap1\n      sload\n      swap1\n      0x0100\n      exp\n      swap1\n      div\n      0xffffffffffffffffffffffffffffffffffffffff\n      and\n        /* \"Vault.sol\":1496:1506  msg.sender */\n      caller\n        /* \"Vault.sol\":1516:1520  this */\n      address\n        /* \"Vault.sol\":1523:1530  _amount */\n      dup5\n        /* \"Vault.sol\":1462:1488  SafeERC20.safeTransferFrom */\n      tag_170\n        /* \"Vault.sol\":1462:1531  SafeERC20.safeTransferFrom(token, msg.sender, address(this), _amount) */\n      jump\t// in\n    tag_169:\n        /* \"Vault.sol\":1281:1539  function deposit(uint256 _amount) external {... */\n      pop\n      jump\t// out\n        /* \"@openzeppelin/contracts/access/extensions/AccessControlEnumerable.sol\":1836:1967  function getRoleMemberCount(bytes32 role) public view virtual returns (uint256) {... */\n    tag_87:\n        /* \"@openzeppelin/contracts/access/extensions/AccessControlEnumerable.sol\":1907:1914  uint256 */\n      0x00\n        /* \"@openzeppelin/contracts/access/extensions/AccessControlEnumerable.sol\":1933:1960  _roleMembers[role].length() */\n      tag_172\n        /* \"@openzeppelin/contracts/access/extensions/AccessControlEnumerable.sol\":1933:1945  _roleMembers */\n      0x02\n        /* \"@openzeppelin/contracts/access/extensions/AccessControlEnumerable.sol\":1933:1951  _roleMembers[role] */\n      0x00\n        /* \"@openzeppelin/contracts/access/extensions/AccessControlEnumerable.sol\":1946:1950  role */\n      dup5\n        /* \"@openzeppelin/contracts/access/extensions/AccessControlEnumerable.sol\":1933:1951  _roleMembers[role] */\n      dup2\n      mstore\n      0x20\n      add\n      swap1\n      dup2\n      mstore\n      0x20\n      add\n      0x00\n      keccak256\n        /* \"@openzeppelin/contracts/access/extensions/AccessControlEnumerable.sol\":1933:1958  _roleMembers[role].length */\n      tag_173\n        /* \"@openzeppelin/contracts/access/extensions/AccessControlEnumerable.sol\":1933:1960  _roleMembers[role].length() */\n      jump\t// in\n    tag_172:\n        /* \"@openzeppelin/contracts/access/extensions/AccessControlEnumerable.sol\":1926:1960  return _roleMembers[role].length() */\n      swap1\n      pop\n        /* \"@openzeppelin/contracts/access/extensions/AccessControlEnumerable.sol\":1836:1967  function getRoleMemberCount(bytes32 role) public view virtual returns (uint256) {... */\n      swap2\n      swap1\n      pop\n      jump\t// out\n        /* \"@openzeppelin/contracts/access/AccessControl.sol\":4642:4780  function revokeRole(bytes32 role, address account) public virtual onlyRole(getRoleAdmin(role)) {... */\n    tag_92:\n        /* \"@openzeppelin/contracts/access/AccessControl.sol\":4717:4735  getRoleAdmin(role) */\n      tag_174\n        /* \"@openzeppelin/contracts/access/AccessControl.sol\":4730:4734  role */\n      dup3\n        /* \"@openzeppelin/contracts/access/AccessControl.sol\":4717:4729  getRoleAdmin */\n      tag_43\n        /* \"@openzeppelin/contracts/access/AccessControl.sol\":4717:4735  getRoleAdmin(role) */\n      jump\t// in\n    tag_174:\n        /* \"@openzeppelin/contracts/access/AccessControl.sol\":2464:2480  _checkRole(role) */\n      tag_176\n        /* \"@openzeppelin/contracts/access/AccessControl.sol\":2475:2479  role */\n      dup2\n        /* \"@openzeppelin/contracts/access/AccessControl.sol\":2464:2474  _checkRole */\n      tag_138\n        /* \"@openzeppelin/contracts/access/AccessControl.sol\":2464:2480  _checkRole(role) */\n      jump\t// in\n    tag_176:\n        /* \"@openzeppelin/contracts/access/AccessControl.sol\":4747:4773  _revokeRole(role, account) */\n      tag_178\n        /* \"@openzeppelin/contracts/access/AccessControl.sol\":4759:4763  role */\n      dup4\n        /* \"@openzeppelin/contracts/access/AccessControl.sol\":4765:4772  account */\n      dup4\n        /* \"@openzeppelin/contracts/access/AccessControl.sol\":4747:4758  _revokeRole */\n      tag_146\n        /* \"@openzeppelin/contracts/access/AccessControl.sol\":4747:4773  _revokeRole(role, account) */\n      jump\t// in\n    tag_178:\n      pop\n        /* \"@openzeppelin/contracts/access/AccessControl.sol\":4642:4780  function revokeRole(bytes32 role, address account) public virtual onlyRole(getRoleAdmin(role)) {... */\n      pop\n      pop\n      pop\n      jump\t// out\n        /* \"Vault.sol\":803:919  function setMaxWithdrawAmount(uint256 _maxAmount) public onlyOwner {... */\n    tag_95:\n        /* \"@openzeppelin/contracts/access/Ownable.sol\":1531:1544  _checkOwner() */\n      tag_180\n        /* \"@openzeppelin/contracts/access/Ownable.sol\":1531:1542  _checkOwner */\n      tag_132\n        /* \"@openzeppelin/contracts/access/Ownable.sol\":1531:1544  _checkOwner() */\n      jump\t// in\n    tag_180:\n        /* \"Vault.sol\":901:911  _maxAmount */\n      dup1\n        /* \"Vault.sol\":881:898  maxWithdrawAmount */\n      0x04\n        /* \"Vault.sol\":881:911  maxWithdrawAmount = _maxAmount */\n      dup2\n      swap1\n      sstore\n      pop\n        /* \"Vault.sol\":803:919  function setMaxWithdrawAmount(uint256 _maxAmount) public onlyOwner {... */\n      pop\n      jump\t// out\n        /* \"@openzeppelin/contracts/access/Ownable.sol\":2543:2758  function transferOwnership(address newOwner) public virtual onlyOwner {... */\n    tag_99:\n        /* \"@openzeppelin/contracts/access/Ownable.sol\":1531:1544  _checkOwner() */\n      tag_183\n        /* \"@openzeppelin/contracts/access/Ownable.sol\":1531:1542  _checkOwner */\n      tag_132\n        /* \"@openzeppelin/contracts/access/Ownable.sol\":1531:1544  _checkOwner() */\n      jump\t// in\n    tag_183:\n        /* \"@openzeppelin/contracts/access/Ownable.sol\":2647:2648  0 */\n      0x00\n        /* \"@openzeppelin/contracts/access/Ownable.sol\":2627:2649  newOwner == address(0) */\n      0xffffffffffffffffffffffffffffffffffffffff\n      and\n        /* \"@openzeppelin/contracts/access/Ownable.sol\":2627:2635  newOwner */\n      dup2\n        /* \"@openzeppelin/contracts/access/Ownable.sol\":2627:2649  newOwner == address(0) */\n      0xffffffffffffffffffffffffffffffffffffffff\n      and\n      sub\n        /* \"@openzeppelin/contracts/access/Ownable.sol\":2623:2714  if (newOwner == address(0)) {... */\n      tag_185\n      jumpi\n        /* \"@openzeppelin/contracts/access/Ownable.sol\":2700:2701  0 */\n      0x00\n        /* \"@openzeppelin/contracts/access/Ownable.sol\":2672:2703  OwnableInvalidOwner(address(0)) */\n      mload(0x40)\n      0x1e4fbdf700000000000000000000000000000000000000000000000000000000\n      dup2\n      mstore\n      0x04\n      add\n      tag_186\n      swap2\n      swap1\n      tag_65\n      jump\t// in\n    tag_186:\n      mload(0x40)\n      dup1\n      swap2\n      sub\n      swap1\n      revert\n        /* \"@openzeppelin/contracts/access/Ownable.sol\":2623:2714  if (newOwner == address(0)) {... */\n    tag_185:\n        /* \"@openzeppelin/contracts/access/Ownable.sol\":2723:2751  _transferOwnership(newOwner) */\n      tag_187\n        /* \"@openzeppelin/contracts/access/Ownable.sol\":2742:2750  newOwner */\n      dup2\n        /* \"@openzeppelin/contracts/access/Ownable.sol\":2723:2741  _transferOwnership */\n      tag_151\n        /* \"@openzeppelin/contracts/access/Ownable.sol\":2723:2751  _transferOwnership(newOwner) */\n      jump\t// in\n    tag_187:\n        /* \"@openzeppelin/contracts/access/Ownable.sol\":2543:2758  function transferOwnership(address newOwner) public virtual onlyOwner {... */\n      pop\n      jump\t// out\n        /* \"Vault.sol\":412:444  uint256 public maxWithdrawAmount */\n    tag_101:\n      sload(0x04)\n      dup2\n      jump\t// out\n        /* \"@openzeppelin/contracts/utils/Context.sol\":656:752  function _msgSender() internal view virtual returns (address) {... */\n    tag_105:\n        /* \"@openzeppelin/contracts/utils/Context.sol\":709:716  address */\n      0x00\n        /* \"@openzeppelin/contracts/utils/Context.sol\":735:745  msg.sender */\n      caller\n        /* \"@openzeppelin/contracts/utils/Context.sol\":728:745  return msg.sender */\n      swap1\n      pop\n        /* \"@openzeppelin/contracts/utils/Context.sol\":656:752  function _msgSender() internal view virtual returns (address) {... */\n      swap1\n      jump\t// out\n        /* \"@openzeppelin/contracts/access/AccessControl.sol\":2565:2767  function supportsInterface(bytes4 interfaceId) public view virtual override returns (bool) {... */\n    tag_129:\n        /* \"@openzeppelin/contracts/access/AccessControl.sol\":2650:2654  bool */\n      0x00\n        /* \"@openzeppelin/contracts/access/AccessControl.sol\":2688:2720  type(IAccessControl).interfaceId */\n      0x7965db0b00000000000000000000000000000000000000000000000000000000\n        /* \"@openzeppelin/contracts/access/AccessControl.sol\":2673:2720  interfaceId == type(IAccessControl).interfaceId */\n      not(0xffffffffffffffffffffffffffffffffffffffffffffffffffffffff)\n      and\n        /* \"@openzeppelin/contracts/access/AccessControl.sol\":2673:2684  interfaceId */\n      dup3\n        /* \"@openzeppelin/contracts/access/AccessControl.sol\":2673:2720  interfaceId == type(IAccessControl).interfaceId */\n      not(0xffffffffffffffffffffffffffffffffffffffffffffffffffffffff)\n      and\n      eq\n        /* \"@openzeppelin/contracts/access/AccessControl.sol\":2673:2760  interfaceId == type(IAccessControl).interfaceId || super.supportsInterface(interfaceId) */\n      dup1\n      tag_190\n      jumpi\n      pop\n        /* \"@openzeppelin/contracts/access/AccessControl.sol\":2724:2760  super.supportsInterface(interfaceId) */\n      tag_191\n        /* \"@openzeppelin/contracts/access/AccessControl.sol\":2748:2759  interfaceId */\n      dup3\n        /* \"@openzeppelin/contracts/access/AccessControl.sol\":2724:2747  super.supportsInterface */\n      tag_192\n        /* \"@openzeppelin/contracts/access/AccessControl.sol\":2724:2760  super.supportsInterface(interfaceId) */\n      jump\t// in\n    tag_191:\n        /* \"@openzeppelin/contracts/access/AccessControl.sol\":2673:2760  interfaceId == type(IAccessControl).interfaceId || super.supportsInterface(interfaceId) */\n    tag_190:\n        /* \"@openzeppelin/contracts/access/AccessControl.sol\":2666:2760  return interfaceId == type(IAccessControl).interfaceId || super.supportsInterface(interfaceId) */\n      swap1\n      pop\n        /* \"@openzeppelin/contracts/access/AccessControl.sol\":2565:2767  function supportsInterface(bytes4 interfaceId) public view virtual override returns (bool) {... */\n      swap2\n      swap1\n      pop\n      jump\t// out\n        /* \"@openzeppelin/contracts/access/Ownable.sol\":1796:1958  function _checkOwner() internal view virtual {... */\n    tag_132:\n        /* \"@openzeppelin/contracts/access/Ownable.sol\":1866:1878  _msgSender() */\n      tag_194\n        /* \"@openzeppelin/contracts/access/Ownable.sol\":1866:1876  _msgSender */\n      tag_105\n        /* \"@openzeppelin/contracts/access/Ownable.sol\":1866:1878  _msgSender() */\n      jump\t// in\n    tag_194:\n        /* \"@openzeppelin/contracts/access/Ownable.sol\":1855:1878  owner() != _msgSender() */\n      0xffffffffffffffffffffffffffffffffffffffff\n      and\n        /* \"@openzeppelin/contracts/access/Ownable.sol\":1855:1862  owner() */\n      tag_195\n        /* \"@openzeppelin/contracts/access/Ownable.sol\":1855:1860  owner */\n      tag_63\n        /* \"@openzeppelin/contracts/access/Ownable.sol\":1855:1862  owner() */\n      jump\t// in\n    tag_195:\n        /* \"@openzeppelin/contracts/access/Ownable.sol\":1855:1878  owner() != _msgSender() */\n      0xffffffffffffffffffffffffffffffffffffffff\n      and\n      eq\n        /* \"@openzeppelin/contracts/access/Ownable.sol\":1851:1952  if (owner() != _msgSender()) {... */\n      tag_196\n      jumpi\n        /* \"@openzeppelin/contracts/access/Ownable.sol\":1928:1940  _msgSender() */\n      tag_197\n        /* \"@openzeppelin/contracts/access/Ownable.sol\":1928:1938  _msgSender */\n      tag_105\n        /* \"@openzeppelin/contracts/access/Ownable.sol\":1928:1940  _msgSender() */\n      jump\t// in\n    tag_197:\n        /* \"@openzeppelin/contracts/access/Ownable.sol\":1901:1941  OwnableUnauthorizedAccount(_msgSender()) */\n      mload(0x40)\n      0x118cdaa700000000000000000000000000000000000000000000000000000000\n      dup2\n      mstore\n      0x04\n      add\n      tag_198\n      swap2\n      swap1\n      tag_65\n      jump\t// in\n    tag_198:\n      mload(0x40)\n      dup1\n      swap2\n      sub\n      swap1\n      revert\n        /* \"@openzeppelin/contracts/access/Ownable.sol\":1851:1952  if (owner() != _msgSender()) {... */\n    tag_196:\n        /* \"@openzeppelin/contracts/access/Ownable.sol\":1796:1958  function _checkOwner() internal view virtual {... */\n      jump\t// out\n        /* \"@openzeppelin/contracts/access/AccessControl.sol\":3199:3302  function _checkRole(bytes32 role) internal view virtual {... */\n    tag_138:\n        /* \"@openzeppelin/contracts/access/AccessControl.sol\":3265:3295  _checkRole(role, _msgSender()) */\n      tag_200\n        /* \"@openzeppelin/contracts/access/AccessControl.sol\":3276:3280  role */\n      dup2\n        /* \"@openzeppelin/contracts/access/AccessControl.sol\":3282:3294  _msgSender() */\n      tag_201\n        /* \"@openzeppelin/contracts/access/AccessControl.sol\":3282:3292  _msgSender */\n      tag_105\n        /* \"@openzeppelin/contracts/access/AccessControl.sol\":3282:3294  _msgSender() */\n      jump\t// in\n    tag_201:\n        /* \"@openzeppelin/contracts/access/AccessControl.sol\":3265:3275  _checkRole */\n      tag_202\n        /* \"@openzeppelin/contracts/access/AccessControl.sol\":3265:3295  _checkRole(role, _msgSender()) */\n      jump\t// in\n    tag_200:\n        /* \"@openzeppelin/contracts/access/AccessControl.sol\":3199:3302  function _checkRole(bytes32 role) internal view virtual {... */\n      pop\n      jump\t// out\n        /* \"@openzeppelin/contracts/access/extensions/AccessControlEnumerable.sol\":2069:2326  function _grantRole(bytes32 role, address account) internal virtual override returns (bool) {... */\n    tag_141:\n        /* \"@openzeppelin/contracts/access/extensions/AccessControlEnumerable.sol\":2155:2159  bool */\n      0x00\n        /* \"@openzeppelin/contracts/access/extensions/AccessControlEnumerable.sol\":2171:2183  bool granted */\n      dup1\n        /* \"@openzeppelin/contracts/access/extensions/AccessControlEnumerable.sol\":2186:2217  super._grantRole(role, account) */\n      tag_204\n        /* \"@openzeppelin/contracts/access/extensions/AccessControlEnumerable.sol\":2203:2207  role */\n      dup5\n        /* \"@openzeppelin/contracts/access/extensions/AccessControlEnumerable.sol\":2209:2216  account */\n      dup5\n        /* \"@openzeppelin/contracts/access/extensions/AccessControlEnumerable.sol\":2186:2202  super._grantRole */\n      tag_205\n        /* \"@openzeppelin/contracts/access/extensions/AccessControlEnumerable.sol\":2186:2217  super._grantRole(role, account) */\n      jump\t// in\n    tag_204:\n        /* \"@openzeppelin/contracts/access/extensions/AccessControlEnumerable.sol\":2171:2217  bool granted = super._grantRole(role, account) */\n      swap1\n      pop\n        /* \"@openzeppelin/contracts/access/extensions/AccessControlEnumerable.sol\":2231:2238  granted */\n      dup1\n        /* \"@openzeppelin/contracts/access/extensions/AccessControlEnumerable.sol\":2227:2296  if (granted) {... */\n      iszero\n      tag_206\n      jumpi\n        /* \"@openzeppelin/contracts/access/extensions/AccessControlEnumerable.sol\":2254:2285  _roleMembers[role].add(account) */\n      tag_207\n        /* \"@openzeppelin/contracts/access/extensions/AccessControlEnumerable.sol\":2277:2284  account */\n      dup4\n        /* \"@openzeppelin/contracts/access/extensions/AccessControlEnumerable.sol\":2254:2266  _roleMembers */\n      0x02\n        /* \"@openzeppelin/contracts/access/extensions/AccessControlEnumerable.sol\":2254:2272  _roleMembers[role] */\n      0x00\n        /* \"@openzeppelin/contracts/access/extensions/AccessControlEnumerable.sol\":2267:2271  role */\n      dup8\n        /* \"@openzeppelin/contracts/access/extensions/AccessControlEnumerable.sol\":2254:2272  _roleMembers[role] */\n      dup2\n      mstore\n      0x20\n      add\n      swap1\n      dup2\n      mstore\n      0x20\n      add\n      0x00\n      keccak256\n        /* \"@openzeppelin/contracts/access/extensions/AccessControlEnumerable.sol\":2254:2276  _roleMembers[role].add */\n      tag_208\n      swap1\n        /* \"@openzeppelin/contracts/access/extensions/AccessControlEnumerable.sol\":2254:2285  _roleMembers[role].add(account) */\n      swap2\n      swap1\n      0xffffffff\n      and\n      jump\t// in\n    tag_207:\n      pop\n        /* \"@openzeppelin/contracts/access/extensions/AccessControlEnumerable.sol\":2227:2296  if (granted) {... */\n    tag_206:\n        /* \"@openzeppelin/contracts/access/extensions/AccessControlEnumerable.sol\":2312:2319  granted */\n      dup1\n        /* \"@openzeppelin/contracts/access/extensions/AccessControlEnumerable.sol\":2305:2319  return granted */\n      swap2\n      pop\n      pop\n        /* \"@openzeppelin/contracts/access/extensions/AccessControlEnumerable.sol\":2069:2326  function _grantRole(bytes32 role, address account) internal virtual override returns (bool) {... */\n      swap3\n      swap2\n      pop\n      pop\n      jump\t// out\n        /* \"@openzeppelin/contracts/access/extensions/AccessControlEnumerable.sol\":2429:2691  function _revokeRole(bytes32 role, address account) internal virtual override returns (bool) {... */\n    tag_146:\n        /* \"@openzeppelin/contracts/access/extensions/AccessControlEnumerable.sol\":2516:2520  bool */\n      0x00\n        /* \"@openzeppelin/contracts/access/extensions/AccessControlEnumerable.sol\":2532:2544  bool revoked */\n      dup1\n        /* \"@openzeppelin/contracts/access/extensions/AccessControlEnumerable.sol\":2547:2579  super._revokeRole(role, account) */\n      tag_210\n        /* \"@openzeppelin/contracts/access/extensions/AccessControlEnumerable.sol\":2565:2569  role */\n      dup5\n        /* \"@openzeppelin/contracts/access/extensions/AccessControlEnumerable.sol\":2571:2578  account */\n      dup5\n        /* \"@openzeppelin/contracts/access/extensions/AccessControlEnumerable.sol\":2547:2564  super._revokeRole */\n      tag_211\n        /* \"@openzeppelin/contracts/access/extensions/AccessControlEnumerable.sol\":2547:2579  super._revokeRole(role, account) */\n      jump\t// in\n    tag_210:\n        /* \"@openzeppelin/contracts/access/extensions/AccessControlEnumerable.sol\":2532:2579  bool revoked = super._revokeRole(role, account) */\n      swap1\n      pop\n        /* \"@openzeppelin/contracts/access/extensions/AccessControlEnumerable.sol\":2593:2600  revoked */\n      dup1\n        /* \"@openzeppelin/contracts/access/extensions/AccessControlEnumerable.sol\":2589:2661  if (revoked) {... */\n      iszero\n      tag_212\n      jumpi\n        /* \"@openzeppelin/contracts/access/extensions/AccessControlEnumerable.sol\":2616:2650  _roleMembers[role].remove(account) */\n      tag_213\n        /* \"@openzeppelin/contracts/access/extensions/AccessControlEnumerable.sol\":2642:2649  account */\n      dup4\n        /* \"@openzeppelin/contracts/access/extensions/AccessControlEnumerable.sol\":2616:2628  _roleMembers */\n      0x02\n        /* \"@openzeppelin/contracts/access/extensions/AccessControlEnumerable.sol\":2616:2634  _roleMembers[role] */\n      0x00\n        /* \"@openzeppelin/contracts/access/extensions/AccessControlEnumerable.sol\":2629:2633  role */\n      dup8\n        /* \"@openzeppelin/contracts/access/extensions/AccessControlEnumerable.sol\":2616:2634  _roleMembers[role] */\n      dup2\n      mstore\n      0x20\n      add\n      swap1\n      dup2\n      mstore\n      0x20\n      add\n      0x00\n      keccak256\n        /* \"@openzeppelin/contracts/access/extensions/AccessControlEnumerable.sol\":2616:2641  _roleMembers[role].remove */\n      tag_214\n      swap1\n        /* \"@openzeppelin/contracts/access/extensions/AccessControlEnumerable.sol\":2616:2650  _roleMembers[role].remove(account) */\n      swap2\n      swap1\n      0xffffffff\n      and\n      jump\t// in\n    tag_213:\n      pop\n        /* \"@openzeppelin/contracts/access/extensions/AccessControlEnumerable.sol\":2589:2661  if (revoked) {... */\n    tag_212:\n        /* \"@openzeppelin/contracts/access/extensions/AccessControlEnumerable.sol\":2677:2684  revoked */\n      dup1\n        /* \"@openzeppelin/contracts/access/extensions/AccessControlEnumerable.sol\":2670:2684  return revoked */\n      swap2\n      pop\n      pop\n        /* \"@openzeppelin/contracts/access/extensions/AccessControlEnumerable.sol\":2429:2691  function _revokeRole(bytes32 role, address account) internal virtual override returns (bool) {... */\n      swap3\n      swap2\n      pop\n      pop\n      jump\t// out\n        /* \"@openzeppelin/contracts/access/Ownable.sol\":2912:3099  function _transferOwnership(address newOwner) internal virtual {... */\n    tag_151:\n        /* \"@openzeppelin/contracts/access/Ownable.sol\":2985:3001  address oldOwner */\n      0x00\n        /* \"@openzeppelin/contracts/access/Ownable.sol\":3004:3010  _owner */\n      dup1\n      0x00\n      swap1\n      sload\n      swap1\n      0x0100\n      exp\n      swap1\n      div\n      0xffffffffffffffffffffffffffffffffffffffff\n      and\n        /* \"@openzeppelin/contracts/access/Ownable.sol\":2985:3010  address oldOwner = _owner */\n      swap1\n      pop\n        /* \"@openzeppelin/contracts/access/Ownable.sol\":3029:3037  newOwner */\n      dup2\n        /* \"@openzeppelin/contracts/access/Ownable.sol\":3020:3026  _owner */\n      0x00\n      dup1\n        /* \"@openzeppelin/contracts/access/Ownable.sol\":3020:3037  _owner = newOwner */\n      0x0100\n      exp\n      dup2\n      sload\n      dup2\n      0xffffffffffffffffffffffffffffffffffffffff\n      mul\n      not\n      and\n      swap1\n      dup4\n      0xffffffffffffffffffffffffffffffffffffffff\n      and\n      mul\n      or\n      swap1\n      sstore\n      pop\n        /* \"@openzeppelin/contracts/access/Ownable.sol\":3083:3091  newOwner */\n      dup2\n        /* \"@openzeppelin/contracts/access/Ownable.sol\":3052:3092  OwnershipTransferred(oldOwner, newOwner) */\n      0xffffffffffffffffffffffffffffffffffffffff\n      and\n        /* \"@openzeppelin/contracts/access/Ownable.sol\":3073:3081  oldOwner */\n      dup2\n        /* \"@openzeppelin/contracts/access/Ownable.sol\":3052:3092  OwnershipTransferred(oldOwner, newOwner) */\n      0xffffffffffffffffffffffffffffffffffffffff\n      and\n      0x8be0079c531659141344cd1fd0a4f28419497f9722a3daafe3b4186f6b6457e0\n      mload(0x40)\n      mload(0x40)\n      dup1\n      swap2\n      sub\n      swap1\n      log3\n        /* \"@openzeppelin/contracts/access/Ownable.sol\":2975:3099  {... */\n      pop\n        /* \"@openzeppelin/contracts/access/Ownable.sol\":2912:3099  function _transferOwnership(address newOwner) internal virtual {... */\n      pop\n      jump\t// out\n        /* \"@openzeppelin/contracts/utils/structs/EnumerableSet.sol\":9574:9730  function at(AddressSet storage set, uint256 index) internal view returns (address) {... */\n    tag_158:\n        /* \"@openzeppelin/contracts/utils/structs/EnumerableSet.sol\":9648:9655  address */\n      0x00\n        /* \"@openzeppelin/contracts/utils/structs/EnumerableSet.sol\":9698:9720  _at(set._inner, index) */\n      tag_217\n        /* \"@openzeppelin/contracts/utils/structs/EnumerableSet.sol\":9702:9705  set */\n      dup4\n        /* \"@openzeppelin/contracts/utils/structs/EnumerableSet.sol\":9702:9712  set._inner */\n      0x00\n      add\n        /* \"@openzeppelin/contracts/utils/structs/EnumerableSet.sol\":9714:9719  index */\n      dup4\n        /* \"@openzeppelin/contracts/utils/structs/EnumerableSet.sol\":9698:9701  _at */\n      tag_218\n        /* \"@openzeppelin/contracts/utils/structs/EnumerableSet.sol\":9698:9720  _at(set._inner, index) */\n      jump\t// in\n    tag_217:\n        /* \"@openzeppelin/contracts/utils/structs/EnumerableSet.sol\":9690:9721  uint256(_at(set._inner, index)) */\n      0x00\n      shr\n        /* \"@openzeppelin/contracts/utils/structs/EnumerableSet.sol\":9667:9723  return address(uint160(uint256(_at(set._inner, index)))) */\n      swap1\n      pop\n        /* \"@openzeppelin/contracts/utils/structs/EnumerableSet.sol\":9574:9730  function at(AddressSet storage set, uint256 index) internal view returns (address) {... */\n      swap3\n      swap2\n      pop\n      pop\n      jump\t// out\n        /* \"@openzeppelin/contracts/token/ERC20/utils/SafeERC20.sol\":1702:1890  function safeTransferFrom(IERC20 token, address from, address to, uint256 value) internal {... */\n    tag_170:\n        /* \"@openzeppelin/contracts/token/ERC20/utils/SafeERC20.sol\":1802:1883  _callOptionalReturn(token, abi.encodeCall(token.transferFrom, (from, to, value))) */\n      tag_220\n        /* \"@openzeppelin/contracts/token/ERC20/utils/SafeERC20.sol\":1822:1827  token */\n      dup5\n        /* \"@openzeppelin/contracts/token/ERC20/utils/SafeERC20.sol\":1844:1849  token */\n      dup6\n        /* \"@openzeppelin/contracts/token/ERC20/utils/SafeERC20.sol\":1844:1862  token.transferFrom */\n      0xffffffffffffffffffffffffffffffffffffffff\n      and\n      0x23b872dd\n        /* \"@openzeppelin/contracts/token/ERC20/utils/SafeERC20.sol\":1865:1869  from */\n      dup7\n        /* \"@openzeppelin/contracts/token/ERC20/utils/SafeERC20.sol\":1871:1873  to */\n      dup7\n        /* \"@openzeppelin/contracts/token/ERC20/utils/SafeERC20.sol\":1875:1880  value */\n      dup7\n        /* \"@openzeppelin/contracts/token/ERC20/utils/SafeERC20.sol\":1829:1882  abi.encodeCall(token.transferFrom, (from, to, value)) */\n      add(0x24, mload(0x40))\n      tag_221\n      swap4\n      swap3\n      swap2\n      swap1\n      tag_222\n      jump\t// in\n    tag_221:\n      mload(0x40)\n      0x20\n      dup2\n      dup4\n      sub\n      sub\n      dup2\n      mstore\n      swap1\n      0x40\n      mstore\n      swap2\n      pop\n      0xe0\n      shl\n      0x20\n      dup3\n      add\n      dup1\n      mload\n      0xffffffffffffffffffffffffffffffffffffffffffffffffffffffff\n      dup4\n      dup2\n      dup4\n      and\n      or\n      dup4\n      mstore\n      pop\n      pop\n      pop\n      pop\n        /* \"@openzeppelin/contracts/token/ERC20/utils/SafeERC20.sol\":1802:1821  _callOptionalReturn */\n      tag_223\n        /* \"@openzeppelin/contracts/token/ERC20/utils/SafeERC20.sol\":1802:1883  _callOptionalReturn(token, abi.encodeCall(token.transferFrom, (from, to, value))) */\n      jump\t// in\n    tag_220:\n        /* \"@openzeppelin/contracts/token/ERC20/utils/SafeERC20.sol\":1702:1890  function safeTransferFrom(IERC20 token, address from, address to, uint256 value) internal {... */\n      pop\n      pop\n      pop\n      pop\n      jump\t// out\n        /* \"@openzeppelin/contracts/utils/structs/EnumerableSet.sol\":9117:9232  function length(AddressSet storage set) internal view returns (uint256) {... */\n    tag_173:\n        /* \"@openzeppelin/contracts/utils/structs/EnumerableSet.sol\":9180:9187  uint256 */\n      0x00\n        /* \"@openzeppelin/contracts/utils/structs/EnumerableSet.sol\":9206:9225  _length(set._inner) */\n      tag_225\n        /* \"@openzeppelin/contracts/utils/structs/EnumerableSet.sol\":9214:9217  set */\n      dup3\n        /* \"@openzeppelin/contracts/utils/structs/EnumerableSet.sol\":9214:9224  set._inner */\n      0x00\n      add\n        /* \"@openzeppelin/contracts/utils/structs/EnumerableSet.sol\":9206:9213  _length */\n      tag_226\n        /* \"@openzeppelin/contracts/utils/structs/EnumerableSet.sol\":9206:9225  _length(set._inner) */\n      jump\t// in\n    tag_225:\n        /* \"@openzeppelin/contracts/utils/structs/EnumerableSet.sol\":9199:9225  return _length(set._inner) */\n      swap1\n      pop\n        /* \"@openzeppelin/contracts/utils/structs/EnumerableSet.sol\":9117:9232  function length(AddressSet storage set) internal view returns (uint256) {... */\n      swap2\n      swap1\n      pop\n      jump\t// out\n        /* \"@openzeppelin/contracts/utils/introspection/ERC165.sol\":762:908  function supportsInterface(bytes4 interfaceId) public view virtual returns (bool) {... */\n    tag_192:\n        /* \"@openzeppelin/contracts/utils/introspection/ERC165.sol\":838:842  bool */\n      0x00\n        /* \"@openzeppelin/contracts/utils/introspection/ERC165.sol\":876:901  type(IERC165).interfaceId */\n      0x01ffc9a700000000000000000000000000000000000000000000000000000000\n        /* \"@openzeppelin/contracts/utils/introspection/ERC165.sol\":861:901  interfaceId == type(IERC165).interfaceId */\n      not(0xffffffffffffffffffffffffffffffffffffffffffffffffffffffff)\n      and\n        /* \"@openzeppelin/contracts/utils/introspection/ERC165.sol\":861:872  interfaceId */\n      dup3\n        /* \"@openzeppelin/contracts/utils/introspection/ERC165.sol\":861:901  interfaceId == type(IERC165).interfaceId */\n      not(0xffffffffffffffffffffffffffffffffffffffffffffffffffffffff)\n      and\n      eq\n        /* \"@openzeppelin/contracts/utils/introspection/ERC165.sol\":854:901  return interfaceId == type(IERC165).interfaceId */\n      swap1\n      pop\n        /* \"@openzeppelin/contracts/utils/introspection/ERC165.sol\":762:908  function supportsInterface(bytes4 interfaceId) public view virtual returns (bool) {... */\n      swap2\n      swap1\n      pop\n      jump\t// out\n        /* \"@openzeppelin/contracts/access/AccessControl.sol\":3432:3629  function _checkRole(bytes32 role, address account) internal view virtual {... */\n    tag_202:\n        /* \"@openzeppelin/contracts/access/AccessControl.sol\":3520:3542  hasRole(role, account) */\n      tag_229\n        /* \"@openzeppelin/contracts/access/AccessControl.sol\":3528:3532  role */\n      dup3\n        /* \"@openzeppelin/contracts/access/AccessControl.sol\":3534:3541  account */\n      dup3\n        /* \"@openzeppelin/contracts/access/AccessControl.sol\":3520:3527  hasRole */\n      tag_73\n        /* \"@openzeppelin/contracts/access/AccessControl.sol\":3520:3542  hasRole(role, account) */\n      jump\t// in\n    tag_229:\n        /* \"@openzeppelin/contracts/access/AccessControl.sol\":3515:3623  if (!hasRole(role, account)) {... */\n      tag_230\n      jumpi\n        /* \"@openzeppelin/contracts/access/AccessControl.sol\":3598:3605  account */\n      dup1\n        /* \"@openzeppelin/contracts/access/AccessControl.sol\":3607:3611  role */\n      dup3\n        /* \"@openzeppelin/contracts/access/AccessControl.sol\":3565:3612  AccessControlUnauthorizedAccount(account, role) */\n      mload(0x40)\n      0xe2517d3f00000000000000000000000000000000000000000000000000000000\n      dup2\n      mstore\n      0x04\n      add\n      tag_231\n      swap3\n      swap2\n      swap1\n      tag_232\n      jump\t// in\n    tag_231:\n      mload(0x40)\n      dup1\n      swap2\n      sub\n      swap1\n      revert\n        /* \"@openzeppelin/contracts/access/AccessControl.sol\":3515:3623  if (!hasRole(role, account)) {... */\n    tag_230:\n        /* \"@openzeppelin/contracts/access/AccessControl.sol\":3432:3629  function _checkRole(bytes32 role, address account) internal view virtual {... */\n      pop\n      pop\n      jump\t// out\n        /* \"@openzeppelin/contracts/access/AccessControl.sol\":6179:6495  function _grantRole(bytes32 role, address account) internal virtual returns (bool) {... */\n    tag_205:\n        /* \"@openzeppelin/contracts/access/AccessControl.sol\":6256:6260  bool */\n      0x00\n        /* \"@openzeppelin/contracts/access/AccessControl.sol\":6277:6299  hasRole(role, account) */\n      tag_234\n        /* \"@openzeppelin/contracts/access/AccessControl.sol\":6285:6289  role */\n      dup4\n        /* \"@openzeppelin/contracts/access/AccessControl.sol\":6291:6298  account */\n      dup4\n        /* \"@openzeppelin/contracts/access/AccessControl.sol\":6277:6284  hasRole */\n      tag_73\n        /* \"@openzeppelin/contracts/access/AccessControl.sol\":6277:6299  hasRole(role, account) */\n      jump\t// in\n    tag_234:\n        /* \"@openzeppelin/contracts/access/AccessControl.sol\":6272:6489  if (!hasRole(role, account)) {... */\n      tag_235\n      jumpi\n        /* \"@openzeppelin/contracts/access/AccessControl.sol\":6347:6351  true */\n      0x01\n        /* \"@openzeppelin/contracts/access/AccessControl.sol\":6315:6321  _roles */\n      dup1\n        /* \"@openzeppelin/contracts/access/AccessControl.sol\":6315:6327  _roles[role] */\n      0x00\n        /* \"@openzeppelin/contracts/access/AccessControl.sol\":6322:6326  role */\n      dup6\n        /* \"@openzeppelin/contracts/access/AccessControl.sol\":6315:6327  _roles[role] */\n      dup2\n      mstore\n      0x20\n      add\n      swap1\n      dup2\n      mstore\n      0x20\n      add\n      0x00\n      keccak256\n        /* \"@openzeppelin/contracts/access/AccessControl.sol\":6315:6335  _roles[role].hasRole */\n      0x00\n      add\n        /* \"@openzeppelin/contracts/access/AccessControl.sol\":6315:6344  _roles[role].hasRole[account] */\n      0x00\n        /* \"@openzeppelin/contracts/access/AccessControl.sol\":6336:6343  account */\n      dup5\n        /* \"@openzeppelin/contracts/access/AccessControl.sol\":6315:6344  _roles[role].hasRole[account] */\n      0xffffffffffffffffffffffffffffffffffffffff\n      and\n      0xffffffffffffffffffffffffffffffffffffffff\n      and\n      dup2\n      mstore\n      0x20\n      add\n      swap1\n      dup2\n      mstore\n      0x20\n      add\n      0x00\n      keccak256\n      0x00\n        /* \"@openzeppelin/contracts/access/AccessControl.sol\":6315:6351  _roles[role].hasRole[account] = true */\n      0x0100\n      exp\n      dup2\n      sload\n      dup2\n      0xff\n      mul\n      not\n      and\n      swap1\n      dup4\n      iszero\n      iszero\n      mul\n      or\n      swap1\n      sstore\n      pop\n        /* \"@openzeppelin/contracts/access/AccessControl.sol\":6397:6409  _msgSender() */\n      tag_236\n        /* \"@openzeppelin/contracts/access/AccessControl.sol\":6397:6407  _msgSender */\n      tag_105\n        /* \"@openzeppelin/contracts/access/AccessControl.sol\":6397:6409  _msgSender() */\n      jump\t// in\n    tag_236:\n        /* \"@openzeppelin/contracts/access/AccessControl.sol\":6370:6410  RoleGranted(role, account, _msgSender()) */\n      0xffffffffffffffffffffffffffffffffffffffff\n      and\n        /* \"@openzeppelin/contracts/access/AccessControl.sol\":6388:6395  account */\n      dup3\n        /* \"@openzeppelin/contracts/access/AccessControl.sol\":6370:6410  RoleGranted(role, account, _msgSender()) */\n      0xffffffffffffffffffffffffffffffffffffffff\n      and\n        /* \"@openzeppelin/contracts/access/AccessControl.sol\":6382:6386  role */\n      dup5\n        /* \"@openzeppelin/contracts/access/AccessControl.sol\":6370:6410  RoleGranted(role, account, _msgSender()) */\n      0x2f8788117e7eff1d82e926ec794901d17c78024a50270940304540a733656f0d\n      mload(0x40)\n      mload(0x40)\n      dup1\n      swap2\n      sub\n      swap1\n      log4\n        /* \"@openzeppelin/contracts/access/AccessControl.sol\":6431:6435  true */\n      0x01\n        /* \"@openzeppelin/contracts/access/AccessControl.sol\":6424:6435  return true */\n      swap1\n      pop\n      jump(tag_233)\n        /* \"@openzeppelin/contracts/access/AccessControl.sol\":6272:6489  if (!hasRole(role, account)) {... */\n    tag_235:\n        /* \"@openzeppelin/contracts/access/AccessControl.sol\":6473:6478  false */\n      0x00\n        /* \"@openzeppelin/contracts/access/AccessControl.sol\":6466:6478  return false */\n      swap1\n      pop\n        /* \"@openzeppelin/contracts/access/AccessControl.sol\":6179:6495  function _grantRole(bytes32 role, address account) internal virtual returns (bool) {... */\n    tag_233:\n      swap3\n      swap2\n      pop\n      pop\n      jump\t// out\n        /* \"@openzeppelin/contracts/utils/structs/EnumerableSet.sol\":8316:8466  function add(AddressSet storage set, address value) internal returns (bool) {... */\n    tag_208:\n        /* \"@openzeppelin/contracts/utils/structs/EnumerableSet.sol\":8386:8390  bool */\n      0x00\n        /* \"@openzeppelin/contracts/utils/structs/EnumerableSet.sol\":8409:8459  _add(set._inner, bytes32(uint256(uint160(value)))) */\n      tag_239\n        /* \"@openzeppelin/contracts/utils/structs/EnumerableSet.sol\":8414:8417  set */\n      dup4\n        /* \"@openzeppelin/contracts/utils/structs/EnumerableSet.sol\":8414:8424  set._inner */\n      0x00\n      add\n        /* \"@openzeppelin/contracts/utils/structs/EnumerableSet.sol\":8450:8455  value */\n      dup4\n        /* \"@openzeppelin/contracts/utils/structs/EnumerableSet.sol\":8434:8457  uint256(uint160(value)) */\n      0xffffffffffffffffffffffffffffffffffffffff\n      and\n        /* \"@openzeppelin/contracts/utils/structs/EnumerableSet.sol\":8426:8458  bytes32(uint256(uint160(value))) */\n      0x00\n      shl\n        /* \"@openzeppelin/contracts/utils/structs/EnumerableSet.sol\":8409:8413  _add */\n      tag_240\n        /* \"@openzeppelin/contracts/utils/structs/EnumerableSet.sol\":8409:8459  _add(set._inner, bytes32(uint256(uint160(value)))) */\n      jump\t// in\n    tag_239:\n        /* \"@openzeppelin/contracts/utils/structs/EnumerableSet.sol\":8402:8459  return _add(set._inner, bytes32(uint256(uint160(value)))) */\n      swap1\n      pop\n        /* \"@openzeppelin/contracts/utils/structs/EnumerableSet.sol\":8316:8466  function add(AddressSet storage set, address value) internal returns (bool) {... */\n      swap3\n      swap2\n      pop\n      pop\n      jump\t// out\n        /* \"@openzeppelin/contracts/access/AccessControl.sol\":6730:7047  function _revokeRole(bytes32 role, address account) internal virtual returns (bool) {... */\n    tag_211:\n        /* \"@openzeppelin/contracts/access/AccessControl.sol\":6808:6812  bool */\n      0x00\n        /* \"@openzeppelin/contracts/access/AccessControl.sol\":6828:6850  hasRole(role, account) */\n      tag_242\n        /* \"@openzeppelin/contracts/access/AccessControl.sol\":6836:6840  role */\n      dup4\n        /* \"@openzeppelin/contracts/access/AccessControl.sol\":6842:6849  account */\n      dup4\n        /* \"@openzeppelin/contracts/access/AccessControl.sol\":6828:6835  hasRole */\n      tag_73\n        /* \"@openzeppelin/contracts/access/AccessControl.sol\":6828:6850  hasRole(role, account) */\n      jump\t// in\n    tag_242:\n        /* \"@openzeppelin/contracts/access/AccessControl.sol\":6824:7041  if (hasRole(role, account)) {... */\n      iszero\n      tag_243\n      jumpi\n        /* \"@openzeppelin/contracts/access/AccessControl.sol\":6898:6903  false */\n      0x00\n        /* \"@openzeppelin/contracts/access/AccessControl.sol\":6866:6872  _roles */\n      0x01\n        /* \"@openzeppelin/contracts/access/AccessControl.sol\":6866:6878  _roles[role] */\n      0x00\n        /* \"@openzeppelin/contracts/access/AccessControl.sol\":6873:6877  role */\n      dup6\n        /* \"@openzeppelin/contracts/access/AccessControl.sol\":6866:6878  _roles[role] */\n      dup2\n      mstore\n      0x20\n      add\n      swap1\n      dup2\n      mstore\n      0x20\n      add\n      0x00\n      keccak256\n        /* \"@openzeppelin/contracts/access/AccessControl.sol\":6866:6886  _roles[role].hasRole */\n      0x00\n      add\n        /* \"@openzeppelin/contracts/access/AccessControl.sol\":6866:6895  _roles[role].hasRole[account] */\n      0x00\n        /* \"@openzeppelin/contracts/access/AccessControl.sol\":6887:6894  account */\n      dup5\n        /* \"@openzeppelin/contracts/access/AccessControl.sol\":6866:6895  _roles[role].hasRole[account] */\n      0xffffffffffffffffffffffffffffffffffffffff\n      and\n      0xffffffffffffffffffffffffffffffffffffffff\n      and\n      dup2\n      mstore\n      0x20\n      add\n      swap1\n      dup2\n      mstore\n      0x20\n      add\n      0x00\n      keccak256\n      0x00\n        /* \"@openzeppelin/contracts/access/AccessControl.sol\":6866:6903  _roles[role].hasRole[account] = false */\n      0x0100\n      exp\n      dup2\n      sload\n      dup2\n      0xff\n      mul\n      not\n      and\n      swap1\n      dup4\n      iszero\n      iszero\n      mul\n      or\n      swap1\n      sstore\n      pop\n        /* \"@openzeppelin/contracts/access/AccessControl.sol\":6949:6961  _msgSender() */\n      tag_244\n        /* \"@openzeppelin/contracts/access/AccessControl.sol\":6949:6959  _msgSender */\n      tag_105\n        /* \"@openzeppelin/contracts/access/AccessControl.sol\":6949:6961  _msgSender() */\n      jump\t// in\n    tag_244:\n        /* \"@openzeppelin/contracts/access/AccessControl.sol\":6922:6962  RoleRevoked(role, account, _msgSender()) */\n      0xffffffffffffffffffffffffffffffffffffffff\n      and\n        /* \"@openzeppelin/contracts/access/AccessControl.sol\":6940:6947  account */\n      dup3\n        /* \"@openzeppelin/contracts/access/AccessControl.sol\":6922:6962  RoleRevoked(role, account, _msgSender()) */\n      0xffffffffffffffffffffffffffffffffffffffff\n      and\n        /* \"@openzeppelin/contracts/access/AccessControl.sol\":6934:6938  role */\n      dup5\n        /* \"@openzeppelin/contracts/access/AccessControl.sol\":6922:6962  RoleRevoked(role, account, _msgSender()) */\n      0xf6391f5c32d9c69d2a47ea670b442974b53935d1edc7fd64eb21e047a839171b\n      mload(0x40)\n      mload(0x40)\n      dup1\n      swap2\n      sub\n      swap1\n      log4\n        /* \"@openzeppelin/contracts/access/AccessControl.sol\":6983:6987  true */\n      0x01\n        /* \"@openzeppelin/contracts/access/AccessControl.sol\":6976:6987  return true */\n      swap1\n      pop\n      jump(tag_241)\n        /* \"@openzeppelin/contracts/access/AccessControl.sol\":6824:7041  if (hasRole(role, account)) {... */\n    tag_243:\n        /* \"@openzeppelin/contracts/access/AccessControl.sol\":7025:7030  false */\n      0x00\n        /* \"@openzeppelin/contracts/access/AccessControl.sol\":7018:7030  return false */\n      swap1\n      pop\n        /* \"@openzeppelin/contracts/access/AccessControl.sol\":6730:7047  function _revokeRole(bytes32 role, address account) internal virtual returns (bool) {... */\n    tag_241:\n      swap3\n      swap2\n      pop\n      pop\n      jump\t// out\n        /* \"@openzeppelin/contracts/utils/structs/EnumerableSet.sol\":8634:8790  function remove(AddressSet storage set, address value) internal returns (bool) {... */\n    tag_214:\n        /* \"@openzeppelin/contracts/utils/structs/EnumerableSet.sol\":8707:8711  bool */\n      0x00\n        /* \"@openzeppelin/contracts/utils/structs/EnumerableSet.sol\":8730:8783  _remove(set._inner, bytes32(uint256(uint160(value)))) */\n      tag_247\n        /* \"@openzeppelin/contracts/utils/structs/EnumerableSet.sol\":8738:8741  set */\n      dup4\n        /* \"@openzeppelin/contracts/utils/structs/EnumerableSet.sol\":8738:8748  set._inner */\n      0x00\n      add\n        /* \"@openzeppelin/contracts/utils/structs/EnumerableSet.sol\":8774:8779  value */\n      dup4\n        /* \"@openzeppelin/contracts/utils/structs/EnumerableSet.sol\":8758:8781  uint256(uint160(value)) */\n      0xffffffffffffffffffffffffffffffffffffffff\n      and\n        /* \"@openzeppelin/contracts/utils/structs/EnumerableSet.sol\":8750:8782  bytes32(uint256(uint160(value))) */\n      0x00\n      shl\n        /* \"@openzeppelin/contracts/utils/structs/EnumerableSet.sol\":8730:8737  _remove */\n      tag_248\n        /* \"@openzeppelin/contracts/utils/structs/EnumerableSet.sol\":8730:8783  _remove(set._inner, bytes32(uint256(uint160(value)))) */\n      jump\t// in\n    tag_247:\n        /* \"@openzeppelin/contracts/utils/structs/EnumerableSet.sol\":8723:8783  return _remove(set._inner, bytes32(uint256(uint160(value)))) */\n      swap1\n      pop\n        /* \"@openzeppelin/contracts/utils/structs/EnumerableSet.sol\":8634:8790  function remove(AddressSet storage set, address value) internal returns (bool) {... */\n      swap3\n      swap2\n      pop\n      pop\n      jump\t// out\n        /* \"@openzeppelin/contracts/utils/structs/EnumerableSet.sol\":4923:5041  function _at(Set storage set, uint256 index) private view returns (bytes32) {... */\n    tag_218:\n        /* \"@openzeppelin/contracts/utils/structs/EnumerableSet.sol\":4990:4997  bytes32 */\n      0x00\n        /* \"@openzeppelin/contracts/utils/structs/EnumerableSet.sol\":5016:5019  set */\n      dup3\n        /* \"@openzeppelin/contracts/utils/structs/EnumerableSet.sol\":5016:5027  set._values */\n      0x00\n      add\n        /* \"@openzeppelin/contracts/utils/structs/EnumerableSet.sol\":5028:5033  index */\n      dup3\n        /* \"@openzeppelin/contracts/utils/structs/EnumerableSet.sol\":5016:5034  set._values[index] */\n      dup2\n      sload\n      dup2\n      lt\n      tag_250\n      jumpi\n      tag_251\n      tag_252\n      jump\t// in\n    tag_251:\n    tag_250:\n      swap1\n      0x00\n      mstore\n      keccak256(0x00, 0x20)\n      add\n      sload\n        /* \"@openzeppelin/contracts/utils/structs/EnumerableSet.sol\":5009:5034  return set._values[index] */\n      swap1\n      pop\n        /* \"@openzeppelin/contracts/utils/structs/EnumerableSet.sol\":4923:5041  function _at(Set storage set, uint256 index) private view returns (bytes32) {... */\n      swap3\n      swap2\n      pop\n      pop\n      jump\t// out\n        /* \"@openzeppelin/contracts/token/ERC20/utils/SafeERC20.sol\":4059:4688  function _callOptionalReturn(IERC20 token, bytes memory data) private {... */\n    tag_223:\n        /* \"@openzeppelin/contracts/token/ERC20/utils/SafeERC20.sol\":4478:4501  bytes memory returndata */\n      0x00\n        /* \"@openzeppelin/contracts/token/ERC20/utils/SafeERC20.sol\":4504:4537  address(token).functionCall(data) */\n      tag_255\n        /* \"@openzeppelin/contracts/token/ERC20/utils/SafeERC20.sol\":4532:4536  data */\n      dup3\n        /* \"@openzeppelin/contracts/token/ERC20/utils/SafeERC20.sol\":4512:4517  token */\n      dup5\n        /* \"@openzeppelin/contracts/token/ERC20/utils/SafeERC20.sol\":4504:4531  address(token).functionCall */\n      0xffffffffffffffffffffffffffffffffffffffff\n      and\n      tag_256\n      swap1\n        /* \"@openzeppelin/contracts/token/ERC20/utils/SafeERC20.sol\":4504:4537  address(token).functionCall(data) */\n      swap2\n      swap1\n      0xffffffff\n      and\n      jump\t// in\n    tag_255:\n        /* \"@openzeppelin/contracts/token/ERC20/utils/SafeERC20.sol\":4478:4537  bytes memory returndata = address(token).functionCall(data) */\n      swap1\n      pop\n        /* \"@openzeppelin/contracts/token/ERC20/utils/SafeERC20.sol\":4572:4573  0 */\n      0x00\n        /* \"@openzeppelin/contracts/token/ERC20/utils/SafeERC20.sol\":4551:4561  returndata */\n      dup2\n        /* \"@openzeppelin/contracts/token/ERC20/utils/SafeERC20.sol\":4551:4568  returndata.length */\n      mload\n        /* \"@openzeppelin/contracts/token/ERC20/utils/SafeERC20.sol\":4551:4573  returndata.length != 0 */\n      eq\n      iszero\n        /* \"@openzeppelin/contracts/token/ERC20/utils/SafeERC20.sol\":4551:4608  returndata.length != 0 && !abi.decode(returndata, (bool)) */\n      dup1\n      iszero\n      tag_257\n      jumpi\n      pop\n        /* \"@openzeppelin/contracts/token/ERC20/utils/SafeERC20.sol\":4589:4599  returndata */\n      dup1\n        /* \"@openzeppelin/contracts/token/ERC20/utils/SafeERC20.sol\":4578:4608  abi.decode(returndata, (bool)) */\n      dup1\n      0x20\n      add\n      swap1\n      mload\n      dup2\n      add\n      swap1\n      tag_258\n      swap2\n      swap1\n      tag_125\n      jump\t// in\n    tag_258:\n        /* \"@openzeppelin/contracts/token/ERC20/utils/SafeERC20.sol\":4577:4608  !abi.decode(returndata, (bool)) */\n      iszero\n        /* \"@openzeppelin/contracts/token/ERC20/utils/SafeERC20.sol\":4551:4608  returndata.length != 0 && !abi.decode(returndata, (bool)) */\n    tag_257:\n        /* \"@openzeppelin/contracts/token/ERC20/utils/SafeERC20.sol\":4547:4682  if (returndata.length != 0 && !abi.decode(returndata, (bool))) {... */\n      iszero\n      tag_259\n      jumpi\n        /* \"@openzeppelin/contracts/token/ERC20/utils/SafeERC20.sol\":4664:4669  token */\n      dup3\n        /* \"@openzeppelin/contracts/token/ERC20/utils/SafeERC20.sol\":4631:4671  SafeERC20FailedOperation(address(token)) */\n      mload(0x40)\n      0x5274afe700000000000000000000000000000000000000000000000000000000\n      dup2\n      mstore\n      0x04\n      add\n      tag_260\n      swap2\n      swap1\n      tag_65\n      jump\t// in\n    tag_260:\n      mload(0x40)\n      dup1\n      swap2\n      sub\n      swap1\n      revert\n        /* \"@openzeppelin/contracts/token/ERC20/utils/SafeERC20.sol\":4547:4682  if (returndata.length != 0 && !abi.decode(returndata, (bool))) {... */\n    tag_259:\n        /* \"@openzeppelin/contracts/token/ERC20/utils/SafeERC20.sol\":4129:4688  {... */\n      pop\n        /* \"@openzeppelin/contracts/token/ERC20/utils/SafeERC20.sol\":4059:4688  function _callOptionalReturn(IERC20 token, bytes memory data) private {... */\n      pop\n      pop\n      jump\t// out\n        /* \"@openzeppelin/contracts/utils/structs/EnumerableSet.sol\":4474:4581  function _length(Set storage set) private view returns (uint256) {... */\n    tag_226:\n        /* \"@openzeppelin/contracts/utils/structs/EnumerableSet.sol\":4530:4537  uint256 */\n      0x00\n        /* \"@openzeppelin/contracts/utils/structs/EnumerableSet.sol\":4556:4559  set */\n      dup2\n        /* \"@openzeppelin/contracts/utils/structs/EnumerableSet.sol\":4556:4567  set._values */\n      0x00\n      add\n        /* \"@openzeppelin/contracts/utils/structs/EnumerableSet.sol\":4556:4574  set._values.length */\n      dup1\n      sload\n      swap1\n      pop\n        /* \"@openzeppelin/contracts/utils/structs/EnumerableSet.sol\":4549:4574  return set._values.length */\n      swap1\n      pop\n        /* \"@openzeppelin/contracts/utils/structs/EnumerableSet.sol\":4474:4581  function _length(Set storage set) private view returns (uint256) {... */\n      swap2\n      swap1\n      pop\n      jump\t// out\n        /* \"@openzeppelin/contracts/utils/structs/EnumerableSet.sol\":2241:2647  function _add(Set storage set, bytes32 value) private returns (bool) {... */\n    tag_240:\n        /* \"@openzeppelin/contracts/utils/structs/EnumerableSet.sol\":2304:2308  bool */\n      0x00\n        /* \"@openzeppelin/contracts/utils/structs/EnumerableSet.sol\":2325:2346  _contains(set, value) */\n      tag_263\n        /* \"@openzeppelin/contracts/utils/structs/EnumerableSet.sol\":2335:2338  set */\n      dup4\n        /* \"@openzeppelin/contracts/utils/structs/EnumerableSet.sol\":2340:2345  value */\n      dup4\n        /* \"@openzeppelin/contracts/utils/structs/EnumerableSet.sol\":2325:2334  _contains */\n      tag_264\n        /* \"@openzeppelin/contracts/utils/structs/EnumerableSet.sol\":2325:2346  _contains(set, value) */\n      jump\t// in\n    tag_263:\n        /* \"@openzeppelin/contracts/utils/structs/EnumerableSet.sol\":2320:2641  if (!_contains(set, value)) {... */\n      tag_265\n      jumpi\n        /* \"@openzeppelin/contracts/utils/structs/EnumerableSet.sol\":2362:2365  set */\n      dup3\n        /* \"@openzeppelin/contracts/utils/structs/EnumerableSet.sol\":2362:2373  set._values */\n      0x00\n      add\n        /* \"@openzeppelin/contracts/utils/structs/EnumerableSet.sol\":2379:2384  value */\n      dup3\n        /* \"@openzeppelin/contracts/utils/structs/EnumerableSet.sol\":2362:2385  set._values.push(value) */\n      swap1\n      dup1\n      0x01\n      dup2\n      sload\n      add\n      dup1\n      dup3\n      sstore\n      dup1\n      swap2\n      pop\n      pop\n      0x01\n      swap1\n      sub\n      swap1\n      0x00\n      mstore\n      keccak256(0x00, 0x20)\n      add\n      0x00\n      swap1\n      swap2\n      swap1\n      swap2\n      swap1\n      swap2\n      pop\n      sstore\n        /* \"@openzeppelin/contracts/utils/structs/EnumerableSet.sol\":2544:2547  set */\n      dup3\n        /* \"@openzeppelin/contracts/utils/structs/EnumerableSet.sol\":2544:2555  set._values */\n      0x00\n      add\n        /* \"@openzeppelin/contracts/utils/structs/EnumerableSet.sol\":2544:2562  set._values.length */\n      dup1\n      sload\n      swap1\n      pop\n        /* \"@openzeppelin/contracts/utils/structs/EnumerableSet.sol\":2520:2523  set */\n      dup4\n        /* \"@openzeppelin/contracts/utils/structs/EnumerableSet.sol\":2520:2534  set._positions */\n      0x01\n      add\n        /* \"@openzeppelin/contracts/utils/structs/EnumerableSet.sol\":2520:2541  set._positions[value] */\n      0x00\n        /* \"@openzeppelin/contracts/utils/structs/EnumerableSet.sol\":2535:2540  value */\n      dup5\n        /* \"@openzeppelin/contracts/utils/structs/EnumerableSet.sol\":2520:2541  set._positions[value] */\n      dup2\n      mstore\n      0x20\n      add\n      swap1\n      dup2\n      mstore\n      0x20\n      add\n      0x00\n      keccak256\n        /* \"@openzeppelin/contracts/utils/structs/EnumerableSet.sol\":2520:2562  set._positions[value] = set._values.length */\n      dup2\n      swap1\n      sstore\n      pop\n        /* \"@openzeppelin/contracts/utils/structs/EnumerableSet.sol\":2583:2587  true */\n      0x01\n        /* \"@openzeppelin/contracts/utils/structs/EnumerableSet.sol\":2576:2587  return true */\n      swap1\n      pop\n      jump(tag_262)\n        /* \"@openzeppelin/contracts/utils/structs/EnumerableSet.sol\":2320:2641  if (!_contains(set, value)) {... */\n    tag_265:\n        /* \"@openzeppelin/contracts/utils/structs/EnumerableSet.sol\":2625:2630  false */\n      0x00\n        /* \"@openzeppelin/contracts/utils/structs/EnumerableSet.sol\":2618:2630  return false */\n      swap1\n      pop\n        /* \"@openzeppelin/contracts/utils/structs/EnumerableSet.sol\":2241:2647  function _add(Set storage set, bytes32 value) private returns (bool) {... */\n    tag_262:\n      swap3\n      swap2\n      pop\n      pop\n      jump\t// out\n        /* \"@openzeppelin/contracts/utils/structs/EnumerableSet.sol\":2815:4183  function _remove(Set storage set, bytes32 value) private returns (bool) {... */\n    tag_248:\n        /* \"@openzeppelin/contracts/utils/structs/EnumerableSet.sol\":2881:2885  bool */\n      0x00\n        /* \"@openzeppelin/contracts/utils/structs/EnumerableSet.sol\":2991:3007  uint256 position */\n      dup1\n        /* \"@openzeppelin/contracts/utils/structs/EnumerableSet.sol\":3010:3013  set */\n      dup4\n        /* \"@openzeppelin/contracts/utils/structs/EnumerableSet.sol\":3010:3024  set._positions */\n      0x01\n      add\n        /* \"@openzeppelin/contracts/utils/structs/EnumerableSet.sol\":3010:3031  set._positions[value] */\n      0x00\n        /* \"@openzeppelin/contracts/utils/structs/EnumerableSet.sol\":3025:3030  value */\n      dup5\n        /* \"@openzeppelin/contracts/utils/structs/EnumerableSet.sol\":3010:3031  set._positions[value] */\n      dup2\n      mstore\n      0x20\n      add\n      swap1\n      dup2\n      mstore\n      0x20\n      add\n      0x00\n      keccak256\n      sload\n        /* \"@openzeppelin/contracts/utils/structs/EnumerableSet.sol\":2991:3031  uint256 position = set._positions[value] */\n      swap1\n      pop\n        /* \"@openzeppelin/contracts/utils/structs/EnumerableSet.sol\":3058:3059  0 */\n      0x00\n        /* \"@openzeppelin/contracts/utils/structs/EnumerableSet.sol\":3046:3054  position */\n      dup2\n        /* \"@openzeppelin/contracts/utils/structs/EnumerableSet.sol\":3046:3059  position != 0 */\n      eq\n        /* \"@openzeppelin/contracts/utils/structs/EnumerableSet.sol\":3042:4177  if (position != 0) {... */\n      tag_269\n      jumpi\n        /* \"@openzeppelin/contracts/utils/structs/EnumerableSet.sol\":3413:3431  uint256 valueIndex */\n      0x00\n        /* \"@openzeppelin/contracts/utils/structs/EnumerableSet.sol\":3445:3446  1 */\n      0x01\n        /* \"@openzeppelin/contracts/utils/structs/EnumerableSet.sol\":3434:3442  position */\n      dup3\n        /* \"@openzeppelin/contracts/utils/structs/EnumerableSet.sol\":3434:3446  position - 1 */\n      tag_270\n      swap2\n      swap1\n      tag_271\n      jump\t// in\n    tag_270:\n        /* \"@openzeppelin/contracts/utils/structs/EnumerableSet.sol\":3413:3446  uint256 valueIndex = position - 1 */\n      swap1\n      pop\n        /* \"@openzeppelin/contracts/utils/structs/EnumerableSet.sol\":3460:3477  uint256 lastIndex */\n      0x00\n        /* \"@openzeppelin/contracts/utils/structs/EnumerableSet.sol\":3501:3502  1 */\n      0x01\n        /* \"@openzeppelin/contracts/utils/structs/EnumerableSet.sol\":3480:3483  set */\n      dup7\n        /* \"@openzeppelin/contracts/utils/structs/EnumerableSet.sol\":3480:3491  set._values */\n      0x00\n      add\n        /* \"@openzeppelin/contracts/utils/structs/EnumerableSet.sol\":3480:3498  set._values.length */\n      dup1\n      sload\n      swap1\n      pop\n        /* \"@openzeppelin/contracts/utils/structs/EnumerableSet.sol\":3480:3502  set._values.length - 1 */\n      tag_272\n      swap2\n      swap1\n      tag_271\n      jump\t// in\n    tag_272:\n        /* \"@openzeppelin/contracts/utils/structs/EnumerableSet.sol\":3460:3502  uint256 lastIndex = set._values.length - 1 */\n      swap1\n      pop\n        /* \"@openzeppelin/contracts/utils/structs/EnumerableSet.sol\":3535:3544  lastIndex */\n      dup1\n        /* \"@openzeppelin/contracts/utils/structs/EnumerableSet.sol\":3521:3531  valueIndex */\n      dup3\n        /* \"@openzeppelin/contracts/utils/structs/EnumerableSet.sol\":3521:3544  valueIndex != lastIndex */\n      eq\n        /* \"@openzeppelin/contracts/utils/structs/EnumerableSet.sol\":3517:3895  if (valueIndex != lastIndex) {... */\n      tag_273\n      jumpi\n        /* \"@openzeppelin/contracts/utils/structs/EnumerableSet.sol\":3564:3581  bytes32 lastValue */\n      0x00\n        /* \"@openzeppelin/contracts/utils/structs/EnumerableSet.sol\":3584:3587  set */\n      dup7\n        /* \"@openzeppelin/contracts/utils/structs/EnumerableSet.sol\":3584:3595  set._values */\n      0x00\n      add\n        /* \"@openzeppelin/contracts/utils/structs/EnumerableSet.sol\":3596:3605  lastIndex */\n      dup3\n        /* \"@openzeppelin/contracts/utils/structs/EnumerableSet.sol\":3584:3606  set._values[lastIndex] */\n      dup2\n      sload\n      dup2\n      lt\n      tag_274\n      jumpi\n      tag_275\n      tag_252\n      jump\t// in\n    tag_275:\n    tag_274:\n      swap1\n      0x00\n      mstore\n      keccak256(0x00, 0x20)\n      add\n      sload\n        /* \"@openzeppelin/contracts/utils/structs/EnumerableSet.sol\":3564:3606  bytes32 lastValue = set._values[lastIndex] */\n      swap1\n      pop\n        /* \"@openzeppelin/contracts/utils/structs/EnumerableSet.sol\":3731:3740  lastValue */\n      dup1\n        /* \"@openzeppelin/contracts/utils/structs/EnumerableSet.sol\":3705:3708  set */\n      dup8\n        /* \"@openzeppelin/contracts/utils/structs/EnumerableSet.sol\":3705:3716  set._values */\n      0x00\n      add\n        /* \"@openzeppelin/contracts/utils/structs/EnumerableSet.sol\":3717:3727  valueIndex */\n      dup5\n        /* \"@openzeppelin/contracts/utils/structs/EnumerableSet.sol\":3705:3728  set._values[valueIndex] */\n      dup2\n      sload\n      dup2\n      lt\n      tag_277\n      jumpi\n      tag_278\n      tag_252\n      jump\t// in\n    tag_278:\n    tag_277:\n      swap1\n      0x00\n      mstore\n      keccak256(0x00, 0x20)\n      add\n        /* \"@openzeppelin/contracts/utils/structs/EnumerableSet.sol\":3705:3740  set._values[valueIndex] = lastValue */\n      dup2\n      swap1\n      sstore\n      pop\n        /* \"@openzeppelin/contracts/utils/structs/EnumerableSet.sol\":3872:3880  position */\n      dup4\n        /* \"@openzeppelin/contracts/utils/structs/EnumerableSet.sol\":3844:3847  set */\n      dup8\n        /* \"@openzeppelin/contracts/utils/structs/EnumerableSet.sol\":3844:3858  set._positions */\n      0x01\n      add\n        /* \"@openzeppelin/contracts/utils/structs/EnumerableSet.sol\":3844:3869  set._positions[lastValue] */\n      0x00\n        /* \"@openzeppelin/contracts/utils/structs/EnumerableSet.sol\":3859:3868  lastValue */\n      dup4\n        /* \"@openzeppelin/contracts/utils/structs/EnumerableSet.sol\":3844:3869  set._positions[lastValue] */\n      dup2\n      mstore\n      0x20\n      add\n      swap1\n      dup2\n      mstore\n      0x20\n      add\n      0x00\n      keccak256\n        /* \"@openzeppelin/contracts/utils/structs/EnumerableSet.sol\":3844:3880  set._positions[lastValue] = position */\n      dup2\n      swap1\n      sstore\n      pop\n        /* \"@openzeppelin/contracts/utils/structs/EnumerableSet.sol\":3546:3895  {... */\n      pop\n        /* \"@openzeppelin/contracts/utils/structs/EnumerableSet.sol\":3517:3895  if (valueIndex != lastIndex) {... */\n    tag_273:\n        /* \"@openzeppelin/contracts/utils/structs/EnumerableSet.sol\":3973:3976  set */\n      dup6\n        /* \"@openzeppelin/contracts/utils/structs/EnumerableSet.sol\":3973:3984  set._values */\n      0x00\n      add\n        /* \"@openzeppelin/contracts/utils/structs/EnumerableSet.sol\":3973:3990  set._values.pop() */\n      dup1\n      sload\n      dup1\n      tag_280\n      jumpi\n      tag_281\n      tag_282\n      jump\t// in\n    tag_281:\n    tag_280:\n      0x01\n      swap1\n      sub\n      dup2\n      dup2\n      swap1\n      0x00\n      mstore\n      keccak256(0x00, 0x20)\n      add\n      0x00\n      swap1\n      sstore\n      swap1\n      sstore\n        /* \"@openzeppelin/contracts/utils/structs/EnumerableSet.sol\":4076:4079  set */\n      dup6\n        /* \"@openzeppelin/contracts/utils/structs/EnumerableSet.sol\":4076:4090  set._positions */\n      0x01\n      add\n        /* \"@openzeppelin/contracts/utils/structs/EnumerableSet.sol\":4076:4097  set._positions[value] */\n      0x00\n        /* \"@openzeppelin/contracts/utils/structs/EnumerableSet.sol\":4091:4096  value */\n      dup7\n        /* \"@openzeppelin/contracts/utils/structs/EnumerableSet.sol\":4076:4097  set._positions[value] */\n      dup2\n      mstore\n      0x20\n      add\n      swap1\n      dup2\n      mstore\n      0x20\n      add\n      0x00\n      keccak256\n        /* \"@openzeppelin/contracts/utils/structs/EnumerableSet.sol\":4069:4097  delete set._positions[value] */\n      0x00\n      swap1\n      sstore\n        /* \"@openzeppelin/contracts/utils/structs/EnumerableSet.sol\":4119:4123  true */\n      0x01\n        /* \"@openzeppelin/contracts/utils/structs/EnumerableSet.sol\":4112:4123  return true */\n      swap4\n      pop\n      pop\n      pop\n      pop\n      jump(tag_268)\n        /* \"@openzeppelin/contracts/utils/structs/EnumerableSet.sol\":3042:4177  if (position != 0) {... */\n    tag_269:\n        /* \"@openzeppelin/contracts/utils/structs/EnumerableSet.sol\":4161:4166  false */\n      0x00\n        /* \"@openzeppelin/contracts/utils/structs/EnumerableSet.sol\":4154:4166  return false */\n      swap2\n      pop\n      pop\n        /* \"@openzeppelin/contracts/utils/structs/EnumerableSet.sol\":2815:4183  function _remove(Set storage set, bytes32 value) private returns (bool) {... */\n    tag_268:\n      swap3\n      swap2\n      pop\n      pop\n      jump\t// out\n        /* \"@openzeppelin/contracts/utils/Address.sol\":2705:2856  function functionCall(address target, bytes memory data) internal returns (bytes memory) {... */\n    tag_256:\n        /* \"@openzeppelin/contracts/utils/Address.sol\":2780:2792  bytes memory */\n      0x60\n        /* \"@openzeppelin/contracts/utils/Address.sol\":2811:2849  functionCallWithValue(target, data, 0) */\n      tag_286\n        /* \"@openzeppelin/contracts/utils/Address.sol\":2833:2839  target */\n      dup4\n        /* \"@openzeppelin/contracts/utils/Address.sol\":2841:2845  data */\n      dup4\n        /* \"@openzeppelin/contracts/utils/Address.sol\":2847:2848  0 */\n      0x00\n        /* \"@openzeppelin/contracts/utils/Address.sol\":2811:2832  functionCallWithValue */\n      tag_287\n        /* \"@openzeppelin/contracts/utils/Address.sol\":2811:2849  functionCallWithValue(target, data, 0) */\n      jump\t// in\n    tag_286:\n        /* \"@openzeppelin/contracts/utils/Address.sol\":2804:2849  return functionCallWithValue(target, data, 0) */\n      swap1\n      pop\n        /* \"@openzeppelin/contracts/utils/Address.sol\":2705:2856  function functionCall(address target, bytes memory data) internal returns (bytes memory) {... */\n      swap3\n      swap2\n      pop\n      pop\n      jump\t// out\n        /* \"@openzeppelin/contracts/utils/structs/EnumerableSet.sol\":4264:4393  function _contains(Set storage set, bytes32 value) private view returns (bool) {... */\n    tag_264:\n        /* \"@openzeppelin/contracts/utils/structs/EnumerableSet.sol\":4337:4341  bool */\n      0x00\n        /* \"@openzeppelin/contracts/utils/structs/EnumerableSet.sol\":4385:4386  0 */\n      dup1\n        /* \"@openzeppelin/contracts/utils/structs/EnumerableSet.sol\":4360:4363  set */\n      dup4\n        /* \"@openzeppelin/contracts/utils/structs/EnumerableSet.sol\":4360:4374  set._positions */\n      0x01\n      add\n        /* \"@openzeppelin/contracts/utils/structs/EnumerableSet.sol\":4360:4381  set._positions[value] */\n      0x00\n        /* \"@openzeppelin/contracts/utils/structs/EnumerableSet.sol\":4375:4380  value */\n      dup5\n        /* \"@openzeppelin/contracts/utils/structs/EnumerableSet.sol\":4360:4381  set._positions[value] */\n      dup2\n      mstore\n      0x20\n      add\n      swap1\n      dup2\n      mstore\n      0x20\n      add\n      0x00\n      keccak256\n      sload\n        /* \"@openzeppelin/contracts/utils/structs/EnumerableSet.sol\":4360:4386  set._positions[value] != 0 */\n      eq\n      iszero\n        /* \"@openzeppelin/contracts/utils/structs/EnumerableSet.sol\":4353:4386  return set._positions[value] != 0 */\n      swap1\n      pop\n        /* \"@openzeppelin/contracts/utils/structs/EnumerableSet.sol\":4264:4393  function _contains(Set storage set, bytes32 value) private view returns (bool) {... */\n      swap3\n      swap2\n      pop\n      pop\n      jump\t// out\n        /* \"@openzeppelin/contracts/utils/Address.sol\":3180:3572  function functionCallWithValue(address target, bytes memory data, uint256 value) internal returns (bytes memory) {... */\n    tag_287:\n        /* \"@openzeppelin/contracts/utils/Address.sol\":3279:3291  bytes memory */\n      0x60\n        /* \"@openzeppelin/contracts/utils/Address.sol\":3331:3336  value */\n      dup2\n        /* \"@openzeppelin/contracts/utils/Address.sol\":3307:3328  address(this).balance */\n      selfbalance\n        /* \"@openzeppelin/contracts/utils/Address.sol\":3307:3336  address(this).balance < value */\n      lt\n        /* \"@openzeppelin/contracts/utils/Address.sol\":3303:3411  if (address(this).balance < value) {... */\n      iszero\n      tag_290\n      jumpi\n        /* \"@openzeppelin/contracts/utils/Address.sol\":3394:3398  this */\n      address\n        /* \"@openzeppelin/contracts/utils/Address.sol\":3359:3400  AddressInsufficientBalance(address(this)) */\n      mload(0x40)\n      0xcd78605900000000000000000000000000000000000000000000000000000000\n      dup2\n      mstore\n      0x04\n      add\n      tag_291\n      swap2\n      swap1\n      tag_65\n      jump\t// in\n    tag_291:\n      mload(0x40)\n      dup1\n      swap2\n      sub\n      swap1\n      revert\n        /* \"@openzeppelin/contracts/utils/Address.sol\":3303:3411  if (address(this).balance < value) {... */\n    tag_290:\n        /* \"@openzeppelin/contracts/utils/Address.sol\":3421:3433  bool success */\n      0x00\n        /* \"@openzeppelin/contracts/utils/Address.sol\":3435:3458  bytes memory returndata */\n      dup1\n        /* \"@openzeppelin/contracts/utils/Address.sol\":3462:3468  target */\n      dup6\n        /* \"@openzeppelin/contracts/utils/Address.sol\":3462:3473  target.call */\n      0xffffffffffffffffffffffffffffffffffffffff\n      and\n        /* \"@openzeppelin/contracts/utils/Address.sol\":3481:3486  value */\n      dup5\n        /* \"@openzeppelin/contracts/utils/Address.sol\":3488:3492  data */\n      dup7\n        /* \"@openzeppelin/contracts/utils/Address.sol\":3462:3493  target.call{value: value}(data) */\n      mload(0x40)\n      tag_292\n      swap2\n      swap1\n      tag_293\n      jump\t// in\n    tag_292:\n      0x00\n      mload(0x40)\n      dup1\n      dup4\n      sub\n      dup2\n      dup6\n      dup8\n      gas\n      call\n      swap3\n      pop\n      pop\n      pop\n      returndatasize\n      dup1\n      0x00\n      dup2\n      eq\n      tag_296\n      jumpi\n      mload(0x40)\n      swap2\n      pop\n      and(add(returndatasize, 0x3f), not(0x1f))\n      dup3\n      add\n      0x40\n      mstore\n      returndatasize\n      dup3\n      mstore\n      returndatasize\n      0x00\n      0x20\n      dup5\n      add\n      returndatacopy\n      jump(tag_295)\n    tag_296:\n      0x60\n      swap2\n      pop\n    tag_295:\n      pop\n        /* \"@openzeppelin/contracts/utils/Address.sol\":3420:3493  (bool success, bytes memory returndata) = target.call{value: value}(data) */\n      swap2\n      pop\n      swap2\n      pop\n        /* \"@openzeppelin/contracts/utils/Address.sol\":3510:3565  verifyCallResultFromTarget(target, success, returndata) */\n      tag_297\n        /* \"@openzeppelin/contracts/utils/Address.sol\":3537:3543  target */\n      dup7\n        /* \"@openzeppelin/contracts/utils/Address.sol\":3545:3552  success */\n      dup4\n        /* \"@openzeppelin/contracts/utils/Address.sol\":3554:3564  returndata */\n      dup4\n        /* \"@openzeppelin/contracts/utils/Address.sol\":3510:3536  verifyCallResultFromTarget */\n      tag_298\n        /* \"@openzeppelin/contracts/utils/Address.sol\":3510:3565  verifyCallResultFromTarget(target, success, returndata) */\n      jump\t// in\n    tag_297:\n        /* \"@openzeppelin/contracts/utils/Address.sol\":3503:3565  return verifyCallResultFromTarget(target, success, returndata) */\n      swap3\n      pop\n      pop\n      pop\n        /* \"@openzeppelin/contracts/utils/Address.sol\":3180:3572  function functionCallWithValue(address target, bytes memory data, uint256 value) internal returns (bytes memory) {... */\n      swap4\n      swap3\n      pop\n      pop\n      pop\n      jump\t// out\n        /* \"@openzeppelin/contracts/utils/Address.sol\":4625:5207  function verifyCallResultFromTarget(... */\n    tag_298:\n        /* \"@openzeppelin/contracts/utils/Address.sol\":4769:4781  bytes memory */\n      0x60\n        /* \"@openzeppelin/contracts/utils/Address.sol\":4798:4805  success */\n      dup3\n        /* \"@openzeppelin/contracts/utils/Address.sol\":4793:5201  if (!success) {... */\n      tag_300\n      jumpi\n        /* \"@openzeppelin/contracts/utils/Address.sol\":4821:4840  _revert(returndata) */\n      tag_301\n        /* \"@openzeppelin/contracts/utils/Address.sol\":4829:4839  returndata */\n      dup3\n        /* \"@openzeppelin/contracts/utils/Address.sol\":4821:4828  _revert */\n      tag_302\n        /* \"@openzeppelin/contracts/utils/Address.sol\":4821:4840  _revert(returndata) */\n      jump\t// in\n    tag_301:\n        /* \"@openzeppelin/contracts/utils/Address.sol\":4793:5201  if (!success) {... */\n      jump(tag_303)\n    tag_300:\n        /* \"@openzeppelin/contracts/utils/Address.sol\":5066:5067  0 */\n      0x00\n        /* \"@openzeppelin/contracts/utils/Address.sol\":5045:5055  returndata */\n      dup3\n        /* \"@openzeppelin/contracts/utils/Address.sol\":5045:5062  returndata.length */\n      mload\n        /* \"@openzeppelin/contracts/utils/Address.sol\":5045:5067  returndata.length == 0 */\n      eq\n        /* \"@openzeppelin/contracts/utils/Address.sol\":5045:5094  returndata.length == 0 && target.code.length == 0 */\n      dup1\n      iszero\n      tag_304\n      jumpi\n      pop\n        /* \"@openzeppelin/contracts/utils/Address.sol\":5093:5094  0 */\n      0x00\n        /* \"@openzeppelin/contracts/utils/Address.sol\":5071:5077  target */\n      dup5\n        /* \"@openzeppelin/contracts/utils/Address.sol\":5071:5089  target.code.length */\n      0xffffffffffffffffffffffffffffffffffffffff\n      and\n      extcodesize\n        /* \"@openzeppelin/contracts/utils/Address.sol\":5071:5094  target.code.length == 0 */\n      eq\n        /* \"@openzeppelin/contracts/utils/Address.sol\":5045:5094  returndata.length == 0 && target.code.length == 0 */\n    tag_304:\n        /* \"@openzeppelin/contracts/utils/Address.sol\":5041:5160  if (returndata.length == 0 && target.code.length == 0) {... */\n      iszero\n      tag_305\n      jumpi\n        /* \"@openzeppelin/contracts/utils/Address.sol\":5138:5144  target */\n      dup4\n        /* \"@openzeppelin/contracts/utils/Address.sol\":5121:5145  AddressEmptyCode(target) */\n      mload(0x40)\n      0x9996b31500000000000000000000000000000000000000000000000000000000\n      dup2\n      mstore\n      0x04\n      add\n      tag_306\n      swap2\n      swap1\n      tag_65\n      jump\t// in\n    tag_306:\n      mload(0x40)\n      dup1\n      swap2\n      sub\n      swap1\n      revert\n        /* \"@openzeppelin/contracts/utils/Address.sol\":5041:5160  if (returndata.length == 0 && target.code.length == 0) {... */\n    tag_305:\n        /* \"@openzeppelin/contracts/utils/Address.sol\":5180:5190  returndata */\n      dup2\n        /* \"@openzeppelin/contracts/utils/Address.sol\":5173:5190  return returndata */\n      swap1\n      pop\n      jump(tag_299)\n        /* \"@openzeppelin/contracts/utils/Address.sol\":4793:5201  if (!success) {... */\n    tag_303:\n        /* \"@openzeppelin/contracts/utils/Address.sol\":4625:5207  function verifyCallResultFromTarget(... */\n    tag_299:\n      swap4\n      swap3\n      pop\n      pop\n      pop\n      jump\t// out\n        /* \"@openzeppelin/contracts/utils/Address.sol\":5743:6259  function _revert(bytes memory returndata) private pure {... */\n    tag_302:\n        /* \"@openzeppelin/contracts/utils/Address.sol\":5894:5895  0 */\n      0x00\n        /* \"@openzeppelin/contracts/utils/Address.sol\":5874:5884  returndata */\n      dup2\n        /* \"@openzeppelin/contracts/utils/Address.sol\":5874:5891  returndata.length */\n      mload\n        /* \"@openzeppelin/contracts/utils/Address.sol\":5874:5895  returndata.length > 0 */\n      gt\n        /* \"@openzeppelin/contracts/utils/Address.sol\":5870:6253  if (returndata.length > 0) {... */\n      iszero\n      tag_308\n      jumpi\n        /* \"@openzeppelin/contracts/utils/Address.sol\":6102:6112  returndata */\n      dup1\n        /* \"@openzeppelin/contracts/utils/Address.sol\":6096:6113  mload(returndata) */\n      mload\n        /* \"@openzeppelin/contracts/utils/Address.sol\":6158:6173  returndata_size */\n      dup1\n        /* \"@openzeppelin/contracts/utils/Address.sol\":6145:6155  returndata */\n      dup3\n        /* \"@openzeppelin/contracts/utils/Address.sol\":6141:6143  32 */\n      0x20\n        /* \"@openzeppelin/contracts/utils/Address.sol\":6137:6156  add(32, returndata) */\n      add\n        /* \"@openzeppelin/contracts/utils/Address.sol\":6130:6174  revert(add(32, returndata), returndata_size) */\n      revert\n        /* \"@openzeppelin/contracts/utils/Address.sol\":5870:6253  if (returndata.length > 0) {... */\n    tag_308:\n        /* \"@openzeppelin/contracts/utils/Address.sol\":6225:6242  FailedInnerCall() */\n      mload(0x40)\n      0x1425ea4200000000000000000000000000000000000000000000000000000000\n      dup2\n      mstore\n      0x04\n      add\n      mload(0x40)\n      dup1\n      swap2\n      sub\n      swap1\n      revert\n        /* \"#utility.yul\":88:205   */\n    tag_311:\n        /* \"#utility.yul\":197:198   */\n      0x00\n        /* \"#utility.yul\":194:195   */\n      dup1\n        /* \"#utility.yul\":187:199   */\n      revert\n        /* \"#utility.yul\":334:411   */\n    tag_313:\n        /* \"#utility.yul\":371:378   */\n      0x00\n        /* \"#utility.yul\":400:405   */\n      dup2\n        /* \"#utility.yul\":389:405   */\n      swap1\n      pop\n        /* \"#utility.yul\":334:411   */\n      swap2\n      swap1\n      pop\n      jump\t// out\n        /* \"#utility.yul\":417:539   */\n    tag_314:\n        /* \"#utility.yul\":490:514   */\n      tag_358\n        /* \"#utility.yul\":508:513   */\n      dup2\n        /* \"#utility.yul\":490:514   */\n      tag_313\n      jump\t// in\n    tag_358:\n        /* \"#utility.yul\":483:488   */\n      dup2\n        /* \"#utility.yul\":480:515   */\n      eq\n        /* \"#utility.yul\":470:533   */\n      tag_359\n      jumpi\n        /* \"#utility.yul\":529:530   */\n      0x00\n        /* \"#utility.yul\":526:527   */\n      dup1\n        /* \"#utility.yul\":519:531   */\n      revert\n        /* \"#utility.yul\":470:533   */\n    tag_359:\n        /* \"#utility.yul\":417:539   */\n      pop\n      jump\t// out\n        /* \"#utility.yul\":545:684   */\n    tag_315:\n        /* \"#utility.yul\":591:596   */\n      0x00\n        /* \"#utility.yul\":629:635   */\n      dup2\n        /* \"#utility.yul\":616:636   */\n      calldataload\n        /* \"#utility.yul\":607:636   */\n      swap1\n      pop\n        /* \"#utility.yul\":645:678   */\n      tag_361\n        /* \"#utility.yul\":672:677   */\n      dup2\n        /* \"#utility.yul\":645:678   */\n      tag_314\n      jump\t// in\n    tag_361:\n        /* \"#utility.yul\":545:684   */\n      swap3\n      swap2\n      pop\n      pop\n      jump\t// out\n        /* \"#utility.yul\":690:816   */\n    tag_316:\n        /* \"#utility.yul\":727:734   */\n      0x00\n        /* \"#utility.yul\":767:809   */\n      0xffffffffffffffffffffffffffffffffffffffff\n        /* \"#utility.yul\":760:765   */\n      dup3\n        /* \"#utility.yul\":756:810   */\n      and\n        /* \"#utility.yul\":745:810   */\n      swap1\n      pop\n        /* \"#utility.yul\":690:816   */\n      swap2\n      swap1\n      pop\n      jump\t// out\n        /* \"#utility.yul\":822:918   */\n    tag_317:\n        /* \"#utility.yul\":859:866   */\n      0x00\n        /* \"#utility.yul\":888:912   */\n      tag_364\n        /* \"#utility.yul\":906:911   */\n      dup3\n        /* \"#utility.yul\":888:912   */\n      tag_316\n      jump\t// in\n    tag_364:\n        /* \"#utility.yul\":877:912   */\n      swap1\n      pop\n        /* \"#utility.yul\":822:918   */\n      swap2\n      swap1\n      pop\n      jump\t// out\n        /* \"#utility.yul\":924:1046   */\n    tag_318:\n        /* \"#utility.yul\":997:1021   */\n      tag_366\n        /* \"#utility.yul\":1015:1020   */\n      dup2\n        /* \"#utility.yul\":997:1021   */\n      tag_317\n      jump\t// in\n    tag_366:\n        /* \"#utility.yul\":990:995   */\n      dup2\n        /* \"#utility.yul\":987:1022   */\n      eq\n        /* \"#utility.yul\":977:1040   */\n      tag_367\n      jumpi\n        /* \"#utility.yul\":1036:1037   */\n      0x00\n        /* \"#utility.yul\":1033:1034   */\n      dup1\n        /* \"#utility.yul\":1026:1038   */\n      revert\n        /* \"#utility.yul\":977:1040   */\n    tag_367:\n        /* \"#utility.yul\":924:1046   */\n      pop\n      jump\t// out\n        /* \"#utility.yul\":1052:1191   */\n    tag_319:\n        /* \"#utility.yul\":1098:1103   */\n      0x00\n        /* \"#utility.yul\":1136:1142   */\n      dup2\n        /* \"#utility.yul\":1123:1143   */\n      calldataload\n        /* \"#utility.yul\":1114:1143   */\n      swap1\n      pop\n        /* \"#utility.yul\":1152:1185   */\n      tag_369\n        /* \"#utility.yul\":1179:1184   */\n      dup2\n        /* \"#utility.yul\":1152:1185   */\n      tag_318\n      jump\t// in\n    tag_369:\n        /* \"#utility.yul\":1052:1191   */\n      swap3\n      swap2\n      pop\n      pop\n      jump\t// out\n        /* \"#utility.yul\":1197:1671   */\n    tag_28:\n        /* \"#utility.yul\":1265:1271   */\n      0x00\n        /* \"#utility.yul\":1273:1279   */\n      dup1\n        /* \"#utility.yul\":1322:1324   */\n      0x40\n        /* \"#utility.yul\":1310:1319   */\n      dup4\n        /* \"#utility.yul\":1301:1308   */\n      dup6\n        /* \"#utility.yul\":1297:1320   */\n      sub\n        /* \"#utility.yul\":1293:1325   */\n      slt\n        /* \"#utility.yul\":1290:1409   */\n      iszero\n      tag_371\n      jumpi\n        /* \"#utility.yul\":1328:1407   */\n      tag_372\n      tag_311\n      jump\t// in\n    tag_372:\n        /* \"#utility.yul\":1290:1409   */\n    tag_371:\n        /* \"#utility.yul\":1448:1449   */\n      0x00\n        /* \"#utility.yul\":1473:1526   */\n      tag_373\n        /* \"#utility.yul\":1518:1525   */\n      dup6\n        /* \"#utility.yul\":1509:1515   */\n      dup3\n        /* \"#utility.yul\":1498:1507   */\n      dup7\n        /* \"#utility.yul\":1494:1516   */\n      add\n        /* \"#utility.yul\":1473:1526   */\n      tag_315\n      jump\t// in\n    tag_373:\n        /* \"#utility.yul\":1463:1526   */\n      swap3\n      pop\n        /* \"#utility.yul\":1419:1536   */\n      pop\n        /* \"#utility.yul\":1575:1577   */\n      0x20\n        /* \"#utility.yul\":1601:1654   */\n      tag_374\n        /* \"#utility.yul\":1646:1653   */\n      dup6\n        /* \"#utility.yul\":1637:1643   */\n      dup3\n        /* \"#utility.yul\":1626:1635   */\n      dup7\n        /* \"#utility.yul\":1622:1644   */\n      add\n        /* \"#utility.yul\":1601:1654   */\n      tag_319\n      jump\t// in\n    tag_374:\n        /* \"#utility.yul\":1591:1654   */\n      swap2\n      pop\n        /* \"#utility.yul\":1546:1664   */\n      pop\n        /* \"#utility.yul\":1197:1671   */\n      swap3\n      pop\n      swap3\n      swap1\n      pop\n      jump\t// out\n        /* \"#utility.yul\":1677:1826   */\n    tag_320:\n        /* \"#utility.yul\":1713:1720   */\n      0x00\n        /* \"#utility.yul\":1753:1819   */\n      0xffffffff00000000000000000000000000000000000000000000000000000000\n        /* \"#utility.yul\":1746:1751   */\n      dup3\n        /* \"#utility.yul\":1742:1820   */\n      and\n        /* \"#utility.yul\":1731:1820   */\n      swap1\n      pop\n        /* \"#utility.yul\":1677:1826   */\n      swap2\n      swap1\n      pop\n      jump\t// out\n        /* \"#utility.yul\":1832:1952   */\n    tag_321:\n        /* \"#utility.yul\":1904:1927   */\n      tag_377\n        /* \"#utility.yul\":1921:1926   */\n      dup2\n        /* \"#utility.yul\":1904:1927   */\n      tag_320\n      jump\t// in\n    tag_377:\n        /* \"#utility.yul\":1897:1902   */\n      dup2\n        /* \"#utility.yul\":1894:1928   */\n      eq\n        /* \"#utility.yul\":1884:1946   */\n      tag_378\n      jumpi\n        /* \"#utility.yul\":1942:1943   */\n      0x00\n        /* \"#utility.yul\":1939:1940   */\n      dup1\n        /* \"#utility.yul\":1932:1944   */\n      revert\n        /* \"#utility.yul\":1884:1946   */\n    tag_378:\n        /* \"#utility.yul\":1832:1952   */\n      pop\n      jump\t// out\n        /* \"#utility.yul\":1958:2095   */\n    tag_322:\n        /* \"#utility.yul\":2003:2008   */\n      0x00\n        /* \"#utility.yul\":2041:2047   */\n      dup2\n        /* \"#utility.yul\":2028:2048   */\n      calldataload\n        /* \"#utility.yul\":2019:2048   */\n      swap1\n      pop\n        /* \"#utility.yul\":2057:2089   */\n      tag_380\n        /* \"#utility.yul\":2083:2088   */\n      dup2\n        /* \"#utility.yul\":2057:2089   */\n      tag_321\n      jump\t// in\n    tag_380:\n        /* \"#utility.yul\":1958:2095   */\n      swap3\n      swap2\n      pop\n      pop\n      jump\t// out\n        /* \"#utility.yul\":2101:2428   */\n    tag_32:\n        /* \"#utility.yul\":2159:2165   */\n      0x00\n        /* \"#utility.yul\":2208:2210   */\n      0x20\n        /* \"#utility.yul\":2196:2205   */\n      dup3\n        /* \"#utility.yul\":2187:2194   */\n      dup5\n        /* \"#utility.yul\":2183:2206   */\n      sub\n        /* \"#utility.yul\":2179:2211   */\n      slt\n        /* \"#utility.yul\":2176:2295   */\n      iszero\n      tag_382\n      jumpi\n        /* \"#utility.yul\":2214:2293   */\n      tag_383\n      tag_311\n      jump\t// in\n    tag_383:\n        /* \"#utility.yul\":2176:2295   */\n    tag_382:\n        /* \"#utility.yul\":2334:2335   */\n      0x00\n        /* \"#utility.yul\":2359:2411   */\n      tag_384\n        /* \"#utility.yul\":2403:2410   */\n      dup5\n        /* \"#utility.yul\":2394:2400   */\n      dup3\n        /* \"#utility.yul\":2383:2392   */\n      dup6\n        /* \"#utility.yul\":2379:2401   */\n      add\n        /* \"#utility.yul\":2359:2411   */\n      tag_322\n      jump\t// in\n    tag_384:\n        /* \"#utility.yul\":2349:2411   */\n      swap2\n      pop\n        /* \"#utility.yul\":2305:2421   */\n      pop\n        /* \"#utility.yul\":2101:2428   */\n      swap3\n      swap2\n      pop\n      pop\n      jump\t// out\n        /* \"#utility.yul\":2434:2524   */\n    tag_323:\n        /* \"#utility.yul\":2468:2475   */\n      0x00\n        /* \"#utility.yul\":2511:2516   */\n      dup2\n        /* \"#utility.yul\":2504:2517   */\n      iszero\n        /* \"#utility.yul\":2497:2518   */\n      iszero\n        /* \"#utility.yul\":2486:2518   */\n      swap1\n      pop\n        /* \"#utility.yul\":2434:2524   */\n      swap2\n      swap1\n      pop\n      jump\t// out\n        /* \"#utility.yul\":2530:2639   */\n    tag_324:\n        /* \"#utility.yul\":2611:2632   */\n      tag_387\n        /* \"#utility.yul\":2626:2631   */\n      dup2\n        /* \"#utility.yul\":2611:2632   */\n      tag_323\n      jump\t// in\n    tag_387:\n        /* \"#utility.yul\":2606:2609   */\n      dup3\n        /* \"#utility.yul\":2599:2633   */\n      mstore\n        /* \"#utility.yul\":2530:2639   */\n      pop\n      pop\n      jump\t// out\n        /* \"#utility.yul\":2645:2855   */\n    tag_35:\n        /* \"#utility.yul\":2732:2736   */\n      0x00\n        /* \"#utility.yul\":2770:2772   */\n      0x20\n        /* \"#utility.yul\":2759:2768   */\n      dup3\n        /* \"#utility.yul\":2755:2773   */\n      add\n        /* \"#utility.yul\":2747:2773   */\n      swap1\n      pop\n        /* \"#utility.yul\":2783:2848   */\n      tag_389\n        /* \"#utility.yul\":2845:2846   */\n      0x00\n        /* \"#utility.yul\":2834:2843   */\n      dup4\n        /* \"#utility.yul\":2830:2847   */\n      add\n        /* \"#utility.yul\":2821:2827   */\n      dup5\n        /* \"#utility.yul\":2783:2848   */\n      tag_324\n      jump\t// in\n    tag_389:\n        /* \"#utility.yul\":2645:2855   */\n      swap3\n      swap2\n      pop\n      pop\n      jump\t// out\n        /* \"#utility.yul\":2861:2971   */\n    tag_325:\n        /* \"#utility.yul\":2912:2919   */\n      0x00\n        /* \"#utility.yul\":2941:2965   */\n      tag_391\n        /* \"#utility.yul\":2959:2964   */\n      dup3\n        /* \"#utility.yul\":2941:2965   */\n      tag_317\n      jump\t// in\n    tag_391:\n        /* \"#utility.yul\":2930:2965   */\n      swap1\n      pop\n        /* \"#utility.yul\":2861:2971   */\n      swap2\n      swap1\n      pop\n      jump\t// out\n        /* \"#utility.yul\":2977:3127   */\n    tag_326:\n        /* \"#utility.yul\":3064:3102   */\n      tag_393\n        /* \"#utility.yul\":3096:3101   */\n      dup2\n        /* \"#utility.yul\":3064:3102   */\n      tag_325\n      jump\t// in\n    tag_393:\n        /* \"#utility.yul\":3057:3062   */\n      dup2\n        /* \"#utility.yul\":3054:3103   */\n      eq\n        /* \"#utility.yul\":3044:3121   */\n      tag_394\n      jumpi\n        /* \"#utility.yul\":3117:3118   */\n      0x00\n        /* \"#utility.yul\":3114:3115   */\n      dup1\n        /* \"#utility.yul\":3107:3119   */\n      revert\n        /* \"#utility.yul\":3044:3121   */\n    tag_394:\n        /* \"#utility.yul\":2977:3127   */\n      pop\n      jump\t// out\n        /* \"#utility.yul\":3133:3300   */\n    tag_327:\n        /* \"#utility.yul\":3193:3198   */\n      0x00\n        /* \"#utility.yul\":3231:3237   */\n      dup2\n        /* \"#utility.yul\":3218:3238   */\n      calldataload\n        /* \"#utility.yul\":3209:3238   */\n      swap1\n      pop\n        /* \"#utility.yul\":3247:3294   */\n      tag_396\n        /* \"#utility.yul\":3288:3293   */\n      dup2\n        /* \"#utility.yul\":3247:3294   */\n      tag_326\n      jump\t// in\n    tag_396:\n        /* \"#utility.yul\":3133:3300   */\n      swap3\n      swap2\n      pop\n      pop\n      jump\t// out\n        /* \"#utility.yul\":3306:3663   */\n    tag_38:\n        /* \"#utility.yul\":3379:3385   */\n      0x00\n        /* \"#utility.yul\":3428:3430   */\n      0x20\n        /* \"#utility.yul\":3416:3425   */\n      dup3\n        /* \"#utility.yul\":3407:3414   */\n      dup5\n        /* \"#utility.yul\":3403:3426   */\n      sub\n        /* \"#utility.yul\":3399:3431   */\n      slt\n        /* \"#utility.yul\":3396:3515   */\n      iszero\n      tag_398\n      jumpi\n        /* \"#utility.yul\":3434:3513   */\n      tag_399\n      tag_311\n      jump\t// in\n    tag_399:\n        /* \"#utility.yul\":3396:3515   */\n    tag_398:\n        /* \"#utility.yul\":3554:3555   */\n      0x00\n        /* \"#utility.yul\":3579:3646   */\n      tag_400\n        /* \"#utility.yul\":3638:3645   */\n      dup5\n        /* \"#utility.yul\":3629:3635   */\n      dup3\n        /* \"#utility.yul\":3618:3627   */\n      dup6\n        /* \"#utility.yul\":3614:3636   */\n      add\n        /* \"#utility.yul\":3579:3646   */\n      tag_327\n      jump\t// in\n    tag_400:\n        /* \"#utility.yul\":3569:3646   */\n      swap2\n      pop\n        /* \"#utility.yul\":3525:3656   */\n      pop\n        /* \"#utility.yul\":3306:3663   */\n      swap3\n      swap2\n      pop\n      pop\n      jump\t// out\n        /* \"#utility.yul\":3669:3746   */\n    tag_328:\n        /* \"#utility.yul\":3706:3713   */\n      0x00\n        /* \"#utility.yul\":3735:3740   */\n      dup2\n        /* \"#utility.yul\":3724:3740   */\n      swap1\n      pop\n        /* \"#utility.yul\":3669:3746   */\n      swap2\n      swap1\n      pop\n      jump\t// out\n        /* \"#utility.yul\":3752:3874   */\n    tag_329:\n        /* \"#utility.yul\":3825:3849   */\n      tag_403\n        /* \"#utility.yul\":3843:3848   */\n      dup2\n        /* \"#utility.yul\":3825:3849   */\n      tag_328\n      jump\t// in\n    tag_403:\n        /* \"#utility.yul\":3818:3823   */\n      dup2\n        /* \"#utility.yul\":3815:3850   */\n      eq\n        /* \"#utility.yul\":3805:3868   */\n      tag_404\n      jumpi\n        /* \"#utility.yul\":3864:3865   */\n      0x00\n        /* \"#utility.yul\":3861:3862   */\n      dup1\n        /* \"#utility.yul\":3854:3866   */\n      revert\n        /* \"#utility.yul\":3805:3868   */\n    tag_404:\n        /* \"#utility.yul\":3752:3874   */\n      pop\n      jump\t// out\n        /* \"#utility.yul\":3880:4019   */\n    tag_330:\n        /* \"#utility.yul\":3926:3931   */\n      0x00\n        /* \"#utility.yul\":3964:3970   */\n      dup2\n        /* \"#utility.yul\":3951:3971   */\n      calldataload\n        /* \"#utility.yul\":3942:3971   */\n      swap1\n      pop\n        /* \"#utility.yul\":3980:4013   */\n      tag_406\n        /* \"#utility.yul\":4007:4012   */\n      dup2\n        /* \"#utility.yul\":3980:4013   */\n      tag_329\n      jump\t// in\n    tag_406:\n        /* \"#utility.yul\":3880:4019   */\n      swap3\n      swap2\n      pop\n      pop\n      jump\t// out\n        /* \"#utility.yul\":4025:4354   */\n    tag_42:\n        /* \"#utility.yul\":4084:4090   */\n      0x00\n        /* \"#utility.yul\":4133:4135   */\n      0x20\n        /* \"#utility.yul\":4121:4130   */\n      dup3\n        /* \"#utility.yul\":4112:4119   */\n      dup5\n        /* \"#utility.yul\":4108:4131   */\n      sub\n        /* \"#utility.yul\":4104:4136   */\n      slt\n        /* \"#utility.yul\":4101:4220   */\n      iszero\n      tag_408\n      jumpi\n        /* \"#utility.yul\":4139:4218   */\n      tag_409\n      tag_311\n      jump\t// in\n    tag_409:\n        /* \"#utility.yul\":4101:4220   */\n    tag_408:\n        /* \"#utility.yul\":4259:4260   */\n      0x00\n        /* \"#utility.yul\":4284:4337   */\n      tag_410\n        /* \"#utility.yul\":4329:4336   */\n      dup5\n        /* \"#utility.yul\":4320:4326   */\n      dup3\n        /* \"#utility.yul\":4309:4318   */\n      dup6\n        /* \"#utility.yul\":4305:4327   */\n      add\n        /* \"#utility.yul\":4284:4337   */\n      tag_330\n      jump\t// in\n    tag_410:\n        /* \"#utility.yul\":4274:4337   */\n      swap2\n      pop\n        /* \"#utility.yul\":4230:4347   */\n      pop\n        /* \"#utility.yul\":4025:4354   */\n      swap3\n      swap2\n      pop\n      pop\n      jump\t// out\n        /* \"#utility.yul\":4360:4478   */\n    tag_331:\n        /* \"#utility.yul\":4447:4471   */\n      tag_412\n        /* \"#utility.yul\":4465:4470   */\n      dup2\n        /* \"#utility.yul\":4447:4471   */\n      tag_328\n      jump\t// in\n    tag_412:\n        /* \"#utility.yul\":4442:4445   */\n      dup3\n        /* \"#utility.yul\":4435:4472   */\n      mstore\n        /* \"#utility.yul\":4360:4478   */\n      pop\n      pop\n      jump\t// out\n        /* \"#utility.yul\":4484:4706   */\n    tag_45:\n        /* \"#utility.yul\":4577:4581   */\n      0x00\n        /* \"#utility.yul\":4615:4617   */\n      0x20\n        /* \"#utility.yul\":4604:4613   */\n      dup3\n        /* \"#utility.yul\":4600:4618   */\n      add\n        /* \"#utility.yul\":4592:4618   */\n      swap1\n      pop\n        /* \"#utility.yul\":4628:4699   */\n      tag_414\n        /* \"#utility.yul\":4696:4697   */\n      0x00\n        /* \"#utility.yul\":4685:4694   */\n      dup4\n        /* \"#utility.yul\":4681:4698   */\n      add\n        /* \"#utility.yul\":4672:4678   */\n      dup5\n        /* \"#utility.yul\":4628:4699   */\n      tag_331\n      jump\t// in\n    tag_414:\n        /* \"#utility.yul\":4484:4706   */\n      swap3\n      swap2\n      pop\n      pop\n      jump\t// out\n        /* \"#utility.yul\":4712:5186   */\n    tag_48:\n        /* \"#utility.yul\":4780:4786   */\n      0x00\n        /* \"#utility.yul\":4788:4794   */\n      dup1\n        /* \"#utility.yul\":4837:4839   */\n      0x40\n        /* \"#utility.yul\":4825:4834   */\n      dup4\n        /* \"#utility.yul\":4816:4823   */\n      dup6\n        /* \"#utility.yul\":4812:4835   */\n      sub\n        /* \"#utility.yul\":4808:4840   */\n      slt\n        /* \"#utility.yul\":4805:4924   */\n      iszero\n      tag_416\n      jumpi\n        /* \"#utility.yul\":4843:4922   */\n      tag_417\n      tag_311\n      jump\t// in\n    tag_417:\n        /* \"#utility.yul\":4805:4924   */\n    tag_416:\n        /* \"#utility.yul\":4963:4964   */\n      0x00\n        /* \"#utility.yul\":4988:5041   */\n      tag_418\n        /* \"#utility.yul\":5033:5040   */\n      dup6\n        /* \"#utility.yul\":5024:5030   */\n      dup3\n        /* \"#utility.yul\":5013:5022   */\n      dup7\n        /* \"#utility.yul\":5009:5031   */\n      add\n        /* \"#utility.yul\":4988:5041   */\n      tag_330\n      jump\t// in\n    tag_418:\n        /* \"#utility.yul\":4978:5041   */\n      swap3\n      pop\n        /* \"#utility.yul\":4934:5051   */\n      pop\n        /* \"#utility.yul\":5090:5092   */\n      0x20\n        /* \"#utility.yul\":5116:5169   */\n      tag_419\n        /* \"#utility.yul\":5161:5168   */\n      dup6\n        /* \"#utility.yul\":5152:5158   */\n      dup3\n        /* \"#utility.yul\":5141:5150   */\n      dup7\n        /* \"#utility.yul\":5137:5159   */\n      add\n        /* \"#utility.yul\":5116:5169   */\n      tag_319\n      jump\t// in\n    tag_419:\n        /* \"#utility.yul\":5106:5169   */\n      swap2\n      pop\n        /* \"#utility.yul\":5061:5179   */\n      pop\n        /* \"#utility.yul\":4712:5186   */\n      swap3\n      pop\n      swap3\n      swap1\n      pop\n      jump\t// out\n        /* \"#utility.yul\":5192:5308   */\n    tag_332:\n        /* \"#utility.yul\":5262:5283   */\n      tag_421\n        /* \"#utility.yul\":5277:5282   */\n      dup2\n        /* \"#utility.yul\":5262:5283   */\n      tag_323\n      jump\t// in\n    tag_421:\n        /* \"#utility.yul\":5255:5260   */\n      dup2\n        /* \"#utility.yul\":5252:5284   */\n      eq\n        /* \"#utility.yul\":5242:5302   */\n      tag_422\n      jumpi\n        /* \"#utility.yul\":5298:5299   */\n      0x00\n        /* \"#utility.yul\":5295:5296   */\n      dup1\n        /* \"#utility.yul\":5288:5300   */\n      revert\n        /* \"#utility.yul\":5242:5302   */\n    tag_422:\n        /* \"#utility.yul\":5192:5308   */\n      pop\n      jump\t// out\n        /* \"#utility.yul\":5314:5447   */\n    tag_333:\n        /* \"#utility.yul\":5357:5362   */\n      0x00\n        /* \"#utility.yul\":5395:5401   */\n      dup2\n        /* \"#utility.yul\":5382:5402   */\n      calldataload\n        /* \"#utility.yul\":5373:5402   */\n      swap1\n      pop\n        /* \"#utility.yul\":5411:5441   */\n      tag_424\n        /* \"#utility.yul\":5435:5440   */\n      dup2\n        /* \"#utility.yul\":5411:5441   */\n      tag_332\n      jump\t// in\n    tag_424:\n        /* \"#utility.yul\":5314:5447   */\n      swap3\n      swap2\n      pop\n      pop\n      jump\t// out\n        /* \"#utility.yul\":5453:5776   */\n    tag_57:\n        /* \"#utility.yul\":5509:5515   */\n      0x00\n        /* \"#utility.yul\":5558:5560   */\n      0x20\n        /* \"#utility.yul\":5546:5555   */\n      dup3\n        /* \"#utility.yul\":5537:5544   */\n      dup5\n        /* \"#utility.yul\":5533:5556   */\n      sub\n        /* \"#utility.yul\":5529:5561   */\n      slt\n        /* \"#utility.yul\":5526:5645   */\n      iszero\n      tag_426\n      jumpi\n        /* \"#utility.yul\":5564:5643   */\n      tag_427\n      tag_311\n      jump\t// in\n    tag_427:\n        /* \"#utility.yul\":5526:5645   */\n    tag_426:\n        /* \"#utility.yul\":5684:5685   */\n      0x00\n        /* \"#utility.yul\":5709:5759   */\n      tag_428\n        /* \"#utility.yul\":5751:5758   */\n      dup5\n        /* \"#utility.yul\":5742:5748   */\n      dup3\n        /* \"#utility.yul\":5731:5740   */\n      dup6\n        /* \"#utility.yul\":5727:5749   */\n      add\n        /* \"#utility.yul\":5709:5759   */\n      tag_333\n      jump\t// in\n    tag_428:\n        /* \"#utility.yul\":5699:5759   */\n      swap2\n      pop\n        /* \"#utility.yul\":5655:5769   */\n      pop\n        /* \"#utility.yul\":5453:5776   */\n      swap3\n      swap2\n      pop\n      pop\n      jump\t// out\n        /* \"#utility.yul\":5782:5900   */\n    tag_334:\n        /* \"#utility.yul\":5869:5893   */\n      tag_430\n        /* \"#utility.yul\":5887:5892   */\n      dup2\n        /* \"#utility.yul\":5869:5893   */\n      tag_317\n      jump\t// in\n    tag_430:\n        /* \"#utility.yul\":5864:5867   */\n      dup3\n        /* \"#utility.yul\":5857:5894   */\n      mstore\n        /* \"#utility.yul\":5782:5900   */\n      pop\n      pop\n      jump\t// out\n        /* \"#utility.yul\":5906:6128   */\n    tag_65:\n        /* \"#utility.yul\":5999:6003   */\n      0x00\n        /* \"#utility.yul\":6037:6039   */\n      0x20\n        /* \"#utility.yul\":6026:6035   */\n      dup3\n        /* \"#utility.yul\":6022:6040   */\n      add\n        /* \"#utility.yul\":6014:6040   */\n      swap1\n      pop\n        /* \"#utility.yul\":6050:6121   */\n      tag_432\n        /* \"#utility.yul\":6118:6119   */\n      0x00\n        /* \"#utility.yul\":6107:6116   */\n      dup4\n        /* \"#utility.yul\":6103:6120   */\n      add\n        /* \"#utility.yul\":6094:6100   */\n      dup5\n        /* \"#utility.yul\":6050:6121   */\n      tag_334\n      jump\t// in\n    tag_432:\n        /* \"#utility.yul\":5906:6128   */\n      swap3\n      swap2\n      pop\n      pop\n      jump\t// out\n        /* \"#utility.yul\":6134:6608   */\n    tag_68:\n        /* \"#utility.yul\":6202:6208   */\n      0x00\n        /* \"#utility.yul\":6210:6216   */\n      dup1\n        /* \"#utility.yul\":6259:6261   */\n      0x40\n        /* \"#utility.yul\":6247:6256   */\n      dup4\n        /* \"#utility.yul\":6238:6245   */\n      dup6\n        /* \"#utility.yul\":6234:6257   */\n      sub\n        /* \"#utility.yul\":6230:6262   */\n      slt\n        /* \"#utility.yul\":6227:6346   */\n      iszero\n      tag_434\n      jumpi\n        /* \"#utility.yul\":6265:6344   */\n      tag_435\n      tag_311\n      jump\t// in\n    tag_435:\n        /* \"#utility.yul\":6227:6346   */\n    tag_434:\n        /* \"#utility.yul\":6385:6386   */\n      0x00\n        /* \"#utility.yul\":6410:6463   */\n      tag_436\n        /* \"#utility.yul\":6455:6462   */\n      dup6\n        /* \"#utility.yul\":6446:6452   */\n      dup3\n        /* \"#utility.yul\":6435:6444   */\n      dup7\n        /* \"#utility.yul\":6431:6453   */\n      add\n        /* \"#utility.yul\":6410:6463   */\n      tag_330\n      jump\t// in\n    tag_436:\n        /* \"#utility.yul\":6400:6463   */\n      swap3\n      pop\n        /* \"#utility.yul\":6356:6473   */\n      pop\n        /* \"#utility.yul\":6512:6514   */\n      0x20\n        /* \"#utility.yul\":6538:6591   */\n      tag_437\n        /* \"#utility.yul\":6583:6590   */\n      dup6\n        /* \"#utility.yul\":6574:6580   */\n      dup3\n        /* \"#utility.yul\":6563:6572   */\n      dup7\n        /* \"#utility.yul\":6559:6581   */\n      add\n        /* \"#utility.yul\":6538:6591   */\n      tag_315\n      jump\t// in\n    tag_437:\n        /* \"#utility.yul\":6528:6591   */\n      swap2\n      pop\n        /* \"#utility.yul\":6483:6601   */\n      pop\n        /* \"#utility.yul\":6134:6608   */\n      swap3\n      pop\n      swap3\n      swap1\n      pop\n      jump\t// out\n        /* \"#utility.yul\":6614:6943   */\n    tag_83:\n        /* \"#utility.yul\":6673:6679   */\n      0x00\n        /* \"#utility.yul\":6722:6724   */\n      0x20\n        /* \"#utility.yul\":6710:6719   */\n      dup3\n        /* \"#utility.yul\":6701:6708   */\n      dup5\n        /* \"#utility.yul\":6697:6720   */\n      sub\n        /* \"#utility.yul\":6693:6725   */\n      slt\n        /* \"#utility.yul\":6690:6809   */\n      iszero\n      tag_439\n      jumpi\n        /* \"#utility.yul\":6728:6807   */\n      tag_440\n      tag_311\n      jump\t// in\n    tag_440:\n        /* \"#utility.yul\":6690:6809   */\n    tag_439:\n        /* \"#utility.yul\":6848:6849   */\n      0x00\n        /* \"#utility.yul\":6873:6926   */\n      tag_441\n        /* \"#utility.yul\":6918:6925   */\n      dup5\n        /* \"#utility.yul\":6909:6915   */\n      dup3\n        /* \"#utility.yul\":6898:6907   */\n      dup6\n        /* \"#utility.yul\":6894:6916   */\n      add\n        /* \"#utility.yul\":6873:6926   */\n      tag_315\n      jump\t// in\n    tag_441:\n        /* \"#utility.yul\":6863:6926   */\n      swap2\n      pop\n        /* \"#utility.yul\":6819:6936   */\n      pop\n        /* \"#utility.yul\":6614:6943   */\n      swap3\n      swap2\n      pop\n      pop\n      jump\t// out\n        /* \"#utility.yul\":6949:7067   */\n    tag_335:\n        /* \"#utility.yul\":7036:7060   */\n      tag_443\n        /* \"#utility.yul\":7054:7059   */\n      dup2\n        /* \"#utility.yul\":7036:7060   */\n      tag_313\n      jump\t// in\n    tag_443:\n        /* \"#utility.yul\":7031:7034   */\n      dup3\n        /* \"#utility.yul\":7024:7061   */\n      mstore\n        /* \"#utility.yul\":6949:7067   */\n      pop\n      pop\n      jump\t// out\n        /* \"#utility.yul\":7073:7295   */\n    tag_89:\n        /* \"#utility.yul\":7166:7170   */\n      0x00\n        /* \"#utility.yul\":7204:7206   */\n      0x20\n        /* \"#utility.yul\":7193:7202   */\n      dup3\n        /* \"#utility.yul\":7189:7207   */\n      add\n        /* \"#utility.yul\":7181:7207   */\n      swap1\n      pop\n        /* \"#utility.yul\":7217:7288   */\n      tag_445\n        /* \"#utility.yul\":7285:7286   */\n      0x00\n        /* \"#utility.yul\":7274:7283   */\n      dup4\n        /* \"#utility.yul\":7270:7287   */\n      add\n        /* \"#utility.yul\":7261:7267   */\n      dup5\n        /* \"#utility.yul\":7217:7288   */\n      tag_335\n      jump\t// in\n    tag_445:\n        /* \"#utility.yul\":7073:7295   */\n      swap3\n      swap2\n      pop\n      pop\n      jump\t// out\n        /* \"#utility.yul\":7301:7630   */\n    tag_98:\n        /* \"#utility.yul\":7360:7366   */\n      0x00\n        /* \"#utility.yul\":7409:7411   */\n      0x20\n        /* \"#utility.yul\":7397:7406   */\n      dup3\n        /* \"#utility.yul\":7388:7395   */\n      dup5\n        /* \"#utility.yul\":7384:7407   */\n      sub\n        /* \"#utility.yul\":7380:7412   */\n      slt\n        /* \"#utility.yul\":7377:7496   */\n      iszero\n      tag_447\n      jumpi\n        /* \"#utility.yul\":7415:7494   */\n      tag_448\n      tag_311\n      jump\t// in\n    tag_448:\n        /* \"#utility.yul\":7377:7496   */\n    tag_447:\n        /* \"#utility.yul\":7535:7536   */\n      0x00\n        /* \"#utility.yul\":7560:7613   */\n      tag_449\n        /* \"#utility.yul\":7605:7612   */\n      dup5\n        /* \"#utility.yul\":7596:7602   */\n      dup3\n        /* \"#utility.yul\":7585:7594   */\n      dup6\n        /* \"#utility.yul\":7581:7603   */\n      add\n        /* \"#utility.yul\":7560:7613   */\n      tag_319\n      jump\t// in\n    tag_449:\n        /* \"#utility.yul\":7550:7613   */\n      swap2\n      pop\n        /* \"#utility.yul\":7506:7623   */\n      pop\n        /* \"#utility.yul\":7301:7630   */\n      swap3\n      swap2\n      pop\n      pop\n      jump\t// out\n        /* \"#utility.yul\":7636:7805   */\n    tag_336:\n        /* \"#utility.yul\":7720:7731   */\n      0x00\n        /* \"#utility.yul\":7754:7760   */\n      dup3\n        /* \"#utility.yul\":7749:7752   */\n      dup3\n        /* \"#utility.yul\":7742:7761   */\n      mstore\n        /* \"#utility.yul\":7794:7798   */\n      0x20\n        /* \"#utility.yul\":7789:7792   */\n      dup3\n        /* \"#utility.yul\":7785:7799   */\n      add\n        /* \"#utility.yul\":7770:7799   */\n      swap1\n      pop\n        /* \"#utility.yul\":7636:7805   */\n      swap3\n      swap2\n      pop\n      pop\n      jump\t// out\n        /* \"#utility.yul\":7811:7987   */\n    tag_337:\n        /* \"#utility.yul\":7951:7979   */\n      0x43616c6c6572206973206e6f7420612077697468647261776572000000000000\n        /* \"#utility.yul\":7947:7948   */\n      0x00\n        /* \"#utility.yul\":7939:7945   */\n      dup3\n        /* \"#utility.yul\":7935:7949   */\n      add\n        /* \"#utility.yul\":7928:7980   */\n      mstore\n        /* \"#utility.yul\":7811:7987   */\n      pop\n      jump\t// out\n        /* \"#utility.yul\":7993:8359   */\n    tag_338:\n        /* \"#utility.yul\":8135:8138   */\n      0x00\n        /* \"#utility.yul\":8156:8223   */\n      tag_453\n        /* \"#utility.yul\":8220:8222   */\n      0x1a\n        /* \"#utility.yul\":8215:8218   */\n      dup4\n        /* \"#utility.yul\":8156:8223   */\n      tag_336\n      jump\t// in\n    tag_453:\n        /* \"#utility.yul\":8149:8223   */\n      swap2\n      pop\n        /* \"#utility.yul\":8232:8325   */\n      tag_454\n        /* \"#utility.yul\":8321:8324   */\n      dup3\n        /* \"#utility.yul\":8232:8325   */\n      tag_337\n      jump\t// in\n    tag_454:\n        /* \"#utility.yul\":8350:8352   */\n      0x20\n        /* \"#utility.yul\":8345:8348   */\n      dup3\n        /* \"#utility.yul\":8341:8353   */\n      add\n        /* \"#utility.yul\":8334:8353   */\n      swap1\n      pop\n        /* \"#utility.yul\":7993:8359   */\n      swap2\n      swap1\n      pop\n      jump\t// out\n        /* \"#utility.yul\":8365:8784   */\n    tag_112:\n        /* \"#utility.yul\":8531:8535   */\n      0x00\n        /* \"#utility.yul\":8569:8571   */\n      0x20\n        /* \"#utility.yul\":8558:8567   */\n      dup3\n        /* \"#utility.yul\":8554:8572   */\n      add\n        /* \"#utility.yul\":8546:8572   */\n      swap1\n      pop\n        /* \"#utility.yul\":8618:8627   */\n      dup2\n        /* \"#utility.yul\":8612:8616   */\n      dup2\n        /* \"#utility.yul\":8608:8628   */\n      sub\n        /* \"#utility.yul\":8604:8605   */\n      0x00\n        /* \"#utility.yul\":8593:8602   */\n      dup4\n        /* \"#utility.yul\":8589:8606   */\n      add\n        /* \"#utility.yul\":8582:8629   */\n      mstore\n        /* \"#utility.yul\":8646:8777   */\n      tag_456\n        /* \"#utility.yul\":8772:8776   */\n      dup2\n        /* \"#utility.yul\":8646:8777   */\n      tag_338\n      jump\t// in\n    tag_456:\n        /* \"#utility.yul\":8638:8777   */\n      swap1\n      pop\n        /* \"#utility.yul\":8365:8784   */\n      swap2\n      swap1\n      pop\n      jump\t// out\n        /* \"#utility.yul\":8790:8965   */\n    tag_339:\n        /* \"#utility.yul\":8930:8957   */\n      0x5769746864726177206973206e6f7420617661696c61626c6500000000000000\n        /* \"#utility.yul\":8926:8927   */\n      0x00\n        /* \"#utility.yul\":8918:8924   */\n      dup3\n        /* \"#utility.yul\":8914:8928   */\n      add\n        /* \"#utility.yul\":8907:8958   */\n      mstore\n        /* \"#utility.yul\":8790:8965   */\n      pop\n      jump\t// out\n        /* \"#utility.yul\":8971:9337   */\n    tag_340:\n        /* \"#utility.yul\":9113:9116   */\n      0x00\n        /* \"#utility.yul\":9134:9201   */\n      tag_459\n        /* \"#utility.yul\":9198:9200   */\n      0x19\n        /* \"#utility.yul\":9193:9196   */\n      dup4\n        /* \"#utility.yul\":9134:9201   */\n      tag_336\n      jump\t// in\n    tag_459:\n        /* \"#utility.yul\":9127:9201   */\n      swap2\n      pop\n        /* \"#utility.yul\":9210:9303   */\n      tag_460\n        /* \"#utility.yul\":9299:9302   */\n      dup3\n        /* \"#utility.yul\":9210:9303   */\n      tag_339\n      jump\t// in\n    tag_460:\n        /* \"#utility.yul\":9328:9330   */\n      0x20\n        /* \"#utility.yul\":9323:9326   */\n      dup3\n        /* \"#utility.yul\":9319:9331   */\n      add\n        /* \"#utility.yul\":9312:9331   */\n      swap1\n      pop\n        /* \"#utility.yul\":8971:9337   */\n      swap2\n      swap1\n      pop\n      jump\t// out\n        /* \"#utility.yul\":9343:9762   */\n    tag_116:\n        /* \"#utility.yul\":9509:9513   */\n      0x00\n        /* \"#utility.yul\":9547:9549   */\n      0x20\n        /* \"#utility.yul\":9536:9545   */\n      dup3\n        /* \"#utility.yul\":9532:9550   */\n      add\n        /* \"#utility.yul\":9524:9550   */\n      swap1\n      pop\n        /* \"#utility.yul\":9596:9605   */\n      dup2\n        /* \"#utility.yul\":9590:9594   */\n      dup2\n        /* \"#utility.yul\":9586:9606   */\n      sub\n        /* \"#utility.yul\":9582:9583   */\n      0x00\n        /* \"#utility.yul\":9571:9580   */\n      dup4\n        /* \"#utility.yul\":9567:9584   */\n      add\n        /* \"#utility.yul\":9560:9607   */\n      mstore\n        /* \"#utility.yul\":9624:9755   */\n      tag_462\n        /* \"#utility.yul\":9750:9754   */\n      dup2\n        /* \"#utility.yul\":9624:9755   */\n      tag_340\n      jump\t// in\n    tag_462:\n        /* \"#utility.yul\":9616:9755   */\n      swap1\n      pop\n        /* \"#utility.yul\":9343:9762   */\n      swap2\n      swap1\n      pop\n      jump\t// out\n        /* \"#utility.yul\":9768:9939   */\n    tag_341:\n        /* \"#utility.yul\":9908:9931   */\n      0x457863656564206d6178696d756d20616d6f756e740000000000000000000000\n        /* \"#utility.yul\":9904:9905   */\n      0x00\n        /* \"#utility.yul\":9896:9902   */\n      dup3\n        /* \"#utility.yul\":9892:9906   */\n      add\n        /* \"#utility.yul\":9885:9932   */\n      mstore\n        /* \"#utility.yul\":9768:9939   */\n      pop\n      jump\t// out\n        /* \"#utility.yul\":9945:10311   */\n    tag_342:\n        /* \"#utility.yul\":10087:10090   */\n      0x00\n        /* \"#utility.yul\":10108:10175   */\n      tag_465\n        /* \"#utility.yul\":10172:10174   */\n      0x15\n        /* \"#utility.yul\":10167:10170   */\n      dup4\n        /* \"#utility.yul\":10108:10175   */\n      tag_336\n      jump\t// in\n    tag_465:\n        /* \"#utility.yul\":10101:10175   */\n      swap2\n      pop\n        /* \"#utility.yul\":10184:10277   */\n      tag_466\n        /* \"#utility.yul\":10273:10276   */\n      dup3\n        /* \"#utility.yul\":10184:10277   */\n      tag_341\n      jump\t// in\n    tag_466:\n        /* \"#utility.yul\":10302:10304   */\n      0x20\n        /* \"#utility.yul\":10297:10300   */\n      dup3\n        /* \"#utility.yul\":10293:10305   */\n      add\n        /* \"#utility.yul\":10286:10305   */\n      swap1\n      pop\n        /* \"#utility.yul\":9945:10311   */\n      swap2\n      swap1\n      pop\n      jump\t// out\n        /* \"#utility.yul\":10317:10736   */\n    tag_119:\n        /* \"#utility.yul\":10483:10487   */\n      0x00\n        /* \"#utility.yul\":10521:10523   */\n      0x20\n        /* \"#utility.yul\":10510:10519   */\n      dup3\n        /* \"#utility.yul\":10506:10524   */\n      add\n        /* \"#utility.yul\":10498:10524   */\n      swap1\n      pop\n        /* \"#utility.yul\":10570:10579   */\n      dup2\n        /* \"#utility.yul\":10564:10568   */\n      dup2\n        /* \"#utility.yul\":10560:10580   */\n      sub\n        /* \"#utility.yul\":10556:10557   */\n      0x00\n        /* \"#utility.yul\":10545:10554   */\n      dup4\n        /* \"#utility.yul\":10541:10558   */\n      add\n        /* \"#utility.yul\":10534:10581   */\n      mstore\n        /* \"#utility.yul\":10598:10729   */\n      tag_468\n        /* \"#utility.yul\":10724:10728   */\n      dup2\n        /* \"#utility.yul\":10598:10729   */\n      tag_342\n      jump\t// in\n    tag_468:\n        /* \"#utility.yul\":10590:10729   */\n      swap1\n      pop\n        /* \"#utility.yul\":10317:10736   */\n      swap2\n      swap1\n      pop\n      jump\t// out\n        /* \"#utility.yul\":10742:11074   */\n    tag_121:\n        /* \"#utility.yul\":10863:10867   */\n      0x00\n        /* \"#utility.yul\":10901:10903   */\n      0x40\n        /* \"#utility.yul\":10890:10899   */\n      dup3\n        /* \"#utility.yul\":10886:10904   */\n      add\n        /* \"#utility.yul\":10878:10904   */\n      swap1\n      pop\n        /* \"#utility.yul\":10914:10985   */\n      tag_470\n        /* \"#utility.yul\":10982:10983   */\n      0x00\n        /* \"#utility.yul\":10971:10980   */\n      dup4\n        /* \"#utility.yul\":10967:10984   */\n      add\n        /* \"#utility.yul\":10958:10964   */\n      dup6\n        /* \"#utility.yul\":10914:10985   */\n      tag_334\n      jump\t// in\n    tag_470:\n        /* \"#utility.yul\":10995:11067   */\n      tag_471\n        /* \"#utility.yul\":11063:11065   */\n      0x20\n        /* \"#utility.yul\":11052:11061   */\n      dup4\n        /* \"#utility.yul\":11048:11066   */\n      add\n        /* \"#utility.yul\":11039:11045   */\n      dup5\n        /* \"#utility.yul\":10995:11067   */\n      tag_335\n      jump\t// in\n    tag_471:\n        /* \"#utility.yul\":10742:11074   */\n      swap4\n      swap3\n      pop\n      pop\n      pop\n      jump\t// out\n        /* \"#utility.yul\":11080:11217   */\n    tag_343:\n        /* \"#utility.yul\":11134:11139   */\n      0x00\n        /* \"#utility.yul\":11165:11171   */\n      dup2\n        /* \"#utility.yul\":11159:11172   */\n      mload\n        /* \"#utility.yul\":11150:11172   */\n      swap1\n      pop\n        /* \"#utility.yul\":11181:11211   */\n      tag_473\n        /* \"#utility.yul\":11205:11210   */\n      dup2\n        /* \"#utility.yul\":11181:11211   */\n      tag_332\n      jump\t// in\n    tag_473:\n        /* \"#utility.yul\":11080:11217   */\n      swap3\n      swap2\n      pop\n      pop\n      jump\t// out\n        /* \"#utility.yul\":11223:11568   */\n    tag_125:\n        /* \"#utility.yul\":11290:11296   */\n      0x00\n        /* \"#utility.yul\":11339:11341   */\n      0x20\n        /* \"#utility.yul\":11327:11336   */\n      dup3\n        /* \"#utility.yul\":11318:11325   */\n      dup5\n        /* \"#utility.yul\":11314:11337   */\n      sub\n        /* \"#utility.yul\":11310:11342   */\n      slt\n        /* \"#utility.yul\":11307:11426   */\n      iszero\n      tag_475\n      jumpi\n        /* \"#utility.yul\":11345:11424   */\n      tag_476\n      tag_311\n      jump\t// in\n    tag_476:\n        /* \"#utility.yul\":11307:11426   */\n    tag_475:\n        /* \"#utility.yul\":11465:11466   */\n      0x00\n        /* \"#utility.yul\":11490:11551   */\n      tag_477\n        /* \"#utility.yul\":11543:11550   */\n      dup5\n        /* \"#utility.yul\":11534:11540   */\n      dup3\n        /* \"#utility.yul\":11523:11532   */\n      dup6\n        /* \"#utility.yul\":11519:11541   */\n      add\n        /* \"#utility.yul\":11490:11551   */\n      tag_343\n      jump\t// in\n    tag_477:\n        /* \"#utility.yul\":11480:11551   */\n      swap2\n      pop\n        /* \"#utility.yul\":11436:11561   */\n      pop\n        /* \"#utility.yul\":11223:11568   */\n      swap3\n      swap2\n      pop\n      pop\n      jump\t// out\n        /* \"#utility.yul\":11574:11717   */\n    tag_344:\n        /* \"#utility.yul\":11631:11636   */\n      0x00\n        /* \"#utility.yul\":11662:11668   */\n      dup2\n        /* \"#utility.yul\":11656:11669   */\n      mload\n        /* \"#utility.yul\":11647:11669   */\n      swap1\n      pop\n        /* \"#utility.yul\":11678:11711   */\n      tag_479\n        /* \"#utility.yul\":11705:11710   */\n      dup2\n        /* \"#utility.yul\":11678:11711   */\n      tag_314\n      jump\t// in\n    tag_479:\n        /* \"#utility.yul\":11574:11717   */\n      swap3\n      swap2\n      pop\n      pop\n      jump\t// out\n        /* \"#utility.yul\":11723:12074   */\n    tag_165:\n        /* \"#utility.yul\":11793:11799   */\n      0x00\n        /* \"#utility.yul\":11842:11844   */\n      0x20\n        /* \"#utility.yul\":11830:11839   */\n      dup3\n        /* \"#utility.yul\":11821:11828   */\n      dup5\n        /* \"#utility.yul\":11817:11840   */\n      sub\n        /* \"#utility.yul\":11813:11845   */\n      slt\n        /* \"#utility.yul\":11810:11929   */\n      iszero\n      tag_481\n      jumpi\n        /* \"#utility.yul\":11848:11927   */\n      tag_482\n      tag_311\n      jump\t// in\n    tag_482:\n        /* \"#utility.yul\":11810:11929   */\n    tag_481:\n        /* \"#utility.yul\":11968:11969   */\n      0x00\n        /* \"#utility.yul\":11993:12057   */\n      tag_483\n        /* \"#utility.yul\":12049:12056   */\n      dup5\n        /* \"#utility.yul\":12040:12046   */\n      dup3\n        /* \"#utility.yul\":12029:12038   */\n      dup6\n        /* \"#utility.yul\":12025:12047   */\n      add\n        /* \"#utility.yul\":11993:12057   */\n      tag_344\n      jump\t// in\n    tag_483:\n        /* \"#utility.yul\":11983:12057   */\n      swap2\n      pop\n        /* \"#utility.yul\":11939:12067   */\n      pop\n        /* \"#utility.yul\":11723:12074   */\n      swap3\n      swap2\n      pop\n      pop\n      jump\t// out\n        /* \"#utility.yul\":12080:12258   */\n    tag_345:\n        /* \"#utility.yul\":12220:12250   */\n      0x496e73756666696369656e74206163636f756e742062616c616e636500000000\n        /* \"#utility.yul\":12216:12217   */\n      0x00\n        /* \"#utility.yul\":12208:12214   */\n      dup3\n        /* \"#utility.yul\":12204:12218   */\n      add\n        /* \"#utility.yul\":12197:12251   */\n      mstore\n        /* \"#utility.yul\":12080:12258   */\n      pop\n      jump\t// out\n        /* \"#utility.yul\":12264:12630   */\n    tag_346:\n        /* \"#utility.yul\":12406:12409   */\n      0x00\n        /* \"#utility.yul\":12427:12494   */\n      tag_486\n        /* \"#utility.yul\":12491:12493   */\n      0x1c\n        /* \"#utility.yul\":12486:12489   */\n      dup4\n        /* \"#utility.yul\":12427:12494   */\n      tag_336\n      jump\t// in\n    tag_486:\n        /* \"#utility.yul\":12420:12494   */\n      swap2\n      pop\n        /* \"#utility.yul\":12503:12596   */\n      tag_487\n        /* \"#utility.yul\":12592:12595   */\n      dup3\n        /* \"#utility.yul\":12503:12596   */\n      tag_345\n      jump\t// in\n    tag_487:\n        /* \"#utility.yul\":12621:12623   */\n      0x20\n        /* \"#utility.yul\":12616:12619   */\n      dup3\n        /* \"#utility.yul\":12612:12624   */\n      add\n        /* \"#utility.yul\":12605:12624   */\n      swap1\n      pop\n        /* \"#utility.yul\":12264:12630   */\n      swap2\n      swap1\n      pop\n      jump\t// out\n        /* \"#utility.yul\":12636:13055   */\n    tag_168:\n        /* \"#utility.yul\":12802:12806   */\n      0x00\n        /* \"#utility.yul\":12840:12842   */\n      0x20\n        /* \"#utility.yul\":12829:12838   */\n      dup3\n        /* \"#utility.yul\":12825:12843   */\n      add\n        /* \"#utility.yul\":12817:12843   */\n      swap1\n      pop\n        /* \"#utility.yul\":12889:12898   */\n      dup2\n        /* \"#utility.yul\":12883:12887   */\n      dup2\n        /* \"#utility.yul\":12879:12899   */\n      sub\n        /* \"#utility.yul\":12875:12876   */\n      0x00\n        /* \"#utility.yul\":12864:12873   */\n      dup4\n        /* \"#utility.yul\":12860:12877   */\n      add\n        /* \"#utility.yul\":12853:12900   */\n      mstore\n        /* \"#utility.yul\":12917:13048   */\n      tag_489\n        /* \"#utility.yul\":13043:13047   */\n      dup2\n        /* \"#utility.yul\":12917:13048   */\n      tag_346\n      jump\t// in\n    tag_489:\n        /* \"#utility.yul\":12909:13048   */\n      swap1\n      pop\n        /* \"#utility.yul\":12636:13055   */\n      swap2\n      swap1\n      pop\n      jump\t// out\n        /* \"#utility.yul\":13061:13503   */\n    tag_222:\n        /* \"#utility.yul\":13210:13214   */\n      0x00\n        /* \"#utility.yul\":13248:13250   */\n      0x60\n        /* \"#utility.yul\":13237:13246   */\n      dup3\n        /* \"#utility.yul\":13233:13251   */\n      add\n        /* \"#utility.yul\":13225:13251   */\n      swap1\n      pop\n        /* \"#utility.yul\":13261:13332   */\n      tag_491\n        /* \"#utility.yul\":13329:13330   */\n      0x00\n        /* \"#utility.yul\":13318:13327   */\n      dup4\n        /* \"#utility.yul\":13314:13331   */\n      add\n        /* \"#utility.yul\":13305:13311   */\n      dup7\n        /* \"#utility.yul\":13261:13332   */\n      tag_334\n      jump\t// in\n    tag_491:\n        /* \"#utility.yul\":13342:13414   */\n      tag_492\n        /* \"#utility.yul\":13410:13412   */\n      0x20\n        /* \"#utility.yul\":13399:13408   */\n      dup4\n        /* \"#utility.yul\":13395:13413   */\n      add\n        /* \"#utility.yul\":13386:13392   */\n      dup6\n        /* \"#utility.yul\":13342:13414   */\n      tag_334\n      jump\t// in\n    tag_492:\n        /* \"#utility.yul\":13424:13496   */\n      tag_493\n        /* \"#utility.yul\":13492:13494   */\n      0x40\n        /* \"#utility.yul\":13481:13490   */\n      dup4\n        /* \"#utility.yul\":13477:13495   */\n      add\n        /* \"#utility.yul\":13468:13474   */\n      dup5\n        /* \"#utility.yul\":13424:13496   */\n      tag_335\n      jump\t// in\n    tag_493:\n        /* \"#utility.yul\":13061:13503   */\n      swap5\n      swap4\n      pop\n      pop\n      pop\n      pop\n      jump\t// out\n        /* \"#utility.yul\":13509:13841   */\n    tag_232:\n        /* \"#utility.yul\":13630:13634   */\n      0x00\n        /* \"#utility.yul\":13668:13670   */\n      0x40\n        /* \"#utility.yul\":13657:13666   */\n      dup3\n        /* \"#utility.yul\":13653:13671   */\n      add\n        /* \"#utility.yul\":13645:13671   */\n      swap1\n      pop\n        /* \"#utility.yul\":13681:13752   */\n      tag_495\n        /* \"#utility.yul\":13749:13750   */\n      0x00\n        /* \"#utility.yul\":13738:13747   */\n      dup4\n        /* \"#utility.yul\":13734:13751   */\n      add\n        /* \"#utility.yul\":13725:13731   */\n      dup6\n        /* \"#utility.yul\":13681:13752   */\n      tag_334\n      jump\t// in\n    tag_495:\n        /* \"#utility.yul\":13762:13834   */\n      tag_496\n        /* \"#utility.yul\":13830:13832   */\n      0x20\n        /* \"#utility.yul\":13819:13828   */\n      dup4\n        /* \"#utility.yul\":13815:13833   */\n      add\n        /* \"#utility.yul\":13806:13812   */\n      dup5\n        /* \"#utility.yul\":13762:13834   */\n      tag_331\n      jump\t// in\n    tag_496:\n        /* \"#utility.yul\":13509:13841   */\n      swap4\n      swap3\n      pop\n      pop\n      pop\n      jump\t// out\n        /* \"#utility.yul\":13847:14027   */\n    tag_252:\n        /* \"#utility.yul\":13895:13972   */\n      0x4e487b7100000000000000000000000000000000000000000000000000000000\n        /* \"#utility.yul\":13892:13893   */\n      0x00\n        /* \"#utility.yul\":13885:13973   */\n      mstore\n        /* \"#utility.yul\":13992:13996   */\n      0x32\n        /* \"#utility.yul\":13989:13990   */\n      0x04\n        /* \"#utility.yul\":13982:13997   */\n      mstore\n        /* \"#utility.yul\":14016:14020   */\n      0x24\n        /* \"#utility.yul\":14013:14014   */\n      0x00\n        /* \"#utility.yul\":14006:14021   */\n      revert\n        /* \"#utility.yul\":14033:14213   */\n    tag_347:\n        /* \"#utility.yul\":14081:14158   */\n      0x4e487b7100000000000000000000000000000000000000000000000000000000\n        /* \"#utility.yul\":14078:14079   */\n      0x00\n        /* \"#utility.yul\":14071:14159   */\n      mstore\n        /* \"#utility.yul\":14178:14182   */\n      0x11\n        /* \"#utility.yul\":14175:14176   */\n      0x04\n        /* \"#utility.yul\":14168:14183   */\n      mstore\n        /* \"#utility.yul\":14202:14206   */\n      0x24\n        /* \"#utility.yul\":14199:14200   */\n      0x00\n        /* \"#utility.yul\":14192:14207   */\n      revert\n        /* \"#utility.yul\":14219:14413   */\n    tag_271:\n        /* \"#utility.yul\":14259:14263   */\n      0x00\n        /* \"#utility.yul\":14279:14299   */\n      tag_500\n        /* \"#utility.yul\":14297:14298   */\n      dup3\n        /* \"#utility.yul\":14279:14299   */\n      tag_313\n      jump\t// in\n    tag_500:\n        /* \"#utility.yul\":14274:14299   */\n      swap2\n      pop\n        /* \"#utility.yul\":14313:14333   */\n      tag_501\n        /* \"#utility.yul\":14331:14332   */\n      dup4\n        /* \"#utility.yul\":14313:14333   */\n      tag_313\n      jump\t// in\n    tag_501:\n        /* \"#utility.yul\":14308:14333   */\n      swap3\n      pop\n        /* \"#utility.yul\":14357:14358   */\n      dup3\n        /* \"#utility.yul\":14354:14355   */\n      dup3\n        /* \"#utility.yul\":14350:14359   */\n      sub\n        /* \"#utility.yul\":14342:14359   */\n      swap1\n      pop\n        /* \"#utility.yul\":14381:14382   */\n      dup2\n        /* \"#utility.yul\":14375:14379   */\n      dup2\n        /* \"#utility.yul\":14372:14383   */\n      gt\n        /* \"#utility.yul\":14369:14406   */\n      iszero\n      tag_502\n      jumpi\n        /* \"#utility.yul\":14386:14404   */\n      tag_503\n      tag_347\n      jump\t// in\n    tag_503:\n        /* \"#utility.yul\":14369:14406   */\n    tag_502:\n        /* \"#utility.yul\":14219:14413   */\n      swap3\n      swap2\n      pop\n      pop\n      jump\t// out\n        /* \"#utility.yul\":14419:14599   */\n    tag_282:\n        /* \"#utility.yul\":14467:14544   */\n      0x4e487b7100000000000000000000000000000000000000000000000000000000\n        /* \"#utility.yul\":14464:14465   */\n      0x00\n        /* \"#utility.yul\":14457:14545   */\n      mstore\n        /* \"#utility.yul\":14564:14568   */\n      0x31\n        /* \"#utility.yul\":14561:14562   */\n      0x04\n        /* \"#utility.yul\":14554:14569   */\n      mstore\n        /* \"#utility.yul\":14588:14592   */\n      0x24\n        /* \"#utility.yul\":14585:14586   */\n      0x00\n        /* \"#utility.yul\":14578:14593   */\n      revert\n        /* \"#utility.yul\":14605:14703   */\n    tag_348:\n        /* \"#utility.yul\":14656:14662   */\n      0x00\n        /* \"#utility.yul\":14690:14695   */\n      dup2\n        /* \"#utility.yul\":14684:14696   */\n      mload\n        /* \"#utility.yul\":14674:14696   */\n      swap1\n      pop\n        /* \"#utility.yul\":14605:14703   */\n      swap2\n      swap1\n      pop\n      jump\t// out\n        /* \"#utility.yul\":14709:14856   */\n    tag_349:\n        /* \"#utility.yul\":14810:14821   */\n      0x00\n        /* \"#utility.yul\":14847:14850   */\n      dup2\n        /* \"#utility.yul\":14832:14850   */\n      swap1\n      pop\n        /* \"#utility.yul\":14709:14856   */\n      swap3\n      swap2\n      pop\n      pop\n      jump\t// out\n        /* \"#utility.yul\":14862:15108   */\n    tag_350:\n        /* \"#utility.yul\":14943:14944   */\n      0x00\n        /* \"#utility.yul\":14953:15066   */\n    tag_508:\n        /* \"#utility.yul\":14967:14973   */\n      dup4\n        /* \"#utility.yul\":14964:14965   */\n      dup2\n        /* \"#utility.yul\":14961:14974   */\n      lt\n        /* \"#utility.yul\":14953:15066   */\n      iszero\n      tag_510\n      jumpi\n        /* \"#utility.yul\":15052:15053   */\n      dup1\n        /* \"#utility.yul\":15047:15050   */\n      dup3\n        /* \"#utility.yul\":15043:15054   */\n      add\n        /* \"#utility.yul\":15037:15055   */\n      mload\n        /* \"#utility.yul\":15033:15034   */\n      dup2\n        /* \"#utility.yul\":15028:15031   */\n      dup5\n        /* \"#utility.yul\":15024:15035   */\n      add\n        /* \"#utility.yul\":15017:15056   */\n      mstore\n        /* \"#utility.yul\":14989:14991   */\n      0x20\n        /* \"#utility.yul\":14986:14987   */\n      dup2\n        /* \"#utility.yul\":14982:14992   */\n      add\n        /* \"#utility.yul\":14977:14992   */\n      swap1\n      pop\n        /* \"#utility.yul\":14953:15066   */\n      jump(tag_508)\n    tag_510:\n        /* \"#utility.yul\":15100:15101   */\n      0x00\n        /* \"#utility.yul\":15091:15097   */\n      dup5\n        /* \"#utility.yul\":15086:15089   */\n      dup5\n        /* \"#utility.yul\":15082:15098   */\n      add\n        /* \"#utility.yul\":15075:15102   */\n      mstore\n        /* \"#utility.yul\":14924:15108   */\n      pop\n        /* \"#utility.yul\":14862:15108   */\n      pop\n      pop\n      pop\n      jump\t// out\n        /* \"#utility.yul\":15114:15500   */\n    tag_351:\n        /* \"#utility.yul\":15218:15221   */\n      0x00\n        /* \"#utility.yul\":15246:15284   */\n      tag_512\n        /* \"#utility.yul\":15278:15283   */\n      dup3\n        /* \"#utility.yul\":15246:15284   */\n      tag_348\n      jump\t// in\n    tag_512:\n        /* \"#utility.yul\":15300:15388   */\n      tag_513\n        /* \"#utility.yul\":15381:15387   */\n      dup2\n        /* \"#utility.yul\":15376:15379   */\n      dup6\n        /* \"#utility.yul\":15300:15388   */\n      tag_349\n      jump\t// in\n    tag_513:\n        /* \"#utility.yul\":15293:15388   */\n      swap4\n      pop\n        /* \"#utility.yul\":15397:15462   */\n      tag_514\n        /* \"#utility.yul\":15455:15461   */\n      dup2\n        /* \"#utility.yul\":15450:15453   */\n      dup6\n        /* \"#utility.yul\":15443:15447   */\n      0x20\n        /* \"#utility.yul\":15436:15441   */\n      dup7\n        /* \"#utility.yul\":15432:15448   */\n      add\n        /* \"#utility.yul\":15397:15462   */\n      tag_350\n      jump\t// in\n    tag_514:\n        /* \"#utility.yul\":15487:15493   */\n      dup1\n        /* \"#utility.yul\":15482:15485   */\n      dup5\n        /* \"#utility.yul\":15478:15494   */\n      add\n        /* \"#utility.yul\":15471:15494   */\n      swap2\n      pop\n        /* \"#utility.yul\":15222:15500   */\n      pop\n        /* \"#utility.yul\":15114:15500   */\n      swap3\n      swap2\n      pop\n      pop\n      jump\t// out\n        /* \"#utility.yul\":15506:15777   */\n    tag_293:\n        /* \"#utility.yul\":15636:15639   */\n      0x00\n        /* \"#utility.yul\":15658:15751   */\n      tag_516\n        /* \"#utility.yul\":15747:15750   */\n      dup3\n        /* \"#utility.yul\":15738:15744   */\n      dup5\n        /* \"#utility.yul\":15658:15751   */\n      tag_351\n      jump\t// in\n    tag_516:\n        /* \"#utility.yul\":15651:15751   */\n      swap2\n      pop\n        /* \"#utility.yul\":15768:15771   */\n      dup2\n        /* \"#utility.yul\":15761:15771   */\n      swap1\n      pop\n        /* \"#utility.yul\":15506:15777   */\n      swap3\n      swap2\n      pop\n      pop\n      jump\t// out\n\n    auxdata: 0xa2646970667358221220676d310b994d1572d2e4ef04655d722d4ef7c70f0921278ac73308c10ae9f3f764736f6c63430008140033\n}\n",
				"bytecode": {
					"linkReferences": {},
					"object": "608060405234801562000010575f80fd5b506040516200210f3803806200210f833981810160405281019062000036919062000478565b805f73ffffffffffffffffffffffffffffffffffffffff168173ffffffffffffffffffffffffffffffffffffffff1603620000aa575f6040517f1e4fbdf7000000000000000000000000000000000000000000000000000000008152600401620000a19190620004b9565b60405180910390fd5b620000bb81620000d860201b60201c565b50620000d05f801b826200019960201b60201c565b5050620004d4565b5f805f9054906101000a900473ffffffffffffffffffffffffffffffffffffffff169050815f806101000a81548173ffffffffffffffffffffffffffffffffffffffff021916908373ffffffffffffffffffffffffffffffffffffffff1602179055508173ffffffffffffffffffffffffffffffffffffffff168173ffffffffffffffffffffffffffffffffffffffff167f8be0079c531659141344cd1fd0a4f28419497f9722a3daafe3b4186f6b6457e060405160405180910390a35050565b5f80620001ad8484620001e760201b60201c565b90508015620001dd57620001db8360025f8781526020019081526020015f20620002e260201b90919060201c565b505b8091505092915050565b5f620001fa83836200031760201b60201c565b620002d8576001805f8581526020019081526020015f205f015f8473ffffffffffffffffffffffffffffffffffffffff1673ffffffffffffffffffffffffffffffffffffffff1681526020019081526020015f205f6101000a81548160ff021916908315150217905550620002746200037b60201b60201c565b73ffffffffffffffffffffffffffffffffffffffff168273ffffffffffffffffffffffffffffffffffffffff16847f2f8788117e7eff1d82e926ec794901d17c78024a50270940304540a733656f0d60405160405180910390a460019050620002dc565b5f90505b92915050565b5f6200030f835f018373ffffffffffffffffffffffffffffffffffffffff165f1b6200038260201b60201c565b905092915050565b5f60015f8481526020019081526020015f205f015f8373ffffffffffffffffffffffffffffffffffffffff1673ffffffffffffffffffffffffffffffffffffffff1681526020019081526020015f205f9054906101000a900460ff16905092915050565b5f33905090565b5f620003958383620003f360201b60201c565b620003e957825f0182908060018154018082558091505060019003905f5260205f20015f9091909190915055825f0180549050836001015f8481526020019081526020015f208190555060019050620003ed565b5f90505b92915050565b5f80836001015f8481526020019081526020015f20541415905092915050565b5f80fd5b5f73ffffffffffffffffffffffffffffffffffffffff82169050919050565b5f620004428262000417565b9050919050565b620004548162000436565b81146200045f575f80fd5b50565b5f81519050620004728162000449565b92915050565b5f6020828403121562000490576200048f62000413565b5b5f6200049f8482850162000462565b91505092915050565b620004b38162000436565b82525050565b5f602082019050620004ce5f830184620004a8565b92915050565b611c2d80620004e25f395ff3fe608060405234801561000f575f80fd5b5060043610610129575f3560e01c80639010d07c116100ab578063ca15c8731161006f578063ca15c87314610317578063d547741f14610347578063df74e02814610363578063f2fde38b1461037f578063f516440c1461039b57610129565b80639010d07c1461025f57806391d148541461028f578063a217fddf146102bf578063b5b68afe146102dd578063b6b55f25146102fb57610129565b806336568abe116100f257806336568abe146101e1578063715018a6146101fd578063827a560b1461020757806385f438c1146102235780638da5cb5b1461024157610129565b8062f714ce1461012d57806301ffc9a714610149578063144fa6d714610179578063248a9ca3146101955780632f2ff15d146101c5575b5f80fd5b610147600480360381019061014291906114b6565b6103b9565b005b610163600480360381019061015e9190611549565b6105a1565b604051610170919061158e565b60405180910390f35b610193600480360381019061018e91906115e2565b61061a565b005b6101af60048036038101906101aa9190611640565b610665565b6040516101bc919061167a565b60405180910390f35b6101df60048036038101906101da9190611693565b610682565b005b6101fb60048036038101906101f69190611693565b6106a4565b005b61020561071f565b005b610221600480360381019061021c91906116fb565b610732565b005b61022b610756565b604051610238919061167a565b60405180910390f35b61024961077a565b6040516102569190611735565b60405180910390f35b6102796004803603810190610274919061174e565b6107a1565b6040516102869190611735565b60405180910390f35b6102a960048036038101906102a49190611693565b6107cd565b6040516102b6919061158e565b60405180910390f35b6102c7610831565b6040516102d4919061167a565b60405180910390f35b6102e5610837565b6040516102f2919061158e565b60405180910390f35b6103156004803603810190610310919061178c565b610849565b005b610331600480360381019061032c9190611640565b610954565b60405161033e91906117c6565b60405180910390f35b610361600480360381019061035c9190611693565b610975565b005b61037d6004803603810190610378919061178c565b610997565b005b610399600480360381019061039491906117df565b6109a9565b005b6103a3610a2d565b6040516103b091906117c6565b60405180910390f35b6103c1610a33565b73ffffffffffffffffffffffffffffffffffffffff166103df61077a565b73ffffffffffffffffffffffffffffffffffffffff16148061042e575061042d7f10dac8c06a04bec0b551627dad28bc00d6516b0caacd1c7b345fcdb5211334e4610428610a33565b6107cd565b5b61046d576040517f08c379a000000000000000000000000000000000000000000000000000000000815260040161046490611864565b60405180910390fd5b60055f9054906101000a900460ff166104bb576040517f08c379a00000000000000000000000000000000000000000000000000000000081526004016104b2906118cc565b60405180910390fd5b600454821115610500576040517f08c379a00000000000000000000000000000000000000000000000000000000081526004016104f790611934565b60405180910390fd5b60035f9054906101000a900473ffffffffffffffffffffffffffffffffffffffff1673ffffffffffffffffffffffffffffffffffffffff1663a9059cbb82846040518363ffffffff1660e01b815260040161055c929190611952565b6020604051808303815f875af1158015610578573d5f803e3d5ffd5b505050506040513d601f19601f8201168201806040525081019061059c919061198d565b505050565b5f7f5a05180f000000000000000000000000000000000000000000000000000000007bffffffffffffffffffffffffffffffffffffffffffffffffffffffff1916827bffffffffffffffffffffffffffffffffffffffffffffffffffffffff19161480610613575061061282610a3a565b5b9050919050565b610622610ab3565b8060035f6101000a81548173ffffffffffffffffffffffffffffffffffffffff021916908373ffffffffffffffffffffffffffffffffffffffff16021790555050565b5f60015f8381526020019081526020015f20600101549050919050565b61068b82610665565b61069481610b3a565b61069e8383610b4e565b50505050565b6106ac610a33565b73ffffffffffffffffffffffffffffffffffffffff168173ffffffffffffffffffffffffffffffffffffffff1614610710576040517f6697b23200000000000000000000000000000000000000000000000000000000815260040160405180910390fd5b61071a8282610b91565b505050565b610727610ab3565b6107305f610bd4565b565b61073a610ab3565b8060055f6101000a81548160ff02191690831515021790555050565b7f10dac8c06a04bec0b551627dad28bc00d6516b0caacd1c7b345fcdb5211334e481565b5f805f9054906101000a900473ffffffffffffffffffffffffffffffffffffffff16905090565b5f6107c58260025f8681526020019081526020015f20610c9590919063ffffffff16565b905092915050565b5f60015f8481526020019081526020015f205f015f8373ffffffffffffffffffffffffffffffffffffffff1673ffffffffffffffffffffffffffffffffffffffff1681526020019081526020015f205f9054906101000a900460ff16905092915050565b5f801b81565b60055f9054906101000a900460ff1681565b8060035f9054906101000a900473ffffffffffffffffffffffffffffffffffffffff1673ffffffffffffffffffffffffffffffffffffffff166370a08231336040518263ffffffff1660e01b81526004016108a49190611735565b602060405180830381865afa1580156108bf573d5f803e3d5ffd5b505050506040513d601f19601f820116820180604052508101906108e391906119cc565b1015610924576040517f08c379a000000000000000000000000000000000000000000000000000000000815260040161091b90611a41565b60405180910390fd5b61095160035f9054906101000a900473ffffffffffffffffffffffffffffffffffffffff16333084610cac565b50565b5f61096e60025f8481526020019081526020015f20610d2e565b9050919050565b61097e82610665565b61098781610b3a565b6109918383610b91565b50505050565b61099f610ab3565b8060048190555050565b6109b1610ab3565b5f73ffffffffffffffffffffffffffffffffffffffff168173ffffffffffffffffffffffffffffffffffffffff1603610a21575f6040517f1e4fbdf7000000000000000000000000000000000000000000000000000000008152600401610a189190611735565b60405180910390fd5b610a2a81610bd4565b50565b60045481565b5f33905090565b5f7f7965db0b000000000000000000000000000000000000000000000000000000007bffffffffffffffffffffffffffffffffffffffffffffffffffffffff1916827bffffffffffffffffffffffffffffffffffffffffffffffffffffffff19161480610aac5750610aab82610d41565b5b9050919050565b610abb610a33565b73ffffffffffffffffffffffffffffffffffffffff16610ad961077a565b73ffffffffffffffffffffffffffffffffffffffff1614610b3857610afc610a33565b6040517f118cdaa7000000000000000000000000000000000000000000000000000000008152600401610b2f9190611735565b60405180910390fd5b565b610b4b81610b46610a33565b610daa565b50565b5f80610b5a8484610dfb565b90508015610b8757610b858360025f8781526020019081526020015f20610ee490919063ffffffff16565b505b8091505092915050565b5f80610b9d8484610f11565b90508015610bca57610bc88360025f8781526020019081526020015f20610ffb90919063ffffffff16565b505b8091505092915050565b5f805f9054906101000a900473ffffffffffffffffffffffffffffffffffffffff169050815f806101000a81548173ffffffffffffffffffffffffffffffffffffffff021916908373ffffffffffffffffffffffffffffffffffffffff1602179055508173ffffffffffffffffffffffffffffffffffffffff168173ffffffffffffffffffffffffffffffffffffffff167f8be0079c531659141344cd1fd0a4f28419497f9722a3daafe3b4186f6b6457e060405160405180910390a35050565b5f610ca2835f0183611028565b5f1c905092915050565b610d28848573ffffffffffffffffffffffffffffffffffffffff166323b872dd868686604051602401610ce193929190611a5f565b604051602081830303815290604052915060e01b6020820180517bffffffffffffffffffffffffffffffffffffffffffffffffffffffff838183161783525050505061104f565b50505050565b5f610d3a825f016110e4565b9050919050565b5f7f01ffc9a7000000000000000000000000000000000000000000000000000000007bffffffffffffffffffffffffffffffffffffffffffffffffffffffff1916827bffffffffffffffffffffffffffffffffffffffffffffffffffffffff1916149050919050565b610db482826107cd565b610df75780826040517fe2517d3f000000000000000000000000000000000000000000000000000000008152600401610dee929190611a94565b60405180910390fd5b5050565b5f610e0683836107cd565b610eda576001805f8581526020019081526020015f205f015f8473ffffffffffffffffffffffffffffffffffffffff1673ffffffffffffffffffffffffffffffffffffffff1681526020019081526020015f205f6101000a81548160ff021916908315150217905550610e77610a33565b73ffffffffffffffffffffffffffffffffffffffff168273ffffffffffffffffffffffffffffffffffffffff16847f2f8788117e7eff1d82e926ec794901d17c78024a50270940304540a733656f0d60405160405180910390a460019050610ede565b5f90505b92915050565b5f610f09835f018373ffffffffffffffffffffffffffffffffffffffff165f1b6110f3565b905092915050565b5f610f1c83836107cd565b15610ff1575f60015f8581526020019081526020015f205f015f8473ffffffffffffffffffffffffffffffffffffffff1673ffffffffffffffffffffffffffffffffffffffff1681526020019081526020015f205f6101000a81548160ff021916908315150217905550610f8e610a33565b73ffffffffffffffffffffffffffffffffffffffff168273ffffffffffffffffffffffffffffffffffffffff16847ff6391f5c32d9c69d2a47ea670b442974b53935d1edc7fd64eb21e047a839171b60405160405180910390a460019050610ff5565b5f90505b92915050565b5f611020835f018373ffffffffffffffffffffffffffffffffffffffff165f1b61115a565b905092915050565b5f825f01828154811061103e5761103d611abb565b5b905f5260205f200154905092915050565b5f611079828473ffffffffffffffffffffffffffffffffffffffff1661125690919063ffffffff16565b90505f81511415801561109d57508080602001905181019061109b919061198d565b155b156110df57826040517f5274afe70000000000000000000000000000000000000000000000000000000081526004016110d69190611735565b60405180910390fd5b505050565b5f815f01805490509050919050565b5f6110fe838361126b565b61115057825f0182908060018154018082558091505060019003905f5260205f20015f9091909190915055825f0180549050836001015f8481526020019081526020015f208190555060019050611154565b5f90505b92915050565b5f80836001015f8481526020019081526020015f205490505f811461124b575f6001826111879190611b15565b90505f6001865f018054905061119d9190611b15565b9050808214611203575f865f0182815481106111bc576111bb611abb565b5b905f5260205f200154905080875f0184815481106111dd576111dc611abb565b5b905f5260205f20018190555083876001015f8381526020019081526020015f2081905550505b855f0180548061121657611215611b48565b5b600190038181905f5260205f20015f90559055856001015f8681526020019081526020015f205f905560019350505050611250565b5f9150505b92915050565b606061126383835f61128b565b905092915050565b5f80836001015f8481526020019081526020015f20541415905092915050565b6060814710156112d257306040517fcd7860590000000000000000000000000000000000000000000000000000000081526004016112c99190611735565b60405180910390fd5b5f808573ffffffffffffffffffffffffffffffffffffffff1684866040516112fa9190611be1565b5f6040518083038185875af1925050503d805f8114611334576040519150601f19603f3d011682016040523d82523d5f602084013e611339565b606091505b5091509150611349868383611354565b925050509392505050565b60608261136957611364826113e1565b6113d9565b5f825114801561138f57505f8473ffffffffffffffffffffffffffffffffffffffff163b145b156113d157836040517f9996b3150000000000000000000000000000000000000000000000000000000081526004016113c89190611735565b60405180910390fd5b8190506113da565b5b9392505050565b5f815111156113f35780518082602001fd5b6040517f1425ea4200000000000000000000000000000000000000000000000000000000815260040160405180910390fd5b5f80fd5b5f819050919050565b61143b81611429565b8114611445575f80fd5b50565b5f8135905061145681611432565b92915050565b5f73ffffffffffffffffffffffffffffffffffffffff82169050919050565b5f6114858261145c565b9050919050565b6114958161147b565b811461149f575f80fd5b50565b5f813590506114b08161148c565b92915050565b5f80604083850312156114cc576114cb611425565b5b5f6114d985828601611448565b92505060206114ea858286016114a2565b9150509250929050565b5f7fffffffff0000000000000000000000000000000000000000000000000000000082169050919050565b611528816114f4565b8114611532575f80fd5b50565b5f813590506115438161151f565b92915050565b5f6020828403121561155e5761155d611425565b5b5f61156b84828501611535565b91505092915050565b5f8115159050919050565b61158881611574565b82525050565b5f6020820190506115a15f83018461157f565b92915050565b5f6115b18261147b565b9050919050565b6115c1816115a7565b81146115cb575f80fd5b50565b5f813590506115dc816115b8565b92915050565b5f602082840312156115f7576115f6611425565b5b5f611604848285016115ce565b91505092915050565b5f819050919050565b61161f8161160d565b8114611629575f80fd5b50565b5f8135905061163a81611616565b92915050565b5f6020828403121561165557611654611425565b5b5f6116628482850161162c565b91505092915050565b6116748161160d565b82525050565b5f60208201905061168d5f83018461166b565b92915050565b5f80604083850312156116a9576116a8611425565b5b5f6116b68582860161162c565b92505060206116c7858286016114a2565b9150509250929050565b6116da81611574565b81146116e4575f80fd5b50565b5f813590506116f5816116d1565b92915050565b5f602082840312156117105761170f611425565b5b5f61171d848285016116e7565b91505092915050565b61172f8161147b565b82525050565b5f6020820190506117485f830184611726565b92915050565b5f806040838503121561176457611763611425565b5b5f6117718582860161162c565b925050602061178285828601611448565b9150509250929050565b5f602082840312156117a1576117a0611425565b5b5f6117ae84828501611448565b91505092915050565b6117c081611429565b82525050565b5f6020820190506117d95f8301846117b7565b92915050565b5f602082840312156117f4576117f3611425565b5b5f611801848285016114a2565b91505092915050565b5f82825260208201905092915050565b7f43616c6c6572206973206e6f74206120776974686472617765720000000000005f82015250565b5f61184e601a8361180a565b91506118598261181a565b602082019050919050565b5f6020820190508181035f83015261187b81611842565b9050919050565b7f5769746864726177206973206e6f7420617661696c61626c65000000000000005f82015250565b5f6118b660198361180a565b91506118c182611882565b602082019050919050565b5f6020820190508181035f8301526118e3816118aa565b9050919050565b7f457863656564206d6178696d756d20616d6f756e7400000000000000000000005f82015250565b5f61191e60158361180a565b9150611929826118ea565b602082019050919050565b5f6020820190508181035f83015261194b81611912565b9050919050565b5f6040820190506119655f830185611726565b61197260208301846117b7565b9392505050565b5f81519050611987816116d1565b92915050565b5f602082840312156119a2576119a1611425565b5b5f6119af84828501611979565b91505092915050565b5f815190506119c681611432565b92915050565b5f602082840312156119e1576119e0611425565b5b5f6119ee848285016119b8565b91505092915050565b7f496e73756666696369656e74206163636f756e742062616c616e6365000000005f82015250565b5f611a2b601c8361180a565b9150611a36826119f7565b602082019050919050565b5f6020820190508181035f830152611a5881611a1f565b9050919050565b5f606082019050611a725f830186611726565b611a7f6020830185611726565b611a8c60408301846117b7565b949350505050565b5f604082019050611aa75f830185611726565b611ab4602083018461166b565b9392505050565b7f4e487b71000000000000000000000000000000000000000000000000000000005f52603260045260245ffd5b7f4e487b71000000000000000000000000000000000000000000000000000000005f52601160045260245ffd5b5f611b1f82611429565b9150611b2a83611429565b9250828203905081811115611b4257611b41611ae8565b5b92915050565b7f4e487b71000000000000000000000000000000000000000000000000000000005f52603160045260245ffd5b5f81519050919050565b5f81905092915050565b5f5b83811015611ba6578082015181840152602081019050611b8b565b5f8484015250505050565b5f611bbb82611b75565b611bc58185611b7f565b9350611bd5818560208601611b89565b80840191505092915050565b5f611bec8284611bb1565b91508190509291505056fea2646970667358221220676d310b994d1572d2e4ef04655d722d4ef7c70f0921278ac73308c10ae9f3f764736f6c63430008140033",
					"opcodes": "PUSH1 0x80 PUSH1 0x40 MSTORE CALLVALUE DUP1 ISZERO PUSH3 0x10 JUMPI PUSH0 DUP1 REVERT JUMPDEST POP PUSH1 0x40 MLOAD PUSH3 0x210F CODESIZE SUB DUP1 PUSH3 0x210F DUP4 CODECOPY DUP2 DUP2 ADD PUSH1 0x40 MSTORE DUP2 ADD SWAP1 PUSH3 0x36 SWAP2 SWAP1 PUSH3 0x478 JUMP JUMPDEST DUP1 PUSH0 PUSH20 0xFFFFFFFFFFFFFFFFFFFFFFFFFFFFFFFFFFFFFFFF AND DUP2 PUSH20 0xFFFFFFFFFFFFFFFFFFFFFFFFFFFFFFFFFFFFFFFF AND SUB PUSH3 0xAA JUMPI PUSH0 PUSH1 0x40 MLOAD PUSH32 0x1E4FBDF700000000000000000000000000000000000000000000000000000000 DUP2 MSTORE PUSH1 0x4 ADD PUSH3 0xA1 SWAP2 SWAP1 PUSH3 0x4B9 JUMP JUMPDEST PUSH1 0x40 MLOAD DUP1 SWAP2 SUB SWAP1 REVERT JUMPDEST PUSH3 0xBB DUP2 PUSH3 0xD8 PUSH1 0x20 SHL PUSH1 0x20 SHR JUMP JUMPDEST POP PUSH3 0xD0 PUSH0 DUP1 SHL DUP3 PUSH3 0x199 PUSH1 0x20 SHL PUSH1 0x20 SHR JUMP JUMPDEST POP POP PUSH3 0x4D4 JUMP JUMPDEST PUSH0 DUP1 PUSH0 SWAP1 SLOAD SWAP1 PUSH2 0x100 EXP SWAP1 DIV PUSH20 0xFFFFFFFFFFFFFFFFFFFFFFFFFFFFFFFFFFFFFFFF AND SWAP1 POP DUP2 PUSH0 DUP1 PUSH2 0x100 EXP DUP2 SLOAD DUP2 PUSH20 0xFFFFFFFFFFFFFFFFFFFFFFFFFFFFFFFFFFFFFFFF MUL NOT AND SWAP1 DUP4 PUSH20 0xFFFFFFFFFFFFFFFFFFFFFFFFFFFFFFFFFFFFFFFF AND MUL OR SWAP1 SSTORE POP DUP2 PUSH20 0xFFFFFFFFFFFFFFFFFFFFFFFFFFFFFFFFFFFFFFFF AND DUP2 PUSH20 0xFFFFFFFFFFFFFFFFFFFFFFFFFFFFFFFFFFFFFFFF AND PUSH32 0x8BE0079C531659141344CD1FD0A4F28419497F9722A3DAAFE3B4186F6B6457E0 PUSH1 0x40 MLOAD PUSH1 0x40 MLOAD DUP1 SWAP2 SUB SWAP1 LOG3 POP POP JUMP JUMPDEST PUSH0 DUP1 PUSH3 0x1AD DUP5 DUP5 PUSH3 0x1E7 PUSH1 0x20 SHL PUSH1 0x20 SHR JUMP JUMPDEST SWAP1 POP DUP1 ISZERO PUSH3 0x1DD JUMPI PUSH3 0x1DB DUP4 PUSH1 0x2 PUSH0 DUP8 DUP2 MSTORE PUSH1 0x20 ADD SWAP1 DUP2 MSTORE PUSH1 0x20 ADD PUSH0 KECCAK256 PUSH3 0x2E2 PUSH1 0x20 SHL SWAP1 SWAP2 SWAP1 PUSH1 0x20 SHR JUMP JUMPDEST POP JUMPDEST DUP1 SWAP2 POP POP SWAP3 SWAP2 POP POP JUMP JUMPDEST PUSH0 PUSH3 0x1FA DUP4 DUP4 PUSH3 0x317 PUSH1 0x20 SHL PUSH1 0x20 SHR JUMP JUMPDEST PUSH3 0x2D8 JUMPI PUSH1 0x1 DUP1 PUSH0 DUP6 DUP2 MSTORE PUSH1 0x20 ADD SWAP1 DUP2 MSTORE PUSH1 0x20 ADD PUSH0 KECCAK256 PUSH0 ADD PUSH0 DUP5 PUSH20 0xFFFFFFFFFFFFFFFFFFFFFFFFFFFFFFFFFFFFFFFF AND PUSH20 0xFFFFFFFFFFFFFFFFFFFFFFFFFFFFFFFFFFFFFFFF AND DUP2 MSTORE PUSH1 0x20 ADD SWAP1 DUP2 MSTORE PUSH1 0x20 ADD PUSH0 KECCAK256 PUSH0 PUSH2 0x100 EXP DUP2 SLOAD DUP2 PUSH1 0xFF MUL NOT AND SWAP1 DUP4 ISZERO ISZERO MUL OR SWAP1 SSTORE POP PUSH3 0x274 PUSH3 0x37B PUSH1 0x20 SHL PUSH1 0x20 SHR JUMP JUMPDEST PUSH20 0xFFFFFFFFFFFFFFFFFFFFFFFFFFFFFFFFFFFFFFFF AND DUP3 PUSH20 0xFFFFFFFFFFFFFFFFFFFFFFFFFFFFFFFFFFFFFFFF AND DUP5 PUSH32 0x2F8788117E7EFF1D82E926EC794901D17C78024A50270940304540A733656F0D PUSH1 0x40 MLOAD PUSH1 0x40 MLOAD DUP1 SWAP2 SUB SWAP1 LOG4 PUSH1 0x1 SWAP1 POP PUSH3 0x2DC JUMP JUMPDEST PUSH0 SWAP1 POP JUMPDEST SWAP3 SWAP2 POP POP JUMP JUMPDEST PUSH0 PUSH3 0x30F DUP4 PUSH0 ADD DUP4 PUSH20 0xFFFFFFFFFFFFFFFFFFFFFFFFFFFFFFFFFFFFFFFF AND PUSH0 SHL PUSH3 0x382 PUSH1 0x20 SHL PUSH1 0x20 SHR JUMP JUMPDEST SWAP1 POP SWAP3 SWAP2 POP POP JUMP JUMPDEST PUSH0 PUSH1 0x1 PUSH0 DUP5 DUP2 MSTORE PUSH1 0x20 ADD SWAP1 DUP2 MSTORE PUSH1 0x20 ADD PUSH0 KECCAK256 PUSH0 ADD PUSH0 DUP4 PUSH20 0xFFFFFFFFFFFFFFFFFFFFFFFFFFFFFFFFFFFFFFFF AND PUSH20 0xFFFFFFFFFFFFFFFFFFFFFFFFFFFFFFFFFFFFFFFF AND DUP2 MSTORE PUSH1 0x20 ADD SWAP1 DUP2 MSTORE PUSH1 0x20 ADD PUSH0 KECCAK256 PUSH0 SWAP1 SLOAD SWAP1 PUSH2 0x100 EXP SWAP1 DIV PUSH1 0xFF AND SWAP1 POP SWAP3 SWAP2 POP POP JUMP JUMPDEST PUSH0 CALLER SWAP1 POP SWAP1 JUMP JUMPDEST PUSH0 PUSH3 0x395 DUP4 DUP4 PUSH3 0x3F3 PUSH1 0x20 SHL PUSH1 0x20 SHR JUMP JUMPDEST PUSH3 0x3E9 JUMPI DUP3 PUSH0 ADD DUP3 SWAP1 DUP1 PUSH1 0x1 DUP2 SLOAD ADD DUP1 DUP3 SSTORE DUP1 SWAP2 POP POP PUSH1 0x1 SWAP1 SUB SWAP1 PUSH0 MSTORE PUSH1 0x20 PUSH0 KECCAK256 ADD PUSH0 SWAP1 SWAP2 SWAP1 SWAP2 SWAP1 SWAP2 POP SSTORE DUP3 PUSH0 ADD DUP1 SLOAD SWAP1 POP DUP4 PUSH1 0x1 ADD PUSH0 DUP5 DUP2 MSTORE PUSH1 0x20 ADD SWAP1 DUP2 MSTORE PUSH1 0x20 ADD PUSH0 KECCAK256 DUP2 SWAP1 SSTORE POP PUSH1 0x1 SWAP1 POP PUSH3 0x3ED JUMP JUMPDEST PUSH0 SWAP1 POP JUMPDEST SWAP3 SWAP2 POP POP JUMP JUMPDEST PUSH0 DUP1 DUP4 PUSH1 0x1 ADD PUSH0 DUP5 DUP2 MSTORE PUSH1 0x20 ADD SWAP1 DUP2 MSTORE PUSH1 0x20 ADD PUSH0 KECCAK256 SLOAD EQ ISZERO SWAP1 POP SWAP3 SWAP2 POP POP JUMP JUMPDEST PUSH0 DUP1 REVERT JUMPDEST PUSH0 PUSH20 0xFFFFFFFFFFFFFFFFFFFFFFFFFFFFFFFFFFFFFFFF DUP3 AND SWAP1 POP SWAP2 SWAP1 POP JUMP JUMPDEST PUSH0 PUSH3 0x442 DUP3 PUSH3 0x417 JUMP JUMPDEST SWAP1 POP SWAP2 SWAP1 POP JUMP JUMPDEST PUSH3 0x454 DUP2 PUSH3 0x436 JUMP JUMPDEST DUP2 EQ PUSH3 0x45F JUMPI PUSH0 DUP1 REVERT JUMPDEST POP JUMP JUMPDEST PUSH0 DUP2 MLOAD SWAP1 POP PUSH3 0x472 DUP2 PUSH3 0x449 JUMP JUMPDEST SWAP3 SWAP2 POP POP JUMP JUMPDEST PUSH0 PUSH1 0x20 DUP3 DUP5 SUB SLT ISZERO PUSH3 0x490 JUMPI PUSH3 0x48F PUSH3 0x413 JUMP JUMPDEST JUMPDEST PUSH0 PUSH3 0x49F DUP5 DUP3 DUP6 ADD PUSH3 0x462 JUMP JUMPDEST SWAP2 POP POP SWAP3 SWAP2 POP POP JUMP JUMPDEST PUSH3 0x4B3 DUP2 PUSH3 0x436 JUMP JUMPDEST DUP3 MSTORE POP POP JUMP JUMPDEST PUSH0 PUSH1 0x20 DUP3 ADD SWAP1 POP PUSH3 0x4CE PUSH0 DUP4 ADD DUP5 PUSH3 0x4A8 JUMP JUMPDEST SWAP3 SWAP2 POP POP JUMP JUMPDEST PUSH2 0x1C2D DUP1 PUSH3 0x4E2 PUSH0 CODECOPY PUSH0 RETURN INVALID PUSH1 0x80 PUSH1 0x40 MSTORE CALLVALUE DUP1 ISZERO PUSH2 0xF JUMPI PUSH0 DUP1 REVERT JUMPDEST POP PUSH1 0x4 CALLDATASIZE LT PUSH2 0x129 JUMPI PUSH0 CALLDATALOAD PUSH1 0xE0 SHR DUP1 PUSH4 0x9010D07C GT PUSH2 0xAB JUMPI DUP1 PUSH4 0xCA15C873 GT PUSH2 0x6F JUMPI DUP1 PUSH4 0xCA15C873 EQ PUSH2 0x317 JUMPI DUP1 PUSH4 0xD547741F EQ PUSH2 0x347 JUMPI DUP1 PUSH4 0xDF74E028 EQ PUSH2 0x363 JUMPI DUP1 PUSH4 0xF2FDE38B EQ PUSH2 0x37F JUMPI DUP1 PUSH4 0xF516440C EQ PUSH2 0x39B JUMPI PUSH2 0x129 JUMP JUMPDEST DUP1 PUSH4 0x9010D07C EQ PUSH2 0x25F JUMPI DUP1 PUSH4 0x91D14854 EQ PUSH2 0x28F JUMPI DUP1 PUSH4 0xA217FDDF EQ PUSH2 0x2BF JUMPI DUP1 PUSH4 0xB5B68AFE EQ PUSH2 0x2DD JUMPI DUP1 PUSH4 0xB6B55F25 EQ PUSH2 0x2FB JUMPI PUSH2 0x129 JUMP JUMPDEST DUP1 PUSH4 0x36568ABE GT PUSH2 0xF2 JUMPI DUP1 PUSH4 0x36568ABE EQ PUSH2 0x1E1 JUMPI DUP1 PUSH4 0x715018A6 EQ PUSH2 0x1FD JUMPI DUP1 PUSH4 0x827A560B EQ PUSH2 0x207 JUMPI DUP1 PUSH4 0x85F438C1 EQ PUSH2 0x223 JUMPI DUP1 PUSH4 0x8DA5CB5B EQ PUSH2 0x241 JUMPI PUSH2 0x129 JUMP JUMPDEST DUP1 PUSH3 0xF714CE EQ PUSH2 0x12D JUMPI DUP1 PUSH4 0x1FFC9A7 EQ PUSH2 0x149 JUMPI DUP1 PUSH4 0x144FA6D7 EQ PUSH2 0x179 JUMPI DUP1 PUSH4 0x248A9CA3 EQ PUSH2 0x195 JUMPI DUP1 PUSH4 0x2F2FF15D EQ PUSH2 0x1C5 JUMPI JUMPDEST PUSH0 DUP1 REVERT JUMPDEST PUSH2 0x147 PUSH1 0x4 DUP1 CALLDATASIZE SUB DUP2 ADD SWAP1 PUSH2 0x142 SWAP2 SWAP1 PUSH2 0x14B6 JUMP JUMPDEST PUSH2 0x3B9 JUMP JUMPDEST STOP JUMPDEST PUSH2 0x163 PUSH1 0x4 DUP1 CALLDATASIZE SUB DUP2 ADD SWAP1 PUSH2 0x15E SWAP2 SWAP1 PUSH2 0x1549 JUMP JUMPDEST PUSH2 0x5A1 JUMP JUMPDEST PUSH1 0x40 MLOAD PUSH2 0x170 SWAP2 SWAP1 PUSH2 0x158E JUMP JUMPDEST PUSH1 0x40 MLOAD DUP1 SWAP2 SUB SWAP1 RETURN JUMPDEST PUSH2 0x193 PUSH1 0x4 DUP1 CALLDATASIZE SUB DUP2 ADD SWAP1 PUSH2 0x18E SWAP2 SWAP1 PUSH2 0x15E2 JUMP JUMPDEST PUSH2 0x61A JUMP JUMPDEST STOP JUMPDEST PUSH2 0x1AF PUSH1 0x4 DUP1 CALLDATASIZE SUB DUP2 ADD SWAP1 PUSH2 0x1AA SWAP2 SWAP1 PUSH2 0x1640 JUMP JUMPDEST PUSH2 0x665 JUMP JUMPDEST PUSH1 0x40 MLOAD PUSH2 0x1BC SWAP2 SWAP1 PUSH2 0x167A JUMP JUMPDEST PUSH1 0x40 MLOAD DUP1 SWAP2 SUB SWAP1 RETURN JUMPDEST PUSH2 0x1DF PUSH1 0x4 DUP1 CALLDATASIZE SUB DUP2 ADD SWAP1 PUSH2 0x1DA SWAP2 SWAP1 PUSH2 0x1693 JUMP JUMPDEST PUSH2 0x682 JUMP JUMPDEST STOP JUMPDEST PUSH2 0x1FB PUSH1 0x4 DUP1 CALLDATASIZE SUB DUP2 ADD SWAP1 PUSH2 0x1F6 SWAP2 SWAP1 PUSH2 0x1693 JUMP JUMPDEST PUSH2 0x6A4 JUMP JUMPDEST STOP JUMPDEST PUSH2 0x205 PUSH2 0x71F JUMP JUMPDEST STOP JUMPDEST PUSH2 0x221 PUSH1 0x4 DUP1 CALLDATASIZE SUB DUP2 ADD SWAP1 PUSH2 0x21C SWAP2 SWAP1 PUSH2 0x16FB JUMP JUMPDEST PUSH2 0x732 JUMP JUMPDEST STOP JUMPDEST PUSH2 0x22B PUSH2 0x756 JUMP JUMPDEST PUSH1 0x40 MLOAD PUSH2 0x238 SWAP2 SWAP1 PUSH2 0x167A JUMP JUMPDEST PUSH1 0x40 MLOAD DUP1 SWAP2 SUB SWAP1 RETURN JUMPDEST PUSH2 0x249 PUSH2 0x77A JUMP JUMPDEST PUSH1 0x40 MLOAD PUSH2 0x256 SWAP2 SWAP1 PUSH2 0x1735 JUMP JUMPDEST PUSH1 0x40 MLOAD DUP1 SWAP2 SUB SWAP1 RETURN JUMPDEST PUSH2 0x279 PUSH1 0x4 DUP1 CALLDATASIZE SUB DUP2 ADD SWAP1 PUSH2 0x274 SWAP2 SWAP1 PUSH2 0x174E JUMP JUMPDEST PUSH2 0x7A1 JUMP JUMPDEST PUSH1 0x40 MLOAD PUSH2 0x286 SWAP2 SWAP1 PUSH2 0x1735 JUMP JUMPDEST PUSH1 0x40 MLOAD DUP1 SWAP2 SUB SWAP1 RETURN JUMPDEST PUSH2 0x2A9 PUSH1 0x4 DUP1 CALLDATASIZE SUB DUP2 ADD SWAP1 PUSH2 0x2A4 SWAP2 SWAP1 PUSH2 0x1693 JUMP JUMPDEST PUSH2 0x7CD JUMP JUMPDEST PUSH1 0x40 MLOAD PUSH2 0x2B6 SWAP2 SWAP1 PUSH2 0x158E JUMP JUMPDEST PUSH1 0x40 MLOAD DUP1 SWAP2 SUB SWAP1 RETURN JUMPDEST PUSH2 0x2C7 PUSH2 0x831 JUMP JUMPDEST PUSH1 0x40 MLOAD PUSH2 0x2D4 SWAP2 SWAP1 PUSH2 0x167A JUMP JUMPDEST PUSH1 0x40 MLOAD DUP1 SWAP2 SUB SWAP1 RETURN JUMPDEST PUSH2 0x2E5 PUSH2 0x837 JUMP JUMPDEST PUSH1 0x40 MLOAD PUSH2 0x2F2 SWAP2 SWAP1 PUSH2 0x158E JUMP JUMPDEST PUSH1 0x40 MLOAD DUP1 SWAP2 SUB SWAP1 RETURN JUMPDEST PUSH2 0x315 PUSH1 0x4 DUP1 CALLDATASIZE SUB DUP2 ADD SWAP1 PUSH2 0x310 SWAP2 SWAP1 PUSH2 0x178C JUMP JUMPDEST PUSH2 0x849 JUMP JUMPDEST STOP JUMPDEST PUSH2 0x331 PUSH1 0x4 DUP1 CALLDATASIZE SUB DUP2 ADD SWAP1 PUSH2 0x32C SWAP2 SWAP1 PUSH2 0x1640 JUMP JUMPDEST PUSH2 0x954 JUMP JUMPDEST PUSH1 0x40 MLOAD PUSH2 0x33E SWAP2 SWAP1 PUSH2 0x17C6 JUMP JUMPDEST PUSH1 0x40 MLOAD DUP1 SWAP2 SUB SWAP1 RETURN JUMPDEST PUSH2 0x361 PUSH1 0x4 DUP1 CALLDATASIZE SUB DUP2 ADD SWAP1 PUSH2 0x35C SWAP2 SWAP1 PUSH2 0x1693 JUMP JUMPDEST PUSH2 0x975 JUMP JUMPDEST STOP JUMPDEST PUSH2 0x37D PUSH1 0x4 DUP1 CALLDATASIZE SUB DUP2 ADD SWAP1 PUSH2 0x378 SWAP2 SWAP1 PUSH2 0x178C JUMP JUMPDEST PUSH2 0x997 JUMP JUMPDEST STOP JUMPDEST PUSH2 0x399 PUSH1 0x4 DUP1 CALLDATASIZE SUB DUP2 ADD SWAP1 PUSH2 0x394 SWAP2 SWAP1 PUSH2 0x17DF JUMP JUMPDEST PUSH2 0x9A9 JUMP JUMPDEST STOP JUMPDEST PUSH2 0x3A3 PUSH2 0xA2D JUMP JUMPDEST PUSH1 0x40 MLOAD PUSH2 0x3B0 SWAP2 SWAP1 PUSH2 0x17C6 JUMP JUMPDEST PUSH1 0x40 MLOAD DUP1 SWAP2 SUB SWAP1 RETURN JUMPDEST PUSH2 0x3C1 PUSH2 0xA33 JUMP JUMPDEST PUSH20 0xFFFFFFFFFFFFFFFFFFFFFFFFFFFFFFFFFFFFFFFF AND PUSH2 0x3DF PUSH2 0x77A JUMP JUMPDEST PUSH20 0xFFFFFFFFFFFFFFFFFFFFFFFFFFFFFFFFFFFFFFFF AND EQ DUP1 PUSH2 0x42E JUMPI POP PUSH2 0x42D PUSH32 0x10DAC8C06A04BEC0B551627DAD28BC00D6516B0CAACD1C7B345FCDB5211334E4 PUSH2 0x428 PUSH2 0xA33 JUMP JUMPDEST PUSH2 0x7CD JUMP JUMPDEST JUMPDEST PUSH2 0x46D JUMPI PUSH1 0x40 MLOAD PUSH32 0x8C379A000000000000000000000000000000000000000000000000000000000 DUP2 MSTORE PUSH1 0x4 ADD PUSH2 0x464 SWAP1 PUSH2 0x1864 JUMP JUMPDEST PUSH1 0x40 MLOAD DUP1 SWAP2 SUB SWAP1 REVERT JUMPDEST PUSH1 0x5 PUSH0 SWAP1 SLOAD SWAP1 PUSH2 0x100 EXP SWAP1 DIV PUSH1 0xFF AND PUSH2 0x4BB JUMPI PUSH1 0x40 MLOAD PUSH32 0x8C379A000000000000000000000000000000000000000000000000000000000 DUP2 MSTORE PUSH1 0x4 ADD PUSH2 0x4B2 SWAP1 PUSH2 0x18CC JUMP JUMPDEST PUSH1 0x40 MLOAD DUP1 SWAP2 SUB SWAP1 REVERT JUMPDEST PUSH1 0x4 SLOAD DUP3 GT ISZERO PUSH2 0x500 JUMPI PUSH1 0x40 MLOAD PUSH32 0x8C379A000000000000000000000000000000000000000000000000000000000 DUP2 MSTORE PUSH1 0x4 ADD PUSH2 0x4F7 SWAP1 PUSH2 0x1934 JUMP JUMPDEST PUSH1 0x40 MLOAD DUP1 SWAP2 SUB SWAP1 REVERT JUMPDEST PUSH1 0x3 PUSH0 SWAP1 SLOAD SWAP1 PUSH2 0x100 EXP SWAP1 DIV PUSH20 0xFFFFFFFFFFFFFFFFFFFFFFFFFFFFFFFFFFFFFFFF AND PUSH20 0xFFFFFFFFFFFFFFFFFFFFFFFFFFFFFFFFFFFFFFFF AND PUSH4 0xA9059CBB DUP3 DUP5 PUSH1 0x40 MLOAD DUP4 PUSH4 0xFFFFFFFF AND PUSH1 0xE0 SHL DUP2 MSTORE PUSH1 0x4 ADD PUSH2 0x55C SWAP3 SWAP2 SWAP1 PUSH2 0x1952 JUMP JUMPDEST PUSH1 0x20 PUSH1 0x40 MLOAD DUP1 DUP4 SUB DUP2 PUSH0 DUP8 GAS CALL ISZERO DUP1 ISZERO PUSH2 0x578 JUMPI RETURNDATASIZE PUSH0 DUP1 RETURNDATACOPY RETURNDATASIZE PUSH0 REVERT JUMPDEST POP POP POP POP PUSH1 0x40 MLOAD RETURNDATASIZE PUSH1 0x1F NOT PUSH1 0x1F DUP3 ADD AND DUP3 ADD DUP1 PUSH1 0x40 MSTORE POP DUP2 ADD SWAP1 PUSH2 0x59C SWAP2 SWAP1 PUSH2 0x198D JUMP JUMPDEST POP POP POP JUMP JUMPDEST PUSH0 PUSH32 0x5A05180F00000000000000000000000000000000000000000000000000000000 PUSH28 0xFFFFFFFFFFFFFFFFFFFFFFFFFFFFFFFFFFFFFFFFFFFFFFFFFFFFFFFF NOT AND DUP3 PUSH28 0xFFFFFFFFFFFFFFFFFFFFFFFFFFFFFFFFFFFFFFFFFFFFFFFFFFFFFFFF NOT AND EQ DUP1 PUSH2 0x613 JUMPI POP PUSH2 0x612 DUP3 PUSH2 0xA3A JUMP JUMPDEST JUMPDEST SWAP1 POP SWAP2 SWAP1 POP JUMP JUMPDEST PUSH2 0x622 PUSH2 0xAB3 JUMP JUMPDEST DUP1 PUSH1 0x3 PUSH0 PUSH2 0x100 EXP DUP2 SLOAD DUP2 PUSH20 0xFFFFFFFFFFFFFFFFFFFFFFFFFFFFFFFFFFFFFFFF MUL NOT AND SWAP1 DUP4 PUSH20 0xFFFFFFFFFFFFFFFFFFFFFFFFFFFFFFFFFFFFFFFF AND MUL OR SWAP1 SSTORE POP POP JUMP JUMPDEST PUSH0 PUSH1 0x1 PUSH0 DUP4 DUP2 MSTORE PUSH1 0x20 ADD SWAP1 DUP2 MSTORE PUSH1 0x20 ADD PUSH0 KECCAK256 PUSH1 0x1 ADD SLOAD SWAP1 POP SWAP2 SWAP1 POP JUMP JUMPDEST PUSH2 0x68B DUP3 PUSH2 0x665 JUMP JUMPDEST PUSH2 0x694 DUP2 PUSH2 0xB3A JUMP JUMPDEST PUSH2 0x69E DUP4 DUP4 PUSH2 0xB4E JUMP JUMPDEST POP POP POP POP JUMP JUMPDEST PUSH2 0x6AC PUSH2 0xA33 JUMP JUMPDEST PUSH20 0xFFFFFFFFFFFFFFFFFFFFFFFFFFFFFFFFFFFFFFFF AND DUP2 PUSH20 0xFFFFFFFFFFFFFFFFFFFFFFFFFFFFFFFFFFFFFFFF AND EQ PUSH2 0x710 JUMPI PUSH1 0x40 MLOAD PUSH32 0x6697B23200000000000000000000000000000000000000000000000000000000 DUP2 MSTORE PUSH1 0x4 ADD PUSH1 0x40 MLOAD DUP1 SWAP2 SUB SWAP1 REVERT JUMPDEST PUSH2 0x71A DUP3 DUP3 PUSH2 0xB91 JUMP JUMPDEST POP POP POP JUMP JUMPDEST PUSH2 0x727 PUSH2 0xAB3 JUMP JUMPDEST PUSH2 0x730 PUSH0 PUSH2 0xBD4 JUMP JUMPDEST JUMP JUMPDEST PUSH2 0x73A PUSH2 0xAB3 JUMP JUMPDEST DUP1 PUSH1 0x5 PUSH0 PUSH2 0x100 EXP DUP2 SLOAD DUP2 PUSH1 0xFF MUL NOT AND SWAP1 DUP4 ISZERO ISZERO MUL OR SWAP1 SSTORE POP POP JUMP JUMPDEST PUSH32 0x10DAC8C06A04BEC0B551627DAD28BC00D6516B0CAACD1C7B345FCDB5211334E4 DUP2 JUMP JUMPDEST PUSH0 DUP1 PUSH0 SWAP1 SLOAD SWAP1 PUSH2 0x100 EXP SWAP1 DIV PUSH20 0xFFFFFFFFFFFFFFFFFFFFFFFFFFFFFFFFFFFFFFFF AND SWAP1 POP SWAP1 JUMP JUMPDEST PUSH0 PUSH2 0x7C5 DUP3 PUSH1 0x2 PUSH0 DUP7 DUP2 MSTORE PUSH1 0x20 ADD SWAP1 DUP2 MSTORE PUSH1 0x20 ADD PUSH0 KECCAK256 PUSH2 0xC95 SWAP1 SWAP2 SWAP1 PUSH4 0xFFFFFFFF AND JUMP JUMPDEST SWAP1 POP SWAP3 SWAP2 POP POP JUMP JUMPDEST PUSH0 PUSH1 0x1 PUSH0 DUP5 DUP2 MSTORE PUSH1 0x20 ADD SWAP1 DUP2 MSTORE PUSH1 0x20 ADD PUSH0 KECCAK256 PUSH0 ADD PUSH0 DUP4 PUSH20 0xFFFFFFFFFFFFFFFFFFFFFFFFFFFFFFFFFFFFFFFF AND PUSH20 0xFFFFFFFFFFFFFFFFFFFFFFFFFFFFFFFFFFFFFFFF AND DUP2 MSTORE PUSH1 0x20 ADD SWAP1 DUP2 MSTORE PUSH1 0x20 ADD PUSH0 KECCAK256 PUSH0 SWAP1 SLOAD SWAP1 PUSH2 0x100 EXP SWAP1 DIV PUSH1 0xFF AND SWAP1 POP SWAP3 SWAP2 POP POP JUMP JUMPDEST PUSH0 DUP1 SHL DUP2 JUMP JUMPDEST PUSH1 0x5 PUSH0 SWAP1 SLOAD SWAP1 PUSH2 0x100 EXP SWAP1 DIV PUSH1 0xFF AND DUP2 JUMP JUMPDEST DUP1 PUSH1 0x3 PUSH0 SWAP1 SLOAD SWAP1 PUSH2 0x100 EXP SWAP1 DIV PUSH20 0xFFFFFFFFFFFFFFFFFFFFFFFFFFFFFFFFFFFFFFFF AND PUSH20 0xFFFFFFFFFFFFFFFFFFFFFFFFFFFFFFFFFFFFFFFF AND PUSH4 0x70A08231 CALLER PUSH1 0x40 MLOAD DUP3 PUSH4 0xFFFFFFFF AND PUSH1 0xE0 SHL DUP2 MSTORE PUSH1 0x4 ADD PUSH2 0x8A4 SWAP2 SWAP1 PUSH2 0x1735 JUMP JUMPDEST PUSH1 0x20 PUSH1 0x40 MLOAD DUP1 DUP4 SUB DUP2 DUP7 GAS STATICCALL ISZERO DUP1 ISZERO PUSH2 0x8BF JUMPI RETURNDATASIZE PUSH0 DUP1 RETURNDATACOPY RETURNDATASIZE PUSH0 REVERT JUMPDEST POP POP POP POP PUSH1 0x40 MLOAD RETURNDATASIZE PUSH1 0x1F NOT PUSH1 0x1F DUP3 ADD AND DUP3 ADD DUP1 PUSH1 0x40 MSTORE POP DUP2 ADD SWAP1 PUSH2 0x8E3 SWAP2 SWAP1 PUSH2 0x19CC JUMP JUMPDEST LT ISZERO PUSH2 0x924 JUMPI PUSH1 0x40 MLOAD PUSH32 0x8C379A000000000000000000000000000000000000000000000000000000000 DUP2 MSTORE PUSH1 0x4 ADD PUSH2 0x91B SWAP1 PUSH2 0x1A41 JUMP JUMPDEST PUSH1 0x40 MLOAD DUP1 SWAP2 SUB SWAP1 REVERT JUMPDEST PUSH2 0x951 PUSH1 0x3 PUSH0 SWAP1 SLOAD SWAP1 PUSH2 0x100 EXP SWAP1 DIV PUSH20 0xFFFFFFFFFFFFFFFFFFFFFFFFFFFFFFFFFFFFFFFF AND CALLER ADDRESS DUP5 PUSH2 0xCAC JUMP JUMPDEST POP JUMP JUMPDEST PUSH0 PUSH2 0x96E PUSH1 0x2 PUSH0 DUP5 DUP2 MSTORE PUSH1 0x20 ADD SWAP1 DUP2 MSTORE PUSH1 0x20 ADD PUSH0 KECCAK256 PUSH2 0xD2E JUMP JUMPDEST SWAP1 POP SWAP2 SWAP1 POP JUMP JUMPDEST PUSH2 0x97E DUP3 PUSH2 0x665 JUMP JUMPDEST PUSH2 0x987 DUP2 PUSH2 0xB3A JUMP JUMPDEST PUSH2 0x991 DUP4 DUP4 PUSH2 0xB91 JUMP JUMPDEST POP POP POP POP JUMP JUMPDEST PUSH2 0x99F PUSH2 0xAB3 JUMP JUMPDEST DUP1 PUSH1 0x4 DUP2 SWAP1 SSTORE POP POP JUMP JUMPDEST PUSH2 0x9B1 PUSH2 0xAB3 JUMP JUMPDEST PUSH0 PUSH20 0xFFFFFFFFFFFFFFFFFFFFFFFFFFFFFFFFFFFFFFFF AND DUP2 PUSH20 0xFFFFFFFFFFFFFFFFFFFFFFFFFFFFFFFFFFFFFFFF AND SUB PUSH2 0xA21 JUMPI PUSH0 PUSH1 0x40 MLOAD PUSH32 0x1E4FBDF700000000000000000000000000000000000000000000000000000000 DUP2 MSTORE PUSH1 0x4 ADD PUSH2 0xA18 SWAP2 SWAP1 PUSH2 0x1735 JUMP JUMPDEST PUSH1 0x40 MLOAD DUP1 SWAP2 SUB SWAP1 REVERT JUMPDEST PUSH2 0xA2A DUP2 PUSH2 0xBD4 JUMP JUMPDEST POP JUMP JUMPDEST PUSH1 0x4 SLOAD DUP2 JUMP JUMPDEST PUSH0 CALLER SWAP1 POP SWAP1 JUMP JUMPDEST PUSH0 PUSH32 0x7965DB0B00000000000000000000000000000000000000000000000000000000 PUSH28 0xFFFFFFFFFFFFFFFFFFFFFFFFFFFFFFFFFFFFFFFFFFFFFFFFFFFFFFFF NOT AND DUP3 PUSH28 0xFFFFFFFFFFFFFFFFFFFFFFFFFFFFFFFFFFFFFFFFFFFFFFFFFFFFFFFF NOT AND EQ DUP1 PUSH2 0xAAC JUMPI POP PUSH2 0xAAB DUP3 PUSH2 0xD41 JUMP JUMPDEST JUMPDEST SWAP1 POP SWAP2 SWAP1 POP JUMP JUMPDEST PUSH2 0xABB PUSH2 0xA33 JUMP JUMPDEST PUSH20 0xFFFFFFFFFFFFFFFFFFFFFFFFFFFFFFFFFFFFFFFF AND PUSH2 0xAD9 PUSH2 0x77A JUMP JUMPDEST PUSH20 0xFFFFFFFFFFFFFFFFFFFFFFFFFFFFFFFFFFFFFFFF AND EQ PUSH2 0xB38 JUMPI PUSH2 0xAFC PUSH2 0xA33 JUMP JUMPDEST PUSH1 0x40 MLOAD PUSH32 0x118CDAA700000000000000000000000000000000000000000000000000000000 DUP2 MSTORE PUSH1 0x4 ADD PUSH2 0xB2F SWAP2 SWAP1 PUSH2 0x1735 JUMP JUMPDEST PUSH1 0x40 MLOAD DUP1 SWAP2 SUB SWAP1 REVERT JUMPDEST JUMP JUMPDEST PUSH2 0xB4B DUP2 PUSH2 0xB46 PUSH2 0xA33 JUMP JUMPDEST PUSH2 0xDAA JUMP JUMPDEST POP JUMP JUMPDEST PUSH0 DUP1 PUSH2 0xB5A DUP5 DUP5 PUSH2 0xDFB JUMP JUMPDEST SWAP1 POP DUP1 ISZERO PUSH2 0xB87 JUMPI PUSH2 0xB85 DUP4 PUSH1 0x2 PUSH0 DUP8 DUP2 MSTORE PUSH1 0x20 ADD SWAP1 DUP2 MSTORE PUSH1 0x20 ADD PUSH0 KECCAK256 PUSH2 0xEE4 SWAP1 SWAP2 SWAP1 PUSH4 0xFFFFFFFF AND JUMP JUMPDEST POP JUMPDEST DUP1 SWAP2 POP POP SWAP3 SWAP2 POP POP JUMP JUMPDEST PUSH0 DUP1 PUSH2 0xB9D DUP5 DUP5 PUSH2 0xF11 JUMP JUMPDEST SWAP1 POP DUP1 ISZERO PUSH2 0xBCA JUMPI PUSH2 0xBC8 DUP4 PUSH1 0x2 PUSH0 DUP8 DUP2 MSTORE PUSH1 0x20 ADD SWAP1 DUP2 MSTORE PUSH1 0x20 ADD PUSH0 KECCAK256 PUSH2 0xFFB SWAP1 SWAP2 SWAP1 PUSH4 0xFFFFFFFF AND JUMP JUMPDEST POP JUMPDEST DUP1 SWAP2 POP POP SWAP3 SWAP2 POP POP JUMP JUMPDEST PUSH0 DUP1 PUSH0 SWAP1 SLOAD SWAP1 PUSH2 0x100 EXP SWAP1 DIV PUSH20 0xFFFFFFFFFFFFFFFFFFFFFFFFFFFFFFFFFFFFFFFF AND SWAP1 POP DUP2 PUSH0 DUP1 PUSH2 0x100 EXP DUP2 SLOAD DUP2 PUSH20 0xFFFFFFFFFFFFFFFFFFFFFFFFFFFFFFFFFFFFFFFF MUL NOT AND SWAP1 DUP4 PUSH20 0xFFFFFFFFFFFFFFFFFFFFFFFFFFFFFFFFFFFFFFFF AND MUL OR SWAP1 SSTORE POP DUP2 PUSH20 0xFFFFFFFFFFFFFFFFFFFFFFFFFFFFFFFFFFFFFFFF AND DUP2 PUSH20 0xFFFFFFFFFFFFFFFFFFFFFFFFFFFFFFFFFFFFFFFF AND PUSH32 0x8BE0079C531659141344CD1FD0A4F28419497F9722A3DAAFE3B4186F6B6457E0 PUSH1 0x40 MLOAD PUSH1 0x40 MLOAD DUP1 SWAP2 SUB SWAP1 LOG3 POP POP JUMP JUMPDEST PUSH0 PUSH2 0xCA2 DUP4 PUSH0 ADD DUP4 PUSH2 0x1028 JUMP JUMPDEST PUSH0 SHR SWAP1 POP SWAP3 SWAP2 POP POP JUMP JUMPDEST PUSH2 0xD28 DUP5 DUP6 PUSH20 0xFFFFFFFFFFFFFFFFFFFFFFFFFFFFFFFFFFFFFFFF AND PUSH4 0x23B872DD DUP7 DUP7 DUP7 PUSH1 0x40 MLOAD PUSH1 0x24 ADD PUSH2 0xCE1 SWAP4 SWAP3 SWAP2 SWAP1 PUSH2 0x1A5F JUMP JUMPDEST PUSH1 0x40 MLOAD PUSH1 0x20 DUP2 DUP4 SUB SUB DUP2 MSTORE SWAP1 PUSH1 0x40 MSTORE SWAP2 POP PUSH1 0xE0 SHL PUSH1 0x20 DUP3 ADD DUP1 MLOAD PUSH28 0xFFFFFFFFFFFFFFFFFFFFFFFFFFFFFFFFFFFFFFFFFFFFFFFFFFFFFFFF DUP4 DUP2 DUP4 AND OR DUP4 MSTORE POP POP POP POP PUSH2 0x104F JUMP JUMPDEST POP POP POP POP JUMP JUMPDEST PUSH0 PUSH2 0xD3A DUP3 PUSH0 ADD PUSH2 0x10E4 JUMP JUMPDEST SWAP1 POP SWAP2 SWAP1 POP JUMP JUMPDEST PUSH0 PUSH32 0x1FFC9A700000000000000000000000000000000000000000000000000000000 PUSH28 0xFFFFFFFFFFFFFFFFFFFFFFFFFFFFFFFFFFFFFFFFFFFFFFFFFFFFFFFF NOT AND DUP3 PUSH28 0xFFFFFFFFFFFFFFFFFFFFFFFFFFFFFFFFFFFFFFFFFFFFFFFFFFFFFFFF NOT AND EQ SWAP1 POP SWAP2 SWAP1 POP JUMP JUMPDEST PUSH2 0xDB4 DUP3 DUP3 PUSH2 0x7CD JUMP JUMPDEST PUSH2 0xDF7 JUMPI DUP1 DUP3 PUSH1 0x40 MLOAD PUSH32 0xE2517D3F00000000000000000000000000000000000000000000000000000000 DUP2 MSTORE PUSH1 0x4 ADD PUSH2 0xDEE SWAP3 SWAP2 SWAP1 PUSH2 0x1A94 JUMP JUMPDEST PUSH1 0x40 MLOAD DUP1 SWAP2 SUB SWAP1 REVERT JUMPDEST POP POP JUMP JUMPDEST PUSH0 PUSH2 0xE06 DUP4 DUP4 PUSH2 0x7CD JUMP JUMPDEST PUSH2 0xEDA JUMPI PUSH1 0x1 DUP1 PUSH0 DUP6 DUP2 MSTORE PUSH1 0x20 ADD SWAP1 DUP2 MSTORE PUSH1 0x20 ADD PUSH0 KECCAK256 PUSH0 ADD PUSH0 DUP5 PUSH20 0xFFFFFFFFFFFFFFFFFFFFFFFFFFFFFFFFFFFFFFFF AND PUSH20 0xFFFFFFFFFFFFFFFFFFFFFFFFFFFFFFFFFFFFFFFF AND DUP2 MSTORE PUSH1 0x20 ADD SWAP1 DUP2 MSTORE PUSH1 0x20 ADD PUSH0 KECCAK256 PUSH0 PUSH2 0x100 EXP DUP2 SLOAD DUP2 PUSH1 0xFF MUL NOT AND SWAP1 DUP4 ISZERO ISZERO MUL OR SWAP1 SSTORE POP PUSH2 0xE77 PUSH2 0xA33 JUMP JUMPDEST PUSH20 0xFFFFFFFFFFFFFFFFFFFFFFFFFFFFFFFFFFFFFFFF AND DUP3 PUSH20 0xFFFFFFFFFFFFFFFFFFFFFFFFFFFFFFFFFFFFFFFF AND DUP5 PUSH32 0x2F8788117E7EFF1D82E926EC794901D17C78024A50270940304540A733656F0D PUSH1 0x40 MLOAD PUSH1 0x40 MLOAD DUP1 SWAP2 SUB SWAP1 LOG4 PUSH1 0x1 SWAP1 POP PUSH2 0xEDE JUMP JUMPDEST PUSH0 SWAP1 POP JUMPDEST SWAP3 SWAP2 POP POP JUMP JUMPDEST PUSH0 PUSH2 0xF09 DUP4 PUSH0 ADD DUP4 PUSH20 0xFFFFFFFFFFFFFFFFFFFFFFFFFFFFFFFFFFFFFFFF AND PUSH0 SHL PUSH2 0x10F3 JUMP JUMPDEST SWAP1 POP SWAP3 SWAP2 POP POP JUMP JUMPDEST PUSH0 PUSH2 0xF1C DUP4 DUP4 PUSH2 0x7CD JUMP JUMPDEST ISZERO PUSH2 0xFF1 JUMPI PUSH0 PUSH1 0x1 PUSH0 DUP6 DUP2 MSTORE PUSH1 0x20 ADD SWAP1 DUP2 MSTORE PUSH1 0x20 ADD PUSH0 KECCAK256 PUSH0 ADD PUSH0 DUP5 PUSH20 0xFFFFFFFFFFFFFFFFFFFFFFFFFFFFFFFFFFFFFFFF AND PUSH20 0xFFFFFFFFFFFFFFFFFFFFFFFFFFFFFFFFFFFFFFFF AND DUP2 MSTORE PUSH1 0x20 ADD SWAP1 DUP2 MSTORE PUSH1 0x20 ADD PUSH0 KECCAK256 PUSH0 PUSH2 0x100 EXP DUP2 SLOAD DUP2 PUSH1 0xFF MUL NOT AND SWAP1 DUP4 ISZERO ISZERO MUL OR SWAP1 SSTORE POP PUSH2 0xF8E PUSH2 0xA33 JUMP JUMPDEST PUSH20 0xFFFFFFFFFFFFFFFFFFFFFFFFFFFFFFFFFFFFFFFF AND DUP3 PUSH20 0xFFFFFFFFFFFFFFFFFFFFFFFFFFFFFFFFFFFFFFFF AND DUP5 PUSH32 0xF6391F5C32D9C69D2A47EA670B442974B53935D1EDC7FD64EB21E047A839171B PUSH1 0x40 MLOAD PUSH1 0x40 MLOAD DUP1 SWAP2 SUB SWAP1 LOG4 PUSH1 0x1 SWAP1 POP PUSH2 0xFF5 JUMP JUMPDEST PUSH0 SWAP1 POP JUMPDEST SWAP3 SWAP2 POP POP JUMP JUMPDEST PUSH0 PUSH2 0x1020 DUP4 PUSH0 ADD DUP4 PUSH20 0xFFFFFFFFFFFFFFFFFFFFFFFFFFFFFFFFFFFFFFFF AND PUSH0 SHL PUSH2 0x115A JUMP JUMPDEST SWAP1 POP SWAP3 SWAP2 POP POP JUMP JUMPDEST PUSH0 DUP3 PUSH0 ADD DUP3 DUP2 SLOAD DUP2 LT PUSH2 0x103E JUMPI PUSH2 0x103D PUSH2 0x1ABB JUMP JUMPDEST JUMPDEST SWAP1 PUSH0 MSTORE PUSH1 0x20 PUSH0 KECCAK256 ADD SLOAD SWAP1 POP SWAP3 SWAP2 POP POP JUMP JUMPDEST PUSH0 PUSH2 0x1079 DUP3 DUP5 PUSH20 0xFFFFFFFFFFFFFFFFFFFFFFFFFFFFFFFFFFFFFFFF AND PUSH2 0x1256 SWAP1 SWAP2 SWAP1 PUSH4 0xFFFFFFFF AND JUMP JUMPDEST SWAP1 POP PUSH0 DUP2 MLOAD EQ ISZERO DUP1 ISZERO PUSH2 0x109D JUMPI POP DUP1 DUP1 PUSH1 0x20 ADD SWAP1 MLOAD DUP2 ADD SWAP1 PUSH2 0x109B SWAP2 SWAP1 PUSH2 0x198D JUMP JUMPDEST ISZERO JUMPDEST ISZERO PUSH2 0x10DF JUMPI DUP3 PUSH1 0x40 MLOAD PUSH32 0x5274AFE700000000000000000000000000000000000000000000000000000000 DUP2 MSTORE PUSH1 0x4 ADD PUSH2 0x10D6 SWAP2 SWAP1 PUSH2 0x1735 JUMP JUMPDEST PUSH1 0x40 MLOAD DUP1 SWAP2 SUB SWAP1 REVERT JUMPDEST POP POP POP JUMP JUMPDEST PUSH0 DUP2 PUSH0 ADD DUP1 SLOAD SWAP1 POP SWAP1 POP SWAP2 SWAP1 POP JUMP JUMPDEST PUSH0 PUSH2 0x10FE DUP4 DUP4 PUSH2 0x126B JUMP JUMPDEST PUSH2 0x1150 JUMPI DUP3 PUSH0 ADD DUP3 SWAP1 DUP1 PUSH1 0x1 DUP2 SLOAD ADD DUP1 DUP3 SSTORE DUP1 SWAP2 POP POP PUSH1 0x1 SWAP1 SUB SWAP1 PUSH0 MSTORE PUSH1 0x20 PUSH0 KECCAK256 ADD PUSH0 SWAP1 SWAP2 SWAP1 SWAP2 SWAP1 SWAP2 POP SSTORE DUP3 PUSH0 ADD DUP1 SLOAD SWAP1 POP DUP4 PUSH1 0x1 ADD PUSH0 DUP5 DUP2 MSTORE PUSH1 0x20 ADD SWAP1 DUP2 MSTORE PUSH1 0x20 ADD PUSH0 KECCAK256 DUP2 SWAP1 SSTORE POP PUSH1 0x1 SWAP1 POP PUSH2 0x1154 JUMP JUMPDEST PUSH0 SWAP1 POP JUMPDEST SWAP3 SWAP2 POP POP JUMP JUMPDEST PUSH0 DUP1 DUP4 PUSH1 0x1 ADD PUSH0 DUP5 DUP2 MSTORE PUSH1 0x20 ADD SWAP1 DUP2 MSTORE PUSH1 0x20 ADD PUSH0 KECCAK256 SLOAD SWAP1 POP PUSH0 DUP2 EQ PUSH2 0x124B JUMPI PUSH0 PUSH1 0x1 DUP3 PUSH2 0x1187 SWAP2 SWAP1 PUSH2 0x1B15 JUMP JUMPDEST SWAP1 POP PUSH0 PUSH1 0x1 DUP7 PUSH0 ADD DUP1 SLOAD SWAP1 POP PUSH2 0x119D SWAP2 SWAP1 PUSH2 0x1B15 JUMP JUMPDEST SWAP1 POP DUP1 DUP3 EQ PUSH2 0x1203 JUMPI PUSH0 DUP7 PUSH0 ADD DUP3 DUP2 SLOAD DUP2 LT PUSH2 0x11BC JUMPI PUSH2 0x11BB PUSH2 0x1ABB JUMP JUMPDEST JUMPDEST SWAP1 PUSH0 MSTORE PUSH1 0x20 PUSH0 KECCAK256 ADD SLOAD SWAP1 POP DUP1 DUP8 PUSH0 ADD DUP5 DUP2 SLOAD DUP2 LT PUSH2 0x11DD JUMPI PUSH2 0x11DC PUSH2 0x1ABB JUMP JUMPDEST JUMPDEST SWAP1 PUSH0 MSTORE PUSH1 0x20 PUSH0 KECCAK256 ADD DUP2 SWAP1 SSTORE POP DUP4 DUP8 PUSH1 0x1 ADD PUSH0 DUP4 DUP2 MSTORE PUSH1 0x20 ADD SWAP1 DUP2 MSTORE PUSH1 0x20 ADD PUSH0 KECCAK256 DUP2 SWAP1 SSTORE POP POP JUMPDEST DUP6 PUSH0 ADD DUP1 SLOAD DUP1 PUSH2 0x1216 JUMPI PUSH2 0x1215 PUSH2 0x1B48 JUMP JUMPDEST JUMPDEST PUSH1 0x1 SWAP1 SUB DUP2 DUP2 SWAP1 PUSH0 MSTORE PUSH1 0x20 PUSH0 KECCAK256 ADD PUSH0 SWAP1 SSTORE SWAP1 SSTORE DUP6 PUSH1 0x1 ADD PUSH0 DUP7 DUP2 MSTORE PUSH1 0x20 ADD SWAP1 DUP2 MSTORE PUSH1 0x20 ADD PUSH0 KECCAK256 PUSH0 SWAP1 SSTORE PUSH1 0x1 SWAP4 POP POP POP POP PUSH2 0x1250 JUMP JUMPDEST PUSH0 SWAP2 POP POP JUMPDEST SWAP3 SWAP2 POP POP JUMP JUMPDEST PUSH1 0x60 PUSH2 0x1263 DUP4 DUP4 PUSH0 PUSH2 0x128B JUMP JUMPDEST SWAP1 POP SWAP3 SWAP2 POP POP JUMP JUMPDEST PUSH0 DUP1 DUP4 PUSH1 0x1 ADD PUSH0 DUP5 DUP2 MSTORE PUSH1 0x20 ADD SWAP1 DUP2 MSTORE PUSH1 0x20 ADD PUSH0 KECCAK256 SLOAD EQ ISZERO SWAP1 POP SWAP3 SWAP2 POP POP JUMP JUMPDEST PUSH1 0x60 DUP2 SELFBALANCE LT ISZERO PUSH2 0x12D2 JUMPI ADDRESS PUSH1 0x40 MLOAD PUSH32 0xCD78605900000000000000000000000000000000000000000000000000000000 DUP2 MSTORE PUSH1 0x4 ADD PUSH2 0x12C9 SWAP2 SWAP1 PUSH2 0x1735 JUMP JUMPDEST PUSH1 0x40 MLOAD DUP1 SWAP2 SUB SWAP1 REVERT JUMPDEST PUSH0 DUP1 DUP6 PUSH20 0xFFFFFFFFFFFFFFFFFFFFFFFFFFFFFFFFFFFFFFFF AND DUP5 DUP7 PUSH1 0x40 MLOAD PUSH2 0x12FA SWAP2 SWAP1 PUSH2 0x1BE1 JUMP JUMPDEST PUSH0 PUSH1 0x40 MLOAD DUP1 DUP4 SUB DUP2 DUP6 DUP8 GAS CALL SWAP3 POP POP POP RETURNDATASIZE DUP1 PUSH0 DUP2 EQ PUSH2 0x1334 JUMPI PUSH1 0x40 MLOAD SWAP2 POP PUSH1 0x1F NOT PUSH1 0x3F RETURNDATASIZE ADD AND DUP3 ADD PUSH1 0x40 MSTORE RETURNDATASIZE DUP3 MSTORE RETURNDATASIZE PUSH0 PUSH1 0x20 DUP5 ADD RETURNDATACOPY PUSH2 0x1339 JUMP JUMPDEST PUSH1 0x60 SWAP2 POP JUMPDEST POP SWAP2 POP SWAP2 POP PUSH2 0x1349 DUP7 DUP4 DUP4 PUSH2 0x1354 JUMP JUMPDEST SWAP3 POP POP POP SWAP4 SWAP3 POP POP POP JUMP JUMPDEST PUSH1 0x60 DUP3 PUSH2 0x1369 JUMPI PUSH2 0x1364 DUP3 PUSH2 0x13E1 JUMP JUMPDEST PUSH2 0x13D9 JUMP JUMPDEST PUSH0 DUP3 MLOAD EQ DUP1 ISZERO PUSH2 0x138F JUMPI POP PUSH0 DUP5 PUSH20 0xFFFFFFFFFFFFFFFFFFFFFFFFFFFFFFFFFFFFFFFF AND EXTCODESIZE EQ JUMPDEST ISZERO PUSH2 0x13D1 JUMPI DUP4 PUSH1 0x40 MLOAD PUSH32 0x9996B31500000000000000000000000000000000000000000000000000000000 DUP2 MSTORE PUSH1 0x4 ADD PUSH2 0x13C8 SWAP2 SWAP1 PUSH2 0x1735 JUMP JUMPDEST PUSH1 0x40 MLOAD DUP1 SWAP2 SUB SWAP1 REVERT JUMPDEST DUP2 SWAP1 POP PUSH2 0x13DA JUMP JUMPDEST JUMPDEST SWAP4 SWAP3 POP POP POP JUMP JUMPDEST PUSH0 DUP2 MLOAD GT ISZERO PUSH2 0x13F3 JUMPI DUP1 MLOAD DUP1 DUP3 PUSH1 0x20 ADD REVERT JUMPDEST PUSH1 0x40 MLOAD PUSH32 0x1425EA4200000000000000000000000000000000000000000000000000000000 DUP2 MSTORE PUSH1 0x4 ADD PUSH1 0x40 MLOAD DUP1 SWAP2 SUB SWAP1 REVERT JUMPDEST PUSH0 DUP1 REVERT JUMPDEST PUSH0 DUP2 SWAP1 POP SWAP2 SWAP1 POP JUMP JUMPDEST PUSH2 0x143B DUP2 PUSH2 0x1429 JUMP JUMPDEST DUP2 EQ PUSH2 0x1445 JUMPI PUSH0 DUP1 REVERT JUMPDEST POP JUMP JUMPDEST PUSH0 DUP2 CALLDATALOAD SWAP1 POP PUSH2 0x1456 DUP2 PUSH2 0x1432 JUMP JUMPDEST SWAP3 SWAP2 POP POP JUMP JUMPDEST PUSH0 PUSH20 0xFFFFFFFFFFFFFFFFFFFFFFFFFFFFFFFFFFFFFFFF DUP3 AND SWAP1 POP SWAP2 SWAP1 POP JUMP JUMPDEST PUSH0 PUSH2 0x1485 DUP3 PUSH2 0x145C JUMP JUMPDEST SWAP1 POP SWAP2 SWAP1 POP JUMP JUMPDEST PUSH2 0x1495 DUP2 PUSH2 0x147B JUMP JUMPDEST DUP2 EQ PUSH2 0x149F JUMPI PUSH0 DUP1 REVERT JUMPDEST POP JUMP JUMPDEST PUSH0 DUP2 CALLDATALOAD SWAP1 POP PUSH2 0x14B0 DUP2 PUSH2 0x148C JUMP JUMPDEST SWAP3 SWAP2 POP POP JUMP JUMPDEST PUSH0 DUP1 PUSH1 0x40 DUP4 DUP6 SUB SLT ISZERO PUSH2 0x14CC JUMPI PUSH2 0x14CB PUSH2 0x1425 JUMP JUMPDEST JUMPDEST PUSH0 PUSH2 0x14D9 DUP6 DUP3 DUP7 ADD PUSH2 0x1448 JUMP JUMPDEST SWAP3 POP POP PUSH1 0x20 PUSH2 0x14EA DUP6 DUP3 DUP7 ADD PUSH2 0x14A2 JUMP JUMPDEST SWAP2 POP POP SWAP3 POP SWAP3 SWAP1 POP JUMP JUMPDEST PUSH0 PUSH32 0xFFFFFFFF00000000000000000000000000000000000000000000000000000000 DUP3 AND SWAP1 POP SWAP2 SWAP1 POP JUMP JUMPDEST PUSH2 0x1528 DUP2 PUSH2 0x14F4 JUMP JUMPDEST DUP2 EQ PUSH2 0x1532 JUMPI PUSH0 DUP1 REVERT JUMPDEST POP JUMP JUMPDEST PUSH0 DUP2 CALLDATALOAD SWAP1 POP PUSH2 0x1543 DUP2 PUSH2 0x151F JUMP JUMPDEST SWAP3 SWAP2 POP POP JUMP JUMPDEST PUSH0 PUSH1 0x20 DUP3 DUP5 SUB SLT ISZERO PUSH2 0x155E JUMPI PUSH2 0x155D PUSH2 0x1425 JUMP JUMPDEST JUMPDEST PUSH0 PUSH2 0x156B DUP5 DUP3 DUP6 ADD PUSH2 0x1535 JUMP JUMPDEST SWAP2 POP POP SWAP3 SWAP2 POP POP JUMP JUMPDEST PUSH0 DUP2 ISZERO ISZERO SWAP1 POP SWAP2 SWAP1 POP JUMP JUMPDEST PUSH2 0x1588 DUP2 PUSH2 0x1574 JUMP JUMPDEST DUP3 MSTORE POP POP JUMP JUMPDEST PUSH0 PUSH1 0x20 DUP3 ADD SWAP1 POP PUSH2 0x15A1 PUSH0 DUP4 ADD DUP5 PUSH2 0x157F JUMP JUMPDEST SWAP3 SWAP2 POP POP JUMP JUMPDEST PUSH0 PUSH2 0x15B1 DUP3 PUSH2 0x147B JUMP JUMPDEST SWAP1 POP SWAP2 SWAP1 POP JUMP JUMPDEST PUSH2 0x15C1 DUP2 PUSH2 0x15A7 JUMP JUMPDEST DUP2 EQ PUSH2 0x15CB JUMPI PUSH0 DUP1 REVERT JUMPDEST POP JUMP JUMPDEST PUSH0 DUP2 CALLDATALOAD SWAP1 POP PUSH2 0x15DC DUP2 PUSH2 0x15B8 JUMP JUMPDEST SWAP3 SWAP2 POP POP JUMP JUMPDEST PUSH0 PUSH1 0x20 DUP3 DUP5 SUB SLT ISZERO PUSH2 0x15F7 JUMPI PUSH2 0x15F6 PUSH2 0x1425 JUMP JUMPDEST JUMPDEST PUSH0 PUSH2 0x1604 DUP5 DUP3 DUP6 ADD PUSH2 0x15CE JUMP JUMPDEST SWAP2 POP POP SWAP3 SWAP2 POP POP JUMP JUMPDEST PUSH0 DUP2 SWAP1 POP SWAP2 SWAP1 POP JUMP JUMPDEST PUSH2 0x161F DUP2 PUSH2 0x160D JUMP JUMPDEST DUP2 EQ PUSH2 0x1629 JUMPI PUSH0 DUP1 REVERT JUMPDEST POP JUMP JUMPDEST PUSH0 DUP2 CALLDATALOAD SWAP1 POP PUSH2 0x163A DUP2 PUSH2 0x1616 JUMP JUMPDEST SWAP3 SWAP2 POP POP JUMP JUMPDEST PUSH0 PUSH1 0x20 DUP3 DUP5 SUB SLT ISZERO PUSH2 0x1655 JUMPI PUSH2 0x1654 PUSH2 0x1425 JUMP JUMPDEST JUMPDEST PUSH0 PUSH2 0x1662 DUP5 DUP3 DUP6 ADD PUSH2 0x162C JUMP JUMPDEST SWAP2 POP POP SWAP3 SWAP2 POP POP JUMP JUMPDEST PUSH2 0x1674 DUP2 PUSH2 0x160D JUMP JUMPDEST DUP3 MSTORE POP POP JUMP JUMPDEST PUSH0 PUSH1 0x20 DUP3 ADD SWAP1 POP PUSH2 0x168D PUSH0 DUP4 ADD DUP5 PUSH2 0x166B JUMP JUMPDEST SWAP3 SWAP2 POP POP JUMP JUMPDEST PUSH0 DUP1 PUSH1 0x40 DUP4 DUP6 SUB SLT ISZERO PUSH2 0x16A9 JUMPI PUSH2 0x16A8 PUSH2 0x1425 JUMP JUMPDEST JUMPDEST PUSH0 PUSH2 0x16B6 DUP6 DUP3 DUP7 ADD PUSH2 0x162C JUMP JUMPDEST SWAP3 POP POP PUSH1 0x20 PUSH2 0x16C7 DUP6 DUP3 DUP7 ADD PUSH2 0x14A2 JUMP JUMPDEST SWAP2 POP POP SWAP3 POP SWAP3 SWAP1 POP JUMP JUMPDEST PUSH2 0x16DA DUP2 PUSH2 0x1574 JUMP JUMPDEST DUP2 EQ PUSH2 0x16E4 JUMPI PUSH0 DUP1 REVERT JUMPDEST POP JUMP JUMPDEST PUSH0 DUP2 CALLDATALOAD SWAP1 POP PUSH2 0x16F5 DUP2 PUSH2 0x16D1 JUMP JUMPDEST SWAP3 SWAP2 POP POP JUMP JUMPDEST PUSH0 PUSH1 0x20 DUP3 DUP5 SUB SLT ISZERO PUSH2 0x1710 JUMPI PUSH2 0x170F PUSH2 0x1425 JUMP JUMPDEST JUMPDEST PUSH0 PUSH2 0x171D DUP5 DUP3 DUP6 ADD PUSH2 0x16E7 JUMP JUMPDEST SWAP2 POP POP SWAP3 SWAP2 POP POP JUMP JUMPDEST PUSH2 0x172F DUP2 PUSH2 0x147B JUMP JUMPDEST DUP3 MSTORE POP POP JUMP JUMPDEST PUSH0 PUSH1 0x20 DUP3 ADD SWAP1 POP PUSH2 0x1748 PUSH0 DUP4 ADD DUP5 PUSH2 0x1726 JUMP JUMPDEST SWAP3 SWAP2 POP POP JUMP JUMPDEST PUSH0 DUP1 PUSH1 0x40 DUP4 DUP6 SUB SLT ISZERO PUSH2 0x1764 JUMPI PUSH2 0x1763 PUSH2 0x1425 JUMP JUMPDEST JUMPDEST PUSH0 PUSH2 0x1771 DUP6 DUP3 DUP7 ADD PUSH2 0x162C JUMP JUMPDEST SWAP3 POP POP PUSH1 0x20 PUSH2 0x1782 DUP6 DUP3 DUP7 ADD PUSH2 0x1448 JUMP JUMPDEST SWAP2 POP POP SWAP3 POP SWAP3 SWAP1 POP JUMP JUMPDEST PUSH0 PUSH1 0x20 DUP3 DUP5 SUB SLT ISZERO PUSH2 0x17A1 JUMPI PUSH2 0x17A0 PUSH2 0x1425 JUMP JUMPDEST JUMPDEST PUSH0 PUSH2 0x17AE DUP5 DUP3 DUP6 ADD PUSH2 0x1448 JUMP JUMPDEST SWAP2 POP POP SWAP3 SWAP2 POP POP JUMP JUMPDEST PUSH2 0x17C0 DUP2 PUSH2 0x1429 JUMP JUMPDEST DUP3 MSTORE POP POP JUMP JUMPDEST PUSH0 PUSH1 0x20 DUP3 ADD SWAP1 POP PUSH2 0x17D9 PUSH0 DUP4 ADD DUP5 PUSH2 0x17B7 JUMP JUMPDEST SWAP3 SWAP2 POP POP JUMP JUMPDEST PUSH0 PUSH1 0x20 DUP3 DUP5 SUB SLT ISZERO PUSH2 0x17F4 JUMPI PUSH2 0x17F3 PUSH2 0x1425 JUMP JUMPDEST JUMPDEST PUSH0 PUSH2 0x1801 DUP5 DUP3 DUP6 ADD PUSH2 0x14A2 JUMP JUMPDEST SWAP2 POP POP SWAP3 SWAP2 POP POP JUMP JUMPDEST PUSH0 DUP3 DUP3 MSTORE PUSH1 0x20 DUP3 ADD SWAP1 POP SWAP3 SWAP2 POP POP JUMP JUMPDEST PUSH32 0x43616C6C6572206973206E6F7420612077697468647261776572000000000000 PUSH0 DUP3 ADD MSTORE POP JUMP JUMPDEST PUSH0 PUSH2 0x184E PUSH1 0x1A DUP4 PUSH2 0x180A JUMP JUMPDEST SWAP2 POP PUSH2 0x1859 DUP3 PUSH2 0x181A JUMP JUMPDEST PUSH1 0x20 DUP3 ADD SWAP1 POP SWAP2 SWAP1 POP JUMP JUMPDEST PUSH0 PUSH1 0x20 DUP3 ADD SWAP1 POP DUP2 DUP2 SUB PUSH0 DUP4 ADD MSTORE PUSH2 0x187B DUP2 PUSH2 0x1842 JUMP JUMPDEST SWAP1 POP SWAP2 SWAP1 POP JUMP JUMPDEST PUSH32 0x5769746864726177206973206E6F7420617661696C61626C6500000000000000 PUSH0 DUP3 ADD MSTORE POP JUMP JUMPDEST PUSH0 PUSH2 0x18B6 PUSH1 0x19 DUP4 PUSH2 0x180A JUMP JUMPDEST SWAP2 POP PUSH2 0x18C1 DUP3 PUSH2 0x1882 JUMP JUMPDEST PUSH1 0x20 DUP3 ADD SWAP1 POP SWAP2 SWAP1 POP JUMP JUMPDEST PUSH0 PUSH1 0x20 DUP3 ADD SWAP1 POP DUP2 DUP2 SUB PUSH0 DUP4 ADD MSTORE PUSH2 0x18E3 DUP2 PUSH2 0x18AA JUMP JUMPDEST SWAP1 POP SWAP2 SWAP1 POP JUMP JUMPDEST PUSH32 0x457863656564206D6178696D756D20616D6F756E740000000000000000000000 PUSH0 DUP3 ADD MSTORE POP JUMP JUMPDEST PUSH0 PUSH2 0x191E PUSH1 0x15 DUP4 PUSH2 0x180A JUMP JUMPDEST SWAP2 POP PUSH2 0x1929 DUP3 PUSH2 0x18EA JUMP JUMPDEST PUSH1 0x20 DUP3 ADD SWAP1 POP SWAP2 SWAP1 POP JUMP JUMPDEST PUSH0 PUSH1 0x20 DUP3 ADD SWAP1 POP DUP2 DUP2 SUB PUSH0 DUP4 ADD MSTORE PUSH2 0x194B DUP2 PUSH2 0x1912 JUMP JUMPDEST SWAP1 POP SWAP2 SWAP1 POP JUMP JUMPDEST PUSH0 PUSH1 0x40 DUP3 ADD SWAP1 POP PUSH2 0x1965 PUSH0 DUP4 ADD DUP6 PUSH2 0x1726 JUMP JUMPDEST PUSH2 0x1972 PUSH1 0x20 DUP4 ADD DUP5 PUSH2 0x17B7 JUMP JUMPDEST SWAP4 SWAP3 POP POP POP JUMP JUMPDEST PUSH0 DUP2 MLOAD SWAP1 POP PUSH2 0x1987 DUP2 PUSH2 0x16D1 JUMP JUMPDEST SWAP3 SWAP2 POP POP JUMP JUMPDEST PUSH0 PUSH1 0x20 DUP3 DUP5 SUB SLT ISZERO PUSH2 0x19A2 JUMPI PUSH2 0x19A1 PUSH2 0x1425 JUMP JUMPDEST JUMPDEST PUSH0 PUSH2 0x19AF DUP5 DUP3 DUP6 ADD PUSH2 0x1979 JUMP JUMPDEST SWAP2 POP POP SWAP3 SWAP2 POP POP JUMP JUMPDEST PUSH0 DUP2 MLOAD SWAP1 POP PUSH2 0x19C6 DUP2 PUSH2 0x1432 JUMP JUMPDEST SWAP3 SWAP2 POP POP JUMP JUMPDEST PUSH0 PUSH1 0x20 DUP3 DUP5 SUB SLT ISZERO PUSH2 0x19E1 JUMPI PUSH2 0x19E0 PUSH2 0x1425 JUMP JUMPDEST JUMPDEST PUSH0 PUSH2 0x19EE DUP5 DUP3 DUP6 ADD PUSH2 0x19B8 JUMP JUMPDEST SWAP2 POP POP SWAP3 SWAP2 POP POP JUMP JUMPDEST PUSH32 0x496E73756666696369656E74206163636F756E742062616C616E636500000000 PUSH0 DUP3 ADD MSTORE POP JUMP JUMPDEST PUSH0 PUSH2 0x1A2B PUSH1 0x1C DUP4 PUSH2 0x180A JUMP JUMPDEST SWAP2 POP PUSH2 0x1A36 DUP3 PUSH2 0x19F7 JUMP JUMPDEST PUSH1 0x20 DUP3 ADD SWAP1 POP SWAP2 SWAP1 POP JUMP JUMPDEST PUSH0 PUSH1 0x20 DUP3 ADD SWAP1 POP DUP2 DUP2 SUB PUSH0 DUP4 ADD MSTORE PUSH2 0x1A58 DUP2 PUSH2 0x1A1F JUMP JUMPDEST SWAP1 POP SWAP2 SWAP1 POP JUMP JUMPDEST PUSH0 PUSH1 0x60 DUP3 ADD SWAP1 POP PUSH2 0x1A72 PUSH0 DUP4 ADD DUP7 PUSH2 0x1726 JUMP JUMPDEST PUSH2 0x1A7F PUSH1 0x20 DUP4 ADD DUP6 PUSH2 0x1726 JUMP JUMPDEST PUSH2 0x1A8C PUSH1 0x40 DUP4 ADD DUP5 PUSH2 0x17B7 JUMP JUMPDEST SWAP5 SWAP4 POP POP POP POP JUMP JUMPDEST PUSH0 PUSH1 0x40 DUP3 ADD SWAP1 POP PUSH2 0x1AA7 PUSH0 DUP4 ADD DUP6 PUSH2 0x1726 JUMP JUMPDEST PUSH2 0x1AB4 PUSH1 0x20 DUP4 ADD DUP5 PUSH2 0x166B JUMP JUMPDEST SWAP4 SWAP3 POP POP POP JUMP JUMPDEST PUSH32 0x4E487B7100000000000000000000000000000000000000000000000000000000 PUSH0 MSTORE PUSH1 0x32 PUSH1 0x4 MSTORE PUSH1 0x24 PUSH0 REVERT JUMPDEST PUSH32 0x4E487B7100000000000000000000000000000000000000000000000000000000 PUSH0 MSTORE PUSH1 0x11 PUSH1 0x4 MSTORE PUSH1 0x24 PUSH0 REVERT JUMPDEST PUSH0 PUSH2 0x1B1F DUP3 PUSH2 0x1429 JUMP JUMPDEST SWAP2 POP PUSH2 0x1B2A DUP4 PUSH2 0x1429 JUMP JUMPDEST SWAP3 POP DUP3 DUP3 SUB SWAP1 POP DUP2 DUP2 GT ISZERO PUSH2 0x1B42 JUMPI PUSH2 0x1B41 PUSH2 0x1AE8 JUMP JUMPDEST JUMPDEST SWAP3 SWAP2 POP POP JUMP JUMPDEST PUSH32 0x4E487B7100000000000000000000000000000000000000000000000000000000 PUSH0 MSTORE PUSH1 0x31 PUSH1 0x4 MSTORE PUSH1 0x24 PUSH0 REVERT JUMPDEST PUSH0 DUP2 MLOAD SWAP1 POP SWAP2 SWAP1 POP JUMP JUMPDEST PUSH0 DUP2 SWAP1 POP SWAP3 SWAP2 POP POP JUMP JUMPDEST PUSH0 JUMPDEST DUP4 DUP2 LT ISZERO PUSH2 0x1BA6 JUMPI DUP1 DUP3 ADD MLOAD DUP2 DUP5 ADD MSTORE PUSH1 0x20 DUP2 ADD SWAP1 POP PUSH2 0x1B8B JUMP JUMPDEST PUSH0 DUP5 DUP5 ADD MSTORE POP POP POP POP JUMP JUMPDEST PUSH0 PUSH2 0x1BBB DUP3 PUSH2 0x1B75 JUMP JUMPDEST PUSH2 0x1BC5 DUP2 DUP6 PUSH2 0x1B7F JUMP JUMPDEST SWAP4 POP PUSH2 0x1BD5 DUP2 DUP6 PUSH1 0x20 DUP7 ADD PUSH2 0x1B89 JUMP JUMPDEST DUP1 DUP5 ADD SWAP2 POP POP SWAP3 SWAP2 POP POP JUMP JUMPDEST PUSH0 PUSH2 0x1BEC DUP3 DUP5 PUSH2 0x1BB1 JUMP JUMPDEST SWAP2 POP DUP2 SWAP1 POP SWAP3 SWAP2 POP POP JUMP INVALID LOG2 PUSH5 0x6970667358 0x22 SLT KECCAK256 PUSH8 0x6D310B994D1572D2 0xE4 0xEF DIV PUSH6 0x5D722D4EF7C7 0xF MULMOD 0x21 0x27 DUP11 0xC7 CALLER ADDMOD 0xC1 EXP 0xE9 RETURN 0xF7 PUSH5 0x736F6C6343 STOP ADDMOD EQ STOP CALLER "
				},
				"gasEstimates": {
					"creation": {
						"codeDepositCost": "1442600",
						"executionCost": "infinite",
						"totalCost": "infinite"
					},
					"external": {
						"DEFAULT_ADMIN_ROLE()": "397",
						"WITHDRAWER_ROLE()": "414",
						"deposit(uint256)": "infinite",
						"getRoleAdmin(bytes32)": "infinite",
						"getRoleMember(bytes32,uint256)": "infinite",
						"getRoleMemberCount(bytes32)": "2893",
						"grantRole(bytes32,address)": "infinite",
						"hasRole(bytes32,address)": "3167",
						"maxWithdrawAmount()": "2535",
						"owner()": "2626",
						"renounceOwnership()": "infinite",
						"renounceRole(bytes32,address)": "infinite",
						"revokeRole(bytes32,address)": "infinite",
						"setMaxWithdrawAmount(uint256)": "infinite",
						"setToken(address)": "infinite",
						"setWithdrawEnable(bool)": "infinite",
						"supportsInterface(bytes4)": "851",
						"transferOwnership(address)": "infinite",
						"withdraw(uint256,address)": "infinite",
						"withdrawEnable()": "2555"
					}
				},
				"methodIdentifiers": {
					"DEFAULT_ADMIN_ROLE()": "a217fddf",
					"WITHDRAWER_ROLE()": "85f438c1",
					"deposit(uint256)": "b6b55f25",
					"getRoleAdmin(bytes32)": "248a9ca3",
					"getRoleMember(bytes32,uint256)": "9010d07c",
					"getRoleMemberCount(bytes32)": "ca15c873",
					"grantRole(bytes32,address)": "2f2ff15d",
					"hasRole(bytes32,address)": "91d14854",
					"maxWithdrawAmount()": "f516440c",
					"owner()": "8da5cb5b",
					"renounceOwnership()": "715018a6",
					"renounceRole(bytes32,address)": "36568abe",
					"revokeRole(bytes32,address)": "d547741f",
					"setMaxWithdrawAmount(uint256)": "df74e028",
					"setToken(address)": "144fa6d7",
					"setWithdrawEnable(bool)": "827a560b",
					"supportsInterface(bytes4)": "01ffc9a7",
					"transferOwnership(address)": "f2fde38b",
					"withdraw(uint256,address)": "00f714ce",
					"withdrawEnable()": "b5b68afe"
				}
			},
			"storageLayout": {
				"storage": [
					{
						"astId": 387,
						"contract": "Vault.sol:Vault",
						"label": "_owner",
						"offset": 0,
						"slot": "0",
						"type": "t_address"
					},
					{
						"astId": 26,
						"contract": "Vault.sol:Vault",
						"label": "_roles",
						"offset": 0,
						"slot": "1",
						"type": "t_mapping(t_bytes32,t_struct(RoleData)21_storage)"
					},
					{
						"astId": 548,
						"contract": "Vault.sol:Vault",
						"label": "_roleMembers",
						"offset": 0,
						"slot": "2",
						"type": "t_mapping(t_bytes32,t_struct(AddressSet)1743_storage)"
					},
					{
						"astId": 2043,
						"contract": "Vault.sol:Vault",
						"label": "token",
						"offset": 0,
						"slot": "3",
						"type": "t_contract(IERC20)772"
					},
					{
						"astId": 2045,
						"contract": "Vault.sol:Vault",
						"label": "maxWithdrawAmount",
						"offset": 0,
						"slot": "4",
						"type": "t_uint256"
					},
					{
						"astId": 2047,
						"contract": "Vault.sol:Vault",
						"label": "withdrawEnable",
						"offset": 0,
						"slot": "5",
						"type": "t_bool"
					}
				],
				"types": {
					"t_address": {
						"encoding": "inplace",
						"label": "address",
						"numberOfBytes": "20"
					},
					"t_array(t_bytes32)dyn_storage": {
						"base": "t_bytes32",
						"encoding": "dynamic_array",
						"label": "bytes32[]",
						"numberOfBytes": "32"
					},
					"t_bool": {
						"encoding": "inplace",
						"label": "bool",
						"numberOfBytes": "1"
					},
					"t_bytes32": {
						"encoding": "inplace",
						"label": "bytes32",
						"numberOfBytes": "32"
					},
					"t_contract(IERC20)772": {
						"encoding": "inplace",
						"label": "contract IERC20",
						"numberOfBytes": "20"
					},
					"t_mapping(t_address,t_bool)": {
						"encoding": "mapping",
						"key": "t_address",
						"label": "mapping(address => bool)",
						"numberOfBytes": "32",
						"value": "t_bool"
					},
					"t_mapping(t_bytes32,t_struct(AddressSet)1743_storage)": {
						"encoding": "mapping",
						"key": "t_bytes32",
						"label": "mapping(bytes32 => struct EnumerableSet.AddressSet)",
						"numberOfBytes": "32",
						"value": "t_struct(AddressSet)1743_storage"
					},
					"t_mapping(t_bytes32,t_struct(RoleData)21_storage)": {
						"encoding": "mapping",
						"key": "t_bytes32",
						"label": "mapping(bytes32 => struct AccessControl.RoleData)",
						"numberOfBytes": "32",
						"value": "t_struct(RoleData)21_storage"
					},
					"t_mapping(t_bytes32,t_uint256)": {
						"encoding": "mapping",
						"key": "t_bytes32",
						"label": "mapping(bytes32 => uint256)",
						"numberOfBytes": "32",
						"value": "t_uint256"
					},
					"t_struct(AddressSet)1743_storage": {
						"encoding": "inplace",
						"label": "struct EnumerableSet.AddressSet",
						"members": [
							{
								"astId": 1742,
								"contract": "Vault.sol:Vault",
								"label": "_inner",
								"offset": 0,
								"slot": "0",
								"type": "t_struct(Set)1428_storage"
							}
						],
						"numberOfBytes": "64"
					},
					"t_struct(RoleData)21_storage": {
						"encoding": "inplace",
						"label": "struct AccessControl.RoleData",
						"members": [
							{
								"astId": 18,
								"contract": "Vault.sol:Vault",
								"label": "hasRole",
								"offset": 0,
								"slot": "0",
								"type": "t_mapping(t_address,t_bool)"
							},
							{
								"astId": 20,
								"contract": "Vault.sol:Vault",
								"label": "adminRole",
								"offset": 0,
								"slot": "1",
								"type": "t_bytes32"
							}
						],
						"numberOfBytes": "64"
					},
					"t_struct(Set)1428_storage": {
						"encoding": "inplace",
						"label": "struct EnumerableSet.Set",
						"members": [
							{
								"astId": 1423,
								"contract": "Vault.sol:Vault",
								"label": "_values",
								"offset": 0,
								"slot": "0",
								"type": "t_array(t_bytes32)dyn_storage"
							},
							{
								"astId": 1427,
								"contract": "Vault.sol:Vault",
								"label": "_positions",
								"offset": 0,
								"slot": "1",
								"type": "t_mapping(t_bytes32,t_uint256)"
							}
						],
						"numberOfBytes": "64"
					},
					"t_uint256": {
						"encoding": "inplace",
						"label": "uint256",
						"numberOfBytes": "32"
					}
				}
			},
			"userdoc": {
				"kind": "user",
				"methods": {},
				"version": 1
			}
		}
	}
}