{
	"data": {
		"bytecode": {
			"linkReferences": {},
			"object": "608060405234801562000010575f80fd5b506040516200195f3803806200195f833981810160405281019062000036919062000337565b845f73ffffffffffffffffffffffffffffffffffffffff168173ffffffffffffffffffffffffffffffffffffffff1603620000aa575f6040517f1e4fbdf7000000000000000000000000000000000000000000000000000000008152600401620000a19190620003cc565b60405180910390fd5b620000bb816200015560201b60201c565b508160015f6101000a81548173ffffffffffffffffffffffffffffffffffffffff021916908373ffffffffffffffffffffffffffffffffffffffff16021790555083600281905550826003819055508060045f6101000a81548173ffffffffffffffffffffffffffffffffffffffff021916908373ffffffffffffffffffffffffffffffffffffffff1602179055505050505050620003e7565b5f805f9054906101000a900473ffffffffffffffffffffffffffffffffffffffff169050815f806101000a81548173ffffffffffffffffffffffffffffffffffffffff021916908373ffffffffffffffffffffffffffffffffffffffff1602179055508173ffffffffffffffffffffffffffffffffffffffff168173ffffffffffffffffffffffffffffffffffffffff167f8be0079c531659141344cd1fd0a4f28419497f9722a3daafe3b4186f6b6457e060405160405180910390a35050565b5f80fd5b5f73ffffffffffffffffffffffffffffffffffffffff82169050919050565b5f62000245826200021a565b9050919050565b620002578162000239565b811462000262575f80fd5b50565b5f8151905062000275816200024c565b92915050565b5f819050919050565b6200028f816200027b565b81146200029a575f80fd5b50565b5f81519050620002ad8162000284565b92915050565b5f620002bf826200021a565b9050919050565b620002d181620002b3565b8114620002dc575f80fd5b50565b5f81519050620002ef81620002c6565b92915050565b5f620003018262000239565b9050919050565b6200031381620002f5565b81146200031e575f80fd5b50565b5f81519050620003318162000308565b92915050565b5f805f805f60a0868803121562000353576200035262000216565b5b5f620003628882890162000265565b955050602062000375888289016200029d565b945050604062000388888289016200029d565b93505060606200039b88828901620002df565b9250506080620003ae8882890162000321565b9150509295509295909350565b620003c68162000239565b82525050565b5f602082019050620003e15f830184620003bb565b92915050565b61156a80620003f55f395ff3fe6080604052600436106100f2575f3560e01c80638909a40f11610089578063c5d1565111610058578063c5d156511461029e578063e1e85189146102c6578063f2fde38b14610302578063fc0c546a1461032a576100f2565b80638909a40f146102165780638da5cb5b146102205780639cb7b9fc1461024a578063a98ad46c14610274576100f2565b80634bfe2779116100c55780634bfe277914610186578063592a00e4146101ae57806366e226bd146101d8578063715018a614610200576100f2565b80631832d8b6146100f65780631b4622d6146101325780633ccfd60b1461015a5780633e3f235914610170575b5f80fd5b348015610101575f80fd5b5061011c6004803603810190610117919061108f565b610354565b60405161012991906110c9565b60405180910390f35b34801561013d575f80fd5b506101586004803603810190610153919061108f565b61036a565b005b348015610165575f80fd5b5061016e6103b3565b005b34801561017b575f80fd5b50610184610401565b005b348015610191575f80fd5b506101ac60048036038101906101a7919061108f565b610540565b005b3480156101b9575f80fd5b506101c2610589565b6040516101cf91906110c9565b60405180910390f35b3480156101e3575f80fd5b506101fe60048036038101906101f9919061114d565b61058f565b005b34801561020b575f80fd5b50610214610611565b005b61021e610624565b005b34801561022b575f80fd5b50610234610879565b6040516102419190611187565b60405180910390f35b348015610255575f80fd5b5061025e6108a0565b60405161026b91906110c9565b60405180910390f35b34801561027f575f80fd5b506102886108a6565b60405161029591906111fb565b60405180910390f35b3480156102a9575f80fd5b506102c460048036038101906102bf919061108f565b6108cb565b005b3480156102d1575f80fd5b506102ec60048036038101906102e7919061108f565b610b05565b6040516102f991906110c9565b60405180910390f35b34801561030d575f80fd5b506103286004803603810190610323919061123e565b610b1b565b005b348015610335575f80fd5b5061033e610b9f565b60405161034b91906111fb565b60405180910390f35b5f600354826103639190611296565b9050919050565b610372610bc4565b806003819055507fbdaa37e3f6679857d8c3e80d172bd45af732a8658cf1d690c81ca96f5a443b5b816040516103a891906110c9565b60405180910390a150565b6103bb610bc4565b3373ffffffffffffffffffffffffffffffffffffffff166108fc4790811502906040515f60405180830381858888f193505050501580156103fe573d5f803e3d5ffd5b50565b610409610bc4565b60055f9054906101000a900473ffffffffffffffffffffffffffffffffffffffff1673ffffffffffffffffffffffffffffffffffffffff1663a9059cbb3360055f9054906101000a900473ffffffffffffffffffffffffffffffffffffffff1673ffffffffffffffffffffffffffffffffffffffff166370a08231306040518263ffffffff1660e01b81526004016104a19190611187565b602060405180830381865afa1580156104bc573d5f803e3d5ffd5b505050506040513d601f19601f820116820180604052508101906104e091906112eb565b6040518363ffffffff1660e01b81526004016104fd929190611316565b6020604051808303815f875af1158015610519573d5f803e3d5ffd5b505050506040513d601f19601f8201168201806040525081019061053d9190611372565b50565b610548610bc4565b806002819055507fd6f234ccd3d6bc89db22f04e915efd024c0f4bddfaa8393e570fff7e3e3dec978160405161057e91906110c9565b60405180910390a150565b60035481565b610597610bc4565b8060055f6101000a81548173ffffffffffffffffffffffffffffffffffffffff021916908373ffffffffffffffffffffffffffffffffffffffff1602179055507f43036333e58a6f9255617b54ec9f5825590c8ee695a222dc35e5001927f071518160405161060691906111fb565b60405180910390a150565b610619610bc4565b6106225f610c4b565b565b5f3490505f61063282610b05565b90505f8111610676576040517f08c379a000000000000000000000000000000000000000000000000000000000815260040161066d906113f7565b60405180910390fd5b8060045f9054906101000a900473ffffffffffffffffffffffffffffffffffffffff1673ffffffffffffffffffffffffffffffffffffffff166370a08231306040518263ffffffff1660e01b81526004016106d19190611187565b602060405180830381865afa1580156106ec573d5f803e3d5ffd5b505050506040513d601f19601f8201168201806040525081019061071091906112eb565b1015610751576040517f08c379a00000000000000000000000000000000000000000000000000000000081526004016107489061145f565b60405180910390fd5b813373ffffffffffffffffffffffffffffffffffffffff163110156107ab576040517f08c379a00000000000000000000000000000000000000000000000000000000081526004016107a29061145f565b60405180910390fd5b60015f9054906101000a900473ffffffffffffffffffffffffffffffffffffffff1673ffffffffffffffffffffffffffffffffffffffff166108fc8390811502906040515f60405180830381858888f1935050505015801561080f573d5f803e3d5ffd5b5061083c60045f9054906101000a900473ffffffffffffffffffffffffffffffffffffffff163383610d0c565b7fbab06efe910ba7896db8b04299fef8209e3d94545ac7115a3d064449381337bc338260405161086d929190611316565b60405180910390a15050565b5f805f9054906101000a900473ffffffffffffffffffffffffffffffffffffffff16905090565b60025481565b60055f9054906101000a900473ffffffffffffffffffffffffffffffffffffffff1681565b5f6108d582610354565b9050813373ffffffffffffffffffffffffffffffffffffffff16311015610931576040517f08c379a00000000000000000000000000000000000000000000000000000000081526004016109289061145f565b60405180910390fd5b5f8111610973576040517f08c379a000000000000000000000000000000000000000000000000000000000815260040161096a906113f7565b60405180910390fd5b8060045f9054906101000a900473ffffffffffffffffffffffffffffffffffffffff1673ffffffffffffffffffffffffffffffffffffffff166370a08231306040518263ffffffff1660e01b81526004016109ce9190611187565b602060405180830381865afa1580156109e9573d5f803e3d5ffd5b505050506040513d601f19601f82011682018060405250810190610a0d91906112eb565b1015610a4e576040517f08c379a0000000000000000000000000000000000000000000000000000000008152600401610a459061145f565b60405180910390fd5b610a9c60055f9054906101000a900473ffffffffffffffffffffffffffffffffffffffff163360015f9054906101000a900473ffffffffffffffffffffffffffffffffffffffff1685610d8b565b610ac860045f9054906101000a900473ffffffffffffffffffffffffffffffffffffffff163383610d0c565b7f5c0161fad3fa89cfebd4a74115d9f81661cdd1b9008d05a238ea9d65088e20643382604051610af9929190611316565b60405180910390a15050565b5f60025482610b149190611296565b9050919050565b610b23610bc4565b5f73ffffffffffffffffffffffffffffffffffffffff168173ffffffffffffffffffffffffffffffffffffffff1603610b93575f6040517f1e4fbdf7000000000000000000000000000000000000000000000000000000008152600401610b8a9190611187565b60405180910390fd5b610b9c81610c4b565b50565b60045f9054906101000a900473ffffffffffffffffffffffffffffffffffffffff1681565b610bcc610e0d565b73ffffffffffffffffffffffffffffffffffffffff16610bea610879565b73ffffffffffffffffffffffffffffffffffffffff1614610c4957610c0d610e0d565b6040517f118cdaa7000000000000000000000000000000000000000000000000000000008152600401610c409190611187565b60405180910390fd5b565b5f805f9054906101000a900473ffffffffffffffffffffffffffffffffffffffff169050815f806101000a81548173ffffffffffffffffffffffffffffffffffffffff021916908373ffffffffffffffffffffffffffffffffffffffff1602179055508173ffffffffffffffffffffffffffffffffffffffff168173ffffffffffffffffffffffffffffffffffffffff167f8be0079c531659141344cd1fd0a4f28419497f9722a3daafe3b4186f6b6457e060405160405180910390a35050565b610d86838473ffffffffffffffffffffffffffffffffffffffff1663a9059cbb8585604051602401610d3f929190611316565b604051602081830303815290604052915060e01b6020820180517bffffffffffffffffffffffffffffffffffffffffffffffffffffffff8381831617835250505050610e14565b505050565b610e07848573ffffffffffffffffffffffffffffffffffffffff166323b872dd868686604051602401610dc09392919061147d565b604051602081830303815290604052915060e01b6020820180517bffffffffffffffffffffffffffffffffffffffffffffffffffffffff8381831617835250505050610e14565b50505050565b5f33905090565b5f610e3e828473ffffffffffffffffffffffffffffffffffffffff16610ea990919063ffffffff16565b90505f815114158015610e62575080806020019051810190610e609190611372565b155b15610ea457826040517f5274afe7000000000000000000000000000000000000000000000000000000008152600401610e9b9190611187565b60405180910390fd5b505050565b6060610eb683835f610ebe565b905092915050565b606081471015610f0557306040517fcd786059000000000000000000000000000000000000000000000000000000008152600401610efc9190611187565b60405180910390fd5b5f808573ffffffffffffffffffffffffffffffffffffffff168486604051610f2d919061151e565b5f6040518083038185875af1925050503d805f8114610f67576040519150601f19603f3d011682016040523d82523d5f602084013e610f6c565b606091505b5091509150610f7c868383610f87565b925050509392505050565b606082610f9c57610f9782611014565b61100c565b5f8251148015610fc257505f8473ffffffffffffffffffffffffffffffffffffffff163b145b1561100457836040517f9996b315000000000000000000000000000000000000000000000000000000008152600401610ffb9190611187565b60405180910390fd5b81905061100d565b5b9392505050565b5f815111156110265780518082602001fd5b6040517f1425ea4200000000000000000000000000000000000000000000000000000000815260040160405180910390fd5b5f80fd5b5f819050919050565b61106e8161105c565b8114611078575f80fd5b50565b5f8135905061108981611065565b92915050565b5f602082840312156110a4576110a3611058565b5b5f6110b18482850161107b565b91505092915050565b6110c38161105c565b82525050565b5f6020820190506110dc5f8301846110ba565b92915050565b5f73ffffffffffffffffffffffffffffffffffffffff82169050919050565b5f61110b826110e2565b9050919050565b5f61111c82611101565b9050919050565b61112c81611112565b8114611136575f80fd5b50565b5f8135905061114781611123565b92915050565b5f6020828403121561116257611161611058565b5b5f61116f84828501611139565b91505092915050565b61118181611101565b82525050565b5f60208201905061119a5f830184611178565b92915050565b5f819050919050565b5f6111c36111be6111b9846110e2565b6111a0565b6110e2565b9050919050565b5f6111d4826111a9565b9050919050565b5f6111e5826111ca565b9050919050565b6111f5816111db565b82525050565b5f60208201905061120e5f8301846111ec565b92915050565b61121d81611101565b8114611227575f80fd5b50565b5f8135905061123881611214565b92915050565b5f6020828403121561125357611252611058565b5b5f6112608482850161122a565b91505092915050565b7f4e487b71000000000000000000000000000000000000000000000000000000005f52601160045260245ffd5b5f6112a08261105c565b91506112ab8361105c565b92508282026112b98161105c565b915082820484148315176112d0576112cf611269565b5b5092915050565b5f815190506112e581611065565b92915050565b5f60208284031215611300576112ff611058565b5b5f61130d848285016112d7565b91505092915050565b5f6040820190506113295f830185611178565b61133660208301846110ba565b9392505050565b5f8115159050919050565b6113518161133d565b811461135b575f80fd5b50565b5f8151905061136c81611348565b92915050565b5f6020828403121561138757611386611058565b5b5f6113948482850161135e565b91505092915050565b5f82825260208201905092915050565b7f416d6f756e74206973207a65726f0000000000000000000000000000000000005f82015250565b5f6113e1600e8361139d565b91506113ec826113ad565b602082019050919050565b5f6020820190508181035f83015261140e816113d5565b9050919050565b7f496e73756666696369656e74206163636f756e742062616c616e6365000000005f82015250565b5f611449601c8361139d565b915061145482611415565b602082019050919050565b5f6020820190508181035f8301526114768161143d565b9050919050565b5f6060820190506114905f830186611178565b61149d6020830185611178565b6114aa60408301846110ba565b949350505050565b5f81519050919050565b5f81905092915050565b5f5b838110156114e35780820151818401526020810190506114c8565b5f8484015250505050565b5f6114f8826114b2565b61150281856114bc565b93506115128185602086016114c6565b80840191505092915050565b5f61152982846114ee565b91508190509291505056fea2646970667358221220b62fc09e0297696640d7de3d93976291dfb4f8b15395de217f0477735523572864736f6c63430008140033",
			"opcodes": "PUSH1 0x80 PUSH1 0x40 MSTORE CALLVALUE DUP1 ISZERO PUSH3 0x10 JUMPI PUSH0 DUP1 REVERT JUMPDEST POP PUSH1 0x40 MLOAD PUSH3 0x195F CODESIZE SUB DUP1 PUSH3 0x195F DUP4 CODECOPY DUP2 DUP2 ADD PUSH1 0x40 MSTORE DUP2 ADD SWAP1 PUSH3 0x36 SWAP2 SWAP1 PUSH3 0x337 JUMP JUMPDEST DUP5 PUSH0 PUSH20 0xFFFFFFFFFFFFFFFFFFFFFFFFFFFFFFFFFFFFFFFF AND DUP2 PUSH20 0xFFFFFFFFFFFFFFFFFFFFFFFFFFFFFFFFFFFFFFFF AND SUB PUSH3 0xAA JUMPI PUSH0 PUSH1 0x40 MLOAD PUSH32 0x1E4FBDF700000000000000000000000000000000000000000000000000000000 DUP2 MSTORE PUSH1 0x4 ADD PUSH3 0xA1 SWAP2 SWAP1 PUSH3 0x3CC JUMP JUMPDEST PUSH1 0x40 MLOAD DUP1 SWAP2 SUB SWAP1 REVERT JUMPDEST PUSH3 0xBB DUP2 PUSH3 0x155 PUSH1 0x20 SHL PUSH1 0x20 SHR JUMP JUMPDEST POP DUP2 PUSH1 0x1 PUSH0 PUSH2 0x100 EXP DUP2 SLOAD DUP2 PUSH20 0xFFFFFFFFFFFFFFFFFFFFFFFFFFFFFFFFFFFFFFFF MUL NOT AND SWAP1 DUP4 PUSH20 0xFFFFFFFFFFFFFFFFFFFFFFFFFFFFFFFFFFFFFFFF AND MUL OR SWAP1 SSTORE POP DUP4 PUSH1 0x2 DUP2 SWAP1 SSTORE POP DUP3 PUSH1 0x3 DUP2 SWAP1 SSTORE POP DUP1 PUSH1 0x4 PUSH0 PUSH2 0x100 EXP DUP2 SLOAD DUP2 PUSH20 0xFFFFFFFFFFFFFFFFFFFFFFFFFFFFFFFFFFFFFFFF MUL NOT AND SWAP1 DUP4 PUSH20 0xFFFFFFFFFFFFFFFFFFFFFFFFFFFFFFFFFFFFFFFF AND MUL OR SWAP1 SSTORE POP POP POP POP POP POP PUSH3 0x3E7 JUMP JUMPDEST PUSH0 DUP1 PUSH0 SWAP1 SLOAD SWAP1 PUSH2 0x100 EXP SWAP1 DIV PUSH20 0xFFFFFFFFFFFFFFFFFFFFFFFFFFFFFFFFFFFFFFFF AND SWAP1 POP DUP2 PUSH0 DUP1 PUSH2 0x100 EXP DUP2 SLOAD DUP2 PUSH20 0xFFFFFFFFFFFFFFFFFFFFFFFFFFFFFFFFFFFFFFFF MUL NOT AND SWAP1 DUP4 PUSH20 0xFFFFFFFFFFFFFFFFFFFFFFFFFFFFFFFFFFFFFFFF AND MUL OR SWAP1 SSTORE POP DUP2 PUSH20 0xFFFFFFFFFFFFFFFFFFFFFFFFFFFFFFFFFFFFFFFF AND DUP2 PUSH20 0xFFFFFFFFFFFFFFFFFFFFFFFFFFFFFFFFFFFFFFFF AND PUSH32 0x8BE0079C531659141344CD1FD0A4F28419497F9722A3DAAFE3B4186F6B6457E0 PUSH1 0x40 MLOAD PUSH1 0x40 MLOAD DUP1 SWAP2 SUB SWAP1 LOG3 POP POP JUMP JUMPDEST PUSH0 DUP1 REVERT JUMPDEST PUSH0 PUSH20 0xFFFFFFFFFFFFFFFFFFFFFFFFFFFFFFFFFFFFFFFF DUP3 AND SWAP1 POP SWAP2 SWAP1 POP JUMP JUMPDEST PUSH0 PUSH3 0x245 DUP3 PUSH3 0x21A JUMP JUMPDEST SWAP1 POP SWAP2 SWAP1 POP JUMP JUMPDEST PUSH3 0x257 DUP2 PUSH3 0x239 JUMP JUMPDEST DUP2 EQ PUSH3 0x262 JUMPI PUSH0 DUP1 REVERT JUMPDEST POP JUMP JUMPDEST PUSH0 DUP2 MLOAD SWAP1 POP PUSH3 0x275 DUP2 PUSH3 0x24C JUMP JUMPDEST SWAP3 SWAP2 POP POP JUMP JUMPDEST PUSH0 DUP2 SWAP1 POP SWAP2 SWAP1 POP JUMP JUMPDEST PUSH3 0x28F DUP2 PUSH3 0x27B JUMP JUMPDEST DUP2 EQ PUSH3 0x29A JUMPI PUSH0 DUP1 REVERT JUMPDEST POP JUMP JUMPDEST PUSH0 DUP2 MLOAD SWAP1 POP PUSH3 0x2AD DUP2 PUSH3 0x284 JUMP JUMPDEST SWAP3 SWAP2 POP POP JUMP JUMPDEST PUSH0 PUSH3 0x2BF DUP3 PUSH3 0x21A JUMP JUMPDEST SWAP1 POP SWAP2 SWAP1 POP JUMP JUMPDEST PUSH3 0x2D1 DUP2 PUSH3 0x2B3 JUMP JUMPDEST DUP2 EQ PUSH3 0x2DC JUMPI PUSH0 DUP1 REVERT JUMPDEST POP JUMP JUMPDEST PUSH0 DUP2 MLOAD SWAP1 POP PUSH3 0x2EF DUP2 PUSH3 0x2C6 JUMP JUMPDEST SWAP3 SWAP2 POP POP JUMP JUMPDEST PUSH0 PUSH3 0x301 DUP3 PUSH3 0x239 JUMP JUMPDEST SWAP1 POP SWAP2 SWAP1 POP JUMP JUMPDEST PUSH3 0x313 DUP2 PUSH3 0x2F5 JUMP JUMPDEST DUP2 EQ PUSH3 0x31E JUMPI PUSH0 DUP1 REVERT JUMPDEST POP JUMP JUMPDEST PUSH0 DUP2 MLOAD SWAP1 POP PUSH3 0x331 DUP2 PUSH3 0x308 JUMP JUMPDEST SWAP3 SWAP2 POP POP JUMP JUMPDEST PUSH0 DUP1 PUSH0 DUP1 PUSH0 PUSH1 0xA0 DUP7 DUP9 SUB SLT ISZERO PUSH3 0x353 JUMPI PUSH3 0x352 PUSH3 0x216 JUMP JUMPDEST JUMPDEST PUSH0 PUSH3 0x362 DUP9 DUP3 DUP10 ADD PUSH3 0x265 JUMP JUMPDEST SWAP6 POP POP PUSH1 0x20 PUSH3 0x375 DUP9 DUP3 DUP10 ADD PUSH3 0x29D JUMP JUMPDEST SWAP5 POP POP PUSH1 0x40 PUSH3 0x388 DUP9 DUP3 DUP10 ADD PUSH3 0x29D JUMP JUMPDEST SWAP4 POP POP PUSH1 0x60 PUSH3 0x39B DUP9 DUP3 DUP10 ADD PUSH3 0x2DF JUMP JUMPDEST SWAP3 POP POP PUSH1 0x80 PUSH3 0x3AE DUP9 DUP3 DUP10 ADD PUSH3 0x321 JUMP JUMPDEST SWAP2 POP POP SWAP3 SWAP6 POP SWAP3 SWAP6 SWAP1 SWAP4 POP JUMP JUMPDEST PUSH3 0x3C6 DUP2 PUSH3 0x239 JUMP JUMPDEST DUP3 MSTORE POP POP JUMP JUMPDEST PUSH0 PUSH1 0x20 DUP3 ADD SWAP1 POP PUSH3 0x3E1 PUSH0 DUP4 ADD DUP5 PUSH3 0x3BB JUMP JUMPDEST SWAP3 SWAP2 POP POP JUMP JUMPDEST PUSH2 0x156A DUP1 PUSH3 0x3F5 PUSH0 CODECOPY PUSH0 RETURN INVALID PUSH1 0x80 PUSH1 0x40 MSTORE PUSH1 0x4 CALLDATASIZE LT PUSH2 0xF2 JUMPI PUSH0 CALLDATALOAD PUSH1 0xE0 SHR DUP1 PUSH4 0x8909A40F GT PUSH2 0x89 JUMPI DUP1 PUSH4 0xC5D15651 GT PUSH2 0x58 JUMPI DUP1 PUSH4 0xC5D15651 EQ PUSH2 0x29E JUMPI DUP1 PUSH4 0xE1E85189 EQ PUSH2 0x2C6 JUMPI DUP1 PUSH4 0xF2FDE38B EQ PUSH2 0x302 JUMPI DUP1 PUSH4 0xFC0C546A EQ PUSH2 0x32A JUMPI PUSH2 0xF2 JUMP JUMPDEST DUP1 PUSH4 0x8909A40F EQ PUSH2 0x216 JUMPI DUP1 PUSH4 0x8DA5CB5B EQ PUSH2 0x220 JUMPI DUP1 PUSH4 0x9CB7B9FC EQ PUSH2 0x24A JUMPI DUP1 PUSH4 0xA98AD46C EQ PUSH2 0x274 JUMPI PUSH2 0xF2 JUMP JUMPDEST DUP1 PUSH4 0x4BFE2779 GT PUSH2 0xC5 JUMPI DUP1 PUSH4 0x4BFE2779 EQ PUSH2 0x186 JUMPI DUP1 PUSH4 0x592A00E4 EQ PUSH2 0x1AE JUMPI DUP1 PUSH4 0x66E226BD EQ PUSH2 0x1D8 JUMPI DUP1 PUSH4 0x715018A6 EQ PUSH2 0x200 JUMPI PUSH2 0xF2 JUMP JUMPDEST DUP1 PUSH4 0x1832D8B6 EQ PUSH2 0xF6 JUMPI DUP1 PUSH4 0x1B4622D6 EQ PUSH2 0x132 JUMPI DUP1 PUSH4 0x3CCFD60B EQ PUSH2 0x15A JUMPI DUP1 PUSH4 0x3E3F2359 EQ PUSH2 0x170 JUMPI JUMPDEST PUSH0 DUP1 REVERT JUMPDEST CALLVALUE DUP1 ISZERO PUSH2 0x101 JUMPI PUSH0 DUP1 REVERT JUMPDEST POP PUSH2 0x11C PUSH1 0x4 DUP1 CALLDATASIZE SUB DUP2 ADD SWAP1 PUSH2 0x117 SWAP2 SWAP1 PUSH2 0x108F JUMP JUMPDEST PUSH2 0x354 JUMP JUMPDEST PUSH1 0x40 MLOAD PUSH2 0x129 SWAP2 SWAP1 PUSH2 0x10C9 JUMP JUMPDEST PUSH1 0x40 MLOAD DUP1 SWAP2 SUB SWAP1 RETURN JUMPDEST CALLVALUE DUP1 ISZERO PUSH2 0x13D JUMPI PUSH0 DUP1 REVERT JUMPDEST POP PUSH2 0x158 PUSH1 0x4 DUP1 CALLDATASIZE SUB DUP2 ADD SWAP1 PUSH2 0x153 SWAP2 SWAP1 PUSH2 0x108F JUMP JUMPDEST PUSH2 0x36A JUMP JUMPDEST STOP JUMPDEST CALLVALUE DUP1 ISZERO PUSH2 0x165 JUMPI PUSH0 DUP1 REVERT JUMPDEST POP PUSH2 0x16E PUSH2 0x3B3 JUMP JUMPDEST STOP JUMPDEST CALLVALUE DUP1 ISZERO PUSH2 0x17B JUMPI PUSH0 DUP1 REVERT JUMPDEST POP PUSH2 0x184 PUSH2 0x401 JUMP JUMPDEST STOP JUMPDEST CALLVALUE DUP1 ISZERO PUSH2 0x191 JUMPI PUSH0 DUP1 REVERT JUMPDEST POP PUSH2 0x1AC PUSH1 0x4 DUP1 CALLDATASIZE SUB DUP2 ADD SWAP1 PUSH2 0x1A7 SWAP2 SWAP1 PUSH2 0x108F JUMP JUMPDEST PUSH2 0x540 JUMP JUMPDEST STOP JUMPDEST CALLVALUE DUP1 ISZERO PUSH2 0x1B9 JUMPI PUSH0 DUP1 REVERT JUMPDEST POP PUSH2 0x1C2 PUSH2 0x589 JUMP JUMPDEST PUSH1 0x40 MLOAD PUSH2 0x1CF SWAP2 SWAP1 PUSH2 0x10C9 JUMP JUMPDEST PUSH1 0x40 MLOAD DUP1 SWAP2 SUB SWAP1 RETURN JUMPDEST CALLVALUE DUP1 ISZERO PUSH2 0x1E3 JUMPI PUSH0 DUP1 REVERT JUMPDEST POP PUSH2 0x1FE PUSH1 0x4 DUP1 CALLDATASIZE SUB DUP2 ADD SWAP1 PUSH2 0x1F9 SWAP2 SWAP1 PUSH2 0x114D JUMP JUMPDEST PUSH2 0x58F JUMP JUMPDEST STOP JUMPDEST CALLVALUE DUP1 ISZERO PUSH2 0x20B JUMPI PUSH0 DUP1 REVERT JUMPDEST POP PUSH2 0x214 PUSH2 0x611 JUMP JUMPDEST STOP JUMPDEST PUSH2 0x21E PUSH2 0x624 JUMP JUMPDEST STOP JUMPDEST CALLVALUE DUP1 ISZERO PUSH2 0x22B JUMPI PUSH0 DUP1 REVERT JUMPDEST POP PUSH2 0x234 PUSH2 0x879 JUMP JUMPDEST PUSH1 0x40 MLOAD PUSH2 0x241 SWAP2 SWAP1 PUSH2 0x1187 JUMP JUMPDEST PUSH1 0x40 MLOAD DUP1 SWAP2 SUB SWAP1 RETURN JUMPDEST CALLVALUE DUP1 ISZERO PUSH2 0x255 JUMPI PUSH0 DUP1 REVERT JUMPDEST POP PUSH2 0x25E PUSH2 0x8A0 JUMP JUMPDEST PUSH1 0x40 MLOAD PUSH2 0x26B SWAP2 SWAP1 PUSH2 0x10C9 JUMP JUMPDEST PUSH1 0x40 MLOAD DUP1 SWAP2 SUB SWAP1 RETURN JUMPDEST CALLVALUE DUP1 ISZERO PUSH2 0x27F JUMPI PUSH0 DUP1 REVERT JUMPDEST POP PUSH2 0x288 PUSH2 0x8A6 JUMP JUMPDEST PUSH1 0x40 MLOAD PUSH2 0x295 SWAP2 SWAP1 PUSH2 0x11FB JUMP JUMPDEST PUSH1 0x40 MLOAD DUP1 SWAP2 SUB SWAP1 RETURN JUMPDEST CALLVALUE DUP1 ISZERO PUSH2 0x2A9 JUMPI PUSH0 DUP1 REVERT JUMPDEST POP PUSH2 0x2C4 PUSH1 0x4 DUP1 CALLDATASIZE SUB DUP2 ADD SWAP1 PUSH2 0x2BF SWAP2 SWAP1 PUSH2 0x108F JUMP JUMPDEST PUSH2 0x8CB JUMP JUMPDEST STOP JUMPDEST CALLVALUE DUP1 ISZERO PUSH2 0x2D1 JUMPI PUSH0 DUP1 REVERT JUMPDEST POP PUSH2 0x2EC PUSH1 0x4 DUP1 CALLDATASIZE SUB DUP2 ADD SWAP1 PUSH2 0x2E7 SWAP2 SWAP1 PUSH2 0x108F JUMP JUMPDEST PUSH2 0xB05 JUMP JUMPDEST PUSH1 0x40 MLOAD PUSH2 0x2F9 SWAP2 SWAP1 PUSH2 0x10C9 JUMP JUMPDEST PUSH1 0x40 MLOAD DUP1 SWAP2 SUB SWAP1 RETURN JUMPDEST CALLVALUE DUP1 ISZERO PUSH2 0x30D JUMPI PUSH0 DUP1 REVERT JUMPDEST POP PUSH2 0x328 PUSH1 0x4 DUP1 CALLDATASIZE SUB DUP2 ADD SWAP1 PUSH2 0x323 SWAP2 SWAP1 PUSH2 0x123E JUMP JUMPDEST PUSH2 0xB1B JUMP JUMPDEST STOP JUMPDEST CALLVALUE DUP1 ISZERO PUSH2 0x335 JUMPI PUSH0 DUP1 REVERT JUMPDEST POP PUSH2 0x33E PUSH2 0xB9F JUMP JUMPDEST PUSH1 0x40 MLOAD PUSH2 0x34B SWAP2 SWAP1 PUSH2 0x11FB JUMP JUMPDEST PUSH1 0x40 MLOAD DUP1 SWAP2 SUB SWAP1 RETURN JUMPDEST PUSH0 PUSH1 0x3 SLOAD DUP3 PUSH2 0x363 SWAP2 SWAP1 PUSH2 0x1296 JUMP JUMPDEST SWAP1 POP SWAP2 SWAP1 POP JUMP JUMPDEST PUSH2 0x372 PUSH2 0xBC4 JUMP JUMPDEST DUP1 PUSH1 0x3 DUP2 SWAP1 SSTORE POP PUSH32 0xBDAA37E3F6679857D8C3E80D172BD45AF732A8658CF1D690C81CA96F5A443B5B DUP2 PUSH1 0x40 MLOAD PUSH2 0x3A8 SWAP2 SWAP1 PUSH2 0x10C9 JUMP JUMPDEST PUSH1 0x40 MLOAD DUP1 SWAP2 SUB SWAP1 LOG1 POP JUMP JUMPDEST PUSH2 0x3BB PUSH2 0xBC4 JUMP JUMPDEST CALLER PUSH20 0xFFFFFFFFFFFFFFFFFFFFFFFFFFFFFFFFFFFFFFFF AND PUSH2 0x8FC SELFBALANCE SWAP1 DUP2 ISZERO MUL SWAP1 PUSH1 0x40 MLOAD PUSH0 PUSH1 0x40 MLOAD DUP1 DUP4 SUB DUP2 DUP6 DUP9 DUP9 CALL SWAP4 POP POP POP POP ISZERO DUP1 ISZERO PUSH2 0x3FE JUMPI RETURNDATASIZE PUSH0 DUP1 RETURNDATACOPY RETURNDATASIZE PUSH0 REVERT JUMPDEST POP JUMP JUMPDEST PUSH2 0x409 PUSH2 0xBC4 JUMP JUMPDEST PUSH1 0x5 PUSH0 SWAP1 SLOAD SWAP1 PUSH2 0x100 EXP SWAP1 DIV PUSH20 0xFFFFFFFFFFFFFFFFFFFFFFFFFFFFFFFFFFFFFFFF AND PUSH20 0xFFFFFFFFFFFFFFFFFFFFFFFFFFFFFFFFFFFFFFFF AND PUSH4 0xA9059CBB CALLER PUSH1 0x5 PUSH0 SWAP1 SLOAD SWAP1 PUSH2 0x100 EXP SWAP1 DIV PUSH20 0xFFFFFFFFFFFFFFFFFFFFFFFFFFFFFFFFFFFFFFFF AND PUSH20 0xFFFFFFFFFFFFFFFFFFFFFFFFFFFFFFFFFFFFFFFF AND PUSH4 0x70A08231 ADDRESS PUSH1 0x40 MLOAD DUP3 PUSH4 0xFFFFFFFF AND PUSH1 0xE0 SHL DUP2 MSTORE PUSH1 0x4 ADD PUSH2 0x4A1 SWAP2 SWAP1 PUSH2 0x1187 JUMP JUMPDEST PUSH1 0x20 PUSH1 0x40 MLOAD DUP1 DUP4 SUB DUP2 DUP7 GAS STATICCALL ISZERO DUP1 ISZERO PUSH2 0x4BC JUMPI RETURNDATASIZE PUSH0 DUP1 RETURNDATACOPY RETURNDATASIZE PUSH0 REVERT JUMPDEST POP POP POP POP PUSH1 0x40 MLOAD RETURNDATASIZE PUSH1 0x1F NOT PUSH1 0x1F DUP3 ADD AND DUP3 ADD DUP1 PUSH1 0x40 MSTORE POP DUP2 ADD SWAP1 PUSH2 0x4E0 SWAP2 SWAP1 PUSH2 0x12EB JUMP JUMPDEST PUSH1 0x40 MLOAD DUP4 PUSH4 0xFFFFFFFF AND PUSH1 0xE0 SHL DUP2 MSTORE PUSH1 0x4 ADD PUSH2 0x4FD SWAP3 SWAP2 SWAP1 PUSH2 0x1316 JUMP JUMPDEST PUSH1 0x20 PUSH1 0x40 MLOAD DUP1 DUP4 SUB DUP2 PUSH0 DUP8 GAS CALL ISZERO DUP1 ISZERO PUSH2 0x519 JUMPI RETURNDATASIZE PUSH0 DUP1 RETURNDATACOPY RETURNDATASIZE PUSH0 REVERT JUMPDEST POP POP POP POP PUSH1 0x40 MLOAD RETURNDATASIZE PUSH1 0x1F NOT PUSH1 0x1F DUP3 ADD AND DUP3 ADD DUP1 PUSH1 0x40 MSTORE POP DUP2 ADD SWAP1 PUSH2 0x53D SWAP2 SWAP1 PUSH2 0x1372 JUMP JUMPDEST POP JUMP JUMPDEST PUSH2 0x548 PUSH2 0xBC4 JUMP JUMPDEST DUP1 PUSH1 0x2 DUP2 SWAP1 SSTORE POP PUSH32 0xD6F234CCD3D6BC89DB22F04E915EFD024C0F4BDDFAA8393E570FFF7E3E3DEC97 DUP2 PUSH1 0x40 MLOAD PUSH2 0x57E SWAP2 SWAP1 PUSH2 0x10C9 JUMP JUMPDEST PUSH1 0x40 MLOAD DUP1 SWAP2 SUB SWAP1 LOG1 POP JUMP JUMPDEST PUSH1 0x3 SLOAD DUP2 JUMP JUMPDEST PUSH2 0x597 PUSH2 0xBC4 JUMP JUMPDEST DUP1 PUSH1 0x5 PUSH0 PUSH2 0x100 EXP DUP2 SLOAD DUP2 PUSH20 0xFFFFFFFFFFFFFFFFFFFFFFFFFFFFFFFFFFFFFFFF MUL NOT AND SWAP1 DUP4 PUSH20 0xFFFFFFFFFFFFFFFFFFFFFFFFFFFFFFFFFFFFFFFF AND MUL OR SWAP1 SSTORE POP PUSH32 0x43036333E58A6F9255617B54EC9F5825590C8EE695A222DC35E5001927F07151 DUP2 PUSH1 0x40 MLOAD PUSH2 0x606 SWAP2 SWAP1 PUSH2 0x11FB JUMP JUMPDEST PUSH1 0x40 MLOAD DUP1 SWAP2 SUB SWAP1 LOG1 POP JUMP JUMPDEST PUSH2 0x619 PUSH2 0xBC4 JUMP JUMPDEST PUSH2 0x622 PUSH0 PUSH2 0xC4B JUMP JUMPDEST JUMP JUMPDEST PUSH0 CALLVALUE SWAP1 POP PUSH0 PUSH2 0x632 DUP3 PUSH2 0xB05 JUMP JUMPDEST SWAP1 POP PUSH0 DUP2 GT PUSH2 0x676 JUMPI PUSH1 0x40 MLOAD PUSH32 0x8C379A000000000000000000000000000000000000000000000000000000000 DUP2 MSTORE PUSH1 0x4 ADD PUSH2 0x66D SWAP1 PUSH2 0x13F7 JUMP JUMPDEST PUSH1 0x40 MLOAD DUP1 SWAP2 SUB SWAP1 REVERT JUMPDEST DUP1 PUSH1 0x4 PUSH0 SWAP1 SLOAD SWAP1 PUSH2 0x100 EXP SWAP1 DIV PUSH20 0xFFFFFFFFFFFFFFFFFFFFFFFFFFFFFFFFFFFFFFFF AND PUSH20 0xFFFFFFFFFFFFFFFFFFFFFFFFFFFFFFFFFFFFFFFF AND PUSH4 0x70A08231 ADDRESS PUSH1 0x40 MLOAD DUP3 PUSH4 0xFFFFFFFF AND PUSH1 0xE0 SHL DUP2 MSTORE PUSH1 0x4 ADD PUSH2 0x6D1 SWAP2 SWAP1 PUSH2 0x1187 JUMP JUMPDEST PUSH1 0x20 PUSH1 0x40 MLOAD DUP1 DUP4 SUB DUP2 DUP7 GAS STATICCALL ISZERO DUP1 ISZERO PUSH2 0x6EC JUMPI RETURNDATASIZE PUSH0 DUP1 RETURNDATACOPY RETURNDATASIZE PUSH0 REVERT JUMPDEST POP POP POP POP PUSH1 0x40 MLOAD RETURNDATASIZE PUSH1 0x1F NOT PUSH1 0x1F DUP3 ADD AND DUP3 ADD DUP1 PUSH1 0x40 MSTORE POP DUP2 ADD SWAP1 PUSH2 0x710 SWAP2 SWAP1 PUSH2 0x12EB JUMP JUMPDEST LT ISZERO PUSH2 0x751 JUMPI PUSH1 0x40 MLOAD PUSH32 0x8C379A000000000000000000000000000000000000000000000000000000000 DUP2 MSTORE PUSH1 0x4 ADD PUSH2 0x748 SWAP1 PUSH2 0x145F JUMP JUMPDEST PUSH1 0x40 MLOAD DUP1 SWAP2 SUB SWAP1 REVERT JUMPDEST DUP2 CALLER PUSH20 0xFFFFFFFFFFFFFFFFFFFFFFFFFFFFFFFFFFFFFFFF AND BALANCE LT ISZERO PUSH2 0x7AB JUMPI PUSH1 0x40 MLOAD PUSH32 0x8C379A000000000000000000000000000000000000000000000000000000000 DUP2 MSTORE PUSH1 0x4 ADD PUSH2 0x7A2 SWAP1 PUSH2 0x145F JUMP JUMPDEST PUSH1 0x40 MLOAD DUP1 SWAP2 SUB SWAP1 REVERT JUMPDEST PUSH1 0x1 PUSH0 SWAP1 SLOAD SWAP1 PUSH2 0x100 EXP SWAP1 DIV PUSH20 0xFFFFFFFFFFFFFFFFFFFFFFFFFFFFFFFFFFFFFFFF AND PUSH20 0xFFFFFFFFFFFFFFFFFFFFFFFFFFFFFFFFFFFFFFFF AND PUSH2 0x8FC DUP4 SWAP1 DUP2 ISZERO MUL SWAP1 PUSH1 0x40 MLOAD PUSH0 PUSH1 0x40 MLOAD DUP1 DUP4 SUB DUP2 DUP6 DUP9 DUP9 CALL SWAP4 POP POP POP POP ISZERO DUP1 ISZERO PUSH2 0x80F JUMPI RETURNDATASIZE PUSH0 DUP1 RETURNDATACOPY RETURNDATASIZE PUSH0 REVERT JUMPDEST POP PUSH2 0x83C PUSH1 0x4 PUSH0 SWAP1 SLOAD SWAP1 PUSH2 0x100 EXP SWAP1 DIV PUSH20 0xFFFFFFFFFFFFFFFFFFFFFFFFFFFFFFFFFFFFFFFF AND CALLER DUP4 PUSH2 0xD0C JUMP JUMPDEST PUSH32 0xBAB06EFE910BA7896DB8B04299FEF8209E3D94545AC7115A3D064449381337BC CALLER DUP3 PUSH1 0x40 MLOAD PUSH2 0x86D SWAP3 SWAP2 SWAP1 PUSH2 0x1316 JUMP JUMPDEST PUSH1 0x40 MLOAD DUP1 SWAP2 SUB SWAP1 LOG1 POP POP JUMP JUMPDEST PUSH0 DUP1 PUSH0 SWAP1 SLOAD SWAP1 PUSH2 0x100 EXP SWAP1 DIV PUSH20 0xFFFFFFFFFFFFFFFFFFFFFFFFFFFFFFFFFFFFFFFF AND SWAP1 POP SWAP1 JUMP JUMPDEST PUSH1 0x2 SLOAD DUP2 JUMP JUMPDEST PUSH1 0x5 PUSH0 SWAP1 SLOAD SWAP1 PUSH2 0x100 EXP SWAP1 DIV PUSH20 0xFFFFFFFFFFFFFFFFFFFFFFFFFFFFFFFFFFFFFFFF AND DUP2 JUMP JUMPDEST PUSH0 PUSH2 0x8D5 DUP3 PUSH2 0x354 JUMP JUMPDEST SWAP1 POP DUP2 CALLER PUSH20 0xFFFFFFFFFFFFFFFFFFFFFFFFFFFFFFFFFFFFFFFF AND BALANCE LT ISZERO PUSH2 0x931 JUMPI PUSH1 0x40 MLOAD PUSH32 0x8C379A000000000000000000000000000000000000000000000000000000000 DUP2 MSTORE PUSH1 0x4 ADD PUSH2 0x928 SWAP1 PUSH2 0x145F JUMP JUMPDEST PUSH1 0x40 MLOAD DUP1 SWAP2 SUB SWAP1 REVERT JUMPDEST PUSH0 DUP2 GT PUSH2 0x973 JUMPI PUSH1 0x40 MLOAD PUSH32 0x8C379A000000000000000000000000000000000000000000000000000000000 DUP2 MSTORE PUSH1 0x4 ADD PUSH2 0x96A SWAP1 PUSH2 0x13F7 JUMP JUMPDEST PUSH1 0x40 MLOAD DUP1 SWAP2 SUB SWAP1 REVERT JUMPDEST DUP1 PUSH1 0x4 PUSH0 SWAP1 SLOAD SWAP1 PUSH2 0x100 EXP SWAP1 DIV PUSH20 0xFFFFFFFFFFFFFFFFFFFFFFFFFFFFFFFFFFFFFFFF AND PUSH20 0xFFFFFFFFFFFFFFFFFFFFFFFFFFFFFFFFFFFFFFFF AND PUSH4 0x70A08231 ADDRESS PUSH1 0x40 MLOAD DUP3 PUSH4 0xFFFFFFFF AND PUSH1 0xE0 SHL DUP2 MSTORE PUSH1 0x4 ADD PUSH2 0x9CE SWAP2 SWAP1 PUSH2 0x1187 JUMP JUMPDEST PUSH1 0x20 PUSH1 0x40 MLOAD DUP1 DUP4 SUB DUP2 DUP7 GAS STATICCALL ISZERO DUP1 ISZERO PUSH2 0x9E9 JUMPI RETURNDATASIZE PUSH0 DUP1 RETURNDATACOPY RETURNDATASIZE PUSH0 REVERT JUMPDEST POP POP POP POP PUSH1 0x40 MLOAD RETURNDATASIZE PUSH1 0x1F NOT PUSH1 0x1F DUP3 ADD AND DUP3 ADD DUP1 PUSH1 0x40 MSTORE POP DUP2 ADD SWAP1 PUSH2 0xA0D SWAP2 SWAP1 PUSH2 0x12EB JUMP JUMPDEST LT ISZERO PUSH2 0xA4E JUMPI PUSH1 0x40 MLOAD PUSH32 0x8C379A000000000000000000000000000000000000000000000000000000000 DUP2 MSTORE PUSH1 0x4 ADD PUSH2 0xA45 SWAP1 PUSH2 0x145F JUMP JUMPDEST PUSH1 0x40 MLOAD DUP1 SWAP2 SUB SWAP1 REVERT JUMPDEST PUSH2 0xA9C PUSH1 0x5 PUSH0 SWAP1 SLOAD SWAP1 PUSH2 0x100 EXP SWAP1 DIV PUSH20 0xFFFFFFFFFFFFFFFFFFFFFFFFFFFFFFFFFFFFFFFF AND CALLER PUSH1 0x1 PUSH0 SWAP1 SLOAD SWAP1 PUSH2 0x100 EXP SWAP1 DIV PUSH20 0xFFFFFFFFFFFFFFFFFFFFFFFFFFFFFFFFFFFFFFFF AND DUP6 PUSH2 0xD8B JUMP JUMPDEST PUSH2 0xAC8 PUSH1 0x4 PUSH0 SWAP1 SLOAD SWAP1 PUSH2 0x100 EXP SWAP1 DIV PUSH20 0xFFFFFFFFFFFFFFFFFFFFFFFFFFFFFFFFFFFFFFFF AND CALLER DUP4 PUSH2 0xD0C JUMP JUMPDEST PUSH32 0x5C0161FAD3FA89CFEBD4A74115D9F81661CDD1B9008D05A238EA9D65088E2064 CALLER DUP3 PUSH1 0x40 MLOAD PUSH2 0xAF9 SWAP3 SWAP2 SWAP1 PUSH2 0x1316 JUMP JUMPDEST PUSH1 0x40 MLOAD DUP1 SWAP2 SUB SWAP1 LOG1 POP POP JUMP JUMPDEST PUSH0 PUSH1 0x2 SLOAD DUP3 PUSH2 0xB14 SWAP2 SWAP1 PUSH2 0x1296 JUMP JUMPDEST SWAP1 POP SWAP2 SWAP1 POP JUMP JUMPDEST PUSH2 0xB23 PUSH2 0xBC4 JUMP JUMPDEST PUSH0 PUSH20 0xFFFFFFFFFFFFFFFFFFFFFFFFFFFFFFFFFFFFFFFF AND DUP2 PUSH20 0xFFFFFFFFFFFFFFFFFFFFFFFFFFFFFFFFFFFFFFFF AND SUB PUSH2 0xB93 JUMPI PUSH0 PUSH1 0x40 MLOAD PUSH32 0x1E4FBDF700000000000000000000000000000000000000000000000000000000 DUP2 MSTORE PUSH1 0x4 ADD PUSH2 0xB8A SWAP2 SWAP1 PUSH2 0x1187 JUMP JUMPDEST PUSH1 0x40 MLOAD DUP1 SWAP2 SUB SWAP1 REVERT JUMPDEST PUSH2 0xB9C DUP2 PUSH2 0xC4B JUMP JUMPDEST POP JUMP JUMPDEST PUSH1 0x4 PUSH0 SWAP1 SLOAD SWAP1 PUSH2 0x100 EXP SWAP1 DIV PUSH20 0xFFFFFFFFFFFFFFFFFFFFFFFFFFFFFFFFFFFFFFFF AND DUP2 JUMP JUMPDEST PUSH2 0xBCC PUSH2 0xE0D JUMP JUMPDEST PUSH20 0xFFFFFFFFFFFFFFFFFFFFFFFFFFFFFFFFFFFFFFFF AND PUSH2 0xBEA PUSH2 0x879 JUMP JUMPDEST PUSH20 0xFFFFFFFFFFFFFFFFFFFFFFFFFFFFFFFFFFFFFFFF AND EQ PUSH2 0xC49 JUMPI PUSH2 0xC0D PUSH2 0xE0D JUMP JUMPDEST PUSH1 0x40 MLOAD PUSH32 0x118CDAA700000000000000000000000000000000000000000000000000000000 DUP2 MSTORE PUSH1 0x4 ADD PUSH2 0xC40 SWAP2 SWAP1 PUSH2 0x1187 JUMP JUMPDEST PUSH1 0x40 MLOAD DUP1 SWAP2 SUB SWAP1 REVERT JUMPDEST JUMP JUMPDEST PUSH0 DUP1 PUSH0 SWAP1 SLOAD SWAP1 PUSH2 0x100 EXP SWAP1 DIV PUSH20 0xFFFFFFFFFFFFFFFFFFFFFFFFFFFFFFFFFFFFFFFF AND SWAP1 POP DUP2 PUSH0 DUP1 PUSH2 0x100 EXP DUP2 SLOAD DUP2 PUSH20 0xFFFFFFFFFFFFFFFFFFFFFFFFFFFFFFFFFFFFFFFF MUL NOT AND SWAP1 DUP4 PUSH20 0xFFFFFFFFFFFFFFFFFFFFFFFFFFFFFFFFFFFFFFFF AND MUL OR SWAP1 SSTORE POP DUP2 PUSH20 0xFFFFFFFFFFFFFFFFFFFFFFFFFFFFFFFFFFFFFFFF AND DUP2 PUSH20 0xFFFFFFFFFFFFFFFFFFFFFFFFFFFFFFFFFFFFFFFF AND PUSH32 0x8BE0079C531659141344CD1FD0A4F28419497F9722A3DAAFE3B4186F6B6457E0 PUSH1 0x40 MLOAD PUSH1 0x40 MLOAD DUP1 SWAP2 SUB SWAP1 LOG3 POP POP JUMP JUMPDEST PUSH2 0xD86 DUP4 DUP5 PUSH20 0xFFFFFFFFFFFFFFFFFFFFFFFFFFFFFFFFFFFFFFFF AND PUSH4 0xA9059CBB DUP6 DUP6 PUSH1 0x40 MLOAD PUSH1 0x24 ADD PUSH2 0xD3F SWAP3 SWAP2 SWAP1 PUSH2 0x1316 JUMP JUMPDEST PUSH1 0x40 MLOAD PUSH1 0x20 DUP2 DUP4 SUB SUB DUP2 MSTORE SWAP1 PUSH1 0x40 MSTORE SWAP2 POP PUSH1 0xE0 SHL PUSH1 0x20 DUP3 ADD DUP1 MLOAD PUSH28 0xFFFFFFFFFFFFFFFFFFFFFFFFFFFFFFFFFFFFFFFFFFFFFFFFFFFFFFFF DUP4 DUP2 DUP4 AND OR DUP4 MSTORE POP POP POP POP PUSH2 0xE14 JUMP JUMPDEST POP POP POP JUMP JUMPDEST PUSH2 0xE07 DUP5 DUP6 PUSH20 0xFFFFFFFFFFFFFFFFFFFFFFFFFFFFFFFFFFFFFFFF AND PUSH4 0x23B872DD DUP7 DUP7 DUP7 PUSH1 0x40 MLOAD PUSH1 0x24 ADD PUSH2 0xDC0 SWAP4 SWAP3 SWAP2 SWAP1 PUSH2 0x147D JUMP JUMPDEST PUSH1 0x40 MLOAD PUSH1 0x20 DUP2 DUP4 SUB SUB DUP2 MSTORE SWAP1 PUSH1 0x40 MSTORE SWAP2 POP PUSH1 0xE0 SHL PUSH1 0x20 DUP3 ADD DUP1 MLOAD PUSH28 0xFFFFFFFFFFFFFFFFFFFFFFFFFFFFFFFFFFFFFFFFFFFFFFFFFFFFFFFF DUP4 DUP2 DUP4 AND OR DUP4 MSTORE POP POP POP POP PUSH2 0xE14 JUMP JUMPDEST POP POP POP POP JUMP JUMPDEST PUSH0 CALLER SWAP1 POP SWAP1 JUMP JUMPDEST PUSH0 PUSH2 0xE3E DUP3 DUP5 PUSH20 0xFFFFFFFFFFFFFFFFFFFFFFFFFFFFFFFFFFFFFFFF AND PUSH2 0xEA9 SWAP1 SWAP2 SWAP1 PUSH4 0xFFFFFFFF AND JUMP JUMPDEST SWAP1 POP PUSH0 DUP2 MLOAD EQ ISZERO DUP1 ISZERO PUSH2 0xE62 JUMPI POP DUP1 DUP1 PUSH1 0x20 ADD SWAP1 MLOAD DUP2 ADD SWAP1 PUSH2 0xE60 SWAP2 SWAP1 PUSH2 0x1372 JUMP JUMPDEST ISZERO JUMPDEST ISZERO PUSH2 0xEA4 JUMPI DUP3 PUSH1 0x40 MLOAD PUSH32 0x5274AFE700000000000000000000000000000000000000000000000000000000 DUP2 MSTORE PUSH1 0x4 ADD PUSH2 0xE9B SWAP2 SWAP1 PUSH2 0x1187 JUMP JUMPDEST PUSH1 0x40 MLOAD DUP1 SWAP2 SUB SWAP1 REVERT JUMPDEST POP POP POP JUMP JUMPDEST PUSH1 0x60 PUSH2 0xEB6 DUP4 DUP4 PUSH0 PUSH2 0xEBE JUMP JUMPDEST SWAP1 POP SWAP3 SWAP2 POP POP JUMP JUMPDEST PUSH1 0x60 DUP2 SELFBALANCE LT ISZERO PUSH2 0xF05 JUMPI ADDRESS PUSH1 0x40 MLOAD PUSH32 0xCD78605900000000000000000000000000000000000000000000000000000000 DUP2 MSTORE PUSH1 0x4 ADD PUSH2 0xEFC SWAP2 SWAP1 PUSH2 0x1187 JUMP JUMPDEST PUSH1 0x40 MLOAD DUP1 SWAP2 SUB SWAP1 REVERT JUMPDEST PUSH0 DUP1 DUP6 PUSH20 0xFFFFFFFFFFFFFFFFFFFFFFFFFFFFFFFFFFFFFFFF AND DUP5 DUP7 PUSH1 0x40 MLOAD PUSH2 0xF2D SWAP2 SWAP1 PUSH2 0x151E JUMP JUMPDEST PUSH0 PUSH1 0x40 MLOAD DUP1 DUP4 SUB DUP2 DUP6 DUP8 GAS CALL SWAP3 POP POP POP RETURNDATASIZE DUP1 PUSH0 DUP2 EQ PUSH2 0xF67 JUMPI PUSH1 0x40 MLOAD SWAP2 POP PUSH1 0x1F NOT PUSH1 0x3F RETURNDATASIZE ADD AND DUP3 ADD PUSH1 0x40 MSTORE RETURNDATASIZE DUP3 MSTORE RETURNDATASIZE PUSH0 PUSH1 0x20 DUP5 ADD RETURNDATACOPY PUSH2 0xF6C JUMP JUMPDEST PUSH1 0x60 SWAP2 POP JUMPDEST POP SWAP2 POP SWAP2 POP PUSH2 0xF7C DUP7 DUP4 DUP4 PUSH2 0xF87 JUMP JUMPDEST SWAP3 POP POP POP SWAP4 SWAP3 POP POP POP JUMP JUMPDEST PUSH1 0x60 DUP3 PUSH2 0xF9C JUMPI PUSH2 0xF97 DUP3 PUSH2 0x1014 JUMP JUMPDEST PUSH2 0x100C JUMP JUMPDEST PUSH0 DUP3 MLOAD EQ DUP1 ISZERO PUSH2 0xFC2 JUMPI POP PUSH0 DUP5 PUSH20 0xFFFFFFFFFFFFFFFFFFFFFFFFFFFFFFFFFFFFFFFF AND EXTCODESIZE EQ JUMPDEST ISZERO PUSH2 0x1004 JUMPI DUP4 PUSH1 0x40 MLOAD PUSH32 0x9996B31500000000000000000000000000000000000000000000000000000000 DUP2 MSTORE PUSH1 0x4 ADD PUSH2 0xFFB SWAP2 SWAP1 PUSH2 0x1187 JUMP JUMPDEST PUSH1 0x40 MLOAD DUP1 SWAP2 SUB SWAP1 REVERT JUMPDEST DUP2 SWAP1 POP PUSH2 0x100D JUMP JUMPDEST JUMPDEST SWAP4 SWAP3 POP POP POP JUMP JUMPDEST PUSH0 DUP2 MLOAD GT ISZERO PUSH2 0x1026 JUMPI DUP1 MLOAD DUP1 DUP3 PUSH1 0x20 ADD REVERT JUMPDEST PUSH1 0x40 MLOAD PUSH32 0x1425EA4200000000000000000000000000000000000000000000000000000000 DUP2 MSTORE PUSH1 0x4 ADD PUSH1 0x40 MLOAD DUP1 SWAP2 SUB SWAP1 REVERT JUMPDEST PUSH0 DUP1 REVERT JUMPDEST PUSH0 DUP2 SWAP1 POP SWAP2 SWAP1 POP JUMP JUMPDEST PUSH2 0x106E DUP2 PUSH2 0x105C JUMP JUMPDEST DUP2 EQ PUSH2 0x1078 JUMPI PUSH0 DUP1 REVERT JUMPDEST POP JUMP JUMPDEST PUSH0 DUP2 CALLDATALOAD SWAP1 POP PUSH2 0x1089 DUP2 PUSH2 0x1065 JUMP JUMPDEST SWAP3 SWAP2 POP POP JUMP JUMPDEST PUSH0 PUSH1 0x20 DUP3 DUP5 SUB SLT ISZERO PUSH2 0x10A4 JUMPI PUSH2 0x10A3 PUSH2 0x1058 JUMP JUMPDEST JUMPDEST PUSH0 PUSH2 0x10B1 DUP5 DUP3 DUP6 ADD PUSH2 0x107B JUMP JUMPDEST SWAP2 POP POP SWAP3 SWAP2 POP POP JUMP JUMPDEST PUSH2 0x10C3 DUP2 PUSH2 0x105C JUMP JUMPDEST DUP3 MSTORE POP POP JUMP JUMPDEST PUSH0 PUSH1 0x20 DUP3 ADD SWAP1 POP PUSH2 0x10DC PUSH0 DUP4 ADD DUP5 PUSH2 0x10BA JUMP JUMPDEST SWAP3 SWAP2 POP POP JUMP JUMPDEST PUSH0 PUSH20 0xFFFFFFFFFFFFFFFFFFFFFFFFFFFFFFFFFFFFFFFF DUP3 AND SWAP1 POP SWAP2 SWAP1 POP JUMP JUMPDEST PUSH0 PUSH2 0x110B DUP3 PUSH2 0x10E2 JUMP JUMPDEST SWAP1 POP SWAP2 SWAP1 POP JUMP JUMPDEST PUSH0 PUSH2 0x111C DUP3 PUSH2 0x1101 JUMP JUMPDEST SWAP1 POP SWAP2 SWAP1 POP JUMP JUMPDEST PUSH2 0x112C DUP2 PUSH2 0x1112 JUMP JUMPDEST DUP2 EQ PUSH2 0x1136 JUMPI PUSH0 DUP1 REVERT JUMPDEST POP JUMP JUMPDEST PUSH0 DUP2 CALLDATALOAD SWAP1 POP PUSH2 0x1147 DUP2 PUSH2 0x1123 JUMP JUMPDEST SWAP3 SWAP2 POP POP JUMP JUMPDEST PUSH0 PUSH1 0x20 DUP3 DUP5 SUB SLT ISZERO PUSH2 0x1162 JUMPI PUSH2 0x1161 PUSH2 0x1058 JUMP JUMPDEST JUMPDEST PUSH0 PUSH2 0x116F DUP5 DUP3 DUP6 ADD PUSH2 0x1139 JUMP JUMPDEST SWAP2 POP POP SWAP3 SWAP2 POP POP JUMP JUMPDEST PUSH2 0x1181 DUP2 PUSH2 0x1101 JUMP JUMPDEST DUP3 MSTORE POP POP JUMP JUMPDEST PUSH0 PUSH1 0x20 DUP3 ADD SWAP1 POP PUSH2 0x119A PUSH0 DUP4 ADD DUP5 PUSH2 0x1178 JUMP JUMPDEST SWAP3 SWAP2 POP POP JUMP JUMPDEST PUSH0 DUP2 SWAP1 POP SWAP2 SWAP1 POP JUMP JUMPDEST PUSH0 PUSH2 0x11C3 PUSH2 0x11BE PUSH2 0x11B9 DUP5 PUSH2 0x10E2 JUMP JUMPDEST PUSH2 0x11A0 JUMP JUMPDEST PUSH2 0x10E2 JUMP JUMPDEST SWAP1 POP SWAP2 SWAP1 POP JUMP JUMPDEST PUSH0 PUSH2 0x11D4 DUP3 PUSH2 0x11A9 JUMP JUMPDEST SWAP1 POP SWAP2 SWAP1 POP JUMP JUMPDEST PUSH0 PUSH2 0x11E5 DUP3 PUSH2 0x11CA JUMP JUMPDEST SWAP1 POP SWAP2 SWAP1 POP JUMP JUMPDEST PUSH2 0x11F5 DUP2 PUSH2 0x11DB JUMP JUMPDEST DUP3 MSTORE POP POP JUMP JUMPDEST PUSH0 PUSH1 0x20 DUP3 ADD SWAP1 POP PUSH2 0x120E PUSH0 DUP4 ADD DUP5 PUSH2 0x11EC JUMP JUMPDEST SWAP3 SWAP2 POP POP JUMP JUMPDEST PUSH2 0x121D DUP2 PUSH2 0x1101 JUMP JUMPDEST DUP2 EQ PUSH2 0x1227 JUMPI PUSH0 DUP1 REVERT JUMPDEST POP JUMP JUMPDEST PUSH0 DUP2 CALLDATALOAD SWAP1 POP PUSH2 0x1238 DUP2 PUSH2 0x1214 JUMP JUMPDEST SWAP3 SWAP2 POP POP JUMP JUMPDEST PUSH0 PUSH1 0x20 DUP3 DUP5 SUB SLT ISZERO PUSH2 0x1253 JUMPI PUSH2 0x1252 PUSH2 0x1058 JUMP JUMPDEST JUMPDEST PUSH0 PUSH2 0x1260 DUP5 DUP3 DUP6 ADD PUSH2 0x122A JUMP JUMPDEST SWAP2 POP POP SWAP3 SWAP2 POP POP JUMP JUMPDEST PUSH32 0x4E487B7100000000000000000000000000000000000000000000000000000000 PUSH0 MSTORE PUSH1 0x11 PUSH1 0x4 MSTORE PUSH1 0x24 PUSH0 REVERT JUMPDEST PUSH0 PUSH2 0x12A0 DUP3 PUSH2 0x105C JUMP JUMPDEST SWAP2 POP PUSH2 0x12AB DUP4 PUSH2 0x105C JUMP JUMPDEST SWAP3 POP DUP3 DUP3 MUL PUSH2 0x12B9 DUP2 PUSH2 0x105C JUMP JUMPDEST SWAP2 POP DUP3 DUP3 DIV DUP5 EQ DUP4 ISZERO OR PUSH2 0x12D0 JUMPI PUSH2 0x12CF PUSH2 0x1269 JUMP JUMPDEST JUMPDEST POP SWAP3 SWAP2 POP POP JUMP JUMPDEST PUSH0 DUP2 MLOAD SWAP1 POP PUSH2 0x12E5 DUP2 PUSH2 0x1065 JUMP JUMPDEST SWAP3 SWAP2 POP POP JUMP JUMPDEST PUSH0 PUSH1 0x20 DUP3 DUP5 SUB SLT ISZERO PUSH2 0x1300 JUMPI PUSH2 0x12FF PUSH2 0x1058 JUMP JUMPDEST JUMPDEST PUSH0 PUSH2 0x130D DUP5 DUP3 DUP6 ADD PUSH2 0x12D7 JUMP JUMPDEST SWAP2 POP POP SWAP3 SWAP2 POP POP JUMP JUMPDEST PUSH0 PUSH1 0x40 DUP3 ADD SWAP1 POP PUSH2 0x1329 PUSH0 DUP4 ADD DUP6 PUSH2 0x1178 JUMP JUMPDEST PUSH2 0x1336 PUSH1 0x20 DUP4 ADD DUP5 PUSH2 0x10BA JUMP JUMPDEST SWAP4 SWAP3 POP POP POP JUMP JUMPDEST PUSH0 DUP2 ISZERO ISZERO SWAP1 POP SWAP2 SWAP1 POP JUMP JUMPDEST PUSH2 0x1351 DUP2 PUSH2 0x133D JUMP JUMPDEST DUP2 EQ PUSH2 0x135B JUMPI PUSH0 DUP1 REVERT JUMPDEST POP JUMP JUMPDEST PUSH0 DUP2 MLOAD SWAP1 POP PUSH2 0x136C DUP2 PUSH2 0x1348 JUMP JUMPDEST SWAP3 SWAP2 POP POP JUMP JUMPDEST PUSH0 PUSH1 0x20 DUP3 DUP5 SUB SLT ISZERO PUSH2 0x1387 JUMPI PUSH2 0x1386 PUSH2 0x1058 JUMP JUMPDEST JUMPDEST PUSH0 PUSH2 0x1394 DUP5 DUP3 DUP6 ADD PUSH2 0x135E JUMP JUMPDEST SWAP2 POP POP SWAP3 SWAP2 POP POP JUMP JUMPDEST PUSH0 DUP3 DUP3 MSTORE PUSH1 0x20 DUP3 ADD SWAP1 POP SWAP3 SWAP2 POP POP JUMP JUMPDEST PUSH32 0x416D6F756E74206973207A65726F000000000000000000000000000000000000 PUSH0 DUP3 ADD MSTORE POP JUMP JUMPDEST PUSH0 PUSH2 0x13E1 PUSH1 0xE DUP4 PUSH2 0x139D JUMP JUMPDEST SWAP2 POP PUSH2 0x13EC DUP3 PUSH2 0x13AD JUMP JUMPDEST PUSH1 0x20 DUP3 ADD SWAP1 POP SWAP2 SWAP1 POP JUMP JUMPDEST PUSH0 PUSH1 0x20 DUP3 ADD SWAP1 POP DUP2 DUP2 SUB PUSH0 DUP4 ADD MSTORE PUSH2 0x140E DUP2 PUSH2 0x13D5 JUMP JUMPDEST SWAP1 POP SWAP2 SWAP1 POP JUMP JUMPDEST PUSH32 0x496E73756666696369656E74206163636F756E742062616C616E636500000000 PUSH0 DUP3 ADD MSTORE POP JUMP JUMPDEST PUSH0 PUSH2 0x1449 PUSH1 0x1C DUP4 PUSH2 0x139D JUMP JUMPDEST SWAP2 POP PUSH2 0x1454 DUP3 PUSH2 0x1415 JUMP JUMPDEST PUSH1 0x20 DUP3 ADD SWAP1 POP SWAP2 SWAP1 POP JUMP JUMPDEST PUSH0 PUSH1 0x20 DUP3 ADD SWAP1 POP DUP2 DUP2 SUB PUSH0 DUP4 ADD MSTORE PUSH2 0x1476 DUP2 PUSH2 0x143D JUMP JUMPDEST SWAP1 POP SWAP2 SWAP1 POP JUMP JUMPDEST PUSH0 PUSH1 0x60 DUP3 ADD SWAP1 POP PUSH2 0x1490 PUSH0 DUP4 ADD DUP7 PUSH2 0x1178 JUMP JUMPDEST PUSH2 0x149D PUSH1 0x20 DUP4 ADD DUP6 PUSH2 0x1178 JUMP JUMPDEST PUSH2 0x14AA PUSH1 0x40 DUP4 ADD DUP5 PUSH2 0x10BA JUMP JUMPDEST SWAP5 SWAP4 POP POP POP POP JUMP JUMPDEST PUSH0 DUP2 MLOAD SWAP1 POP SWAP2 SWAP1 POP JUMP JUMPDEST PUSH0 DUP2 SWAP1 POP SWAP3 SWAP2 POP POP JUMP JUMPDEST PUSH0 JUMPDEST DUP4 DUP2 LT ISZERO PUSH2 0x14E3 JUMPI DUP1 DUP3 ADD MLOAD DUP2 DUP5 ADD MSTORE PUSH1 0x20 DUP2 ADD SWAP1 POP PUSH2 0x14C8 JUMP JUMPDEST PUSH0 DUP5 DUP5 ADD MSTORE POP POP POP POP JUMP JUMPDEST PUSH0 PUSH2 0x14F8 DUP3 PUSH2 0x14B2 JUMP JUMPDEST PUSH2 0x1502 DUP2 DUP6 PUSH2 0x14BC JUMP JUMPDEST SWAP4 POP PUSH2 0x1512 DUP2 DUP6 PUSH1 0x20 DUP7 ADD PUSH2 0x14C6 JUMP JUMPDEST DUP1 DUP5 ADD SWAP2 POP POP SWAP3 SWAP2 POP POP JUMP JUMPDEST PUSH0 PUSH2 0x1529 DUP3 DUP5 PUSH2 0x14EE JUMP JUMPDEST SWAP2 POP DUP2 SWAP1 POP SWAP3 SWAP2 POP POP JUMP INVALID LOG2 PUSH5 0x6970667358 0x22 SLT KECCAK256 0xB6 0x2F 0xC0 SWAP15 MUL SWAP8 PUSH10 0x6640D7DE3D93976291DF 0xB4 0xF8 0xB1 MSTORE8 SWAP6 0xDE 0x21 PUSH32 0x477735523572864736F6C634300081400330000000000000000000000000000 "
		},
		"gasEstimates": {
			"creation": {
				"codeDepositCost": "1096400",
				"executionCost": "infinite",
				"totalCost": "infinite"
			},
			"external": {
				"ETH_rate()": "2492",
				"USDT_rate()": "2470",
				"buyTokenByETH()": "infinite",
				"buyTokenByUSDT(uint256)": "infinite",
				"getTokenAmountETH(uint256)": "infinite",
				"getTokenAmountUSDT(uint256)": "infinite",
				"owner()": "2560",
				"renounceOwnership()": "infinite",
				"setETHRate(uint256)": "infinite",
				"setUSDTRate(uint256)": "infinite",
				"setUSDTToken(address)": "infinite",
				"token()": "infinite",
				"transferOwnership(address)": "infinite",
				"usdtToken()": "infinite",
				"withdraw()": "infinite",
				"withdrawErc20()": "infinite"
			}
		},
		"methodIdentifiers": {
			"ETH_rate()": "9cb7b9fc",
			"USDT_rate()": "592a00e4",
			"buyTokenByETH()": "8909a40f",
			"buyTokenByUSDT(uint256)": "c5d15651",
			"getTokenAmountETH(uint256)": "e1e85189",
			"getTokenAmountUSDT(uint256)": "1832d8b6",
			"owner()": "8da5cb5b",
			"renounceOwnership()": "715018a6",
			"setETHRate(uint256)": "4bfe2779",
			"setUSDTRate(uint256)": "1b4622d6",
			"setUSDTToken(address)": "66e226bd",
			"token()": "fc0c546a",
			"transferOwnership(address)": "f2fde38b",
			"usdtToken()": "a98ad46c",
			"withdraw()": "3ccfd60b",
			"withdrawErc20()": "3e3f2359"
		}
	},
	"abi": [
		{
			"inputs": [
				{
					"internalType": "address",
					"name": "initialOwner",
					"type": "address"
				},
				{
					"internalType": "uint256",
					"name": "eth_rate",
					"type": "uint256"
				},
				{
					"internalType": "uint256",
					"name": "usdt_rate",
					"type": "uint256"
				},
				{
					"internalType": "address payable",
					"name": "wallet",
					"type": "address"
				},
				{
					"internalType": "contract IERC20",
					"name": "icotoken",
					"type": "address"
				}
			],
			"stateMutability": "nonpayable",
			"type": "constructor"
		},
		{
			"inputs": [
				{
					"internalType": "address",
					"name": "target",
					"type": "address"
				}
			],
			"name": "AddressEmptyCode",
			"type": "error"
		},
		{
			"inputs": [
				{
					"internalType": "address",
					"name": "account",
					"type": "address"
				}
			],
			"name": "AddressInsufficientBalance",
			"type": "error"
		},
		{
			"inputs": [],
			"name": "FailedInnerCall",
			"type": "error"
		},
		{
			"inputs": [
				{
					"internalType": "address",
					"name": "owner",
					"type": "address"
				}
			],
			"name": "OwnableInvalidOwner",
			"type": "error"
		},
		{
			"inputs": [
				{
					"internalType": "address",
					"name": "account",
					"type": "address"
				}
			],
			"name": "OwnableUnauthorizedAccount",
			"type": "error"
		},
		{
			"inputs": [
				{
					"internalType": "address",
					"name": "token",
					"type": "address"
				}
			],
			"name": "SafeERC20FailedOperation",
			"type": "error"
		},
		{
			"anonymous": false,
			"inputs": [
				{
					"indexed": false,
					"internalType": "address",
					"name": "buyer",
					"type": "address"
				},
				{
					"indexed": false,
					"internalType": "uint256",
					"name": "amount",
					"type": "uint256"
				}
			],
			"name": "BuyTokenByETH",
			"type": "event"
		},
		{
			"anonymous": false,
			"inputs": [
				{
					"indexed": false,
					"internalType": "address",
					"name": "buyer",
					"type": "address"
				},
				{
					"indexed": false,
					"internalType": "uint256",
					"name": "amount",
					"type": "uint256"
				}
			],
			"name": "BuyTokenByUSDT",
			"type": "event"
		},
		{
			"anonymous": false,
			"inputs": [
				{
					"indexed": true,
					"internalType": "address",
					"name": "previousOwner",
					"type": "address"
				},
				{
					"indexed": true,
					"internalType": "address",
					"name": "newOwner",
					"type": "address"
				}
			],
			"name": "OwnershipTransferred",
			"type": "event"
		},
		{
			"anonymous": false,
			"inputs": [
				{
					"indexed": false,
					"internalType": "uint256",
					"name": "newRate",
					"type": "uint256"
				}
			],
			"name": "SetETHRate",
			"type": "event"
		},
		{
			"anonymous": false,
			"inputs": [
				{
					"indexed": false,
					"internalType": "uint256",
					"name": "newRate",
					"type": "uint256"
				}
			],
			"name": "SetUSDTRate",
			"type": "event"
		},
		{
			"anonymous": false,
			"inputs": [
				{
					"indexed": false,
					"internalType": "contract IERC20",
					"name": "tokenAddress",
					"type": "address"
				}
			],
			"name": "SetUSDTToken",
			"type": "event"
		},
		{
			"inputs": [],
			"name": "ETH_rate",
			"outputs": [
				{
					"internalType": "uint256",
					"name": "",
					"type": "uint256"
				}
			],
			"stateMutability": "view",
			"type": "function"
		},
		{
			"inputs": [],
			"name": "USDT_rate",
			"outputs": [
				{
					"internalType": "uint256",
					"name": "",
					"type": "uint256"
				}
			],
			"stateMutability": "view",
			"type": "function"
		},
		{
			"inputs": [],
			"name": "buyTokenByETH",
			"outputs": [],
			"stateMutability": "payable",
			"type": "function"
		},
		{
			"inputs": [
				{
					"internalType": "uint256",
					"name": "USDTAmount",
					"type": "uint256"
				}
			],
			"name": "buyTokenByUSDT",
			"outputs": [],
			"stateMutability": "nonpayable",
			"type": "function"
		},
		{
			"inputs": [
				{
					"internalType": "uint256",
					"name": "ETHAmount",
					"type": "uint256"
				}
			],
			"name": "getTokenAmountETH",
			"outputs": [
				{
					"internalType": "uint256",
					"name": "",
					"type": "uint256"
				}
			],
			"stateMutability": "view",
			"type": "function"
		},
		{
			"inputs": [
				{
					"internalType": "uint256",
					"name": "USDTAmount",
					"type": "uint256"
				}
			],
			"name": "getTokenAmountUSDT",
			"outputs": [
				{
					"internalType": "uint256",
					"name": "",
					"type": "uint256"
				}
			],
			"stateMutability": "view",
			"type": "function"
		},
		{
			"inputs": [],
			"name": "owner",
			"outputs": [
				{
					"internalType": "address",
					"name": "",
					"type": "address"
				}
			],
			"stateMutability": "view",
			"type": "function"
		},
		{
			"inputs": [],
			"name": "renounceOwnership",
			"outputs": [],
			"stateMutability": "nonpayable",
			"type": "function"
		},
		{
			"inputs": [
				{
					"internalType": "uint256",
					"name": "newRate",
					"type": "uint256"
				}
			],
			"name": "setETHRate",
			"outputs": [],
			"stateMutability": "nonpayable",
			"type": "function"
		},
		{
			"inputs": [
				{
					"internalType": "uint256",
					"name": "newRate",
					"type": "uint256"
				}
			],
			"name": "setUSDTRate",
			"outputs": [],
			"stateMutability": "nonpayable",
			"type": "function"
		},
		{
			"inputs": [
				{
					"internalType": "contract IERC20",
					"name": "token_address",
					"type": "address"
				}
			],
			"name": "setUSDTToken",
			"outputs": [],
			"stateMutability": "nonpayable",
			"type": "function"
		},
		{
			"inputs": [],
			"name": "token",
			"outputs": [
				{
					"internalType": "contract IERC20",
					"name": "",
					"type": "address"
				}
			],
			"stateMutability": "view",
			"type": "function"
		},
		{
			"inputs": [
				{
					"internalType": "address",
					"name": "newOwner",
					"type": "address"
				}
			],
			"name": "transferOwnership",
			"outputs": [],
			"stateMutability": "nonpayable",
			"type": "function"
		},
		{
			"inputs": [],
			"name": "usdtToken",
			"outputs": [
				{
					"internalType": "contract IERC20",
					"name": "",
					"type": "address"
				}
			],
			"stateMutability": "view",
			"type": "function"
		},
		{
			"inputs": [],
			"name": "withdraw",
			"outputs": [],
			"stateMutability": "nonpayable",
			"type": "function"
		},
		{
			"inputs": [],
			"name": "withdrawErc20",
			"outputs": [],
			"stateMutability": "nonpayable",
			"type": "function"
		}
	]
}