{
	"data": {
		"bytecode": {
			"linkReferences": {},
			"object": "608060405234801562000010575f80fd5b506040516200210f3803806200210f833981810160405281019062000036919062000478565b805f73ffffffffffffffffffffffffffffffffffffffff168173ffffffffffffffffffffffffffffffffffffffff1603620000aa575f6040517f1e4fbdf7000000000000000000000000000000000000000000000000000000008152600401620000a19190620004b9565b60405180910390fd5b620000bb81620000d860201b60201c565b50620000d05f801b826200019960201b60201c565b5050620004d4565b5f805f9054906101000a900473ffffffffffffffffffffffffffffffffffffffff169050815f806101000a81548173ffffffffffffffffffffffffffffffffffffffff021916908373ffffffffffffffffffffffffffffffffffffffff1602179055508173ffffffffffffffffffffffffffffffffffffffff168173ffffffffffffffffffffffffffffffffffffffff167f8be0079c531659141344cd1fd0a4f28419497f9722a3daafe3b4186f6b6457e060405160405180910390a35050565b5f80620001ad8484620001e760201b60201c565b90508015620001dd57620001db8360025f8781526020019081526020015f20620002e260201b90919060201c565b505b8091505092915050565b5f620001fa83836200031760201b60201c565b620002d8576001805f8581526020019081526020015f205f015f8473ffffffffffffffffffffffffffffffffffffffff1673ffffffffffffffffffffffffffffffffffffffff1681526020019081526020015f205f6101000a81548160ff021916908315150217905550620002746200037b60201b60201c565b73ffffffffffffffffffffffffffffffffffffffff168273ffffffffffffffffffffffffffffffffffffffff16847f2f8788117e7eff1d82e926ec794901d17c78024a50270940304540a733656f0d60405160405180910390a460019050620002dc565b5f90505b92915050565b5f6200030f835f018373ffffffffffffffffffffffffffffffffffffffff165f1b6200038260201b60201c565b905092915050565b5f60015f8481526020019081526020015f205f015f8373ffffffffffffffffffffffffffffffffffffffff1673ffffffffffffffffffffffffffffffffffffffff1681526020019081526020015f205f9054906101000a900460ff16905092915050565b5f33905090565b5f620003958383620003f360201b60201c565b620003e957825f0182908060018154018082558091505060019003905f5260205f20015f9091909190915055825f0180549050836001015f8481526020019081526020015f208190555060019050620003ed565b5f90505b92915050565b5f80836001015f8481526020019081526020015f20541415905092915050565b5f80fd5b5f73ffffffffffffffffffffffffffffffffffffffff82169050919050565b5f620004428262000417565b9050919050565b620004548162000436565b81146200045f575f80fd5b50565b5f81519050620004728162000449565b92915050565b5f6020828403121562000490576200048f62000413565b5b5f6200049f8482850162000462565b91505092915050565b620004b38162000436565b82525050565b5f602082019050620004ce5f830184620004a8565b92915050565b611c2d80620004e25f395ff3fe608060405234801561000f575f80fd5b5060043610610129575f3560e01c80639010d07c116100ab578063ca15c8731161006f578063ca15c87314610317578063d547741f14610347578063df74e02814610363578063f2fde38b1461037f578063f516440c1461039b57610129565b80639010d07c1461025f57806391d148541461028f578063a217fddf146102bf578063b5b68afe146102dd578063b6b55f25146102fb57610129565b806336568abe116100f257806336568abe146101e1578063715018a6146101fd578063827a560b1461020757806385f438c1146102235780638da5cb5b1461024157610129565b8062f714ce1461012d57806301ffc9a714610149578063144fa6d714610179578063248a9ca3146101955780632f2ff15d146101c5575b5f80fd5b610147600480360381019061014291906114b6565b6103b9565b005b610163600480360381019061015e9190611549565b6105a1565b604051610170919061158e565b60405180910390f35b610193600480360381019061018e91906115e2565b61061a565b005b6101af60048036038101906101aa9190611640565b610665565b6040516101bc919061167a565b60405180910390f35b6101df60048036038101906101da9190611693565b610682565b005b6101fb60048036038101906101f69190611693565b6106a4565b005b61020561071f565b005b610221600480360381019061021c91906116fb565b610732565b005b61022b610756565b604051610238919061167a565b60405180910390f35b61024961077a565b6040516102569190611735565b60405180910390f35b6102796004803603810190610274919061174e565b6107a1565b6040516102869190611735565b60405180910390f35b6102a960048036038101906102a49190611693565b6107cd565b6040516102b6919061158e565b60405180910390f35b6102c7610831565b6040516102d4919061167a565b60405180910390f35b6102e5610837565b6040516102f2919061158e565b60405180910390f35b6103156004803603810190610310919061178c565b610849565b005b610331600480360381019061032c9190611640565b610954565b60405161033e91906117c6565b60405180910390f35b610361600480360381019061035c9190611693565b610975565b005b61037d6004803603810190610378919061178c565b610997565b005b610399600480360381019061039491906117df565b6109a9565b005b6103a3610a2d565b6040516103b091906117c6565b60405180910390f35b6103c1610a33565b73ffffffffffffffffffffffffffffffffffffffff166103df61077a565b73ffffffffffffffffffffffffffffffffffffffff16148061042e575061042d7f10dac8c06a04bec0b551627dad28bc00d6516b0caacd1c7b345fcdb5211334e4610428610a33565b6107cd565b5b61046d576040517f08c379a000000000000000000000000000000000000000000000000000000000815260040161046490611864565b60405180910390fd5b60055f9054906101000a900460ff166104bb576040517f08c379a00000000000000000000000000000000000000000000000000000000081526004016104b2906118cc565b60405180910390fd5b600454821115610500576040517f08c379a00000000000000000000000000000000000000000000000000000000081526004016104f790611934565b60405180910390fd5b60035f9054906101000a900473ffffffffffffffffffffffffffffffffffffffff1673ffffffffffffffffffffffffffffffffffffffff1663a9059cbb82846040518363ffffffff1660e01b815260040161055c929190611952565b6020604051808303815f875af1158015610578573d5f803e3d5ffd5b505050506040513d601f19601f8201168201806040525081019061059c919061198d565b505050565b5f7f5a05180f000000000000000000000000000000000000000000000000000000007bffffffffffffffffffffffffffffffffffffffffffffffffffffffff1916827bffffffffffffffffffffffffffffffffffffffffffffffffffffffff19161480610613575061061282610a3a565b5b9050919050565b610622610ab3565b8060035f6101000a81548173ffffffffffffffffffffffffffffffffffffffff021916908373ffffffffffffffffffffffffffffffffffffffff16021790555050565b5f60015f8381526020019081526020015f20600101549050919050565b61068b82610665565b61069481610b3a565b61069e8383610b4e565b50505050565b6106ac610a33565b73ffffffffffffffffffffffffffffffffffffffff168173ffffffffffffffffffffffffffffffffffffffff1614610710576040517f6697b23200000000000000000000000000000000000000000000000000000000815260040160405180910390fd5b61071a8282610b91565b505050565b610727610ab3565b6107305f610bd4565b565b61073a610ab3565b8060055f6101000a81548160ff02191690831515021790555050565b7f10dac8c06a04bec0b551627dad28bc00d6516b0caacd1c7b345fcdb5211334e481565b5f805f9054906101000a900473ffffffffffffffffffffffffffffffffffffffff16905090565b5f6107c58260025f8681526020019081526020015f20610c9590919063ffffffff16565b905092915050565b5f60015f8481526020019081526020015f205f015f8373ffffffffffffffffffffffffffffffffffffffff1673ffffffffffffffffffffffffffffffffffffffff1681526020019081526020015f205f9054906101000a900460ff16905092915050565b5f801b81565b60055f9054906101000a900460ff1681565b8060035f9054906101000a900473ffffffffffffffffffffffffffffffffffffffff1673ffffffffffffffffffffffffffffffffffffffff166370a08231336040518263ffffffff1660e01b81526004016108a49190611735565b602060405180830381865afa1580156108bf573d5f803e3d5ffd5b505050506040513d601f19601f820116820180604052508101906108e391906119cc565b1015610924576040517f08c379a000000000000000000000000000000000000000000000000000000000815260040161091b90611a41565b60405180910390fd5b61095160035f9054906101000a900473ffffffffffffffffffffffffffffffffffffffff16333084610cac565b50565b5f61096e60025f8481526020019081526020015f20610d2e565b9050919050565b61097e82610665565b61098781610b3a565b6109918383610b91565b50505050565b61099f610ab3565b8060048190555050565b6109b1610ab3565b5f73ffffffffffffffffffffffffffffffffffffffff168173ffffffffffffffffffffffffffffffffffffffff1603610a21575f6040517f1e4fbdf7000000000000000000000000000000000000000000000000000000008152600401610a189190611735565b60405180910390fd5b610a2a81610bd4565b50565b60045481565b5f33905090565b5f7f7965db0b000000000000000000000000000000000000000000000000000000007bffffffffffffffffffffffffffffffffffffffffffffffffffffffff1916827bffffffffffffffffffffffffffffffffffffffffffffffffffffffff19161480610aac5750610aab82610d41565b5b9050919050565b610abb610a33565b73ffffffffffffffffffffffffffffffffffffffff16610ad961077a565b73ffffffffffffffffffffffffffffffffffffffff1614610b3857610afc610a33565b6040517f118cdaa7000000000000000000000000000000000000000000000000000000008152600401610b2f9190611735565b60405180910390fd5b565b610b4b81610b46610a33565b610daa565b50565b5f80610b5a8484610dfb565b90508015610b8757610b858360025f8781526020019081526020015f20610ee490919063ffffffff16565b505b8091505092915050565b5f80610b9d8484610f11565b90508015610bca57610bc88360025f8781526020019081526020015f20610ffb90919063ffffffff16565b505b8091505092915050565b5f805f9054906101000a900473ffffffffffffffffffffffffffffffffffffffff169050815f806101000a81548173ffffffffffffffffffffffffffffffffffffffff021916908373ffffffffffffffffffffffffffffffffffffffff1602179055508173ffffffffffffffffffffffffffffffffffffffff168173ffffffffffffffffffffffffffffffffffffffff167f8be0079c531659141344cd1fd0a4f28419497f9722a3daafe3b4186f6b6457e060405160405180910390a35050565b5f610ca2835f0183611028565b5f1c905092915050565b610d28848573ffffffffffffffffffffffffffffffffffffffff166323b872dd868686604051602401610ce193929190611a5f565b604051602081830303815290604052915060e01b6020820180517bffffffffffffffffffffffffffffffffffffffffffffffffffffffff838183161783525050505061104f565b50505050565b5f610d3a825f016110e4565b9050919050565b5f7f01ffc9a7000000000000000000000000000000000000000000000000000000007bffffffffffffffffffffffffffffffffffffffffffffffffffffffff1916827bffffffffffffffffffffffffffffffffffffffffffffffffffffffff1916149050919050565b610db482826107cd565b610df75780826040517fe2517d3f000000000000000000000000000000000000000000000000000000008152600401610dee929190611a94565b60405180910390fd5b5050565b5f610e0683836107cd565b610eda576001805f8581526020019081526020015f205f015f8473ffffffffffffffffffffffffffffffffffffffff1673ffffffffffffffffffffffffffffffffffffffff1681526020019081526020015f205f6101000a81548160ff021916908315150217905550610e77610a33565b73ffffffffffffffffffffffffffffffffffffffff168273ffffffffffffffffffffffffffffffffffffffff16847f2f8788117e7eff1d82e926ec794901d17c78024a50270940304540a733656f0d60405160405180910390a460019050610ede565b5f90505b92915050565b5f610f09835f018373ffffffffffffffffffffffffffffffffffffffff165f1b6110f3565b905092915050565b5f610f1c83836107cd565b15610ff1575f60015f8581526020019081526020015f205f015f8473ffffffffffffffffffffffffffffffffffffffff1673ffffffffffffffffffffffffffffffffffffffff1681526020019081526020015f205f6101000a81548160ff021916908315150217905550610f8e610a33565b73ffffffffffffffffffffffffffffffffffffffff168273ffffffffffffffffffffffffffffffffffffffff16847ff6391f5c32d9c69d2a47ea670b442974b53935d1edc7fd64eb21e047a839171b60405160405180910390a460019050610ff5565b5f90505b92915050565b5f611020835f018373ffffffffffffffffffffffffffffffffffffffff165f1b61115a565b905092915050565b5f825f01828154811061103e5761103d611abb565b5b905f5260205f200154905092915050565b5f611079828473ffffffffffffffffffffffffffffffffffffffff1661125690919063ffffffff16565b90505f81511415801561109d57508080602001905181019061109b919061198d565b155b156110df57826040517f5274afe70000000000000000000000000000000000000000000000000000000081526004016110d69190611735565b60405180910390fd5b505050565b5f815f01805490509050919050565b5f6110fe838361126b565b61115057825f0182908060018154018082558091505060019003905f5260205f20015f9091909190915055825f0180549050836001015f8481526020019081526020015f208190555060019050611154565b5f90505b92915050565b5f80836001015f8481526020019081526020015f205490505f811461124b575f6001826111879190611b15565b90505f6001865f018054905061119d9190611b15565b9050808214611203575f865f0182815481106111bc576111bb611abb565b5b905f5260205f200154905080875f0184815481106111dd576111dc611abb565b5b905f5260205f20018190555083876001015f8381526020019081526020015f2081905550505b855f0180548061121657611215611b48565b5b600190038181905f5260205f20015f90559055856001015f8681526020019081526020015f205f905560019350505050611250565b5f9150505b92915050565b606061126383835f61128b565b905092915050565b5f80836001015f8481526020019081526020015f20541415905092915050565b6060814710156112d257306040517fcd7860590000000000000000000000000000000000000000000000000000000081526004016112c99190611735565b60405180910390fd5b5f808573ffffffffffffffffffffffffffffffffffffffff1684866040516112fa9190611be1565b5f6040518083038185875af1925050503d805f8114611334576040519150601f19603f3d011682016040523d82523d5f602084013e611339565b606091505b5091509150611349868383611354565b925050509392505050565b60608261136957611364826113e1565b6113d9565b5f825114801561138f57505f8473ffffffffffffffffffffffffffffffffffffffff163b145b156113d157836040517f9996b3150000000000000000000000000000000000000000000000000000000081526004016113c89190611735565b60405180910390fd5b8190506113da565b5b9392505050565b5f815111156113f35780518082602001fd5b6040517f1425ea4200000000000000000000000000000000000000000000000000000000815260040160405180910390fd5b5f80fd5b5f819050919050565b61143b81611429565b8114611445575f80fd5b50565b5f8135905061145681611432565b92915050565b5f73ffffffffffffffffffffffffffffffffffffffff82169050919050565b5f6114858261145c565b9050919050565b6114958161147b565b811461149f575f80fd5b50565b5f813590506114b08161148c565b92915050565b5f80604083850312156114cc576114cb611425565b5b5f6114d985828601611448565b92505060206114ea858286016114a2565b9150509250929050565b5f7fffffffff0000000000000000000000000000000000000000000000000000000082169050919050565b611528816114f4565b8114611532575f80fd5b50565b5f813590506115438161151f565b92915050565b5f6020828403121561155e5761155d611425565b5b5f61156b84828501611535565b91505092915050565b5f8115159050919050565b61158881611574565b82525050565b5f6020820190506115a15f83018461157f565b92915050565b5f6115b18261147b565b9050919050565b6115c1816115a7565b81146115cb575f80fd5b50565b5f813590506115dc816115b8565b92915050565b5f602082840312156115f7576115f6611425565b5b5f611604848285016115ce565b91505092915050565b5f819050919050565b61161f8161160d565b8114611629575f80fd5b50565b5f8135905061163a81611616565b92915050565b5f6020828403121561165557611654611425565b5b5f6116628482850161162c565b91505092915050565b6116748161160d565b82525050565b5f60208201905061168d5f83018461166b565b92915050565b5f80604083850312156116a9576116a8611425565b5b5f6116b68582860161162c565b92505060206116c7858286016114a2565b9150509250929050565b6116da81611574565b81146116e4575f80fd5b50565b5f813590506116f5816116d1565b92915050565b5f602082840312156117105761170f611425565b5b5f61171d848285016116e7565b91505092915050565b61172f8161147b565b82525050565b5f6020820190506117485f830184611726565b92915050565b5f806040838503121561176457611763611425565b5b5f6117718582860161162c565b925050602061178285828601611448565b9150509250929050565b5f602082840312156117a1576117a0611425565b5b5f6117ae84828501611448565b91505092915050565b6117c081611429565b82525050565b5f6020820190506117d95f8301846117b7565b92915050565b5f602082840312156117f4576117f3611425565b5b5f611801848285016114a2565b91505092915050565b5f82825260208201905092915050565b7f43616c6c6572206973206e6f74206120776974686472617765720000000000005f82015250565b5f61184e601a8361180a565b91506118598261181a565b602082019050919050565b5f6020820190508181035f83015261187b81611842565b9050919050565b7f5769746864726177206973206e6f7420617661696c61626c65000000000000005f82015250565b5f6118b660198361180a565b91506118c182611882565b602082019050919050565b5f6020820190508181035f8301526118e3816118aa565b9050919050565b7f457863656564206d6178696d756d20616d6f756e7400000000000000000000005f82015250565b5f61191e60158361180a565b9150611929826118ea565b602082019050919050565b5f6020820190508181035f83015261194b81611912565b9050919050565b5f6040820190506119655f830185611726565b61197260208301846117b7565b9392505050565b5f81519050611987816116d1565b92915050565b5f602082840312156119a2576119a1611425565b5b5f6119af84828501611979565b91505092915050565b5f815190506119c681611432565b92915050565b5f602082840312156119e1576119e0611425565b5b5f6119ee848285016119b8565b91505092915050565b7f496e73756666696369656e74206163636f756e742062616c616e6365000000005f82015250565b5f611a2b601c8361180a565b9150611a36826119f7565b602082019050919050565b5f6020820190508181035f830152611a5881611a1f565b9050919050565b5f606082019050611a725f830186611726565b611a7f6020830185611726565b611a8c60408301846117b7565b949350505050565b5f604082019050611aa75f830185611726565b611ab4602083018461166b565b9392505050565b7f4e487b71000000000000000000000000000000000000000000000000000000005f52603260045260245ffd5b7f4e487b71000000000000000000000000000000000000000000000000000000005f52601160045260245ffd5b5f611b1f82611429565b9150611b2a83611429565b9250828203905081811115611b4257611b41611ae8565b5b92915050565b7f4e487b71000000000000000000000000000000000000000000000000000000005f52603160045260245ffd5b5f81519050919050565b5f81905092915050565b5f5b83811015611ba6578082015181840152602081019050611b8b565b5f8484015250505050565b5f611bbb82611b75565b611bc58185611b7f565b9350611bd5818560208601611b89565b80840191505092915050565b5f611bec8284611bb1565b91508190509291505056fea2646970667358221220676d310b994d1572d2e4ef04655d722d4ef7c70f0921278ac73308c10ae9f3f764736f6c63430008140033",
			"opcodes": "PUSH1 0x80 PUSH1 0x40 MSTORE CALLVALUE DUP1 ISZERO PUSH3 0x10 JUMPI PUSH0 DUP1 REVERT JUMPDEST POP PUSH1 0x40 MLOAD PUSH3 0x210F CODESIZE SUB DUP1 PUSH3 0x210F DUP4 CODECOPY DUP2 DUP2 ADD PUSH1 0x40 MSTORE DUP2 ADD SWAP1 PUSH3 0x36 SWAP2 SWAP1 PUSH3 0x478 JUMP JUMPDEST DUP1 PUSH0 PUSH20 0xFFFFFFFFFFFFFFFFFFFFFFFFFFFFFFFFFFFFFFFF AND DUP2 PUSH20 0xFFFFFFFFFFFFFFFFFFFFFFFFFFFFFFFFFFFFFFFF AND SUB PUSH3 0xAA JUMPI PUSH0 PUSH1 0x40 MLOAD PUSH32 0x1E4FBDF700000000000000000000000000000000000000000000000000000000 DUP2 MSTORE PUSH1 0x4 ADD PUSH3 0xA1 SWAP2 SWAP1 PUSH3 0x4B9 JUMP JUMPDEST PUSH1 0x40 MLOAD DUP1 SWAP2 SUB SWAP1 REVERT JUMPDEST PUSH3 0xBB DUP2 PUSH3 0xD8 PUSH1 0x20 SHL PUSH1 0x20 SHR JUMP JUMPDEST POP PUSH3 0xD0 PUSH0 DUP1 SHL DUP3 PUSH3 0x199 PUSH1 0x20 SHL PUSH1 0x20 SHR JUMP JUMPDEST POP POP PUSH3 0x4D4 JUMP JUMPDEST PUSH0 DUP1 PUSH0 SWAP1 SLOAD SWAP1 PUSH2 0x100 EXP SWAP1 DIV PUSH20 0xFFFFFFFFFFFFFFFFFFFFFFFFFFFFFFFFFFFFFFFF AND SWAP1 POP DUP2 PUSH0 DUP1 PUSH2 0x100 EXP DUP2 SLOAD DUP2 PUSH20 0xFFFFFFFFFFFFFFFFFFFFFFFFFFFFFFFFFFFFFFFF MUL NOT AND SWAP1 DUP4 PUSH20 0xFFFFFFFFFFFFFFFFFFFFFFFFFFFFFFFFFFFFFFFF AND MUL OR SWAP1 SSTORE POP DUP2 PUSH20 0xFFFFFFFFFFFFFFFFFFFFFFFFFFFFFFFFFFFFFFFF AND DUP2 PUSH20 0xFFFFFFFFFFFFFFFFFFFFFFFFFFFFFFFFFFFFFFFF AND PUSH32 0x8BE0079C531659141344CD1FD0A4F28419497F9722A3DAAFE3B4186F6B6457E0 PUSH1 0x40 MLOAD PUSH1 0x40 MLOAD DUP1 SWAP2 SUB SWAP1 LOG3 POP POP JUMP JUMPDEST PUSH0 DUP1 PUSH3 0x1AD DUP5 DUP5 PUSH3 0x1E7 PUSH1 0x20 SHL PUSH1 0x20 SHR JUMP JUMPDEST SWAP1 POP DUP1 ISZERO PUSH3 0x1DD JUMPI PUSH3 0x1DB DUP4 PUSH1 0x2 PUSH0 DUP8 DUP2 MSTORE PUSH1 0x20 ADD SWAP1 DUP2 MSTORE PUSH1 0x20 ADD PUSH0 KECCAK256 PUSH3 0x2E2 PUSH1 0x20 SHL SWAP1 SWAP2 SWAP1 PUSH1 0x20 SHR JUMP JUMPDEST POP JUMPDEST DUP1 SWAP2 POP POP SWAP3 SWAP2 POP POP JUMP JUMPDEST PUSH0 PUSH3 0x1FA DUP4 DUP4 PUSH3 0x317 PUSH1 0x20 SHL PUSH1 0x20 SHR JUMP JUMPDEST PUSH3 0x2D8 JUMPI PUSH1 0x1 DUP1 PUSH0 DUP6 DUP2 MSTORE PUSH1 0x20 ADD SWAP1 DUP2 MSTORE PUSH1 0x20 ADD PUSH0 KECCAK256 PUSH0 ADD PUSH0 DUP5 PUSH20 0xFFFFFFFFFFFFFFFFFFFFFFFFFFFFFFFFFFFFFFFF AND PUSH20 0xFFFFFFFFFFFFFFFFFFFFFFFFFFFFFFFFFFFFFFFF AND DUP2 MSTORE PUSH1 0x20 ADD SWAP1 DUP2 MSTORE PUSH1 0x20 ADD PUSH0 KECCAK256 PUSH0 PUSH2 0x100 EXP DUP2 SLOAD DUP2 PUSH1 0xFF MUL NOT AND SWAP1 DUP4 ISZERO ISZERO MUL OR SWAP1 SSTORE POP PUSH3 0x274 PUSH3 0x37B PUSH1 0x20 SHL PUSH1 0x20 SHR JUMP JUMPDEST PUSH20 0xFFFFFFFFFFFFFFFFFFFFFFFFFFFFFFFFFFFFFFFF AND DUP3 PUSH20 0xFFFFFFFFFFFFFFFFFFFFFFFFFFFFFFFFFFFFFFFF AND DUP5 PUSH32 0x2F8788117E7EFF1D82E926EC794901D17C78024A50270940304540A733656F0D PUSH1 0x40 MLOAD PUSH1 0x40 MLOAD DUP1 SWAP2 SUB SWAP1 LOG4 PUSH1 0x1 SWAP1 POP PUSH3 0x2DC JUMP JUMPDEST PUSH0 SWAP1 POP JUMPDEST SWAP3 SWAP2 POP POP JUMP JUMPDEST PUSH0 PUSH3 0x30F DUP4 PUSH0 ADD DUP4 PUSH20 0xFFFFFFFFFFFFFFFFFFFFFFFFFFFFFFFFFFFFFFFF AND PUSH0 SHL PUSH3 0x382 PUSH1 0x20 SHL PUSH1 0x20 SHR JUMP JUMPDEST SWAP1 POP SWAP3 SWAP2 POP POP JUMP JUMPDEST PUSH0 PUSH1 0x1 PUSH0 DUP5 DUP2 MSTORE PUSH1 0x20 ADD SWAP1 DUP2 MSTORE PUSH1 0x20 ADD PUSH0 KECCAK256 PUSH0 ADD PUSH0 DUP4 PUSH20 0xFFFFFFFFFFFFFFFFFFFFFFFFFFFFFFFFFFFFFFFF AND PUSH20 0xFFFFFFFFFFFFFFFFFFFFFFFFFFFFFFFFFFFFFFFF AND DUP2 MSTORE PUSH1 0x20 ADD SWAP1 DUP2 MSTORE PUSH1 0x20 ADD PUSH0 KECCAK256 PUSH0 SWAP1 SLOAD SWAP1 PUSH2 0x100 EXP SWAP1 DIV PUSH1 0xFF AND SWAP1 POP SWAP3 SWAP2 POP POP JUMP JUMPDEST PUSH0 CALLER SWAP1 POP SWAP1 JUMP JUMPDEST PUSH0 PUSH3 0x395 DUP4 DUP4 PUSH3 0x3F3 PUSH1 0x20 SHL PUSH1 0x20 SHR JUMP JUMPDEST PUSH3 0x3E9 JUMPI DUP3 PUSH0 ADD DUP3 SWAP1 DUP1 PUSH1 0x1 DUP2 SLOAD ADD DUP1 DUP3 SSTORE DUP1 SWAP2 POP POP PUSH1 0x1 SWAP1 SUB SWAP1 PUSH0 MSTORE PUSH1 0x20 PUSH0 KECCAK256 ADD PUSH0 SWAP1 SWAP2 SWAP1 SWAP2 SWAP1 SWAP2 POP SSTORE DUP3 PUSH0 ADD DUP1 SLOAD SWAP1 POP DUP4 PUSH1 0x1 ADD PUSH0 DUP5 DUP2 MSTORE PUSH1 0x20 ADD SWAP1 DUP2 MSTORE PUSH1 0x20 ADD PUSH0 KECCAK256 DUP2 SWAP1 SSTORE POP PUSH1 0x1 SWAP1 POP PUSH3 0x3ED JUMP JUMPDEST PUSH0 SWAP1 POP JUMPDEST SWAP3 SWAP2 POP POP JUMP JUMPDEST PUSH0 DUP1 DUP4 PUSH1 0x1 ADD PUSH0 DUP5 DUP2 MSTORE PUSH1 0x20 ADD SWAP1 DUP2 MSTORE PUSH1 0x20 ADD PUSH0 KECCAK256 SLOAD EQ ISZERO SWAP1 POP SWAP3 SWAP2 POP POP JUMP JUMPDEST PUSH0 DUP1 REVERT JUMPDEST PUSH0 PUSH20 0xFFFFFFFFFFFFFFFFFFFFFFFFFFFFFFFFFFFFFFFF DUP3 AND SWAP1 POP SWAP2 SWAP1 POP JUMP JUMPDEST PUSH0 PUSH3 0x442 DUP3 PUSH3 0x417 JUMP JUMPDEST SWAP1 POP SWAP2 SWAP1 POP JUMP JUMPDEST PUSH3 0x454 DUP2 PUSH3 0x436 JUMP JUMPDEST DUP2 EQ PUSH3 0x45F JUMPI PUSH0 DUP1 REVERT JUMPDEST POP JUMP JUMPDEST PUSH0 DUP2 MLOAD SWAP1 POP PUSH3 0x472 DUP2 PUSH3 0x449 JUMP JUMPDEST SWAP3 SWAP2 POP POP JUMP JUMPDEST PUSH0 PUSH1 0x20 DUP3 DUP5 SUB SLT ISZERO PUSH3 0x490 JUMPI PUSH3 0x48F PUSH3 0x413 JUMP JUMPDEST JUMPDEST PUSH0 PUSH3 0x49F DUP5 DUP3 DUP6 ADD PUSH3 0x462 JUMP JUMPDEST SWAP2 POP POP SWAP3 SWAP2 POP POP JUMP JUMPDEST PUSH3 0x4B3 DUP2 PUSH3 0x436 JUMP JUMPDEST DUP3 MSTORE POP POP JUMP JUMPDEST PUSH0 PUSH1 0x20 DUP3 ADD SWAP1 POP PUSH3 0x4CE PUSH0 DUP4 ADD DUP5 PUSH3 0x4A8 JUMP JUMPDEST SWAP3 SWAP2 POP POP JUMP JUMPDEST PUSH2 0x1C2D DUP1 PUSH3 0x4E2 PUSH0 CODECOPY PUSH0 RETURN INVALID PUSH1 0x80 PUSH1 0x40 MSTORE CALLVALUE DUP1 ISZERO PUSH2 0xF JUMPI PUSH0 DUP1 REVERT JUMPDEST POP PUSH1 0x4 CALLDATASIZE LT PUSH2 0x129 JUMPI PUSH0 CALLDATALOAD PUSH1 0xE0 SHR DUP1 PUSH4 0x9010D07C GT PUSH2 0xAB JUMPI DUP1 PUSH4 0xCA15C873 GT PUSH2 0x6F JUMPI DUP1 PUSH4 0xCA15C873 EQ PUSH2 0x317 JUMPI DUP1 PUSH4 0xD547741F EQ PUSH2 0x347 JUMPI DUP1 PUSH4 0xDF74E028 EQ PUSH2 0x363 JUMPI DUP1 PUSH4 0xF2FDE38B EQ PUSH2 0x37F JUMPI DUP1 PUSH4 0xF516440C EQ PUSH2 0x39B JUMPI PUSH2 0x129 JUMP JUMPDEST DUP1 PUSH4 0x9010D07C EQ PUSH2 0x25F JUMPI DUP1 PUSH4 0x91D14854 EQ PUSH2 0x28F JUMPI DUP1 PUSH4 0xA217FDDF EQ PUSH2 0x2BF JUMPI DUP1 PUSH4 0xB5B68AFE EQ PUSH2 0x2DD JUMPI DUP1 PUSH4 0xB6B55F25 EQ PUSH2 0x2FB JUMPI PUSH2 0x129 JUMP JUMPDEST DUP1 PUSH4 0x36568ABE GT PUSH2 0xF2 JUMPI DUP1 PUSH4 0x36568ABE EQ PUSH2 0x1E1 JUMPI DUP1 PUSH4 0x715018A6 EQ PUSH2 0x1FD JUMPI DUP1 PUSH4 0x827A560B EQ PUSH2 0x207 JUMPI DUP1 PUSH4 0x85F438C1 EQ PUSH2 0x223 JUMPI DUP1 PUSH4 0x8DA5CB5B EQ PUSH2 0x241 JUMPI PUSH2 0x129 JUMP JUMPDEST DUP1 PUSH3 0xF714CE EQ PUSH2 0x12D JUMPI DUP1 PUSH4 0x1FFC9A7 EQ PUSH2 0x149 JUMPI DUP1 PUSH4 0x144FA6D7 EQ PUSH2 0x179 JUMPI DUP1 PUSH4 0x248A9CA3 EQ PUSH2 0x195 JUMPI DUP1 PUSH4 0x2F2FF15D EQ PUSH2 0x1C5 JUMPI JUMPDEST PUSH0 DUP1 REVERT JUMPDEST PUSH2 0x147 PUSH1 0x4 DUP1 CALLDATASIZE SUB DUP2 ADD SWAP1 PUSH2 0x142 SWAP2 SWAP1 PUSH2 0x14B6 JUMP JUMPDEST PUSH2 0x3B9 JUMP JUMPDEST STOP JUMPDEST PUSH2 0x163 PUSH1 0x4 DUP1 CALLDATASIZE SUB DUP2 ADD SWAP1 PUSH2 0x15E SWAP2 SWAP1 PUSH2 0x1549 JUMP JUMPDEST PUSH2 0x5A1 JUMP JUMPDEST PUSH1 0x40 MLOAD PUSH2 0x170 SWAP2 SWAP1 PUSH2 0x158E JUMP JUMPDEST PUSH1 0x40 MLOAD DUP1 SWAP2 SUB SWAP1 RETURN JUMPDEST PUSH2 0x193 PUSH1 0x4 DUP1 CALLDATASIZE SUB DUP2 ADD SWAP1 PUSH2 0x18E SWAP2 SWAP1 PUSH2 0x15E2 JUMP JUMPDEST PUSH2 0x61A JUMP JUMPDEST STOP JUMPDEST PUSH2 0x1AF PUSH1 0x4 DUP1 CALLDATASIZE SUB DUP2 ADD SWAP1 PUSH2 0x1AA SWAP2 SWAP1 PUSH2 0x1640 JUMP JUMPDEST PUSH2 0x665 JUMP JUMPDEST PUSH1 0x40 MLOAD PUSH2 0x1BC SWAP2 SWAP1 PUSH2 0x167A JUMP JUMPDEST PUSH1 0x40 MLOAD DUP1 SWAP2 SUB SWAP1 RETURN JUMPDEST PUSH2 0x1DF PUSH1 0x4 DUP1 CALLDATASIZE SUB DUP2 ADD SWAP1 PUSH2 0x1DA SWAP2 SWAP1 PUSH2 0x1693 JUMP JUMPDEST PUSH2 0x682 JUMP JUMPDEST STOP JUMPDEST PUSH2 0x1FB PUSH1 0x4 DUP1 CALLDATASIZE SUB DUP2 ADD SWAP1 PUSH2 0x1F6 SWAP2 SWAP1 PUSH2 0x1693 JUMP JUMPDEST PUSH2 0x6A4 JUMP JUMPDEST STOP JUMPDEST PUSH2 0x205 PUSH2 0x71F JUMP JUMPDEST STOP JUMPDEST PUSH2 0x221 PUSH1 0x4 DUP1 CALLDATASIZE SUB DUP2 ADD SWAP1 PUSH2 0x21C SWAP2 SWAP1 PUSH2 0x16FB JUMP JUMPDEST PUSH2 0x732 JUMP JUMPDEST STOP JUMPDEST PUSH2 0x22B PUSH2 0x756 JUMP JUMPDEST PUSH1 0x40 MLOAD PUSH2 0x238 SWAP2 SWAP1 PUSH2 0x167A JUMP JUMPDEST PUSH1 0x40 MLOAD DUP1 SWAP2 SUB SWAP1 RETURN JUMPDEST PUSH2 0x249 PUSH2 0x77A JUMP JUMPDEST PUSH1 0x40 MLOAD PUSH2 0x256 SWAP2 SWAP1 PUSH2 0x1735 JUMP JUMPDEST PUSH1 0x40 MLOAD DUP1 SWAP2 SUB SWAP1 RETURN JUMPDEST PUSH2 0x279 PUSH1 0x4 DUP1 CALLDATASIZE SUB DUP2 ADD SWAP1 PUSH2 0x274 SWAP2 SWAP1 PUSH2 0x174E JUMP JUMPDEST PUSH2 0x7A1 JUMP JUMPDEST PUSH1 0x40 MLOAD PUSH2 0x286 SWAP2 SWAP1 PUSH2 0x1735 JUMP JUMPDEST PUSH1 0x40 MLOAD DUP1 SWAP2 SUB SWAP1 RETURN JUMPDEST PUSH2 0x2A9 PUSH1 0x4 DUP1 CALLDATASIZE SUB DUP2 ADD SWAP1 PUSH2 0x2A4 SWAP2 SWAP1 PUSH2 0x1693 JUMP JUMPDEST PUSH2 0x7CD JUMP JUMPDEST PUSH1 0x40 MLOAD PUSH2 0x2B6 SWAP2 SWAP1 PUSH2 0x158E JUMP JUMPDEST PUSH1 0x40 MLOAD DUP1 SWAP2 SUB SWAP1 RETURN JUMPDEST PUSH2 0x2C7 PUSH2 0x831 JUMP JUMPDEST PUSH1 0x40 MLOAD PUSH2 0x2D4 SWAP2 SWAP1 PUSH2 0x167A JUMP JUMPDEST PUSH1 0x40 MLOAD DUP1 SWAP2 SUB SWAP1 RETURN JUMPDEST PUSH2 0x2E5 PUSH2 0x837 JUMP JUMPDEST PUSH1 0x40 MLOAD PUSH2 0x2F2 SWAP2 SWAP1 PUSH2 0x158E JUMP JUMPDEST PUSH1 0x40 MLOAD DUP1 SWAP2 SUB SWAP1 RETURN JUMPDEST PUSH2 0x315 PUSH1 0x4 DUP1 CALLDATASIZE SUB DUP2 ADD SWAP1 PUSH2 0x310 SWAP2 SWAP1 PUSH2 0x178C JUMP JUMPDEST PUSH2 0x849 JUMP JUMPDEST STOP JUMPDEST PUSH2 0x331 PUSH1 0x4 DUP1 CALLDATASIZE SUB DUP2 ADD SWAP1 PUSH2 0x32C SWAP2 SWAP1 PUSH2 0x1640 JUMP JUMPDEST PUSH2 0x954 JUMP JUMPDEST PUSH1 0x40 MLOAD PUSH2 0x33E SWAP2 SWAP1 PUSH2 0x17C6 JUMP JUMPDEST PUSH1 0x40 MLOAD DUP1 SWAP2 SUB SWAP1 RETURN JUMPDEST PUSH2 0x361 PUSH1 0x4 DUP1 CALLDATASIZE SUB DUP2 ADD SWAP1 PUSH2 0x35C SWAP2 SWAP1 PUSH2 0x1693 JUMP JUMPDEST PUSH2 0x975 JUMP JUMPDEST STOP JUMPDEST PUSH2 0x37D PUSH1 0x4 DUP1 CALLDATASIZE SUB DUP2 ADD SWAP1 PUSH2 0x378 SWAP2 SWAP1 PUSH2 0x178C JUMP JUMPDEST PUSH2 0x997 JUMP JUMPDEST STOP JUMPDEST PUSH2 0x399 PUSH1 0x4 DUP1 CALLDATASIZE SUB DUP2 ADD SWAP1 PUSH2 0x394 SWAP2 SWAP1 PUSH2 0x17DF JUMP JUMPDEST PUSH2 0x9A9 JUMP JUMPDEST STOP JUMPDEST PUSH2 0x3A3 PUSH2 0xA2D JUMP JUMPDEST PUSH1 0x40 MLOAD PUSH2 0x3B0 SWAP2 SWAP1 PUSH2 0x17C6 JUMP JUMPDEST PUSH1 0x40 MLOAD DUP1 SWAP2 SUB SWAP1 RETURN JUMPDEST PUSH2 0x3C1 PUSH2 0xA33 JUMP JUMPDEST PUSH20 0xFFFFFFFFFFFFFFFFFFFFFFFFFFFFFFFFFFFFFFFF AND PUSH2 0x3DF PUSH2 0x77A JUMP JUMPDEST PUSH20 0xFFFFFFFFFFFFFFFFFFFFFFFFFFFFFFFFFFFFFFFF AND EQ DUP1 PUSH2 0x42E JUMPI POP PUSH2 0x42D PUSH32 0x10DAC8C06A04BEC0B551627DAD28BC00D6516B0CAACD1C7B345FCDB5211334E4 PUSH2 0x428 PUSH2 0xA33 JUMP JUMPDEST PUSH2 0x7CD JUMP JUMPDEST JUMPDEST PUSH2 0x46D JUMPI PUSH1 0x40 MLOAD PUSH32 0x8C379A000000000000000000000000000000000000000000000000000000000 DUP2 MSTORE PUSH1 0x4 ADD PUSH2 0x464 SWAP1 PUSH2 0x1864 JUMP JUMPDEST PUSH1 0x40 MLOAD DUP1 SWAP2 SUB SWAP1 REVERT JUMPDEST PUSH1 0x5 PUSH0 SWAP1 SLOAD SWAP1 PUSH2 0x100 EXP SWAP1 DIV PUSH1 0xFF AND PUSH2 0x4BB JUMPI PUSH1 0x40 MLOAD PUSH32 0x8C379A000000000000000000000000000000000000000000000000000000000 DUP2 MSTORE PUSH1 0x4 ADD PUSH2 0x4B2 SWAP1 PUSH2 0x18CC JUMP JUMPDEST PUSH1 0x40 MLOAD DUP1 SWAP2 SUB SWAP1 REVERT JUMPDEST PUSH1 0x4 SLOAD DUP3 GT ISZERO PUSH2 0x500 JUMPI PUSH1 0x40 MLOAD PUSH32 0x8C379A000000000000000000000000000000000000000000000000000000000 DUP2 MSTORE PUSH1 0x4 ADD PUSH2 0x4F7 SWAP1 PUSH2 0x1934 JUMP JUMPDEST PUSH1 0x40 MLOAD DUP1 SWAP2 SUB SWAP1 REVERT JUMPDEST PUSH1 0x3 PUSH0 SWAP1 SLOAD SWAP1 PUSH2 0x100 EXP SWAP1 DIV PUSH20 0xFFFFFFFFFFFFFFFFFFFFFFFFFFFFFFFFFFFFFFFF AND PUSH20 0xFFFFFFFFFFFFFFFFFFFFFFFFFFFFFFFFFFFFFFFF AND PUSH4 0xA9059CBB DUP3 DUP5 PUSH1 0x40 MLOAD DUP4 PUSH4 0xFFFFFFFF AND PUSH1 0xE0 SHL DUP2 MSTORE PUSH1 0x4 ADD PUSH2 0x55C SWAP3 SWAP2 SWAP1 PUSH2 0x1952 JUMP JUMPDEST PUSH1 0x20 PUSH1 0x40 MLOAD DUP1 DUP4 SUB DUP2 PUSH0 DUP8 GAS CALL ISZERO DUP1 ISZERO PUSH2 0x578 JUMPI RETURNDATASIZE PUSH0 DUP1 RETURNDATACOPY RETURNDATASIZE PUSH0 REVERT JUMPDEST POP POP POP POP PUSH1 0x40 MLOAD RETURNDATASIZE PUSH1 0x1F NOT PUSH1 0x1F DUP3 ADD AND DUP3 ADD DUP1 PUSH1 0x40 MSTORE POP DUP2 ADD SWAP1 PUSH2 0x59C SWAP2 SWAP1 PUSH2 0x198D JUMP JUMPDEST POP POP POP JUMP JUMPDEST PUSH0 PUSH32 0x5A05180F00000000000000000000000000000000000000000000000000000000 PUSH28 0xFFFFFFFFFFFFFFFFFFFFFFFFFFFFFFFFFFFFFFFFFFFFFFFFFFFFFFFF NOT AND DUP3 PUSH28 0xFFFFFFFFFFFFFFFFFFFFFFFFFFFFFFFFFFFFFFFFFFFFFFFFFFFFFFFF NOT AND EQ DUP1 PUSH2 0x613 JUMPI POP PUSH2 0x612 DUP3 PUSH2 0xA3A JUMP JUMPDEST JUMPDEST SWAP1 POP SWAP2 SWAP1 POP JUMP JUMPDEST PUSH2 0x622 PUSH2 0xAB3 JUMP JUMPDEST DUP1 PUSH1 0x3 PUSH0 PUSH2 0x100 EXP DUP2 SLOAD DUP2 PUSH20 0xFFFFFFFFFFFFFFFFFFFFFFFFFFFFFFFFFFFFFFFF MUL NOT AND SWAP1 DUP4 PUSH20 0xFFFFFFFFFFFFFFFFFFFFFFFFFFFFFFFFFFFFFFFF AND MUL OR SWAP1 SSTORE POP POP JUMP JUMPDEST PUSH0 PUSH1 0x1 PUSH0 DUP4 DUP2 MSTORE PUSH1 0x20 ADD SWAP1 DUP2 MSTORE PUSH1 0x20 ADD PUSH0 KECCAK256 PUSH1 0x1 ADD SLOAD SWAP1 POP SWAP2 SWAP1 POP JUMP JUMPDEST PUSH2 0x68B DUP3 PUSH2 0x665 JUMP JUMPDEST PUSH2 0x694 DUP2 PUSH2 0xB3A JUMP JUMPDEST PUSH2 0x69E DUP4 DUP4 PUSH2 0xB4E JUMP JUMPDEST POP POP POP POP JUMP JUMPDEST PUSH2 0x6AC PUSH2 0xA33 JUMP JUMPDEST PUSH20 0xFFFFFFFFFFFFFFFFFFFFFFFFFFFFFFFFFFFFFFFF AND DUP2 PUSH20 0xFFFFFFFFFFFFFFFFFFFFFFFFFFFFFFFFFFFFFFFF AND EQ PUSH2 0x710 JUMPI PUSH1 0x40 MLOAD PUSH32 0x6697B23200000000000000000000000000000000000000000000000000000000 DUP2 MSTORE PUSH1 0x4 ADD PUSH1 0x40 MLOAD DUP1 SWAP2 SUB SWAP1 REVERT JUMPDEST PUSH2 0x71A DUP3 DUP3 PUSH2 0xB91 JUMP JUMPDEST POP POP POP JUMP JUMPDEST PUSH2 0x727 PUSH2 0xAB3 JUMP JUMPDEST PUSH2 0x730 PUSH0 PUSH2 0xBD4 JUMP JUMPDEST JUMP JUMPDEST PUSH2 0x73A PUSH2 0xAB3 JUMP JUMPDEST DUP1 PUSH1 0x5 PUSH0 PUSH2 0x100 EXP DUP2 SLOAD DUP2 PUSH1 0xFF MUL NOT AND SWAP1 DUP4 ISZERO ISZERO MUL OR SWAP1 SSTORE POP POP JUMP JUMPDEST PUSH32 0x10DAC8C06A04BEC0B551627DAD28BC00D6516B0CAACD1C7B345FCDB5211334E4 DUP2 JUMP JUMPDEST PUSH0 DUP1 PUSH0 SWAP1 SLOAD SWAP1 PUSH2 0x100 EXP SWAP1 DIV PUSH20 0xFFFFFFFFFFFFFFFFFFFFFFFFFFFFFFFFFFFFFFFF AND SWAP1 POP SWAP1 JUMP JUMPDEST PUSH0 PUSH2 0x7C5 DUP3 PUSH1 0x2 PUSH0 DUP7 DUP2 MSTORE PUSH1 0x20 ADD SWAP1 DUP2 MSTORE PUSH1 0x20 ADD PUSH0 KECCAK256 PUSH2 0xC95 SWAP1 SWAP2 SWAP1 PUSH4 0xFFFFFFFF AND JUMP JUMPDEST SWAP1 POP SWAP3 SWAP2 POP POP JUMP JUMPDEST PUSH0 PUSH1 0x1 PUSH0 DUP5 DUP2 MSTORE PUSH1 0x20 ADD SWAP1 DUP2 MSTORE PUSH1 0x20 ADD PUSH0 KECCAK256 PUSH0 ADD PUSH0 DUP4 PUSH20 0xFFFFFFFFFFFFFFFFFFFFFFFFFFFFFFFFFFFFFFFF AND PUSH20 0xFFFFFFFFFFFFFFFFFFFFFFFFFFFFFFFFFFFFFFFF AND DUP2 MSTORE PUSH1 0x20 ADD SWAP1 DUP2 MSTORE PUSH1 0x20 ADD PUSH0 KECCAK256 PUSH0 SWAP1 SLOAD SWAP1 PUSH2 0x100 EXP SWAP1 DIV PUSH1 0xFF AND SWAP1 POP SWAP3 SWAP2 POP POP JUMP JUMPDEST PUSH0 DUP1 SHL DUP2 JUMP JUMPDEST PUSH1 0x5 PUSH0 SWAP1 SLOAD SWAP1 PUSH2 0x100 EXP SWAP1 DIV PUSH1 0xFF AND DUP2 JUMP JUMPDEST DUP1 PUSH1 0x3 PUSH0 SWAP1 SLOAD SWAP1 PUSH2 0x100 EXP SWAP1 DIV PUSH20 0xFFFFFFFFFFFFFFFFFFFFFFFFFFFFFFFFFFFFFFFF AND PUSH20 0xFFFFFFFFFFFFFFFFFFFFFFFFFFFFFFFFFFFFFFFF AND PUSH4 0x70A08231 CALLER PUSH1 0x40 MLOAD DUP3 PUSH4 0xFFFFFFFF AND PUSH1 0xE0 SHL DUP2 MSTORE PUSH1 0x4 ADD PUSH2 0x8A4 SWAP2 SWAP1 PUSH2 0x1735 JUMP JUMPDEST PUSH1 0x20 PUSH1 0x40 MLOAD DUP1 DUP4 SUB DUP2 DUP7 GAS STATICCALL ISZERO DUP1 ISZERO PUSH2 0x8BF JUMPI RETURNDATASIZE PUSH0 DUP1 RETURNDATACOPY RETURNDATASIZE PUSH0 REVERT JUMPDEST POP POP POP POP PUSH1 0x40 MLOAD RETURNDATASIZE PUSH1 0x1F NOT PUSH1 0x1F DUP3 ADD AND DUP3 ADD DUP1 PUSH1 0x40 MSTORE POP DUP2 ADD SWAP1 PUSH2 0x8E3 SWAP2 SWAP1 PUSH2 0x19CC JUMP JUMPDEST LT ISZERO PUSH2 0x924 JUMPI PUSH1 0x40 MLOAD PUSH32 0x8C379A000000000000000000000000000000000000000000000000000000000 DUP2 MSTORE PUSH1 0x4 ADD PUSH2 0x91B SWAP1 PUSH2 0x1A41 JUMP JUMPDEST PUSH1 0x40 MLOAD DUP1 SWAP2 SUB SWAP1 REVERT JUMPDEST PUSH2 0x951 PUSH1 0x3 PUSH0 SWAP1 SLOAD SWAP1 PUSH2 0x100 EXP SWAP1 DIV PUSH20 0xFFFFFFFFFFFFFFFFFFFFFFFFFFFFFFFFFFFFFFFF AND CALLER ADDRESS DUP5 PUSH2 0xCAC JUMP JUMPDEST POP JUMP JUMPDEST PUSH0 PUSH2 0x96E PUSH1 0x2 PUSH0 DUP5 DUP2 MSTORE PUSH1 0x20 ADD SWAP1 DUP2 MSTORE PUSH1 0x20 ADD PUSH0 KECCAK256 PUSH2 0xD2E JUMP JUMPDEST SWAP1 POP SWAP2 SWAP1 POP JUMP JUMPDEST PUSH2 0x97E DUP3 PUSH2 0x665 JUMP JUMPDEST PUSH2 0x987 DUP2 PUSH2 0xB3A JUMP JUMPDEST PUSH2 0x991 DUP4 DUP4 PUSH2 0xB91 JUMP JUMPDEST POP POP POP POP JUMP JUMPDEST PUSH2 0x99F PUSH2 0xAB3 JUMP JUMPDEST DUP1 PUSH1 0x4 DUP2 SWAP1 SSTORE POP POP JUMP JUMPDEST PUSH2 0x9B1 PUSH2 0xAB3 JUMP JUMPDEST PUSH0 PUSH20 0xFFFFFFFFFFFFFFFFFFFFFFFFFFFFFFFFFFFFFFFF AND DUP2 PUSH20 0xFFFFFFFFFFFFFFFFFFFFFFFFFFFFFFFFFFFFFFFF AND SUB PUSH2 0xA21 JUMPI PUSH0 PUSH1 0x40 MLOAD PUSH32 0x1E4FBDF700000000000000000000000000000000000000000000000000000000 DUP2 MSTORE PUSH1 0x4 ADD PUSH2 0xA18 SWAP2 SWAP1 PUSH2 0x1735 JUMP JUMPDEST PUSH1 0x40 MLOAD DUP1 SWAP2 SUB SWAP1 REVERT JUMPDEST PUSH2 0xA2A DUP2 PUSH2 0xBD4 JUMP JUMPDEST POP JUMP JUMPDEST PUSH1 0x4 SLOAD DUP2 JUMP JUMPDEST PUSH0 CALLER SWAP1 POP SWAP1 JUMP JUMPDEST PUSH0 PUSH32 0x7965DB0B00000000000000000000000000000000000000000000000000000000 PUSH28 0xFFFFFFFFFFFFFFFFFFFFFFFFFFFFFFFFFFFFFFFFFFFFFFFFFFFFFFFF NOT AND DUP3 PUSH28 0xFFFFFFFFFFFFFFFFFFFFFFFFFFFFFFFFFFFFFFFFFFFFFFFFFFFFFFFF NOT AND EQ DUP1 PUSH2 0xAAC JUMPI POP PUSH2 0xAAB DUP3 PUSH2 0xD41 JUMP JUMPDEST JUMPDEST SWAP1 POP SWAP2 SWAP1 POP JUMP JUMPDEST PUSH2 0xABB PUSH2 0xA33 JUMP JUMPDEST PUSH20 0xFFFFFFFFFFFFFFFFFFFFFFFFFFFFFFFFFFFFFFFF AND PUSH2 0xAD9 PUSH2 0x77A JUMP JUMPDEST PUSH20 0xFFFFFFFFFFFFFFFFFFFFFFFFFFFFFFFFFFFFFFFF AND EQ PUSH2 0xB38 JUMPI PUSH2 0xAFC PUSH2 0xA33 JUMP JUMPDEST PUSH1 0x40 MLOAD PUSH32 0x118CDAA700000000000000000000000000000000000000000000000000000000 DUP2 MSTORE PUSH1 0x4 ADD PUSH2 0xB2F SWAP2 SWAP1 PUSH2 0x1735 JUMP JUMPDEST PUSH1 0x40 MLOAD DUP1 SWAP2 SUB SWAP1 REVERT JUMPDEST JUMP JUMPDEST PUSH2 0xB4B DUP2 PUSH2 0xB46 PUSH2 0xA33 JUMP JUMPDEST PUSH2 0xDAA JUMP JUMPDEST POP JUMP JUMPDEST PUSH0 DUP1 PUSH2 0xB5A DUP5 DUP5 PUSH2 0xDFB JUMP JUMPDEST SWAP1 POP DUP1 ISZERO PUSH2 0xB87 JUMPI PUSH2 0xB85 DUP4 PUSH1 0x2 PUSH0 DUP8 DUP2 MSTORE PUSH1 0x20 ADD SWAP1 DUP2 MSTORE PUSH1 0x20 ADD PUSH0 KECCAK256 PUSH2 0xEE4 SWAP1 SWAP2 SWAP1 PUSH4 0xFFFFFFFF AND JUMP JUMPDEST POP JUMPDEST DUP1 SWAP2 POP POP SWAP3 SWAP2 POP POP JUMP JUMPDEST PUSH0 DUP1 PUSH2 0xB9D DUP5 DUP5 PUSH2 0xF11 JUMP JUMPDEST SWAP1 POP DUP1 ISZERO PUSH2 0xBCA JUMPI PUSH2 0xBC8 DUP4 PUSH1 0x2 PUSH0 DUP8 DUP2 MSTORE PUSH1 0x20 ADD SWAP1 DUP2 MSTORE PUSH1 0x20 ADD PUSH0 KECCAK256 PUSH2 0xFFB SWAP1 SWAP2 SWAP1 PUSH4 0xFFFFFFFF AND JUMP JUMPDEST POP JUMPDEST DUP1 SWAP2 POP POP SWAP3 SWAP2 POP POP JUMP JUMPDEST PUSH0 DUP1 PUSH0 SWAP1 SLOAD SWAP1 PUSH2 0x100 EXP SWAP1 DIV PUSH20 0xFFFFFFFFFFFFFFFFFFFFFFFFFFFFFFFFFFFFFFFF AND SWAP1 POP DUP2 PUSH0 DUP1 PUSH2 0x100 EXP DUP2 SLOAD DUP2 PUSH20 0xFFFFFFFFFFFFFFFFFFFFFFFFFFFFFFFFFFFFFFFF MUL NOT AND SWAP1 DUP4 PUSH20 0xFFFFFFFFFFFFFFFFFFFFFFFFFFFFFFFFFFFFFFFF AND MUL OR SWAP1 SSTORE POP DUP2 PUSH20 0xFFFFFFFFFFFFFFFFFFFFFFFFFFFFFFFFFFFFFFFF AND DUP2 PUSH20 0xFFFFFFFFFFFFFFFFFFFFFFFFFFFFFFFFFFFFFFFF AND PUSH32 0x8BE0079C531659141344CD1FD0A4F28419497F9722A3DAAFE3B4186F6B6457E0 PUSH1 0x40 MLOAD PUSH1 0x40 MLOAD DUP1 SWAP2 SUB SWAP1 LOG3 POP POP JUMP JUMPDEST PUSH0 PUSH2 0xCA2 DUP4 PUSH0 ADD DUP4 PUSH2 0x1028 JUMP JUMPDEST PUSH0 SHR SWAP1 POP SWAP3 SWAP2 POP POP JUMP JUMPDEST PUSH2 0xD28 DUP5 DUP6 PUSH20 0xFFFFFFFFFFFFFFFFFFFFFFFFFFFFFFFFFFFFFFFF AND PUSH4 0x23B872DD DUP7 DUP7 DUP7 PUSH1 0x40 MLOAD PUSH1 0x24 ADD PUSH2 0xCE1 SWAP4 SWAP3 SWAP2 SWAP1 PUSH2 0x1A5F JUMP JUMPDEST PUSH1 0x40 MLOAD PUSH1 0x20 DUP2 DUP4 SUB SUB DUP2 MSTORE SWAP1 PUSH1 0x40 MSTORE SWAP2 POP PUSH1 0xE0 SHL PUSH1 0x20 DUP3 ADD DUP1 MLOAD PUSH28 0xFFFFFFFFFFFFFFFFFFFFFFFFFFFFFFFFFFFFFFFFFFFFFFFFFFFFFFFF DUP4 DUP2 DUP4 AND OR DUP4 MSTORE POP POP POP POP PUSH2 0x104F JUMP JUMPDEST POP POP POP POP JUMP JUMPDEST PUSH0 PUSH2 0xD3A DUP3 PUSH0 ADD PUSH2 0x10E4 JUMP JUMPDEST SWAP1 POP SWAP2 SWAP1 POP JUMP JUMPDEST PUSH0 PUSH32 0x1FFC9A700000000000000000000000000000000000000000000000000000000 PUSH28 0xFFFFFFFFFFFFFFFFFFFFFFFFFFFFFFFFFFFFFFFFFFFFFFFFFFFFFFFF NOT AND DUP3 PUSH28 0xFFFFFFFFFFFFFFFFFFFFFFFFFFFFFFFFFFFFFFFFFFFFFFFFFFFFFFFF NOT AND EQ SWAP1 POP SWAP2 SWAP1 POP JUMP JUMPDEST PUSH2 0xDB4 DUP3 DUP3 PUSH2 0x7CD JUMP JUMPDEST PUSH2 0xDF7 JUMPI DUP1 DUP3 PUSH1 0x40 MLOAD PUSH32 0xE2517D3F00000000000000000000000000000000000000000000000000000000 DUP2 MSTORE PUSH1 0x4 ADD PUSH2 0xDEE SWAP3 SWAP2 SWAP1 PUSH2 0x1A94 JUMP JUMPDEST PUSH1 0x40 MLOAD DUP1 SWAP2 SUB SWAP1 REVERT JUMPDEST POP POP JUMP JUMPDEST PUSH0 PUSH2 0xE06 DUP4 DUP4 PUSH2 0x7CD JUMP JUMPDEST PUSH2 0xEDA JUMPI PUSH1 0x1 DUP1 PUSH0 DUP6 DUP2 MSTORE PUSH1 0x20 ADD SWAP1 DUP2 MSTORE PUSH1 0x20 ADD PUSH0 KECCAK256 PUSH0 ADD PUSH0 DUP5 PUSH20 0xFFFFFFFFFFFFFFFFFFFFFFFFFFFFFFFFFFFFFFFF AND PUSH20 0xFFFFFFFFFFFFFFFFFFFFFFFFFFFFFFFFFFFFFFFF AND DUP2 MSTORE PUSH1 0x20 ADD SWAP1 DUP2 MSTORE PUSH1 0x20 ADD PUSH0 KECCAK256 PUSH0 PUSH2 0x100 EXP DUP2 SLOAD DUP2 PUSH1 0xFF MUL NOT AND SWAP1 DUP4 ISZERO ISZERO MUL OR SWAP1 SSTORE POP PUSH2 0xE77 PUSH2 0xA33 JUMP JUMPDEST PUSH20 0xFFFFFFFFFFFFFFFFFFFFFFFFFFFFFFFFFFFFFFFF AND DUP3 PUSH20 0xFFFFFFFFFFFFFFFFFFFFFFFFFFFFFFFFFFFFFFFF AND DUP5 PUSH32 0x2F8788117E7EFF1D82E926EC794901D17C78024A50270940304540A733656F0D PUSH1 0x40 MLOAD PUSH1 0x40 MLOAD DUP1 SWAP2 SUB SWAP1 LOG4 PUSH1 0x1 SWAP1 POP PUSH2 0xEDE JUMP JUMPDEST PUSH0 SWAP1 POP JUMPDEST SWAP3 SWAP2 POP POP JUMP JUMPDEST PUSH0 PUSH2 0xF09 DUP4 PUSH0 ADD DUP4 PUSH20 0xFFFFFFFFFFFFFFFFFFFFFFFFFFFFFFFFFFFFFFFF AND PUSH0 SHL PUSH2 0x10F3 JUMP JUMPDEST SWAP1 POP SWAP3 SWAP2 POP POP JUMP JUMPDEST PUSH0 PUSH2 0xF1C DUP4 DUP4 PUSH2 0x7CD JUMP JUMPDEST ISZERO PUSH2 0xFF1 JUMPI PUSH0 PUSH1 0x1 PUSH0 DUP6 DUP2 MSTORE PUSH1 0x20 ADD SWAP1 DUP2 MSTORE PUSH1 0x20 ADD PUSH0 KECCAK256 PUSH0 ADD PUSH0 DUP5 PUSH20 0xFFFFFFFFFFFFFFFFFFFFFFFFFFFFFFFFFFFFFFFF AND PUSH20 0xFFFFFFFFFFFFFFFFFFFFFFFFFFFFFFFFFFFFFFFF AND DUP2 MSTORE PUSH1 0x20 ADD SWAP1 DUP2 MSTORE PUSH1 0x20 ADD PUSH0 KECCAK256 PUSH0 PUSH2 0x100 EXP DUP2 SLOAD DUP2 PUSH1 0xFF MUL NOT AND SWAP1 DUP4 ISZERO ISZERO MUL OR SWAP1 SSTORE POP PUSH2 0xF8E PUSH2 0xA33 JUMP JUMPDEST PUSH20 0xFFFFFFFFFFFFFFFFFFFFFFFFFFFFFFFFFFFFFFFF AND DUP3 PUSH20 0xFFFFFFFFFFFFFFFFFFFFFFFFFFFFFFFFFFFFFFFF AND DUP5 PUSH32 0xF6391F5C32D9C69D2A47EA670B442974B53935D1EDC7FD64EB21E047A839171B PUSH1 0x40 MLOAD PUSH1 0x40 MLOAD DUP1 SWAP2 SUB SWAP1 LOG4 PUSH1 0x1 SWAP1 POP PUSH2 0xFF5 JUMP JUMPDEST PUSH0 SWAP1 POP JUMPDEST SWAP3 SWAP2 POP POP JUMP JUMPDEST PUSH0 PUSH2 0x1020 DUP4 PUSH0 ADD DUP4 PUSH20 0xFFFFFFFFFFFFFFFFFFFFFFFFFFFFFFFFFFFFFFFF AND PUSH0 SHL PUSH2 0x115A JUMP JUMPDEST SWAP1 POP SWAP3 SWAP2 POP POP JUMP JUMPDEST PUSH0 DUP3 PUSH0 ADD DUP3 DUP2 SLOAD DUP2 LT PUSH2 0x103E JUMPI PUSH2 0x103D PUSH2 0x1ABB JUMP JUMPDEST JUMPDEST SWAP1 PUSH0 MSTORE PUSH1 0x20 PUSH0 KECCAK256 ADD SLOAD SWAP1 POP SWAP3 SWAP2 POP POP JUMP JUMPDEST PUSH0 PUSH2 0x1079 DUP3 DUP5 PUSH20 0xFFFFFFFFFFFFFFFFFFFFFFFFFFFFFFFFFFFFFFFF AND PUSH2 0x1256 SWAP1 SWAP2 SWAP1 PUSH4 0xFFFFFFFF AND JUMP JUMPDEST SWAP1 POP PUSH0 DUP2 MLOAD EQ ISZERO DUP1 ISZERO PUSH2 0x109D JUMPI POP DUP1 DUP1 PUSH1 0x20 ADD SWAP1 MLOAD DUP2 ADD SWAP1 PUSH2 0x109B SWAP2 SWAP1 PUSH2 0x198D JUMP JUMPDEST ISZERO JUMPDEST ISZERO PUSH2 0x10DF JUMPI DUP3 PUSH1 0x40 MLOAD PUSH32 0x5274AFE700000000000000000000000000000000000000000000000000000000 DUP2 MSTORE PUSH1 0x4 ADD PUSH2 0x10D6 SWAP2 SWAP1 PUSH2 0x1735 JUMP JUMPDEST PUSH1 0x40 MLOAD DUP1 SWAP2 SUB SWAP1 REVERT JUMPDEST POP POP POP JUMP JUMPDEST PUSH0 DUP2 PUSH0 ADD DUP1 SLOAD SWAP1 POP SWAP1 POP SWAP2 SWAP1 POP JUMP JUMPDEST PUSH0 PUSH2 0x10FE DUP4 DUP4 PUSH2 0x126B JUMP JUMPDEST PUSH2 0x1150 JUMPI DUP3 PUSH0 ADD DUP3 SWAP1 DUP1 PUSH1 0x1 DUP2 SLOAD ADD DUP1 DUP3 SSTORE DUP1 SWAP2 POP POP PUSH1 0x1 SWAP1 SUB SWAP1 PUSH0 MSTORE PUSH1 0x20 PUSH0 KECCAK256 ADD PUSH0 SWAP1 SWAP2 SWAP1 SWAP2 SWAP1 SWAP2 POP SSTORE DUP3 PUSH0 ADD DUP1 SLOAD SWAP1 POP DUP4 PUSH1 0x1 ADD PUSH0 DUP5 DUP2 MSTORE PUSH1 0x20 ADD SWAP1 DUP2 MSTORE PUSH1 0x20 ADD PUSH0 KECCAK256 DUP2 SWAP1 SSTORE POP PUSH1 0x1 SWAP1 POP PUSH2 0x1154 JUMP JUMPDEST PUSH0 SWAP1 POP JUMPDEST SWAP3 SWAP2 POP POP JUMP JUMPDEST PUSH0 DUP1 DUP4 PUSH1 0x1 ADD PUSH0 DUP5 DUP2 MSTORE PUSH1 0x20 ADD SWAP1 DUP2 MSTORE PUSH1 0x20 ADD PUSH0 KECCAK256 SLOAD SWAP1 POP PUSH0 DUP2 EQ PUSH2 0x124B JUMPI PUSH0 PUSH1 0x1 DUP3 PUSH2 0x1187 SWAP2 SWAP1 PUSH2 0x1B15 JUMP JUMPDEST SWAP1 POP PUSH0 PUSH1 0x1 DUP7 PUSH0 ADD DUP1 SLOAD SWAP1 POP PUSH2 0x119D SWAP2 SWAP1 PUSH2 0x1B15 JUMP JUMPDEST SWAP1 POP DUP1 DUP3 EQ PUSH2 0x1203 JUMPI PUSH0 DUP7 PUSH0 ADD DUP3 DUP2 SLOAD DUP2 LT PUSH2 0x11BC JUMPI PUSH2 0x11BB PUSH2 0x1ABB JUMP JUMPDEST JUMPDEST SWAP1 PUSH0 MSTORE PUSH1 0x20 PUSH0 KECCAK256 ADD SLOAD SWAP1 POP DUP1 DUP8 PUSH0 ADD DUP5 DUP2 SLOAD DUP2 LT PUSH2 0x11DD JUMPI PUSH2 0x11DC PUSH2 0x1ABB JUMP JUMPDEST JUMPDEST SWAP1 PUSH0 MSTORE PUSH1 0x20 PUSH0 KECCAK256 ADD DUP2 SWAP1 SSTORE POP DUP4 DUP8 PUSH1 0x1 ADD PUSH0 DUP4 DUP2 MSTORE PUSH1 0x20 ADD SWAP1 DUP2 MSTORE PUSH1 0x20 ADD PUSH0 KECCAK256 DUP2 SWAP1 SSTORE POP POP JUMPDEST DUP6 PUSH0 ADD DUP1 SLOAD DUP1 PUSH2 0x1216 JUMPI PUSH2 0x1215 PUSH2 0x1B48 JUMP JUMPDEST JUMPDEST PUSH1 0x1 SWAP1 SUB DUP2 DUP2 SWAP1 PUSH0 MSTORE PUSH1 0x20 PUSH0 KECCAK256 ADD PUSH0 SWAP1 SSTORE SWAP1 SSTORE DUP6 PUSH1 0x1 ADD PUSH0 DUP7 DUP2 MSTORE PUSH1 0x20 ADD SWAP1 DUP2 MSTORE PUSH1 0x20 ADD PUSH0 KECCAK256 PUSH0 SWAP1 SSTORE PUSH1 0x1 SWAP4 POP POP POP POP PUSH2 0x1250 JUMP JUMPDEST PUSH0 SWAP2 POP POP JUMPDEST SWAP3 SWAP2 POP POP JUMP JUMPDEST PUSH1 0x60 PUSH2 0x1263 DUP4 DUP4 PUSH0 PUSH2 0x128B JUMP JUMPDEST SWAP1 POP SWAP3 SWAP2 POP POP JUMP JUMPDEST PUSH0 DUP1 DUP4 PUSH1 0x1 ADD PUSH0 DUP5 DUP2 MSTORE PUSH1 0x20 ADD SWAP1 DUP2 MSTORE PUSH1 0x20 ADD PUSH0 KECCAK256 SLOAD EQ ISZERO SWAP1 POP SWAP3 SWAP2 POP POP JUMP JUMPDEST PUSH1 0x60 DUP2 SELFBALANCE LT ISZERO PUSH2 0x12D2 JUMPI ADDRESS PUSH1 0x40 MLOAD PUSH32 0xCD78605900000000000000000000000000000000000000000000000000000000 DUP2 MSTORE PUSH1 0x4 ADD PUSH2 0x12C9 SWAP2 SWAP1 PUSH2 0x1735 JUMP JUMPDEST PUSH1 0x40 MLOAD DUP1 SWAP2 SUB SWAP1 REVERT JUMPDEST PUSH0 DUP1 DUP6 PUSH20 0xFFFFFFFFFFFFFFFFFFFFFFFFFFFFFFFFFFFFFFFF AND DUP5 DUP7 PUSH1 0x40 MLOAD PUSH2 0x12FA SWAP2 SWAP1 PUSH2 0x1BE1 JUMP JUMPDEST PUSH0 PUSH1 0x40 MLOAD DUP1 DUP4 SUB DUP2 DUP6 DUP8 GAS CALL SWAP3 POP POP POP RETURNDATASIZE DUP1 PUSH0 DUP2 EQ PUSH2 0x1334 JUMPI PUSH1 0x40 MLOAD SWAP2 POP PUSH1 0x1F NOT PUSH1 0x3F RETURNDATASIZE ADD AND DUP3 ADD PUSH1 0x40 MSTORE RETURNDATASIZE DUP3 MSTORE RETURNDATASIZE PUSH0 PUSH1 0x20 DUP5 ADD RETURNDATACOPY PUSH2 0x1339 JUMP JUMPDEST PUSH1 0x60 SWAP2 POP JUMPDEST POP SWAP2 POP SWAP2 POP PUSH2 0x1349 DUP7 DUP4 DUP4 PUSH2 0x1354 JUMP JUMPDEST SWAP3 POP POP POP SWAP4 SWAP3 POP POP POP JUMP JUMPDEST PUSH1 0x60 DUP3 PUSH2 0x1369 JUMPI PUSH2 0x1364 DUP3 PUSH2 0x13E1 JUMP JUMPDEST PUSH2 0x13D9 JUMP JUMPDEST PUSH0 DUP3 MLOAD EQ DUP1 ISZERO PUSH2 0x138F JUMPI POP PUSH0 DUP5 PUSH20 0xFFFFFFFFFFFFFFFFFFFFFFFFFFFFFFFFFFFFFFFF AND EXTCODESIZE EQ JUMPDEST ISZERO PUSH2 0x13D1 JUMPI DUP4 PUSH1 0x40 MLOAD PUSH32 0x9996B31500000000000000000000000000000000000000000000000000000000 DUP2 MSTORE PUSH1 0x4 ADD PUSH2 0x13C8 SWAP2 SWAP1 PUSH2 0x1735 JUMP JUMPDEST PUSH1 0x40 MLOAD DUP1 SWAP2 SUB SWAP1 REVERT JUMPDEST DUP2 SWAP1 POP PUSH2 0x13DA JUMP JUMPDEST JUMPDEST SWAP4 SWAP3 POP POP POP JUMP JUMPDEST PUSH0 DUP2 MLOAD GT ISZERO PUSH2 0x13F3 JUMPI DUP1 MLOAD DUP1 DUP3 PUSH1 0x20 ADD REVERT JUMPDEST PUSH1 0x40 MLOAD PUSH32 0x1425EA4200000000000000000000000000000000000000000000000000000000 DUP2 MSTORE PUSH1 0x4 ADD PUSH1 0x40 MLOAD DUP1 SWAP2 SUB SWAP1 REVERT JUMPDEST PUSH0 DUP1 REVERT JUMPDEST PUSH0 DUP2 SWAP1 POP SWAP2 SWAP1 POP JUMP JUMPDEST PUSH2 0x143B DUP2 PUSH2 0x1429 JUMP JUMPDEST DUP2 EQ PUSH2 0x1445 JUMPI PUSH0 DUP1 REVERT JUMPDEST POP JUMP JUMPDEST PUSH0 DUP2 CALLDATALOAD SWAP1 POP PUSH2 0x1456 DUP2 PUSH2 0x1432 JUMP JUMPDEST SWAP3 SWAP2 POP POP JUMP JUMPDEST PUSH0 PUSH20 0xFFFFFFFFFFFFFFFFFFFFFFFFFFFFFFFFFFFFFFFF DUP3 AND SWAP1 POP SWAP2 SWAP1 POP JUMP JUMPDEST PUSH0 PUSH2 0x1485 DUP3 PUSH2 0x145C JUMP JUMPDEST SWAP1 POP SWAP2 SWAP1 POP JUMP JUMPDEST PUSH2 0x1495 DUP2 PUSH2 0x147B JUMP JUMPDEST DUP2 EQ PUSH2 0x149F JUMPI PUSH0 DUP1 REVERT JUMPDEST POP JUMP JUMPDEST PUSH0 DUP2 CALLDATALOAD SWAP1 POP PUSH2 0x14B0 DUP2 PUSH2 0x148C JUMP JUMPDEST SWAP3 SWAP2 POP POP JUMP JUMPDEST PUSH0 DUP1 PUSH1 0x40 DUP4 DUP6 SUB SLT ISZERO PUSH2 0x14CC JUMPI PUSH2 0x14CB PUSH2 0x1425 JUMP JUMPDEST JUMPDEST PUSH0 PUSH2 0x14D9 DUP6 DUP3 DUP7 ADD PUSH2 0x1448 JUMP JUMPDEST SWAP3 POP POP PUSH1 0x20 PUSH2 0x14EA DUP6 DUP3 DUP7 ADD PUSH2 0x14A2 JUMP JUMPDEST SWAP2 POP POP SWAP3 POP SWAP3 SWAP1 POP JUMP JUMPDEST PUSH0 PUSH32 0xFFFFFFFF00000000000000000000000000000000000000000000000000000000 DUP3 AND SWAP1 POP SWAP2 SWAP1 POP JUMP JUMPDEST PUSH2 0x1528 DUP2 PUSH2 0x14F4 JUMP JUMPDEST DUP2 EQ PUSH2 0x1532 JUMPI PUSH0 DUP1 REVERT JUMPDEST POP JUMP JUMPDEST PUSH0 DUP2 CALLDATALOAD SWAP1 POP PUSH2 0x1543 DUP2 PUSH2 0x151F JUMP JUMPDEST SWAP3 SWAP2 POP POP JUMP JUMPDEST PUSH0 PUSH1 0x20 DUP3 DUP5 SUB SLT ISZERO PUSH2 0x155E JUMPI PUSH2 0x155D PUSH2 0x1425 JUMP JUMPDEST JUMPDEST PUSH0 PUSH2 0x156B DUP5 DUP3 DUP6 ADD PUSH2 0x1535 JUMP JUMPDEST SWAP2 POP POP SWAP3 SWAP2 POP POP JUMP JUMPDEST PUSH0 DUP2 ISZERO ISZERO SWAP1 POP SWAP2 SWAP1 POP JUMP JUMPDEST PUSH2 0x1588 DUP2 PUSH2 0x1574 JUMP JUMPDEST DUP3 MSTORE POP POP JUMP JUMPDEST PUSH0 PUSH1 0x20 DUP3 ADD SWAP1 POP PUSH2 0x15A1 PUSH0 DUP4 ADD DUP5 PUSH2 0x157F JUMP JUMPDEST SWAP3 SWAP2 POP POP JUMP JUMPDEST PUSH0 PUSH2 0x15B1 DUP3 PUSH2 0x147B JUMP JUMPDEST SWAP1 POP SWAP2 SWAP1 POP JUMP JUMPDEST PUSH2 0x15C1 DUP2 PUSH2 0x15A7 JUMP JUMPDEST DUP2 EQ PUSH2 0x15CB JUMPI PUSH0 DUP1 REVERT JUMPDEST POP JUMP JUMPDEST PUSH0 DUP2 CALLDATALOAD SWAP1 POP PUSH2 0x15DC DUP2 PUSH2 0x15B8 JUMP JUMPDEST SWAP3 SWAP2 POP POP JUMP JUMPDEST PUSH0 PUSH1 0x20 DUP3 DUP5 SUB SLT ISZERO PUSH2 0x15F7 JUMPI PUSH2 0x15F6 PUSH2 0x1425 JUMP JUMPDEST JUMPDEST PUSH0 PUSH2 0x1604 DUP5 DUP3 DUP6 ADD PUSH2 0x15CE JUMP JUMPDEST SWAP2 POP POP SWAP3 SWAP2 POP POP JUMP JUMPDEST PUSH0 DUP2 SWAP1 POP SWAP2 SWAP1 POP JUMP JUMPDEST PUSH2 0x161F DUP2 PUSH2 0x160D JUMP JUMPDEST DUP2 EQ PUSH2 0x1629 JUMPI PUSH0 DUP1 REVERT JUMPDEST POP JUMP JUMPDEST PUSH0 DUP2 CALLDATALOAD SWAP1 POP PUSH2 0x163A DUP2 PUSH2 0x1616 JUMP JUMPDEST SWAP3 SWAP2 POP POP JUMP JUMPDEST PUSH0 PUSH1 0x20 DUP3 DUP5 SUB SLT ISZERO PUSH2 0x1655 JUMPI PUSH2 0x1654 PUSH2 0x1425 JUMP JUMPDEST JUMPDEST PUSH0 PUSH2 0x1662 DUP5 DUP3 DUP6 ADD PUSH2 0x162C JUMP JUMPDEST SWAP2 POP POP SWAP3 SWAP2 POP POP JUMP JUMPDEST PUSH2 0x1674 DUP2 PUSH2 0x160D JUMP JUMPDEST DUP3 MSTORE POP POP JUMP JUMPDEST PUSH0 PUSH1 0x20 DUP3 ADD SWAP1 POP PUSH2 0x168D PUSH0 DUP4 ADD DUP5 PUSH2 0x166B JUMP JUMPDEST SWAP3 SWAP2 POP POP JUMP JUMPDEST PUSH0 DUP1 PUSH1 0x40 DUP4 DUP6 SUB SLT ISZERO PUSH2 0x16A9 JUMPI PUSH2 0x16A8 PUSH2 0x1425 JUMP JUMPDEST JUMPDEST PUSH0 PUSH2 0x16B6 DUP6 DUP3 DUP7 ADD PUSH2 0x162C JUMP JUMPDEST SWAP3 POP POP PUSH1 0x20 PUSH2 0x16C7 DUP6 DUP3 DUP7 ADD PUSH2 0x14A2 JUMP JUMPDEST SWAP2 POP POP SWAP3 POP SWAP3 SWAP1 POP JUMP JUMPDEST PUSH2 0x16DA DUP2 PUSH2 0x1574 JUMP JUMPDEST DUP2 EQ PUSH2 0x16E4 JUMPI PUSH0 DUP1 REVERT JUMPDEST POP JUMP JUMPDEST PUSH0 DUP2 CALLDATALOAD SWAP1 POP PUSH2 0x16F5 DUP2 PUSH2 0x16D1 JUMP JUMPDEST SWAP3 SWAP2 POP POP JUMP JUMPDEST PUSH0 PUSH1 0x20 DUP3 DUP5 SUB SLT ISZERO PUSH2 0x1710 JUMPI PUSH2 0x170F PUSH2 0x1425 JUMP JUMPDEST JUMPDEST PUSH0 PUSH2 0x171D DUP5 DUP3 DUP6 ADD PUSH2 0x16E7 JUMP JUMPDEST SWAP2 POP POP SWAP3 SWAP2 POP POP JUMP JUMPDEST PUSH2 0x172F DUP2 PUSH2 0x147B JUMP JUMPDEST DUP3 MSTORE POP POP JUMP JUMPDEST PUSH0 PUSH1 0x20 DUP3 ADD SWAP1 POP PUSH2 0x1748 PUSH0 DUP4 ADD DUP5 PUSH2 0x1726 JUMP JUMPDEST SWAP3 SWAP2 POP POP JUMP JUMPDEST PUSH0 DUP1 PUSH1 0x40 DUP4 DUP6 SUB SLT ISZERO PUSH2 0x1764 JUMPI PUSH2 0x1763 PUSH2 0x1425 JUMP JUMPDEST JUMPDEST PUSH0 PUSH2 0x1771 DUP6 DUP3 DUP7 ADD PUSH2 0x162C JUMP JUMPDEST SWAP3 POP POP PUSH1 0x20 PUSH2 0x1782 DUP6 DUP3 DUP7 ADD PUSH2 0x1448 JUMP JUMPDEST SWAP2 POP POP SWAP3 POP SWAP3 SWAP1 POP JUMP JUMPDEST PUSH0 PUSH1 0x20 DUP3 DUP5 SUB SLT ISZERO PUSH2 0x17A1 JUMPI PUSH2 0x17A0 PUSH2 0x1425 JUMP JUMPDEST JUMPDEST PUSH0 PUSH2 0x17AE DUP5 DUP3 DUP6 ADD PUSH2 0x1448 JUMP JUMPDEST SWAP2 POP POP SWAP3 SWAP2 POP POP JUMP JUMPDEST PUSH2 0x17C0 DUP2 PUSH2 0x1429 JUMP JUMPDEST DUP3 MSTORE POP POP JUMP JUMPDEST PUSH0 PUSH1 0x20 DUP3 ADD SWAP1 POP PUSH2 0x17D9 PUSH0 DUP4 ADD DUP5 PUSH2 0x17B7 JUMP JUMPDEST SWAP3 SWAP2 POP POP JUMP JUMPDEST PUSH0 PUSH1 0x20 DUP3 DUP5 SUB SLT ISZERO PUSH2 0x17F4 JUMPI PUSH2 0x17F3 PUSH2 0x1425 JUMP JUMPDEST JUMPDEST PUSH0 PUSH2 0x1801 DUP5 DUP3 DUP6 ADD PUSH2 0x14A2 JUMP JUMPDEST SWAP2 POP POP SWAP3 SWAP2 POP POP JUMP JUMPDEST PUSH0 DUP3 DUP3 MSTORE PUSH1 0x20 DUP3 ADD SWAP1 POP SWAP3 SWAP2 POP POP JUMP JUMPDEST PUSH32 0x43616C6C6572206973206E6F7420612077697468647261776572000000000000 PUSH0 DUP3 ADD MSTORE POP JUMP JUMPDEST PUSH0 PUSH2 0x184E PUSH1 0x1A DUP4 PUSH2 0x180A JUMP JUMPDEST SWAP2 POP PUSH2 0x1859 DUP3 PUSH2 0x181A JUMP JUMPDEST PUSH1 0x20 DUP3 ADD SWAP1 POP SWAP2 SWAP1 POP JUMP JUMPDEST PUSH0 PUSH1 0x20 DUP3 ADD SWAP1 POP DUP2 DUP2 SUB PUSH0 DUP4 ADD MSTORE PUSH2 0x187B DUP2 PUSH2 0x1842 JUMP JUMPDEST SWAP1 POP SWAP2 SWAP1 POP JUMP JUMPDEST PUSH32 0x5769746864726177206973206E6F7420617661696C61626C6500000000000000 PUSH0 DUP3 ADD MSTORE POP JUMP JUMPDEST PUSH0 PUSH2 0x18B6 PUSH1 0x19 DUP4 PUSH2 0x180A JUMP JUMPDEST SWAP2 POP PUSH2 0x18C1 DUP3 PUSH2 0x1882 JUMP JUMPDEST PUSH1 0x20 DUP3 ADD SWAP1 POP SWAP2 SWAP1 POP JUMP JUMPDEST PUSH0 PUSH1 0x20 DUP3 ADD SWAP1 POP DUP2 DUP2 SUB PUSH0 DUP4 ADD MSTORE PUSH2 0x18E3 DUP2 PUSH2 0x18AA JUMP JUMPDEST SWAP1 POP SWAP2 SWAP1 POP JUMP JUMPDEST PUSH32 0x457863656564206D6178696D756D20616D6F756E740000000000000000000000 PUSH0 DUP3 ADD MSTORE POP JUMP JUMPDEST PUSH0 PUSH2 0x191E PUSH1 0x15 DUP4 PUSH2 0x180A JUMP JUMPDEST SWAP2 POP PUSH2 0x1929 DUP3 PUSH2 0x18EA JUMP JUMPDEST PUSH1 0x20 DUP3 ADD SWAP1 POP SWAP2 SWAP1 POP JUMP JUMPDEST PUSH0 PUSH1 0x20 DUP3 ADD SWAP1 POP DUP2 DUP2 SUB PUSH0 DUP4 ADD MSTORE PUSH2 0x194B DUP2 PUSH2 0x1912 JUMP JUMPDEST SWAP1 POP SWAP2 SWAP1 POP JUMP JUMPDEST PUSH0 PUSH1 0x40 DUP3 ADD SWAP1 POP PUSH2 0x1965 PUSH0 DUP4 ADD DUP6 PUSH2 0x1726 JUMP JUMPDEST PUSH2 0x1972 PUSH1 0x20 DUP4 ADD DUP5 PUSH2 0x17B7 JUMP JUMPDEST SWAP4 SWAP3 POP POP POP JUMP JUMPDEST PUSH0 DUP2 MLOAD SWAP1 POP PUSH2 0x1987 DUP2 PUSH2 0x16D1 JUMP JUMPDEST SWAP3 SWAP2 POP POP JUMP JUMPDEST PUSH0 PUSH1 0x20 DUP3 DUP5 SUB SLT ISZERO PUSH2 0x19A2 JUMPI PUSH2 0x19A1 PUSH2 0x1425 JUMP JUMPDEST JUMPDEST PUSH0 PUSH2 0x19AF DUP5 DUP3 DUP6 ADD PUSH2 0x1979 JUMP JUMPDEST SWAP2 POP POP SWAP3 SWAP2 POP POP JUMP JUMPDEST PUSH0 DUP2 MLOAD SWAP1 POP PUSH2 0x19C6 DUP2 PUSH2 0x1432 JUMP JUMPDEST SWAP3 SWAP2 POP POP JUMP JUMPDEST PUSH0 PUSH1 0x20 DUP3 DUP5 SUB SLT ISZERO PUSH2 0x19E1 JUMPI PUSH2 0x19E0 PUSH2 0x1425 JUMP JUMPDEST JUMPDEST PUSH0 PUSH2 0x19EE DUP5 DUP3 DUP6 ADD PUSH2 0x19B8 JUMP JUMPDEST SWAP2 POP POP SWAP3 SWAP2 POP POP JUMP JUMPDEST PUSH32 0x496E73756666696369656E74206163636F756E742062616C616E636500000000 PUSH0 DUP3 ADD MSTORE POP JUMP JUMPDEST PUSH0 PUSH2 0x1A2B PUSH1 0x1C DUP4 PUSH2 0x180A JUMP JUMPDEST SWAP2 POP PUSH2 0x1A36 DUP3 PUSH2 0x19F7 JUMP JUMPDEST PUSH1 0x20 DUP3 ADD SWAP1 POP SWAP2 SWAP1 POP JUMP JUMPDEST PUSH0 PUSH1 0x20 DUP3 ADD SWAP1 POP DUP2 DUP2 SUB PUSH0 DUP4 ADD MSTORE PUSH2 0x1A58 DUP2 PUSH2 0x1A1F JUMP JUMPDEST SWAP1 POP SWAP2 SWAP1 POP JUMP JUMPDEST PUSH0 PUSH1 0x60 DUP3 ADD SWAP1 POP PUSH2 0x1A72 PUSH0 DUP4 ADD DUP7 PUSH2 0x1726 JUMP JUMPDEST PUSH2 0x1A7F PUSH1 0x20 DUP4 ADD DUP6 PUSH2 0x1726 JUMP JUMPDEST PUSH2 0x1A8C PUSH1 0x40 DUP4 ADD DUP5 PUSH2 0x17B7 JUMP JUMPDEST SWAP5 SWAP4 POP POP POP POP JUMP JUMPDEST PUSH0 PUSH1 0x40 DUP3 ADD SWAP1 POP PUSH2 0x1AA7 PUSH0 DUP4 ADD DUP6 PUSH2 0x1726 JUMP JUMPDEST PUSH2 0x1AB4 PUSH1 0x20 DUP4 ADD DUP5 PUSH2 0x166B JUMP JUMPDEST SWAP4 SWAP3 POP POP POP JUMP JUMPDEST PUSH32 0x4E487B7100000000000000000000000000000000000000000000000000000000 PUSH0 MSTORE PUSH1 0x32 PUSH1 0x4 MSTORE PUSH1 0x24 PUSH0 REVERT JUMPDEST PUSH32 0x4E487B7100000000000000000000000000000000000000000000000000000000 PUSH0 MSTORE PUSH1 0x11 PUSH1 0x4 MSTORE PUSH1 0x24 PUSH0 REVERT JUMPDEST PUSH0 PUSH2 0x1B1F DUP3 PUSH2 0x1429 JUMP JUMPDEST SWAP2 POP PUSH2 0x1B2A DUP4 PUSH2 0x1429 JUMP JUMPDEST SWAP3 POP DUP3 DUP3 SUB SWAP1 POP DUP2 DUP2 GT ISZERO PUSH2 0x1B42 JUMPI PUSH2 0x1B41 PUSH2 0x1AE8 JUMP JUMPDEST JUMPDEST SWAP3 SWAP2 POP POP JUMP JUMPDEST PUSH32 0x4E487B7100000000000000000000000000000000000000000000000000000000 PUSH0 MSTORE PUSH1 0x31 PUSH1 0x4 MSTORE PUSH1 0x24 PUSH0 REVERT JUMPDEST PUSH0 DUP2 MLOAD SWAP1 POP SWAP2 SWAP1 POP JUMP JUMPDEST PUSH0 DUP2 SWAP1 POP SWAP3 SWAP2 POP POP JUMP JUMPDEST PUSH0 JUMPDEST DUP4 DUP2 LT ISZERO PUSH2 0x1BA6 JUMPI DUP1 DUP3 ADD MLOAD DUP2 DUP5 ADD MSTORE PUSH1 0x20 DUP2 ADD SWAP1 POP PUSH2 0x1B8B JUMP JUMPDEST PUSH0 DUP5 DUP5 ADD MSTORE POP POP POP POP JUMP JUMPDEST PUSH0 PUSH2 0x1BBB DUP3 PUSH2 0x1B75 JUMP JUMPDEST PUSH2 0x1BC5 DUP2 DUP6 PUSH2 0x1B7F JUMP JUMPDEST SWAP4 POP PUSH2 0x1BD5 DUP2 DUP6 PUSH1 0x20 DUP7 ADD PUSH2 0x1B89 JUMP JUMPDEST DUP1 DUP5 ADD SWAP2 POP POP SWAP3 SWAP2 POP POP JUMP JUMPDEST PUSH0 PUSH2 0x1BEC DUP3 DUP5 PUSH2 0x1BB1 JUMP JUMPDEST SWAP2 POP DUP2 SWAP1 POP SWAP3 SWAP2 POP POP JUMP INVALID LOG2 PUSH5 0x6970667358 0x22 SLT KECCAK256 PUSH8 0x6D310B994D1572D2 0xE4 0xEF DIV PUSH6 0x5D722D4EF7C7 0xF MULMOD 0x21 0x27 DUP11 0xC7 CALLER ADDMOD 0xC1 EXP 0xE9 RETURN 0xF7 PUSH5 0x736F6C6343 STOP ADDMOD EQ STOP CALLER "
		},
		"gasEstimates": {
			"creation": {
				"codeDepositCost": "1442600",
				"executionCost": "infinite",
				"totalCost": "infinite"
			},
			"external": {
				"DEFAULT_ADMIN_ROLE()": "397",
				"WITHDRAWER_ROLE()": "414",
				"deposit(uint256)": "infinite",
				"getRoleAdmin(bytes32)": "infinite",
				"getRoleMember(bytes32,uint256)": "infinite",
				"getRoleMemberCount(bytes32)": "2893",
				"grantRole(bytes32,address)": "infinite",
				"hasRole(bytes32,address)": "3167",
				"maxWithdrawAmount()": "2535",
				"owner()": "2626",
				"renounceOwnership()": "infinite",
				"renounceRole(bytes32,address)": "infinite",
				"revokeRole(bytes32,address)": "infinite",
				"setMaxWithdrawAmount(uint256)": "infinite",
				"setToken(address)": "infinite",
				"setWithdrawEnable(bool)": "infinite",
				"supportsInterface(bytes4)": "851",
				"transferOwnership(address)": "infinite",
				"withdraw(uint256,address)": "infinite",
				"withdrawEnable()": "2555"
			}
		},
		"methodIdentifiers": {
			"DEFAULT_ADMIN_ROLE()": "a217fddf",
			"WITHDRAWER_ROLE()": "85f438c1",
			"deposit(uint256)": "b6b55f25",
			"getRoleAdmin(bytes32)": "248a9ca3",
			"getRoleMember(bytes32,uint256)": "9010d07c",
			"getRoleMemberCount(bytes32)": "ca15c873",
			"grantRole(bytes32,address)": "2f2ff15d",
			"hasRole(bytes32,address)": "91d14854",
			"maxWithdrawAmount()": "f516440c",
			"owner()": "8da5cb5b",
			"renounceOwnership()": "715018a6",
			"renounceRole(bytes32,address)": "36568abe",
			"revokeRole(bytes32,address)": "d547741f",
			"setMaxWithdrawAmount(uint256)": "df74e028",
			"setToken(address)": "144fa6d7",
			"setWithdrawEnable(bool)": "827a560b",
			"supportsInterface(bytes4)": "01ffc9a7",
			"transferOwnership(address)": "f2fde38b",
			"withdraw(uint256,address)": "00f714ce",
			"withdrawEnable()": "b5b68afe"
		}
	},
	"abi": [
		{
			"inputs": [
				{
					"internalType": "address",
					"name": "initialOwner",
					"type": "address"
				}
			],
			"stateMutability": "nonpayable",
			"type": "constructor"
		},
		{
			"inputs": [],
			"name": "AccessControlBadConfirmation",
			"type": "error"
		},
		{
			"inputs": [
				{
					"internalType": "address",
					"name": "account",
					"type": "address"
				},
				{
					"internalType": "bytes32",
					"name": "neededRole",
					"type": "bytes32"
				}
			],
			"name": "AccessControlUnauthorizedAccount",
			"type": "error"
		},
		{
			"inputs": [
				{
					"internalType": "address",
					"name": "target",
					"type": "address"
				}
			],
			"name": "AddressEmptyCode",
			"type": "error"
		},
		{
			"inputs": [
				{
					"internalType": "address",
					"name": "account",
					"type": "address"
				}
			],
			"name": "AddressInsufficientBalance",
			"type": "error"
		},
		{
			"inputs": [],
			"name": "FailedInnerCall",
			"type": "error"
		},
		{
			"inputs": [
				{
					"internalType": "address",
					"name": "owner",
					"type": "address"
				}
			],
			"name": "OwnableInvalidOwner",
			"type": "error"
		},
		{
			"inputs": [
				{
					"internalType": "address",
					"name": "account",
					"type": "address"
				}
			],
			"name": "OwnableUnauthorizedAccount",
			"type": "error"
		},
		{
			"inputs": [
				{
					"internalType": "address",
					"name": "token",
					"type": "address"
				}
			],
			"name": "SafeERC20FailedOperation",
			"type": "error"
		},
		{
			"anonymous": false,
			"inputs": [
				{
					"indexed": true,
					"internalType": "address",
					"name": "previousOwner",
					"type": "address"
				},
				{
					"indexed": true,
					"internalType": "address",
					"name": "newOwner",
					"type": "address"
				}
			],
			"name": "OwnershipTransferred",
			"type": "event"
		},
		{
			"anonymous": false,
			"inputs": [
				{
					"indexed": true,
					"internalType": "bytes32",
					"name": "role",
					"type": "bytes32"
				},
				{
					"indexed": true,
					"internalType": "bytes32",
					"name": "previousAdminRole",
					"type": "bytes32"
				},
				{
					"indexed": true,
					"internalType": "bytes32",
					"name": "newAdminRole",
					"type": "bytes32"
				}
			],
			"name": "RoleAdminChanged",
			"type": "event"
		},
		{
			"anonymous": false,
			"inputs": [
				{
					"indexed": true,
					"internalType": "bytes32",
					"name": "role",
					"type": "bytes32"
				},
				{
					"indexed": true,
					"internalType": "address",
					"name": "account",
					"type": "address"
				},
				{
					"indexed": true,
					"internalType": "address",
					"name": "sender",
					"type": "address"
				}
			],
			"name": "RoleGranted",
			"type": "event"
		},
		{
			"anonymous": false,
			"inputs": [
				{
					"indexed": true,
					"internalType": "bytes32",
					"name": "role",
					"type": "bytes32"
				},
				{
					"indexed": true,
					"internalType": "address",
					"name": "account",
					"type": "address"
				},
				{
					"indexed": true,
					"internalType": "address",
					"name": "sender",
					"type": "address"
				}
			],
			"name": "RoleRevoked",
			"type": "event"
		},
		{
			"inputs": [],
			"name": "DEFAULT_ADMIN_ROLE",
			"outputs": [
				{
					"internalType": "bytes32",
					"name": "",
					"type": "bytes32"
				}
			],
			"stateMutability": "view",
			"type": "function"
		},
		{
			"inputs": [],
			"name": "WITHDRAWER_ROLE",
			"outputs": [
				{
					"internalType": "bytes32",
					"name": "",
					"type": "bytes32"
				}
			],
			"stateMutability": "view",
			"type": "function"
		},
		{
			"inputs": [
				{
					"internalType": "uint256",
					"name": "_amount",
					"type": "uint256"
				}
			],
			"name": "deposit",
			"outputs": [],
			"stateMutability": "nonpayable",
			"type": "function"
		},
		{
			"inputs": [
				{
					"internalType": "bytes32",
					"name": "role",
					"type": "bytes32"
				}
			],
			"name": "getRoleAdmin",
			"outputs": [
				{
					"internalType": "bytes32",
					"name": "",
					"type": "bytes32"
				}
			],
			"stateMutability": "view",
			"type": "function"
		},
		{
			"inputs": [
				{
					"internalType": "bytes32",
					"name": "role",
					"type": "bytes32"
				},
				{
					"internalType": "uint256",
					"name": "index",
					"type": "uint256"
				}
			],
			"name": "getRoleMember",
			"outputs": [
				{
					"internalType": "address",
					"name": "",
					"type": "address"
				}
			],
			"stateMutability": "view",
			"type": "function"
		},
		{
			"inputs": [
				{
					"internalType": "bytes32",
					"name": "role",
					"type": "bytes32"
				}
			],
			"name": "getRoleMemberCount",
			"outputs": [
				{
					"internalType": "uint256",
					"name": "",
					"type": "uint256"
				}
			],
			"stateMutability": "view",
			"type": "function"
		},
		{
			"inputs": [
				{
					"internalType": "bytes32",
					"name": "role",
					"type": "bytes32"
				},
				{
					"internalType": "address",
					"name": "account",
					"type": "address"
				}
			],
			"name": "grantRole",
			"outputs": [],
			"stateMutability": "nonpayable",
			"type": "function"
		},
		{
			"inputs": [
				{
					"internalType": "bytes32",
					"name": "role",
					"type": "bytes32"
				},
				{
					"internalType": "address",
					"name": "account",
					"type": "address"
				}
			],
			"name": "hasRole",
			"outputs": [
				{
					"internalType": "bool",
					"name": "",
					"type": "bool"
				}
			],
			"stateMutability": "view",
			"type": "function"
		},
		{
			"inputs": [],
			"name": "maxWithdrawAmount",
			"outputs": [
				{
					"internalType": "uint256",
					"name": "",
					"type": "uint256"
				}
			],
			"stateMutability": "view",
			"type": "function"
		},
		{
			"inputs": [],
			"name": "owner",
			"outputs": [
				{
					"internalType": "address",
					"name": "",
					"type": "address"
				}
			],
			"stateMutability": "view",
			"type": "function"
		},
		{
			"inputs": [],
			"name": "renounceOwnership",
			"outputs": [],
			"stateMutability": "nonpayable",
			"type": "function"
		},
		{
			"inputs": [
				{
					"internalType": "bytes32",
					"name": "role",
					"type": "bytes32"
				},
				{
					"internalType": "address",
					"name": "callerConfirmation",
					"type": "address"
				}
			],
			"name": "renounceRole",
			"outputs": [],
			"stateMutability": "nonpayable",
			"type": "function"
		},
		{
			"inputs": [
				{
					"internalType": "bytes32",
					"name": "role",
					"type": "bytes32"
				},
				{
					"internalType": "address",
					"name": "account",
					"type": "address"
				}
			],
			"name": "revokeRole",
			"outputs": [],
			"stateMutability": "nonpayable",
			"type": "function"
		},
		{
			"inputs": [
				{
					"internalType": "uint256",
					"name": "_maxAmount",
					"type": "uint256"
				}
			],
			"name": "setMaxWithdrawAmount",
			"outputs": [],
			"stateMutability": "nonpayable",
			"type": "function"
		},
		{
			"inputs": [
				{
					"internalType": "contract IERC20",
					"name": "_token",
					"type": "address"
				}
			],
			"name": "setToken",
			"outputs": [],
			"stateMutability": "nonpayable",
			"type": "function"
		},
		{
			"inputs": [
				{
					"internalType": "bool",
					"name": "_isEnable",
					"type": "bool"
				}
			],
			"name": "setWithdrawEnable",
			"outputs": [],
			"stateMutability": "nonpayable",
			"type": "function"
		},
		{
			"inputs": [
				{
					"internalType": "bytes4",
					"name": "interfaceId",
					"type": "bytes4"
				}
			],
			"name": "supportsInterface",
			"outputs": [
				{
					"internalType": "bool",
					"name": "",
					"type": "bool"
				}
			],
			"stateMutability": "view",
			"type": "function"
		},
		{
			"inputs": [
				{
					"internalType": "address",
					"name": "newOwner",
					"type": "address"
				}
			],
			"name": "transferOwnership",
			"outputs": [],
			"stateMutability": "nonpayable",
			"type": "function"
		},
		{
			"inputs": [
				{
					"internalType": "uint256",
					"name": "_amount",
					"type": "uint256"
				},
				{
					"internalType": "address",
					"name": "_to",
					"type": "address"
				}
			],
			"name": "withdraw",
			"outputs": [],
			"stateMutability": "nonpayable",
			"type": "function"
		},
		{
			"inputs": [],
			"name": "withdrawEnable",
			"outputs": [
				{
					"internalType": "bool",
					"name": "",
					"type": "bool"
				}
			],
			"stateMutability": "view",
			"type": "function"
		}
	]
}